{
  "_format": "hh-sol-artifact-1",
  "contractName": "StakePaymaster",
  "sourceName": "contracts/tokens/StakePaymaster.sol",
  "abi": [
    {
      "inputs": [
        {
          "internalType": "address",
          "name": "_soccersm",
          "type": "address"
        }
      ],
      "stateMutability": "nonpayable",
      "type": "constructor"
    },
    {
      "inputs": [],
      "name": "NotImplemented",
      "type": "error"
    },
    {
      "inputs": [
        {
          "internalType": "address",
          "name": "owner",
          "type": "address"
        }
      ],
      "name": "OwnableInvalidOwner",
      "type": "error"
    },
    {
      "inputs": [
        {
          "internalType": "address",
          "name": "account",
          "type": "address"
        }
      ],
      "name": "OwnableUnauthorizedAccount",
      "type": "error"
    },
    {
      "inputs": [],
      "name": "ProtocolInvariantCheckFailed",
      "type": "error"
    },
    {
      "inputs": [
        {
          "internalType": "address",
          "name": "token",
          "type": "address"
        }
      ],
      "name": "SafeERC20FailedOperation",
      "type": "error"
    },
    {
      "anonymous": false,
      "inputs": [
        {
          "indexed": false,
          "internalType": "address",
          "name": "token",
          "type": "address"
        },
        {
          "indexed": false,
          "internalType": "address",
          "name": "sender",
          "type": "address"
        },
        {
          "indexed": false,
          "internalType": "address",
          "name": "from",
          "type": "address"
        },
        {
          "indexed": false,
          "internalType": "address",
          "name": "to",
          "type": "address"
        },
        {
          "indexed": false,
          "internalType": "uint256",
          "name": "amount",
          "type": "uint256"
        }
      ],
      "name": "Deposit",
      "type": "event"
    },
    {
      "anonymous": false,
      "inputs": [
        {
          "indexed": false,
          "internalType": "address",
          "name": "caller",
          "type": "address"
        },
        {
          "indexed": false,
          "internalType": "address",
          "name": "token",
          "type": "address"
        },
        {
          "indexed": false,
          "internalType": "uint256",
          "name": "amount",
          "type": "uint256"
        }
      ],
      "name": "Drain",
      "type": "event"
    },
    {
      "anonymous": false,
      "inputs": [
        {
          "indexed": true,
          "internalType": "address",
          "name": "previousOwner",
          "type": "address"
        },
        {
          "indexed": true,
          "internalType": "address",
          "name": "newOwner",
          "type": "address"
        }
      ],
      "name": "OwnershipTransferred",
      "type": "event"
    },
    {
      "anonymous": false,
      "inputs": [
        {
          "indexed": false,
          "internalType": "address",
          "name": "token",
          "type": "address"
        },
        {
          "indexed": false,
          "internalType": "address",
          "name": "sender",
          "type": "address"
        },
        {
          "indexed": false,
          "internalType": "address",
          "name": "from",
          "type": "address"
        },
        {
          "indexed": false,
          "internalType": "address",
          "name": "to",
          "type": "address"
        },
        {
          "indexed": false,
          "internalType": "uint256",
          "name": "amount",
          "type": "uint256"
        }
      ],
      "name": "Pay",
      "type": "event"
    },
    {
      "anonymous": false,
      "inputs": [
        {
          "indexed": false,
          "internalType": "address",
          "name": "caller",
          "type": "address"
        },
        {
          "indexed": false,
          "internalType": "address",
          "name": "soccersm",
          "type": "address"
        }
      ],
      "name": "SoccersmSet",
      "type": "event"
    },
    {
      "inputs": [
        {
          "internalType": "address",
          "name": "",
          "type": "address"
        },
        {
          "internalType": "address",
          "name": "",
          "type": "address"
        },
        {
          "internalType": "address",
          "name": "",
          "type": "address"
        }
      ],
      "name": "allowance",
      "outputs": [
        {
          "internalType": "uint256",
          "name": "",
          "type": "uint256"
        }
      ],
      "stateMutability": "view",
      "type": "function"
    },
    {
      "inputs": [
        {
          "internalType": "address",
          "name": "_token",
          "type": "address"
        },
        {
          "internalType": "address",
          "name": "_owner",
          "type": "address"
        }
      ],
      "name": "balance",
      "outputs": [
        {
          "internalType": "uint256",
          "name": "",
          "type": "uint256"
        }
      ],
      "stateMutability": "view",
      "type": "function"
    },
    {
      "inputs": [
        {
          "internalType": "address",
          "name": "",
          "type": "address"
        },
        {
          "internalType": "address",
          "name": "",
          "type": "address"
        },
        {
          "internalType": "uint256",
          "name": "",
          "type": "uint256"
        }
      ],
      "name": "consent",
      "outputs": [],
      "stateMutability": "pure",
      "type": "function"
    },
    {
      "inputs": [
        {
          "internalType": "address",
          "name": "",
          "type": "address"
        },
        {
          "internalType": "uint256",
          "name": "",
          "type": "uint256"
        }
      ],
      "name": "deposit",
      "outputs": [],
      "stateMutability": "pure",
      "type": "function"
    },
    {
      "inputs": [
        {
          "internalType": "address",
          "name": "_token",
          "type": "address"
        },
        {
          "internalType": "address",
          "name": "_addr",
          "type": "address"
        },
        {
          "internalType": "uint256",
          "name": "_amt",
          "type": "uint256"
        }
      ],
      "name": "depositFor",
      "outputs": [],
      "stateMutability": "nonpayable",
      "type": "function"
    },
    {
      "inputs": [
        {
          "internalType": "address",
          "name": "_token",
          "type": "address"
        }
      ],
      "name": "drain",
      "outputs": [],
      "stateMutability": "nonpayable",
      "type": "function"
    },
    {
      "inputs": [],
      "name": "owner",
      "outputs": [
        {
          "internalType": "address",
          "name": "",
          "type": "address"
        }
      ],
      "stateMutability": "view",
      "type": "function"
    },
    {
      "inputs": [
        {
          "internalType": "address",
          "name": "_token",
          "type": "address"
        },
        {
          "internalType": "address",
          "name": "_owner",
          "type": "address"
        },
        {
          "internalType": "uint256",
          "name": "_amt",
          "type": "uint256"
        }
      ],
      "name": "payFor",
      "outputs": [],
      "stateMutability": "nonpayable",
      "type": "function"
    },
    {
      "inputs": [],
      "name": "renounceOwnership",
      "outputs": [],
      "stateMutability": "nonpayable",
      "type": "function"
    },
    {
      "inputs": [
        {
          "internalType": "address",
          "name": "_soccersm",
          "type": "address"
        }
      ],
      "name": "setSoccersm",
      "outputs": [],
      "stateMutability": "nonpayable",
      "type": "function"
    },
    {
      "inputs": [],
      "name": "soccersm",
      "outputs": [
        {
          "internalType": "address",
          "name": "",
          "type": "address"
        }
      ],
      "stateMutability": "view",
      "type": "function"
    },
    {
      "inputs": [
        {
          "internalType": "address",
          "name": "newOwner",
          "type": "address"
        }
      ],
      "name": "transferOwnership",
      "outputs": [],
      "stateMutability": "nonpayable",
      "type": "function"
    },
    {
      "inputs": [
        {
          "internalType": "address",
          "name": "",
          "type": "address"
        },
        {
          "internalType": "uint256",
          "name": "",
          "type": "uint256"
        }
      ],
      "name": "withdraw",
      "outputs": [],
      "stateMutability": "pure",
      "type": "function"
    }
  ],
  "bytecode": "0x60803460d157601f610f9c38819003918201601f19168301916001600160401b0383118484101760d65780849260209460405283398101031260d157516001600160a01b0381169081900360d157331560bb5760008054336001600160a01b0319821681178355604051939290916001600160a01b0316907f8be0079c531659141344cd1fd0a4f28419497f9722a3daafe3b4186f6b6457e09080a3600380546001600160a01b031916919091179055610eaf90816100ed8239f35b631e4fbdf760e01b600052600060045260246000fd5b600080fd5b634e487b7160e01b600052604160045260246000fdfe608080604052600436101561001357600080fd5b60003560e01c9081632012660214610a945750806347e7ef24146100ae5780634f3ad61a14610a59578063715018a6146109bd5780638da5cb5b1461096b578063927da105146108995780639865a1d3146105a5578063b203bb9914610553578063b3db428b146103b0578063dac2527214610300578063ece53132146101aa578063f2fde38b146100b35763f3fef3a3146100ae57600080fd5b610b29565b346101a55760207ffffffffffffffffffffffffffffffffffffffffffffffffffffffffffffffffc3601126101a55773ffffffffffffffffffffffffffffffffffffffff6100ff610ae3565b610107610d47565b1680156101765773ffffffffffffffffffffffffffffffffffffffff600054827fffffffffffffffffffffffff0000000000000000000000000000000000000000821617600055167f8be0079c531659141344cd1fd0a4f28419497f9722a3daafe3b4186f6b6457e0600080a3005b7f1e4fbdf700000000000000000000000000000000000000000000000000000000600052600060045260246000fd5b600080fd5b346101a55760207ffffffffffffffffffffffffffffffffffffffffffffffffffffffffffffffffc3601126101a55773ffffffffffffffffffffffffffffffffffffffff6101f6610ae3565b6101fe610d47565b166040517f70a08231000000000000000000000000000000000000000000000000000000008152306004820152602081602481855afa9081156102f45760009161029f575b7f8d7de0d744939828a45312f477570c38e6a5be66c3eba42a8e12700ef969d2db6060848461028b8173ffffffffffffffffffffffffffffffffffffffff6000541684610d96565b6040519133835260208301526040820152a1005b906020823d6020116102ec575b816102b960209383610c0a565b810103126102e95750517f8d7de0d744939828a45312f477570c38e6a5be66c3eba42a8e12700ef969d2db610243565b80fd5b3d91506102ac565b6040513d6000823e3d90fd5b346101a55760207ffffffffffffffffffffffffffffffffffffffffffffffffffffffffffffffffc3601126101a5577f495c8456ee8c1d76571dcefe32fe29dc1de2222b2da1daba6a6c20cad21da521604073ffffffffffffffffffffffffffffffffffffffff61036f610ae3565b610377610d47565b16807fffffffffffffffffffffffff000000000000000000000000000000000000000060035416176003558151903382526020820152a1005b346101a5576103be36610b8b565b9173ffffffffffffffffffffffffffffffffffffffff6003541633148015610532575b156104d45773ffffffffffffffffffffffffffffffffffffffff81166000526001602052604060002073ffffffffffffffffffffffffffffffffffffffff831660005260205260406000208054938085018095116104a5579390556040805173ffffffffffffffffffffffffffffffffffffffff92831681523360208201819052918101919091529116606082015260808101919091527fa856e8f098813135735b4d4f52d96083d1dbb35fd5603ff424661413f59c2810908060a081015b0390a1005b7f4e487b7100000000000000000000000000000000000000000000000000000000600052601160045260246000fd5b60646040517f08c379a000000000000000000000000000000000000000000000000000000000815260206004820152601d60248201527f4d75737420626520736f63636572736d206f72206f776e6572202e2e2e0000006044820152fd5b5073ffffffffffffffffffffffffffffffffffffffff6000541633146103e1565b346101a55760407ffffffffffffffffffffffffffffffffffffffffffffffffffffffffffffffffc3601126101a557602061059d61058f610ae3565b610597610b06565b90610c7a565b604051908152f35b346101a5576105b336610b8b565b919073ffffffffffffffffffffffffffffffffffffffff60035416330361083b57826105df8284610c7a565b106107dd5773ffffffffffffffffffffffffffffffffffffffff8216806000526001602052604060002073ffffffffffffffffffffffffffffffffffffffff83166000526020526040600020610636858254610bfd565b9055604051907f70a08231000000000000000000000000000000000000000000000000000000008252306004830152602082602481845afa9182156102f4576000926107a8575b50602060249161068e873383610d96565b604051928380927f70a082310000000000000000000000000000000000000000000000000000000082523060048301525afa80156102f4578591600091610771575b506106db9192610bfd565b03610747576040805173ffffffffffffffffffffffffffffffffffffffff938416815233602082018190529290931690830152606082015260808101919091527f9c91083bf2bcc984403e28a0d7f7583525d96d92b78f1e97a450ee43e9e3e5ba908060a081016104a0565b7fc7e8fc500000000000000000000000000000000000000000000000000000000060005260046000fd5b9150506020813d6020116107a0575b8161078d60209383610c0a565b810103126101a5575184906106db6106d0565b3d9150610780565b9091506020813d6020116107d5575b816107c460209383610c0a565b810103126101a5575190602061067d565b3d91506107b7565b60646040517f08c379a000000000000000000000000000000000000000000000000000000000815260206004820152600f60248201527f6c6f772062616c616e6365202e2e2e00000000000000000000000000000000006044820152fd5b60646040517f08c379a000000000000000000000000000000000000000000000000000000000815260206004820152601460248201527f4d75737420626520736f63636572736d202e2e2e0000000000000000000000006044820152fd5b346101a55760607ffffffffffffffffffffffffffffffffffffffffffffffffffffffffffffffffc3601126101a5576108d0610ae3565b6108d8610b06565b6044359173ffffffffffffffffffffffffffffffffffffffff831683036101a55773ffffffffffffffffffffffffffffffffffffffff16600052600260205273ffffffffffffffffffffffffffffffffffffffff6040600020911660005260205273ffffffffffffffffffffffffffffffffffffffff604060002091166000526020526020604060002054604051908152f35b346101a55760007ffffffffffffffffffffffffffffffffffffffffffffffffffffffffffffffffc3601126101a557602073ffffffffffffffffffffffffffffffffffffffff60005416604051908152f35b346101a55760007ffffffffffffffffffffffffffffffffffffffffffffffffffffffffffffffffc3601126101a5576109f4610d47565b600073ffffffffffffffffffffffffffffffffffffffff81547fffffffffffffffffffffffff000000000000000000000000000000000000000081168355167f8be0079c531659141344cd1fd0a4f28419497f9722a3daafe3b4186f6b6457e08280a3005b346101a557610a6736610b8b565b5050507fd62347250000000000000000000000000000000000000000000000000000000060005260046000fd5b346101a55760007ffffffffffffffffffffffffffffffffffffffffffffffffffffffffffffffffc3601126101a55760209073ffffffffffffffffffffffffffffffffffffffff600354168152f35b6004359073ffffffffffffffffffffffffffffffffffffffff821682036101a557565b6024359073ffffffffffffffffffffffffffffffffffffffff821682036101a557565b346101a55760407ffffffffffffffffffffffffffffffffffffffffffffffffffffffffffffffffc3601126101a557610b60610ae3565b507fd62347250000000000000000000000000000000000000000000000000000000060005260046000fd5b7ffffffffffffffffffffffffffffffffffffffffffffffffffffffffffffffffc60609101126101a55760043573ffffffffffffffffffffffffffffffffffffffff811681036101a5579060243573ffffffffffffffffffffffffffffffffffffffff811681036101a5579060443590565b919082039182116104a557565b90601f7fffffffffffffffffffffffffffffffffffffffffffffffffffffffffffffffe0910116810190811067ffffffffffffffff821117610c4b57604052565b7f4e487b7100000000000000000000000000000000000000000000000000000000600052604160045260246000fd5b73ffffffffffffffffffffffffffffffffffffffff1690604051917f70a08231000000000000000000000000000000000000000000000000000000008352306004840152602083602481845afa9283156102f457600093610d13575b50600052600160205273ffffffffffffffffffffffffffffffffffffffff6040600020911660005260205260406000205490818082109118021890565b90926020823d602011610d3f575b81610d2e60209383610c0a565b810103126102e95750519138610cd6565b3d9150610d21565b73ffffffffffffffffffffffffffffffffffffffff600054163303610d6857565b7f118cdaa7000000000000000000000000000000000000000000000000000000006000523360045260246000fd5b916020916000916040519073ffffffffffffffffffffffffffffffffffffffff858301937fa9059cbb000000000000000000000000000000000000000000000000000000008552166024830152604482015260448152610df7606482610c0a565b519082855af1156102f4576000513d610e70575073ffffffffffffffffffffffffffffffffffffffff81163b155b610e2c5750565b73ffffffffffffffffffffffffffffffffffffffff907f5274afe7000000000000000000000000000000000000000000000000000000006000521660045260246000fd5b60011415610e2556fea2646970667358221220ef723672b826742b0c0ed6561e32b2751d69cdd7cdaa27a6d9ae258d71fa822664736f6c634300081c0033",
  "linkReferences": {},
  "deployedLinkReferences": {}
}