{
  "_format": "hh-sol-artifact-1",
  "contractName": "ChallengePoolHandler",
  "sourceName": "contracts/modules/ChallengePoolHandler.sol",
  "abi": [
    {
      "inputs": [
        {
          "internalType": "enum IChallengePoolCommon.ChallengeState",
          "name": "_state",
          "type": "uint8"
        }
      ],
      "name": "ActionNotAllowedForState",
      "type": "error"
    },
    {
      "inputs": [],
      "name": "BelowMinPrie",
      "type": "error"
    },
    {
      "inputs": [],
      "name": "CommunityChallengeRequiresCommunity",
      "type": "error"
    },
    {
      "inputs": [
        {
          "internalType": "bytes32",
          "name": "communityId",
          "type": "bytes32"
        }
      ],
      "name": "CommunityDoesNotExist",
      "type": "error"
    },
    {
      "inputs": [],
      "name": "CommunityIsBanned",
      "type": "error"
    },
    {
      "inputs": [],
      "name": "DeadlineExceeded",
      "type": "error"
    },
    {
      "inputs": [
        {
          "internalType": "string",
          "name": "_functionName",
          "type": "string"
        }
      ],
      "name": "DelegateCallFailed",
      "type": "error"
    },
    {
      "inputs": [],
      "name": "DisputePeriod",
      "type": "error"
    },
    {
      "inputs": [],
      "name": "DisputePeriodElapsed",
      "type": "error"
    },
    {
      "inputs": [
        {
          "internalType": "uint256",
          "name": "_requested",
          "type": "uint256"
        },
        {
          "internalType": "uint256",
          "name": "_available",
          "type": "uint256"
        }
      ],
      "name": "InsufficientStakes",
      "type": "error"
    },
    {
      "inputs": [],
      "name": "InvalidChallenge",
      "type": "error"
    },
    {
      "inputs": [],
      "name": "InvalidEventLength",
      "type": "error"
    },
    {
      "inputs": [],
      "name": "InvalidEventMaturity",
      "type": "error"
    },
    {
      "inputs": [],
      "name": "InvalidEventParam",
      "type": "error"
    },
    {
      "inputs": [],
      "name": "InvalidEventTopic",
      "type": "error"
    },
    {
      "inputs": [],
      "name": "InvalidOptionsLength",
      "type": "error"
    },
    {
      "inputs": [],
      "name": "InvalidOutcome",
      "type": "error"
    },
    {
      "inputs": [],
      "name": "InvalidPoolOption",
      "type": "error"
    },
    {
      "inputs": [],
      "name": "InvalidPrediction",
      "type": "error"
    },
    {
      "inputs": [],
      "name": "MaxPriceExceeded",
      "type": "error"
    },
    {
      "inputs": [
        {
          "internalType": "bytes32",
          "name": "communityId",
          "type": "bytes32"
        },
        {
          "internalType": "address",
          "name": "caller",
          "type": "address"
        }
      ],
      "name": "NotCommunityOwnerOrAdmin",
      "type": "error"
    },
    {
      "inputs": [],
      "name": "NotImplemented",
      "type": "error"
    },
    {
      "inputs": [],
      "name": "Pausable__NotPaused",
      "type": "error"
    },
    {
      "inputs": [],
      "name": "Pausable__Paused",
      "type": "error"
    },
    {
      "inputs": [],
      "name": "PlayerAlreadyDisputed",
      "type": "error"
    },
    {
      "inputs": [],
      "name": "PlayerAlreadyReleased",
      "type": "error"
    },
    {
      "inputs": [],
      "name": "PlayerAlreadyWithdrawn",
      "type": "error"
    },
    {
      "inputs": [],
      "name": "PlayerDidNotDispute",
      "type": "error"
    },
    {
      "inputs": [],
      "name": "PlayerDidNotWinPool",
      "type": "error"
    },
    {
      "inputs": [],
      "name": "PlayerLostDispute",
      "type": "error"
    },
    {
      "inputs": [],
      "name": "PlayerNotInPool",
      "type": "error"
    },
    {
      "inputs": [],
      "name": "ProtocolInvariantCheckFailed",
      "type": "error"
    },
    {
      "inputs": [],
      "name": "ReentrancyGuard__ReentrantCall",
      "type": "error"
    },
    {
      "inputs": [
        {
          "internalType": "address",
          "name": "token",
          "type": "address"
        }
      ],
      "name": "SafeERC20FailedOperation",
      "type": "error"
    },
    {
      "inputs": [],
      "name": "StakeLowerThanMinimum",
      "type": "error"
    },
    {
      "inputs": [
        {
          "internalType": "address",
          "name": "_token",
          "type": "address"
        }
      ],
      "name": "UnsupportedToken",
      "type": "error"
    },
    {
      "inputs": [],
      "name": "ZeroAddress",
      "type": "error"
    },
    {
      "inputs": [],
      "name": "ZeroNumber",
      "type": "error"
    },
    {
      "anonymous": false,
      "inputs": [
        {
          "indexed": false,
          "internalType": "uint256",
          "name": "challengeId",
          "type": "uint256"
        },
        {
          "indexed": false,
          "internalType": "address",
          "name": "closer",
          "type": "address"
        },
        {
          "indexed": false,
          "internalType": "enum IChallengePoolCommon.ChallengeState",
          "name": "state",
          "type": "uint8"
        },
        {
          "indexed": false,
          "internalType": "bytes",
          "name": "result",
          "type": "bytes"
        }
      ],
      "name": "CloseChallenge",
      "type": "event"
    },
    {
      "anonymous": false,
      "inputs": [
        {
          "indexed": false,
          "internalType": "uint256",
          "name": "challengeId",
          "type": "uint256"
        },
        {
          "indexed": false,
          "internalType": "address",
          "name": "evaluator",
          "type": "address"
        },
        {
          "indexed": false,
          "internalType": "enum IChallengePoolCommon.ChallengeState",
          "name": "state",
          "type": "uint8"
        },
        {
          "indexed": false,
          "internalType": "bytes",
          "name": "result",
          "type": "bytes"
        }
      ],
      "name": "EvaluateChallenge",
      "type": "event"
    },
    {
      "anonymous": false,
      "inputs": [
        {
          "indexed": false,
          "internalType": "uint256",
          "name": "challengeId",
          "type": "uint256"
        },
        {
          "indexed": false,
          "internalType": "address",
          "name": "creator",
          "type": "address"
        },
        {
          "indexed": false,
          "internalType": "uint256",
          "name": "createdAt",
          "type": "uint256"
        },
        {
          "indexed": false,
          "internalType": "uint256",
          "name": "maturity",
          "type": "uint256"
        },
        {
          "indexed": false,
          "internalType": "enum IChallengePoolCommon.ChallengeState",
          "name": "state",
          "type": "uint8"
        },
        {
          "indexed": false,
          "internalType": "bytes",
          "name": "result",
          "type": "bytes"
        },
        {
          "indexed": false,
          "internalType": "uint256",
          "name": "basePrice",
          "type": "uint256"
        },
        {
          "indexed": false,
          "internalType": "uint256",
          "name": "fee",
          "type": "uint256"
        },
        {
          "indexed": false,
          "internalType": "uint256",
          "name": "quantity",
          "type": "uint256"
        },
        {
          "indexed": false,
          "internalType": "uint256",
          "name": "totalAmount",
          "type": "uint256"
        },
        {
          "indexed": false,
          "internalType": "uint256",
          "name": "rewards",
          "type": "uint256"
        },
        {
          "indexed": false,
          "internalType": "bytes",
          "name": "prediction",
          "type": "bytes"
        },
        {
          "components": [
            {
              "internalType": "bytes",
              "name": "params",
              "type": "bytes"
            },
            {
              "internalType": "string",
              "name": "topicId",
              "type": "string"
            },
            {
              "internalType": "uint256",
              "name": "maturity",
              "type": "uint256"
            }
          ],
          "indexed": false,
          "internalType": "struct IChallengePoolCommon.ChallengeEvent[]",
          "name": "events",
          "type": "tuple[]"
        },
        {
          "indexed": false,
          "internalType": "bytes[]",
          "name": "options",
          "type": "bytes[]"
        },
        {
          "indexed": false,
          "internalType": "address",
          "name": "stakeToken",
          "type": "address"
        },
        {
          "indexed": false,
          "internalType": "bool",
          "name": "multi",
          "type": "bool"
        }
      ],
      "name": "NewChallenge",
      "type": "event"
    },
    {
      "anonymous": false,
      "inputs": [
        {
          "indexed": false,
          "internalType": "uint256",
          "name": "challengeId",
          "type": "uint256"
        },
        {
          "indexed": false,
          "internalType": "address",
          "name": "creator",
          "type": "address"
        },
        {
          "indexed": false,
          "internalType": "uint256",
          "name": "createdAt",
          "type": "uint256"
        },
        {
          "indexed": false,
          "internalType": "uint256",
          "name": "maturity",
          "type": "uint256"
        },
        {
          "indexed": false,
          "internalType": "enum IChallengePoolCommon.ChallengeState",
          "name": "state",
          "type": "uint8"
        },
        {
          "indexed": false,
          "internalType": "bytes",
          "name": "result",
          "type": "bytes"
        },
        {
          "indexed": false,
          "internalType": "uint256",
          "name": "basePrice",
          "type": "uint256"
        },
        {
          "indexed": false,
          "internalType": "uint256",
          "name": "fee",
          "type": "uint256"
        },
        {
          "indexed": false,
          "internalType": "uint256",
          "name": "quantity",
          "type": "uint256"
        },
        {
          "indexed": false,
          "internalType": "uint256",
          "name": "totalAmount",
          "type": "uint256"
        },
        {
          "indexed": false,
          "internalType": "uint256",
          "name": "rewards",
          "type": "uint256"
        },
        {
          "indexed": false,
          "internalType": "bytes",
          "name": "prediction",
          "type": "bytes"
        },
        {
          "components": [
            {
              "internalType": "bytes",
              "name": "params",
              "type": "bytes"
            },
            {
              "internalType": "string",
              "name": "topicId",
              "type": "string"
            },
            {
              "internalType": "uint256",
              "name": "maturity",
              "type": "uint256"
            }
          ],
          "indexed": false,
          "internalType": "struct IChallengePoolCommon.ChallengeEvent[]",
          "name": "events",
          "type": "tuple[]"
        },
        {
          "indexed": false,
          "internalType": "bytes[]",
          "name": "options",
          "type": "bytes[]"
        },
        {
          "indexed": false,
          "internalType": "address",
          "name": "stakeToken",
          "type": "address"
        },
        {
          "indexed": false,
          "internalType": "bool",
          "name": "multi",
          "type": "bool"
        },
        {
          "indexed": false,
          "internalType": "bytes32",
          "name": "communityId",
          "type": "bytes32"
        },
        {
          "indexed": false,
          "internalType": "enum IChallengePoolCommon.ChallengeType",
          "name": "cType",
          "type": "uint8"
        }
      ],
      "name": "NewCommunityChallenge",
      "type": "event"
    },
    {
      "anonymous": false,
      "inputs": [
        {
          "indexed": false,
          "internalType": "address",
          "name": "account",
          "type": "address"
        }
      ],
      "name": "Paused",
      "type": "event"
    },
    {
      "anonymous": false,
      "inputs": [
        {
          "indexed": true,
          "internalType": "bytes32",
          "name": "role",
          "type": "bytes32"
        },
        {
          "indexed": true,
          "internalType": "bytes32",
          "name": "previousAdminRole",
          "type": "bytes32"
        },
        {
          "indexed": true,
          "internalType": "bytes32",
          "name": "newAdminRole",
          "type": "bytes32"
        }
      ],
      "name": "RoleAdminChanged",
      "type": "event"
    },
    {
      "anonymous": false,
      "inputs": [
        {
          "indexed": true,
          "internalType": "bytes32",
          "name": "role",
          "type": "bytes32"
        },
        {
          "indexed": true,
          "internalType": "address",
          "name": "account",
          "type": "address"
        },
        {
          "indexed": true,
          "internalType": "address",
          "name": "sender",
          "type": "address"
        }
      ],
      "name": "RoleGranted",
      "type": "event"
    },
    {
      "anonymous": false,
      "inputs": [
        {
          "indexed": true,
          "internalType": "bytes32",
          "name": "role",
          "type": "bytes32"
        },
        {
          "indexed": true,
          "internalType": "address",
          "name": "account",
          "type": "address"
        },
        {
          "indexed": true,
          "internalType": "address",
          "name": "sender",
          "type": "address"
        }
      ],
      "name": "RoleRevoked",
      "type": "event"
    },
    {
      "anonymous": false,
      "inputs": [
        {
          "indexed": false,
          "internalType": "uint256",
          "name": "challengeId",
          "type": "uint256"
        },
        {
          "indexed": false,
          "internalType": "address",
          "name": "participant",
          "type": "address"
        },
        {
          "indexed": false,
          "internalType": "bytes",
          "name": "option",
          "type": "bytes"
        },
        {
          "indexed": false,
          "internalType": "uint256",
          "name": "stakes",
          "type": "uint256"
        },
        {
          "indexed": false,
          "internalType": "uint256",
          "name": "price",
          "type": "uint256"
        },
        {
          "indexed": false,
          "internalType": "uint256",
          "name": "totalAmount",
          "type": "uint256"
        },
        {
          "indexed": false,
          "internalType": "uint256",
          "name": "fee",
          "type": "uint256"
        },
        {
          "indexed": false,
          "internalType": "uint256",
          "name": "rewards",
          "type": "uint256"
        }
      ],
      "name": "Stake",
      "type": "event"
    },
    {
      "anonymous": false,
      "inputs": [
        {
          "indexed": false,
          "internalType": "address",
          "name": "account",
          "type": "address"
        }
      ],
      "name": "Unpaused",
      "type": "event"
    },
    {
      "anonymous": false,
      "inputs": [
        {
          "indexed": false,
          "internalType": "uint256",
          "name": "challengeId",
          "type": "uint256"
        },
        {
          "indexed": false,
          "internalType": "address",
          "name": "participant",
          "type": "address"
        },
        {
          "indexed": false,
          "internalType": "uint256",
          "name": "amountWon",
          "type": "uint256"
        },
        {
          "indexed": false,
          "internalType": "uint256",
          "name": "amountWithdrawn",
          "type": "uint256"
        }
      ],
      "name": "WinningsWithdrawn",
      "type": "event"
    },
    {
      "anonymous": false,
      "inputs": [
        {
          "indexed": false,
          "internalType": "uint256",
          "name": "challengeId",
          "type": "uint256"
        },
        {
          "indexed": false,
          "internalType": "address",
          "name": "participant",
          "type": "address"
        },
        {
          "indexed": false,
          "internalType": "bytes",
          "name": "option",
          "type": "bytes"
        },
        {
          "indexed": false,
          "internalType": "uint256",
          "name": "stakes",
          "type": "uint256"
        },
        {
          "indexed": false,
          "internalType": "uint256",
          "name": "price",
          "type": "uint256"
        },
        {
          "indexed": false,
          "internalType": "uint256",
          "name": "penalty",
          "type": "uint256"
        },
        {
          "indexed": false,
          "internalType": "uint256",
          "name": "totalAmount",
          "type": "uint256"
        },
        {
          "indexed": false,
          "internalType": "uint256",
          "name": "fee",
          "type": "uint256"
        },
        {
          "indexed": false,
          "internalType": "uint256",
          "name": "rewards",
          "type": "uint256"
        }
      ],
      "name": "Withdraw",
      "type": "event"
    },
    {
      "inputs": [
        {
          "internalType": "uint256[]",
          "name": "_challengeIds",
          "type": "uint256[]"
        }
      ],
      "name": "bulkWithdraw",
      "outputs": [],
      "stateMutability": "nonpayable",
      "type": "function"
    },
    {
      "inputs": [
        {
          "internalType": "uint256",
          "name": "_challengeId",
          "type": "uint256"
        }
      ],
      "name": "close",
      "outputs": [],
      "stateMutability": "nonpayable",
      "type": "function"
    },
    {
      "inputs": [
        {
          "components": [
            {
              "internalType": "bytes",
              "name": "params",
              "type": "bytes"
            },
            {
              "internalType": "string",
              "name": "topicId",
              "type": "string"
            },
            {
              "internalType": "uint256",
              "name": "maturity",
              "type": "uint256"
            }
          ],
          "internalType": "struct IChallengePoolCommon.ChallengeEvent[]",
          "name": "_events",
          "type": "tuple[]"
        },
        {
          "internalType": "bytes[]",
          "name": "_options",
          "type": "bytes[]"
        },
        {
          "internalType": "address",
          "name": "_stakeToken",
          "type": "address"
        },
        {
          "internalType": "bytes",
          "name": "_prediction",
          "type": "bytes"
        },
        {
          "internalType": "uint256",
          "name": "_quantity",
          "type": "uint256"
        },
        {
          "internalType": "uint256",
          "name": "_basePrice",
          "type": "uint256"
        },
        {
          "internalType": "address",
          "name": "_paymaster",
          "type": "address"
        },
        {
          "internalType": "bytes32",
          "name": "_communityId",
          "type": "bytes32"
        },
        {
          "internalType": "enum IChallengePoolCommon.ChallengeType",
          "name": "_cType",
          "type": "uint8"
        }
      ],
      "name": "createChallenge",
      "outputs": [],
      "stateMutability": "nonpayable",
      "type": "function"
    },
    {
      "inputs": [
        {
          "internalType": "uint256",
          "name": "_challengeId",
          "type": "uint256"
        },
        {
          "internalType": "bytes",
          "name": "_prediction",
          "type": "bytes"
        },
        {
          "internalType": "uint256",
          "name": "_quantity",
          "type": "uint256"
        },
        {
          "internalType": "uint256",
          "name": "_deadline",
          "type": "uint256"
        }
      ],
      "name": "earlyWithdraw",
      "outputs": [],
      "stateMutability": "nonpayable",
      "type": "function"
    },
    {
      "inputs": [
        {
          "internalType": "uint256",
          "name": "_challengeId",
          "type": "uint256"
        }
      ],
      "name": "evaluate",
      "outputs": [],
      "stateMutability": "nonpayable",
      "type": "function"
    },
    {
      "inputs": [
        {
          "internalType": "uint256",
          "name": "_challengeId",
          "type": "uint256"
        },
        {
          "internalType": "bytes",
          "name": "_prediction",
          "type": "bytes"
        },
        {
          "internalType": "uint256",
          "name": "_quantity",
          "type": "uint256"
        },
        {
          "internalType": "address",
          "name": "_paymaster",
          "type": "address"
        }
      ],
      "name": "stake",
      "outputs": [],
      "stateMutability": "nonpayable",
      "type": "function"
    },
    {
      "inputs": [
        {
          "internalType": "uint256",
          "name": "_challengeId",
          "type": "uint256"
        }
      ],
      "name": "withdraw",
      "outputs": [],
      "stateMutability": "nonpayable",
      "type": "function"
    }
  ],
  "bytecode": "0x60808060405234601557614e67908161001b8239f35b600080fdfe6101c0604052600436101561001357600080fd5b60003560e01c80630aebeb4e14612dca57806318d2d415146126705780632e1a7d4d1461256e5780633714323314612192578063a6a21a5d146120e5578063ac68a63014611ecf5763f1a5d5c51461006a57600080fd5b34611678576101207ffffffffffffffffffffffffffffffffffffffffffffffffffffffffffffffffc3601126116785760043567ffffffffffffffff8111611678576100ba903690600401612ff8565b60805260a05260243567ffffffffffffffff8111611678576100e0903690600401612ff8565b60443561012081905273ffffffffffffffffffffffffffffffffffffffff811690036116785760643567ffffffffffffffff811161167857610126903690600401612fca565b60c43561014081905290939073ffffffffffffffffffffffffffffffffffffffff81169003611678576003610104351015806116785760ff7f68721c0bbf2c02a4d65000340d1370666be06a630022208d4baa9bd7a4b6fea85416611ea55760843515611e7b5760a43515611e7b5773ffffffffffffffffffffffffffffffffffffffff610120511615611e515760ff60026102046101205173ffffffffffffffffffffffffffffffffffffffff166000527fbc351ae7fa32df0c8ad57278243ae7d011e90d073629dfc92fda8e9f319c6fd4602052604060002090565b01541615611e0a577fbc351ae7fa32df0c8ad57278243ae7d011e90d073629dfc92fda8e9f319c6fd95460a43510611de0576102646102443687866132dd565b6020610100819052604051919061025b9083613061565b600082526136e6565b6119565760e435611c81575060009261010435611c59575b600160805110611c05577fbc351ae7fa32df0c8ad57278243ae7d011e90d073629dfc92fda8e9f319c6fdb5460805111611c2f577fbc351ae7fa32df0c8ad57278243ae7d011e90d073629dfc92fda8e9f319c6fda548111611c2f57606060c052600060e05280611994575050600060e05260405160606102fd8183613061565b6002825260e051604091905b8281106119805750505061031b6134ba565b6103248261362c565b5261032e8161362c565b50610337613472565b61034082613639565b5261034a81613639565b5060c0525b60009160005b60c0515181101561048a5761038a6040516103736101005182613061565b600081526103838360c051613649565b51906136e6565b610460576103ae61039d8260c051613649565b516103a93688876132dd565b6136e6565b610457575b6001907fbc351ae7fa32df0c8ad57278243ae7d011e90d073629dfc92fda8e9f319c6fd5546000527fbc351ae7fa32df0c8ad57278243ae7d011e90d073629dfc92fda8e9f319c6fcf610100515260406000206104128260c051613649565b5180519061010051012060005261010051526040600020827fffffffffffffffffffffffffffffffffffffffffffffffffffffffffffffff0082541617905501610355565b600193506103b3565b7f3d4d195c0000000000000000000000000000000000000000000000000000000060005260046000fd5b509115611956577fffffffffffffffffffffffffffffffffffffffffffffffffffffffffffffffff9060005b60805181106116af57506104ce60843560a435613314565b610160527fbc351ae7fa32df0c8ad57278243ae7d011e90d073629dfc92fda8e9f319c6fd85460006127106105068361016051613314565b106116ac5750610519906101605161448f565b9360016105686101205173ffffffffffffffffffffffffffffffffffffffff166000527fbc351ae7fa32df0c8ad57278243ae7d011e90d073629dfc92fda8e9f319c6fd4602052604060002090565b01610574868254613327565b90556105838342608435613736565b9361064a60405161059381613029565b60008152608435610100518201526101605160408201528660608201527fbc351ae7fa32df0c8ad57278243ae7d011e90d073629dfc92fda8e9f319c6fd5546000527fbc351ae7fa32df0c8ad57278243ae7d011e90d073629dfc92fda8e9f319c6fcd6101005152604060002073ffffffffffffffffffffffffffffffffffffffff33166000526101005152604060002061062f3686886132dd565b80519061010051012060005261010051526040600020614251565b6106ef60405161065981613029565b60008152608435610100518201526101605160408201528660608201527fbc351ae7fa32df0c8ad57278243ae7d011e90d073629dfc92fda8e9f319c6fd5546000527fbc351ae7fa32df0c8ad57278243ae7d011e90d073629dfc92fda8e9f319c6fce6101005152604060002073ffffffffffffffffffffffffffffffffffffffff331660005261010051526040600020614251565b6107766040516106fe81613029565b60018152608435610100518201526101605160408201528660608201527fbc351ae7fa32df0c8ad57278243ae7d011e90d073629dfc92fda8e9f319c6fd5546000527fbc351ae7fa32df0c8ad57278243ae7d011e90d073629dfc92fda8e9f319c6fcf6101005152604060002061062f3686886132dd565b6040516040810181811067ffffffffffffffff82111761167d57604052608435815260016101005182016101605181527fbc351ae7fa32df0c8ad57278243ae7d011e90d073629dfc92fda8e9f319c6fd5546000527fbc351ae7fa32df0c8ad57278243ae7d011e90d073629dfc92fda8e9f319c6fd061010051526040600020925183555191015560405161080e6101005182613061565b60008152604051610180526101a0610180510161018051811067ffffffffffffffff82111761167d576040526000610180515260e051151561010051610180510152604061018051015242606061018051015283608061018051015260a43560a061018051015273ffffffffffffffffffffffffffffffffffffffff610120511660c06101805101526108a2608051613402565b6108af6040519182613061565b60805181526101005181013660805160051b60a05101116116785760a051905b60805160051b60a0510182106115d257505060e061018051015260c0516101006101805101526000610120610180510152600061014061018051015260e4356101606101805101526115a35761010435610180805101527fbc351ae7fa32df0c8ad57278243ae7d011e90d073629dfc92fda8e9f319c6fd5546000527fbc351ae7fa32df0c8ad57278243ae7d011e90d073629dfc92fda8e9f319c6fcc61010051526040600020610180515160078110156101a0526101a0516115a35760006101a05260ff7fffffffffffffffffffffffffffffffffffffffffffffffffffffffffffffff0083541691161781556101005161018051015115157fffffffffffffffffffffffffffffffffffffffffffffffffffffffffffff00ff61ff0083549260081b169116178155604061018051015180519067ffffffffffffffff82116110bf57610a2d82610a2460018601546130dc565b60018601613516565b61010051906001601f8411146114cd57918091610a80936101a05192610fe2575b50507fffffffffffffffffffffffffffffffffffffffffffffffffffffffffffffffff8260011b9260031b1c19161790565b60018201555b606061018051015160028201556080610180510151600382015560a061018051015160048201556005810173ffffffffffffffffffffffffffffffffffffffff60c0610180510151167fffffffffffffffffffffffff000000000000000000000000000000000000000082541617905560e06101805101518051906801000000000000000082116110bf5760068301548260068501558083106113fd575b50610100510190600683016101a05152610100516101a051206101a051925b82841061112b57505050506101006101805101518051906801000000000000000082116110bf5760078301548260078501558083106110f2575b50610100510190600783016101a05152610100516101a05120916101a051905b828210610f505750505050610bea6101206101805101511515600883019060ff7fffffffffffffffffffffffffffffffffffffffffffffffffffffffffffffff0083541691151516179055565b61018080516101408101516009840155610160810151600a84015501516003811015610f1d57600b906101a0515060ff7fffffffffffffffffffffffffffffffffffffffffffffffffffffffffffffff00838501541691161791015560e4351515600014610e4157610d45610d317fe739ad3aab06b4730e4dd3fa74c9dc77d3c015b6645c4ef55a6aa58bcdcbfa2f95610d56937fbc351ae7fa32df0c8ad57278243ae7d011e90d073629dfc92fda8e9f319c6fd55495610cfb604051610cb46101005182613061565b6101a0518152604051998a998a5233610100518b01524260408b015260608a01526101a051506101a051506101a05160808a015261024060a08a015261024089019061357e565b9260a43560c08901528a60e089015260843561010089015261016051610120890152610140880152868303610160880152613334565b83810361018085015260805160a0516142f9565b8281036101a084015260c051613e96565b6101205173ffffffffffffffffffffffffffffffffffffffff166101c083015260e05115156101e083015260e435610200830152610104356102208301520390a15b7fbc351ae7fa32df0c8ad57278243ae7d011e90d073629dfc92fda8e9f319c6fd5549060018201809211610e0e57610e07917fbc351ae7fa32df0c8ad57278243ae7d011e90d073629dfc92fda8e9f319c6fd555610dfa339161016051613327565b610120516101405161376d565b6101a05180f35b7f4e487b71000000000000000000000000000000000000000000000000000000006101a05152601160045260246101a051fd5b610d45610d317fdd5a97c5099afb95d249eea641e04bf5c1eb4d3de2f68f1ee16affcda9e853a595610eea937fbc351ae7fa32df0c8ad57278243ae7d011e90d073629dfc92fda8e9f319c6fd55495610cfb604051610ea36101005182613061565b6101a0518152604051998a998a5233610100518b01524260408b015260608a01526101a051506101a051506101a05160808a015261020060a08a015261020089019061357e565b73ffffffffffffffffffffffffffffffffffffffff61012051166101c083015260e05115156101e08301520390a1610d98565b7f4e487b71000000000000000000000000000000000000000000000000000000006101a05152602160045260246101a051fd5b805180519067ffffffffffffffff82116110bf57610f7882610f7288546130dc565b88613516565b61010051906001601f841114610fed578260019492938594610fcf936101a05192610fe25750507fffffffffffffffffffffffffffffffffffffffffffffffffffffffffffffffff8260011b9260031b1c19161790565b86555b6101005101940191019092610b9d565b015190503880610a4e565b90866101a05152610100516101a05120916101a0515b7fffffffffffffffffffffffffffffffffffffffffffffffffffffffffffffffe0851681106110a5575092600194928594928593837fffffffffffffffffffffffffffffffffffffffffffffffffffffffffffffffe081161061106e575b505050811b018655610fd2565b01517fffffffffffffffffffffffffffffffffffffffffffffffffffffffffffffffff60f88460031b161c19169055388080611061565b818301518455610100516001909401939283019201611003565b7f4e487b71000000000000000000000000000000000000000000000000000000006101a05152604160045260246101a051fd5b600784016101a05152610100516101a05120908382015b8183018110611119575050610b7d565b806111256001926142aa565b01611109565b8051805180519067ffffffffffffffff82116110bf576111558261114f87546130dc565b87613516565b61010051906001601f84111461132d579180916111a7936101a05192610fe25750507fffffffffffffffffffffffffffffffffffffffffffffffffffffffffffffffff8260011b9260031b1c19161790565b83555b6101005181015180519067ffffffffffffffff82116110bf576111dd826111d460018801546130dc565b60018801613516565b61010051906001601f841114611253579261123783600196946040946003976101a05192610fe25750507fffffffffffffffffffffffffffffffffffffffffffffffffffffffffffffffff8260011b9260031b1c19161790565b858701555b015160028501556101005101920193019290610b43565b90600186016101a05152610100516101a05120916101a0515b7fffffffffffffffffffffffffffffffffffffffffffffffffffffffffffffffe085168110611313575083604093600396936001989693837fffffffffffffffffffffffffffffffffffffffffffffffffffffffffffffffe08b9616106112dd575b505050811b018587015561123c565b01517fffffffffffffffffffffffffffffffffffffffffffffffffffffffffffffffff60f8848a1b161c191690553880806112ce565b81830151845561010051600190940193928301920161126c565b9190856101a05152610100516101a05120906101a051935b7fffffffffffffffffffffffffffffffffffffffffffffffffffffffffffffffe0841685106113e05760019450837fffffffffffffffffffffffffffffffffffffffffffffffffffffffffffffffe08116106113a9575b505050811b0183556111aa565b01517fffffffffffffffffffffffffffffffffffffffffffffffffffffffffffffffff60f88460031b161c1916905538808061139c565b818101518355610100519485019460019093019290910190611345565b6003818102048103610e0e576003838102048303610e0e57600684016101a05152610100516101a051208360030281015b8260030282018110611441575050610b24565b8061144d6003926142aa565b6001810161145b81546130dc565b80611472575b50506101a05160028201550161142e565b601f811160011461148c57506101a05190555b3880611461565b6114b190826101a051526001601f610100516101a05120920160051c820191016134ff565b6101a08051829052610100519051908120918190559055611485565b9190600184016101a05152610100516101a05120906101a051935b7fffffffffffffffffffffffffffffffffffffffffffffffffffffffffffffffe0841685106115865760019450837fffffffffffffffffffffffffffffffffffffffffffffffffffffffffffffffe081161061154f575b505050811b016001820155610a86565b01517fffffffffffffffffffffffffffffffffffffffffffffffffffffffffffffffff60f88460031b161c1916905538808061153f565b8181015183556101005194850194600190930192909101906114e8565b7f4e487b7100000000000000000000000000000000000000000000000000000000600052602160045260246000fd5b813567ffffffffffffffff81116116785760a0510160608136031261167857604051906115fe82613045565b803567ffffffffffffffff81116116785761161c90369083016135d1565b82526101005181013567ffffffffffffffff81116116785781019036601f8301121561167857611657604092369080359061010051016132dd565b610100518401520135604082015281526101005101906101005101906108cf565b600080fd5b7f4e487b7100000000000000000000000000000000000000000000000000000000600052604160045260246000fd5b80fd5b60406116c08260805160a0516135ec565b01356116ed7fbc351ae7fa32df0c8ad57278243ae7d011e90d073629dfc92fda8e9f319c6fdc5442613327565b1161192c578360406117048360805160a0516135ec565b01358411611911575b6115a3576101043515611723575b6001016104b6565b60ff600261174e61174861173c8560805160a0516135ec565b6101005181019061365d565b906136ae565b015460a01c1660028110156115a357156118e7576000806117748360805160a0516135ec565b6101005181019061180261182e73ffffffffffffffffffffffffffffffffffffffff60026117b86117488360016117ae6117488b8b61365d565b015416978761365d565b01541692604051928391610100518301957f1e272e4c00000000000000000000000000000000000000000000000000000000875260248401526040604484015260648301906141f3565b037fffffffffffffffffffffffffffffffffffffffffffffffffffffffffffffffe08101835282613061565b51915af461183a613f0d565b90156118875761185890610100518151820101906101005101614239565b61171b575b7f66e37c080000000000000000000000000000000000000000000000000000000060005260046000fd5b60646040517f9becf85d000000000000000000000000000000000000000000000000000000008152610100516004820152601660248201527f4c6962506f6f6c2e5f76616c69646174654576656e74000000000000000000006044820152fd5b7f4aa91a460000000000000000000000000000000000000000000000000000000060005260046000fd5b925060406119248260805160a0516135ec565b01359261170d565b7fcce559bd0000000000000000000000000000000000000000000000000000000060005260046000fd5b7fea0599f80000000000000000000000000000000000000000000000000000000060005260046000fd5b816101005182860101526101005101610309565b600160e05260028110611c2f5760e05160805111611c05576119b581613402565b916119c36040519384613061565b81835261010051830190368360051b8201116116785780915b8360051b82018310611bd85750505050828160c0526115a3576101043515611a05575b5061034f565b600060805115611bab5760a05135907fffffffffffffffffffffffffffffffffffffffffffffffffffffffffffffffa160a0513603018212156116ac5750600091829160a0510190611ae6611b166101005184019361180273ffffffffffffffffffffffffffffffffffffffff6002611a9c61174883611a92611a888c8961365d565b60e05192916136ae565b015416998661365d565b01541694604051948593610100518501977fd925ce5000000000000000000000000000000000000000000000000000000000895260248601526060604486015260848501906141f3565b907fffffffffffffffffffffffffffffffffffffffffffffffffffffffffffffffdc848303016064850152613e96565b51915af4611b22613f0d565b9015611b4b57611b4090610100518151820101906101005101614239565b1561185d57386119ff565b60646040517f9becf85d000000000000000000000000000000000000000000000000000000008152610100516004820152601860248201527f4c6962506f6f6c2e5f76616c69646174654f7074696f6e7300000000000000006044820152fd5b807f4e487b7100000000000000000000000000000000000000000000000000000000602492526032600452fd5b67ffffffffffffffff83351161167857611bf536843584016135d1565b81526101005192830192016119dc565b7f678c50c90000000000000000000000000000000000000000000000000000000060005260046000fd5b7f8ad443780000000000000000000000000000000000000000000000000000000060005260046000fd5b6004847f5ad9d603000000000000000000000000000000000000000000000000000000008152fd5b9260e4356000527f9b810165f441ab693115a26b4f879022ff02cafea473e519a4de415dea2e9ab96101005152604060002073ffffffffffffffffffffffffffffffffffffffff600182015416908115611db0576004015460ff16611d865760e4356000527f9b810165f441ab693115a26b4f879022ff02cafea473e519a4de415dea2e9abb6101005152604060002073ffffffffffffffffffffffffffffffffffffffff3316600052610100515260ff60406000205416159081611d7b575b501561027c577f1959681c0000000000000000000000000000000000000000000000000000000060005260e4356004523360245260446000fd5b905033141538611d41565b7f171348a80000000000000000000000000000000000000000000000000000000060005260046000fd5b7fa0fd35060000000000000000000000000000000000000000000000000000000060005260e43560045260246000fd5b7f7b31d8c60000000000000000000000000000000000000000000000000000000060005260046000fd5b7fbf16aab60000000000000000000000000000000000000000000000000000000060005273ffffffffffffffffffffffffffffffffffffffff610120511660045260246000fd5b7fd92e233d0000000000000000000000000000000000000000000000000000000060005260046000fd5b7f99d1d12f0000000000000000000000000000000000000000000000000000000060005260046000fd5b7f059519da0000000000000000000000000000000000000000000000000000000060005260046000fd5b346116785760807ffffffffffffffffffffffffffffffffffffffffffffffffffffffffffffffffc3601126116785760043560243567ffffffffffffffff811161167857611f21903690600401612fca565b60ff7f68721c0bbf2c02a4d65000340d1370666be06a630022208d4baa9bd7a4b6fea85416611ea55760027f09acf4e54214992e70883cf7dcd6957ff2c71cd9e14df4bec4383bc0d11607dc54146120bb5760027f09acf4e54214992e70883cf7dcd6957ff2c71cd9e14df4bec4383bc0d11607dc557fbc351ae7fa32df0c8ad57278243ae7d011e90d073629dfc92fda8e9f319c6fd55483101561209157611fde91611fcf9136916132dd565b6040519061025b602083613061565b6119565760443515611e7b5760643515611e7b576000527fbc351ae7fa32df0c8ad57278243ae7d011e90d073629dfc92fda8e9f319c6fcc6020526120266040600020613709565b60078110156115a3578061205e577fd62347250000000000000000000000000000000000000000000000000000000060005260046000fd5b61208b907fabe418b7000000000000000000000000000000000000000000000000000000006000526131f1565b60246000fd5b7f92fa6fd30000000000000000000000000000000000000000000000000000000060005260046000fd5b7fbb6b8f9a0000000000000000000000000000000000000000000000000000000060005260046000fd5b346116785760207ffffffffffffffffffffffffffffffffffffffffffffffffffffffffffffffffc3601126116785760043567ffffffffffffffff811161167857612134903690600401612ff8565b60005b81811061214057005b61214b8183856135c1565b357fbc351ae7fa32df0c8ad57278243ae7d011e90d073629dfc92fda8e9f319c6fd55411156120915760019061218c336121868386886135c1565b35613e06565b01612137565b346116785760207ffffffffffffffffffffffffffffffffffffffffffffffffffffffffffffffffc3601126116785760043560ff7f68721c0bbf2c02a4d65000340d1370666be06a630022208d4baa9bd7a4b6fea85416611ea5577fbc351ae7fa32df0c8ad57278243ae7d011e90d073629dfc92fda8e9f319c6fd55481101561209157806000527fbc351ae7fa32df0c8ad57278243ae7d011e90d073629dfc92fda8e9f319c6fcc60205261224b6040600020613709565b60078110156115a3576003810361205e5750806000527fbc351ae7fa32df0c8ad57278243ae7d011e90d073629dfc92fda8e9f319c6fcc602052604060002060047fffffffffffffffffffffffffffffffffffffffffffffffffffffffffffffff008254161781556020916040516122c38482613061565b60009052815460081c60ff1661251557600191600781016006820160005b815481101561250b576122f48183613373565b506002429101541161192c5761233661230b613472565b61233061232161231b8587613373565b506133be565b61232a8761341a565b90613f3d565b906136e6565b612342576001016122e1565b50505090915060005b156124fd576123586134ba565b905b60018101825167ffffffffffffffff811161167d576123838161237d84546130dc565b84613516565b85601f821160011461243557916123f78261242595937f80f66fbf7ec17db9bc1a56585c52d733a369f41a93d2459c97cf644e9ac341e09998979560009161242a575b507fffffffffffffffffffffffffffffffffffffffffffffffffffffffffffffffff8260011b9260031b1c19161790565b90555b600942910155604051938493845233908401526004604084015260806060840152608083019061357e565b0390a1005b90508501518a6123c6565b7fffffffffffffffffffffffffffffffffffffffffffffffffffffffffffffffe082169083600052876000209160005b8181106124e65750927f80f66fbf7ec17db9bc1a56585c52d733a369f41a93d2459c97cf644e9ac341e09897969492600192826124259896106124af575b5050811b0190556123fa565b8601517fffffffffffffffffffffffffffffffffffffffffffffffffffffffffffffffff60f88460031b161c1916905589806124a3565b91928960018192868b015181550194019201612465565b612505613472565b9061235a565b505050909161234b565b9060068101600090805415612541578482612535926125059452206133be565b61232a6007840161341a565b6024827f4e487b710000000000000000000000000000000000000000000000000000000081526032600452fd5b346116785760207ffffffffffffffffffffffffffffffffffffffffffffffffffffffffffffffffc3601126116785760043560ff7f68721c0bbf2c02a4d65000340d1370666be06a630022208d4baa9bd7a4b6fea85416611ea55760027f09acf4e54214992e70883cf7dcd6957ff2c71cd9e14df4bec4383bc0d11607dc54146120bb5760027f09acf4e54214992e70883cf7dcd6957ff2c71cd9e14df4bec4383bc0d11607dc557fbc351ae7fa32df0c8ad57278243ae7d011e90d073629dfc92fda8e9f319c6fd5548110156120915761264a903390613e06565b60017f09acf4e54214992e70883cf7dcd6957ff2c71cd9e14df4bec4383bc0d11607dc55005b346116785760807ffffffffffffffffffffffffffffffffffffffffffffffffffffffffffffffffc3601126116785760043560243567ffffffffffffffff8111611678576126c2903690600401612fca565b909160443560643573ffffffffffffffffffffffffffffffffffffffff811681036116785760ff7f68721c0bbf2c02a4d65000340d1370666be06a630022208d4baa9bd7a4b6fea85416611ea5577fbc351ae7fa32df0c8ad57278243ae7d011e90d073629dfc92fda8e9f319c6fd554831015612091576127443685876132dd565b936127596020956040519061025b8883613061565b611956578215611e7b57836000527fbc351ae7fa32df0c8ad57278243ae7d011e90d073629dfc92fda8e9f319c6fcc85526127976040600020613709565b60078110156115a3578061205e5750836000527fbc351ae7fa32df0c8ad57278243ae7d011e90d073629dfc92fda8e9f319c6fcc8552600460406000200154846000527fbc351ae7fa32df0c8ad57278243ae7d011e90d073629dfc92fda8e9f319c6fcf8652604060002061280d36848a6132dd565b878151910120600052865260ff6040600020541615611956576128308482613314565b907fbc351ae7fa32df0c8ad57278243ae7d011e90d073629dfc92fda8e9f319c6fd65460006127106128628386613314565b106116ac57507f2e5e91b93b8bcab4a74b1f1eedeab795674919d3d007fcc45dd28a2deed58f1d98612897612dab928561448f565b94886000527fbc351ae7fa32df0c8ad57278243ae7d011e90d073629dfc92fda8e9f319c6fcc8a52612d8b6129056002604060002001548b6000527fbc351ae7fa32df0c8ad57278243ae7d011e90d073629dfc92fda8e9f319c6fcc8d52600360406000200154908b613736565b978a6000527fbc351ae7fa32df0c8ad57278243ae7d011e90d073629dfc92fda8e9f319c6fcd8c52604060002073ffffffffffffffffffffffffffffffffffffffff33166000528c52604060002061295e3685876132dd565b8d81519101206000528c52600360406000206001810161297f8d8254613327565b9055600281016129908a8254613327565b90550161299e8a8254613327565b90558a6000527fbc351ae7fa32df0c8ad57278243ae7d011e90d073629dfc92fda8e9f319c6fce8c52604060002073ffffffffffffffffffffffffffffffffffffffff33166000528c5260016040600020016129fb8b8254613327565b90558a6000527fbc351ae7fa32df0c8ad57278243ae7d011e90d073629dfc92fda8e9f319c6fce8c52604060002073ffffffffffffffffffffffffffffffffffffffff33166000528c526002604060002001612a58888254613327565b90558a6000527fbc351ae7fa32df0c8ad57278243ae7d011e90d073629dfc92fda8e9f319c6fce8c52604060002073ffffffffffffffffffffffffffffffffffffffff33166000528c526003604060002001612ab58a8254613327565b90558a6000527fbc351ae7fa32df0c8ad57278243ae7d011e90d073629dfc92fda8e9f319c6fcf8c526040600020612aee3685876132dd565b8d81519101206000528c526001604060002001612b0c8b8254613327565b90558a6000527fbc351ae7fa32df0c8ad57278243ae7d011e90d073629dfc92fda8e9f319c6fcf8c526040600020612b453685876132dd565b8d81519101206000528c526002604060002001612b63888254613327565b90558a6000527fbc351ae7fa32df0c8ad57278243ae7d011e90d073629dfc92fda8e9f319c6fcf8c526040600020612b9c3685876132dd565b8d81519101206000528c526003604060002001612bba8a8254613327565b90558a6000527fbc351ae7fa32df0c8ad57278243ae7d011e90d073629dfc92fda8e9f319c6fd08c526040600020612bf38b8254613327565b90558a6000527fbc351ae7fa32df0c8ad57278243ae7d011e90d073629dfc92fda8e9f319c6fd08c526001604060002001612c2f888254613327565b905560008b81527fbc351ae7fa32df0c8ad57278243ae7d011e90d073629dfc92fda8e9f319c6fcc8d5260408082206005015473ffffffffffffffffffffffffffffffffffffffff1682527fbc351ae7fa32df0c8ad57278243ae7d011e90d073629dfc92fda8e9f319c6fd46020529020600101612cae898254613327565b90558a6000527fbc351ae7fa32df0c8ad57278243ae7d011e90d073629dfc92fda8e9f319c6fcc8c52612d0c73ffffffffffffffffffffffffffffffffffffffff600560406000200154163390612d058a8c613327565b908461376d565b8a6000527fbc351ae7fa32df0c8ad57278243ae7d011e90d073629dfc92fda8e9f319c6fcc8c5273ffffffffffffffffffffffffffffffffffffffff60056040600020015416908b6000527fbc351ae7fa32df0c8ad57278243ae7d011e90d073629dfc92fda8e9f319c6fcc8d52600360406000200154913391613ad7565b604051998a998a5233908a015261010060408a0152610100890191613334565b946060870152608086015260a085015260c084015260e08301520390a1005b346116785760207ffffffffffffffffffffffffffffffffffffffffffffffffffffffffffffffffc3601126116785760043560ff7f68721c0bbf2c02a4d65000340d1370666be06a630022208d4baa9bd7a4b6fea85416611ea5577fbc351ae7fa32df0c8ad57278243ae7d011e90d073629dfc92fda8e9f319c6fd55481101561209157806000527fbc351ae7fa32df0c8ad57278243ae7d011e90d073629dfc92fda8e9f319c6fcc60205260406000209060405190612e8b602083613061565b60008252612ea060018401926123308461312f565b612fa05760ff83541660078110156115a357600581141580612f95575b61205e5750612ed06009840154426131ff565b7fbc351ae7fa32df0c8ad57278243ae7d011e90d073629dfc92fda8e9f319c6fde5411612f6b577f9b327a4ca612250b263fec35bd1093e1750b5245b99e30ced83d74c5d477ce009260017fffffffffffffffffffffffffffffffffffffffffffffffffffffffffffffff0082541617905561242560405192839283523360208401526001604084015260806060840152608083019061323b565b7f7ffb829d0000000000000000000000000000000000000000000000000000000060005260046000fd5b506004811415612ebd565b7fc74a206d0000000000000000000000000000000000000000000000000000000060005260046000fd5b9181601f840112156116785782359167ffffffffffffffff8311611678576020838186019501011161167857565b9181601f840112156116785782359167ffffffffffffffff8311611678576020808501948460051b01011161167857565b6080810190811067ffffffffffffffff82111761167d57604052565b6060810190811067ffffffffffffffff82111761167d57604052565b90601f7fffffffffffffffffffffffffffffffffffffffffffffffffffffffffffffffe0910116810190811067ffffffffffffffff82111761167d57604052565b67ffffffffffffffff811161167d57601f017fffffffffffffffffffffffffffffffffffffffffffffffffffffffffffffffe01660200190565b90600182811c92168015613125575b60208310146130f657565b7f4e487b7100000000000000000000000000000000000000000000000000000000600052602260045260246000fd5b91607f16916130eb565b9060405191826000825492613143846130dc565b80845293600181169081156131b1575060011461316a575b5061316892500383613061565b565b90506000929192526020600020906000915b818310613195575050906020613168928201013861315b565b602091935080600191548385890101520191019091849261317c565b602093506131689592507fffffffffffffffffffffffffffffffffffffffffffffffffffffffffffffff0091501682840152151560051b8201013861315b565b60078110156115a357600452565b9190820391821161320c57565b7f4e487b7100000000000000000000000000000000000000000000000000000000600052601160045260246000fd5b6000929181549161324b836130dc565b80835292600181169081156132a1575060011461326757505050565b60009081526020812093945091925b838310613287575060209250010190565b600181602092949394548385870101520191019190613276565b905060209495507fffffffffffffffffffffffffffffffffffffffffffffffffffffffffffffff0091509291921683830152151560051b010190565b9291926132e9826130a2565b916132f76040519384613061565b829481845281830111611678578281602093846000960137010152565b8181029291811591840414171561320c57565b9190820180921161320c57565b601f82602094937fffffffffffffffffffffffffffffffffffffffffffffffffffffffffffffffe0938186528686013760008582860101520116010190565b805482101561338f576000526003602060002091020190600090565b7f4e487b7100000000000000000000000000000000000000000000000000000000600052603260045260246000fd5b906040516133cb81613045565b6040600282946133da8161312f565b845282516133f6816133ef816001860161323b565b0382613061565b60208501520154910152565b67ffffffffffffffff811161167d5760051b60200190565b90815461342681613402565b926134346040519485613061565b818452602084019060005260206000206000915b8383106134555750505050565b6001602081926134648561312f565b815201920192019190613448565b604051602080820152600260408201527f6e6f0000000000000000000000000000000000000000000000000000000000006060820152606081526134b7608082613061565b90565b604051602080820152600360408201527f79657300000000000000000000000000000000000000000000000000000000006060820152606081526134b7608082613061565b81811061350a575050565b600081556001016134ff565b9190601f811161352557505050565b613168926000526020600020906020601f840160051c83019310613551575b601f0160051c01906134ff565b9091508190613544565b60005b83811061356e5750506000910152565b818101518382015260200161355e565b907fffffffffffffffffffffffffffffffffffffffffffffffffffffffffffffffe0601f6020936135ba8151809281875287808801910161355b565b0116010190565b919081101561338f5760051b0190565b9080601f83011215611678578160206134b7933591016132dd565b919081101561338f5760051b810135907fffffffffffffffffffffffffffffffffffffffffffffffffffffffffffffffa181360301821215611678570190565b80511561338f5760200190565b80516001101561338f5760400190565b805182101561338f5760209160051b010190565b9035907fffffffffffffffffffffffffffffffffffffffffffffffffffffffffffffffe181360301821215611678570180359067ffffffffffffffff82116116785760200191813603831361167857565b60209082604051938492833781017fba07f9bdb83529457286bae2254b67a516d5fac42a7c08e76b28b1c094cd2f2681520301902090565b805190825191828103613700576020809201209201201490565b50505050600090565b60ff8154169060078210156115a3578115613722575090565b600301544210156137305790565b50600390565b90804214613764576134b79261375961375f9261375342846131ff565b926131ff565b9061439b565b613314565b50505061271090565b6000939073ffffffffffffffffffffffffffffffffffffffff168061395d57509073ffffffffffffffffffffffffffffffffffffffff1690604051907f70a08231000000000000000000000000000000000000000000000000000000008252306004830152602082602481865afa918215613952579084918693613919575b509261386160209261385b6024966118026040519384927f23b872dd000000000000000000000000000000000000000000000000000000008985015230908b850173ffffffffffffffffffffffffffffffffffffffff6040929594938160608401971683521660208201520152565b82614da6565b604051938480927f70a082310000000000000000000000000000000000000000000000000000000082523060048301525afa801561390e5784906138da575b6138aa92506131ff565b036138b25750565b807fc7e8fc500000000000000000000000000000000000000000000000000000000060049252fd5b506020823d602011613906575b816138f460209383613061565b81010312611678576138aa91516138a0565b3d91506138e7565b6040513d86823e3d90fd5b915091506020813d60201161394a575b8161393660209383613061565b8101031261167857519083906138616137ec565b3d9150613929565b6040513d87823e3d90fd5b73ffffffffffffffffffffffffffffffffffffffff831691604051937f70a08231000000000000000000000000000000000000000000000000000000008552306004860152602085602481875afa948515613acc578795613a98575b50823b15613a94576040517f9865a1d300000000000000000000000000000000000000000000000000000000815273ffffffffffffffffffffffffffffffffffffffff918216600482015291166024820152604481018590529085908290606490829084905af1801561395257613a7a575b50906020602492604051938480927f70a082310000000000000000000000000000000000000000000000000000000082523060048301525afa801561390e5784906138da576138aa92506131ff565b84613a8b6024949396602093613061565b94919250613a2b565b8680fd5b9094506020813d602011613ac4575b81613ab460209383613061565b81010312613a94575193386139b9565b3d9150613aa7565b6040513d89823e3d90fd5b929173ffffffffffffffffffffffffffffffffffffffff60009416613e00576040928480611802613b738751613b0d8982613061565b600d81527f5f7374616b6541697244726f7000000000000000000000000000000000000000602082015288519283917f41304fac00000000000000000000000000000000000000000000000000000000602084015260206024840152604483019061357e565b6020815191016a636f6e736f6c652e6c6f675afa50613bd87fb4e10a4811f331e910bbd821832ab85ed1158088534d96bdd9d92f6de8be798554613bb6816145f2565b613bc8613bc34283613327565b6145f2565b613bd1836145f2565b4290613327565b11613e0057613c268173ffffffffffffffffffffffffffffffffffffffff166000527fb4e10a4811f331e910bbd821832ab85ed1158088534d96bdd9d92f6de8be7984602052604060002090565b73ffffffffffffffffffffffffffffffffffffffff83168552602052828420547fb4e10a4811f331e910bbd821832ab85ed1158088534d96bdd9d92f6de8be7983541115613e0057613cb78173ffffffffffffffffffffffffffffffffffffffff166000527fb4e10a4811f331e910bbd821832ab85ed1158088534d96bdd9d92f6de8be7984602052604060002090565b73ffffffffffffffffffffffffffffffffffffffff8316855260205282842080549060018201809211613dd3575573ffffffffffffffffffffffffffffffffffffffff7fb4e10a4811f331e910bbd821832ab85ed1158088534d96bdd9d92f6de8be79825416907fb4e10a4811f331e910bbd821832ab85ed1158088534d96bdd9d92f6de8be79815492823b15613dcf5784517fb3db428b00000000000000000000000000000000000000000000000000000000815273ffffffffffffffffffffffffffffffffffffffff918216600482015291166024820152604481019290925290919083908390606490829084905af1908115613dc65750613db9575050565b81613dc391613061565b50565b513d84823e3d90fd5b8580fd5b6024867f4e487b710000000000000000000000000000000000000000000000000000000081526011600452fd5b50505050565b9190826000527fbc351ae7fa32df0c8ad57278243ae7d011e90d073629dfc92fda8e9f319c6fcc60205260ff604060002054169260078410156115a35760018403613e5657613168929350614886565b60028403613e695761316892935061464b565b61208b847fabe418b7000000000000000000000000000000000000000000000000000000006000526131f1565b9080602083519182815201916020808360051b8301019401926000915b838310613ec257505050505090565b9091929394602080613efe837fffffffffffffffffffffffffffffffffffffffffffffffffffffffffffffffe08660019603018752895161357e565b97019301930191939290613eb3565b3d15613f38573d90613f1e826130a2565b91613f2c6040519384613061565b82523d6000602084013e565b606090565b60009190829161408e6140c56020840161180273ffffffffffffffffffffffffffffffffffffffff6001613f8160208551816040519382858094519384920161355b565b81017fba07f9bdb83529457286bae2254b67a516d5fac42a7c08e76b28b1c094cd2f268152030190200154169573ffffffffffffffffffffffffffffffffffffffff6002613fdf60208651816040519382858094519384920161355b565b81017fba07f9bdb83529457286bae2254b67a516d5fac42a7c08e76b28b1c094cd2f26815203019020015416956040805196879560208701997f164cf76b000000000000000000000000000000000000000000000000000000008b5260248801526060604488015261405d8551606060848a015260e489019061357e565b90517fffffffffffffffffffffffffffffffffffffffffffffffffffffffffffffff7c8883030160a489015261357e565b92015160c48501527fffffffffffffffffffffffffffffffffffffffffffffffffffffffffffffffdc848303016064850152613e96565b51915af46140d1613f0d565b90156141455780518101906020818184019303126116785760208101519067ffffffffffffffff8211611678570181603f82011215611678576020810151614118816130a2565b926141266040519485613061565b81845260408383010111611678576134b791604060208501910161355b565b60646040517f9becf85d00000000000000000000000000000000000000000000000000000000815260206004820152601560248201527f4c6962506f6f6c2e5f7265736f6c76654576656e7400000000000000000000006044820152fd5b90357fffffffffffffffffffffffffffffffffffffffffffffffffffffffffffffffe18236030181121561167857016020813591019167ffffffffffffffff821161167857813603831361167857565b9060408061423061421561420786806141a3565b606087526060870191613334565b61422260208701876141a3565b908683036020880152613334565b93013591015290565b90816020910312611678575180151581036116785790565b90606060039161428f81511515859060ff7fffffffffffffffffffffffffffffffffffffffffffffffffffffffffffffff0083541691151516179055565b60208101516001850155604081015160028501550151910155565b6142b481546130dc565b90816142be575050565b81601f600093116001146142d0575055565b818352602083206142ec91601f0160051c8101906001016134ff565b8082528160208120915555565b90602083828152019060208160051b85010193836000915b8383106143215750505050505090565b9091929394957fffffffffffffffffffffffffffffffffffffffffffffffffffffffffffffffe082820301865286357fffffffffffffffffffffffffffffffffffffffffffffffffffffffffffffffa18436030181121561167857602061438d600193868394016141f3565b980196019493019190614311565b908161271002907fffffffffffffffffffffffffffffffffffffffffffffffffffffffffffffffff836127100992828085109403938085039414614453578382111561443a57819061271009816000038216809204600281600302188082026002030280820260020302808202600203028082026002030280820260020302809102600203029360018380600003040190848311900302920304170290565b50634e487b71600052156003026011186020526024601cfd5b5080925015614460570490565b7f4e487b7100000000000000000000000000000000000000000000000000000000600052601260045260246000fd5b9190916000838202917fffffffffffffffffffffffffffffffffffffffffffffffffffffffffffffffff858209918380841093039280840393146145255782612710111561451357507fbc01a36e2eb1c432ca57a786c226809d495182a9930be0ded288ce703afb7e919394612710910990828211900360fc1b910360041c170290565b634e487b71905260116020526024601cfd5b5050506127109192500490565b91818302917fffffffffffffffffffffffffffffffffffffffffffffffffffffffffffffffff818509938380861095039480860395146145e457848311156145cb5790829109816000038216809204600281600302188082026002030280820260020302808202600203028082026002030280820260020302809102600203029360018380600003040190848311900302920304170290565b82634e487b71600052156003026011186020526024601cfd5b505080925015614460570490565b60008091604051907ff82c50f1000000000000000000000000000000000000000000000000000000006020830152602482015260248152614634604482613061565b6020815191016a636f6e736f6c652e6c6f675afa50565b806000527fbc351ae7fa32df0c8ad57278243ae7d011e90d073629dfc92fda8e9f319c6fcc602052604060002090806000527fbc351ae7fa32df0c8ad57278243ae7d011e90d073629dfc92fda8e9f319c6fce602052604060002073ffffffffffffffffffffffffffffffffffffffff84166000526020526001604060002001541561485c57806000527fbc351ae7fa32df0c8ad57278243ae7d011e90d073629dfc92fda8e9f319c6fce602052604060002073ffffffffffffffffffffffffffffffffffffffff841660005260205260ff6040600020541661483257600573ffffffffffffffffffffffffffffffffffffffff846148177f7e2290278bab7591c02e1cee107f6eb5778796e4f991856e11ffc09bf8b818d096608096866000527fbc351ae7fa32df0c8ad57278243ae7d011e90d073629dfc92fda8e9f319c6fce6020526040600020858316600052602052604060002060017fffffffffffffffffffffffffffffffffffffffffffffffffffffffffffffff00825416179055866000527fbc351ae7fa32df0c8ad57278243ae7d011e90d073629dfc92fda8e9f319c6fce602052604060002085831660005260205284600260406000200154968792015416614adb565b604051938452166020830152600060408301526060820152a1565b7f924260f10000000000000000000000000000000000000000000000000000000060005260046000fd5b7f3110f1d80000000000000000000000000000000000000000000000000000000060005260046000fd5b90816000527fbc351ae7fa32df0c8ad57278243ae7d011e90d073629dfc92fda8e9f319c6fcc6020526040600020916020926040516148c58582613061565b600081526148da60018301916123308361312f565b612fa057826000527fbc351ae7fa32df0c8ad57278243ae7d011e90d073629dfc92fda8e9f319c6fcf855260406000206149138261312f565b868151910120600052855260036040600020015415614acf57826000527fbc351ae7fa32df0c8ad57278243ae7d011e90d073629dfc92fda8e9f319c6fce8552604060002073ffffffffffffffffffffffffffffffffffffffff851660005285526001604060002001541561485c57826000527fbc351ae7fa32df0c8ad57278243ae7d011e90d073629dfc92fda8e9f319c6fcd8552604060002073ffffffffffffffffffffffffffffffffffffffff851660005285526149d860406000209161312f565b8581519101206000528452604060002080549460ff861661483257600182015415614aa55773ffffffffffffffffffffffffffffffffffffffff85614a8d60809760059660017fffffffffffffffffffffffffffffffffffffffffffffffffffffffffffffff007f7e2290278bab7591c02e1cee107f6eb5778796e4f991856e11ffc09bf8b818d09c1617875584614a826002614a7960038b01548d614c90565b99015489613327565b988992015416614adb565b604051958652169084015260408301526060820152a1565b7f907643880000000000000000000000000000000000000000000000000000000060005260046000fd5b5050613168925061464b565b73ffffffffffffffffffffffffffffffffffffffff909291921690604051907f70a08231000000000000000000000000000000000000000000000000000000008252306004830152602082602481865afa918215614c4f57600092614c5b575b50602492614b9d60209273ffffffffffffffffffffffffffffffffffffffff604051917fa9059cbb000000000000000000000000000000000000000000000000000000008684015216868201528660448201526044815261385b606482613061565b604051938480927f70a082310000000000000000000000000000000000000000000000000000000082523060048301525afa908115614c4f57600091614c19575b614be892506131ff565b03614bef57565b7fc7e8fc500000000000000000000000000000000000000000000000000000000060005260046000fd5b90506020823d602011614c47575b81614c3460209383613061565b8101031261167857614be8915190614bde565b3d9150614c27565b6040513d6000823e3d90fd5b9091506020813d602011614c88575b81614c7760209383613061565b810103126116785751906024614b3b565b3d9150614c6a565b90816000527fbc351ae7fa32df0c8ad57278243ae7d011e90d073629dfc92fda8e9f319c6fcc602052604060002090826000527fbc351ae7fa32df0c8ad57278243ae7d011e90d073629dfc92fda8e9f319c6fcf60205260016040600020920191614cfa8361312f565b602081519101206000526020526003604060002001549182156137005783614da1916134b7956000527fbc351ae7fa32df0c8ad57278243ae7d011e90d073629dfc92fda8e9f319c6fcf602052614d5560406000209161312f565b60208151910120600052602052600260406000200154906000527fbc351ae7fa32df0c8ad57278243ae7d011e90d073629dfc92fda8e9f319c6fd06020526001604060002001546131ff565b614532565b906000602091828151910182855af115614c4f576000513d614e28575073ffffffffffffffffffffffffffffffffffffffff81163b155b614de45750565b73ffffffffffffffffffffffffffffffffffffffff907f5274afe7000000000000000000000000000000000000000000000000000000006000521660045260246000fd5b60011415614ddd56fea2646970667358221220088f63fec9accd0514a9627071c7b49930f681151433f82cefced280e018763f64736f6c634300081c0033",
  "linkReferences": {},
  "deployedLinkReferences": {}
}