{
  "_format": "hh-sol-artifact-1",
  "contractName": "ChallengePoolView",
  "sourceName": "contracts/modules/ChallengePoolView.sol",
  "abi": [
    {
      "inputs": [
        {
          "internalType": "enum IChallengePoolCommon.ChallengeState",
          "name": "_state",
          "type": "uint8"
        }
      ],
      "name": "ActionNotAllowedForState",
      "type": "error"
    },
    {
      "inputs": [],
      "name": "InvalidChallenge",
      "type": "error"
    },
    {
      "inputs": [],
      "name": "InvalidOutcome",
      "type": "error"
    },
    {
      "inputs": [
        {
          "internalType": "uint256",
          "name": "_challengeId",
          "type": "uint256"
        }
      ],
      "name": "challenges",
      "outputs": [
        {
          "components": [
            {
              "internalType": "enum IChallengePoolCommon.ChallengeState",
              "name": "state",
              "type": "uint8"
            },
            {
              "internalType": "bool",
              "name": "multi",
              "type": "bool"
            },
            {
              "internalType": "bytes",
              "name": "outcome",
              "type": "bytes"
            },
            {
              "internalType": "uint256",
              "name": "createdAt",
              "type": "uint256"
            },
            {
              "internalType": "uint256",
              "name": "maturity",
              "type": "uint256"
            },
            {
              "internalType": "uint256",
              "name": "basePrice",
              "type": "uint256"
            },
            {
              "internalType": "address",
              "name": "stakeToken",
              "type": "address"
            },
            {
              "components": [
                {
                  "internalType": "bytes",
                  "name": "params",
                  "type": "bytes"
                },
                {
                  "internalType": "string",
                  "name": "topicId",
                  "type": "string"
                },
                {
                  "internalType": "uint256",
                  "name": "maturity",
                  "type": "uint256"
                }
              ],
              "internalType": "struct IChallengePoolCommon.ChallengeEvent[]",
              "name": "events",
              "type": "tuple[]"
            },
            {
              "internalType": "bytes[]",
              "name": "options",
              "type": "bytes[]"
            },
            {
              "internalType": "bool",
              "name": "disputed",
              "type": "bool"
            },
            {
              "internalType": "uint256",
              "name": "lastOutcomeSet",
              "type": "uint256"
            }
          ],
          "internalType": "struct IChallengePoolCommon.Challenge",
          "name": "",
          "type": "tuple"
        }
      ],
      "stateMutability": "view",
      "type": "function"
    },
    {
      "inputs": [
        {
          "internalType": "uint256",
          "name": "_price",
          "type": "uint256"
        }
      ],
      "name": "createFee",
      "outputs": [
        {
          "internalType": "uint256",
          "name": "fee",
          "type": "uint256"
        },
        {
          "internalType": "uint256",
          "name": "feePlusPrice",
          "type": "uint256"
        }
      ],
      "stateMutability": "view",
      "type": "function"
    },
    {
      "inputs": [
        {
          "internalType": "bytes32",
          "name": "_requestId",
          "type": "bytes32"
        }
      ],
      "name": "dataRequest",
      "outputs": [
        {
          "components": [
            {
              "internalType": "bytes",
              "name": "requested",
              "type": "bytes"
            },
            {
              "internalType": "bytes",
              "name": "provided",
              "type": "bytes"
            },
            {
              "internalType": "bool",
              "name": "register",
              "type": "bool"
            }
          ],
          "internalType": "struct IDataProvider.DataRequest",
          "name": "",
          "type": "tuple"
        }
      ],
      "stateMutability": "view",
      "type": "function"
    },
    {
      "inputs": [
        {
          "internalType": "uint256",
          "name": "_price",
          "type": "uint256"
        }
      ],
      "name": "earlyWithdrawFee",
      "outputs": [
        {
          "internalType": "uint256",
          "name": "fee",
          "type": "uint256"
        },
        {
          "internalType": "uint256",
          "name": "feePlusPrice",
          "type": "uint256"
        }
      ],
      "stateMutability": "view",
      "type": "function"
    },
    {
      "inputs": [
        {
          "internalType": "uint256",
          "name": "_challengeId",
          "type": "uint256"
        }
      ],
      "name": "earlyWithdrawPenalty",
      "outputs": [
        {
          "internalType": "uint256",
          "name": "penalty",
          "type": "uint256"
        },
        {
          "internalType": "uint256",
          "name": "priceMinusPenalty",
          "type": "uint256"
        }
      ],
      "stateMutability": "view",
      "type": "function"
    },
    {
      "inputs": [
        {
          "internalType": "address",
          "name": "_token",
          "type": "address"
        }
      ],
      "name": "getAccumulatedFee",
      "outputs": [
        {
          "internalType": "uint256",
          "name": "",
          "type": "uint256"
        }
      ],
      "stateMutability": "view",
      "type": "function"
    },
    {
      "inputs": [
        {
          "internalType": "uint256",
          "name": "_challengeId",
          "type": "uint256"
        },
        {
          "internalType": "bytes32",
          "name": "_option",
          "type": "bytes32"
        }
      ],
      "name": "optionDisputes",
      "outputs": [
        {
          "internalType": "uint256",
          "name": "",
          "type": "uint256"
        }
      ],
      "stateMutability": "view",
      "type": "function"
    },
    {
      "inputs": [
        {
          "internalType": "uint256",
          "name": "_challengeId",
          "type": "uint256"
        },
        {
          "internalType": "bytes32",
          "name": "_option",
          "type": "bytes32"
        }
      ],
      "name": "optionSupply",
      "outputs": [
        {
          "components": [
            {
              "internalType": "bool",
              "name": "exists",
              "type": "bool"
            },
            {
              "internalType": "uint256",
              "name": "stakes",
              "type": "uint256"
            },
            {
              "internalType": "uint256",
              "name": "tokens",
              "type": "uint256"
            },
            {
              "internalType": "uint256",
              "name": "rewards",
              "type": "uint256"
            }
          ],
          "internalType": "struct IChallengePoolHandler.OptionSupply",
          "name": "",
          "type": "tuple"
        }
      ],
      "stateMutability": "view",
      "type": "function"
    },
    {
      "inputs": [
        {
          "internalType": "uint256",
          "name": "_challengeId",
          "type": "uint256"
        },
        {
          "internalType": "address",
          "name": "_player",
          "type": "address"
        }
      ],
      "name": "playerDisputes",
      "outputs": [
        {
          "components": [
            {
              "internalType": "bytes",
              "name": "dispute",
              "type": "bytes"
            },
            {
              "internalType": "uint256",
              "name": "stake",
              "type": "uint256"
            },
            {
              "internalType": "bool",
              "name": "released",
              "type": "bool"
            }
          ],
          "internalType": "struct IChallengePoolDispute.Dispute",
          "name": "",
          "type": "tuple"
        }
      ],
      "stateMutability": "view",
      "type": "function"
    },
    {
      "inputs": [
        {
          "internalType": "uint256",
          "name": "_challengeId",
          "type": "uint256"
        },
        {
          "internalType": "address",
          "name": "_player",
          "type": "address"
        },
        {
          "internalType": "bytes32",
          "name": "_option",
          "type": "bytes32"
        }
      ],
      "name": "playerOptionSupply",
      "outputs": [
        {
          "components": [
            {
              "internalType": "bool",
              "name": "withdrawn",
              "type": "bool"
            },
            {
              "internalType": "uint256",
              "name": "stakes",
              "type": "uint256"
            },
            {
              "internalType": "uint256",
              "name": "tokens",
              "type": "uint256"
            },
            {
              "internalType": "uint256",
              "name": "rewards",
              "type": "uint256"
            }
          ],
          "internalType": "struct IChallengePoolHandler.PlayerSupply",
          "name": "",
          "type": "tuple"
        }
      ],
      "stateMutability": "view",
      "type": "function"
    },
    {
      "inputs": [
        {
          "internalType": "uint256",
          "name": "_challengeId",
          "type": "uint256"
        },
        {
          "internalType": "address",
          "name": "_player",
          "type": "address"
        }
      ],
      "name": "playerSupply",
      "outputs": [
        {
          "components": [
            {
              "internalType": "bool",
              "name": "withdrawn",
              "type": "bool"
            },
            {
              "internalType": "uint256",
              "name": "stakes",
              "type": "uint256"
            },
            {
              "internalType": "uint256",
              "name": "tokens",
              "type": "uint256"
            },
            {
              "internalType": "uint256",
              "name": "rewards",
              "type": "uint256"
            }
          ],
          "internalType": "struct IChallengePoolHandler.PlayerSupply",
          "name": "",
          "type": "tuple"
        }
      ],
      "stateMutability": "view",
      "type": "function"
    },
    {
      "inputs": [
        {
          "internalType": "uint256",
          "name": "_challengeId",
          "type": "uint256"
        }
      ],
      "name": "poolDisputes",
      "outputs": [
        {
          "internalType": "uint256",
          "name": "",
          "type": "uint256"
        }
      ],
      "stateMutability": "view",
      "type": "function"
    },
    {
      "inputs": [
        {
          "internalType": "uint256",
          "name": "_challengeId",
          "type": "uint256"
        }
      ],
      "name": "poolSupply",
      "outputs": [
        {
          "components": [
            {
              "internalType": "uint256",
              "name": "stakes",
              "type": "uint256"
            },
            {
              "internalType": "uint256",
              "name": "tokens",
              "type": "uint256"
            }
          ],
          "internalType": "struct IChallengePoolHandler.Supply",
          "name": "",
          "type": "tuple"
        }
      ],
      "stateMutability": "view",
      "type": "function"
    },
    {
      "inputs": [
        {
          "internalType": "uint256",
          "name": "_challengeId",
          "type": "uint256"
        }
      ],
      "name": "price",
      "outputs": [
        {
          "internalType": "uint256",
          "name": "",
          "type": "uint256"
        }
      ],
      "stateMutability": "view",
      "type": "function"
    },
    {
      "inputs": [
        {
          "internalType": "bytes32",
          "name": "_requestId",
          "type": "bytes32"
        },
        {
          "internalType": "bytes32",
          "name": "_option",
          "type": "bytes32"
        }
      ],
      "name": "requestOptions",
      "outputs": [
        {
          "internalType": "bool",
          "name": "",
          "type": "bool"
        }
      ],
      "stateMutability": "view",
      "type": "function"
    },
    {
      "inputs": [
        {
          "internalType": "uint256",
          "name": "_price",
          "type": "uint256"
        }
      ],
      "name": "stakeFee",
      "outputs": [
        {
          "internalType": "uint256",
          "name": "fee",
          "type": "uint256"
        },
        {
          "internalType": "uint256",
          "name": "feePlusPrice",
          "type": "uint256"
        }
      ],
      "stateMutability": "view",
      "type": "function"
    },
    {
      "inputs": [
        {
          "internalType": "uint256",
          "name": "_challengeId",
          "type": "uint256"
        },
        {
          "internalType": "address",
          "name": "_player",
          "type": "address"
        }
      ],
      "name": "winnerShare",
      "outputs": [
        {
          "internalType": "uint256",
          "name": "",
          "type": "uint256"
        }
      ],
      "stateMutability": "view",
      "type": "function"
    }
  ],
  "bytecode": "0x60808060405234601557611739908161001b8239f35b600080fdfe608080604052600436101561001357600080fd5b60003560e01c908163038590e814610ebd575080630bf6f7d714610e1457806326a49e3714610d085780632fa05b2914610c6b5780634c267e2714610bd05780634d5fb21014610afa5780635971512114610aae5780635c4cb59914610a4c578063726845bb146109c35780637ae530d814610961578063821415c51461090f5780638e9dafdb146108855780638f1d377614610414578063b4789d48146102e6578063ba038f32146101d0578063cd819f461461015b5763eb1ca693146100da57600080fd5b346101565760407ffffffffffffffffffffffffffffffffffffffffffffffffffffffffffffffffc360112610156576004356000527fde1d81bc9860c075d76ad153e67ec9a4f01e6b3b42e3792f5f132c7f173401416020526040600020602435600052602052602060ff604060002054166040519015158152f35b600080fd5b346101565760207ffffffffffffffffffffffffffffffffffffffffffffffffffffffffffffffffc3601126101565760406004356101c46101bd7fbc351ae7fa32df0c8ad57278243ae7d011e90d073629dfc92fda8e9f319c6fd854836116e1565b80926114ad565b82519182526020820152f35b346101565760407ffffffffffffffffffffffffffffffffffffffffffffffffffffffffffffffffc360112610156576102d3604061020c610f22565b600082805161021a8161104e565b6060815282602082015201526004356000527fbc351ae7fa32df0c8ad57278243ae7d011e90d073629dfc92fda8e9f319c6fd16020528160002073ffffffffffffffffffffffffffffffffffffffff60009216825260205220604051906102808261104e565b60405161029881610291818561115f565b0382611086565b825260ff6002600183015492602085019384520154166040830190151581526040519384936020855251606060208601526080850190610f87565b9151604084015251151560608301520390f35b346101565760207ffffffffffffffffffffffffffffffffffffffffffffffffffffffffffffffffc360112610156576000604080516103248161104e565b606081526060602082015201526004356000527fde1d81bc9860c075d76ad153e67ec9a4f01e6b3b42e3792f5f132c7f173401406020526103d66040600020604051906103708261104e565b60405161038181610291818561115f565b825261040760ff6002604051936103a68561039f816001850161115f565b0386611086565b60208601948552015416916040840192151583526040519485946020865251606060208701526080860190610f87565b90517fffffffffffffffffffffffffffffffffffffffffffffffffffffffffffffffe0858303016040860152610f87565b9051151560608301520390f35b346101565760207ffffffffffffffffffffffffffffffffffffffffffffffffffffffffffffffffc36011261015657600061014060405161045481611031565b828152826020820152606060408201528260608201528260808201528260a08201528260c0820152606060e082015260606101008201528261012082015201526004356000527fbc351ae7fa32df0c8ad57278243ae7d011e90d073629dfc92fda8e9f319c6fcc60205260406000206040516104cf81611031565b81549160ff831660078110156107dc57825260ff602083019360081c161515835260405161050481610291816001860161115f565b60408301908152600282015493606084019485526003830154906080850191825260048401549060a0860191825273ffffffffffffffffffffffffffffffffffffffff60058601541660c0870190815260068601928354610564816114ba565b946105726040519687611086565b818652602086019060005260206000206000915b838310610830575050505060e08801938452600787019485546105a8816114ba565b966105b66040519889611086565b818852602088019060005260206000206000915b83831061080b57505050506101008901958652600960ff60088a015416986101208b019915158a520154966101408a019788526040519960208b52519060078210156107dc5773ffffffffffffffffffffffffffffffffffffffff9561064b9260208d015251151560408c01525161016060608c01526101808b0190610f87565b995160808a01525160a08901525160c0880152511660e086015251947fffffffffffffffffffffffffffffffffffffffffffffffffffffffffffffffe085820301610100860152855180825260208201916020808360051b8301019801926000915b83831061076957505050505051917fffffffffffffffffffffffffffffffffffffffffffffffffffffffffffffffe084860301610120850152825180865260208601906020808260051b8901019501916000905b8282106107205784511515610140890152855161016089015287870388f35b9091929560208061075b837fffffffffffffffffffffffffffffffffffffffffffffffffffffffffffffffe08d600196030186528a51610f87565b980192019201909291610701565b9091929398602080827fffffffffffffffffffffffffffffffffffffffffffffffffffffffffffffffe085600195030186528c51906040806107c76107b78551606086526060860190610f87565b8686015185820388870152610f87565b9301519101529b0193019301919392906106ad565b7f4e487b7100000000000000000000000000000000000000000000000000000000600052602160045260246000fd5b60016020819260405161082281610291818961115f565b8152019201920191906105ca565b600360206001926040516108438161104e565b60405161085481610291818a61115f565b81526040516108698161029181898b0161115f565b8382015260028601546040820152815201920192019190610586565b346101565760207ffffffffffffffffffffffffffffffffffffffffffffffffffffffffffffffffc3601126101565760043573ffffffffffffffffffffffffffffffffffffffff8116809103610156576000527fbc351ae7fa32df0c8ad57278243ae7d011e90d073629dfc92fda8e9f319c6fd46020526020600160406000200154604051908152f35b346101565761091d36610f45565b906000527fbc351ae7fa32df0c8ad57278243ae7d011e90d073629dfc92fda8e9f319c6fd26020526040600020906000526020526020604060002054604051908152f35b346101565760207ffffffffffffffffffffffffffffffffffffffffffffffffffffffffffffffffc3601126101565760406004356101c46101bd7fbc351ae7fa32df0c8ad57278243ae7d011e90d073629dfc92fda8e9f319c6fd754836116e1565b34610156576109d136610f45565b906109da6110c7565b506000527fbc351ae7fa32df0c8ad57278243ae7d011e90d073629dfc92fda8e9f319c6fcf6020526040600020906000526020526080610a1d60406000206110ec565b610a4a60405180926060809180511515845260208101516020850152604081015160408501520151910152565bf35b346101565760207ffffffffffffffffffffffffffffffffffffffffffffffffffffffffffffffffc3601126101565760406004356101c46101bd7fbc351ae7fa32df0c8ad57278243ae7d011e90d073629dfc92fda8e9f319c6fd654836116e1565b346101565760407ffffffffffffffffffffffffffffffffffffffffffffffffffffffffffffffffc360112610156576020610af2610aea610f22565b600435611246565b604051908152f35b346101565760207ffffffffffffffffffffffffffffffffffffffffffffffffffffffffffffffffc360112610156576004357fbc351ae7fa32df0c8ad57278243ae7d011e90d073629dfc92fda8e9f319c6fd554811015610ba6576000527fbc351ae7fa32df0c8ad57278243ae7d011e90d073629dfc92fda8e9f319c6fcc6020526040806000206101c4610b9f6004830154926003600282015491015490846114ff565b8092611123565b7f92fa6fd30000000000000000000000000000000000000000000000000000000060005260046000fd5b346101565760407ffffffffffffffffffffffffffffffffffffffffffffffffffffffffffffffffc36011261015657610c07610f22565b610c0f6110c7565b506004356000527fbc351ae7fa32df0c8ad57278243ae7d011e90d073629dfc92fda8e9f319c6fce60205273ffffffffffffffffffffffffffffffffffffffff604060002091166000526020526080610a1d60406000206110ec565b346101565760207ffffffffffffffffffffffffffffffffffffffffffffffffffffffffffffffffc3601126101565760006020604051610caa81610fe6565b82815201526004356000527fbc351ae7fa32df0c8ad57278243ae7d011e90d073629dfc92fda8e9f319c6fd06020526040806000208151610cea81610fe6565b60206001835493848452015491019081528251918252516020820152f35b346101565760207ffffffffffffffffffffffffffffffffffffffffffffffffffffffffffffffffc360112610156576004357fbc351ae7fa32df0c8ad57278243ae7d011e90d073629dfc92fda8e9f319c6fd554811015610ba657806000527fbc351ae7fa32df0c8ad57278243ae7d011e90d073629dfc92fda8e9f319c6fcc602052610d9860406000206114d2565b60078110156107dc5780610de157506000527fbc351ae7fa32df0c8ad57278243ae7d011e90d073629dfc92fda8e9f319c6fcc6020526020600460406000200154604051908152f35b610e0e907fabe418b700000000000000000000000000000000000000000000000000000000600052610f79565b60246000fd5b346101565760607ffffffffffffffffffffffffffffffffffffffffffffffffffffffffffffffffc36011261015657610e4b610f22565b610e536110c7565b506004356000527fbc351ae7fa32df0c8ad57278243ae7d011e90d073629dfc92fda8e9f319c6fcd60205273ffffffffffffffffffffffffffffffffffffffff6040600020911660005260205260406000206044356000526020526080610a1d60406000206110ec565b346101565760207ffffffffffffffffffffffffffffffffffffffffffffffffffffffffffffffffc360112610156576020906004356000527fbc351ae7fa32df0c8ad57278243ae7d011e90d073629dfc92fda8e9f319c6fd382526040600020548152f35b6024359073ffffffffffffffffffffffffffffffffffffffff8216820361015657565b7ffffffffffffffffffffffffffffffffffffffffffffffffffffffffffffffffc6040910112610156576004359060243590565b60078110156107dc57600452565b919082519283825260005b848110610fd15750507fffffffffffffffffffffffffffffffffffffffffffffffffffffffffffffffe0601f8460006020809697860101520116010190565b80602080928401015182828601015201610f92565b6040810190811067ffffffffffffffff82111761100257604052565b7f4e487b7100000000000000000000000000000000000000000000000000000000600052604160045260246000fd5b610160810190811067ffffffffffffffff82111761100257604052565b6060810190811067ffffffffffffffff82111761100257604052565b6080810190811067ffffffffffffffff82111761100257604052565b90601f7fffffffffffffffffffffffffffffffffffffffffffffffffffffffffffffffe0910116810190811067ffffffffffffffff82111761100257604052565b604051906110d48261106a565b60006060838281528260208201528260408201520152565b906040516110f98161106a565b60606003829460ff8154161515845260018101546020850152600281015460408501520154910152565b9190820391821161113057565b7f4e487b7100000000000000000000000000000000000000000000000000000000600052601160045260246000fd5b600092918154918260011c9260018116801561123c575b60208510811461120d578484529081156111d1575060011461119757505050565b60009081526020812093945091925b8383106111b7575060209250010190565b6001816020929493945483858701015201910191906111a6565b905060209495507fffffffffffffffffffffffffffffffffffffffffffffffffffffffffffffff0091509291921683830152151560051b010190565b7f4e487b7100000000000000000000000000000000000000000000000000000000600052602260045260246000fd5b93607f1693611176565b806000527fbc351ae7fa32df0c8ad57278243ae7d011e90d073629dfc92fda8e9f319c6fcc602052604060002091604051906020820182811067ffffffffffffffff82111761100257604052600082526112bc6001850192604051906112b7826112b0818861115f565b0383611086565b61152c565b61148357826000527fbc351ae7fa32df0c8ad57278243ae7d011e90d073629dfc92fda8e9f319c6fcd60205273ffffffffffffffffffffffffffffffffffffffff604060002091166000526020526102916113226040600020926040519283809261115f565b6020815191012060005260205260ff604060002092541660078110156107dc57600181036114725750600361146f920154816000527fbc351ae7fa32df0c8ad57278243ae7d011e90d073629dfc92fda8e9f319c6fcc60205261146a604060002092806000527fbc351ae7fa32df0c8ad57278243ae7d011e90d073629dfc92fda8e9f319c6fcf602052600160406000209401936040516113c781610291818961115f565b6020815191012060005260205260036040600020015493816000527fbc351ae7fa32df0c8ad57278243ae7d011e90d073629dfc92fda8e9f319c6fcf60205261029161141e6040600020926040519283809261115f565b60208151910120600052602052600260406000200154906000527fbc351ae7fa32df0c8ad57278243ae7d011e90d073629dfc92fda8e9f319c6fd0602052600160406000200154611123565b6115f2565b90565b91505060028103610de15750600090565b7fc74a206d0000000000000000000000000000000000000000000000000000000060005260046000fd5b9190820180921161113057565b67ffffffffffffffff81116110025760051b60200190565b60ff8154169060078210156107dc5781156114eb575090565b600301544210156114f95790565b50600390565b9091428110156115265761152061146f9361151a4284611123565b92611123565b916115f2565b50905090565b805190825191828103611546576020809201209201201490565b50505050600090565b9190916000838202917fffffffffffffffffffffffffffffffffffffffffffffffffffffffffffffffff858209918380841093039280840393146115e5578261271011156115d357507fbc01a36e2eb1c432ca57a786c226809d495182a9930be0ded288ce703afb7e919394612710910990828211900360fc1b910360041c170290565b634e487b71905260116020526024601cfd5b5050506127109192500490565b91818302917fffffffffffffffffffffffffffffffffffffffffffffffffffffffffffffffff818509938380861095039480860395146116a4578483111561168b5790829109816000038216809204600281600302188082026002030280820260020302808202600203028082026002030280820260020302809102600203029360018380600003040190848311900302920304170290565b82634e487b71600052156003026011186020526024601cfd5b5050809250156116b2570490565b7f4e487b7100000000000000000000000000000000000000000000000000000000600052601260045260246000fd5b9080820282810482148315171561113057612710116101565761146f9161154f56fea26469706673582212203514aab18f1da2107e4fb3d4a7a34625fffb099dba45fc9381aca9168d63bde164736f6c634300081c0033",
  "linkReferences": {},
  "deployedLinkReferences": {}
}