{
  "_format": "hh-sol-artifact-1",
  "contractName": "ChallengePoolHandler",
  "sourceName": "contracts/modules/ChallengePoolHandler.sol",
  "abi": [
    {
      "inputs": [
        {
          "internalType": "enum IChallengePoolCommon.ChallengeState",
          "name": "_state",
          "type": "uint8"
        }
      ],
      "name": "ActionNotAllowedForState",
      "type": "error"
    },
    {
      "inputs": [],
      "name": "BelowMinPrie",
      "type": "error"
    },
    {
      "inputs": [],
      "name": "CommunityChallengeRequiresCommunity",
      "type": "error"
    },
    {
      "inputs": [
        {
          "internalType": "bytes32",
          "name": "communityId",
          "type": "bytes32"
        }
      ],
      "name": "CommunityDoesNotExist",
      "type": "error"
    },
    {
      "inputs": [],
      "name": "CommunityIsBanned",
      "type": "error"
    },
    {
      "inputs": [],
      "name": "DeadlineExceeded",
      "type": "error"
    },
    {
      "inputs": [
        {
          "internalType": "string",
          "name": "_functionName",
          "type": "string"
        }
      ],
      "name": "DelegateCallFailed",
      "type": "error"
    },
    {
      "inputs": [],
      "name": "DisputePeriod",
      "type": "error"
    },
    {
      "inputs": [],
      "name": "DisputePeriodElapsed",
      "type": "error"
    },
    {
      "inputs": [
        {
          "internalType": "uint256",
          "name": "_requested",
          "type": "uint256"
        },
        {
          "internalType": "uint256",
          "name": "_available",
          "type": "uint256"
        }
      ],
      "name": "InsufficientStakes",
      "type": "error"
    },
    {
      "inputs": [],
      "name": "InvalidChallenge",
      "type": "error"
    },
    {
      "inputs": [],
      "name": "InvalidEventLength",
      "type": "error"
    },
    {
      "inputs": [],
      "name": "InvalidEventMaturity",
      "type": "error"
    },
    {
      "inputs": [],
      "name": "InvalidEventParam",
      "type": "error"
    },
    {
      "inputs": [],
      "name": "InvalidEventTopic",
      "type": "error"
    },
    {
      "inputs": [],
      "name": "InvalidOptionsLength",
      "type": "error"
    },
    {
      "inputs": [],
      "name": "InvalidOutcome",
      "type": "error"
    },
    {
      "inputs": [],
      "name": "InvalidPoolOption",
      "type": "error"
    },
    {
      "inputs": [],
      "name": "InvalidPrediction",
      "type": "error"
    },
    {
      "inputs": [],
      "name": "MaxPriceExceeded",
      "type": "error"
    },
    {
      "inputs": [
        {
          "internalType": "bytes32",
          "name": "communityId",
          "type": "bytes32"
        },
        {
          "internalType": "address",
          "name": "caller",
          "type": "address"
        }
      ],
      "name": "NotCommunityOwnerOrAdmin",
      "type": "error"
    },
    {
      "inputs": [],
      "name": "NotImplemented",
      "type": "error"
    },
    {
      "inputs": [],
      "name": "Pausable__NotPaused",
      "type": "error"
    },
    {
      "inputs": [],
      "name": "Pausable__Paused",
      "type": "error"
    },
    {
      "inputs": [],
      "name": "PlayerAlreadyDisputed",
      "type": "error"
    },
    {
      "inputs": [],
      "name": "PlayerAlreadyReleased",
      "type": "error"
    },
    {
      "inputs": [],
      "name": "PlayerAlreadyWithdrawn",
      "type": "error"
    },
    {
      "inputs": [],
      "name": "PlayerDidNotDispute",
      "type": "error"
    },
    {
      "inputs": [],
      "name": "PlayerDidNotWinPool",
      "type": "error"
    },
    {
      "inputs": [],
      "name": "PlayerLostDispute",
      "type": "error"
    },
    {
      "inputs": [],
      "name": "PlayerNotInPool",
      "type": "error"
    },
    {
      "inputs": [],
      "name": "ProtocolInvariantCheckFailed",
      "type": "error"
    },
    {
      "inputs": [],
      "name": "ReentrancyGuard__ReentrantCall",
      "type": "error"
    },
    {
      "inputs": [
        {
          "internalType": "address",
          "name": "token",
          "type": "address"
        }
      ],
      "name": "SafeERC20FailedOperation",
      "type": "error"
    },
    {
      "inputs": [],
      "name": "StakeLowerThanMinimum",
      "type": "error"
    },
    {
      "inputs": [
        {
          "internalType": "address",
          "name": "_token",
          "type": "address"
        }
      ],
      "name": "UnsupportedToken",
      "type": "error"
    },
    {
      "inputs": [],
      "name": "ZeroAddress",
      "type": "error"
    },
    {
      "inputs": [],
      "name": "ZeroNumber",
      "type": "error"
    },
    {
      "anonymous": false,
      "inputs": [
        {
          "indexed": false,
          "internalType": "uint256",
          "name": "challengeId",
          "type": "uint256"
        },
        {
          "indexed": false,
          "internalType": "address",
          "name": "closer",
          "type": "address"
        },
        {
          "indexed": false,
          "internalType": "enum IChallengePoolCommon.ChallengeState",
          "name": "state",
          "type": "uint8"
        },
        {
          "indexed": false,
          "internalType": "bytes",
          "name": "result",
          "type": "bytes"
        }
      ],
      "name": "CloseChallenge",
      "type": "event"
    },
    {
      "anonymous": false,
      "inputs": [
        {
          "indexed": false,
          "internalType": "uint256",
          "name": "challengeId",
          "type": "uint256"
        },
        {
          "indexed": false,
          "internalType": "address",
          "name": "evaluator",
          "type": "address"
        },
        {
          "indexed": false,
          "internalType": "enum IChallengePoolCommon.ChallengeState",
          "name": "state",
          "type": "uint8"
        },
        {
          "indexed": false,
          "internalType": "bytes",
          "name": "result",
          "type": "bytes"
        }
      ],
      "name": "EvaluateChallenge",
      "type": "event"
    },
    {
      "anonymous": false,
      "inputs": [
        {
          "indexed": false,
          "internalType": "uint256",
          "name": "challengeId",
          "type": "uint256"
        },
        {
          "indexed": false,
          "internalType": "address",
          "name": "creator",
          "type": "address"
        },
        {
          "indexed": false,
          "internalType": "uint256",
          "name": "createdAt",
          "type": "uint256"
        },
        {
          "indexed": false,
          "internalType": "uint256",
          "name": "maturity",
          "type": "uint256"
        },
        {
          "indexed": false,
          "internalType": "enum IChallengePoolCommon.ChallengeState",
          "name": "state",
          "type": "uint8"
        },
        {
          "indexed": false,
          "internalType": "bytes",
          "name": "result",
          "type": "bytes"
        },
        {
          "indexed": false,
          "internalType": "uint256",
          "name": "basePrice",
          "type": "uint256"
        },
        {
          "indexed": false,
          "internalType": "uint256",
          "name": "fee",
          "type": "uint256"
        },
        {
          "indexed": false,
          "internalType": "uint256",
          "name": "quantity",
          "type": "uint256"
        },
        {
          "indexed": false,
          "internalType": "uint256",
          "name": "totalAmount",
          "type": "uint256"
        },
        {
          "indexed": false,
          "internalType": "uint256",
          "name": "rewards",
          "type": "uint256"
        },
        {
          "indexed": false,
          "internalType": "bytes",
          "name": "prediction",
          "type": "bytes"
        },
        {
          "components": [
            {
              "internalType": "bytes",
              "name": "params",
              "type": "bytes"
            },
            {
              "internalType": "string",
              "name": "topicId",
              "type": "string"
            },
            {
              "internalType": "uint256",
              "name": "maturity",
              "type": "uint256"
            }
          ],
          "indexed": false,
          "internalType": "struct IChallengePoolCommon.ChallengeEvent[]",
          "name": "events",
          "type": "tuple[]"
        },
        {
          "indexed": false,
          "internalType": "bytes[]",
          "name": "options",
          "type": "bytes[]"
        },
        {
          "indexed": false,
          "internalType": "address",
          "name": "stakeToken",
          "type": "address"
        },
        {
          "indexed": false,
          "internalType": "bool",
          "name": "multi",
          "type": "bool"
        },
        {
          "indexed": false,
          "internalType": "bytes32",
          "name": "communityId",
          "type": "bytes32"
        },
        {
          "indexed": false,
          "internalType": "enum IChallengePoolCommon.ChallengeType",
          "name": "cType",
          "type": "uint8"
        }
      ],
      "name": "NewChallenge",
      "type": "event"
    },
    {
      "anonymous": false,
      "inputs": [
        {
          "indexed": false,
          "internalType": "address",
          "name": "account",
          "type": "address"
        }
      ],
      "name": "Paused",
      "type": "event"
    },
    {
      "anonymous": false,
      "inputs": [
        {
          "indexed": true,
          "internalType": "bytes32",
          "name": "role",
          "type": "bytes32"
        },
        {
          "indexed": true,
          "internalType": "bytes32",
          "name": "previousAdminRole",
          "type": "bytes32"
        },
        {
          "indexed": true,
          "internalType": "bytes32",
          "name": "newAdminRole",
          "type": "bytes32"
        }
      ],
      "name": "RoleAdminChanged",
      "type": "event"
    },
    {
      "anonymous": false,
      "inputs": [
        {
          "indexed": true,
          "internalType": "bytes32",
          "name": "role",
          "type": "bytes32"
        },
        {
          "indexed": true,
          "internalType": "address",
          "name": "account",
          "type": "address"
        },
        {
          "indexed": true,
          "internalType": "address",
          "name": "sender",
          "type": "address"
        }
      ],
      "name": "RoleGranted",
      "type": "event"
    },
    {
      "anonymous": false,
      "inputs": [
        {
          "indexed": true,
          "internalType": "bytes32",
          "name": "role",
          "type": "bytes32"
        },
        {
          "indexed": true,
          "internalType": "address",
          "name": "account",
          "type": "address"
        },
        {
          "indexed": true,
          "internalType": "address",
          "name": "sender",
          "type": "address"
        }
      ],
      "name": "RoleRevoked",
      "type": "event"
    },
    {
      "anonymous": false,
      "inputs": [
        {
          "indexed": false,
          "internalType": "uint256",
          "name": "challengeId",
          "type": "uint256"
        },
        {
          "indexed": false,
          "internalType": "address",
          "name": "participant",
          "type": "address"
        },
        {
          "indexed": false,
          "internalType": "bytes",
          "name": "option",
          "type": "bytes"
        },
        {
          "indexed": false,
          "internalType": "uint256",
          "name": "stakes",
          "type": "uint256"
        },
        {
          "indexed": false,
          "internalType": "uint256",
          "name": "price",
          "type": "uint256"
        },
        {
          "indexed": false,
          "internalType": "uint256",
          "name": "totalAmount",
          "type": "uint256"
        },
        {
          "indexed": false,
          "internalType": "uint256",
          "name": "fee",
          "type": "uint256"
        },
        {
          "indexed": false,
          "internalType": "uint256",
          "name": "rewards",
          "type": "uint256"
        }
      ],
      "name": "Stake",
      "type": "event"
    },
    {
      "anonymous": false,
      "inputs": [
        {
          "indexed": false,
          "internalType": "address",
          "name": "account",
          "type": "address"
        }
      ],
      "name": "Unpaused",
      "type": "event"
    },
    {
      "anonymous": false,
      "inputs": [
        {
          "indexed": false,
          "internalType": "uint256",
          "name": "challengeId",
          "type": "uint256"
        },
        {
          "indexed": false,
          "internalType": "address",
          "name": "participant",
          "type": "address"
        },
        {
          "indexed": false,
          "internalType": "uint256",
          "name": "amountWon",
          "type": "uint256"
        },
        {
          "indexed": false,
          "internalType": "uint256",
          "name": "amountWithdrawn",
          "type": "uint256"
        }
      ],
      "name": "WinningsWithdrawn",
      "type": "event"
    },
    {
      "anonymous": false,
      "inputs": [
        {
          "indexed": false,
          "internalType": "uint256",
          "name": "challengeId",
          "type": "uint256"
        },
        {
          "indexed": false,
          "internalType": "address",
          "name": "participant",
          "type": "address"
        },
        {
          "indexed": false,
          "internalType": "bytes",
          "name": "option",
          "type": "bytes"
        },
        {
          "indexed": false,
          "internalType": "uint256",
          "name": "stakes",
          "type": "uint256"
        },
        {
          "indexed": false,
          "internalType": "uint256",
          "name": "price",
          "type": "uint256"
        },
        {
          "indexed": false,
          "internalType": "uint256",
          "name": "penalty",
          "type": "uint256"
        },
        {
          "indexed": false,
          "internalType": "uint256",
          "name": "totalAmount",
          "type": "uint256"
        },
        {
          "indexed": false,
          "internalType": "uint256",
          "name": "fee",
          "type": "uint256"
        },
        {
          "indexed": false,
          "internalType": "uint256",
          "name": "rewards",
          "type": "uint256"
        }
      ],
      "name": "Withdraw",
      "type": "event"
    },
    {
      "inputs": [
        {
          "internalType": "uint256[]",
          "name": "_challengeIds",
          "type": "uint256[]"
        }
      ],
      "name": "bulkWithdraw",
      "outputs": [],
      "stateMutability": "nonpayable",
      "type": "function"
    },
    {
      "inputs": [
        {
          "internalType": "uint256",
          "name": "_challengeId",
          "type": "uint256"
        }
      ],
      "name": "close",
      "outputs": [],
      "stateMutability": "nonpayable",
      "type": "function"
    },
    {
      "inputs": [
        {
          "components": [
            {
              "internalType": "bytes",
              "name": "params",
              "type": "bytes"
            },
            {
              "internalType": "string",
              "name": "topicId",
              "type": "string"
            },
            {
              "internalType": "uint256",
              "name": "maturity",
              "type": "uint256"
            }
          ],
          "internalType": "struct IChallengePoolCommon.ChallengeEvent[]",
          "name": "_events",
          "type": "tuple[]"
        },
        {
          "internalType": "bytes[]",
          "name": "_options",
          "type": "bytes[]"
        },
        {
          "internalType": "address",
          "name": "_stakeToken",
          "type": "address"
        },
        {
          "internalType": "bytes",
          "name": "_prediction",
          "type": "bytes"
        },
        {
          "internalType": "uint256",
          "name": "_quantity",
          "type": "uint256"
        },
        {
          "internalType": "uint256",
          "name": "_basePrice",
          "type": "uint256"
        },
        {
          "internalType": "address",
          "name": "_paymaster",
          "type": "address"
        },
        {
          "internalType": "bytes32",
          "name": "_communityId",
          "type": "bytes32"
        },
        {
          "internalType": "enum IChallengePoolCommon.ChallengeType",
          "name": "_cType",
          "type": "uint8"
        }
      ],
      "name": "createChallenge",
      "outputs": [],
      "stateMutability": "nonpayable",
      "type": "function"
    },
    {
      "inputs": [
        {
          "internalType": "uint256",
          "name": "_challengeId",
          "type": "uint256"
        },
        {
          "internalType": "bytes",
          "name": "_prediction",
          "type": "bytes"
        },
        {
          "internalType": "uint256",
          "name": "_quantity",
          "type": "uint256"
        },
        {
          "internalType": "uint256",
          "name": "_deadline",
          "type": "uint256"
        }
      ],
      "name": "earlyWithdraw",
      "outputs": [],
      "stateMutability": "nonpayable",
      "type": "function"
    },
    {
      "inputs": [
        {
          "internalType": "uint256",
          "name": "_challengeId",
          "type": "uint256"
        }
      ],
      "name": "evaluate",
      "outputs": [],
      "stateMutability": "nonpayable",
      "type": "function"
    },
    {
      "inputs": [
        {
          "internalType": "uint256",
          "name": "_challengeId",
          "type": "uint256"
        },
        {
          "internalType": "bytes",
          "name": "_prediction",
          "type": "bytes"
        },
        {
          "internalType": "uint256",
          "name": "_quantity",
          "type": "uint256"
        },
        {
          "internalType": "address",
          "name": "_paymaster",
          "type": "address"
        }
      ],
      "name": "stake",
      "outputs": [],
      "stateMutability": "nonpayable",
      "type": "function"
    },
    {
      "inputs": [
        {
          "internalType": "uint256",
          "name": "_challengeId",
          "type": "uint256"
        }
      ],
      "name": "withdraw",
      "outputs": [],
      "stateMutability": "nonpayable",
      "type": "function"
    }
  ],
  "bytecode": "0x60808060405234601557614cae908161001b8239f35b600080fdfe610180604052600436101561001357600080fd5b60003560e01c80630aebeb4e14612cb357806318d2d415146125595780632e1a7d4d14612457578063371432331461207b578063a6a21a5d14611fce578063ac68a63014611db85763f1a5d5c51461006a57600080fd5b34611583576101207ffffffffffffffffffffffffffffffffffffffffffffffffffffffffffffffffc3601126115835760043567ffffffffffffffff8111611583576100ba903690600401612ee1565b9060243567ffffffffffffffff8111611583576100db903690600401612ee1565b60443560e08190529093919073ffffffffffffffffffffffffffffffffffffffff811690036115835760643567ffffffffffffffff811161158357610124903690600401612eb3565b60c435610100819052909591929073ffffffffffffffffffffffffffffffffffffffff81169003611583576003610104351015806115835760ff7f68721c0bbf2c02a4d65000340d1370666be06a630022208d4baa9bd7a4b6fea85416611d8e5760843515611d645760a43515611d645773ffffffffffffffffffffffffffffffffffffffff60e0511615611d3a5760ff600261020260e05173ffffffffffffffffffffffffffffffffffffffff166000527fbc351ae7fa32df0c8ad57278243ae7d011e90d073629dfc92fda8e9f319c6fd4602052604060002090565b01541615611cf4577fbc351ae7fa32df0c8ad57278243ae7d011e90d073629dfc92fda8e9f319c6fd95460a43510611cca576102616102423689876131c6565b6020608081905260405191906102589083612f4a565b600082526135cf565b6118485760e435611b6e575060009161010435611b46575b60018510611af2577fbc351ae7fa32df0c8ad57278243ae7d011e90d073629dfc92fda8e9f319c6fdb548511611b1c577fbc351ae7fa32df0c8ad57278243ae7d011e90d073629dfc92fda8e9f319c6fda548111611b1c57600060a05280611884575050600060a05260405160606102f18183612f4a565b6002825260a051604091905b8281106118725750505061030f6133a3565b61031882613515565b5261032281613515565b5061032b61335b565b61033482613522565b5261033e81613522565b50925b60009460005b85518110156104705761037760405161036260805182612f4a565b600081526103708389613532565b51906135cf565b610446576103996103888288613532565b51610394368b896131c6565b6135cf565b61043d575b6001907fbc351ae7fa32df0c8ad57278243ae7d011e90d073629dfc92fda8e9f319c6fd5546000527fbc351ae7fa32df0c8ad57278243ae7d011e90d073629dfc92fda8e9f319c6fcf6080515260406000206103fa8289613532565b518051906080510120600052608051526040600020827fffffffffffffffffffffffffffffffffffffffffffffffffffffffffffffff0082541617905501610347565b6001965061039e565b7f3d4d195c0000000000000000000000000000000000000000000000000000000060005260046000fd5b50909293919415611848577fffffffffffffffffffffffffffffffffffffffffffffffffffffffffffffffff60c05260005b8381106115ba57506104b860843560a4356131fd565b610120527fbc351ae7fa32df0c8ad57278243ae7d011e90d073629dfc92fda8e9f319c6fd85460006127106104f083610120516131fd565b106115b7575061050390610120516142d6565b94600161055160e05173ffffffffffffffffffffffffffffffffffffffff166000527fbc351ae7fa32df0c8ad57278243ae7d011e90d073629dfc92fda8e9f319c6fd4602052604060002090565b0161055d878254613210565b905561056e60c0514260843561361f565b9061063060405161057e81612f12565b600081526084356080518201526101205160408201528360608201527fbc351ae7fa32df0c8ad57278243ae7d011e90d073629dfc92fda8e9f319c6fd5546000527fbc351ae7fa32df0c8ad57278243ae7d011e90d073629dfc92fda8e9f319c6fcd60805152604060002073ffffffffffffffffffffffffffffffffffffffff3316600052608051526040600020610617368c8b6131c6565b805190608051012060005260805152604060002061413a565b6106d260405161063f81612f12565b600081526084356080518201526101205160408201528360608201527fbc351ae7fa32df0c8ad57278243ae7d011e90d073629dfc92fda8e9f319c6fd5546000527fbc351ae7fa32df0c8ad57278243ae7d011e90d073629dfc92fda8e9f319c6fce60805152604060002073ffffffffffffffffffffffffffffffffffffffff331660005260805152604060002061413a565b6107576040516106e181612f12565b600181526084356080518201526101205160408201528360608201527fbc351ae7fa32df0c8ad57278243ae7d011e90d073629dfc92fda8e9f319c6fd5546000527fbc351ae7fa32df0c8ad57278243ae7d011e90d073629dfc92fda8e9f319c6fcf608051526040600020610617368c8b6131c6565b60405180604081011067ffffffffffffffff60408301111761158857604081016040526084358152600160805182016101205181527fbc351ae7fa32df0c8ad57278243ae7d011e90d073629dfc92fda8e9f319c6fd5546000527fbc351ae7fa32df0c8ad57278243ae7d011e90d073629dfc92fda8e9f319c6fd060805152604060002092518355519101556040516107f260805182612f4a565b60008152604051610140526101a0610140510161014051811067ffffffffffffffff821117611588576040526000610140515260a0511515608051610140510152604061014051015242606061014051015260c051608061014051015260a43560a061014051015273ffffffffffffffffffffffffffffffffffffffff60e0511660c0610140510152610884856132eb565b6108916040519182612f4a565b8581526080518101368760051b8601116115835784905b8760051b860182106114e457505060e061014051015283610100610140510152600061012061014051015260006101408051015260e4356101606101405101526114b557610104356101806101405101527fbc351ae7fa32df0c8ad57278243ae7d011e90d073629dfc92fda8e9f319c6fd5546000527fbc351ae7fa32df0c8ad57278243ae7d011e90d073629dfc92fda8e9f319c6fcc608051526040600020906101405151600781101561016052610160516114b55760006101605260ff7fffffffffffffffffffffffffffffffffffffffffffffffffffffffffffffff00845416911617825560805161014051015115157fffffffffffffffffffffffffffffffffffffffffffffffffffffffffffff00ff61ff0084549260081b169116178255604061014051015180519067ffffffffffffffff8211611021576109ff826109f66001870154612fc5565b600187016133ff565b608051906001601f8411146113e157918091610a51936101605192610f46575b50507fffffffffffffffffffffffffffffffffffffffffffffffffffffffffffffffff8260011b9260031b1c19161790565b60018301555b606061014051015160028301556080610140510151600383015560a061014051015160048301556005820173ffffffffffffffffffffffffffffffffffffffff60c0610140510151167fffffffffffffffffffffffff000000000000000000000000000000000000000082541617905560e0610140510151805190680100000000000000008211611021576006840154826006860155808310611314575b506080510190600684016101605152608051610160512061016051925b82841061108c5750505050610100610140510151805190680100000000000000008211611021576007840154826007860155808310611054575b50608051019060078401610160515260805161016051209161016051905b828210610eb65750505050610bb76101206101405101511515600884019060ff7fffffffffffffffffffffffffffffffffffffffffffffffffffffffffffffff0083541691151516179055565b6101408051908101516009840155610160810151600a8401556101800151916003831015610e8357600b610ccf93610160979597515060ff7fffffffffffffffffffffffffffffffffffffffffffffffffffffffffffffff0083850154169116179101557fbc351ae7fa32df0c8ad57278243ae7d011e90d073629dfc92fda8e9f319c6fd5549760405196610c4e60805189612f4a565b610160518852610c99604051988b8a52336080518b01524260408b015260c05160608b0152610160515061016051506101605160808b015261024060a08b01526102408a0190613467565b9260a43560c08a01528960e08a01526084356101008a0152610120516101208a015261014089015287830361016089015261321d565b928484036101808601528184526080518401916080518160051b86010194829361016051917fffffffffffffffffffffffffffffffffffffffffffffffffffffffffffffffa185360301905b848410610e1f578b8b7fb54a470a1f4a1a5be952b4f67fda91be71412f9a50d602ce696806e1e158b3db8c80610d5a8e8e8382036101a0850152613d7f565b60e05173ffffffffffffffffffffffffffffffffffffffff166101c083015260a05115156101e083015260e435610200830152610104356102208301520390a160018201809211610dec57610de5917fbc351ae7fa32df0c8ad57278243ae7d011e90d073629dfc92fda8e9f319c6fd555610dd9339161012051613210565b60e05161010051613656565b6101605180f35b7f4e487b710000000000000000000000000000000000000000000000000000000061016051526011600452602461016051fd5b909192939495977fffffffffffffffffffffffffffffffffffffffffffffffffffffffffffffffe0828203018452883583811215610e7c5760019188610e6592016140dc565b986080510193608051019401929594939190610d1b565b6101605180fd5b7f4e487b710000000000000000000000000000000000000000000000000000000061016051526021600452602461016051fd5b805180519067ffffffffffffffff821161102157610ede82610ed88854612fc5565b886133ff565b608051906001601f841114610f51578260019492938594610f34936101605192610f465750507fffffffffffffffffffffffffffffffffffffffffffffffffffffffffffffffff8260011b9260031b1c19161790565b86555b60805101940191019092610b6a565b015190503880610a1f565b90866101605152608051610160512091610160515b7fffffffffffffffffffffffffffffffffffffffffffffffffffffffffffffffe085168110611008575092600194928594928593837fffffffffffffffffffffffffffffffffffffffffffffffffffffffffffffffe0811610610fd1575b505050811b018655610f37565b01517fffffffffffffffffffffffffffffffffffffffffffffffffffffffffffffffff60f88460031b161c19169055388080610fc4565b8183015184556080516001909401939283019201610f66565b7f4e487b710000000000000000000000000000000000000000000000000000000061016051526041600452602461016051fd5b6007850161016051526080516101605120908382015b818301811061107a575050610b4c565b80611086600192614193565b0161106a565b8051805180519067ffffffffffffffff8211611021576110b6826110b08754612fc5565b876133ff565b608051906001601f84111461126857918091611107936101605192610f465750507fffffffffffffffffffffffffffffffffffffffffffffffffffffffffffffffff8260011b9260031b1c19161790565b83555b60805181015180519067ffffffffffffffff82116110215761113c826111336001880154612fc5565b600188016133ff565b608051906001601f8411146111b0579261119583600196946040946003976101605192610f465750507fffffffffffffffffffffffffffffffffffffffffffffffffffffffffffffffff8260011b9260031b1c19161790565b858701555b0151600285015560805101920193019290610b12565b907fffffffffffffffffffffffffffffffffffffffffffffffffffffffffffffffe0831691600187016101605152608051610160512092610160515b81811061124f575093604093600396936001989693838a9510611219575b505050811b018587015561119a565b01517fffffffffffffffffffffffffffffffffffffffffffffffffffffffffffffffff60f8848a1b161c1916905538808061120a565b82840151855560805160019095019493840193016111ec565b907fffffffffffffffffffffffffffffffffffffffffffffffffffffffffffffffe0831691866101605152608051610160512092610160515b8181106112fb57509084600195949392106112c4575b505050811b01835561110a565b01517fffffffffffffffffffffffffffffffffffffffffffffffffffffffffffffffff60f88460031b161c191690553880806112b7565b82840151855560805160019095019493840193016112a1565b6003818102048103610dec576003838102048303610dec5760068501610160515260805161016051208360030281015b8260030282018110611357575050610af5565b80611363600392614193565b600181016113718154612fc5565b80611388575b505061016051600282015501611344565b601f81116001146113a257506101605190555b3880611377565b6113c6908261016051526001601f6080516101605120920160051c820191016133e8565b6101608051829052608051905190812091819055905561139b565b919060018501610160515260805161016051209061016051935b7fffffffffffffffffffffffffffffffffffffffffffffffffffffffffffffffe0841685106114995760019450837fffffffffffffffffffffffffffffffffffffffffffffffffffffffffffffffe0811610611462575b505050811b016001830155610a57565b01517fffffffffffffffffffffffffffffffffffffffffffffffffffffffffffffffff60f88460031b161c19169055388080611452565b81810151835560805194850194600190930192909101906113fb565b7f4e487b7100000000000000000000000000000000000000000000000000000000600052602160045260246000fd5b813567ffffffffffffffff8111611583578601606081360312611583576040519061150e82612f2e565b803567ffffffffffffffff81116115835761152c90369083016134ba565b825260805181013567ffffffffffffffff81116115835781019036601f83011215611583576115656040923690803590608051016131c6565b608051840152013560408201528152608051019060805101906108a8565b600080fd5b7f4e487b7100000000000000000000000000000000000000000000000000000000600052604160045260246000fd5b80fd5b60406115c78286856134d5565b01356115f47fbc351ae7fa32df0c8ad57278243ae7d011e90d073629dfc92fda8e9f319c6fdc5442613210565b1161181e578560406116078387866134d5565b013560c05111611807575b6114b5576101043515611628575b6001016104a2565b60ff600261164e61164861163d8589886134d5565b608051810190613546565b90613597565b015460a01c1660028110156114b557156117dd576000806116708387866134d5565b6080518101906116fc61172873ffffffffffffffffffffffffffffffffffffffff60026116b36116488360016116a96116488b8b613546565b0154169787613546565b015416926040519283916080518301957f1e272e4c00000000000000000000000000000000000000000000000000000000875260248401526040604484015260648301906140dc565b037fffffffffffffffffffffffffffffffffffffffffffffffffffffffffffffffe08101835282612f4a565b51915af4611734613df6565b901561177e576117509060805181518201019060805101614122565b611620577f66e37c080000000000000000000000000000000000000000000000000000000060005260046000fd5b60646040517f9becf85d0000000000000000000000000000000000000000000000000000000081526080516004820152601660248201527f4c6962506f6f6c2e5f76616c69646174654576656e74000000000000000000006044820152fd5b7f4aa91a460000000000000000000000000000000000000000000000000000000060005260046000fd5b60406118148387866134d5565b013560c052611612565b7fcce559bd0000000000000000000000000000000000000000000000000000000060005260046000fd5b7fea0599f80000000000000000000000000000000000000000000000000000000060005260046000fd5b816080518286010152608051016102fd565b600160a09592955260028110611b1c5760a0518211611af2576118a6816132eb565b946118b46040519687612f4a565b818652608051860190368360051b8201116115835780915b8360051b82018310611ac657505050508360008215611a99578635907fffffffffffffffffffffffffffffffffffffffffffffffffffffffffffffffa1883603018212156115b7575060009182918801906119b46119e46080518401936116fc73ffffffffffffffffffffffffffffffffffffffff600261196b611648836119616119578c89613546565b60a0519291613597565b0154169986613546565b015416946040519485936080518501977fd925ce5000000000000000000000000000000000000000000000000000000000895260248601526060604486015260848501906140dc565b907fffffffffffffffffffffffffffffffffffffffffffffffffffffffffffffffdc848303016064850152613d7f565b51915af46119f0613df6565b9015611a3a57611a0c9060805181518201019060805101614122565b610341577f66e37c080000000000000000000000000000000000000000000000000000000060005260046000fd5b60646040517f9becf85d0000000000000000000000000000000000000000000000000000000081526080516004820152601860248201527f4c6962506f6f6c2e5f76616c69646174654f7074696f6e7300000000000000006044820152fd5b807f4e487b7100000000000000000000000000000000000000000000000000000000602492526032600452fd5b67ffffffffffffffff83351161158357611ae336843584016134ba565b815260805192830192016118cc565b7f678c50c90000000000000000000000000000000000000000000000000000000060005260046000fd5b7f8ad443780000000000000000000000000000000000000000000000000000000060005260046000fd5b6004837f5ad9d603000000000000000000000000000000000000000000000000000000008152fd5b9160e4356000527f9b810165f441ab693115a26b4f879022ff02cafea473e519a4de415dea2e9ab960805152604060002073ffffffffffffffffffffffffffffffffffffffff600182015416908115611c9a576004015460ff16611c705760e4356000527f9b810165f441ab693115a26b4f879022ff02cafea473e519a4de415dea2e9abb60805152604060002073ffffffffffffffffffffffffffffffffffffffff33166000526080515260ff60406000205416159081611c65575b5015610279577f1959681c0000000000000000000000000000000000000000000000000000000060005260e4356004523360245260446000fd5b905033141538611c2b565b7f171348a80000000000000000000000000000000000000000000000000000000060005260046000fd5b7fa0fd35060000000000000000000000000000000000000000000000000000000060005260e43560045260246000fd5b7f7b31d8c60000000000000000000000000000000000000000000000000000000060005260046000fd5b7fbf16aab60000000000000000000000000000000000000000000000000000000060005273ffffffffffffffffffffffffffffffffffffffff60e0511660045260246000fd5b7fd92e233d0000000000000000000000000000000000000000000000000000000060005260046000fd5b7f99d1d12f0000000000000000000000000000000000000000000000000000000060005260046000fd5b7f059519da0000000000000000000000000000000000000000000000000000000060005260046000fd5b346115835760807ffffffffffffffffffffffffffffffffffffffffffffffffffffffffffffffffc3601126115835760043560243567ffffffffffffffff811161158357611e0a903690600401612eb3565b60ff7f68721c0bbf2c02a4d65000340d1370666be06a630022208d4baa9bd7a4b6fea85416611d8e5760027f09acf4e54214992e70883cf7dcd6957ff2c71cd9e14df4bec4383bc0d11607dc5414611fa45760027f09acf4e54214992e70883cf7dcd6957ff2c71cd9e14df4bec4383bc0d11607dc557fbc351ae7fa32df0c8ad57278243ae7d011e90d073629dfc92fda8e9f319c6fd554831015611f7a57611ec791611eb89136916131c6565b60405190610258602083612f4a565b6118485760443515611d645760643515611d64576000527fbc351ae7fa32df0c8ad57278243ae7d011e90d073629dfc92fda8e9f319c6fcc602052611f0f60406000206135f2565b60078110156114b55780611f47577fd62347250000000000000000000000000000000000000000000000000000000060005260046000fd5b611f74907fabe418b7000000000000000000000000000000000000000000000000000000006000526130da565b60246000fd5b7f92fa6fd30000000000000000000000000000000000000000000000000000000060005260046000fd5b7fbb6b8f9a0000000000000000000000000000000000000000000000000000000060005260046000fd5b346115835760207ffffffffffffffffffffffffffffffffffffffffffffffffffffffffffffffffc3601126115835760043567ffffffffffffffff81116115835761201d903690600401612ee1565b60005b81811061202957005b6120348183856134aa565b357fbc351ae7fa32df0c8ad57278243ae7d011e90d073629dfc92fda8e9f319c6fd5541115611f7a576001906120753361206f8386886134aa565b35613cef565b01612020565b346115835760207ffffffffffffffffffffffffffffffffffffffffffffffffffffffffffffffffc3601126115835760043560ff7f68721c0bbf2c02a4d65000340d1370666be06a630022208d4baa9bd7a4b6fea85416611d8e577fbc351ae7fa32df0c8ad57278243ae7d011e90d073629dfc92fda8e9f319c6fd554811015611f7a57806000527fbc351ae7fa32df0c8ad57278243ae7d011e90d073629dfc92fda8e9f319c6fcc60205261213460406000206135f2565b60078110156114b55760038103611f475750806000527fbc351ae7fa32df0c8ad57278243ae7d011e90d073629dfc92fda8e9f319c6fcc602052604060002060047fffffffffffffffffffffffffffffffffffffffffffffffffffffffffffffff008254161781556020916040516121ac8482612f4a565b60009052815460081c60ff166123fe57600191600781016006820160005b81548110156123f4576121dd818361325c565b506002429101541161181e5761221f6121f461335b565b61221961220a612204858761325c565b506132a7565b61221387613303565b90613e26565b906135cf565b61222b576001016121ca565b50505090915060005b156123e6576122416133a3565b905b60018101825167ffffffffffffffff81116115885761226c816122668454612fc5565b846133ff565b85601f821160011461231e57916122e08261230e95937f80f66fbf7ec17db9bc1a56585c52d733a369f41a93d2459c97cf644e9ac341e099989795600091612313575b507fffffffffffffffffffffffffffffffffffffffffffffffffffffffffffffffff8260011b9260031b1c19161790565b90555b6009429101556040519384938452339084015260046040840152608060608401526080830190613467565b0390a1005b90508501518a6122af565b7fffffffffffffffffffffffffffffffffffffffffffffffffffffffffffffffe082169083600052876000209160005b8181106123cf5750927f80f66fbf7ec17db9bc1a56585c52d733a369f41a93d2459c97cf644e9ac341e098979694926001928261230e989610612398575b5050811b0190556122e3565b8601517fffffffffffffffffffffffffffffffffffffffffffffffffffffffffffffffff60f88460031b161c19169055898061238c565b91928960018192868b01518155019401920161234e565b6123ee61335b565b90612243565b5050509091612234565b906006810160009080541561242a57848261241e926123ee9452206132a7565b61221360078401613303565b6024827f4e487b710000000000000000000000000000000000000000000000000000000081526032600452fd5b346115835760207ffffffffffffffffffffffffffffffffffffffffffffffffffffffffffffffffc3601126115835760043560ff7f68721c0bbf2c02a4d65000340d1370666be06a630022208d4baa9bd7a4b6fea85416611d8e5760027f09acf4e54214992e70883cf7dcd6957ff2c71cd9e14df4bec4383bc0d11607dc5414611fa45760027f09acf4e54214992e70883cf7dcd6957ff2c71cd9e14df4bec4383bc0d11607dc557fbc351ae7fa32df0c8ad57278243ae7d011e90d073629dfc92fda8e9f319c6fd554811015611f7a57612533903390613cef565b60017f09acf4e54214992e70883cf7dcd6957ff2c71cd9e14df4bec4383bc0d11607dc55005b346115835760807ffffffffffffffffffffffffffffffffffffffffffffffffffffffffffffffffc3601126115835760043560243567ffffffffffffffff8111611583576125ab903690600401612eb3565b909160443560643573ffffffffffffffffffffffffffffffffffffffff811681036115835760ff7f68721c0bbf2c02a4d65000340d1370666be06a630022208d4baa9bd7a4b6fea85416611d8e577fbc351ae7fa32df0c8ad57278243ae7d011e90d073629dfc92fda8e9f319c6fd554831015611f7a5761262d3685876131c6565b93612642602095604051906102588883612f4a565b611848578215611d6457836000527fbc351ae7fa32df0c8ad57278243ae7d011e90d073629dfc92fda8e9f319c6fcc855261268060406000206135f2565b60078110156114b55780611f475750836000527fbc351ae7fa32df0c8ad57278243ae7d011e90d073629dfc92fda8e9f319c6fcc8552600460406000200154846000527fbc351ae7fa32df0c8ad57278243ae7d011e90d073629dfc92fda8e9f319c6fcf865260406000206126f636848a6131c6565b878151910120600052865260ff60406000205416156118485761271984826131fd565b907fbc351ae7fa32df0c8ad57278243ae7d011e90d073629dfc92fda8e9f319c6fd654600061271061274b83866131fd565b106115b757507f2e5e91b93b8bcab4a74b1f1eedeab795674919d3d007fcc45dd28a2deed58f1d98612780612c9492856142d6565b94886000527fbc351ae7fa32df0c8ad57278243ae7d011e90d073629dfc92fda8e9f319c6fcc8a52612c746127ee6002604060002001548b6000527fbc351ae7fa32df0c8ad57278243ae7d011e90d073629dfc92fda8e9f319c6fcc8d52600360406000200154908b61361f565b978a6000527fbc351ae7fa32df0c8ad57278243ae7d011e90d073629dfc92fda8e9f319c6fcd8c52604060002073ffffffffffffffffffffffffffffffffffffffff33166000528c5260406000206128473685876131c6565b8d81519101206000528c5260036040600020600181016128688d8254613210565b9055600281016128798a8254613210565b9055016128878a8254613210565b90558a6000527fbc351ae7fa32df0c8ad57278243ae7d011e90d073629dfc92fda8e9f319c6fce8c52604060002073ffffffffffffffffffffffffffffffffffffffff33166000528c5260016040600020016128e48b8254613210565b90558a6000527fbc351ae7fa32df0c8ad57278243ae7d011e90d073629dfc92fda8e9f319c6fce8c52604060002073ffffffffffffffffffffffffffffffffffffffff33166000528c526002604060002001612941888254613210565b90558a6000527fbc351ae7fa32df0c8ad57278243ae7d011e90d073629dfc92fda8e9f319c6fce8c52604060002073ffffffffffffffffffffffffffffffffffffffff33166000528c52600360406000200161299e8a8254613210565b90558a6000527fbc351ae7fa32df0c8ad57278243ae7d011e90d073629dfc92fda8e9f319c6fcf8c5260406000206129d73685876131c6565b8d81519101206000528c5260016040600020016129f58b8254613210565b90558a6000527fbc351ae7fa32df0c8ad57278243ae7d011e90d073629dfc92fda8e9f319c6fcf8c526040600020612a2e3685876131c6565b8d81519101206000528c526002604060002001612a4c888254613210565b90558a6000527fbc351ae7fa32df0c8ad57278243ae7d011e90d073629dfc92fda8e9f319c6fcf8c526040600020612a853685876131c6565b8d81519101206000528c526003604060002001612aa38a8254613210565b90558a6000527fbc351ae7fa32df0c8ad57278243ae7d011e90d073629dfc92fda8e9f319c6fd08c526040600020612adc8b8254613210565b90558a6000527fbc351ae7fa32df0c8ad57278243ae7d011e90d073629dfc92fda8e9f319c6fd08c526001604060002001612b18888254613210565b905560008b81527fbc351ae7fa32df0c8ad57278243ae7d011e90d073629dfc92fda8e9f319c6fcc8d5260408082206005015473ffffffffffffffffffffffffffffffffffffffff1682527fbc351ae7fa32df0c8ad57278243ae7d011e90d073629dfc92fda8e9f319c6fd46020529020600101612b97898254613210565b90558a6000527fbc351ae7fa32df0c8ad57278243ae7d011e90d073629dfc92fda8e9f319c6fcc8c52612bf573ffffffffffffffffffffffffffffffffffffffff600560406000200154163390612bee8a8c613210565b9084613656565b8a6000527fbc351ae7fa32df0c8ad57278243ae7d011e90d073629dfc92fda8e9f319c6fcc8c5273ffffffffffffffffffffffffffffffffffffffff60056040600020015416908b6000527fbc351ae7fa32df0c8ad57278243ae7d011e90d073629dfc92fda8e9f319c6fcc8d526003604060002001549133916139c0565b604051998a998a5233908a015261010060408a015261010089019161321d565b946060870152608086015260a085015260c084015260e08301520390a1005b346115835760207ffffffffffffffffffffffffffffffffffffffffffffffffffffffffffffffffc3601126115835760043560ff7f68721c0bbf2c02a4d65000340d1370666be06a630022208d4baa9bd7a4b6fea85416611d8e577fbc351ae7fa32df0c8ad57278243ae7d011e90d073629dfc92fda8e9f319c6fd554811015611f7a57806000527fbc351ae7fa32df0c8ad57278243ae7d011e90d073629dfc92fda8e9f319c6fcc60205260406000209060405190612d74602083612f4a565b60008252612d89600184019261221984613018565b612e895760ff83541660078110156114b557600581141580612e7e575b611f475750612db96009840154426130e8565b7fbc351ae7fa32df0c8ad57278243ae7d011e90d073629dfc92fda8e9f319c6fde5411612e54577f9b327a4ca612250b263fec35bd1093e1750b5245b99e30ced83d74c5d477ce009260017fffffffffffffffffffffffffffffffffffffffffffffffffffffffffffffff0082541617905561230e604051928392835233602084015260016040840152608060608401526080830190613124565b7f7ffb829d0000000000000000000000000000000000000000000000000000000060005260046000fd5b506004811415612da6565b7fc74a206d0000000000000000000000000000000000000000000000000000000060005260046000fd5b9181601f840112156115835782359167ffffffffffffffff8311611583576020838186019501011161158357565b9181601f840112156115835782359167ffffffffffffffff8311611583576020808501948460051b01011161158357565b6080810190811067ffffffffffffffff82111761158857604052565b6060810190811067ffffffffffffffff82111761158857604052565b90601f7fffffffffffffffffffffffffffffffffffffffffffffffffffffffffffffffe0910116810190811067ffffffffffffffff82111761158857604052565b67ffffffffffffffff811161158857601f017fffffffffffffffffffffffffffffffffffffffffffffffffffffffffffffffe01660200190565b90600182811c9216801561300e575b6020831014612fdf57565b7f4e487b7100000000000000000000000000000000000000000000000000000000600052602260045260246000fd5b91607f1691612fd4565b906040519182600082549261302c84612fc5565b808452936001811690811561309a5750600114613053575b5061305192500383612f4a565b565b90506000929192526020600020906000915b81831061307e5750509060206130519282010138613044565b6020919350806001915483858901015201910190918492613065565b602093506130519592507fffffffffffffffffffffffffffffffffffffffffffffffffffffffffffffff0091501682840152151560051b82010138613044565b60078110156114b557600452565b919082039182116130f557565b7f4e487b7100000000000000000000000000000000000000000000000000000000600052601160045260246000fd5b6000929181549161313483612fc5565b808352926001811690811561318a575060011461315057505050565b60009081526020812093945091925b838310613170575060209250010190565b60018160209294939454838587010152019101919061315f565b905060209495507fffffffffffffffffffffffffffffffffffffffffffffffffffffffffffffff0091509291921683830152151560051b010190565b9291926131d282612f8b565b916131e06040519384612f4a565b829481845281830111611583578281602093846000960137010152565b818102929181159184041417156130f557565b919082018092116130f557565b601f82602094937fffffffffffffffffffffffffffffffffffffffffffffffffffffffffffffffe0938186528686013760008582860101520116010190565b8054821015613278576000526003602060002091020190600090565b7f4e487b7100000000000000000000000000000000000000000000000000000000600052603260045260246000fd5b906040516132b481612f2e565b6040600282946132c381613018565b845282516132df816132d88160018601613124565b0382612f4a565b60208501520154910152565b67ffffffffffffffff81116115885760051b60200190565b90815461330f816132eb565b9261331d6040519485612f4a565b818452602084019060005260206000206000915b83831061333e5750505050565b60016020819261334d85613018565b815201920192019190613331565b604051602080820152600260408201527f6e6f0000000000000000000000000000000000000000000000000000000000006060820152606081526133a0608082612f4a565b90565b604051602080820152600360408201527f79657300000000000000000000000000000000000000000000000000000000006060820152606081526133a0608082612f4a565b8181106133f3575050565b600081556001016133e8565b9190601f811161340e57505050565b613051926000526020600020906020601f840160051c8301931061343a575b601f0160051c01906133e8565b909150819061342d565b60005b8381106134575750506000910152565b8181015183820152602001613447565b907fffffffffffffffffffffffffffffffffffffffffffffffffffffffffffffffe0601f6020936134a381518092818752878088019101613444565b0116010190565b91908110156132785760051b0190565b9080601f83011215611583578160206133a0933591016131c6565b91908110156132785760051b810135907fffffffffffffffffffffffffffffffffffffffffffffffffffffffffffffffa181360301821215611583570190565b8051156132785760200190565b8051600110156132785760400190565b80518210156132785760209160051b010190565b9035907fffffffffffffffffffffffffffffffffffffffffffffffffffffffffffffffe181360301821215611583570180359067ffffffffffffffff82116115835760200191813603831361158357565b60209082604051938492833781017fba07f9bdb83529457286bae2254b67a516d5fac42a7c08e76b28b1c094cd2f2681520301902090565b8051908251918281036135e9576020809201209201201490565b50505050600090565b60ff8154169060078210156114b557811561360b575090565b600301544210156136195790565b50600390565b9080421461364d576133a0926136426136489261363c42846130e8565b926130e8565b906141e2565b6131fd565b50505061271090565b6000939073ffffffffffffffffffffffffffffffffffffffff168061384657509073ffffffffffffffffffffffffffffffffffffffff1690604051907f70a08231000000000000000000000000000000000000000000000000000000008252306004830152602082602481865afa91821561383b579084918693613802575b509261374a6020926137446024966116fc6040519384927f23b872dd000000000000000000000000000000000000000000000000000000008985015230908b850173ffffffffffffffffffffffffffffffffffffffff6040929594938160608401971683521660208201520152565b82614bed565b604051938480927f70a082310000000000000000000000000000000000000000000000000000000082523060048301525afa80156137f75784906137c3575b61379392506130e8565b0361379b5750565b807fc7e8fc500000000000000000000000000000000000000000000000000000000060049252fd5b506020823d6020116137ef575b816137dd60209383612f4a565b81010312611583576137939151613789565b3d91506137d0565b6040513d86823e3d90fd5b915091506020813d602011613833575b8161381f60209383612f4a565b81010312611583575190839061374a6136d5565b3d9150613812565b6040513d87823e3d90fd5b73ffffffffffffffffffffffffffffffffffffffff831691604051937f70a08231000000000000000000000000000000000000000000000000000000008552306004860152602085602481875afa9485156139b5578795613981575b50823b1561397d576040517f9865a1d300000000000000000000000000000000000000000000000000000000815273ffffffffffffffffffffffffffffffffffffffff918216600482015291166024820152604481018590529085908290606490829084905af1801561383b57613963575b50906020602492604051938480927f70a082310000000000000000000000000000000000000000000000000000000082523060048301525afa80156137f75784906137c35761379392506130e8565b846139746024949396602093612f4a565b94919250613914565b8680fd5b9094506020813d6020116139ad575b8161399d60209383612f4a565b8101031261397d575193386138a2565b3d9150613990565b6040513d89823e3d90fd5b929173ffffffffffffffffffffffffffffffffffffffff60009416613ce95760409284806116fc613a5c87516139f68982612f4a565b600d81527f5f7374616b6541697244726f7000000000000000000000000000000000000000602082015288519283917f41304fac000000000000000000000000000000000000000000000000000000006020840152602060248401526044830190613467565b6020815191016a636f6e736f6c652e6c6f675afa50613ac17fb4e10a4811f331e910bbd821832ab85ed1158088534d96bdd9d92f6de8be798554613a9f81614439565b613ab1613aac4283613210565b614439565b613aba83614439565b4290613210565b11613ce957613b0f8173ffffffffffffffffffffffffffffffffffffffff166000527fb4e10a4811f331e910bbd821832ab85ed1158088534d96bdd9d92f6de8be7984602052604060002090565b73ffffffffffffffffffffffffffffffffffffffff83168552602052828420547fb4e10a4811f331e910bbd821832ab85ed1158088534d96bdd9d92f6de8be7983541115613ce957613ba08173ffffffffffffffffffffffffffffffffffffffff166000527fb4e10a4811f331e910bbd821832ab85ed1158088534d96bdd9d92f6de8be7984602052604060002090565b73ffffffffffffffffffffffffffffffffffffffff8316855260205282842080549060018201809211613cbc575573ffffffffffffffffffffffffffffffffffffffff7fb4e10a4811f331e910bbd821832ab85ed1158088534d96bdd9d92f6de8be79825416907fb4e10a4811f331e910bbd821832ab85ed1158088534d96bdd9d92f6de8be79815492823b15613cb85784517fb3db428b00000000000000000000000000000000000000000000000000000000815273ffffffffffffffffffffffffffffffffffffffff918216600482015291166024820152604481019290925290919083908390606490829084905af1908115613caf5750613ca2575050565b81613cac91612f4a565b50565b513d84823e3d90fd5b8580fd5b6024867f4e487b710000000000000000000000000000000000000000000000000000000081526011600452fd5b50505050565b9190826000527fbc351ae7fa32df0c8ad57278243ae7d011e90d073629dfc92fda8e9f319c6fcc60205260ff604060002054169260078410156114b55760018403613d3f576130519293506146cd565b60028403613d5257613051929350614492565b611f74847fabe418b7000000000000000000000000000000000000000000000000000000006000526130da565b9080602083519182815201916020808360051b8301019401926000915b838310613dab57505050505090565b9091929394602080613de7837fffffffffffffffffffffffffffffffffffffffffffffffffffffffffffffffe086600196030187528951613467565b97019301930191939290613d9c565b3d15613e21573d90613e0782612f8b565b91613e156040519384612f4a565b82523d6000602084013e565b606090565b600091908291613f77613fae602084016116fc73ffffffffffffffffffffffffffffffffffffffff6001613e6a602085518160405193828580945193849201613444565b81017fba07f9bdb83529457286bae2254b67a516d5fac42a7c08e76b28b1c094cd2f268152030190200154169573ffffffffffffffffffffffffffffffffffffffff6002613ec8602086518160405193828580945193849201613444565b81017fba07f9bdb83529457286bae2254b67a516d5fac42a7c08e76b28b1c094cd2f26815203019020015416956040805196879560208701997f164cf76b000000000000000000000000000000000000000000000000000000008b52602488015260606044880152613f468551606060848a015260e4890190613467565b90517fffffffffffffffffffffffffffffffffffffffffffffffffffffffffffffff7c8883030160a4890152613467565b92015160c48501527fffffffffffffffffffffffffffffffffffffffffffffffffffffffffffffffdc848303016064850152613d7f565b51915af4613fba613df6565b901561402e5780518101906020818184019303126115835760208101519067ffffffffffffffff8211611583570181603f8201121561158357602081015161400181612f8b565b9261400f6040519485612f4a565b81845260408383010111611583576133a0916040602085019101613444565b60646040517f9becf85d00000000000000000000000000000000000000000000000000000000815260206004820152601560248201527f4c6962506f6f6c2e5f7265736f6c76654576656e7400000000000000000000006044820152fd5b90357fffffffffffffffffffffffffffffffffffffffffffffffffffffffffffffffe18236030181121561158357016020813591019167ffffffffffffffff821161158357813603831361158357565b906040806141196140fe6140f0868061408c565b60608752606087019161321d565b61410b602087018761408c565b90868303602088015261321d565b93013591015290565b90816020910312611583575180151581036115835790565b90606060039161417881511515859060ff7fffffffffffffffffffffffffffffffffffffffffffffffffffffffffffffff0083541691151516179055565b60208101516001850155604081015160028501550151910155565b61419d8154612fc5565b90816141a7575050565b81601f600093116001146141b9575055565b818352602083206141d591601f0160051c8101906001016133e8565b8082528160208120915555565b908161271002907fffffffffffffffffffffffffffffffffffffffffffffffffffffffffffffffff83612710099282808510940393808503941461429a578382111561428157819061271009816000038216809204600281600302188082026002030280820260020302808202600203028082026002030280820260020302809102600203029360018380600003040190848311900302920304170290565b50634e487b71600052156003026011186020526024601cfd5b50809250156142a7570490565b7f4e487b7100000000000000000000000000000000000000000000000000000000600052601260045260246000fd5b9190916000838202917fffffffffffffffffffffffffffffffffffffffffffffffffffffffffffffffff8582099183808410930392808403931461436c5782612710111561435a57507fbc01a36e2eb1c432ca57a786c226809d495182a9930be0ded288ce703afb7e919394612710910990828211900360fc1b910360041c170290565b634e487b71905260116020526024601cfd5b5050506127109192500490565b91818302917fffffffffffffffffffffffffffffffffffffffffffffffffffffffffffffffff8185099383808610950394808603951461442b57848311156144125790829109816000038216809204600281600302188082026002030280820260020302808202600203028082026002030280820260020302809102600203029360018380600003040190848311900302920304170290565b82634e487b71600052156003026011186020526024601cfd5b5050809250156142a7570490565b60008091604051907ff82c50f100000000000000000000000000000000000000000000000000000000602083015260248201526024815261447b604482612f4a565b6020815191016a636f6e736f6c652e6c6f675afa50565b806000527fbc351ae7fa32df0c8ad57278243ae7d011e90d073629dfc92fda8e9f319c6fcc602052604060002090806000527fbc351ae7fa32df0c8ad57278243ae7d011e90d073629dfc92fda8e9f319c6fce602052604060002073ffffffffffffffffffffffffffffffffffffffff8416600052602052600160406000200154156146a357806000527fbc351ae7fa32df0c8ad57278243ae7d011e90d073629dfc92fda8e9f319c6fce602052604060002073ffffffffffffffffffffffffffffffffffffffff841660005260205260ff6040600020541661467957600573ffffffffffffffffffffffffffffffffffffffff8461465e7f7e2290278bab7591c02e1cee107f6eb5778796e4f991856e11ffc09bf8b818d096608096866000527fbc351ae7fa32df0c8ad57278243ae7d011e90d073629dfc92fda8e9f319c6fce6020526040600020858316600052602052604060002060017fffffffffffffffffffffffffffffffffffffffffffffffffffffffffffffff00825416179055866000527fbc351ae7fa32df0c8ad57278243ae7d011e90d073629dfc92fda8e9f319c6fce602052604060002085831660005260205284600260406000200154968792015416614922565b604051938452166020830152600060408301526060820152a1565b7f924260f10000000000000000000000000000000000000000000000000000000060005260046000fd5b7f3110f1d80000000000000000000000000000000000000000000000000000000060005260046000fd5b90816000527fbc351ae7fa32df0c8ad57278243ae7d011e90d073629dfc92fda8e9f319c6fcc60205260406000209160209260405161470c8582612f4a565b60008152614721600183019161221983613018565b612e8957826000527fbc351ae7fa32df0c8ad57278243ae7d011e90d073629dfc92fda8e9f319c6fcf8552604060002061475a82613018565b86815191012060005285526003604060002001541561491657826000527fbc351ae7fa32df0c8ad57278243ae7d011e90d073629dfc92fda8e9f319c6fce8552604060002073ffffffffffffffffffffffffffffffffffffffff85166000528552600160406000200154156146a357826000527fbc351ae7fa32df0c8ad57278243ae7d011e90d073629dfc92fda8e9f319c6fcd8552604060002073ffffffffffffffffffffffffffffffffffffffff8516600052855261481f604060002091613018565b8581519101206000528452604060002080549460ff8616614679576001820154156148ec5773ffffffffffffffffffffffffffffffffffffffff856148d460809760059660017fffffffffffffffffffffffffffffffffffffffffffffffffffffffffffffff007f7e2290278bab7591c02e1cee107f6eb5778796e4f991856e11ffc09bf8b818d09c16178755846148c960026148c060038b01548d614ad7565b99015489613210565b988992015416614922565b604051958652169084015260408301526060820152a1565b7f907643880000000000000000000000000000000000000000000000000000000060005260046000fd5b50506130519250614492565b73ffffffffffffffffffffffffffffffffffffffff909291921690604051907f70a08231000000000000000000000000000000000000000000000000000000008252306004830152602082602481865afa918215614a9657600092614aa2575b506024926149e460209273ffffffffffffffffffffffffffffffffffffffff604051917fa9059cbb0000000000000000000000000000000000000000000000000000000086840152168682015286604482015260448152613744606482612f4a565b604051938480927f70a082310000000000000000000000000000000000000000000000000000000082523060048301525afa908115614a9657600091614a60575b614a2f92506130e8565b03614a3657565b7fc7e8fc500000000000000000000000000000000000000000000000000000000060005260046000fd5b90506020823d602011614a8e575b81614a7b60209383612f4a565b8101031261158357614a2f915190614a25565b3d9150614a6e565b6040513d6000823e3d90fd5b9091506020813d602011614acf575b81614abe60209383612f4a565b810103126115835751906024614982565b3d9150614ab1565b90816000527fbc351ae7fa32df0c8ad57278243ae7d011e90d073629dfc92fda8e9f319c6fcc602052604060002090826000527fbc351ae7fa32df0c8ad57278243ae7d011e90d073629dfc92fda8e9f319c6fcf60205260016040600020920191614b4183613018565b602081519101206000526020526003604060002001549182156135e95783614be8916133a0956000527fbc351ae7fa32df0c8ad57278243ae7d011e90d073629dfc92fda8e9f319c6fcf602052614b9c604060002091613018565b60208151910120600052602052600260406000200154906000527fbc351ae7fa32df0c8ad57278243ae7d011e90d073629dfc92fda8e9f319c6fd06020526001604060002001546130e8565b614379565b906000602091828151910182855af115614a96576000513d614c6f575073ffffffffffffffffffffffffffffffffffffffff81163b155b614c2b5750565b73ffffffffffffffffffffffffffffffffffffffff907f5274afe7000000000000000000000000000000000000000000000000000000006000521660045260246000fd5b60011415614c2456fea26469706673582212200df6371660d4b55ff70edbb215ade08c784ae0dfddb50ad35c52b27f35d23b6664736f6c634300081c0033",
  "linkReferences": {},
  "deployedLinkReferences": {}
}