{
  "_format": "hh-sol-artifact-1",
  "contractName": "ChallengePoolDispute",
  "sourceName": "contracts/modules/ChallengePoolDispute.sol",
  "abi": [
    {
      "inputs": [
        {
          "internalType": "enum IChallengePoolCommon.ChallengeState",
          "name": "_state",
          "type": "uint8"
        }
      ],
      "name": "ActionNotAllowedForState",
      "type": "error"
    },
    {
      "inputs": [],
      "name": "BelowMinPrie",
      "type": "error"
    },
    {
      "inputs": [],
      "name": "DeadlineExceeded",
      "type": "error"
    },
    {
      "inputs": [],
      "name": "DisputePeriod",
      "type": "error"
    },
    {
      "inputs": [],
      "name": "DisputePeriodElapsed",
      "type": "error"
    },
    {
      "inputs": [
        {
          "internalType": "uint256",
          "name": "_requested",
          "type": "uint256"
        },
        {
          "internalType": "uint256",
          "name": "_available",
          "type": "uint256"
        }
      ],
      "name": "InsufficientStakes",
      "type": "error"
    },
    {
      "inputs": [],
      "name": "InvalidChallenge",
      "type": "error"
    },
    {
      "inputs": [],
      "name": "InvalidEventLength",
      "type": "error"
    },
    {
      "inputs": [],
      "name": "InvalidEventMaturity",
      "type": "error"
    },
    {
      "inputs": [],
      "name": "InvalidEventParam",
      "type": "error"
    },
    {
      "inputs": [],
      "name": "InvalidEventTopic",
      "type": "error"
    },
    {
      "inputs": [],
      "name": "InvalidOutcome",
      "type": "error"
    },
    {
      "inputs": [],
      "name": "InvalidPoolOption",
      "type": "error"
    },
    {
      "inputs": [],
      "name": "InvalidPrediction",
      "type": "error"
    },
    {
      "inputs": [],
      "name": "MaxPriceExceeded",
      "type": "error"
    },
    {
      "inputs": [],
      "name": "Pausable__NotPaused",
      "type": "error"
    },
    {
      "inputs": [],
      "name": "Pausable__Paused",
      "type": "error"
    },
    {
      "inputs": [],
      "name": "PlayerAlreadyDisputed",
      "type": "error"
    },
    {
      "inputs": [],
      "name": "PlayerAlreadyReleased",
      "type": "error"
    },
    {
      "inputs": [],
      "name": "PlayerAlreadyWithdrawn",
      "type": "error"
    },
    {
      "inputs": [],
      "name": "PlayerDidNotDispute",
      "type": "error"
    },
    {
      "inputs": [],
      "name": "PlayerDidNotWinPool",
      "type": "error"
    },
    {
      "inputs": [],
      "name": "PlayerLostDispute",
      "type": "error"
    },
    {
      "inputs": [],
      "name": "PlayerNotInPool",
      "type": "error"
    },
    {
      "inputs": [],
      "name": "ProtocolInvariantCheckFailed",
      "type": "error"
    },
    {
      "inputs": [],
      "name": "ReentrancyGuard__ReentrantCall",
      "type": "error"
    },
    {
      "inputs": [
        {
          "internalType": "address",
          "name": "token",
          "type": "address"
        }
      ],
      "name": "SafeERC20FailedOperation",
      "type": "error"
    },
    {
      "inputs": [],
      "name": "StakeLowerThanMinimum",
      "type": "error"
    },
    {
      "inputs": [],
      "name": "UintUtils__InsufficientPadding",
      "type": "error"
    },
    {
      "inputs": [
        {
          "internalType": "address",
          "name": "_token",
          "type": "address"
        }
      ],
      "name": "UnsupportedToken",
      "type": "error"
    },
    {
      "anonymous": false,
      "inputs": [
        {
          "indexed": false,
          "internalType": "uint256",
          "name": "challengeId",
          "type": "uint256"
        },
        {
          "indexed": false,
          "internalType": "address",
          "name": "canceller",
          "type": "address"
        },
        {
          "indexed": false,
          "internalType": "enum IChallengePoolCommon.ChallengeState",
          "name": "state",
          "type": "uint8"
        }
      ],
      "name": "CancelChallenge",
      "type": "event"
    },
    {
      "anonymous": false,
      "inputs": [
        {
          "indexed": false,
          "internalType": "uint256",
          "name": "challengeId",
          "type": "uint256"
        },
        {
          "indexed": false,
          "internalType": "address",
          "name": "disputor",
          "type": "address"
        },
        {
          "indexed": false,
          "internalType": "enum IChallengePoolCommon.ChallengeState",
          "name": "state",
          "type": "uint8"
        },
        {
          "indexed": false,
          "internalType": "bytes",
          "name": "result",
          "type": "bytes"
        },
        {
          "indexed": false,
          "internalType": "uint256",
          "name": "amount",
          "type": "uint256"
        }
      ],
      "name": "DisputeOutcome",
      "type": "event"
    },
    {
      "anonymous": false,
      "inputs": [
        {
          "indexed": false,
          "internalType": "uint256",
          "name": "challengeId",
          "type": "uint256"
        },
        {
          "indexed": false,
          "internalType": "address",
          "name": "disputor",
          "type": "address"
        },
        {
          "indexed": false,
          "internalType": "enum IChallengePoolCommon.ChallengeState",
          "name": "state",
          "type": "uint8"
        },
        {
          "indexed": false,
          "internalType": "bytes",
          "name": "result",
          "type": "bytes"
        },
        {
          "indexed": false,
          "internalType": "uint256",
          "name": "amount",
          "type": "uint256"
        }
      ],
      "name": "DisputeReleased",
      "type": "event"
    },
    {
      "anonymous": false,
      "inputs": [
        {
          "indexed": false,
          "internalType": "address",
          "name": "account",
          "type": "address"
        }
      ],
      "name": "Paused",
      "type": "event"
    },
    {
      "anonymous": false,
      "inputs": [
        {
          "indexed": true,
          "internalType": "bytes32",
          "name": "role",
          "type": "bytes32"
        },
        {
          "indexed": true,
          "internalType": "bytes32",
          "name": "previousAdminRole",
          "type": "bytes32"
        },
        {
          "indexed": true,
          "internalType": "bytes32",
          "name": "newAdminRole",
          "type": "bytes32"
        }
      ],
      "name": "RoleAdminChanged",
      "type": "event"
    },
    {
      "anonymous": false,
      "inputs": [
        {
          "indexed": true,
          "internalType": "bytes32",
          "name": "role",
          "type": "bytes32"
        },
        {
          "indexed": true,
          "internalType": "address",
          "name": "account",
          "type": "address"
        },
        {
          "indexed": true,
          "internalType": "address",
          "name": "sender",
          "type": "address"
        }
      ],
      "name": "RoleGranted",
      "type": "event"
    },
    {
      "anonymous": false,
      "inputs": [
        {
          "indexed": true,
          "internalType": "bytes32",
          "name": "role",
          "type": "bytes32"
        },
        {
          "indexed": true,
          "internalType": "address",
          "name": "account",
          "type": "address"
        },
        {
          "indexed": true,
          "internalType": "address",
          "name": "sender",
          "type": "address"
        }
      ],
      "name": "RoleRevoked",
      "type": "event"
    },
    {
      "anonymous": false,
      "inputs": [
        {
          "indexed": false,
          "internalType": "uint256",
          "name": "challengeId",
          "type": "uint256"
        },
        {
          "indexed": false,
          "internalType": "address",
          "name": "disputor",
          "type": "address"
        },
        {
          "indexed": false,
          "internalType": "enum IChallengePoolCommon.ChallengeState",
          "name": "state",
          "type": "uint8"
        },
        {
          "indexed": false,
          "internalType": "bytes",
          "name": "result",
          "type": "bytes"
        },
        {
          "indexed": false,
          "internalType": "uint256",
          "name": "amount",
          "type": "uint256"
        }
      ],
      "name": "SettleDispute",
      "type": "event"
    },
    {
      "anonymous": false,
      "inputs": [
        {
          "indexed": false,
          "internalType": "address",
          "name": "account",
          "type": "address"
        }
      ],
      "name": "Unpaused",
      "type": "event"
    },
    {
      "inputs": [
        {
          "internalType": "uint256",
          "name": "_challengeId",
          "type": "uint256"
        }
      ],
      "name": "cancel",
      "outputs": [],
      "stateMutability": "nonpayable",
      "type": "function"
    },
    {
      "inputs": [
        {
          "internalType": "uint256",
          "name": "_challengeId",
          "type": "uint256"
        },
        {
          "internalType": "bytes",
          "name": "_outcome",
          "type": "bytes"
        }
      ],
      "name": "dispute",
      "outputs": [],
      "stateMutability": "nonpayable",
      "type": "function"
    },
    {
      "inputs": [
        {
          "internalType": "uint256",
          "name": "_challengeId",
          "type": "uint256"
        }
      ],
      "name": "releaseDispute",
      "outputs": [],
      "stateMutability": "nonpayable",
      "type": "function"
    },
    {
      "inputs": [
        {
          "internalType": "uint256",
          "name": "_challengeId",
          "type": "uint256"
        },
        {
          "internalType": "bytes",
          "name": "_outcome",
          "type": "bytes"
        }
      ],
      "name": "settle",
      "outputs": [],
      "stateMutability": "nonpayable",
      "type": "function"
    }
  ],
  "bytecode": "0x60808060405234601557611b95908161001b8239f35b600080fdfe6080604052600436101561001257600080fd5b60003560e01c806339c2ebb914610e2e57806340e58ee514610d125780635a139c80146109375763f82d578a1461004857600080fd5b3461062d5761005636611282565b60ff7f68721c0bbf2c02a4d65000340d1370666be06a630022208d4baa9bd7a4b6fea8939293541661090d577fbc351ae7fa32df0c8ad57278243ae7d011e90d073629dfc92fda8e9f319c6fd5548210156108e357816000527fbc351ae7fa32df0c8ad57278243ae7d011e90d073629dfc92fda8e9f319c6fcc6020526100e060406000206118a2565b60078110156105ac57600481036108b0575060209261011a604051610105868261130f565b6000815261011436858561138a565b906118cf565b61088657826000527fbc351ae7fa32df0c8ad57278243ae7d011e90d073629dfc92fda8e9f319c6fcc84526040600020836000527fbc351ae7fa32df0c8ad57278243ae7d011e90d073629dfc92fda8e9f319c6fcf8552604060002061018136858561138a565b868151910120600052855260ff60406000205416156108865760008481527fbc351ae7fa32df0c8ad57278243ae7d011e90d073629dfc92fda8e9f319c6fce8652604080822033835287529020600101541561085c576101e5600982015442611414565b7fbc351ae7fa32df0c8ad57278243ae7d011e90d073629dfc92fda8e9f319c6fde541061083257836000527fbc351ae7fa32df0c8ad57278243ae7d011e90d073629dfc92fda8e9f319c6fd1855260408060002060009073ffffffffffffffffffffffffffffffffffffffff33168252875220600181019081546108085767ffffffffffffffff85116107d95761027c81546113c1565b601f8111610793575b50846000601f82116001146106d857916005939173ffffffffffffffffffffffffffffffffffffffff95936000916106cd575b508760011b907fffffffffffffffffffffffffffffffffffffffffffffffffffffffffffffffff8960031b1c19161790555b7fbc351ae7fa32df0c8ad57278243ae7d011e90d073629dfc92fda8e9f319c6fdf54905560088101805460ff811615610675575b50507fbc351ae7fa32df0c8ad57278243ae7d011e90d073629dfc92fda8e9f319c6fdf54866000527fbc351ae7fa32df0c8ad57278243ae7d011e90d073629dfc92fda8e9f319c6fd28852604060002061037936888861138a565b898151910120600052885261039460406000209182546114f2565b90557fbc351ae7fa32df0c8ad57278243ae7d011e90d073629dfc92fda8e9f319c6fdf54866000527fbc351ae7fa32df0c8ad57278243ae7d011e90d073629dfc92fda8e9f319c6fd388526103ef60406000209182546114f2565b90550154167fbc351ae7fa32df0c8ad57278243ae7d011e90d073629dfc92fda8e9f319c6fdf5490604051907f70a082310000000000000000000000000000000000000000000000000000000082523060048301528682602481845afa908115610639578790600092610645575b602493506104b26040517f23b872dd00000000000000000000000000000000000000000000000000000000848201523386820152306044820152866064820152606481526104ac60848261130f565b82611ad4565b604051938480927f70a082310000000000000000000000000000000000000000000000000000000082523060048301525afa801561063957600090610605575b6104fc9250611414565b036105db577fbc351ae7fa32df0c8ad57278243ae7d011e90d073629dfc92fda8e9f319c6fdf5460405193845233948401949094527fa2f36d372ca4283714640219602ffb66ae32e45c862842801326d61eede764d7937fffffffffffffffffffffffffffffffffffffffffffffffffffffffffffffffe0601f8460c09587956006604088015260a060608801528160a088015287870137600086828701015201168201906080830152030190a1005b7f4e487b7100000000000000000000000000000000000000000000000000000000600052602160045260246000fd5b7fc7e8fc500000000000000000000000000000000000000000000000000000000060005260046000fd5b508682813d8311610632575b61061b818361130f565b8101031261062d576104fc91516104f2565b600080fd5b503d610611565b6040513d6000823e3d90fd5b915082813d831161066e575b61065b818361130f565b8101031261062d5786602492519161045d565b503d610651565b7fffffffffffffffffffffffffffffffffffffffffffffffffffffffffffffff006001911617905560067fffffffffffffffffffffffffffffffffffffffffffffffffffffffffffffff00825416178155388061031e565b9050860135386102b8565b8281528881209187907fffffffffffffffffffffffffffffffffffffffffffffffffffffffffffffffe016825b8b82821061077a57505091600595939173ffffffffffffffffffffffffffffffffffffffff97959310610742575b5050600187811b0190556102ea565b7fffffffffffffffffffffffffffffffffffffffffffffffffffffffffffffffff60f88a60031b161c19908801351690553880610733565b898501358655600190950194938401938a935001610705565b8160005287600020601f870160051c8101918988106107cf575b601f0160051c01905b8181106107c35750610285565b600081556001016107b6565b90915081906107ad565b7f4e487b7100000000000000000000000000000000000000000000000000000000600052604160045260246000fd5b7fe90ecb600000000000000000000000000000000000000000000000000000000060005260046000fd5b7f1769da420000000000000000000000000000000000000000000000000000000060005260046000fd5b7f3110f1d80000000000000000000000000000000000000000000000000000000060005260046000fd5b7fc74a206d0000000000000000000000000000000000000000000000000000000060005260046000fd5b6108dd907fabe418b7000000000000000000000000000000000000000000000000000000006000526112f4565b60246000fd5b7f92fa6fd30000000000000000000000000000000000000000000000000000000060005260046000fd5b7f059519da0000000000000000000000000000000000000000000000000000000060005260046000fd5b3461062d5760207ffffffffffffffffffffffffffffffffffffffffffffffffffffffffffffffffc36011261062d5760043560ff7f68721c0bbf2c02a4d65000340d1370666be06a630022208d4baa9bd7a4b6fea8541661090d5760027f09acf4e54214992e70883cf7dcd6957ff2c71cd9e14df4bec4383bc0d11607dc5414610ce85760027f09acf4e54214992e70883cf7dcd6957ff2c71cd9e14df4bec4383bc0d11607dc557fbc351ae7fa32df0c8ad57278243ae7d011e90d073629dfc92fda8e9f319c6fd5548110156108e357806000527fbc351ae7fa32df0c8ad57278243ae7d011e90d073629dfc92fda8e9f319c6fcc602052610a3d60406000206118a2565b60078110156105ac57600181036108b05750806000527fbc351ae7fa32df0c8ad57278243ae7d011e90d073629dfc92fda8e9f319c6fcc602052604060002090602090604051610a8d838261130f565b60008152610ab7600185019160405190610ab282610aab8187611450565b038361130f565b6118cf565b6108865760008281527fbc351ae7fa32df0c8ad57278243ae7d011e90d073629dfc92fda8e9f319c6fce8452604080822033835285529020600101541561085c57816000527fbc351ae7fa32df0c8ad57278243ae7d011e90d073629dfc92fda8e9f319c6fd1835260408060002060009073ffffffffffffffffffffffffffffffffffffffff3316825285522090600182019182548015610cbe576002820180549360ff8516610c9457610b77610b7e610b909260405192838092611450565b038261130f565b60405190610ab282610aab8189611450565b15610c6a577fb24a27359e856fd6f2185516f6a72446c33a18e343dfc739b4c2340347b809a697610c0e610c2a9360ff9360017fffffffffffffffffffffffffffffffffffffffffffffffffffffffffffffff00610c3b9916179055339073ffffffffffffffffffffffffffffffffffffffff6005850154166118f2565b5416935493604051968796875233908701526040860190611302565b60a0606085015260a0840190611450565b9060808301520390a160017f09acf4e54214992e70883cf7dcd6957ff2c71cd9e14df4bec4383bc0d11607dc55005b7f3fa31e130000000000000000000000000000000000000000000000000000000060005260046000fd5b7f181b23060000000000000000000000000000000000000000000000000000000060005260046000fd5b7fce902ec00000000000000000000000000000000000000000000000000000000060005260046000fd5b7fbb6b8f9a0000000000000000000000000000000000000000000000000000000060005260046000fd5b3461062d5760207ffffffffffffffffffffffffffffffffffffffffffffffffffffffffffffffffc36011261062d5760043560ff7f68721c0bbf2c02a4d65000340d1370666be06a630022208d4baa9bd7a4b6fea8541661090d57610d756114ff565b7fbc351ae7fa32df0c8ad57278243ae7d011e90d073629dfc92fda8e9f319c6fd5548110156108e3576060817ff1c355ceaac9a7d7014f5e6084c095e19bc67d436144b3e0f338d215f0706d03926000527fbc351ae7fa32df0c8ad57278243ae7d011e90d073629dfc92fda8e9f319c6fcc602052604060002060027fffffffffffffffffffffffffffffffffffffffffffffffffffffffffffffff0082541617905560405190815233602082015260026040820152a1005b3461062d57610e3c36611282565b60ff7f68721c0bbf2c02a4d65000340d1370666be06a630022208d4baa9bd7a4b6fea8939293541661090d5760027f09acf4e54214992e70883cf7dcd6957ff2c71cd9e14df4bec4383bc0d11607dc5414610ce85760027f09acf4e54214992e70883cf7dcd6957ff2c71cd9e14df4bec4383bc0d11607dc55610ebd6114ff565b7fbc351ae7fa32df0c8ad57278243ae7d011e90d073629dfc92fda8e9f319c6fd5548210156108e357816000527fbc351ae7fa32df0c8ad57278243ae7d011e90d073629dfc92fda8e9f319c6fcc602052610f1b60406000206118a2565b60078110156105ac57600681036108b05750602092610f40604051610105868261130f565b61088657826000527fbc351ae7fa32df0c8ad57278243ae7d011e90d073629dfc92fda8e9f319c6fcc845260406000209360057fffffffffffffffffffffffffffffffffffffffffffffffffffffffffffffff008654161785556001850167ffffffffffffffff84116107d957610fb781546113c1565b601f811161123c575b50836000601f821160011461119f57600091611194575b508460011b907fffffffffffffffffffffffffffffffffffffffffffffffffffffffffffffffff8660031b1c19161790555b426009860155836000527fbc351ae7fa32df0c8ad57278243ae7d011e90d073629dfc92fda8e9f319c6fd381526110ea73ffffffffffffffffffffffffffffffffffffffff60056110a7604060002054886000527fbc351ae7fa32df0c8ad57278243ae7d011e90d073629dfc92fda8e9f319c6fd286526040600020611090368a8a61138a565b878151910120600052865260406000205490611414565b970154168673ffffffffffffffffffffffffffffffffffffffff7fbc351ae7fa32df0c8ad57278243ae7d011e90d073629dfc92fda8e9f319c6fdd5416916118f2565b60405193845233908401527ff0d6297b129114fe6d7a0cb8796989a0273fb75cae8bf9385031d3a07a3e6f4b937fffffffffffffffffffffffffffffffffffffffffffffffffffffffffffffffe0601f8460c09587956005604088015260a060608801528160a088015287870137600086828701015201168201906080830152030190a160017f09acf4e54214992e70883cf7dcd6957ff2c71cd9e14df4bec4383bc0d11607dc55005b905083013587610fd7565b8281528381209186907fffffffffffffffffffffffffffffffffffffffffffffffffffffffffffffffe016825b86828210611223575050106111eb575b5050600184811b019055611009565b7fffffffffffffffffffffffffffffffffffffffffffffffffffffffffffffffff60f88760031b161c199085013516905586806111dc565b88850135865560019095019493840193899350016111cc565b8160005282600020601f860160051c810191848710611278575b601f0160051c01905b81811061126c5750610fc0565b6000815560010161125f565b9091508190611256565b60407ffffffffffffffffffffffffffffffffffffffffffffffffffffffffffffffffc82011261062d576004359160243567ffffffffffffffff811161062d578260238201121561062d5780600401359267ffffffffffffffff841161062d576024848301011161062d576024019190565b60078110156105ac57600452565b9060078210156105ac5752565b90601f7fffffffffffffffffffffffffffffffffffffffffffffffffffffffffffffffe0910116810190811067ffffffffffffffff8211176107d957604052565b67ffffffffffffffff81116107d957601f017fffffffffffffffffffffffffffffffffffffffffffffffffffffffffffffffe01660200190565b92919261139682611350565b916113a4604051938461130f565b82948184528183011161062d578281602093846000960137010152565b90600182811c9216801561140a575b60208310146113db57565b7f4e487b7100000000000000000000000000000000000000000000000000000000600052602260045260246000fd5b91607f16916113d0565b9190820391821161142157565b7f4e487b7100000000000000000000000000000000000000000000000000000000600052601160045260246000fd5b60009291815491611460836113c1565b80835292600181169081156114b6575060011461147c57505050565b60009081526020812093945091925b83831061149c575060209250010190565b60018160209294939454838587010152019101919061148b565b905060209495507fffffffffffffffffffffffffffffffffffffffffffffffffffffffffffffff0091509291921683830152151560051b010190565b9190820180921161142157565b3360009081527f5df958419b70ebe5143806cf0f6478e784c70715571b1537a8654d08aa000c9860205260409020541561153557565b33602a600061154382611350565b92611551604051948561130f565b82845261155d83611350565b927fffffffffffffffffffffffffffffffffffffffffffffffffffffffffffffffe060208601940136853784511561180e576030845384516001101561180e57607860218601535b6002811161183b5750611752575060427f257f7af571bef1aeea6fc91519e3aff624d394bb4c68c84751ea30774903cea060006115e183611350565b916115ef604051938461130f565b8383526115fb84611350565b937fffffffffffffffffffffffffffffffffffffffffffffffffffffffffffffffe060208501950136863783511561180e576030855383516001101561180e57607860218501535b6002811161177a57506117525761174960446116f87fffffffffffffffffffffffffffffffffffffffffffffffffffffffffffffffe0601f8961170760118b60378c8c604051998a946116c360208701997f416363657373436f6e74726f6c3a206163636f756e74200000000000000000008b5251809287890190611a71565b8501917f206973206d697373696e6720726f6c6520000000000000000000000000000000858401525180936048840190611a71565b0101030184810186528561130f565b6040519586947f08c379a00000000000000000000000000000000000000000000000000000000086526020600487015251809281602488015287870190611a71565b01168101030190fd5b807fab409fe20000000000000000000000000000000000000000000000000000000060049252fd5b7fffffffffffffffffffffffffffffffffffffffffffffffffffffffffffffffff0190600f811660108110156117e1577f3031323334353637383961626364656600000000000000000000000000000000901a6117d78386611a94565b5360041c90611643565b6024847f4e487b710000000000000000000000000000000000000000000000000000000081526032600452fd5b6024837f4e487b710000000000000000000000000000000000000000000000000000000081526032600452fd5b7fffffffffffffffffffffffffffffffffffffffffffffffffffffffffffffffff0190600f811660108110156117e1577f3031323334353637383961626364656600000000000000000000000000000000901a6118988387611a94565b5360041c906115a5565b60ff8154169060078210156105ac5781156118bb575090565b600301544210156118c95790565b50600390565b8051908251918281036118e9576020809201209201201490565b50505050600090565b73ffffffffffffffffffffffffffffffffffffffff909291921690604051907f70a08231000000000000000000000000000000000000000000000000000000008252306004830152602082602481865afa91821561063957600092611a3c575b506024926119b460209273ffffffffffffffffffffffffffffffffffffffff604051917fa9059cbb00000000000000000000000000000000000000000000000000000000868401521686820152866044820152604481526104ac60648261130f565b604051938480927f70a082310000000000000000000000000000000000000000000000000000000082523060048301525afa90811561063957600091611a06575b6119ff9250611414565b036105db57565b90506020823d602011611a34575b81611a216020938361130f565b8101031261062d576119ff9151906119f5565b3d9150611a14565b9091506020813d602011611a69575b81611a586020938361130f565b8101031261062d5751906024611952565b3d9150611a4b565b60005b838110611a845750506000910152565b8181015183820152602001611a74565b908151811015611aa5570160200190565b7f4e487b7100000000000000000000000000000000000000000000000000000000600052603260045260246000fd5b906000602091828151910182855af115610639576000513d611b56575073ffffffffffffffffffffffffffffffffffffffff81163b155b611b125750565b73ffffffffffffffffffffffffffffffffffffffff907f5274afe7000000000000000000000000000000000000000000000000000000006000521660045260246000fd5b60011415611b0b56fea2646970667358221220eee005454f7842e139f7837a3fa4bf367de1929efd41bd6f24ad5c8db49a536764736f6c634300081c0033",
  "linkReferences": {},
  "deployedLinkReferences": {}
}