{
  "_format": "hh-sol-artifact-1",
  "contractName": "StakeAirDropInit",
  "sourceName": "contracts/inits/StakeAirDropInit.sol",
  "abi": [
    {
      "inputs": [
        {
          "internalType": "address",
          "name": "_paymaster",
          "type": "address"
        }
      ],
      "name": "init",
      "outputs": [],
      "stateMutability": "nonpayable",
      "type": "function"
    }
  ],
  "bytecode": "0x60808060405234601557610168908161001b8239f35b600080fdfe600436101561000d57600080fd5b60003560e01c6319ab453c1461002257600080fd5b3461012d5760207ffffffffffffffffffffffffffffffffffffffffffffffffffffffffffffffffc36011261012d5760043573ffffffffffffffffffffffffffffffffffffffff811680910361012d57674563918244f400007fb4e10a4811f331e910bbd821832ab85ed1158088534d96bdd9d92f6de8be7981557fffffffffffffffffffffffff00000000000000000000000000000000000000007fb4e10a4811f331e910bbd821832ab85ed1158088534d96bdd9d92f6de8be79825416177fb4e10a4811f331e910bbd821832ab85ed1158088534d96bdd9d92f6de8be79825560027fb4e10a4811f331e910bbd821832ab85ed1158088534d96bdd9d92f6de8be798355600080f35b600080fdfea2646970667358221220417e3dcfdca61098b36f853a4b04354967d1d8985b5c67e78e392eb5ad3209c664736f6c634300081c0033",
  "linkReferences": {},
  "deployedLinkReferences": {}
}