{
  "_format": "hh-sol-artifact-1",
  "contractName": "ChallengePoolHandler",
  "sourceName": "contracts/modules/ChallengePoolHandler.sol",
  "abi": [
    {
      "inputs": [
        {
          "internalType": "enum IChallengePoolCommon.ChallengeState",
          "name": "_state",
          "type": "uint8"
        }
      ],
      "name": "ActionNotAllowedForState",
      "type": "error"
    },
    {
      "inputs": [],
      "name": "BelowMinPrie",
      "type": "error"
    },
    {
      "inputs": [],
      "name": "DeadlineExceeded",
      "type": "error"
    },
    {
      "inputs": [
        {
          "internalType": "string",
          "name": "_functionName",
          "type": "string"
        }
      ],
      "name": "DelegateCallFailed",
      "type": "error"
    },
    {
      "inputs": [],
      "name": "DisputePeriod",
      "type": "error"
    },
    {
      "inputs": [],
      "name": "DisputePeriodElapsed",
      "type": "error"
    },
    {
      "inputs": [
        {
          "internalType": "uint256",
          "name": "_requested",
          "type": "uint256"
        },
        {
          "internalType": "uint256",
          "name": "_available",
          "type": "uint256"
        }
      ],
      "name": "InsufficientStakes",
      "type": "error"
    },
    {
      "inputs": [],
      "name": "InvalidChallenge",
      "type": "error"
    },
    {
      "inputs": [],
      "name": "InvalidEventLength",
      "type": "error"
    },
    {
      "inputs": [],
      "name": "InvalidEventMaturity",
      "type": "error"
    },
    {
      "inputs": [],
      "name": "InvalidEventParam",
      "type": "error"
    },
    {
      "inputs": [],
      "name": "InvalidEventTopic",
      "type": "error"
    },
    {
      "inputs": [],
      "name": "InvalidOptionsLength",
      "type": "error"
    },
    {
      "inputs": [],
      "name": "InvalidOutcome",
      "type": "error"
    },
    {
      "inputs": [],
      "name": "InvalidPoolOption",
      "type": "error"
    },
    {
      "inputs": [],
      "name": "InvalidPrediction",
      "type": "error"
    },
    {
      "inputs": [],
      "name": "MaxPriceExceeded",
      "type": "error"
    },
    {
      "inputs": [],
      "name": "NotImplemented",
      "type": "error"
    },
    {
      "inputs": [],
      "name": "Pausable__NotPaused",
      "type": "error"
    },
    {
      "inputs": [],
      "name": "Pausable__Paused",
      "type": "error"
    },
    {
      "inputs": [],
      "name": "PlayerAlreadyDisputed",
      "type": "error"
    },
    {
      "inputs": [],
      "name": "PlayerAlreadyReleased",
      "type": "error"
    },
    {
      "inputs": [],
      "name": "PlayerAlreadyWithdrawn",
      "type": "error"
    },
    {
      "inputs": [],
      "name": "PlayerDidNotDispute",
      "type": "error"
    },
    {
      "inputs": [],
      "name": "PlayerDidNotWinPool",
      "type": "error"
    },
    {
      "inputs": [],
      "name": "PlayerLostDispute",
      "type": "error"
    },
    {
      "inputs": [],
      "name": "PlayerNotInPool",
      "type": "error"
    },
    {
      "inputs": [],
      "name": "ProtocolInvariantCheckFailed",
      "type": "error"
    },
    {
      "inputs": [],
      "name": "ReentrancyGuard__ReentrantCall",
      "type": "error"
    },
    {
      "inputs": [
        {
          "internalType": "address",
          "name": "token",
          "type": "address"
        }
      ],
      "name": "SafeERC20FailedOperation",
      "type": "error"
    },
    {
      "inputs": [],
      "name": "StakeLowerThanMinimum",
      "type": "error"
    },
    {
      "inputs": [
        {
          "internalType": "address",
          "name": "_token",
          "type": "address"
        }
      ],
      "name": "UnsupportedToken",
      "type": "error"
    },
    {
      "inputs": [],
      "name": "ZeroAddress",
      "type": "error"
    },
    {
      "inputs": [],
      "name": "ZeroNumber",
      "type": "error"
    },
    {
      "anonymous": false,
      "inputs": [
        {
          "indexed": false,
          "internalType": "uint256",
          "name": "challengeId",
          "type": "uint256"
        },
        {
          "indexed": false,
          "internalType": "address",
          "name": "closer",
          "type": "address"
        },
        {
          "indexed": false,
          "internalType": "enum IChallengePoolCommon.ChallengeState",
          "name": "state",
          "type": "uint8"
        },
        {
          "indexed": false,
          "internalType": "bytes",
          "name": "result",
          "type": "bytes"
        }
      ],
      "name": "CloseChallenge",
      "type": "event"
    },
    {
      "anonymous": false,
      "inputs": [
        {
          "indexed": false,
          "internalType": "uint256",
          "name": "challengeId",
          "type": "uint256"
        },
        {
          "indexed": false,
          "internalType": "address",
          "name": "evaluator",
          "type": "address"
        },
        {
          "indexed": false,
          "internalType": "enum IChallengePoolCommon.ChallengeState",
          "name": "state",
          "type": "uint8"
        },
        {
          "indexed": false,
          "internalType": "bytes",
          "name": "result",
          "type": "bytes"
        }
      ],
      "name": "EvaluateChallenge",
      "type": "event"
    },
    {
      "anonymous": false,
      "inputs": [
        {
          "indexed": false,
          "internalType": "uint256",
          "name": "challengeId",
          "type": "uint256"
        },
        {
          "indexed": false,
          "internalType": "address",
          "name": "creator",
          "type": "address"
        },
        {
          "indexed": false,
          "internalType": "uint256",
          "name": "createdAt",
          "type": "uint256"
        },
        {
          "indexed": false,
          "internalType": "uint256",
          "name": "maturity",
          "type": "uint256"
        },
        {
          "indexed": false,
          "internalType": "enum IChallengePoolCommon.ChallengeState",
          "name": "state",
          "type": "uint8"
        },
        {
          "indexed": false,
          "internalType": "bytes",
          "name": "result",
          "type": "bytes"
        },
        {
          "indexed": false,
          "internalType": "uint256",
          "name": "basePrice",
          "type": "uint256"
        },
        {
          "indexed": false,
          "internalType": "uint256",
          "name": "fee",
          "type": "uint256"
        },
        {
          "indexed": false,
          "internalType": "uint256",
          "name": "quantity",
          "type": "uint256"
        },
        {
          "indexed": false,
          "internalType": "uint256",
          "name": "totalAmount",
          "type": "uint256"
        },
        {
          "indexed": false,
          "internalType": "uint256",
          "name": "rewards",
          "type": "uint256"
        },
        {
          "indexed": false,
          "internalType": "bytes",
          "name": "prediction",
          "type": "bytes"
        },
        {
          "components": [
            {
              "internalType": "bytes",
              "name": "params",
              "type": "bytes"
            },
            {
              "internalType": "string",
              "name": "topicId",
              "type": "string"
            },
            {
              "internalType": "uint256",
              "name": "maturity",
              "type": "uint256"
            }
          ],
          "indexed": false,
          "internalType": "struct IChallengePoolCommon.ChallengeEvent[]",
          "name": "events",
          "type": "tuple[]"
        },
        {
          "indexed": false,
          "internalType": "bytes[]",
          "name": "options",
          "type": "bytes[]"
        },
        {
          "indexed": false,
          "internalType": "address",
          "name": "stakeToken",
          "type": "address"
        },
        {
          "indexed": false,
          "internalType": "bool",
          "name": "multi",
          "type": "bool"
        }
      ],
      "name": "NewChallenge",
      "type": "event"
    },
    {
      "anonymous": false,
      "inputs": [
        {
          "indexed": false,
          "internalType": "address",
          "name": "account",
          "type": "address"
        }
      ],
      "name": "Paused",
      "type": "event"
    },
    {
      "anonymous": false,
      "inputs": [
        {
          "indexed": true,
          "internalType": "bytes32",
          "name": "role",
          "type": "bytes32"
        },
        {
          "indexed": true,
          "internalType": "bytes32",
          "name": "previousAdminRole",
          "type": "bytes32"
        },
        {
          "indexed": true,
          "internalType": "bytes32",
          "name": "newAdminRole",
          "type": "bytes32"
        }
      ],
      "name": "RoleAdminChanged",
      "type": "event"
    },
    {
      "anonymous": false,
      "inputs": [
        {
          "indexed": true,
          "internalType": "bytes32",
          "name": "role",
          "type": "bytes32"
        },
        {
          "indexed": true,
          "internalType": "address",
          "name": "account",
          "type": "address"
        },
        {
          "indexed": true,
          "internalType": "address",
          "name": "sender",
          "type": "address"
        }
      ],
      "name": "RoleGranted",
      "type": "event"
    },
    {
      "anonymous": false,
      "inputs": [
        {
          "indexed": true,
          "internalType": "bytes32",
          "name": "role",
          "type": "bytes32"
        },
        {
          "indexed": true,
          "internalType": "address",
          "name": "account",
          "type": "address"
        },
        {
          "indexed": true,
          "internalType": "address",
          "name": "sender",
          "type": "address"
        }
      ],
      "name": "RoleRevoked",
      "type": "event"
    },
    {
      "anonymous": false,
      "inputs": [
        {
          "indexed": false,
          "internalType": "uint256",
          "name": "challengeId",
          "type": "uint256"
        },
        {
          "indexed": false,
          "internalType": "address",
          "name": "participant",
          "type": "address"
        },
        {
          "indexed": false,
          "internalType": "bytes",
          "name": "option",
          "type": "bytes"
        },
        {
          "indexed": false,
          "internalType": "uint256",
          "name": "stakes",
          "type": "uint256"
        },
        {
          "indexed": false,
          "internalType": "uint256",
          "name": "price",
          "type": "uint256"
        },
        {
          "indexed": false,
          "internalType": "uint256",
          "name": "totalAmount",
          "type": "uint256"
        },
        {
          "indexed": false,
          "internalType": "uint256",
          "name": "fee",
          "type": "uint256"
        },
        {
          "indexed": false,
          "internalType": "uint256",
          "name": "rewards",
          "type": "uint256"
        }
      ],
      "name": "Stake",
      "type": "event"
    },
    {
      "anonymous": false,
      "inputs": [
        {
          "indexed": false,
          "internalType": "address",
          "name": "account",
          "type": "address"
        }
      ],
      "name": "Unpaused",
      "type": "event"
    },
    {
      "anonymous": false,
      "inputs": [
        {
          "indexed": false,
          "internalType": "uint256",
          "name": "challengeId",
          "type": "uint256"
        },
        {
          "indexed": false,
          "internalType": "address",
          "name": "participant",
          "type": "address"
        },
        {
          "indexed": false,
          "internalType": "uint256",
          "name": "amountWon",
          "type": "uint256"
        },
        {
          "indexed": false,
          "internalType": "uint256",
          "name": "amountWithdrawn",
          "type": "uint256"
        }
      ],
      "name": "WinningsWithdrawn",
      "type": "event"
    },
    {
      "anonymous": false,
      "inputs": [
        {
          "indexed": false,
          "internalType": "uint256",
          "name": "challengeId",
          "type": "uint256"
        },
        {
          "indexed": false,
          "internalType": "address",
          "name": "participant",
          "type": "address"
        },
        {
          "indexed": false,
          "internalType": "bytes",
          "name": "option",
          "type": "bytes"
        },
        {
          "indexed": false,
          "internalType": "uint256",
          "name": "stakes",
          "type": "uint256"
        },
        {
          "indexed": false,
          "internalType": "uint256",
          "name": "price",
          "type": "uint256"
        },
        {
          "indexed": false,
          "internalType": "uint256",
          "name": "penalty",
          "type": "uint256"
        },
        {
          "indexed": false,
          "internalType": "uint256",
          "name": "totalAmount",
          "type": "uint256"
        },
        {
          "indexed": false,
          "internalType": "uint256",
          "name": "fee",
          "type": "uint256"
        },
        {
          "indexed": false,
          "internalType": "uint256",
          "name": "rewards",
          "type": "uint256"
        }
      ],
      "name": "Withdraw",
      "type": "event"
    },
    {
      "inputs": [
        {
          "internalType": "uint256[]",
          "name": "_challengeIds",
          "type": "uint256[]"
        }
      ],
      "name": "bulkWithdraw",
      "outputs": [],
      "stateMutability": "nonpayable",
      "type": "function"
    },
    {
      "inputs": [
        {
          "internalType": "uint256",
          "name": "_challengeId",
          "type": "uint256"
        }
      ],
      "name": "close",
      "outputs": [],
      "stateMutability": "nonpayable",
      "type": "function"
    },
    {
      "inputs": [
        {
          "components": [
            {
              "internalType": "bytes",
              "name": "params",
              "type": "bytes"
            },
            {
              "internalType": "string",
              "name": "topicId",
              "type": "string"
            },
            {
              "internalType": "uint256",
              "name": "maturity",
              "type": "uint256"
            }
          ],
          "internalType": "struct IChallengePoolCommon.ChallengeEvent[]",
          "name": "_events",
          "type": "tuple[]"
        },
        {
          "internalType": "bytes[]",
          "name": "_options",
          "type": "bytes[]"
        },
        {
          "internalType": "address",
          "name": "_stakeToken",
          "type": "address"
        },
        {
          "internalType": "bytes",
          "name": "_prediction",
          "type": "bytes"
        },
        {
          "internalType": "uint256",
          "name": "_quantity",
          "type": "uint256"
        },
        {
          "internalType": "uint256",
          "name": "_basePrice",
          "type": "uint256"
        },
        {
          "internalType": "address",
          "name": "_paymaster",
          "type": "address"
        }
      ],
      "name": "createChallenge",
      "outputs": [],
      "stateMutability": "nonpayable",
      "type": "function"
    },
    {
      "inputs": [
        {
          "internalType": "uint256",
          "name": "_challengeId",
          "type": "uint256"
        },
        {
          "internalType": "bytes",
          "name": "_prediction",
          "type": "bytes"
        },
        {
          "internalType": "uint256",
          "name": "_quantity",
          "type": "uint256"
        },
        {
          "internalType": "uint256",
          "name": "_deadline",
          "type": "uint256"
        }
      ],
      "name": "earlyWithdraw",
      "outputs": [],
      "stateMutability": "nonpayable",
      "type": "function"
    },
    {
      "inputs": [
        {
          "internalType": "uint256",
          "name": "_challengeId",
          "type": "uint256"
        }
      ],
      "name": "evaluate",
      "outputs": [],
      "stateMutability": "nonpayable",
      "type": "function"
    },
    {
      "inputs": [
        {
          "internalType": "uint256",
          "name": "_challengeId",
          "type": "uint256"
        },
        {
          "internalType": "bytes",
          "name": "_prediction",
          "type": "bytes"
        },
        {
          "internalType": "uint256",
          "name": "_quantity",
          "type": "uint256"
        },
        {
          "internalType": "address",
          "name": "_paymaster",
          "type": "address"
        }
      ],
      "name": "stake",
      "outputs": [],
      "stateMutability": "nonpayable",
      "type": "function"
    },
    {
      "inputs": [
        {
          "internalType": "uint256",
          "name": "_challengeId",
          "type": "uint256"
        }
      ],
      "name": "withdraw",
      "outputs": [],
      "stateMutability": "nonpayable",
      "type": "function"
    }
  ],
  "bytecode": "0x6080806040523460155761457f908161001b8239f35b600080fdfe610180604052600436101561001357600080fd5b60003560e01c80630aebeb4e1461293d57806318d2d415146122685780632e1a7d4d146121685780633714323314611d8c5780636eb9aec2146103e8578063a6a21a5d1461033b5763ac68a6301461006a57600080fd5b346103365760807ffffffffffffffffffffffffffffffffffffffffffffffffffffffffffffffffc3601126103365760043560243567ffffffffffffffff8111610336576100bc903690600401612b3d565b60ff7f68721c0bbf2c02a4d65000340d1370666be06a630022208d4baa9bd7a4b6fea8541661030c5760027f09acf4e54214992e70883cf7dcd6957ff2c71cd9e14df4bec4383bc0d11607dc54146102e25760027f09acf4e54214992e70883cf7dcd6957ff2c71cd9e14df4bec4383bc0d11607dc557fbc351ae7fa32df0c8ad57278243ae7d011e90d073629dfc92fda8e9f319c6fd5548310156102b8576101829161016a913691612e50565b60405190610179602083612bd4565b60008252613259565b61028e57604435156102645760643515610264576000527fbc351ae7fa32df0c8ad57278243ae7d011e90d073629dfc92fda8e9f319c6fcc6020526101ca604060002061327c565b60078110156102355780610202577fd62347250000000000000000000000000000000000000000000000000000000060005260046000fd5b61022f907fabe418b700000000000000000000000000000000000000000000000000000000600052612d64565b60246000fd5b7f4e487b7100000000000000000000000000000000000000000000000000000000600052602160045260246000fd5b7f99d1d12f0000000000000000000000000000000000000000000000000000000060005260046000fd5b7fea0599f80000000000000000000000000000000000000000000000000000000060005260046000fd5b7f92fa6fd30000000000000000000000000000000000000000000000000000000060005260046000fd5b7fbb6b8f9a0000000000000000000000000000000000000000000000000000000060005260046000fd5b7f059519da0000000000000000000000000000000000000000000000000000000060005260046000fd5b600080fd5b346103365760207ffffffffffffffffffffffffffffffffffffffffffffffffffffffffffffffffc3601126103365760043567ffffffffffffffff81116103365761038a903690600401612b6b565b9060005b82811061039757005b6103a2818484613249565b357fbc351ae7fa32df0c8ad57278243ae7d011e90d073629dfc92fda8e9f319c6fd55411156102b857806103e26103dc6001938686613249565b35613640565b0161038e565b346103365760e07ffffffffffffffffffffffffffffffffffffffffffffffffffffffffffffffffc3601126103365760043567ffffffffffffffff811161033657610437903690600401612b6b565b9060243567ffffffffffffffff811161033657610458903690600401612b6b565b60443561010081905291939173ffffffffffffffffffffffffffffffffffffffff811690036103365760643567ffffffffffffffff8111610336576104a1903690600401612b3d565b60c43561012081905290959073ffffffffffffffffffffffffffffffffffffffff811690036103365760ff7f68721c0bbf2c02a4d65000340d1370666be06a630022208d4baa9bd7a4b6fea8541661030c57608435156102645760a435156102645773ffffffffffffffffffffffffffffffffffffffff610100511615611d625760ff60026105726101005173ffffffffffffffffffffffffffffffffffffffff166000527fbc351ae7fa32df0c8ad57278243ae7d011e90d073629dfc92fda8e9f319c6fd4602052604060002090565b01541615611d1b577fbc351ae7fa32df0c8ad57278243ae7d011e90d073629dfc92fda8e9f319c6fd95460a43510611cf1576105af368784612e50565b926105c4602094604051906101798783612bd4565b61028e5760018510611c9d577fbc351ae7fa32df0c8ad57278243ae7d011e90d073629dfc92fda8e9f319c6fdb548511611cc7577fbc351ae7fa32df0c8ad57278243ae7d011e90d073629dfc92fda8e9f319c6fda548111611cc75780611a4857505060009260606040519061063b606083612bd4565b6002825260409085875b838110611a39575050505061065861302d565b6106618261318f565b5261066b8161318f565b50610674612fe5565b61067d8261319c565b526106878161319c565b50935b60009560005b86518110156107b1576106be6040516106a98882612bd4565b600081526106b7838a6131ac565b5190613259565b610787576106e06106cf82896131ac565b516106db368c89612e50565b613259565b61077e575b6001907fbc351ae7fa32df0c8ad57278243ae7d011e90d073629dfc92fda8e9f319c6fd5546000527fbc351ae7fa32df0c8ad57278243ae7d011e90d073629dfc92fda8e9f319c6fcf8752604060002061073f828a6131ac565b5188815191012060005287526040600020827fffffffffffffffffffffffffffffffffffffffffffffffffffffffffffffff0082541617905501610690565b600197506106e5565b7f3d4d195c0000000000000000000000000000000000000000000000000000000060005260046000fd5b508590889395881561028e577fffffffffffffffffffffffffffffffffffffffffffffffffffffffffffffffff60a05260005b8781106117c457507fbc351ae7fa32df0c8ad57278243ae7d011e90d073629dfc92fda8e9f319c6fd85460006080526127106108228260a435612e87565b106117be576108339060a435613bf5565b60805260016108846101005173ffffffffffffffffffffffffffffffffffffffff166000527fbc351ae7fa32df0c8ad57278243ae7d011e90d073629dfc92fda8e9f319c6fd4602052604060002090565b016108926080518254612e9a565b90556108a260843560a435612e87565b60e0526108b460a051426084356132a9565b60c05261096f6040516108c681612b9c565b600081526084358382015260e051604082015260c05160608201527fbc351ae7fa32df0c8ad57278243ae7d011e90d073629dfc92fda8e9f319c6fd5546000527fbc351ae7fa32df0c8ad57278243ae7d011e90d073629dfc92fda8e9f319c6fcd8352604060002073ffffffffffffffffffffffffffffffffffffffff33166000528352604060002061095a36898b612e50565b84815191012060005283526040600020613a59565b610a0c60405161097e81612b9c565b600081526084358382015260e051604082015260c05160608201527fbc351ae7fa32df0c8ad57278243ae7d011e90d073629dfc92fda8e9f319c6fd5546000527fbc351ae7fa32df0c8ad57278243ae7d011e90d073629dfc92fda8e9f319c6fce8352604060002073ffffffffffffffffffffffffffffffffffffffff331660005283526040600020613a59565b610a8e604051610a1b81612b9c565b600181526084358382015260e051604082015260c05160608201527fbc351ae7fa32df0c8ad57278243ae7d011e90d073629dfc92fda8e9f319c6fd5546000527fbc351ae7fa32df0c8ad57278243ae7d011e90d073629dfc92fda8e9f319c6fcf8352604060002061095a36898b612e50565b60405180604081011067ffffffffffffffff60408301111761178f57604081016040526084358152600182820160e05181527fbc351ae7fa32df0c8ad57278243ae7d011e90d073629dfc92fda8e9f319c6fd5546000527fbc351ae7fa32df0c8ad57278243ae7d011e90d073629dfc92fda8e9f319c6fd0845260406000209251835551910155604051610b228282612bd4565b6000815260405190610160820182811067ffffffffffffffff82111761178f576040526000825285151583830152604082015242606082015260a051608082015260a43560a082015273ffffffffffffffffffffffffffffffffffffffff610100511660c0820152610ba6610b9689612f75565b6040516101605261016051612bd4565b61016080518990525182013660058a901b8501116103365783905b8960051b850182106116ee5750506101605160e082015283610100820152600061012082015260006101408201527fbc351ae7fa32df0c8ad57278243ae7d011e90d073629dfc92fda8e9f319c6fd5546000527fbc351ae7fa32df0c8ad57278243ae7d011e90d073629dfc92fda8e9f319c6fcc82526040600020908051600781101561014052610140516102355760006101405260ff7fffffffffffffffffffffffffffffffffffffffffffffffffffffffffffffff0084541691161782558281015115157fffffffffffffffffffffffffffffffffffffffffffffffffffffffffffff00ff61ff0084549260081b169116178255604081015180519067ffffffffffffffff821161125357610ce882610cdf6001870154612c4f565b60018701613089565b84906001601f84111461161d57918091610d38936101405192611612575b50507fffffffffffffffffffffffffffffffffffffffffffffffffffffffffffffffff8260011b9260031b1c19161790565b60018301555b606081015160028301556080810151600383015560a081015160048301556005820173ffffffffffffffffffffffffffffffffffffffff60c0830151167fffffffffffffffffffffffff000000000000000000000000000000000000000082541617905560e0810151805190680100000000000000008211611253578490600685015483600687015580841061153e575b500160068401610140515284610140512061014051915b8383106112c557505050506101008101518051906801000000000000000082116112535784906007850154836007870155808410611286575b509a94959a019060078401610140515285610140512061014051925b8284106110e2575050505061014081610e8b61012060099401511515600886019060ff7fffffffffffffffffffffffffffffffffffffffffffffffffffffffffffffff0083541691151516179055565b0151910155610f477fbc351ae7fa32df0c8ad57278243ae7d011e90d073629dfc92fda8e9f319c6fd5549660405196610ec48589612bd4565b610140518852610f0d604051988a8a5233878b01524260408b015260a05160608b0152610140515061014051506101405160808b015261020060a08b01526102008a01906130f1565b9160a43560c08a015260805160e08a01526084356101008a015260e0516101208a015260c0516101408a01528883036101608a0152612ea7565b9185830361018087015281835280830192818360051b82010198809461014051927fffffffffffffffffffffffffffffffffffffffffffffffffffffffffffffffa183360301905b868510611080578b7fdd5a97c5099afb95d249eea641e04bf5c1eb4d3de2f68f1ee16affcda9e853a58c8f8d610fcf828f858095036101a086015261369e565b9073ffffffffffffffffffffffffffffffffffffffff61010051166101c084015215156101e08301520390a16001810180911161104d577fbc351ae7fa32df0c8ad57278243ae7d011e90d073629dfc92fda8e9f319c6fd55561104661103960805160e051612e9a565b61010051610120516132e0565b6101405180f35b7f4e487b710000000000000000000000000000000000000000000000000000000061014051526011600452602461014051fd5b909192939495969b7fffffffffffffffffffffffffffffffffffffffffffffffffffffffffffffffe08282030184528c35838112156110db57876110c9600193888394016139fb565b9e019401950193929695949190610f8f565b6101405180fd5b809c97969c5190815167ffffffffffffffff81116112535788926111108261110a8754612c4f565b87613089565b83906001601f8411146111825782600195938695936111649361014051926111775750507fffffffffffffffffffffffffffffffffffffffffffffffffffffffffffffffff8260011b9260031b1c19161790565b85555b019201930192909b95969b610e3b565b015190503880610d06565b9085610140959495515283610140512091610140515b7fffffffffffffffffffffffffffffffffffffffffffffffffffffffffffffffe08516811061123b57509260019592869594928693837fffffffffffffffffffffffffffffffffffffffffffffffffffffffffffffffe0811610611204575b505050811b018555611167565b01517fffffffffffffffffffffffffffffffffffffffffffffffffffffffffffffffff60f88460031b161c191690553880806111f7565b8183015184558c956001909401939283019201611198565b7f4e487b710000000000000000000000000000000000000000000000000000000061014051526041600452602461014051fd5b600786016101405152826101405120908482015b81830181106112aa575050610e1f565b600191929394506112ba81613ab2565b01908793929161129a565b8051805180519067ffffffffffffffff8211611253576112e98261110a8754612c4f565b89906001601f841114611495579180916113389361014051926111775750507fffffffffffffffffffffffffffffffffffffffffffffffffffffffffffffffff8260011b9260031b1c19161790565b83555b8781015190815167ffffffffffffffff811161125357899261136d826113646001890154612c4f565b60018901613089565b83906001601f8411146113dd57926113c583600197946040946003989761014051926111775750507fffffffffffffffffffffffffffffffffffffffffffffffffffffffffffffffff8260011b9260031b1c19161790565b868801555b0151600286015501920192019190610de6565b7fffffffffffffffffffffffffffffffffffffffffffffffffffffffffffffffe08392969493169060018801610140515285610140512091610140515b81811061147d57509260039695949260019889938360409710611447575b505050811b01868801556113ca565b01517fffffffffffffffffffffffffffffffffffffffffffffffffffffffffffffffff60f8848b1b161c19169055388080611438565b888301518455978701978e976001909401930161141a565b907fffffffffffffffffffffffffffffffffffffffffffffffffffffffffffffffe08316918661014051528b610140512092610140515b8d8282106115285750509084600195949392106114f1575b505050811b01835561133b565b01517fffffffffffffffffffffffffffffffffffffffffffffffffffffffffffffffff60f88460031b161c191690553880806114e4565b60018596829396860151815501950193016114cc565b909150600381810204810361104d57600383810204830361104d579085916006860161014051528261014051208460030281015b8260030282018110611585575050610dcf565b6003919293945061159581613ab2565b600181016115a38154612c4f565b806115bf575b5050610140516002820155019087939291611572565b601f81116001146115d957506101405190555b8f806115a9565b6115fb908261014051526001601f8d6101405120920160051c82019101613072565b6101408051829052518a81209181905590556115d2565b015190508c80610d06565b91906001850161014051528561014051209061014051935b877fffffffffffffffffffffffffffffffffffffffffffffffffffffffffffffffe0851686106116d5575060019450837fffffffffffffffffffffffffffffffffffffffffffffffffffffffffffffffe081161061169e575b505050811b016001830155610d3e565b01517fffffffffffffffffffffffffffffffffffffffffffffffffffffffffffffffff60f88460031b161c191690558b808061168e565b8282015184559485019460019093019290910190611635565b813567ffffffffffffffff8111610336576060818701360312610336576040519161171883612bb8565b8187013567ffffffffffffffff81116103365761173a903690848a0101613134565b835285828801013567ffffffffffffffff811161033657828801019236601f85011215610336576040879493611777869536908781359101612e50565b85840152890101356040820152815201910190610bc1565b7f4e487b7100000000000000000000000000000000000000000000000000000000600052604160045260246000fd5b60805180fd5b60ff60026117e86117e26117d9858d8961314f565b868101906131c0565b90613211565b015460a01c1660028110156102355715611a0f576040611809828a8661314f565b01356118367fbc351ae7fa32df0c8ad57278243ae7d011e90d073629dfc92fda8e9f319c6fdc5442612e9a565b116119e5576040611848828a8661314f565b013560a051116119ce575b600080611861838b8761314f565b848101906118e961191573ffffffffffffffffffffffffffffffffffffffff60026118a26117e28360016118986117e28b8b6131c0565b01541697876131c0565b015416926040519283918a8301957f1e272e4c00000000000000000000000000000000000000000000000000000000875260248401526040604484015260648301906139fb565b037fffffffffffffffffffffffffffffffffffffffffffffffffffffffffffffffe08101835282612bd4565b51915af4611921613715565b90156119705780838061193993518301019101613a41565b15611946576001016107e4565b7f66e37c080000000000000000000000000000000000000000000000000000000060005260046000fd5b606483604051907f9becf85d0000000000000000000000000000000000000000000000000000000082526004820152601660248201527f4c6962506f6f6c2e5f76616c69646174654576656e74000000000000000000006044820152fd5b60406119db828a8661314f565b013560a052611853565b7fcce559bd0000000000000000000000000000000000000000000000000000000060005260046000fd5b7f4aa91a460000000000000000000000000000000000000000000000000000000060005260046000fd5b82828287010152018690610645565b60019491949060028110611cc757818311611c9d57611a6681612f75565b95611a746040519788612bd4565b8187528587019160051b8101913683116103365781905b838210611c7157505050508460008315611c44578735907fffffffffffffffffffffffffffffffffffffffffffffffffffffffffffffffa189360301821215611c415750600091829189019087820191611b91896118e973ffffffffffffffffffffffffffffffffffffffff6002611b186117e2838d611b0e6117e28d8c6131c0565b01541699886131c0565b01541694611b616040519586948501977fd925ce5000000000000000000000000000000000000000000000000000000000895260248601526060604486015260848501906139fb565b907fffffffffffffffffffffffffffffffffffffffffffffffffffffffffffffffdc84830301606485015261369e565b51915af4611b9d613715565b9015611be357808580611bb593518301019101613a41565b61068a577f66e37c080000000000000000000000000000000000000000000000000000000060005260046000fd5b606485604051907f9becf85d0000000000000000000000000000000000000000000000000000000082526004820152601860248201527f4c6962506f6f6c2e5f76616c69646174654f7074696f6e7300000000000000006044820152fd5b80fd5b807f4e487b7100000000000000000000000000000000000000000000000000000000602492526032600452fd5b813567ffffffffffffffff8111610336578891611c92839236908701613134565b815201910190611a8b565b7f678c50c90000000000000000000000000000000000000000000000000000000060005260046000fd5b7f8ad443780000000000000000000000000000000000000000000000000000000060005260046000fd5b7f7b31d8c60000000000000000000000000000000000000000000000000000000060005260046000fd5b7fbf16aab60000000000000000000000000000000000000000000000000000000060005273ffffffffffffffffffffffffffffffffffffffff610100511660045260246000fd5b7fd92e233d0000000000000000000000000000000000000000000000000000000060005260046000fd5b346103365760207ffffffffffffffffffffffffffffffffffffffffffffffffffffffffffffffffc3601126103365760043560ff7f68721c0bbf2c02a4d65000340d1370666be06a630022208d4baa9bd7a4b6fea8541661030c577fbc351ae7fa32df0c8ad57278243ae7d011e90d073629dfc92fda8e9f319c6fd5548110156102b857806000527fbc351ae7fa32df0c8ad57278243ae7d011e90d073629dfc92fda8e9f319c6fcc602052611e45604060002061327c565b600781101561023557600381036102025750806000527fbc351ae7fa32df0c8ad57278243ae7d011e90d073629dfc92fda8e9f319c6fcc602052604060002060047fffffffffffffffffffffffffffffffffffffffffffffffffffffffffffffff00825416178155602091604051611ebd8482612bd4565b60009052815460081c60ff1661210f57600191600781016006820160005b815481101561210557611eee8183612ee6565b50600242910154116119e557611f30611f05612fe5565b611f2a611f1b611f158587612ee6565b50612f31565b611f2487612f8d565b90613745565b90613259565b611f3c57600101611edb565b50505090915060005b156120f757611f5261302d565b905b60018101825167ffffffffffffffff811161178f57611f7d81611f778454612c4f565b84613089565b85601f821160011461202f5791611ff18261201f95937f80f66fbf7ec17db9bc1a56585c52d733a369f41a93d2459c97cf644e9ac341e099989795600091612024575b507fffffffffffffffffffffffffffffffffffffffffffffffffffffffffffffffff8260011b9260031b1c19161790565b90555b60094291015560405193849384523390840152600460408401526080606084015260808301906130f1565b0390a1005b90508501518a611fc0565b7fffffffffffffffffffffffffffffffffffffffffffffffffffffffffffffffe082169083600052876000209160005b8181106120e05750927f80f66fbf7ec17db9bc1a56585c52d733a369f41a93d2459c97cf644e9ac341e098979694926001928261201f9896106120a9575b5050811b019055611ff4565b8601517fffffffffffffffffffffffffffffffffffffffffffffffffffffffffffffffff60f88460031b161c19169055898061209d565b91928960018192868b01518155019401920161205f565b6120ff612fe5565b90611f54565b5050509091611f45565b906006810160009080541561213b57848261212f926120ff945220612f31565b611f2460078401612f8d565b6024827f4e487b710000000000000000000000000000000000000000000000000000000081526032600452fd5b346103365760207ffffffffffffffffffffffffffffffffffffffffffffffffffffffffffffffffc3601126103365760043560ff7f68721c0bbf2c02a4d65000340d1370666be06a630022208d4baa9bd7a4b6fea8541661030c5760027f09acf4e54214992e70883cf7dcd6957ff2c71cd9e14df4bec4383bc0d11607dc54146102e25760027f09acf4e54214992e70883cf7dcd6957ff2c71cd9e14df4bec4383bc0d11607dc557fbc351ae7fa32df0c8ad57278243ae7d011e90d073629dfc92fda8e9f319c6fd5548110156102b85761224290613640565b60017f09acf4e54214992e70883cf7dcd6957ff2c71cd9e14df4bec4383bc0d11607dc55005b346103365760807ffffffffffffffffffffffffffffffffffffffffffffffffffffffffffffffffc3601126103365760043560243567ffffffffffffffff8111610336576122ba903690600401612b3d565b909160443560643573ffffffffffffffffffffffffffffffffffffffff811681036103365760ff7f68721c0bbf2c02a4d65000340d1370666be06a630022208d4baa9bd7a4b6fea8541661030c577fbc351ae7fa32df0c8ad57278243ae7d011e90d073629dfc92fda8e9f319c6fd5548310156102b85761233c368587612e50565b93612351602095604051906101798883612bd4565b61028e57821561026457836000527fbc351ae7fa32df0c8ad57278243ae7d011e90d073629dfc92fda8e9f319c6fcc855261238f604060002061327c565b600781101561023557806102025750836000527fbc351ae7fa32df0c8ad57278243ae7d011e90d073629dfc92fda8e9f319c6fcc8552600460406000200154846000527fbc351ae7fa32df0c8ad57278243ae7d011e90d073629dfc92fda8e9f319c6fcf8652604060002061240536848a612e50565b878151910120600052865260ff604060002054161561028e576124288482612e87565b907fbc351ae7fa32df0c8ad57278243ae7d011e90d073629dfc92fda8e9f319c6fd654600061271061245a8385612e87565b10611c4157507f2e5e91b93b8bcab4a74b1f1eedeab795674919d3d007fcc45dd28a2deed58f1d9861248f61291e9284613bf5565b94886000527fbc351ae7fa32df0c8ad57278243ae7d011e90d073629dfc92fda8e9f319c6fcc8a526128fe6124fd6002604060002001548b6000527fbc351ae7fa32df0c8ad57278243ae7d011e90d073629dfc92fda8e9f319c6fcc8d52600360406000200154908b6132a9565b978a6000527fbc351ae7fa32df0c8ad57278243ae7d011e90d073629dfc92fda8e9f319c6fcd8c52604060002073ffffffffffffffffffffffffffffffffffffffff33166000528c526040600020612556368587612e50565b8d81519101206000528c5260036040600020600181016125778d8254612e9a565b9055600281016125888a8254612e9a565b9055016125968a8254612e9a565b90558a6000527fbc351ae7fa32df0c8ad57278243ae7d011e90d073629dfc92fda8e9f319c6fce8c52604060002073ffffffffffffffffffffffffffffffffffffffff33166000528c5260016040600020016125f38b8254612e9a565b90558a6000527fbc351ae7fa32df0c8ad57278243ae7d011e90d073629dfc92fda8e9f319c6fce8c52604060002073ffffffffffffffffffffffffffffffffffffffff33166000528c526002604060002001612650888254612e9a565b90558a6000527fbc351ae7fa32df0c8ad57278243ae7d011e90d073629dfc92fda8e9f319c6fce8c52604060002073ffffffffffffffffffffffffffffffffffffffff33166000528c5260036040600020016126ad8a8254612e9a565b90558a6000527fbc351ae7fa32df0c8ad57278243ae7d011e90d073629dfc92fda8e9f319c6fcf8c5260406000206126e6368587612e50565b8d81519101206000528c5260016040600020016127048b8254612e9a565b90558a6000527fbc351ae7fa32df0c8ad57278243ae7d011e90d073629dfc92fda8e9f319c6fcf8c52604060002061273d368587612e50565b8d81519101206000528c52600260406000200161275b888254612e9a565b90558a6000527fbc351ae7fa32df0c8ad57278243ae7d011e90d073629dfc92fda8e9f319c6fcf8c526040600020612794368587612e50565b8d81519101206000528c5260036040600020016127b28a8254612e9a565b90558a6000527fbc351ae7fa32df0c8ad57278243ae7d011e90d073629dfc92fda8e9f319c6fd08c5260406000206127eb8b8254612e9a565b90558a6000527fbc351ae7fa32df0c8ad57278243ae7d011e90d073629dfc92fda8e9f319c6fd08c526001604060002001612827888254612e9a565b905560008b81527fbc351ae7fa32df0c8ad57278243ae7d011e90d073629dfc92fda8e9f319c6fcc8d5260408082206005015473ffffffffffffffffffffffffffffffffffffffff1682527fbc351ae7fa32df0c8ad57278243ae7d011e90d073629dfc92fda8e9f319c6fd460205290206001016128a6898254612e9a565b90558a6000527fbc351ae7fa32df0c8ad57278243ae7d011e90d073629dfc92fda8e9f319c6fcc8c5273ffffffffffffffffffffffffffffffffffffffff600560406000200154166128f8888a612e9a565b916132e0565b604051998a998a5233908a015261010060408a0152610100890191612ea7565b946060870152608086015260a085015260c084015260e08301520390a1005b346103365760207ffffffffffffffffffffffffffffffffffffffffffffffffffffffffffffffffc3601126103365760043560ff7f68721c0bbf2c02a4d65000340d1370666be06a630022208d4baa9bd7a4b6fea8541661030c577fbc351ae7fa32df0c8ad57278243ae7d011e90d073629dfc92fda8e9f319c6fd5548110156102b857806000527fbc351ae7fa32df0c8ad57278243ae7d011e90d073629dfc92fda8e9f319c6fcc602052604060002090604051906129fe602083612bd4565b60008252612a136001840192611f2a84612ca2565b612b135760ff835416600781101561023557600581141580612b08575b6102025750612a43600984015442612d72565b7fbc351ae7fa32df0c8ad57278243ae7d011e90d073629dfc92fda8e9f319c6fde5411612ade577f9b327a4ca612250b263fec35bd1093e1750b5245b99e30ced83d74c5d477ce009260017fffffffffffffffffffffffffffffffffffffffffffffffffffffffffffffff0082541617905561201f604051928392835233602084015260016040840152608060608401526080830190612dae565b7f7ffb829d0000000000000000000000000000000000000000000000000000000060005260046000fd5b506004811415612a30565b7fc74a206d0000000000000000000000000000000000000000000000000000000060005260046000fd5b9181601f840112156103365782359167ffffffffffffffff8311610336576020838186019501011161033657565b9181601f840112156103365782359167ffffffffffffffff8311610336576020808501948460051b01011161033657565b6080810190811067ffffffffffffffff82111761178f57604052565b6060810190811067ffffffffffffffff82111761178f57604052565b90601f7fffffffffffffffffffffffffffffffffffffffffffffffffffffffffffffffe0910116810190811067ffffffffffffffff82111761178f57604052565b67ffffffffffffffff811161178f57601f017fffffffffffffffffffffffffffffffffffffffffffffffffffffffffffffffe01660200190565b90600182811c92168015612c98575b6020831014612c6957565b7f4e487b7100000000000000000000000000000000000000000000000000000000600052602260045260246000fd5b91607f1691612c5e565b9060405191826000825492612cb684612c4f565b8084529360018116908115612d245750600114612cdd575b50612cdb92500383612bd4565b565b90506000929192526020600020906000915b818310612d08575050906020612cdb9282010138612cce565b6020919350806001915483858901015201910190918492612cef565b60209350612cdb9592507fffffffffffffffffffffffffffffffffffffffffffffffffffffffffffffff0091501682840152151560051b82010138612cce565b600781101561023557600452565b91908203918211612d7f57565b7f4e487b7100000000000000000000000000000000000000000000000000000000600052601160045260246000fd5b60009291815491612dbe83612c4f565b8083529260018116908115612e145750600114612dda57505050565b60009081526020812093945091925b838310612dfa575060209250010190565b600181602092949394548385870101520191019190612de9565b905060209495507fffffffffffffffffffffffffffffffffffffffffffffffffffffffffffffff0091509291921683830152151560051b010190565b929192612e5c82612c15565b91612e6a6040519384612bd4565b829481845281830111610336578281602093846000960137010152565b81810292918115918404141715612d7f57565b91908201809211612d7f57565b601f82602094937fffffffffffffffffffffffffffffffffffffffffffffffffffffffffffffffe0938186528686013760008582860101520116010190565b8054821015612f02576000526003602060002091020190600090565b7f4e487b7100000000000000000000000000000000000000000000000000000000600052603260045260246000fd5b90604051612f3e81612bb8565b604060028294612f4d81612ca2565b84528251612f6981612f628160018601612dae565b0382612bd4565b60208501520154910152565b67ffffffffffffffff811161178f5760051b60200190565b908154612f9981612f75565b92612fa76040519485612bd4565b818452602084019060005260206000206000915b838310612fc85750505050565b600160208192612fd785612ca2565b815201920192019190612fbb565b604051602080820152600260408201527f6e6f00000000000000000000000000000000000000000000000000000000000060608201526060815261302a608082612bd4565b90565b604051602080820152600360408201527f796573000000000000000000000000000000000000000000000000000000000060608201526060815261302a608082612bd4565b81811061307d575050565b60008155600101613072565b9190601f811161309857505050565b612cdb926000526020600020906020601f840160051c830193106130c4575b601f0160051c0190613072565b90915081906130b7565b60005b8381106130e15750506000910152565b81810151838201526020016130d1565b907fffffffffffffffffffffffffffffffffffffffffffffffffffffffffffffffe0601f60209361312d815180928187528780880191016130ce565b0116010190565b9080601f830112156103365781602061302a93359101612e50565b9190811015612f025760051b810135907fffffffffffffffffffffffffffffffffffffffffffffffffffffffffffffffa181360301821215610336570190565b805115612f025760200190565b805160011015612f025760400190565b8051821015612f025760209160051b010190565b9035907fffffffffffffffffffffffffffffffffffffffffffffffffffffffffffffffe181360301821215610336570180359067ffffffffffffffff82116103365760200191813603831361033657565b60209082604051938492833781017fba07f9bdb83529457286bae2254b67a516d5fac42a7c08e76b28b1c094cd2f2681520301902090565b9190811015612f025760051b0190565b805190825191828103613273576020809201209201201490565b50505050600090565b60ff815416906007821015610235578115613295575090565b600301544210156132a35790565b50600390565b908042146132d75761302a926132cc6132d2926132c64284612d72565b92612d72565b90613b01565b612e87565b50505061271090565b600092919073ffffffffffffffffffffffffffffffffffffffff16806134bb575073ffffffffffffffffffffffffffffffffffffffff16604051907f70a08231000000000000000000000000000000000000000000000000000000008252306004830152602082602481845afa91821561347b578492613486575b509060206024926133ce6040517f23b872dd00000000000000000000000000000000000000000000000000000000848201526133c8816118e98930338b850173ffffffffffffffffffffffffffffffffffffffff6040929594938160608401971683521660208201520152565b826144be565b604051938480927f70a082310000000000000000000000000000000000000000000000000000000082523060048301525afa801561347b578490613447575b6134179250612d72565b0361341f5750565b807fc7e8fc500000000000000000000000000000000000000000000000000000000060049252fd5b506020823d602011613473575b8161346160209383612bd4565b8101031261033657613417915161340d565b3d9150613454565b6040513d86823e3d90fd5b91506020823d6020116134b3575b816134a160209383612bd4565b8101031261033657905190602061335b565b3d9150613494565b73ffffffffffffffffffffffffffffffffffffffff821690604051927f70a08231000000000000000000000000000000000000000000000000000000008452306004850152602084602481865afa938415613635578694613601575b50813b156135fd576040517f9865a1d300000000000000000000000000000000000000000000000000000000815273ffffffffffffffffffffffffffffffffffffffff919091166004820152336024820152604481018590529085908290606490829084905af180156135f2576135d8575b50906020602492604051938480927f70a082310000000000000000000000000000000000000000000000000000000082523060048301525afa801561347b578490613447576134179250612d72565b846135e96024949396602093612bd4565b94919250613589565b6040513d87823e3d90fd5b8580fd5b9093506020813d60201161362d575b8161361d60209383612bd4565b810103126135fd57519238613517565b3d9150613610565b6040513d88823e3d90fd5b806000527fbc351ae7fa32df0c8ad57278243ae7d011e90d073629dfc92fda8e9f319c6fcc60205260ff604060002054166007811015610235576001810361368c5750612cdb90613fb9565b600281036102025750612cdb90613d58565b9080602083519182815201916020808360051b8301019401926000915b8383106136ca57505050505090565b9091929394602080613706837fffffffffffffffffffffffffffffffffffffffffffffffffffffffffffffffe0866001960301875289516130f1565b970193019301919392906136bb565b3d15613740573d9061372682612c15565b916137346040519384612bd4565b82523d6000602084013e565b606090565b6000919082916138966138cd602084016118e973ffffffffffffffffffffffffffffffffffffffff60016137896020855181604051938285809451938492016130ce565b81017fba07f9bdb83529457286bae2254b67a516d5fac42a7c08e76b28b1c094cd2f268152030190200154169573ffffffffffffffffffffffffffffffffffffffff60026137e76020865181604051938285809451938492016130ce565b81017fba07f9bdb83529457286bae2254b67a516d5fac42a7c08e76b28b1c094cd2f26815203019020015416956040805196879560208701997f164cf76b000000000000000000000000000000000000000000000000000000008b526024880152606060448801526138658551606060848a015260e48901906130f1565b90517fffffffffffffffffffffffffffffffffffffffffffffffffffffffffffffff7c8883030160a48901526130f1565b92015160c48501527fffffffffffffffffffffffffffffffffffffffffffffffffffffffffffffffdc84830301606485015261369e565b51915af46138d9613715565b901561394d5780518101906020818184019303126103365760208101519067ffffffffffffffff8211610336570181603f8201121561033657602081015161392081612c15565b9261392e6040519485612bd4565b818452604083830101116103365761302a9160406020850191016130ce565b60646040517f9becf85d00000000000000000000000000000000000000000000000000000000815260206004820152601560248201527f4c6962506f6f6c2e5f7265736f6c76654576656e7400000000000000000000006044820152fd5b90357fffffffffffffffffffffffffffffffffffffffffffffffffffffffffffffffe18236030181121561033657016020813591019167ffffffffffffffff821161033657813603831361033657565b90604080613a38613a1d613a0f86806139ab565b606087526060870191612ea7565b613a2a60208701876139ab565b908683036020880152612ea7565b93013591015290565b90816020910312610336575180151581036103365790565b906060600391613a9781511515859060ff7fffffffffffffffffffffffffffffffffffffffffffffffffffffffffffffff0083541691151516179055565b60208101516001850155604081015160028501550151910155565b613abc8154612c4f565b9081613ac6575050565b81601f60009311600114613ad8575055565b81835260208320613af491601f0160051c810190600101613072565b8082528160208120915555565b908161271002907fffffffffffffffffffffffffffffffffffffffffffffffffffffffffffffffff836127100992828085109403938085039414613bb95783821115613ba057819061271009816000038216809204600281600302188082026002030280820260020302808202600203028082026002030280820260020302809102600203029360018380600003040190848311900302920304170290565b50634e487b71600052156003026011186020526024601cfd5b5080925015613bc6570490565b7f4e487b7100000000000000000000000000000000000000000000000000000000600052601260045260246000fd5b9190916000838202917fffffffffffffffffffffffffffffffffffffffffffffffffffffffffffffffff85820991838084109303928084039314613c8b57826127101115613c7957507fbc01a36e2eb1c432ca57a786c226809d495182a9930be0ded288ce703afb7e919394612710910990828211900360fc1b910360041c170290565b634e487b71905260116020526024601cfd5b5050506127109192500490565b91818302917fffffffffffffffffffffffffffffffffffffffffffffffffffffffffffffffff81850993838086109503948086039514613d4a5784831115613d315790829109816000038216809204600281600302188082026002030280820260020302808202600203028082026002030280820260020302809102600203029360018380600003040190848311900302920304170290565b82634e487b71600052156003026011186020526024601cfd5b505080925015613bc6570490565b806000527fbc351ae7fa32df0c8ad57278243ae7d011e90d073629dfc92fda8e9f319c6fcc6020526040600020816000527fbc351ae7fa32df0c8ad57278243ae7d011e90d073629dfc92fda8e9f319c6fce602052604060002073ffffffffffffffffffffffffffffffffffffffff331660005260205260016040600020015415613f8f57816000527fbc351ae7fa32df0c8ad57278243ae7d011e90d073629dfc92fda8e9f319c6fce602052604060002073ffffffffffffffffffffffffffffffffffffffff331660005260205260ff60406000205416613f6557816080917f7e2290278bab7591c02e1cee107f6eb5778796e4f991856e11ffc09bf8b818d0936000527fbc351ae7fa32df0c8ad57278243ae7d011e90d073629dfc92fda8e9f319c6fce602052604060002073ffffffffffffffffffffffffffffffffffffffff3316600052602052604060002060017fffffffffffffffffffffffffffffffffffffffffffffffffffffffffffffff00825416179055816000527fbc351ae7fa32df0c8ad57278243ae7d011e90d073629dfc92fda8e9f319c6fce602052604060002073ffffffffffffffffffffffffffffffffffffffff3316600052602052613f4a600260406000200154918273ffffffffffffffffffffffffffffffffffffffff600533930154166141f3565b604051918252336020830152600060408301526060820152a1565b7f924260f10000000000000000000000000000000000000000000000000000000060005260046000fd5b7f3110f1d80000000000000000000000000000000000000000000000000000000060005260046000fd5b806000527fbc351ae7fa32df0c8ad57278243ae7d011e90d073629dfc92fda8e9f319c6fcc6020526040600020602091604051613ff68482612bd4565b6000815261400b6001840191611f2a83612ca2565b612b1357816000527fbc351ae7fa32df0c8ad57278243ae7d011e90d073629dfc92fda8e9f319c6fcf8452604060002061404482612ca2565b8581519101206000528452600360406000200154156141e65760008281527fbc351ae7fa32df0c8ad57278243ae7d011e90d073629dfc92fda8e9f319c6fce85526040808220338352865290206001015415613f8f57816000527fbc351ae7fa32df0c8ad57278243ae7d011e90d073629dfc92fda8e9f319c6fcd8452604060002073ffffffffffffffffffffffffffffffffffffffff331660005284526140f0604060002091612ca2565b848151910120600052835260406000209182549260ff8416613f65576001810154156141bc577f7e2290278bab7591c02e1cee107f6eb5778796e4f991856e11ffc09bf8b818d09460017fffffffffffffffffffffffffffffffffffffffffffffffffffffffffffffff00608096161782556141a461418160026141786003860154886143a8565b94015484612e9a565b938473ffffffffffffffffffffffffffffffffffffffff600533930154166141f3565b604051938452339084015260408301526060820152a1565b7f907643880000000000000000000000000000000000000000000000000000000060005260046000fd5b509050612cdb9150613d58565b73ffffffffffffffffffffffffffffffffffffffff909291921690604051907f70a08231000000000000000000000000000000000000000000000000000000008252306004830152602082602481865afa91821561436757600092614373575b506024926142b560209273ffffffffffffffffffffffffffffffffffffffff604051917fa9059cbb00000000000000000000000000000000000000000000000000000000868401521686820152866044820152604481526133c8606482612bd4565b604051938480927f70a082310000000000000000000000000000000000000000000000000000000082523060048301525afa90811561436757600091614331575b6143009250612d72565b0361430757565b7fc7e8fc500000000000000000000000000000000000000000000000000000000060005260046000fd5b90506020823d60201161435f575b8161434c60209383612bd4565b81010312610336576143009151906142f6565b3d915061433f565b6040513d6000823e3d90fd5b9091506020813d6020116143a0575b8161438f60209383612bd4565b810103126103365751906024614253565b3d9150614382565b90816000527fbc351ae7fa32df0c8ad57278243ae7d011e90d073629dfc92fda8e9f319c6fcc602052604060002090826000527fbc351ae7fa32df0c8ad57278243ae7d011e90d073629dfc92fda8e9f319c6fcf6020526001604060002092019161441283612ca2565b6020815191012060005260205260036040600020015491821561327357836144b99161302a956000527fbc351ae7fa32df0c8ad57278243ae7d011e90d073629dfc92fda8e9f319c6fcf60205261446d604060002091612ca2565b60208151910120600052602052600260406000200154906000527fbc351ae7fa32df0c8ad57278243ae7d011e90d073629dfc92fda8e9f319c6fd0602052600160406000200154612d72565b613c98565b906000602091828151910182855af115614367576000513d614540575073ffffffffffffffffffffffffffffffffffffffff81163b155b6144fc5750565b73ffffffffffffffffffffffffffffffffffffffff907f5274afe7000000000000000000000000000000000000000000000000000000006000521660045260246000fd5b600114156144f556fea2646970667358221220beaa3140a14f0141c7a71704bb7f9a34b163029c87eca53ad015eb316fe5535d64736f6c634300081c0033",
  "linkReferences": {},
  "deployedLinkReferences": {}
}