{
  "_format": "hh-sol-artifact-1",
  "contractName": "GelatoHandler",
  "sourceName": "contracts/modules/GelatoHandler.sol",
  "abi": [
    {
      "inputs": [
        {
          "internalType": "enum IChallengePoolCommon.ChallengeState",
          "name": "_state",
          "type": "uint8"
        }
      ],
      "name": "ActionNotAllowedForState",
      "type": "error"
    },
    {
      "inputs": [],
      "name": "BelowMinPrie",
      "type": "error"
    },
    {
      "inputs": [],
      "name": "DeadlineExceeded",
      "type": "error"
    },
    {
      "inputs": [
        {
          "internalType": "string",
          "name": "_functionName",
          "type": "string"
        }
      ],
      "name": "DelegateCallFailed",
      "type": "error"
    },
    {
      "inputs": [],
      "name": "DisputePeriod",
      "type": "error"
    },
    {
      "inputs": [],
      "name": "DisputePeriodElapsed",
      "type": "error"
    },
    {
      "inputs": [
        {
          "internalType": "uint256",
          "name": "_requested",
          "type": "uint256"
        },
        {
          "internalType": "uint256",
          "name": "_available",
          "type": "uint256"
        }
      ],
      "name": "InsufficientStakes",
      "type": "error"
    },
    {
      "inputs": [],
      "name": "InvalidChallenge",
      "type": "error"
    },
    {
      "inputs": [],
      "name": "InvalidEventLength",
      "type": "error"
    },
    {
      "inputs": [],
      "name": "InvalidEventMaturity",
      "type": "error"
    },
    {
      "inputs": [],
      "name": "InvalidEventParam",
      "type": "error"
    },
    {
      "inputs": [],
      "name": "InvalidEventTopic",
      "type": "error"
    },
    {
      "inputs": [],
      "name": "InvalidOptionsLength",
      "type": "error"
    },
    {
      "inputs": [],
      "name": "InvalidOutcome",
      "type": "error"
    },
    {
      "inputs": [],
      "name": "InvalidPoolOption",
      "type": "error"
    },
    {
      "inputs": [],
      "name": "InvalidPrediction",
      "type": "error"
    },
    {
      "inputs": [],
      "name": "MaxPriceExceeded",
      "type": "error"
    },
    {
      "inputs": [],
      "name": "NotImplemented",
      "type": "error"
    },
    {
      "inputs": [],
      "name": "Pausable__NotPaused",
      "type": "error"
    },
    {
      "inputs": [],
      "name": "Pausable__Paused",
      "type": "error"
    },
    {
      "inputs": [],
      "name": "PlayerAlreadyDisputed",
      "type": "error"
    },
    {
      "inputs": [],
      "name": "PlayerAlreadyReleased",
      "type": "error"
    },
    {
      "inputs": [],
      "name": "PlayerAlreadyWithdrawn",
      "type": "error"
    },
    {
      "inputs": [],
      "name": "PlayerDidNotDispute",
      "type": "error"
    },
    {
      "inputs": [],
      "name": "PlayerDidNotWinPool",
      "type": "error"
    },
    {
      "inputs": [],
      "name": "PlayerLostDispute",
      "type": "error"
    },
    {
      "inputs": [],
      "name": "PlayerNotInPool",
      "type": "error"
    },
    {
      "inputs": [],
      "name": "ProtocolInvariantCheckFailed",
      "type": "error"
    },
    {
      "inputs": [],
      "name": "ReentrancyGuard__ReentrantCall",
      "type": "error"
    },
    {
      "inputs": [
        {
          "internalType": "address",
          "name": "token",
          "type": "address"
        }
      ],
      "name": "SafeERC20FailedOperation",
      "type": "error"
    },
    {
      "inputs": [],
      "name": "StakeLowerThanMinimum",
      "type": "error"
    },
    {
      "inputs": [
        {
          "internalType": "address",
          "name": "_token",
          "type": "address"
        }
      ],
      "name": "UnsupportedToken",
      "type": "error"
    },
    {
      "inputs": [],
      "name": "ZeroAddress",
      "type": "error"
    },
    {
      "inputs": [],
      "name": "ZeroNumber",
      "type": "error"
    },
    {
      "anonymous": false,
      "inputs": [
        {
          "indexed": false,
          "internalType": "uint256",
          "name": "challengeId",
          "type": "uint256"
        },
        {
          "indexed": false,
          "internalType": "address",
          "name": "creator",
          "type": "address"
        },
        {
          "indexed": false,
          "internalType": "uint256",
          "name": "createdAt",
          "type": "uint256"
        },
        {
          "indexed": false,
          "internalType": "uint256",
          "name": "maturity",
          "type": "uint256"
        },
        {
          "indexed": false,
          "internalType": "enum IChallengePoolCommon.ChallengeState",
          "name": "state",
          "type": "uint8"
        },
        {
          "indexed": false,
          "internalType": "bytes",
          "name": "result",
          "type": "bytes"
        },
        {
          "indexed": false,
          "internalType": "uint256",
          "name": "basePrice",
          "type": "uint256"
        },
        {
          "indexed": false,
          "internalType": "uint256",
          "name": "fee",
          "type": "uint256"
        },
        {
          "indexed": false,
          "internalType": "uint256",
          "name": "quantity",
          "type": "uint256"
        },
        {
          "indexed": false,
          "internalType": "uint256",
          "name": "totalAmount",
          "type": "uint256"
        },
        {
          "indexed": false,
          "internalType": "uint256",
          "name": "rewards",
          "type": "uint256"
        },
        {
          "indexed": false,
          "internalType": "bytes",
          "name": "prediction",
          "type": "bytes"
        },
        {
          "components": [
            {
              "internalType": "bytes",
              "name": "params",
              "type": "bytes"
            },
            {
              "internalType": "string",
              "name": "topicId",
              "type": "string"
            },
            {
              "internalType": "uint256",
              "name": "maturity",
              "type": "uint256"
            }
          ],
          "indexed": false,
          "internalType": "struct IChallengePoolCommon.ChallengeEvent[]",
          "name": "events",
          "type": "tuple[]"
        },
        {
          "indexed": false,
          "internalType": "bytes[]",
          "name": "options",
          "type": "bytes[]"
        },
        {
          "indexed": false,
          "internalType": "address",
          "name": "stakeToken",
          "type": "address"
        },
        {
          "indexed": false,
          "internalType": "bool",
          "name": "multi",
          "type": "bool"
        }
      ],
      "name": "NewChallenge",
      "type": "event"
    },
    {
      "anonymous": false,
      "inputs": [
        {
          "indexed": false,
          "internalType": "address",
          "name": "account",
          "type": "address"
        }
      ],
      "name": "Paused",
      "type": "event"
    },
    {
      "anonymous": false,
      "inputs": [
        {
          "indexed": true,
          "internalType": "bytes32",
          "name": "role",
          "type": "bytes32"
        },
        {
          "indexed": true,
          "internalType": "bytes32",
          "name": "previousAdminRole",
          "type": "bytes32"
        },
        {
          "indexed": true,
          "internalType": "bytes32",
          "name": "newAdminRole",
          "type": "bytes32"
        }
      ],
      "name": "RoleAdminChanged",
      "type": "event"
    },
    {
      "anonymous": false,
      "inputs": [
        {
          "indexed": true,
          "internalType": "bytes32",
          "name": "role",
          "type": "bytes32"
        },
        {
          "indexed": true,
          "internalType": "address",
          "name": "account",
          "type": "address"
        },
        {
          "indexed": true,
          "internalType": "address",
          "name": "sender",
          "type": "address"
        }
      ],
      "name": "RoleGranted",
      "type": "event"
    },
    {
      "anonymous": false,
      "inputs": [
        {
          "indexed": true,
          "internalType": "bytes32",
          "name": "role",
          "type": "bytes32"
        },
        {
          "indexed": true,
          "internalType": "address",
          "name": "account",
          "type": "address"
        },
        {
          "indexed": true,
          "internalType": "address",
          "name": "sender",
          "type": "address"
        }
      ],
      "name": "RoleRevoked",
      "type": "event"
    },
    {
      "anonymous": false,
      "inputs": [
        {
          "indexed": false,
          "internalType": "uint256",
          "name": "challengeId",
          "type": "uint256"
        },
        {
          "indexed": false,
          "internalType": "address",
          "name": "participant",
          "type": "address"
        },
        {
          "indexed": false,
          "internalType": "bytes",
          "name": "option",
          "type": "bytes"
        },
        {
          "indexed": false,
          "internalType": "uint256",
          "name": "stakes",
          "type": "uint256"
        },
        {
          "indexed": false,
          "internalType": "uint256",
          "name": "price",
          "type": "uint256"
        },
        {
          "indexed": false,
          "internalType": "uint256",
          "name": "totalAmount",
          "type": "uint256"
        },
        {
          "indexed": false,
          "internalType": "uint256",
          "name": "fee",
          "type": "uint256"
        },
        {
          "indexed": false,
          "internalType": "uint256",
          "name": "rewards",
          "type": "uint256"
        }
      ],
      "name": "Stake",
      "type": "event"
    },
    {
      "anonymous": false,
      "inputs": [
        {
          "indexed": false,
          "internalType": "address",
          "name": "account",
          "type": "address"
        }
      ],
      "name": "Unpaused",
      "type": "event"
    },
    {
      "anonymous": false,
      "inputs": [
        {
          "indexed": false,
          "internalType": "uint256",
          "name": "challengeId",
          "type": "uint256"
        },
        {
          "indexed": false,
          "internalType": "address",
          "name": "participant",
          "type": "address"
        },
        {
          "indexed": false,
          "internalType": "uint256",
          "name": "amountWon",
          "type": "uint256"
        },
        {
          "indexed": false,
          "internalType": "uint256",
          "name": "amountWithdrawn",
          "type": "uint256"
        }
      ],
      "name": "WinningsWithdrawn",
      "type": "event"
    },
    {
      "inputs": [
        {
          "internalType": "uint256[]",
          "name": "_challengeIds",
          "type": "uint256[]"
        }
      ],
      "name": "bulkWithdrawRelay",
      "outputs": [],
      "stateMutability": "nonpayable",
      "type": "function"
    },
    {
      "inputs": [
        {
          "components": [
            {
              "internalType": "bytes",
              "name": "params",
              "type": "bytes"
            },
            {
              "internalType": "string",
              "name": "topicId",
              "type": "string"
            },
            {
              "internalType": "uint256",
              "name": "maturity",
              "type": "uint256"
            }
          ],
          "internalType": "struct IChallengePoolCommon.ChallengeEvent[]",
          "name": "_events",
          "type": "tuple[]"
        },
        {
          "internalType": "bytes[]",
          "name": "_options",
          "type": "bytes[]"
        },
        {
          "internalType": "address",
          "name": "_stakeToken",
          "type": "address"
        },
        {
          "internalType": "bytes",
          "name": "_prediction",
          "type": "bytes"
        },
        {
          "internalType": "uint256",
          "name": "_quantity",
          "type": "uint256"
        },
        {
          "internalType": "uint256",
          "name": "_basePrice",
          "type": "uint256"
        },
        {
          "internalType": "address",
          "name": "_paymaster",
          "type": "address"
        }
      ],
      "name": "createChallengeRelay",
      "outputs": [],
      "stateMutability": "nonpayable",
      "type": "function"
    },
    {
      "inputs": [
        {
          "internalType": "uint256",
          "name": "_challengeId",
          "type": "uint256"
        },
        {
          "internalType": "bytes",
          "name": "_prediction",
          "type": "bytes"
        },
        {
          "internalType": "uint256",
          "name": "_quantity",
          "type": "uint256"
        },
        {
          "internalType": "uint256",
          "name": "_deadline",
          "type": "uint256"
        }
      ],
      "name": "earlyWithdrawRelay",
      "outputs": [],
      "stateMutability": "nonpayable",
      "type": "function"
    },
    {
      "inputs": [
        {
          "internalType": "address",
          "name": "forwarder",
          "type": "address"
        }
      ],
      "name": "isTrustedForwarder",
      "outputs": [
        {
          "internalType": "bool",
          "name": "",
          "type": "bool"
        }
      ],
      "stateMutability": "view",
      "type": "function"
    },
    {
      "inputs": [
        {
          "internalType": "uint256",
          "name": "_challengeId",
          "type": "uint256"
        },
        {
          "internalType": "bytes",
          "name": "_prediction",
          "type": "bytes"
        },
        {
          "internalType": "uint256",
          "name": "_quantity",
          "type": "uint256"
        },
        {
          "internalType": "address",
          "name": "_paymaster",
          "type": "address"
        }
      ],
      "name": "stakeRelay",
      "outputs": [],
      "stateMutability": "nonpayable",
      "type": "function"
    },
    {
      "inputs": [
        {
          "internalType": "uint256",
          "name": "_challengeId",
          "type": "uint256"
        }
      ],
      "name": "withdrawRelay",
      "outputs": [],
      "stateMutability": "nonpayable",
      "type": "function"
    }
  ],
  "bytecode": "0x608080604052346015576141fe908161001b8239f35b600080fdfe6101a0604052600436101561001357600080fd5b60003560e01c8063063975b31461270b57806332ef36d21461257c5780635295245714611dba578063572b6c0514611d22578063b13fc1cd146101eb5763f549454b1461005f57600080fd5b346101e65760207ffffffffffffffffffffffffffffffffffffffffffffffffffffffffffffffffc3601126101e65760043560ff7f68721c0bbf2c02a4d65000340d1370666be06a630022208d4baa9bd7a4b6fea854166101bc5760027f09acf4e54214992e70883cf7dcd6957ff2c71cd9e14df4bec4383bc0d11607dc54146101925760027f09acf4e54214992e70883cf7dcd6957ff2c71cd9e14df4bec4383bc0d11607dc557fbc351ae7fa32df0c8ad57278243ae7d011e90d073629dfc92fda8e9f319c6fd554811015610168576101429061013c612af3565b90612b78565b60017f09acf4e54214992e70883cf7dcd6957ff2c71cd9e14df4bec4383bc0d11607dc55005b7f92fa6fd30000000000000000000000000000000000000000000000000000000060005260046000fd5b7fbb6b8f9a0000000000000000000000000000000000000000000000000000000060005260046000fd5b7f059519da0000000000000000000000000000000000000000000000000000000060005260046000fd5b600080fd5b346101e65760e07ffffffffffffffffffffffffffffffffffffffffffffffffffffffffffffffffc3601126101e65760043567ffffffffffffffff81116101e65761023a9036906004016127bb565b9060243567ffffffffffffffff81116101e65761025b9036906004016127bb565b60443561012081905291939173ffffffffffffffffffffffffffffffffffffffff811690036101e65760643567ffffffffffffffff81116101e6576102a49036906004016127ec565b60c43561016081905290959073ffffffffffffffffffffffffffffffffffffffff811690036101e65760ff7f68721c0bbf2c02a4d65000340d1370666be06a630022208d4baa9bd7a4b6fea854166101bc5760843515611cf85760a43515611cf85773ffffffffffffffffffffffffffffffffffffffff610120511615611cce5760ff60026103756101205173ffffffffffffffffffffffffffffffffffffffff166000527fbc351ae7fa32df0c8ad57278243ae7d011e90d073629dfc92fda8e9f319c6fd4602052604060002090565b01541615611c87577fbc351ae7fa32df0c8ad57278243ae7d011e90d073629dfc92fda8e9f319c6fd95460a43510611c5d576103b23687846128f0565b926103d0602094604051906103c78783612875565b60008252612c0a565b61196e5760018510611c09577fbc351ae7fa32df0c8ad57278243ae7d011e90d073629dfc92fda8e9f319c6fdb548511611c33577fbc351ae7fa32df0c8ad57278243ae7d011e90d073629dfc92fda8e9f319c6fda548111611c3357600060a052806119a7575050600060a052604051606061044c8183612875565b600282527fffffffffffffffffffffffffffffffffffffffffffffffffffffffffffffffe081018460a0515b828110611998575050506040518480820152600360408201527f7965730000000000000000000000000000000000000000000000000000000000828201528181526104c4608082612875565b6104cd83612a39565b526104d782612a39565b50604051908480830152600260408301527f6e6f00000000000000000000000000000000000000000000000000000000000081830152815261051a608082612875565b61052382612a46565b5261052d81612a46565b50925b60009460005b85518110156106575761056460405161054f8782612875565b6000815261055d8389612a56565b5190612c0a565b61062d576105866105758288612a56565b51610581368b886128f0565b612c0a565b610624575b6001907fbc351ae7fa32df0c8ad57278243ae7d011e90d073629dfc92fda8e9f319c6fd5546000527fbc351ae7fa32df0c8ad57278243ae7d011e90d073629dfc92fda8e9f319c6fcf865260406000206105e58289612a56565b5187815191012060005286526040600020827fffffffffffffffffffffffffffffffffffffffffffffffffffffffffffffff0082541617905501610536565b6001965061058b565b7f3d4d195c0000000000000000000000000000000000000000000000000000000060005260046000fd5b509193929095941561196e577fffffffffffffffffffffffffffffffffffffffffffffffffffffffffffffffff60e05260005b8681106116f957507fbc351ae7fa32df0c8ad57278243ae7d011e90d073629dfc92fda8e9f319c6fd85460006080526127106106c88260a435612935565b106116f3576106d99060a435613cb6565b608052600161072a6101205173ffffffffffffffffffffffffffffffffffffffff166000527fbc351ae7fa32df0c8ad57278243ae7d011e90d073629dfc92fda8e9f319c6fd4602052604060002090565b016107386080518254612977565b905561074860843560a435612935565b61010052610754612af3565b60c05261076660e05142608435612c67565b61081f60405161077581612859565b60008152608435848201526101005160408201528260608201527fbc351ae7fa32df0c8ad57278243ae7d011e90d073629dfc92fda8e9f319c6fd5546000527fbc351ae7fa32df0c8ad57278243ae7d011e90d073629dfc92fda8e9f319c6fcd8452604060002073ffffffffffffffffffffffffffffffffffffffff60c051166000528452604060002061080a368a8a6128f0565b858151910120600052845260406000206134eb565b6108bd60405161082e81612859565b60008152608435848201526101005160408201528260608201527fbc351ae7fa32df0c8ad57278243ae7d011e90d073629dfc92fda8e9f319c6fd5546000527fbc351ae7fa32df0c8ad57278243ae7d011e90d073629dfc92fda8e9f319c6fce8452604060002073ffffffffffffffffffffffffffffffffffffffff60c05116600052845260406000206134eb565b61093e6040516108cc81612859565b60018152608435848201526101005160408201528260608201527fbc351ae7fa32df0c8ad57278243ae7d011e90d073629dfc92fda8e9f319c6fd5546000527fbc351ae7fa32df0c8ad57278243ae7d011e90d073629dfc92fda8e9f319c6fcf8452604060002061080a368a8a6128f0565b6040516040810181811067ffffffffffffffff8211176116c457604052608435815260018382016101005181527fbc351ae7fa32df0c8ad57278243ae7d011e90d073629dfc92fda8e9f319c6fd5546000527fbc351ae7fa32df0c8ad57278243ae7d011e90d073629dfc92fda8e9f319c6fd08552604060002092518355519101556040516109cd8382612875565b6000815260405161014052610160610140510161014051811067ffffffffffffffff8211176116c4576040526000610140515260a051151583610140510152604061014051015242606061014051015260e051608061014051015260a43560a061014051015273ffffffffffffffffffffffffffffffffffffffff610120511660c0610140510152610a5e876129c3565b610a6b6040519182612875565b878152828101368960051b8601116101e65784905b8960051b8601821061161c57505060e06101405101528361010061014051015260006101206101405101526000610140805101527fbc351ae7fa32df0c8ad57278243ae7d011e90d073629dfc92fda8e9f319c6fd5546000527fbc351ae7fa32df0c8ad57278243ae7d011e90d073629dfc92fda8e9f319c6fcc825260406000206101405151600781101561018052610180516115ed5760006101805281547fffffffffffffffffffffffffffffffffffffffffffffffffffffffffffff000060ff61ff0087610140510151151560081b169316911617178155604061014051015180519067ffffffffffffffff821161111257610b8e82610b856001860154613544565b600186016135ae565b84906001601f84111461151c57918091610bde936101805192611511575b50507fffffffffffffffffffffffffffffffffffffffffffffffffffffffffffffffff8260011b9260031b1c19161790565b60018201555b606061014051015160028201556080610140510151600382015560a061014051015160048201556005810173ffffffffffffffffffffffffffffffffffffffff60c0610140510151167fffffffffffffffffffffffff000000000000000000000000000000000000000082541617905560e0610140510151805190680100000000000000008211611112578490600684015483600686015580841061143d575b50019060068301610180515284610180512061018051925b82841061118457505050506101006101405101518051906801000000000000000082116111125784906007840154836007860155808410611145575b5099949599019060078301610180515285610180512061018051925b828410610fc2575050505090610e1c91610d466101206101405101511515600883019060ff7fffffffffffffffffffffffffffffffffffffffffffffffffffffffffffffff0083541691151516179055565b6009610140805101519101557fbc351ae7fa32df0c8ad57278243ae7d011e90d073629dfc92fda8e9f319c6fd5549660405196610d838689612875565b610180518852610de4604051988a8a5273ffffffffffffffffffffffffffffffffffffffff60c05116888b01524260408b015260e05160608b0152610180515061018051506101805160808b015261020060a08b01526102008a01906133cd565b9260a43560c08a015260805160e08a01526084356101008a0152610100516101208a0152610140890152878303610160890152612984565b9184830361018086015281835280830192818360051b82010197809461018051927fffffffffffffffffffffffffffffffffffffffffffffffffffffffffffffffa183360301905b868510610f605750897fdd5a97c5099afb95d249eea641e04bf5c1eb4d3de2f68f1ee16affcda9e853a58a80610ea38f8d8382036101a085015261342c565b73ffffffffffffffffffffffffffffffffffffffff61012051166101c083015260a05115156101e08301520390a160018101809111610f2d577fbc351ae7fa32df0c8ad57278243ae7d011e90d073629dfc92fda8e9f319c6fd555610f26610f1060805161010051612977565b610f18612af3565b906101205161016051612c9e565b6101805180f35b7f4e487b710000000000000000000000000000000000000000000000000000000061018051526011600452602461018051fd5b909192939495969a7fffffffffffffffffffffffffffffffffffffffffffffffffffffffffffffffe08282030184528b3583811215610fbb5787610fa960019388839401613387565b9d019401950193929695949190610e64565b6101805180fd5b809b97969b5190815167ffffffffffffffff8111611112578892610ff082610fea8754613544565b876135ae565b83906001601f8411146110625782600195938695936110449361018051926110575750507fffffffffffffffffffffffffffffffffffffffffffffffffffffffffffffffff8260011b9260031b1c19161790565b85555b019201930192909a95969a610cf4565b015190503880610bac565b939291907fffffffffffffffffffffffffffffffffffffffffffffffffffffffffffffffe082169086610180515284610180512091610180515b8181106110fa5750918391600197889796958895106110c3575b505050811b018555611047565b01517fffffffffffffffffffffffffffffffffffffffffffffffffffffffffffffffff60f88460031b161c191690553880806110b6565b8783015184558d96600190940193928301920161109c565b7f4e487b710000000000000000000000000000000000000000000000000000000061018051526041600452602461018051fd5b600785016101805152826101805120908482015b8183018110611169575050610cd8565b60019192939450611179816135f3565b019087939291611159565b8051805180519067ffffffffffffffff8211611112576111a882610fea8754613544565b89906001601f841114611372579180916111f79361018051926110575750507fffffffffffffffffffffffffffffffffffffffffffffffffffffffffffffffff8260011b9260031b1c19161790565b83555b8781015190815167ffffffffffffffff811161111257899261122c826112236001890154613544565b600189016135ae565b83906001601f84111461129c579261128483600197946040946003989761018051926110575750507fffffffffffffffffffffffffffffffffffffffffffffffffffffffffffffffff8260011b9260031b1c19161790565b868801555b0151600286015501920193019290610c9c565b9060018701610180515284610180512091610180515b7fffffffffffffffffffffffffffffffffffffffffffffffffffffffffffffffe08516811061135a57508360409360039796936001999693837fffffffffffffffffffffffffffffffffffffffffffffffffffffffffffffffe08c961610611324575b505050811b0186880155611289565b01517fffffffffffffffffffffffffffffffffffffffffffffffffffffffffffffffff60f8848b1b161c19169055388080611315565b8183015184558d9660019094019392830192016112b2565b91908561018051528a61018051209061018051935b8c7fffffffffffffffffffffffffffffffffffffffffffffffffffffffffffffffe085168610611424575060019450837fffffffffffffffffffffffffffffffffffffffffffffffffffffffffffffffe08116106113ed575b505050811b0183556111fa565b01517fffffffffffffffffffffffffffffffffffffffffffffffffffffffffffffffff60f88460031b161c191690558f80806113e0565b8282015184559485019460019093019290910190611387565b9091506003818102048103610f2d576003838102048303610f2d579085916006850161018051528261018051208460030281015b8260030282018110611484575050610c84565b60039192939450611494816135f3565b600181016114a28154613544565b806114be575b5050610180516002820155019087939291611471565b601f81116001146114d857506101805190555b8e806114a8565b6114fa908261018051526001601f8d6101805120920160051c82019101613597565b6101808051829052518a81209181905590556114d1565b015190508b80610bac565b91906001840161018051528561018051209061018051935b877fffffffffffffffffffffffffffffffffffffffffffffffffffffffffffffffe0851686106115d4575060019450837fffffffffffffffffffffffffffffffffffffffffffffffffffffffffffffffe081161061159d575b505050811b016001820155610be4565b01517fffffffffffffffffffffffffffffffffffffffffffffffffffffffffffffffff60f88460031b161c191690558a808061158d565b8282015184559485019460019093019290910190611534565b7f4e487b7100000000000000000000000000000000000000000000000000000000600052602160045260246000fd5b813567ffffffffffffffff81116101e65786016060813603126101e657604051916060830183811067ffffffffffffffff8211176116c457604052813567ffffffffffffffff81116101e65761167590369084016129db565b83528682013567ffffffffffffffff81116101e65782019236601f850112156101e65760408894936116ae8695369087813591016128f0565b8584015201356040820152815201910190610a80565b7f4e487b7100000000000000000000000000000000000000000000000000000000600052604160045260246000fd5b60805180fd5b60ff600261171d61171761170e858c896129f9565b86810190612a6a565b90612abb565b015460a01c1660028110156115ed571561194457604061173e8289866129f9565b013561176b7fbc351ae7fa32df0c8ad57278243ae7d011e90d073629dfc92fda8e9f319c6fdc5442612977565b1161191a57604061177d8289866129f9565b013560e05111611903575b600080611796838a876129f9565b8481019061181e61184a73ffffffffffffffffffffffffffffffffffffffff60026117d76117178360016117cd6117178b8b612a6a565b0154169787612a6a565b015416926040519283918a8301957f1e272e4c0000000000000000000000000000000000000000000000000000000087526024840152604060448401526064830190613387565b037fffffffffffffffffffffffffffffffffffffffffffffffffffffffffffffffe08101835282612875565b51915af46118566134a3565b90156118a55780838061186e935183010191016134d3565b1561187b5760010161068a565b7f66e37c080000000000000000000000000000000000000000000000000000000060005260046000fd5b606483604051907f9becf85d0000000000000000000000000000000000000000000000000000000082526004820152601660248201527f4c6962506f6f6c2e5f76616c69646174654576656e74000000000000000000006044820152fd5b60406119108289866129f9565b013560e052611788565b7fcce559bd0000000000000000000000000000000000000000000000000000000060005260046000fd5b7f4aa91a460000000000000000000000000000000000000000000000000000000060005260046000fd5b7fea0599f80000000000000000000000000000000000000000000000000000000060005260046000fd5b83828287010152018590610478565b600160a09592955260028110611c335760a0518211611c09576119c9816129c3565b946119d76040519687612875565b8186528486019160051b8101913683116101e65781905b838210611bdd57505050508360008215611bb0578635907fffffffffffffffffffffffffffffffffffffffffffffffffffffffffffffffa188360301821215611bad57506000918291880190611acd611afd8884019361181e73ffffffffffffffffffffffffffffffffffffffff6002611a8661171783611a7c611a728c89612a6a565b60a0519291612abb565b0154169986612a6a565b015416946040519485938d8501977fd925ce500000000000000000000000000000000000000000000000000000000089526024860152606060448601526084850190613387565b907fffffffffffffffffffffffffffffffffffffffffffffffffffffffffffffffdc84830301606485015261342c565b51915af4611b096134a3565b9015611b4f57808480611b21935183010191016134d3565b610530577f66e37c080000000000000000000000000000000000000000000000000000000060005260046000fd5b606484604051907f9becf85d0000000000000000000000000000000000000000000000000000000082526004820152601860248201527f4c6962506f6f6c2e5f76616c69646174654f7074696f6e7300000000000000006044820152fd5b80fd5b807f4e487b7100000000000000000000000000000000000000000000000000000000602492526032600452fd5b813567ffffffffffffffff81116101e6578791611bfe8392369087016129db565b8152019101906119ee565b7f678c50c90000000000000000000000000000000000000000000000000000000060005260046000fd5b7f8ad443780000000000000000000000000000000000000000000000000000000060005260046000fd5b7f7b31d8c60000000000000000000000000000000000000000000000000000000060005260046000fd5b7fbf16aab60000000000000000000000000000000000000000000000000000000060005273ffffffffffffffffffffffffffffffffffffffff610120511660045260246000fd5b7fd92e233d0000000000000000000000000000000000000000000000000000000060005260046000fd5b7f99d1d12f0000000000000000000000000000000000000000000000000000000060005260046000fd5b346101e65760207ffffffffffffffffffffffffffffffffffffffffffffffffffffffffffffffffc3601126101e65760043573ffffffffffffffffffffffffffffffffffffffff811681036101e65760209073ffffffffffffffffffffffffffffffffffffffff807fbc351ae7fa32df0c8ad57278243ae7d011e90d073629dfc92fda8e9f319c6fe054169116146040519015158152f35b346101e65760807ffffffffffffffffffffffffffffffffffffffffffffffffffffffffffffffffc3601126101e65760043560243567ffffffffffffffff81116101e657611e0c9036906004016127ec565b909160443560643573ffffffffffffffffffffffffffffffffffffffff811681036101e65760ff7f68721c0bbf2c02a4d65000340d1370666be06a630022208d4baa9bd7a4b6fea854166101bc577fbc351ae7fa32df0c8ad57278243ae7d011e90d073629dfc92fda8e9f319c6fd55483101561016857611e8e3685876128f0565b93611ea3602095604051906103c78883612875565b61196e578215611cf857836000527fbc351ae7fa32df0c8ad57278243ae7d011e90d073629dfc92fda8e9f319c6fcc8552611ee16040600020612c2d565b60078110156115ed57806125495750836000527fbc351ae7fa32df0c8ad57278243ae7d011e90d073629dfc92fda8e9f319c6fcc8552600460406000200154846000527fbc351ae7fa32df0c8ad57278243ae7d011e90d073629dfc92fda8e9f319c6fcf86526040600020611f5736848a6128f0565b878151910120600052865260ff604060002054161561196e57611f7a8482612935565b907fbc351ae7fa32df0c8ad57278243ae7d011e90d073629dfc92fda8e9f319c6fd6546000612710611fac8385612935565b10611bad57507f2e5e91b93b8bcab4a74b1f1eedeab795674919d3d007fcc45dd28a2deed58f1d98611fe161252a9284613cb6565b94886000527fbc351ae7fa32df0c8ad57278243ae7d011e90d073629dfc92fda8e9f319c6fcc8a526124ec61204f6002604060002001548b6000527fbc351ae7fa32df0c8ad57278243ae7d011e90d073629dfc92fda8e9f319c6fcc8d52600360406000200154908b612c67565b97612058612af3565b8b6000527fbc351ae7fa32df0c8ad57278243ae7d011e90d073629dfc92fda8e9f319c6fcd8d52604060002073ffffffffffffffffffffffffffffffffffffffff82166000528d5260406000208d6120b13687896128f0565b9081519101206000528d52600360406000208c6120d360018301918254612977565b9055600281016120e48b8254612977565b9055016120f28b8254612977565b90558b6000527fbc351ae7fa32df0c8ad57278243ae7d011e90d073629dfc92fda8e9f319c6fce8d52604060002073ffffffffffffffffffffffffffffffffffffffff82166000528d52600160406000200161214f8c8254612977565b90558b6000527fbc351ae7fa32df0c8ad57278243ae7d011e90d073629dfc92fda8e9f319c6fce8d52604060002073ffffffffffffffffffffffffffffffffffffffff82166000528d5260026040600020016121ac898254612977565b90558b6000527fbc351ae7fa32df0c8ad57278243ae7d011e90d073629dfc92fda8e9f319c6fce8d5273ffffffffffffffffffffffffffffffffffffffff604060002091166000528c5260036040600020016122098a8254612977565b90558a6000527fbc351ae7fa32df0c8ad57278243ae7d011e90d073629dfc92fda8e9f319c6fcf8c5260406000206122423685876128f0565b8d81519101206000528c5260016040600020016122608b8254612977565b90558a6000527fbc351ae7fa32df0c8ad57278243ae7d011e90d073629dfc92fda8e9f319c6fcf8c5260406000206122993685876128f0565b8d81519101206000528c5260026040600020016122b7888254612977565b90558a6000527fbc351ae7fa32df0c8ad57278243ae7d011e90d073629dfc92fda8e9f319c6fcf8c5260406000206122f03685876128f0565b8d81519101206000528c52600360406000200161230e8a8254612977565b90558a6000527fbc351ae7fa32df0c8ad57278243ae7d011e90d073629dfc92fda8e9f319c6fd08c5260406000206123478b8254612977565b90558a6000527fbc351ae7fa32df0c8ad57278243ae7d011e90d073629dfc92fda8e9f319c6fd08c526001604060002001612383888254612977565b905560008b81527fbc351ae7fa32df0c8ad57278243ae7d011e90d073629dfc92fda8e9f319c6fcc8d5260408082206005015473ffffffffffffffffffffffffffffffffffffffff1682527fbc351ae7fa32df0c8ad57278243ae7d011e90d073629dfc92fda8e9f319c6fd46020529020600101612402898254612977565b90558a6000527fbc351ae7fa32df0c8ad57278243ae7d011e90d073629dfc92fda8e9f319c6fcc8c5261246673ffffffffffffffffffffffffffffffffffffffff60056040600020015416612457898b612977565b61245f612af3565b9184612c9e565b8a6000527fbc351ae7fa32df0c8ad57278243ae7d011e90d073629dfc92fda8e9f319c6fcc8c528a8c7fbc351ae7fa32df0c8ad57278243ae7d011e90d073629dfc92fda8e9f319c6fcc73ffffffffffffffffffffffffffffffffffffffff60056040600020015416916124d8612af3565b936000525260036040600020015492613008565b6124f4612af3565b9973ffffffffffffffffffffffffffffffffffffffff6040519b8c9b8c5216908a015261010060408a0152610100890191612984565b946060870152608086015260a085015260c084015260e08301520390a1005b612576907fabe418b700000000000000000000000000000000000000000000000000000000600052612927565b60246000fd5b346101e65760807ffffffffffffffffffffffffffffffffffffffffffffffffffffffffffffffffc3601126101e65760043560243567ffffffffffffffff81116101e6576125ce9036906004016127ec565b60ff7f68721c0bbf2c02a4d65000340d1370666be06a630022208d4baa9bd7a4b6fea854166101bc5760027f09acf4e54214992e70883cf7dcd6957ff2c71cd9e14df4bec4383bc0d11607dc54146101925760027f09acf4e54214992e70883cf7dcd6957ff2c71cd9e14df4bec4383bc0d11607dc557fbc351ae7fa32df0c8ad57278243ae7d011e90d073629dfc92fda8e9f319c6fd5548310156101685761268b9161267c9136916128f0565b604051906103c7602083612875565b61196e5760443515611cf85760643515611cf8576000527fbc351ae7fa32df0c8ad57278243ae7d011e90d073629dfc92fda8e9f319c6fcc6020526126d36040600020612c2d565b60078110156115ed5780612549577fd62347250000000000000000000000000000000000000000000000000000000060005260046000fd5b346101e65760207ffffffffffffffffffffffffffffffffffffffffffffffffffffffffffffffffc3601126101e65760043567ffffffffffffffff81116101e65761275a9036906004016127bb565b9060005b82811061276757005b61277281848461281a565b357fbc351ae7fa32df0c8ad57278243ae7d011e90d073629dfc92fda8e9f319c6fd554111561016857806127b56127ac600193868661281a565b3561013c612af3565b0161275e565b9181601f840112156101e65782359167ffffffffffffffff83116101e6576020808501948460051b0101116101e657565b9181601f840112156101e65782359167ffffffffffffffff83116101e657602083818601950101116101e657565b919081101561282a5760051b0190565b7f4e487b7100000000000000000000000000000000000000000000000000000000600052603260045260246000fd5b6080810190811067ffffffffffffffff8211176116c457604052565b90601f7fffffffffffffffffffffffffffffffffffffffffffffffffffffffffffffffe0910116810190811067ffffffffffffffff8211176116c457604052565b67ffffffffffffffff81116116c457601f017fffffffffffffffffffffffffffffffffffffffffffffffffffffffffffffffe01660200190565b9291926128fc826128b6565b9161290a6040519384612875565b8294818452818301116101e6578281602093846000960137010152565b60078110156115ed57600452565b8181029291811591840414171561294857565b7f4e487b7100000000000000000000000000000000000000000000000000000000600052601160045260246000fd5b9190820180921161294857565b601f82602094937fffffffffffffffffffffffffffffffffffffffffffffffffffffffffffffffe0938186528686013760008582860101520116010190565b67ffffffffffffffff81116116c45760051b60200190565b9080601f830112156101e6578160206129f6933591016128f0565b90565b919081101561282a5760051b810135907fffffffffffffffffffffffffffffffffffffffffffffffffffffffffffffffa1813603018212156101e6570190565b80511561282a5760200190565b80516001101561282a5760400190565b805182101561282a5760209160051b010190565b9035907fffffffffffffffffffffffffffffffffffffffffffffffffffffffffffffffe1813603018212156101e6570180359067ffffffffffffffff82116101e6576020019181360383136101e657565b60209082604051938492833781017fba07f9bdb83529457286bae2254b67a516d5fac42a7c08e76b28b1c094cd2f2681520301902090565b73ffffffffffffffffffffffffffffffffffffffff7fbc351ae7fa32df0c8ad57278243ae7d011e90d073629dfc92fda8e9f319c6fe0541673ffffffffffffffffffffffffffffffffffffffff331614600014612b74577fffffffffffffffffffffffffffffffffffffffffffffffffffffffffffffffec36013560601c90565b3390565b9190826000527fbc351ae7fa32df0c8ad57278243ae7d011e90d073629dfc92fda8e9f319c6fcc60205260ff604060002054169260078410156115ed5760018403612bca57612bc892935061393d565b565b60028403612bdd57612bc8929350613642565b612576847fabe418b700000000000000000000000000000000000000000000000000000000600052612927565b805190825191828103612c24576020809201209201201490565b50505050600090565b60ff8154169060078210156115ed578115612c46575090565b60030154421015612c545790565b50600390565b9190820391821161294857565b90804214612c95576129f692612c8a612c9092612c844284612c5a565b92612c5a565b90613bc2565b612935565b50505061271090565b6000939073ffffffffffffffffffffffffffffffffffffffff1680612e8e57509073ffffffffffffffffffffffffffffffffffffffff1690604051907f70a08231000000000000000000000000000000000000000000000000000000008252306004830152602082602481865afa918215612e83579084918693612e4a575b5092612d92602092612d8c60249661181e6040519384927f23b872dd000000000000000000000000000000000000000000000000000000008985015230908b850173ffffffffffffffffffffffffffffffffffffffff6040929594938160608401971683521660208201520152565b8261413d565b604051938480927f70a082310000000000000000000000000000000000000000000000000000000082523060048301525afa8015612e3f578490612e0b575b612ddb9250612c5a565b03612de35750565b807fc7e8fc500000000000000000000000000000000000000000000000000000000060049252fd5b506020823d602011612e37575b81612e2560209383612875565b810103126101e657612ddb9151612dd1565b3d9150612e18565b6040513d86823e3d90fd5b915091506020813d602011612e7b575b81612e6760209383612875565b810103126101e65751908390612d92612d1d565b3d9150612e5a565b6040513d87823e3d90fd5b73ffffffffffffffffffffffffffffffffffffffff831691604051937f70a08231000000000000000000000000000000000000000000000000000000008552306004860152602085602481875afa948515612ffd578795612fc9575b50823b15612fc5576040517f9865a1d300000000000000000000000000000000000000000000000000000000815273ffffffffffffffffffffffffffffffffffffffff918216600482015291166024820152604481018590529085908290606490829084905af18015612e8357612fab575b50906020602492604051938480927f70a082310000000000000000000000000000000000000000000000000000000082523060048301525afa8015612e3f578490612e0b57612ddb9250612c5a565b84612fbc6024949396602093612875565b94919250612f5c565b8680fd5b9094506020813d602011612ff5575b81612fe560209383612875565b81010312612fc557519338612eea565b3d9150612fd8565b6040513d89823e3d90fd5b929173ffffffffffffffffffffffffffffffffffffffff6000941661333157604092848061181e6130a4875161303e8982612875565b600d81527f5f7374616b6541697244726f7000000000000000000000000000000000000000602082015288519283917f41304fac0000000000000000000000000000000000000000000000000000000060208401526020602484015260448301906133cd565b6020815191016a636f6e736f6c652e6c6f675afa506131097fb4e10a4811f331e910bbd821832ab85ed1158088534d96bdd9d92f6de8be7985546130e781613e19565b6130f96130f44283612977565b613e19565b61310283613e19565b4290612977565b11613331576131578173ffffffffffffffffffffffffffffffffffffffff166000527fb4e10a4811f331e910bbd821832ab85ed1158088534d96bdd9d92f6de8be7984602052604060002090565b73ffffffffffffffffffffffffffffffffffffffff83168552602052828420547fb4e10a4811f331e910bbd821832ab85ed1158088534d96bdd9d92f6de8be7983541115613331576131e88173ffffffffffffffffffffffffffffffffffffffff166000527fb4e10a4811f331e910bbd821832ab85ed1158088534d96bdd9d92f6de8be7984602052604060002090565b73ffffffffffffffffffffffffffffffffffffffff8316855260205282842080549060018201809211613304575573ffffffffffffffffffffffffffffffffffffffff7fb4e10a4811f331e910bbd821832ab85ed1158088534d96bdd9d92f6de8be79825416907fb4e10a4811f331e910bbd821832ab85ed1158088534d96bdd9d92f6de8be79815492823b156133005784517fb3db428b00000000000000000000000000000000000000000000000000000000815273ffffffffffffffffffffffffffffffffffffffff918216600482015291166024820152604481019290925290919083908390606490829084905af19081156132f757506132ea575050565b816132f491612875565b50565b513d84823e3d90fd5b8580fd5b6024867f4e487b710000000000000000000000000000000000000000000000000000000081526011600452fd5b50505050565b90357fffffffffffffffffffffffffffffffffffffffffffffffffffffffffffffffe1823603018112156101e657016020813591019167ffffffffffffffff82116101e65781360383136101e657565b906040806133c46133a961339b8680613337565b606087526060870191612984565b6133b66020870187613337565b908683036020880152612984565b93013591015290565b919082519283825260005b8481106134175750507fffffffffffffffffffffffffffffffffffffffffffffffffffffffffffffffe0601f8460006020809697860101520116010190565b806020809284010151828286010152016133d8565b9080602083519182815201916020808360051b8301019401926000915b83831061345857505050505090565b9091929394602080613494837fffffffffffffffffffffffffffffffffffffffffffffffffffffffffffffffe0866001960301875289516133cd565b97019301930191939290613449565b3d156134ce573d906134b4826128b6565b916134c26040519384612875565b82523d6000602084013e565b606090565b908160209103126101e6575180151581036101e65790565b90606060039161352981511515859060ff7fffffffffffffffffffffffffffffffffffffffffffffffffffffffffffffff0083541691151516179055565b60208101516001850155604081015160028501550151910155565b90600182811c9216801561358d575b602083101461355e57565b7f4e487b7100000000000000000000000000000000000000000000000000000000600052602260045260246000fd5b91607f1691613553565b8181106135a2575050565b60008155600101613597565b9190601f81116135bd57505050565b612bc8926000526020600020906020601f840160051c830193106135e9575b601f0160051c0190613597565b90915081906135dc565b6135fd8154613544565b9081613607575050565b81601f60009311600114613619575055565b8183526020832061363591601f0160051c810190600101613597565b8082528160208120915555565b806000527fbc351ae7fa32df0c8ad57278243ae7d011e90d073629dfc92fda8e9f319c6fcc602052604060002090806000527fbc351ae7fa32df0c8ad57278243ae7d011e90d073629dfc92fda8e9f319c6fce602052604060002073ffffffffffffffffffffffffffffffffffffffff84166000526020526001604060002001541561385357806000527fbc351ae7fa32df0c8ad57278243ae7d011e90d073629dfc92fda8e9f319c6fce602052604060002073ffffffffffffffffffffffffffffffffffffffff841660005260205260ff6040600020541661382957600573ffffffffffffffffffffffffffffffffffffffff8461380e7f7e2290278bab7591c02e1cee107f6eb5778796e4f991856e11ffc09bf8b818d096608096866000527fbc351ae7fa32df0c8ad57278243ae7d011e90d073629dfc92fda8e9f319c6fce6020526040600020858316600052602052604060002060017fffffffffffffffffffffffffffffffffffffffffffffffffffffffffffffff00825416179055866000527fbc351ae7fa32df0c8ad57278243ae7d011e90d073629dfc92fda8e9f319c6fce602052604060002085831660005260205284600260406000200154968792015416613e72565b604051938452166020830152600060408301526060820152a1565b7f924260f10000000000000000000000000000000000000000000000000000000060005260046000fd5b7f3110f1d80000000000000000000000000000000000000000000000000000000060005260046000fd5b906040519182600082549261389184613544565b80845293600181169081156138fd57506001146138b6575b50612bc892500383612875565b90506000929192526020600020906000915b8183106138e1575050906020612bc892820101386138a9565b60209193508060019154838589010152019101909184926138c8565b60209350612bc89592507fffffffffffffffffffffffffffffffffffffffffffffffffffffffffffffff0091501682840152151560051b820101386138a9565b90816000527fbc351ae7fa32df0c8ad57278243ae7d011e90d073629dfc92fda8e9f319c6fcc60205260406000209160209260405161397c8582612875565b6000815261399760018301916139918361387d565b90612c0a565b613b9857826000527fbc351ae7fa32df0c8ad57278243ae7d011e90d073629dfc92fda8e9f319c6fcf855260406000206139d08261387d565b868151910120600052855260036040600020015415613b8c57826000527fbc351ae7fa32df0c8ad57278243ae7d011e90d073629dfc92fda8e9f319c6fce8552604060002073ffffffffffffffffffffffffffffffffffffffff851660005285526001604060002001541561385357826000527fbc351ae7fa32df0c8ad57278243ae7d011e90d073629dfc92fda8e9f319c6fcd8552604060002073ffffffffffffffffffffffffffffffffffffffff85166000528552613a9560406000209161387d565b8581519101206000528452604060002080549460ff861661382957600182015415613b625773ffffffffffffffffffffffffffffffffffffffff85613b4a60809760059660017fffffffffffffffffffffffffffffffffffffffffffffffffffffffffffffff007f7e2290278bab7591c02e1cee107f6eb5778796e4f991856e11ffc09bf8b818d09c1617875584613b3f6002613b3660038b01548d614027565b99015489612977565b988992015416613e72565b604051958652169084015260408301526060820152a1565b7f907643880000000000000000000000000000000000000000000000000000000060005260046000fd5b5050612bc89250613642565b7fc74a206d0000000000000000000000000000000000000000000000000000000060005260046000fd5b908161271002907fffffffffffffffffffffffffffffffffffffffffffffffffffffffffffffffff836127100992828085109403938085039414613c7a5783821115613c6157819061271009816000038216809204600281600302188082026002030280820260020302808202600203028082026002030280820260020302809102600203029360018380600003040190848311900302920304170290565b50634e487b71600052156003026011186020526024601cfd5b5080925015613c87570490565b7f4e487b7100000000000000000000000000000000000000000000000000000000600052601260045260246000fd5b9190916000838202917fffffffffffffffffffffffffffffffffffffffffffffffffffffffffffffffff85820991838084109303928084039314613d4c57826127101115613d3a57507fbc01a36e2eb1c432ca57a786c226809d495182a9930be0ded288ce703afb7e919394612710910990828211900360fc1b910360041c170290565b634e487b71905260116020526024601cfd5b5050506127109192500490565b91818302917fffffffffffffffffffffffffffffffffffffffffffffffffffffffffffffffff81850993838086109503948086039514613e0b5784831115613df25790829109816000038216809204600281600302188082026002030280820260020302808202600203028082026002030280820260020302809102600203029360018380600003040190848311900302920304170290565b82634e487b71600052156003026011186020526024601cfd5b505080925015613c87570490565b60008091604051907ff82c50f1000000000000000000000000000000000000000000000000000000006020830152602482015260248152613e5b604482612875565b6020815191016a636f6e736f6c652e6c6f675afa50565b73ffffffffffffffffffffffffffffffffffffffff909291921690604051907f70a08231000000000000000000000000000000000000000000000000000000008252306004830152602082602481865afa918215613fe657600092613ff2575b50602492613f3460209273ffffffffffffffffffffffffffffffffffffffff604051917fa9059cbb0000000000000000000000000000000000000000000000000000000086840152168682015286604482015260448152612d8c606482612875565b604051938480927f70a082310000000000000000000000000000000000000000000000000000000082523060048301525afa908115613fe657600091613fb0575b613f7f9250612c5a565b03613f8657565b7fc7e8fc500000000000000000000000000000000000000000000000000000000060005260046000fd5b90506020823d602011613fde575b81613fcb60209383612875565b810103126101e657613f7f915190613f75565b3d9150613fbe565b6040513d6000823e3d90fd5b9091506020813d60201161401f575b8161400e60209383612875565b810103126101e65751906024613ed2565b3d9150614001565b90816000527fbc351ae7fa32df0c8ad57278243ae7d011e90d073629dfc92fda8e9f319c6fcc602052604060002090826000527fbc351ae7fa32df0c8ad57278243ae7d011e90d073629dfc92fda8e9f319c6fcf602052600160406000209201916140918361387d565b60208151910120600052602052600360406000200154918215612c245783614138916129f6956000527fbc351ae7fa32df0c8ad57278243ae7d011e90d073629dfc92fda8e9f319c6fcf6020526140ec60406000209161387d565b60208151910120600052602052600260406000200154906000527fbc351ae7fa32df0c8ad57278243ae7d011e90d073629dfc92fda8e9f319c6fd0602052600160406000200154612c5a565b613d59565b906000602091828151910182855af115613fe6576000513d6141bf575073ffffffffffffffffffffffffffffffffffffffff81163b155b61417b5750565b73ffffffffffffffffffffffffffffffffffffffff907f5274afe7000000000000000000000000000000000000000000000000000000006000521660045260246000fd5b6001141561417456fea2646970667358221220f56c9c2c390ff4ab14307d4b6dda2c2f5104a802b37b18b18faada657542f09264736f6c634300081c0033",
  "linkReferences": {},
  "deployedLinkReferences": {}
}