{
  "_format": "hh-sol-artifact-1",
  "contractName": "ChallengePoolView",
  "sourceName": "contracts/modules/ChallengePoolView.sol",
  "abi": [
    {
      "inputs": [
        {
          "internalType": "enum IChallengePoolCommon.ChallengeState",
          "name": "_state",
          "type": "uint8"
        }
      ],
      "name": "ActionNotAllowedForState",
      "type": "error"
    },
    {
      "inputs": [],
      "name": "InvalidChallenge",
      "type": "error"
    },
    {
      "inputs": [],
      "name": "InvalidOutcome",
      "type": "error"
    },
    {
      "inputs": [
        {
          "internalType": "uint256",
          "name": "_challengeId",
          "type": "uint256"
        }
      ],
      "name": "challenges",
      "outputs": [
        {
          "components": [
            {
              "internalType": "enum IChallengePoolCommon.ChallengeState",
              "name": "state",
              "type": "uint8"
            },
            {
              "internalType": "bool",
              "name": "multi",
              "type": "bool"
            },
            {
              "internalType": "bytes",
              "name": "outcome",
              "type": "bytes"
            },
            {
              "internalType": "uint256",
              "name": "createdAt",
              "type": "uint256"
            },
            {
              "internalType": "uint256",
              "name": "maturity",
              "type": "uint256"
            },
            {
              "internalType": "uint256",
              "name": "basePrice",
              "type": "uint256"
            },
            {
              "internalType": "address",
              "name": "stakeToken",
              "type": "address"
            },
            {
              "components": [
                {
                  "internalType": "bytes",
                  "name": "params",
                  "type": "bytes"
                },
                {
                  "internalType": "string",
                  "name": "topicId",
                  "type": "string"
                },
                {
                  "internalType": "uint256",
                  "name": "maturity",
                  "type": "uint256"
                }
              ],
              "internalType": "struct IChallengePoolCommon.ChallengeEvent[]",
              "name": "events",
              "type": "tuple[]"
            },
            {
              "internalType": "bytes[]",
              "name": "options",
              "type": "bytes[]"
            },
            {
              "internalType": "bool",
              "name": "disputed",
              "type": "bool"
            },
            {
              "internalType": "uint256",
              "name": "lastOutcomeSet",
              "type": "uint256"
            }
          ],
          "internalType": "struct IChallengePoolCommon.Challenge",
          "name": "",
          "type": "tuple"
        }
      ],
      "stateMutability": "view",
      "type": "function"
    },
    {
      "inputs": [
        {
          "internalType": "uint256",
          "name": "_price",
          "type": "uint256"
        }
      ],
      "name": "createFee",
      "outputs": [
        {
          "internalType": "uint256",
          "name": "fee",
          "type": "uint256"
        },
        {
          "internalType": "uint256",
          "name": "feePlusPrice",
          "type": "uint256"
        }
      ],
      "stateMutability": "view",
      "type": "function"
    },
    {
      "inputs": [
        {
          "internalType": "bytes32",
          "name": "_requestId",
          "type": "bytes32"
        }
      ],
      "name": "dataRequest",
      "outputs": [
        {
          "components": [
            {
              "internalType": "bytes",
              "name": "requested",
              "type": "bytes"
            },
            {
              "internalType": "bytes",
              "name": "provided",
              "type": "bytes"
            },
            {
              "internalType": "bool",
              "name": "register",
              "type": "bool"
            }
          ],
          "internalType": "struct IDataProvider.DataRequest",
          "name": "",
          "type": "tuple"
        }
      ],
      "stateMutability": "view",
      "type": "function"
    },
    {
      "inputs": [
        {
          "internalType": "uint256",
          "name": "_price",
          "type": "uint256"
        }
      ],
      "name": "earlyWithdrawFee",
      "outputs": [
        {
          "internalType": "uint256",
          "name": "fee",
          "type": "uint256"
        },
        {
          "internalType": "uint256",
          "name": "feePlusPrice",
          "type": "uint256"
        }
      ],
      "stateMutability": "view",
      "type": "function"
    },
    {
      "inputs": [
        {
          "internalType": "uint256",
          "name": "_challengeId",
          "type": "uint256"
        }
      ],
      "name": "earlyWithdrawPenalty",
      "outputs": [
        {
          "internalType": "uint256",
          "name": "penalty",
          "type": "uint256"
        },
        {
          "internalType": "uint256",
          "name": "priceMinusPenalty",
          "type": "uint256"
        }
      ],
      "stateMutability": "view",
      "type": "function"
    },
    {
      "inputs": [],
      "name": "gelatoForwarder",
      "outputs": [
        {
          "internalType": "address",
          "name": "",
          "type": "address"
        }
      ],
      "stateMutability": "view",
      "type": "function"
    },
    {
      "inputs": [
        {
          "internalType": "address",
          "name": "_token",
          "type": "address"
        }
      ],
      "name": "getAccumulatedFee",
      "outputs": [
        {
          "internalType": "uint256",
          "name": "",
          "type": "uint256"
        }
      ],
      "stateMutability": "view",
      "type": "function"
    },
    {
      "inputs": [],
      "name": "maxClaim",
      "outputs": [
        {
          "internalType": "uint256",
          "name": "",
          "type": "uint256"
        }
      ],
      "stateMutability": "view",
      "type": "function"
    },
    {
      "inputs": [],
      "name": "minPoolMaturity",
      "outputs": [
        {
          "internalType": "uint256",
          "name": "",
          "type": "uint256"
        }
      ],
      "stateMutability": "view",
      "type": "function"
    },
    {
      "inputs": [
        {
          "internalType": "uint256",
          "name": "_challengeId",
          "type": "uint256"
        },
        {
          "internalType": "bytes32",
          "name": "_option",
          "type": "bytes32"
        }
      ],
      "name": "optionDisputes",
      "outputs": [
        {
          "internalType": "uint256",
          "name": "",
          "type": "uint256"
        }
      ],
      "stateMutability": "view",
      "type": "function"
    },
    {
      "inputs": [
        {
          "internalType": "uint256",
          "name": "_challengeId",
          "type": "uint256"
        },
        {
          "internalType": "bytes32",
          "name": "_option",
          "type": "bytes32"
        }
      ],
      "name": "optionSupply",
      "outputs": [
        {
          "components": [
            {
              "internalType": "bool",
              "name": "exists",
              "type": "bool"
            },
            {
              "internalType": "uint256",
              "name": "stakes",
              "type": "uint256"
            },
            {
              "internalType": "uint256",
              "name": "tokens",
              "type": "uint256"
            },
            {
              "internalType": "uint256",
              "name": "rewards",
              "type": "uint256"
            }
          ],
          "internalType": "struct IChallengePoolHandler.OptionSupply",
          "name": "",
          "type": "tuple"
        }
      ],
      "stateMutability": "view",
      "type": "function"
    },
    {
      "inputs": [],
      "name": "paymaster",
      "outputs": [
        {
          "internalType": "address",
          "name": "",
          "type": "address"
        }
      ],
      "stateMutability": "view",
      "type": "function"
    },
    {
      "inputs": [
        {
          "internalType": "uint256",
          "name": "_challengeId",
          "type": "uint256"
        },
        {
          "internalType": "address",
          "name": "_player",
          "type": "address"
        }
      ],
      "name": "playerDisputes",
      "outputs": [
        {
          "components": [
            {
              "internalType": "bytes",
              "name": "dispute",
              "type": "bytes"
            },
            {
              "internalType": "uint256",
              "name": "stake",
              "type": "uint256"
            },
            {
              "internalType": "bool",
              "name": "released",
              "type": "bool"
            }
          ],
          "internalType": "struct IChallengePoolDispute.Dispute",
          "name": "",
          "type": "tuple"
        }
      ],
      "stateMutability": "view",
      "type": "function"
    },
    {
      "inputs": [
        {
          "internalType": "uint256",
          "name": "_challengeId",
          "type": "uint256"
        },
        {
          "internalType": "address",
          "name": "_player",
          "type": "address"
        },
        {
          "internalType": "bytes32",
          "name": "_option",
          "type": "bytes32"
        }
      ],
      "name": "playerOptionSupply",
      "outputs": [
        {
          "components": [
            {
              "internalType": "bool",
              "name": "withdrawn",
              "type": "bool"
            },
            {
              "internalType": "uint256",
              "name": "stakes",
              "type": "uint256"
            },
            {
              "internalType": "uint256",
              "name": "tokens",
              "type": "uint256"
            },
            {
              "internalType": "uint256",
              "name": "rewards",
              "type": "uint256"
            }
          ],
          "internalType": "struct IChallengePoolHandler.PlayerSupply",
          "name": "",
          "type": "tuple"
        }
      ],
      "stateMutability": "view",
      "type": "function"
    },
    {
      "inputs": [
        {
          "internalType": "uint256",
          "name": "_challengeId",
          "type": "uint256"
        },
        {
          "internalType": "address",
          "name": "_player",
          "type": "address"
        }
      ],
      "name": "playerSupply",
      "outputs": [
        {
          "components": [
            {
              "internalType": "bool",
              "name": "withdrawn",
              "type": "bool"
            },
            {
              "internalType": "uint256",
              "name": "stakes",
              "type": "uint256"
            },
            {
              "internalType": "uint256",
              "name": "tokens",
              "type": "uint256"
            },
            {
              "internalType": "uint256",
              "name": "rewards",
              "type": "uint256"
            }
          ],
          "internalType": "struct IChallengePoolHandler.PlayerSupply",
          "name": "",
          "type": "tuple"
        }
      ],
      "stateMutability": "view",
      "type": "function"
    },
    {
      "inputs": [
        {
          "internalType": "uint256",
          "name": "_challengeId",
          "type": "uint256"
        }
      ],
      "name": "poolDisputes",
      "outputs": [
        {
          "internalType": "uint256",
          "name": "",
          "type": "uint256"
        }
      ],
      "stateMutability": "view",
      "type": "function"
    },
    {
      "inputs": [
        {
          "internalType": "uint256",
          "name": "_challengeId",
          "type": "uint256"
        }
      ],
      "name": "poolSupply",
      "outputs": [
        {
          "components": [
            {
              "internalType": "uint256",
              "name": "stakes",
              "type": "uint256"
            },
            {
              "internalType": "uint256",
              "name": "tokens",
              "type": "uint256"
            }
          ],
          "internalType": "struct IChallengePoolHandler.Supply",
          "name": "",
          "type": "tuple"
        }
      ],
      "stateMutability": "view",
      "type": "function"
    },
    {
      "inputs": [
        {
          "internalType": "uint256",
          "name": "_challengeId",
          "type": "uint256"
        }
      ],
      "name": "price",
      "outputs": [
        {
          "internalType": "uint256",
          "name": "",
          "type": "uint256"
        }
      ],
      "stateMutability": "view",
      "type": "function"
    },
    {
      "inputs": [
        {
          "internalType": "bytes32",
          "name": "_requestId",
          "type": "bytes32"
        },
        {
          "internalType": "bytes32",
          "name": "_option",
          "type": "bytes32"
        }
      ],
      "name": "requestOptions",
      "outputs": [
        {
          "internalType": "bool",
          "name": "",
          "type": "bool"
        }
      ],
      "stateMutability": "view",
      "type": "function"
    },
    {
      "inputs": [],
      "name": "stakeAirDrop",
      "outputs": [
        {
          "internalType": "uint256",
          "name": "",
          "type": "uint256"
        }
      ],
      "stateMutability": "view",
      "type": "function"
    },
    {
      "inputs": [
        {
          "internalType": "uint256",
          "name": "_price",
          "type": "uint256"
        }
      ],
      "name": "stakeFee",
      "outputs": [
        {
          "internalType": "uint256",
          "name": "fee",
          "type": "uint256"
        },
        {
          "internalType": "uint256",
          "name": "feePlusPrice",
          "type": "uint256"
        }
      ],
      "stateMutability": "view",
      "type": "function"
    },
    {
      "inputs": [
        {
          "internalType": "uint256",
          "name": "_challengeId",
          "type": "uint256"
        },
        {
          "internalType": "address",
          "name": "_player",
          "type": "address"
        }
      ],
      "name": "winnerShare",
      "outputs": [
        {
          "internalType": "uint256",
          "name": "",
          "type": "uint256"
        }
      ],
      "stateMutability": "view",
      "type": "function"
    }
  ],
  "bytecode": "0x608080604052346015576119ce908161001b8239f35b600080fdfe608080604052600436101561001357600080fd5b60003560e01c908163038590e8146110e7575080630bf6f7d71461103e57806316e4cbf914610fcd57806326a49e3714610ec15780632fa05b2914610e2457806331dc3aac14610dc95780633699fbdf14610d585780634c267e2714610cbd5780634d5fb21014610be75780635971512114610b9b5780635c4cb59914610b39578063726845bb14610ab05780637ae530d814610a4e578063821415c5146109fc5780638e9dafdb146109725780638f1d3776146105015780639d6d419b146104a6578063b4789d4814610378578063ba038f3214610262578063cd819f46146101ed578063d4938db3146101925763eb1ca6931461011157600080fd5b3461018d5760407ffffffffffffffffffffffffffffffffffffffffffffffffffffffffffffffffc36011261018d576004356000527fde1d81bc9860c075d76ad153e67ec9a4f01e6b3b42e3792f5f132c7f173401416020526040600020602435600052602052602060ff604060002054166040519015158152f35b600080fd5b3461018d5760007ffffffffffffffffffffffffffffffffffffffffffffffffffffffffffffffffc36011261018d5760207fb4e10a4811f331e910bbd821832ab85ed1158088534d96bdd9d92f6de8be798354604051908152f35b3461018d5760207ffffffffffffffffffffffffffffffffffffffffffffffffffffffffffffffffc36011261018d57604060043561025661024f7fbc351ae7fa32df0c8ad57278243ae7d011e90d073629dfc92fda8e9f319c6fd85483611976565b8092611623565b82519182526020820152f35b3461018d5760407ffffffffffffffffffffffffffffffffffffffffffffffffffffffffffffffffc36011261018d57610365604061029e61114c565b60008280516102ac81611278565b6060815282602082015201526004356000527fbc351ae7fa32df0c8ad57278243ae7d011e90d073629dfc92fda8e9f319c6fd16020528160002073ffffffffffffffffffffffffffffffffffffffff600092168252602052206040519061031282611278565b60405161032a816103238185611389565b03826112b0565b825260ff60026001830154926020850193845201541660408301901515815260405193849360208552516060602086015260808501906111b1565b9151604084015251151560608301520390f35b3461018d5760207ffffffffffffffffffffffffffffffffffffffffffffffffffffffffffffffffc36011261018d576000604080516103b681611278565b606081526060602082015201526004356000527fde1d81bc9860c075d76ad153e67ec9a4f01e6b3b42e3792f5f132c7f1734014060205261046860406000206040519061040282611278565b604051610413816103238185611389565b825261049960ff600260405193610438856104318160018501611389565b03866112b0565b602086019485520154169160408401921515835260405194859460208652516060602087015260808601906111b1565b90517fffffffffffffffffffffffffffffffffffffffffffffffffffffffffffffffe08583030160408601526111b1565b9051151560608301520390f35b3461018d5760007ffffffffffffffffffffffffffffffffffffffffffffffffffffffffffffffffc36011261018d5760207fb4e10a4811f331e910bbd821832ab85ed1158088534d96bdd9d92f6de8be798554604051908152f35b3461018d5760207ffffffffffffffffffffffffffffffffffffffffffffffffffffffffffffffffc36011261018d5760006101406040516105418161125b565b828152826020820152606060408201528260608201528260808201528260a08201528260c0820152606060e082015260606101008201528261012082015201526004356000527fbc351ae7fa32df0c8ad57278243ae7d011e90d073629dfc92fda8e9f319c6fcc60205260406000206040516105bc8161125b565b81549160ff831660078110156108c957825260ff602083019360081c16151583526040516105f1816103238160018601611389565b60408301908152600282015493606084019485526003830154906080850191825260048401549060a0860191825273ffffffffffffffffffffffffffffffffffffffff60058601541660c087019081526006860192835461065181611630565b9461065f60405196876112b0565b818652602086019060005260206000206000915b83831061091d575050505060e088019384526007870194855461069581611630565b966106a360405198896112b0565b818852602088019060005260206000206000915b8383106108f857505050506101008901958652600960ff60088a015416986101208b019915158a520154966101408a019788526040519960208b52519060078210156108c95773ffffffffffffffffffffffffffffffffffffffff956107389260208d015251151560408c01525161016060608c01526101808b01906111b1565b995160808a01525160a08901525160c0880152511660e086015251947fffffffffffffffffffffffffffffffffffffffffffffffffffffffffffffffe085820301610100860152855180825260208201916020808360051b8301019801926000915b83831061085657505050505051917fffffffffffffffffffffffffffffffffffffffffffffffffffffffffffffffe084860301610120850152825180865260208601906020808260051b8901019501916000905b82821061080d5784511515610140890152855161016089015287870388f35b90919295602080610848837fffffffffffffffffffffffffffffffffffffffffffffffffffffffffffffffe08d600196030186528a516111b1565b9801920192019092916107ee565b9091929398602080827fffffffffffffffffffffffffffffffffffffffffffffffffffffffffffffffe085600195030186528c51906040806108b46108a485516060865260608601906111b1565b86860151858203888701526111b1565b9301519101529b01930193019193929061079a565b7f4e487b7100000000000000000000000000000000000000000000000000000000600052602160045260246000fd5b60016020819260405161090f816103238189611389565b8152019201920191906106b7565b6003602060019260405161093081611278565b60405161094181610323818a611389565b81526040516109568161032381898b01611389565b8382015260028601546040820152815201920192019190610673565b3461018d5760207ffffffffffffffffffffffffffffffffffffffffffffffffffffffffffffffffc36011261018d5760043573ffffffffffffffffffffffffffffffffffffffff811680910361018d576000527fbc351ae7fa32df0c8ad57278243ae7d011e90d073629dfc92fda8e9f319c6fd46020526020600160406000200154604051908152f35b3461018d57610a0a3661116f565b906000527fbc351ae7fa32df0c8ad57278243ae7d011e90d073629dfc92fda8e9f319c6fd26020526040600020906000526020526020604060002054604051908152f35b3461018d5760207ffffffffffffffffffffffffffffffffffffffffffffffffffffffffffffffffc36011261018d57604060043561025661024f7fbc351ae7fa32df0c8ad57278243ae7d011e90d073629dfc92fda8e9f319c6fd75483611976565b3461018d57610abe3661116f565b90610ac76112f1565b506000527fbc351ae7fa32df0c8ad57278243ae7d011e90d073629dfc92fda8e9f319c6fcf6020526040600020906000526020526080610b0a6040600020611316565b610b3760405180926060809180511515845260208101516020850152604081015160408501520151910152565bf35b3461018d5760207ffffffffffffffffffffffffffffffffffffffffffffffffffffffffffffffffc36011261018d57604060043561025661024f7fbc351ae7fa32df0c8ad57278243ae7d011e90d073629dfc92fda8e9f319c6fd65483611976565b3461018d5760407ffffffffffffffffffffffffffffffffffffffffffffffffffffffffffffffffc36011261018d576020610bdf610bd761114c565b600435611470565b604051908152f35b3461018d5760207ffffffffffffffffffffffffffffffffffffffffffffffffffffffffffffffffc36011261018d576004357fbc351ae7fa32df0c8ad57278243ae7d011e90d073629dfc92fda8e9f319c6fd554811015610c93576000527fbc351ae7fa32df0c8ad57278243ae7d011e90d073629dfc92fda8e9f319c6fcc602052604080600020610256610c8c600483015492600360028201549101549084611675565b809261134d565b7f92fa6fd30000000000000000000000000000000000000000000000000000000060005260046000fd5b3461018d5760407ffffffffffffffffffffffffffffffffffffffffffffffffffffffffffffffffc36011261018d57610cf461114c565b610cfc6112f1565b506004356000527fbc351ae7fa32df0c8ad57278243ae7d011e90d073629dfc92fda8e9f319c6fce60205273ffffffffffffffffffffffffffffffffffffffff604060002091166000526020526080610b0a6040600020611316565b3461018d5760007ffffffffffffffffffffffffffffffffffffffffffffffffffffffffffffffffc36011261018d57602073ffffffffffffffffffffffffffffffffffffffff7fbc351ae7fa32df0c8ad57278243ae7d011e90d073629dfc92fda8e9f319c6fe05416604051908152f35b3461018d5760007ffffffffffffffffffffffffffffffffffffffffffffffffffffffffffffffffc36011261018d5760207fb4e10a4811f331e910bbd821832ab85ed1158088534d96bdd9d92f6de8be798154604051908152f35b3461018d5760207ffffffffffffffffffffffffffffffffffffffffffffffffffffffffffffffffc36011261018d5760006020604051610e6381611210565b82815201526004356000527fbc351ae7fa32df0c8ad57278243ae7d011e90d073629dfc92fda8e9f319c6fd06020526040806000208151610ea381611210565b60206001835493848452015491019081528251918252516020820152f35b3461018d5760207ffffffffffffffffffffffffffffffffffffffffffffffffffffffffffffffffc36011261018d576004357fbc351ae7fa32df0c8ad57278243ae7d011e90d073629dfc92fda8e9f319c6fd554811015610c9357806000527fbc351ae7fa32df0c8ad57278243ae7d011e90d073629dfc92fda8e9f319c6fcc602052610f516040600020611648565b60078110156108c95780610f9a57506000527fbc351ae7fa32df0c8ad57278243ae7d011e90d073629dfc92fda8e9f319c6fcc6020526020600460406000200154604051908152f35b610fc7907fabe418b7000000000000000000000000000000000000000000000000000000006000526111a3565b60246000fd5b3461018d5760007ffffffffffffffffffffffffffffffffffffffffffffffffffffffffffffffffc36011261018d57602073ffffffffffffffffffffffffffffffffffffffff7fb4e10a4811f331e910bbd821832ab85ed1158088534d96bdd9d92f6de8be79825416604051908152f35b3461018d5760607ffffffffffffffffffffffffffffffffffffffffffffffffffffffffffffffffc36011261018d5761107561114c565b61107d6112f1565b506004356000527fbc351ae7fa32df0c8ad57278243ae7d011e90d073629dfc92fda8e9f319c6fcd60205273ffffffffffffffffffffffffffffffffffffffff6040600020911660005260205260406000206044356000526020526080610b0a6040600020611316565b3461018d5760207ffffffffffffffffffffffffffffffffffffffffffffffffffffffffffffffffc36011261018d576020906004356000527fbc351ae7fa32df0c8ad57278243ae7d011e90d073629dfc92fda8e9f319c6fd382526040600020548152f35b6024359073ffffffffffffffffffffffffffffffffffffffff8216820361018d57565b7ffffffffffffffffffffffffffffffffffffffffffffffffffffffffffffffffc604091011261018d576004359060243590565b60078110156108c957600452565b919082519283825260005b8481106111fb5750507fffffffffffffffffffffffffffffffffffffffffffffffffffffffffffffffe0601f8460006020809697860101520116010190565b806020809284010151828286010152016111bc565b6040810190811067ffffffffffffffff82111761122c57604052565b7f4e487b7100000000000000000000000000000000000000000000000000000000600052604160045260246000fd5b610160810190811067ffffffffffffffff82111761122c57604052565b6060810190811067ffffffffffffffff82111761122c57604052565b6080810190811067ffffffffffffffff82111761122c57604052565b90601f7fffffffffffffffffffffffffffffffffffffffffffffffffffffffffffffffe0910116810190811067ffffffffffffffff82111761122c57604052565b604051906112fe82611294565b60006060838281528260208201528260408201520152565b9060405161132381611294565b60606003829460ff8154161515845260018101546020850152600281015460408501520154910152565b9190820391821161135a57565b7f4e487b7100000000000000000000000000000000000000000000000000000000600052601160045260246000fd5b600092918154918260011c92600181168015611466575b602085108114611437578484529081156113fb57506001146113c157505050565b60009081526020812093945091925b8383106113e1575060209250010190565b6001816020929493945483858701015201910191906113d0565b905060209495507fffffffffffffffffffffffffffffffffffffffffffffffffffffffffffffff0091509291921683830152151560051b010190565b7f4e487b7100000000000000000000000000000000000000000000000000000000600052602260045260246000fd5b93607f16936113a0565b806000527fbc351ae7fa32df0c8ad57278243ae7d011e90d073629dfc92fda8e9f319c6fcc602052604060002091604051906020820182811067ffffffffffffffff82111761122c57604052600082526114e66001850192604051906114e1826114da8188611389565b03836112b0565b6116a2565b6115f957826000527fbc351ae7fa32df0c8ad57278243ae7d011e90d073629dfc92fda8e9f319c6fcf6020526040600020604051611528816103238187611389565b60208151910120600052602052600360406000200154156115f057826000527fbc351ae7fa32df0c8ad57278243ae7d011e90d073629dfc92fda8e9f319c6fcd60205273ffffffffffffffffffffffffffffffffffffffff604060002091166000526020526103236115a560406000209260405192838092611389565b6020815191012060005260205260ff604060002092541660078110156108c957600181036115df575060036115dc920154906116bc565b90565b91505060028103610f9a5750600090565b50505050600090565b7fc74a206d0000000000000000000000000000000000000000000000000000000060005260046000fd5b9190820180921161135a57565b67ffffffffffffffff811161122c5760051b60200190565b60ff8154169060078210156108c9578115611661575090565b6003015442101561166f5790565b50600390565b90914281101561169c576116966115dc93611690428461134d565b9261134d565b91611887565b50905090565b8051908251918281036115f0576020809201209201201490565b90816000527fbc351ae7fa32df0c8ad57278243ae7d011e90d073629dfc92fda8e9f319c6fcc602052604060002090826000527fbc351ae7fa32df0c8ad57278243ae7d011e90d073629dfc92fda8e9f319c6fcf6020526001604060002092019160405161172e816103238187611389565b602081519101206000526020526003604060002001549182156115f057836117df916115dc956000527fbc351ae7fa32df0c8ad57278243ae7d011e90d073629dfc92fda8e9f319c6fcf60205261032361179360406000209260405192838092611389565b60208151910120600052602052600260406000200154906000527fbc351ae7fa32df0c8ad57278243ae7d011e90d073629dfc92fda8e9f319c6fd060205260016040600020015461134d565b611887565b9190916000838202917fffffffffffffffffffffffffffffffffffffffffffffffffffffffffffffffff8582099183808410930392808403931461187a5782612710111561186857507fbc01a36e2eb1c432ca57a786c226809d495182a9930be0ded288ce703afb7e919394612710910990828211900360fc1b910360041c170290565b634e487b71905260116020526024601cfd5b5050506127109192500490565b91818302917fffffffffffffffffffffffffffffffffffffffffffffffffffffffffffffffff8185099383808610950394808603951461193957848311156119205790829109816000038216809204600281600302188082026002030280820260020302808202600203028082026002030280820260020302809102600203029360018380600003040190848311900302920304170290565b82634e487b71600052156003026011186020526024601cfd5b505080925015611947570490565b7f4e487b7100000000000000000000000000000000000000000000000000000000600052601260045260246000fd5b9080820282810482148315171561135a576127101161018d576115dc916117e456fea26469706673582212202011a5a3a2853862251bc1c876653441fa6f981893a601ee8a7730331c89f31c64736f6c634300081c0033",
  "linkReferences": {},
  "deployedLinkReferences": {}
}