{
  "_format": "hh-sol-artifact-1",
  "contractName": "ChallengePoolView",
  "sourceName": "contracts/modules/ChallengePoolView.sol",
  "abi": [
    {
      "inputs": [
        {
          "internalType": "enum IChallengePoolCommon.ChallengeState",
          "name": "_state",
          "type": "uint8"
        }
      ],
      "name": "ActionNotAllowedForState",
      "type": "error"
    },
    {
      "inputs": [],
      "name": "InvalidChallenge",
      "type": "error"
    },
    {
      "inputs": [],
      "name": "InvalidOutcome",
      "type": "error"
    },
    {
      "inputs": [
        {
          "internalType": "uint256",
          "name": "_challengeId",
          "type": "uint256"
        }
      ],
      "name": "challenges",
      "outputs": [
        {
          "components": [
            {
              "internalType": "enum IChallengePoolCommon.ChallengeState",
              "name": "state",
              "type": "uint8"
            },
            {
              "internalType": "bool",
              "name": "multi",
              "type": "bool"
            },
            {
              "internalType": "bytes",
              "name": "outcome",
              "type": "bytes"
            },
            {
              "internalType": "uint256",
              "name": "createdAt",
              "type": "uint256"
            },
            {
              "internalType": "uint256",
              "name": "maturity",
              "type": "uint256"
            },
            {
              "internalType": "uint256",
              "name": "basePrice",
              "type": "uint256"
            },
            {
              "internalType": "address",
              "name": "stakeToken",
              "type": "address"
            },
            {
              "components": [
                {
                  "internalType": "bytes",
                  "name": "params",
                  "type": "bytes"
                },
                {
                  "internalType": "string",
                  "name": "topicId",
                  "type": "string"
                },
                {
                  "internalType": "uint256",
                  "name": "maturity",
                  "type": "uint256"
                }
              ],
              "internalType": "struct IChallengePoolCommon.ChallengeEvent[]",
              "name": "events",
              "type": "tuple[]"
            },
            {
              "internalType": "bytes[]",
              "name": "options",
              "type": "bytes[]"
            },
            {
              "internalType": "bool",
              "name": "disputed",
              "type": "bool"
            },
            {
              "internalType": "uint256",
              "name": "lastOutcomeSet",
              "type": "uint256"
            }
          ],
          "internalType": "struct IChallengePoolCommon.Challenge",
          "name": "",
          "type": "tuple"
        }
      ],
      "stateMutability": "view",
      "type": "function"
    },
    {
      "inputs": [
        {
          "internalType": "uint256",
          "name": "_price",
          "type": "uint256"
        }
      ],
      "name": "createFee",
      "outputs": [
        {
          "internalType": "uint256",
          "name": "fee",
          "type": "uint256"
        },
        {
          "internalType": "uint256",
          "name": "feePlusPrice",
          "type": "uint256"
        }
      ],
      "stateMutability": "view",
      "type": "function"
    },
    {
      "inputs": [
        {
          "internalType": "bytes32",
          "name": "_requestId",
          "type": "bytes32"
        }
      ],
      "name": "dataRequest",
      "outputs": [
        {
          "components": [
            {
              "internalType": "bytes",
              "name": "requested",
              "type": "bytes"
            },
            {
              "internalType": "bytes",
              "name": "provided",
              "type": "bytes"
            },
            {
              "internalType": "bool",
              "name": "register",
              "type": "bool"
            }
          ],
          "internalType": "struct IDataProvider.DataRequest",
          "name": "",
          "type": "tuple"
        }
      ],
      "stateMutability": "view",
      "type": "function"
    },
    {
      "inputs": [
        {
          "internalType": "uint256",
          "name": "_price",
          "type": "uint256"
        }
      ],
      "name": "earlyWithdrawFee",
      "outputs": [
        {
          "internalType": "uint256",
          "name": "fee",
          "type": "uint256"
        },
        {
          "internalType": "uint256",
          "name": "feePlusPrice",
          "type": "uint256"
        }
      ],
      "stateMutability": "view",
      "type": "function"
    },
    {
      "inputs": [
        {
          "internalType": "uint256",
          "name": "_challengeId",
          "type": "uint256"
        }
      ],
      "name": "earlyWithdrawPenalty",
      "outputs": [
        {
          "internalType": "uint256",
          "name": "penalty",
          "type": "uint256"
        },
        {
          "internalType": "uint256",
          "name": "priceMinusPenalty",
          "type": "uint256"
        }
      ],
      "stateMutability": "view",
      "type": "function"
    },
    {
      "inputs": [
        {
          "internalType": "address",
          "name": "_token",
          "type": "address"
        }
      ],
      "name": "getAccumulatedFee",
      "outputs": [
        {
          "internalType": "uint256",
          "name": "",
          "type": "uint256"
        }
      ],
      "stateMutability": "view",
      "type": "function"
    },
    {
      "inputs": [],
      "name": "maxClaim",
      "outputs": [
        {
          "internalType": "uint256",
          "name": "",
          "type": "uint256"
        }
      ],
      "stateMutability": "view",
      "type": "function"
    },
    {
      "inputs": [],
      "name": "minPoolMaturity",
      "outputs": [
        {
          "internalType": "uint256",
          "name": "",
          "type": "uint256"
        }
      ],
      "stateMutability": "view",
      "type": "function"
    },
    {
      "inputs": [
        {
          "internalType": "uint256",
          "name": "_challengeId",
          "type": "uint256"
        },
        {
          "internalType": "bytes32",
          "name": "_option",
          "type": "bytes32"
        }
      ],
      "name": "optionDisputes",
      "outputs": [
        {
          "internalType": "uint256",
          "name": "",
          "type": "uint256"
        }
      ],
      "stateMutability": "view",
      "type": "function"
    },
    {
      "inputs": [
        {
          "internalType": "uint256",
          "name": "_challengeId",
          "type": "uint256"
        },
        {
          "internalType": "bytes32",
          "name": "_option",
          "type": "bytes32"
        }
      ],
      "name": "optionSupply",
      "outputs": [
        {
          "components": [
            {
              "internalType": "bool",
              "name": "exists",
              "type": "bool"
            },
            {
              "internalType": "uint256",
              "name": "stakes",
              "type": "uint256"
            },
            {
              "internalType": "uint256",
              "name": "tokens",
              "type": "uint256"
            },
            {
              "internalType": "uint256",
              "name": "rewards",
              "type": "uint256"
            }
          ],
          "internalType": "struct IChallengePoolHandler.OptionSupply",
          "name": "",
          "type": "tuple"
        }
      ],
      "stateMutability": "view",
      "type": "function"
    },
    {
      "inputs": [],
      "name": "paymaster",
      "outputs": [
        {
          "internalType": "address",
          "name": "",
          "type": "address"
        }
      ],
      "stateMutability": "view",
      "type": "function"
    },
    {
      "inputs": [
        {
          "internalType": "uint256",
          "name": "_challengeId",
          "type": "uint256"
        },
        {
          "internalType": "address",
          "name": "_player",
          "type": "address"
        }
      ],
      "name": "playerDisputes",
      "outputs": [
        {
          "components": [
            {
              "internalType": "bytes",
              "name": "dispute",
              "type": "bytes"
            },
            {
              "internalType": "uint256",
              "name": "stake",
              "type": "uint256"
            },
            {
              "internalType": "bool",
              "name": "released",
              "type": "bool"
            }
          ],
          "internalType": "struct IChallengePoolDispute.Dispute",
          "name": "",
          "type": "tuple"
        }
      ],
      "stateMutability": "view",
      "type": "function"
    },
    {
      "inputs": [
        {
          "internalType": "uint256",
          "name": "_challengeId",
          "type": "uint256"
        },
        {
          "internalType": "address",
          "name": "_player",
          "type": "address"
        },
        {
          "internalType": "bytes32",
          "name": "_option",
          "type": "bytes32"
        }
      ],
      "name": "playerOptionSupply",
      "outputs": [
        {
          "components": [
            {
              "internalType": "bool",
              "name": "withdrawn",
              "type": "bool"
            },
            {
              "internalType": "uint256",
              "name": "stakes",
              "type": "uint256"
            },
            {
              "internalType": "uint256",
              "name": "tokens",
              "type": "uint256"
            },
            {
              "internalType": "uint256",
              "name": "rewards",
              "type": "uint256"
            }
          ],
          "internalType": "struct IChallengePoolHandler.PlayerSupply",
          "name": "",
          "type": "tuple"
        }
      ],
      "stateMutability": "view",
      "type": "function"
    },
    {
      "inputs": [
        {
          "internalType": "uint256",
          "name": "_challengeId",
          "type": "uint256"
        },
        {
          "internalType": "address",
          "name": "_player",
          "type": "address"
        }
      ],
      "name": "playerSupply",
      "outputs": [
        {
          "components": [
            {
              "internalType": "bool",
              "name": "withdrawn",
              "type": "bool"
            },
            {
              "internalType": "uint256",
              "name": "stakes",
              "type": "uint256"
            },
            {
              "internalType": "uint256",
              "name": "tokens",
              "type": "uint256"
            },
            {
              "internalType": "uint256",
              "name": "rewards",
              "type": "uint256"
            }
          ],
          "internalType": "struct IChallengePoolHandler.PlayerSupply",
          "name": "",
          "type": "tuple"
        }
      ],
      "stateMutability": "view",
      "type": "function"
    },
    {
      "inputs": [
        {
          "internalType": "uint256",
          "name": "_challengeId",
          "type": "uint256"
        }
      ],
      "name": "poolDisputes",
      "outputs": [
        {
          "internalType": "uint256",
          "name": "",
          "type": "uint256"
        }
      ],
      "stateMutability": "view",
      "type": "function"
    },
    {
      "inputs": [
        {
          "internalType": "uint256",
          "name": "_challengeId",
          "type": "uint256"
        }
      ],
      "name": "poolSupply",
      "outputs": [
        {
          "components": [
            {
              "internalType": "uint256",
              "name": "stakes",
              "type": "uint256"
            },
            {
              "internalType": "uint256",
              "name": "tokens",
              "type": "uint256"
            }
          ],
          "internalType": "struct IChallengePoolHandler.Supply",
          "name": "",
          "type": "tuple"
        }
      ],
      "stateMutability": "view",
      "type": "function"
    },
    {
      "inputs": [
        {
          "internalType": "uint256",
          "name": "_challengeId",
          "type": "uint256"
        }
      ],
      "name": "price",
      "outputs": [
        {
          "internalType": "uint256",
          "name": "",
          "type": "uint256"
        }
      ],
      "stateMutability": "view",
      "type": "function"
    },
    {
      "inputs": [
        {
          "internalType": "bytes32",
          "name": "_requestId",
          "type": "bytes32"
        },
        {
          "internalType": "bytes32",
          "name": "_option",
          "type": "bytes32"
        }
      ],
      "name": "requestOptions",
      "outputs": [
        {
          "internalType": "bool",
          "name": "",
          "type": "bool"
        }
      ],
      "stateMutability": "view",
      "type": "function"
    },
    {
      "inputs": [],
      "name": "stakeAirDrop",
      "outputs": [
        {
          "internalType": "uint256",
          "name": "",
          "type": "uint256"
        }
      ],
      "stateMutability": "view",
      "type": "function"
    },
    {
      "inputs": [
        {
          "internalType": "uint256",
          "name": "_price",
          "type": "uint256"
        }
      ],
      "name": "stakeFee",
      "outputs": [
        {
          "internalType": "uint256",
          "name": "fee",
          "type": "uint256"
        },
        {
          "internalType": "uint256",
          "name": "feePlusPrice",
          "type": "uint256"
        }
      ],
      "stateMutability": "view",
      "type": "function"
    },
    {
      "inputs": [
        {
          "internalType": "uint256",
          "name": "_challengeId",
          "type": "uint256"
        },
        {
          "internalType": "address",
          "name": "_player",
          "type": "address"
        }
      ],
      "name": "winnerShare",
      "outputs": [
        {
          "internalType": "uint256",
          "name": "",
          "type": "uint256"
        }
      ],
      "stateMutability": "view",
      "type": "function"
    }
  ],
  "bytecode": "0x60808060405234601557611952908161001b8239f35b600080fdfe608080604052600436101561001357600080fd5b60003560e01c908163038590e81461106b575080630bf6f7d714610fc257806316e4cbf914610f5157806326a49e3714610e455780632fa05b2914610da857806331dc3aac14610d4d5780634c267e2714610cb25780634d5fb21014610bdc5780635971512114610b905780635c4cb59914610b2e578063726845bb14610aa55780637ae530d814610a43578063821415c5146109f15780638e9dafdb146109675780638f1d3776146104f65780639d6d419b1461049b578063b4789d481461036d578063ba038f3214610257578063cd819f46146101e2578063d4938db3146101875763eb1ca6931461010657600080fd5b346101825760407ffffffffffffffffffffffffffffffffffffffffffffffffffffffffffffffffc360112610182576004356000527fde1d81bc9860c075d76ad153e67ec9a4f01e6b3b42e3792f5f132c7f173401416020526040600020602435600052602052602060ff604060002054166040519015158152f35b600080fd5b346101825760007ffffffffffffffffffffffffffffffffffffffffffffffffffffffffffffffffc3601126101825760207fb4e10a4811f331e910bbd821832ab85ed1158088534d96bdd9d92f6de8be798354604051908152f35b346101825760207ffffffffffffffffffffffffffffffffffffffffffffffffffffffffffffffffc36011261018257604060043561024b6102447fbc351ae7fa32df0c8ad57278243ae7d011e90d073629dfc92fda8e9f319c6fd854836118fa565b80926115a7565b82519182526020820152f35b346101825760407ffffffffffffffffffffffffffffffffffffffffffffffffffffffffffffffffc3601126101825761035a60406102936110d0565b60008280516102a1816111fc565b6060815282602082015201526004356000527fbc351ae7fa32df0c8ad57278243ae7d011e90d073629dfc92fda8e9f319c6fd16020528160002073ffffffffffffffffffffffffffffffffffffffff6000921682526020522060405190610307826111fc565b60405161031f81610318818561130d565b0382611234565b825260ff6002600183015492602085019384520154166040830190151581526040519384936020855251606060208601526080850190611135565b9151604084015251151560608301520390f35b346101825760207ffffffffffffffffffffffffffffffffffffffffffffffffffffffffffffffffc360112610182576000604080516103ab816111fc565b606081526060602082015201526004356000527fde1d81bc9860c075d76ad153e67ec9a4f01e6b3b42e3792f5f132c7f1734014060205261045d6040600020604051906103f7826111fc565b60405161040881610318818561130d565b825261048e60ff60026040519361042d85610426816001850161130d565b0386611234565b60208601948552015416916040840192151583526040519485946020865251606060208701526080860190611135565b90517fffffffffffffffffffffffffffffffffffffffffffffffffffffffffffffffe0858303016040860152611135565b9051151560608301520390f35b346101825760007ffffffffffffffffffffffffffffffffffffffffffffffffffffffffffffffffc3601126101825760207fb4e10a4811f331e910bbd821832ab85ed1158088534d96bdd9d92f6de8be798554604051908152f35b346101825760207ffffffffffffffffffffffffffffffffffffffffffffffffffffffffffffffffc360112610182576000610140604051610536816111df565b828152826020820152606060408201528260608201528260808201528260a08201528260c0820152606060e082015260606101008201528261012082015201526004356000527fbc351ae7fa32df0c8ad57278243ae7d011e90d073629dfc92fda8e9f319c6fcc60205260406000206040516105b1816111df565b81549160ff831660078110156108be57825260ff602083019360081c16151583526040516105e681610318816001860161130d565b60408301908152600282015493606084019485526003830154906080850191825260048401549060a0860191825273ffffffffffffffffffffffffffffffffffffffff60058601541660c0870190815260068601928354610646816115b4565b946106546040519687611234565b818652602086019060005260206000206000915b838310610912575050505060e088019384526007870194855461068a816115b4565b966106986040519889611234565b818852602088019060005260206000206000915b8383106108ed57505050506101008901958652600960ff60088a015416986101208b019915158a520154966101408a019788526040519960208b52519060078210156108be5773ffffffffffffffffffffffffffffffffffffffff9561072d9260208d015251151560408c01525161016060608c01526101808b0190611135565b995160808a01525160a08901525160c0880152511660e086015251947fffffffffffffffffffffffffffffffffffffffffffffffffffffffffffffffe085820301610100860152855180825260208201916020808360051b8301019801926000915b83831061084b57505050505051917fffffffffffffffffffffffffffffffffffffffffffffffffffffffffffffffe084860301610120850152825180865260208601906020808260051b8901019501916000905b8282106108025784511515610140890152855161016089015287870388f35b9091929560208061083d837fffffffffffffffffffffffffffffffffffffffffffffffffffffffffffffffe08d600196030186528a51611135565b9801920192019092916107e3565b9091929398602080827fffffffffffffffffffffffffffffffffffffffffffffffffffffffffffffffe085600195030186528c51906040806108a96108998551606086526060860190611135565b8686015185820388870152611135565b9301519101529b01930193019193929061078f565b7f4e487b7100000000000000000000000000000000000000000000000000000000600052602160045260246000fd5b60016020819260405161090481610318818961130d565b8152019201920191906106ac565b60036020600192604051610925816111fc565b60405161093681610318818a61130d565b815260405161094b8161031881898b0161130d565b8382015260028601546040820152815201920192019190610668565b346101825760207ffffffffffffffffffffffffffffffffffffffffffffffffffffffffffffffffc3601126101825760043573ffffffffffffffffffffffffffffffffffffffff8116809103610182576000527fbc351ae7fa32df0c8ad57278243ae7d011e90d073629dfc92fda8e9f319c6fd46020526020600160406000200154604051908152f35b34610182576109ff366110f3565b906000527fbc351ae7fa32df0c8ad57278243ae7d011e90d073629dfc92fda8e9f319c6fd26020526040600020906000526020526020604060002054604051908152f35b346101825760207ffffffffffffffffffffffffffffffffffffffffffffffffffffffffffffffffc36011261018257604060043561024b6102447fbc351ae7fa32df0c8ad57278243ae7d011e90d073629dfc92fda8e9f319c6fd754836118fa565b3461018257610ab3366110f3565b90610abc611275565b506000527fbc351ae7fa32df0c8ad57278243ae7d011e90d073629dfc92fda8e9f319c6fcf6020526040600020906000526020526080610aff604060002061129a565b610b2c60405180926060809180511515845260208101516020850152604081015160408501520151910152565bf35b346101825760207ffffffffffffffffffffffffffffffffffffffffffffffffffffffffffffffffc36011261018257604060043561024b6102447fbc351ae7fa32df0c8ad57278243ae7d011e90d073629dfc92fda8e9f319c6fd654836118fa565b346101825760407ffffffffffffffffffffffffffffffffffffffffffffffffffffffffffffffffc360112610182576020610bd4610bcc6110d0565b6004356113f4565b604051908152f35b346101825760207ffffffffffffffffffffffffffffffffffffffffffffffffffffffffffffffffc360112610182576004357fbc351ae7fa32df0c8ad57278243ae7d011e90d073629dfc92fda8e9f319c6fd554811015610c88576000527fbc351ae7fa32df0c8ad57278243ae7d011e90d073629dfc92fda8e9f319c6fcc60205260408060002061024b610c816004830154926003600282015491015490846115f9565b80926112d1565b7f92fa6fd30000000000000000000000000000000000000000000000000000000060005260046000fd5b346101825760407ffffffffffffffffffffffffffffffffffffffffffffffffffffffffffffffffc36011261018257610ce96110d0565b610cf1611275565b506004356000527fbc351ae7fa32df0c8ad57278243ae7d011e90d073629dfc92fda8e9f319c6fce60205273ffffffffffffffffffffffffffffffffffffffff604060002091166000526020526080610aff604060002061129a565b346101825760007ffffffffffffffffffffffffffffffffffffffffffffffffffffffffffffffffc3601126101825760207fb4e10a4811f331e910bbd821832ab85ed1158088534d96bdd9d92f6de8be798154604051908152f35b346101825760207ffffffffffffffffffffffffffffffffffffffffffffffffffffffffffffffffc3601126101825760006020604051610de781611194565b82815201526004356000527fbc351ae7fa32df0c8ad57278243ae7d011e90d073629dfc92fda8e9f319c6fd06020526040806000208151610e2781611194565b60206001835493848452015491019081528251918252516020820152f35b346101825760207ffffffffffffffffffffffffffffffffffffffffffffffffffffffffffffffffc360112610182576004357fbc351ae7fa32df0c8ad57278243ae7d011e90d073629dfc92fda8e9f319c6fd554811015610c8857806000527fbc351ae7fa32df0c8ad57278243ae7d011e90d073629dfc92fda8e9f319c6fcc602052610ed560406000206115cc565b60078110156108be5780610f1e57506000527fbc351ae7fa32df0c8ad57278243ae7d011e90d073629dfc92fda8e9f319c6fcc6020526020600460406000200154604051908152f35b610f4b907fabe418b700000000000000000000000000000000000000000000000000000000600052611127565b60246000fd5b346101825760007ffffffffffffffffffffffffffffffffffffffffffffffffffffffffffffffffc36011261018257602073ffffffffffffffffffffffffffffffffffffffff7fb4e10a4811f331e910bbd821832ab85ed1158088534d96bdd9d92f6de8be79825416604051908152f35b346101825760607ffffffffffffffffffffffffffffffffffffffffffffffffffffffffffffffffc36011261018257610ff96110d0565b611001611275565b506004356000527fbc351ae7fa32df0c8ad57278243ae7d011e90d073629dfc92fda8e9f319c6fcd60205273ffffffffffffffffffffffffffffffffffffffff6040600020911660005260205260406000206044356000526020526080610aff604060002061129a565b346101825760207ffffffffffffffffffffffffffffffffffffffffffffffffffffffffffffffffc360112610182576020906004356000527fbc351ae7fa32df0c8ad57278243ae7d011e90d073629dfc92fda8e9f319c6fd382526040600020548152f35b6024359073ffffffffffffffffffffffffffffffffffffffff8216820361018257565b7ffffffffffffffffffffffffffffffffffffffffffffffffffffffffffffffffc6040910112610182576004359060243590565b60078110156108be57600452565b919082519283825260005b84811061117f5750507fffffffffffffffffffffffffffffffffffffffffffffffffffffffffffffffe0601f8460006020809697860101520116010190565b80602080928401015182828601015201611140565b6040810190811067ffffffffffffffff8211176111b057604052565b7f4e487b7100000000000000000000000000000000000000000000000000000000600052604160045260246000fd5b610160810190811067ffffffffffffffff8211176111b057604052565b6060810190811067ffffffffffffffff8211176111b057604052565b6080810190811067ffffffffffffffff8211176111b057604052565b90601f7fffffffffffffffffffffffffffffffffffffffffffffffffffffffffffffffe0910116810190811067ffffffffffffffff8211176111b057604052565b6040519061128282611218565b60006060838281528260208201528260408201520152565b906040516112a781611218565b60606003829460ff8154161515845260018101546020850152600281015460408501520154910152565b919082039182116112de57565b7f4e487b7100000000000000000000000000000000000000000000000000000000600052601160045260246000fd5b600092918154918260011c926001811680156113ea575b6020851081146113bb5784845290811561137f575060011461134557505050565b60009081526020812093945091925b838310611365575060209250010190565b600181602092949394548385870101520191019190611354565b905060209495507fffffffffffffffffffffffffffffffffffffffffffffffffffffffffffffff0091509291921683830152151560051b010190565b7f4e487b7100000000000000000000000000000000000000000000000000000000600052602260045260246000fd5b93607f1693611324565b806000527fbc351ae7fa32df0c8ad57278243ae7d011e90d073629dfc92fda8e9f319c6fcc602052604060002091604051906020820182811067ffffffffffffffff8211176111b0576040526000825261146a6001850192604051906114658261145e818861130d565b0383611234565b611626565b61157d57826000527fbc351ae7fa32df0c8ad57278243ae7d011e90d073629dfc92fda8e9f319c6fcf60205260406000206040516114ac81610318818761130d565b602081519101206000526020526003604060002001541561157457826000527fbc351ae7fa32df0c8ad57278243ae7d011e90d073629dfc92fda8e9f319c6fcd60205273ffffffffffffffffffffffffffffffffffffffff604060002091166000526020526103186115296040600020926040519283809261130d565b6020815191012060005260205260ff604060002092541660078110156108be57600181036115635750600361156092015490611640565b90565b91505060028103610f1e5750600090565b50505050600090565b7fc74a206d0000000000000000000000000000000000000000000000000000000060005260046000fd5b919082018092116112de57565b67ffffffffffffffff81116111b05760051b60200190565b60ff8154169060078210156108be5781156115e5575090565b600301544210156115f35790565b50600390565b9091428110156116205761161a6115609361161442846112d1565b926112d1565b9161180b565b50905090565b805190825191828103611574576020809201209201201490565b90816000527fbc351ae7fa32df0c8ad57278243ae7d011e90d073629dfc92fda8e9f319c6fcc602052604060002090826000527fbc351ae7fa32df0c8ad57278243ae7d011e90d073629dfc92fda8e9f319c6fcf602052600160406000209201916040516116b281610318818761130d565b60208151910120600052602052600360406000200154918215611574578361176391611560956000527fbc351ae7fa32df0c8ad57278243ae7d011e90d073629dfc92fda8e9f319c6fcf6020526103186117176040600020926040519283809261130d565b60208151910120600052602052600260406000200154906000527fbc351ae7fa32df0c8ad57278243ae7d011e90d073629dfc92fda8e9f319c6fd06020526001604060002001546112d1565b61180b565b9190916000838202917fffffffffffffffffffffffffffffffffffffffffffffffffffffffffffffffff858209918380841093039280840393146117fe578261271011156117ec57507fbc01a36e2eb1c432ca57a786c226809d495182a9930be0ded288ce703afb7e919394612710910990828211900360fc1b910360041c170290565b634e487b71905260116020526024601cfd5b5050506127109192500490565b91818302917fffffffffffffffffffffffffffffffffffffffffffffffffffffffffffffffff818509938380861095039480860395146118bd57848311156118a45790829109816000038216809204600281600302188082026002030280820260020302808202600203028082026002030280820260020302809102600203029360018380600003040190848311900302920304170290565b82634e487b71600052156003026011186020526024601cfd5b5050809250156118cb570490565b7f4e487b7100000000000000000000000000000000000000000000000000000000600052601260045260246000fd5b908082028281048214831517156112de5761271011610182576115609161176856fea264697066735822122032a8c47b4782042d2ed17533901e1b73d5540886952c1fdf7712fd621b4591e164736f6c634300081c0033",
  "linkReferences": {},
  "deployedLinkReferences": {}
}