{
  "_format": "hh-sol-artifact-1",
  "contractName": "ChallengePoolView",
  "sourceName": "contracts/modules/ChallengePoolView.sol",
  "abi": [
    {
      "inputs": [
        {
          "internalType": "enum IChallengePoolCommon.ChallengeState",
          "name": "_state",
          "type": "uint8"
        }
      ],
      "name": "ActionNotAllowedForState",
      "type": "error"
    },
    {
      "inputs": [],
      "name": "InvalidChallenge",
      "type": "error"
    },
    {
      "inputs": [],
      "name": "InvalidOutcome",
      "type": "error"
    },
    {
      "inputs": [
        {
          "internalType": "uint256",
          "name": "_challengeId",
          "type": "uint256"
        }
      ],
      "name": "challenges",
      "outputs": [
        {
          "components": [
            {
              "internalType": "enum IChallengePoolCommon.ChallengeState",
              "name": "state",
              "type": "uint8"
            },
            {
              "internalType": "bool",
              "name": "multi",
              "type": "bool"
            },
            {
              "internalType": "bytes",
              "name": "outcome",
              "type": "bytes"
            },
            {
              "internalType": "uint256",
              "name": "createdAt",
              "type": "uint256"
            },
            {
              "internalType": "uint256",
              "name": "maturity",
              "type": "uint256"
            },
            {
              "internalType": "uint256",
              "name": "basePrice",
              "type": "uint256"
            },
            {
              "internalType": "address",
              "name": "stakeToken",
              "type": "address"
            },
            {
              "components": [
                {
                  "internalType": "bytes",
                  "name": "params",
                  "type": "bytes"
                },
                {
                  "internalType": "string",
                  "name": "topicId",
                  "type": "string"
                },
                {
                  "internalType": "uint256",
                  "name": "maturity",
                  "type": "uint256"
                }
              ],
              "internalType": "struct IChallengePoolCommon.ChallengeEvent[]",
              "name": "events",
              "type": "tuple[]"
            },
            {
              "internalType": "bytes[]",
              "name": "options",
              "type": "bytes[]"
            },
            {
              "internalType": "bool",
              "name": "disputed",
              "type": "bool"
            },
            {
              "internalType": "uint256",
              "name": "lastOutcomeSet",
              "type": "uint256"
            }
          ],
          "internalType": "struct IChallengePoolCommon.Challenge",
          "name": "",
          "type": "tuple"
        }
      ],
      "stateMutability": "view",
      "type": "function"
    },
    {
      "inputs": [
        {
          "internalType": "uint256",
          "name": "_price",
          "type": "uint256"
        }
      ],
      "name": "createFee",
      "outputs": [
        {
          "internalType": "uint256",
          "name": "fee",
          "type": "uint256"
        },
        {
          "internalType": "uint256",
          "name": "feePlusPrice",
          "type": "uint256"
        }
      ],
      "stateMutability": "view",
      "type": "function"
    },
    {
      "inputs": [
        {
          "internalType": "bytes32",
          "name": "_requestId",
          "type": "bytes32"
        }
      ],
      "name": "dataRequest",
      "outputs": [
        {
          "components": [
            {
              "internalType": "bytes",
              "name": "requested",
              "type": "bytes"
            },
            {
              "internalType": "bytes",
              "name": "provided",
              "type": "bytes"
            },
            {
              "internalType": "bool",
              "name": "register",
              "type": "bool"
            }
          ],
          "internalType": "struct IDataProvider.DataRequest",
          "name": "",
          "type": "tuple"
        }
      ],
      "stateMutability": "view",
      "type": "function"
    },
    {
      "inputs": [
        {
          "internalType": "uint256",
          "name": "_price",
          "type": "uint256"
        }
      ],
      "name": "earlyWithdrawFee",
      "outputs": [
        {
          "internalType": "uint256",
          "name": "fee",
          "type": "uint256"
        },
        {
          "internalType": "uint256",
          "name": "feePlusPrice",
          "type": "uint256"
        }
      ],
      "stateMutability": "view",
      "type": "function"
    },
    {
      "inputs": [
        {
          "internalType": "uint256",
          "name": "_challengeId",
          "type": "uint256"
        }
      ],
      "name": "earlyWithdrawPenalty",
      "outputs": [
        {
          "internalType": "uint256",
          "name": "penalty",
          "type": "uint256"
        },
        {
          "internalType": "uint256",
          "name": "priceMinusPenalty",
          "type": "uint256"
        }
      ],
      "stateMutability": "view",
      "type": "function"
    },
    {
      "inputs": [
        {
          "internalType": "address",
          "name": "_token",
          "type": "address"
        }
      ],
      "name": "getAccumulatedFee",
      "outputs": [
        {
          "internalType": "uint256",
          "name": "",
          "type": "uint256"
        }
      ],
      "stateMutability": "view",
      "type": "function"
    },
    {
      "inputs": [],
      "name": "maxClaim",
      "outputs": [
        {
          "internalType": "uint256",
          "name": "",
          "type": "uint256"
        }
      ],
      "stateMutability": "view",
      "type": "function"
    },
    {
      "inputs": [
        {
          "internalType": "uint256",
          "name": "_challengeId",
          "type": "uint256"
        },
        {
          "internalType": "bytes32",
          "name": "_option",
          "type": "bytes32"
        }
      ],
      "name": "optionDisputes",
      "outputs": [
        {
          "internalType": "uint256",
          "name": "",
          "type": "uint256"
        }
      ],
      "stateMutability": "view",
      "type": "function"
    },
    {
      "inputs": [
        {
          "internalType": "uint256",
          "name": "_challengeId",
          "type": "uint256"
        },
        {
          "internalType": "bytes32",
          "name": "_option",
          "type": "bytes32"
        }
      ],
      "name": "optionSupply",
      "outputs": [
        {
          "components": [
            {
              "internalType": "bool",
              "name": "exists",
              "type": "bool"
            },
            {
              "internalType": "uint256",
              "name": "stakes",
              "type": "uint256"
            },
            {
              "internalType": "uint256",
              "name": "tokens",
              "type": "uint256"
            },
            {
              "internalType": "uint256",
              "name": "rewards",
              "type": "uint256"
            }
          ],
          "internalType": "struct IChallengePoolHandler.OptionSupply",
          "name": "",
          "type": "tuple"
        }
      ],
      "stateMutability": "view",
      "type": "function"
    },
    {
      "inputs": [],
      "name": "paymaster",
      "outputs": [
        {
          "internalType": "address",
          "name": "",
          "type": "address"
        }
      ],
      "stateMutability": "view",
      "type": "function"
    },
    {
      "inputs": [
        {
          "internalType": "uint256",
          "name": "_challengeId",
          "type": "uint256"
        },
        {
          "internalType": "address",
          "name": "_player",
          "type": "address"
        }
      ],
      "name": "playerDisputes",
      "outputs": [
        {
          "components": [
            {
              "internalType": "bytes",
              "name": "dispute",
              "type": "bytes"
            },
            {
              "internalType": "uint256",
              "name": "stake",
              "type": "uint256"
            },
            {
              "internalType": "bool",
              "name": "released",
              "type": "bool"
            }
          ],
          "internalType": "struct IChallengePoolDispute.Dispute",
          "name": "",
          "type": "tuple"
        }
      ],
      "stateMutability": "view",
      "type": "function"
    },
    {
      "inputs": [
        {
          "internalType": "uint256",
          "name": "_challengeId",
          "type": "uint256"
        },
        {
          "internalType": "address",
          "name": "_player",
          "type": "address"
        },
        {
          "internalType": "bytes32",
          "name": "_option",
          "type": "bytes32"
        }
      ],
      "name": "playerOptionSupply",
      "outputs": [
        {
          "components": [
            {
              "internalType": "bool",
              "name": "withdrawn",
              "type": "bool"
            },
            {
              "internalType": "uint256",
              "name": "stakes",
              "type": "uint256"
            },
            {
              "internalType": "uint256",
              "name": "tokens",
              "type": "uint256"
            },
            {
              "internalType": "uint256",
              "name": "rewards",
              "type": "uint256"
            }
          ],
          "internalType": "struct IChallengePoolHandler.PlayerSupply",
          "name": "",
          "type": "tuple"
        }
      ],
      "stateMutability": "view",
      "type": "function"
    },
    {
      "inputs": [
        {
          "internalType": "uint256",
          "name": "_challengeId",
          "type": "uint256"
        },
        {
          "internalType": "address",
          "name": "_player",
          "type": "address"
        }
      ],
      "name": "playerSupply",
      "outputs": [
        {
          "components": [
            {
              "internalType": "bool",
              "name": "withdrawn",
              "type": "bool"
            },
            {
              "internalType": "uint256",
              "name": "stakes",
              "type": "uint256"
            },
            {
              "internalType": "uint256",
              "name": "tokens",
              "type": "uint256"
            },
            {
              "internalType": "uint256",
              "name": "rewards",
              "type": "uint256"
            }
          ],
          "internalType": "struct IChallengePoolHandler.PlayerSupply",
          "name": "",
          "type": "tuple"
        }
      ],
      "stateMutability": "view",
      "type": "function"
    },
    {
      "inputs": [
        {
          "internalType": "uint256",
          "name": "_challengeId",
          "type": "uint256"
        }
      ],
      "name": "poolDisputes",
      "outputs": [
        {
          "internalType": "uint256",
          "name": "",
          "type": "uint256"
        }
      ],
      "stateMutability": "view",
      "type": "function"
    },
    {
      "inputs": [
        {
          "internalType": "uint256",
          "name": "_challengeId",
          "type": "uint256"
        }
      ],
      "name": "poolSupply",
      "outputs": [
        {
          "components": [
            {
              "internalType": "uint256",
              "name": "stakes",
              "type": "uint256"
            },
            {
              "internalType": "uint256",
              "name": "tokens",
              "type": "uint256"
            }
          ],
          "internalType": "struct IChallengePoolHandler.Supply",
          "name": "",
          "type": "tuple"
        }
      ],
      "stateMutability": "view",
      "type": "function"
    },
    {
      "inputs": [
        {
          "internalType": "uint256",
          "name": "_challengeId",
          "type": "uint256"
        }
      ],
      "name": "price",
      "outputs": [
        {
          "internalType": "uint256",
          "name": "",
          "type": "uint256"
        }
      ],
      "stateMutability": "view",
      "type": "function"
    },
    {
      "inputs": [
        {
          "internalType": "bytes32",
          "name": "_requestId",
          "type": "bytes32"
        },
        {
          "internalType": "bytes32",
          "name": "_option",
          "type": "bytes32"
        }
      ],
      "name": "requestOptions",
      "outputs": [
        {
          "internalType": "bool",
          "name": "",
          "type": "bool"
        }
      ],
      "stateMutability": "view",
      "type": "function"
    },
    {
      "inputs": [],
      "name": "stakeAirDrop",
      "outputs": [
        {
          "internalType": "uint256",
          "name": "",
          "type": "uint256"
        }
      ],
      "stateMutability": "view",
      "type": "function"
    },
    {
      "inputs": [
        {
          "internalType": "uint256",
          "name": "_price",
          "type": "uint256"
        }
      ],
      "name": "stakeFee",
      "outputs": [
        {
          "internalType": "uint256",
          "name": "fee",
          "type": "uint256"
        },
        {
          "internalType": "uint256",
          "name": "feePlusPrice",
          "type": "uint256"
        }
      ],
      "stateMutability": "view",
      "type": "function"
    },
    {
      "inputs": [
        {
          "internalType": "uint256",
          "name": "_challengeId",
          "type": "uint256"
        },
        {
          "internalType": "address",
          "name": "_player",
          "type": "address"
        }
      ],
      "name": "winnerShare",
      "outputs": [
        {
          "internalType": "uint256",
          "name": "",
          "type": "uint256"
        }
      ],
      "stateMutability": "view",
      "type": "function"
    }
  ],
  "bytecode": "0x608080604052346015576118ec908161001b8239f35b600080fdfe608080604052600436101561001357600080fd5b60003560e01c908163038590e814611005575080630bf6f7d714610f5c57806316e4cbf914610eeb57806326a49e3714610ddf5780632fa05b2914610d4257806331dc3aac14610ce75780634c267e2714610c4c5780634d5fb21014610b765780635971512114610b2a5780635c4cb59914610ac8578063726845bb14610a3f5780637ae530d8146109dd578063821415c51461098b5780638e9dafdb146109015780638f1d377614610490578063b4789d4814610362578063ba038f321461024c578063cd819f46146101d7578063d4938db31461017c5763eb1ca693146100fb57600080fd5b346101775760407ffffffffffffffffffffffffffffffffffffffffffffffffffffffffffffffffc360112610177576004356000527fde1d81bc9860c075d76ad153e67ec9a4f01e6b3b42e3792f5f132c7f173401416020526040600020602435600052602052602060ff604060002054166040519015158152f35b600080fd5b346101775760007ffffffffffffffffffffffffffffffffffffffffffffffffffffffffffffffffc3601126101775760207fb4e10a4811f331e910bbd821832ab85ed1158088534d96bdd9d92f6de8be798354604051908152f35b346101775760207ffffffffffffffffffffffffffffffffffffffffffffffffffffffffffffffffc3601126101775760406004356102406102397fbc351ae7fa32df0c8ad57278243ae7d011e90d073629dfc92fda8e9f319c6fd85483611894565b8092611541565b82519182526020820152f35b346101775760407ffffffffffffffffffffffffffffffffffffffffffffffffffffffffffffffffc3601126101775761034f604061028861106a565b600082805161029681611196565b6060815282602082015201526004356000527fbc351ae7fa32df0c8ad57278243ae7d011e90d073629dfc92fda8e9f319c6fd16020528160002073ffffffffffffffffffffffffffffffffffffffff60009216825260205220604051906102fc82611196565b6040516103148161030d81856112a7565b03826111ce565b825260ff60026001830154926020850193845201541660408301901515815260405193849360208552516060602086015260808501906110cf565b9151604084015251151560608301520390f35b346101775760207ffffffffffffffffffffffffffffffffffffffffffffffffffffffffffffffffc360112610177576000604080516103a081611196565b606081526060602082015201526004356000527fde1d81bc9860c075d76ad153e67ec9a4f01e6b3b42e3792f5f132c7f173401406020526104526040600020604051906103ec82611196565b6040516103fd8161030d81856112a7565b825261048360ff6002604051936104228561041b81600185016112a7565b03866111ce565b602086019485520154169160408401921515835260405194859460208652516060602087015260808601906110cf565b90517fffffffffffffffffffffffffffffffffffffffffffffffffffffffffffffffe08583030160408601526110cf565b9051151560608301520390f35b346101775760207ffffffffffffffffffffffffffffffffffffffffffffffffffffffffffffffffc3601126101775760006101406040516104d081611179565b828152826020820152606060408201528260608201528260808201528260a08201528260c0820152606060e082015260606101008201528261012082015201526004356000527fbc351ae7fa32df0c8ad57278243ae7d011e90d073629dfc92fda8e9f319c6fcc602052604060002060405161054b81611179565b81549160ff8316600781101561085857825260ff602083019360081c16151583526040516105808161030d81600186016112a7565b60408301908152600282015493606084019485526003830154906080850191825260048401549060a0860191825273ffffffffffffffffffffffffffffffffffffffff60058601541660c08701908152600686019283546105e08161154e565b946105ee60405196876111ce565b818652602086019060005260206000206000915b8383106108ac575050505060e08801938452600787019485546106248161154e565b9661063260405198896111ce565b818852602088019060005260206000206000915b83831061088757505050506101008901958652600960ff60088a015416986101208b019915158a520154966101408a019788526040519960208b52519060078210156108585773ffffffffffffffffffffffffffffffffffffffff956106c79260208d015251151560408c01525161016060608c01526101808b01906110cf565b995160808a01525160a08901525160c0880152511660e086015251947fffffffffffffffffffffffffffffffffffffffffffffffffffffffffffffffe085820301610100860152855180825260208201916020808360051b8301019801926000915b8383106107e557505050505051917fffffffffffffffffffffffffffffffffffffffffffffffffffffffffffffffe084860301610120850152825180865260208601906020808260051b8901019501916000905b82821061079c5784511515610140890152855161016089015287870388f35b909192956020806107d7837fffffffffffffffffffffffffffffffffffffffffffffffffffffffffffffffe08d600196030186528a516110cf565b98019201920190929161077d565b9091929398602080827fffffffffffffffffffffffffffffffffffffffffffffffffffffffffffffffe085600195030186528c519060408061084361083385516060865260608601906110cf565b86860151858203888701526110cf565b9301519101529b019301930191939290610729565b7f4e487b7100000000000000000000000000000000000000000000000000000000600052602160045260246000fd5b60016020819260405161089e8161030d81896112a7565b815201920192019190610646565b600360206001926040516108bf81611196565b6040516108d08161030d818a6112a7565b81526040516108e58161030d81898b016112a7565b8382015260028601546040820152815201920192019190610602565b346101775760207ffffffffffffffffffffffffffffffffffffffffffffffffffffffffffffffffc3601126101775760043573ffffffffffffffffffffffffffffffffffffffff8116809103610177576000527fbc351ae7fa32df0c8ad57278243ae7d011e90d073629dfc92fda8e9f319c6fd46020526020600160406000200154604051908152f35b34610177576109993661108d565b906000527fbc351ae7fa32df0c8ad57278243ae7d011e90d073629dfc92fda8e9f319c6fd26020526040600020906000526020526020604060002054604051908152f35b346101775760207ffffffffffffffffffffffffffffffffffffffffffffffffffffffffffffffffc3601126101775760406004356102406102397fbc351ae7fa32df0c8ad57278243ae7d011e90d073629dfc92fda8e9f319c6fd75483611894565b3461017757610a4d3661108d565b90610a5661120f565b506000527fbc351ae7fa32df0c8ad57278243ae7d011e90d073629dfc92fda8e9f319c6fcf6020526040600020906000526020526080610a996040600020611234565b610ac660405180926060809180511515845260208101516020850152604081015160408501520151910152565bf35b346101775760207ffffffffffffffffffffffffffffffffffffffffffffffffffffffffffffffffc3601126101775760406004356102406102397fbc351ae7fa32df0c8ad57278243ae7d011e90d073629dfc92fda8e9f319c6fd65483611894565b346101775760407ffffffffffffffffffffffffffffffffffffffffffffffffffffffffffffffffc360112610177576020610b6e610b6661106a565b60043561138e565b604051908152f35b346101775760207ffffffffffffffffffffffffffffffffffffffffffffffffffffffffffffffffc360112610177576004357fbc351ae7fa32df0c8ad57278243ae7d011e90d073629dfc92fda8e9f319c6fd554811015610c22576000527fbc351ae7fa32df0c8ad57278243ae7d011e90d073629dfc92fda8e9f319c6fcc602052604080600020610240610c1b600483015492600360028201549101549084611593565b809261126b565b7f92fa6fd30000000000000000000000000000000000000000000000000000000060005260046000fd5b346101775760407ffffffffffffffffffffffffffffffffffffffffffffffffffffffffffffffffc36011261017757610c8361106a565b610c8b61120f565b506004356000527fbc351ae7fa32df0c8ad57278243ae7d011e90d073629dfc92fda8e9f319c6fce60205273ffffffffffffffffffffffffffffffffffffffff604060002091166000526020526080610a996040600020611234565b346101775760007ffffffffffffffffffffffffffffffffffffffffffffffffffffffffffffffffc3601126101775760207fb4e10a4811f331e910bbd821832ab85ed1158088534d96bdd9d92f6de8be798154604051908152f35b346101775760207ffffffffffffffffffffffffffffffffffffffffffffffffffffffffffffffffc3601126101775760006020604051610d818161112e565b82815201526004356000527fbc351ae7fa32df0c8ad57278243ae7d011e90d073629dfc92fda8e9f319c6fd06020526040806000208151610dc18161112e565b60206001835493848452015491019081528251918252516020820152f35b346101775760207ffffffffffffffffffffffffffffffffffffffffffffffffffffffffffffffffc360112610177576004357fbc351ae7fa32df0c8ad57278243ae7d011e90d073629dfc92fda8e9f319c6fd554811015610c2257806000527fbc351ae7fa32df0c8ad57278243ae7d011e90d073629dfc92fda8e9f319c6fcc602052610e6f6040600020611566565b60078110156108585780610eb857506000527fbc351ae7fa32df0c8ad57278243ae7d011e90d073629dfc92fda8e9f319c6fcc6020526020600460406000200154604051908152f35b610ee5907fabe418b7000000000000000000000000000000000000000000000000000000006000526110c1565b60246000fd5b346101775760007ffffffffffffffffffffffffffffffffffffffffffffffffffffffffffffffffc36011261017757602073ffffffffffffffffffffffffffffffffffffffff7fb4e10a4811f331e910bbd821832ab85ed1158088534d96bdd9d92f6de8be79825416604051908152f35b346101775760607ffffffffffffffffffffffffffffffffffffffffffffffffffffffffffffffffc36011261017757610f9361106a565b610f9b61120f565b506004356000527fbc351ae7fa32df0c8ad57278243ae7d011e90d073629dfc92fda8e9f319c6fcd60205273ffffffffffffffffffffffffffffffffffffffff6040600020911660005260205260406000206044356000526020526080610a996040600020611234565b346101775760207ffffffffffffffffffffffffffffffffffffffffffffffffffffffffffffffffc360112610177576020906004356000527fbc351ae7fa32df0c8ad57278243ae7d011e90d073629dfc92fda8e9f319c6fd382526040600020548152f35b6024359073ffffffffffffffffffffffffffffffffffffffff8216820361017757565b7ffffffffffffffffffffffffffffffffffffffffffffffffffffffffffffffffc6040910112610177576004359060243590565b600781101561085857600452565b919082519283825260005b8481106111195750507fffffffffffffffffffffffffffffffffffffffffffffffffffffffffffffffe0601f8460006020809697860101520116010190565b806020809284010151828286010152016110da565b6040810190811067ffffffffffffffff82111761114a57604052565b7f4e487b7100000000000000000000000000000000000000000000000000000000600052604160045260246000fd5b610160810190811067ffffffffffffffff82111761114a57604052565b6060810190811067ffffffffffffffff82111761114a57604052565b6080810190811067ffffffffffffffff82111761114a57604052565b90601f7fffffffffffffffffffffffffffffffffffffffffffffffffffffffffffffffe0910116810190811067ffffffffffffffff82111761114a57604052565b6040519061121c826111b2565b60006060838281528260208201528260408201520152565b90604051611241816111b2565b60606003829460ff8154161515845260018101546020850152600281015460408501520154910152565b9190820391821161127857565b7f4e487b7100000000000000000000000000000000000000000000000000000000600052601160045260246000fd5b600092918154918260011c92600181168015611384575b6020851081146113555784845290811561131957506001146112df57505050565b60009081526020812093945091925b8383106112ff575060209250010190565b6001816020929493945483858701015201910191906112ee565b905060209495507fffffffffffffffffffffffffffffffffffffffffffffffffffffffffffffff0091509291921683830152151560051b010190565b7f4e487b7100000000000000000000000000000000000000000000000000000000600052602260045260246000fd5b93607f16936112be565b806000527fbc351ae7fa32df0c8ad57278243ae7d011e90d073629dfc92fda8e9f319c6fcc602052604060002091604051906020820182811067ffffffffffffffff82111761114a57604052600082526114046001850192604051906113ff826113f881886112a7565b03836111ce565b6115c0565b61151757826000527fbc351ae7fa32df0c8ad57278243ae7d011e90d073629dfc92fda8e9f319c6fcf60205260406000206040516114468161030d81876112a7565b602081519101206000526020526003604060002001541561150e57826000527fbc351ae7fa32df0c8ad57278243ae7d011e90d073629dfc92fda8e9f319c6fcd60205273ffffffffffffffffffffffffffffffffffffffff6040600020911660005260205261030d6114c3604060002092604051928380926112a7565b6020815191012060005260205260ff6040600020925416600781101561085857600181036114fd575060036114fa920154906115da565b90565b91505060028103610eb85750600090565b50505050600090565b7fc74a206d0000000000000000000000000000000000000000000000000000000060005260046000fd5b9190820180921161127857565b67ffffffffffffffff811161114a5760051b60200190565b60ff81541690600782101561085857811561157f575090565b6003015442101561158d5790565b50600390565b9091428110156115ba576115b46114fa936115ae428461126b565b9261126b565b916117a5565b50905090565b80519082519182810361150e576020809201209201201490565b90816000527fbc351ae7fa32df0c8ad57278243ae7d011e90d073629dfc92fda8e9f319c6fcc602052604060002090826000527fbc351ae7fa32df0c8ad57278243ae7d011e90d073629dfc92fda8e9f319c6fcf6020526001604060002092019160405161164c8161030d81876112a7565b6020815191012060005260205260036040600020015491821561150e57836116fd916114fa956000527fbc351ae7fa32df0c8ad57278243ae7d011e90d073629dfc92fda8e9f319c6fcf60205261030d6116b1604060002092604051928380926112a7565b60208151910120600052602052600260406000200154906000527fbc351ae7fa32df0c8ad57278243ae7d011e90d073629dfc92fda8e9f319c6fd060205260016040600020015461126b565b6117a5565b9190916000838202917fffffffffffffffffffffffffffffffffffffffffffffffffffffffffffffffff858209918380841093039280840393146117985782612710111561178657507fbc01a36e2eb1c432ca57a786c226809d495182a9930be0ded288ce703afb7e919394612710910990828211900360fc1b910360041c170290565b634e487b71905260116020526024601cfd5b5050506127109192500490565b91818302917fffffffffffffffffffffffffffffffffffffffffffffffffffffffffffffffff81850993838086109503948086039514611857578483111561183e5790829109816000038216809204600281600302188082026002030280820260020302808202600203028082026002030280820260020302809102600203029360018380600003040190848311900302920304170290565b82634e487b71600052156003026011186020526024601cfd5b505080925015611865570490565b7f4e487b7100000000000000000000000000000000000000000000000000000000600052601260045260246000fd5b908082028281048214831517156112785761271011610177576114fa9161170256fea264697066735822122023ec680e73dfd5058644889503a33e5bba58b17672355473d800065e361e29b564736f6c634300081c0033",
  "linkReferences": {},
  "deployedLinkReferences": {}
}