{
  "_format": "hh-sol-artifact-1",
  "contractName": "StatementDataProvider",
  "sourceName": "contracts/modules/data-providers/StatementDataProvider.sol",
  "abi": [
    {
      "inputs": [],
      "name": "DataAlreadyProvided",
      "type": "error"
    },
    {
      "inputs": [],
      "name": "DataAlreadyRegistered",
      "type": "error"
    },
    {
      "inputs": [],
      "name": "DataNotProvided",
      "type": "error"
    },
    {
      "inputs": [],
      "name": "DataNotRegistered",
      "type": "error"
    },
    {
      "inputs": [],
      "name": "DataNotRequested",
      "type": "error"
    },
    {
      "inputs": [],
      "name": "InvalidOptionsLength",
      "type": "error"
    },
    {
      "inputs": [],
      "name": "InvalidResult",
      "type": "error"
    },
    {
      "inputs": [
        {
          "internalType": "uint256",
          "name": "_date",
          "type": "uint256"
        }
      ],
      "name": "InvalidSubmissionDate",
      "type": "error"
    },
    {
      "anonymous": false,
      "inputs": [
        {
          "indexed": false,
          "internalType": "address",
          "name": "caller",
          "type": "address"
        },
        {
          "indexed": false,
          "internalType": "string",
          "name": "namespace",
          "type": "string"
        },
        {
          "indexed": false,
          "internalType": "bytes32",
          "name": "requestId",
          "type": "bytes32"
        },
        {
          "indexed": false,
          "internalType": "bytes",
          "name": "params",
          "type": "bytes"
        }
      ],
      "name": "DataProvided",
      "type": "event"
    },
    {
      "anonymous": false,
      "inputs": [
        {
          "indexed": false,
          "internalType": "address",
          "name": "caller",
          "type": "address"
        },
        {
          "indexed": false,
          "internalType": "string",
          "name": "namespace",
          "type": "string"
        },
        {
          "indexed": false,
          "internalType": "bytes32",
          "name": "requestId",
          "type": "bytes32"
        },
        {
          "indexed": false,
          "internalType": "bytes",
          "name": "params",
          "type": "bytes"
        }
      ],
      "name": "DataRegistered",
      "type": "event"
    },
    {
      "anonymous": false,
      "inputs": [
        {
          "indexed": false,
          "internalType": "address",
          "name": "caller",
          "type": "address"
        },
        {
          "indexed": false,
          "internalType": "string",
          "name": "namespace",
          "type": "string"
        },
        {
          "indexed": false,
          "internalType": "bytes32",
          "name": "requestId",
          "type": "bytes32"
        },
        {
          "indexed": false,
          "internalType": "bytes",
          "name": "params",
          "type": "bytes"
        }
      ],
      "name": "DataRequested",
      "type": "event"
    },
    {
      "inputs": [
        {
          "internalType": "bytes",
          "name": "_params",
          "type": "bytes"
        }
      ],
      "name": "getData",
      "outputs": [
        {
          "internalType": "bytes",
          "name": "_data",
          "type": "bytes"
        }
      ],
      "stateMutability": "view",
      "type": "function"
    },
    {
      "inputs": [
        {
          "internalType": "bytes",
          "name": "_params",
          "type": "bytes"
        }
      ],
      "name": "hasData",
      "outputs": [
        {
          "internalType": "bool",
          "name": "",
          "type": "bool"
        }
      ],
      "stateMutability": "view",
      "type": "function"
    },
    {
      "inputs": [],
      "name": "namespace",
      "outputs": [
        {
          "internalType": "string",
          "name": "",
          "type": "string"
        }
      ],
      "stateMutability": "pure",
      "type": "function"
    },
    {
      "inputs": [
        {
          "internalType": "bytes",
          "name": "_params",
          "type": "bytes"
        }
      ],
      "name": "provideData",
      "outputs": [],
      "stateMutability": "nonpayable",
      "type": "function"
    },
    {
      "inputs": [
        {
          "internalType": "bytes",
          "name": "_params",
          "type": "bytes"
        }
      ],
      "name": "registerEvent",
      "outputs": [],
      "stateMutability": "nonpayable",
      "type": "function"
    },
    {
      "inputs": [
        {
          "internalType": "bytes",
          "name": "_params",
          "type": "bytes"
        }
      ],
      "name": "requestData",
      "outputs": [
        {
          "internalType": "bool",
          "name": "",
          "type": "bool"
        }
      ],
      "stateMutability": "nonpayable",
      "type": "function"
    },
    {
      "inputs": [
        {
          "internalType": "bytes",
          "name": "_params",
          "type": "bytes"
        }
      ],
      "name": "updateProvision",
      "outputs": [],
      "stateMutability": "nonpayable",
      "type": "function"
    },
    {
      "inputs": [
        {
          "internalType": "bytes",
          "name": "_params",
          "type": "bytes"
        },
        {
          "internalType": "bytes[]",
          "name": "_options",
          "type": "bytes[]"
        }
      ],
      "name": "validateOptions",
      "outputs": [
        {
          "internalType": "bool",
          "name": "",
          "type": "bool"
        }
      ],
      "stateMutability": "view",
      "type": "function"
    }
  ],
  "bytecode": "0x60808060405234601557611be7908161001b8239f35b600080fdfe6080604052600436101561001257600080fd5b60003560e01c80631431b23a14610fff57806344dc8e4014610fa55780637c015a8914610f5357806387a7cfd814610c2e578063bc0fd6d714610bc3578063c90d080a1461053e578063dae79e2c146104925763eca82c1a1461007457600080fd5b3461048d5760207ffffffffffffffffffffffffffffffffffffffffffffffffffffffffffffffffc36011261048d5760043567ffffffffffffffff811161048d576100c39036906004016110c6565b9080820190600060808284031261048a57813567ffffffffffffffff811161048857836100f1918401611857565b92602083013567ffffffffffffffff81116104845781610112918501611857565b604084013591606085013567ffffffffffffffff81116104805790610138918601611857565b94824210610454579061014b9291611a3d565b9261015584611b06565b1561042c5761016384611993565b80610424575b6103fc578382527fde1d81bc9860c075d76ad153e67ec9a4f01e6b3b42e3792f5f132c7f173401416020526040822081516020830120835260205260ff604083205416156103d4578382527fde1d81bc9860c075d76ad153e67ec9a4f01e6b3b42e3792f5f132c7f17340140602052600160408320019181519167ffffffffffffffff83116103a7576101fc8454611153565b601f8111610362575b50602091601f841160011461029d579261028d949281927f9fd210a76661cac04737e80f78df885a50bb61b6ff9a9bbb326287af5c1b03aa999592610292575b50507fffffffffffffffffffffffffffffffffffffffffffffffffffffffffffffffff8260011b9260031b1c19161790555b61027f61181c565b92604051948594338661132a565b0390a1005b015190503880610245565b91907fffffffffffffffffffffffffffffffffffffffffffffffffffffffffffffffe08416858452828420935b81811061034a57509260019285927f9fd210a76661cac04737e80f78df885a50bb61b6ff9a9bbb326287af5c1b03aa9a9661028d989610610313575b505050811b019055610277565b01517fffffffffffffffffffffffffffffffffffffffffffffffffffffffffffffffff60f88460031b161c19169055388080610306565b929360206001819287860151815501950193016102ca565b84835260208320601f850160051c8101916020861061039d575b601f0160051c01905b8181106103925750610205565b838155600101610385565b909150819061037c565b6024827f4e487b710000000000000000000000000000000000000000000000000000000081526041600452fd5b6004827f7c599f80000000000000000000000000000000000000000000000000000000008152fd5b6004827f817ff87e000000000000000000000000000000000000000000000000000000008152fd5b506001610169565b6004827f04c80730000000000000000000000000000000000000000000000000000000008152fd5b602484847fd6b8b7c1000000000000000000000000000000000000000000000000000000008252600452fd5b8480fd5b8280fd5b505b80fd5b600080fd5b3461048d5760407ffffffffffffffffffffffffffffffffffffffffffffffffffffffffffffffffc36011261048d5760043567ffffffffffffffff811161048d576104e19036906004016110c6565b906024359067ffffffffffffffff821161048d573660238301121561048d5781600401359067ffffffffffffffff821161048d573660248360051b8501011161048d576020936024610534940191611875565b6040519015158152f35b3461048d5760207ffffffffffffffffffffffffffffffffffffffffffffffffffffffffffffffffc36011261048d5760043567ffffffffffffffff811161048d5761058d9036906004016110c6565b8082019160808184031261048d57803567ffffffffffffffff811161048d57836105b8918301611857565b602082013567ffffffffffffffff811161048d57846105d8918401611857565b604083013591606084013567ffffffffffffffff811161048d5784019580601f8801121561048d5786359667ffffffffffffffff88116109e9578760051b9060405198610628602084018b6111c2565b89526020808a01928201019183831161048d5760208201905b838210610b9557505050505082421015610b6757906106609291611a3d565b61066981611b06565b610b3d576002845110610b135760209160405161068684826111c2565b6000815260405190610697826111a6565b6106a23687856112c5565b8252848201908152604082019060018252846000527fde1d81bc9860c075d76ad153e67ec9a4f01e6b3b42e3792f5f132c7f1734014086526040600020925180519067ffffffffffffffff82116109e95781906106ff8654611153565b601f8111610ac2575b508890601f8311600114610a2357600092610a18575b50507fffffffffffffffffffffffffffffffffffffffffffffffffffffffffffffffff8260011b9260031b1c19161783555b518051600184019167ffffffffffffffff82116109e9576107718354611153565b601f81116109a3575b508790601f83116001146108f8579180600294926108039796946000926108ed575b50507fffffffffffffffffffffffffffffffffffffffffffffffffffffffffffffffff8260011b9260031b1c19161790555b51151591019060ff7fffffffffffffffffffffffffffffffffffffffffffffffffffffffffffffff0083541691151516179055565b60005b85518110156108be57826000527fde1d81bc9860c075d76ad153e67ec9a4f01e6b3b42e3792f5f132c7f173401418452604060002090865181101561088f57600191858260051b8901015186815191012060005285526040600020827fffffffffffffffffffffffffffffffffffffffffffffffffffffffffffffff0082541617905501610806565b7f4e487b7100000000000000000000000000000000000000000000000000000000600052603260045260246000fd5b7f919bc5adb012a394bbfa9ef94c4764c3e2f15205b933f1a58bcde4071bad5ab1838361028d8861027f61181c565b015190508c8061079c565b907fffffffffffffffffffffffffffffffffffffffffffffffffffffffffffffffe083169184600052896000209260005b8b82821061098d5750509260019285926108039998966002989610610956575b505050811b0190556107ce565b01517fffffffffffffffffffffffffffffffffffffffffffffffffffffffffffffffff60f88460031b161c191690558c8080610949565b6001859682939686015181550195019301610929565b8360005288600020601f840160051c8101918a85106109df575b601f0160051c01905b8181106109d3575061077a565b600081556001016109c6565b90915081906109bd565b7f4e487b7100000000000000000000000000000000000000000000000000000000600052604160045260246000fd5b015190508a8061071e565b60008781528a8120937fffffffffffffffffffffffffffffffffffffffffffffffffffffffffffffffe016905b8b828210610aac575050908460019594939210610a75575b505050811b018355610750565b01517fffffffffffffffffffffffffffffffffffffffffffffffffffffffffffffffff60f88460031b161c191690558a8080610a68565b6001859682939686015181550195019301610a50565b9091508560005288600020601f840160051c8101918a8510610b09575b90601f859493920160051c01905b818110610afa5750610708565b60008155849350600101610aed565b9091508190610adf565b7f8ad443780000000000000000000000000000000000000000000000000000000060005260046000fd5b7f5aa9beb50000000000000000000000000000000000000000000000000000000060005260046000fd5b827fd6b8b7c10000000000000000000000000000000000000000000000000000000060005260045260246000fd5b813567ffffffffffffffff811161048d57602091610bb887848094880101611857565b815201910190610641565b3461048d5760207ffffffffffffffffffffffffffffffffffffffffffffffffffffffffffffffffc36011261048d5760043567ffffffffffffffff811161048d57610534610c29610c23610c1d60209436906004016110c6565b906119e9565b91611a3d565b611993565b3461048d5760207ffffffffffffffffffffffffffffffffffffffffffffffffffffffffffffffffc36011261048d5760043567ffffffffffffffff811161048d57610c7d9036906004016110c6565b9080820190600060808284031261048a57813567ffffffffffffffff81116104885783610cab918401611857565b92602083013567ffffffffffffffff81116104845781610ccc918501611857565b604084013591606085013567ffffffffffffffff81116104805790610cf2918601611857565b948242106104545790610d059291611a3d565b92610d0f84611b06565b1561042c57610d1d84611993565b80610f4b575b6103fc578382527fde1d81bc9860c075d76ad153e67ec9a4f01e6b3b42e3792f5f132c7f173401416020526040822081516020830120835260205260ff604083205416156103d4578382527fde1d81bc9860c075d76ad153e67ec9a4f01e6b3b42e3792f5f132c7f17340140602052600160408320019181519167ffffffffffffffff83116103a757610db68454611153565b601f8111610f06575b50602091601f8411600114610e42579261028d949281927f9fd210a76661cac04737e80f78df885a50bb61b6ff9a9bbb326287af5c1b03aa999592610e375750507fffffffffffffffffffffffffffffffffffffffffffffffffffffffffffffffff8260011b9260031b1c191617905561027f61181c565b015190508880610245565b91907fffffffffffffffffffffffffffffffffffffffffffffffffffffffffffffffe08416858452828420935b818110610eee57509260019285927f9fd210a76661cac04737e80f78df885a50bb61b6ff9a9bbb326287af5c1b03aa9a9661028d989610610eb757505050811b019055610277565b01517fffffffffffffffffffffffffffffffffffffffffffffffffffffffffffffffff60f88460031b161c19169055888080610306565b92936020600181928786015181550195019301610e6f565b84835260208320601f850160051c81019160208610610f41575b601f0160051c01905b818110610f365750610dbf565b838155600101610f29565b9091508190610f20565b506000610d23565b3461048d5760007ffffffffffffffffffffffffffffffffffffffffffffffffffffffffffffffffc36011261048d57610fa1610f8d61181c565b6040519182916020835260208301906110f4565b0390f35b3461048d5760207ffffffffffffffffffffffffffffffffffffffffffffffffffffffffffffffffc36011261048d5760043567ffffffffffffffff811161048d57610534610ff960209236906004016110c6565b906113a5565b3461048d5760207ffffffffffffffffffffffffffffffffffffffffffffffffffffffffffffffffc36011261048d5760043567ffffffffffffffff811161048d57610c23610c1d6110549236906004016110c6565b61105d81611993565b1561109c576000527fde1d81bc9860c075d76ad153e67ec9a4f01e6b3b42e3792f5f132c7f17340140602052610fa1610f8d6001604060002001611203565b7f3c15fc3c0000000000000000000000000000000000000000000000000000000060005260046000fd5b9181601f8401121561048d5782359167ffffffffffffffff831161048d576020838186019501011161048d57565b919082519283825260005b84811061113e5750507fffffffffffffffffffffffffffffffffffffffffffffffffffffffffffffffe0601f8460006020809697860101520116010190565b806020809284010151828286010152016110ff565b90600182811c9216801561119c575b602083101461116d57565b7f4e487b7100000000000000000000000000000000000000000000000000000000600052602260045260246000fd5b91607f1691611162565b6060810190811067ffffffffffffffff8211176109e957604052565b90601f7fffffffffffffffffffffffffffffffffffffffffffffffffffffffffffffffe0910116810190811067ffffffffffffffff8211176109e957604052565b906040519182600082549261121784611153565b8084529360018116908115611285575060011461123e575b5061123c925003836111c2565b565b90506000929192526020600020906000915b81831061126957505090602061123c928201013861122f565b6020919350806001915483858901015201910190918492611250565b6020935061123c9592507fffffffffffffffffffffffffffffffffffffffffffffffffffffffffffffff0091501682840152151560051b8201013861122f565b92919267ffffffffffffffff82116109e9576040519161130d601f82017fffffffffffffffffffffffffffffffffffffffffffffffffffffffffffffffe016602001846111c2565b82948184528183011161048d578281602093846000960137010152565b947fffffffffffffffffffffffffffffffffffffffffffffffffffffffffffffffe09394602096611381601f9573ffffffffffffffffffffffffffffffffffffffff859616835260808a84015260808301906110f4565b96604082015260608188039101528186528686013760008582860101520116010190565b9190916113b283826119e9565b91824211610b6757906113c59291611a3d565b90611400826000527fde1d81bc9860c075d76ad153e67ec9a4f01e6b3b42e3792f5f132c7f1734014060205260ff6002604060002001541690565b156117f25761140e82611b06565b6117ea57604051602061142181836111c2565b6000825260405191611432836111a6565b61143d3688866112c5565b8352818301908152604083019160008352856000527fde1d81bc9860c075d76ad153e67ec9a4f01e6b3b42e3792f5f132c7f1734014081526040600020935180519067ffffffffffffffff82116109e957819061149a8754611153565b601f8111611799575b508390601f83116001146116fa576000926116ef575b50507fffffffffffffffffffffffffffffffffffffffffffffffffffffffffffffffff8260011b9260031b1c19161784555b6001840191519081519167ffffffffffffffff83116109e95761150e8454611153565b601f81116116a9575b5081601f84116001146115d757509361027793836115c497946002947f88edb49aabc6b1ff997a91f40e39e0488bc8ffd9de1377c08ed2e3a26489a0529c9d986000926115cc5750507fffffffffffffffffffffffffffffffffffffffffffffffffffffffffffffffff8260011b9260031b1c191617905551151591019060ff7fffffffffffffffffffffffffffffffffffffffffffffffffffffffffffffff0083541691151516179055565b0390a1600190565b01519050388061079c565b91907fffffffffffffffffffffffffffffffffffffffffffffffffffffffffffffffe084168560005283600020936000905b828210611691575050846002947f88edb49aabc6b1ff997a91f40e39e0488bc8ffd9de1377c08ed2e3a26489a0529c9d989461027798946115c49b986001951061165a57505050811b0190556107ce565b01517fffffffffffffffffffffffffffffffffffffffffffffffffffffffffffffffff60f88460031b161c19169055388080610949565b80600186978294978701518155019601940190611609565b8460005282600020601f850160051c8101918486106116e5575b601f0160051c01905b8181106116d95750611517565b600081556001016116cc565b90915081906116c3565b0151905038806114b9565b6000888152858120937fffffffffffffffffffffffffffffffffffffffffffffffffffffffffffffffe016905b8682821061178357505090846001959493921061174c575b505050811b0184556114eb565b01517fffffffffffffffffffffffffffffffffffffffffffffffffffffffffffffffff60f88460031b161c1916905538808061173f565b6001859682939686015181550195019301611727565b9091508660005283600020601f840160051c8101918585106117e0575b90601f859493920160051c01905b8181106117d157506114a3565b600081558493506001016117c4565b90915081906117b6565b506001925050565b7f08a3a12b0000000000000000000000000000000000000000000000000000000060005260046000fd5b6040519061182b6040836111c2565b600982527f73746174656d656e7400000000000000000000000000000000000000000000006020830152565b9080601f8301121561048d57816020611872933591016112c5565b90565b61188291610c23916119e9565b6118bc816000527fde1d81bc9860c075d76ad153e67ec9a4f01e6b3b42e3792f5f132c7f1734014060205260ff6002604060002001541690565b156117f25760005b8381101561198a57816000527fde1d81bc9860c075d76ad153e67ec9a4f01e6b3b42e3792f5f132c7f1734014160205260406000206000908260051b8501357fffffffffffffffffffffffffffffffffffffffffffffffffffffffffffffffe18636030181121561048457850180359067ffffffffffffffff821161198657602001908036038213611986579061195c9136916112c5565b60208151910120825260205260ff6040822054161561197e57506001016118c4565b935050505090565b8380fd5b50505050600190565b6000527fde1d81bc9860c075d76ad153e67ec9a4f01e6b3b42e3792f5f132c7f173401406020526119e560016040600020016119e0604051916119d76020846111c2565b60008352611203565b611b8e565b1590565b9081019160608284031261048d57813567ffffffffffffffff811161048d5783611a14918401611857565b92602083013567ffffffffffffffff811161048d57604091611a37918501611857565b92013590565b611b0090611a9e9293611ace611a5161181c565b95604051958694611a6e602087019960808b5260a08801906110f4565b907fffffffffffffffffffffffffffffffffffffffffffffffffffffffffffffffe08783030160408801526110f4565b907fffffffffffffffffffffffffffffffffffffffffffffffffffffffffffffffe08583030160608601526110f4565b906080830152037fffffffffffffffffffffffffffffffffffffffffffffffffffffffffffffffe081018352826111c2565b51902090565b806000527fde1d81bc9860c075d76ad153e67ec9a4f01e6b3b42e3792f5f132c7f17340140602052611b4860406000206119e0604051916119d76020846111c2565b906000527fde1d81bc9860c075d76ad153e67ec9a4f01e6b3b42e3792f5f132c7f1734014060205260ff6002604060002001541690159081611b88575090565b90501590565b805190825191828103611ba8576020809201209201201490565b5050505060009056fea264697066735822122002178536dece7a1460f43d87d0f411c0a8c83da5ad05e037b26c5e41acca649364736f6c634300081c0033",
  "linkReferences": {},
  "deployedLinkReferences": {}
}