{
  "_format": "hh-sol-artifact-1",
  "contractName": "FootBallOutcomeResolver",
  "sourceName": "contracts/modules/pool-resolvers/FootBallOutcomeResolver.sol",
  "abi": [
    {
      "inputs": [
        {
          "internalType": "string",
          "name": "_functionName",
          "type": "string"
        }
      ],
      "name": "DelegateCallFailed",
      "type": "error"
    },
    {
      "inputs": [],
      "name": "NotImplemented",
      "type": "error"
    },
    {
      "inputs": [],
      "name": "ProtocolInvariantCheckFailed",
      "type": "error"
    },
    {
      "inputs": [
        {
          "internalType": "contract IDataProvider",
          "name": "dataProvider",
          "type": "address"
        },
        {
          "components": [
            {
              "internalType": "bytes",
              "name": "params",
              "type": "bytes"
            },
            {
              "internalType": "string",
              "name": "topicId",
              "type": "string"
            },
            {
              "internalType": "uint256",
              "name": "maturity",
              "type": "uint256"
            }
          ],
          "internalType": "struct IChallengePoolCommon.ChallengeEvent",
          "name": "_event",
          "type": "tuple"
        },
        {
          "internalType": "bytes[]",
          "name": "",
          "type": "bytes[]"
        }
      ],
      "name": "resolveEvent",
      "outputs": [
        {
          "internalType": "bytes",
          "name": "",
          "type": "bytes"
        }
      ],
      "stateMutability": "nonpayable",
      "type": "function"
    },
    {
      "inputs": [
        {
          "internalType": "contract IDataProvider",
          "name": "dataProvider",
          "type": "address"
        },
        {
          "components": [
            {
              "internalType": "bytes",
              "name": "params",
              "type": "bytes"
            },
            {
              "internalType": "string",
              "name": "topicId",
              "type": "string"
            },
            {
              "internalType": "uint256",
              "name": "maturity",
              "type": "uint256"
            }
          ],
          "internalType": "struct IChallengePoolCommon.ChallengeEvent",
          "name": "_event",
          "type": "tuple"
        }
      ],
      "name": "validateEvent",
      "outputs": [
        {
          "internalType": "bool",
          "name": "",
          "type": "bool"
        }
      ],
      "stateMutability": "nonpayable",
      "type": "function"
    },
    {
      "inputs": [
        {
          "internalType": "contract IDataProvider",
          "name": "",
          "type": "address"
        },
        {
          "components": [
            {
              "internalType": "bytes",
              "name": "params",
              "type": "bytes"
            },
            {
              "internalType": "string",
              "name": "topicId",
              "type": "string"
            },
            {
              "internalType": "uint256",
              "name": "maturity",
              "type": "uint256"
            }
          ],
          "internalType": "struct IChallengePoolCommon.ChallengeEvent",
          "name": "",
          "type": "tuple"
        },
        {
          "internalType": "bytes[]",
          "name": "",
          "type": "bytes[]"
        }
      ],
      "name": "validateOptions",
      "outputs": [
        {
          "internalType": "bool",
          "name": "",
          "type": "bool"
        }
      ],
      "stateMutability": "pure",
      "type": "function"
    }
  ],
  "bytecode": "0x60808060405234601557610beb908161001b8239f35b600080fdfe6080604052600436101561001257600080fd5b60003560e01c8063164cf76b146101035780631e272e4c1461007e5763d925ce501461003d57600080fd5b346100795761004b366102b7565b505050507fd62347250000000000000000000000000000000000000000000000000000000060005260046000fd5b600080fd5b346100795760407ffffffffffffffffffffffffffffffffffffffffffffffffffffffffffffffffc3601126100795760043573ffffffffffffffffffffffffffffffffffffffff811681036100795760243567ffffffffffffffff8111610079576020916100f36100f9923690600401610218565b90610931565b6040519015158152f35b346100795761013361011f610117366102b7565b505090610614565b60405191829160208352602083019061038d565b0390f35b90601f7fffffffffffffffffffffffffffffffffffffffffffffffffffffffffffffffe0910116810190811067ffffffffffffffff82111761017857604052565b7f4e487b7100000000000000000000000000000000000000000000000000000000600052604160045260246000fd5b67ffffffffffffffff811161017857601f017fffffffffffffffffffffffffffffffffffffffffffffffffffffffffffffffe01660200190565b9291926101ed826101a7565b916101fb6040519384610137565b829481845281830111610079578281602093846000960137010152565b91909160608184031261007957604051906060820182811067ffffffffffffffff821117610178576040528193813567ffffffffffffffff811161007957820181601f820112156100795781816020610273933591016101e1565b8352602082013567ffffffffffffffff81116100795782019181601f84011215610079576102ab6040939283602086953591016101e1565b60208501520135910152565b9060607ffffffffffffffffffffffffffffffffffffffffffffffffffffffffffffffffc8301126100795760043573ffffffffffffffffffffffffffffffffffffffff81168103610079579160243567ffffffffffffffff8111610079578161032291600401610218565b9160443567ffffffffffffffff811161007957826023820112156100795780600401359267ffffffffffffffff84116100795760248460051b83010111610079576024019190565b60005b83811061037d5750506000910152565b818101518382015260200161036d565b907fffffffffffffffffffffffffffffffffffffffffffffffffffffffffffffffe0601f6020936103c98151809281875287808801910161036a565b0116010190565b909291926103dd816101a7565b916103eb6040519384610137565b82948284528282011161007957602061040593019061036a565b565b9080601f83011215610079578151610421926020016103d0565b90565b91909160408184031261007957805167ffffffffffffffff8111610079578361044e918301610407565b92602082015167ffffffffffffffff8111610079576104219201610407565b6040519061047c604083610137565b600482527f686f6d65000000000000000000000000000000000000000000000000000000006020830152565b604051906104b7604083610137565b600482527f61776179000000000000000000000000000000000000000000000000000000006020830152565b604051906104f2604083610137565b600482527f64726177000000000000000000000000000000000000000000000000000000006020830152565b6040519061052d604083610137565b600982527f686f6d652d6472617700000000000000000000000000000000000000000000006020830152565b60405190610568604083610137565b600982527f617761792d6472617700000000000000000000000000000000000000000000006020830152565b604051906105a3604083610137565b600982527f686f6d652d6177617900000000000000000000000000000000000000000000006020830152565b604051602080820152600360408201527f7965730000000000000000000000000000000000000000000000000000000000606082015260608152610421608082610137565b6000809161064a610632610676955160208082518301019101610424565b9590604051928391602080840152604083019061038d565b037fffffffffffffffffffffffffffffffffffffffffffffffffffffffffffffffe08101835282610137565b73ffffffffffffffffffffffffffffffffffffffff6040516106ce8161064a60208201957f1431b23a00000000000000000000000000000000000000000000000000000000875260206024840152604483019061038d565b5192165af46106db610ae8565b90156108d35780518101906020818184019303126100795760208101519067ffffffffffffffff821161007957019080603f83011215610079576020820151610726926040016103d0565b60408180518101031261007957806040602061074793015191015190610b18565b9061075961075361046d565b82610b41565b156107c257506107709061076b61046d565b610b41565b6107ba575b604051602080820152600260408201527f6e6f000000000000000000000000000000000000000000000000000000000000606082015260608152610421608082610137565b6104216105cf565b6107cd6107536104a8565b156107e957506107df9061076b6104a8565b6107ba575b610775565b6107f46107536104e3565b1561080657506107df9061076b6104e3565b61081161075361051e565b1561083c57506108238161076b61046d565b610833576107df9061076b6104e3565b506104216105cf565b610847610753610559565b1561087657506108598161076b6104a8565b610833576108699061076b6104e3565b156107e4576104216105cf565b61088890610882610594565b90610b41565b156108a9576108998161076b61046d565b610833576108699061076b6104a8565b7fc7e8fc500000000000000000000000000000000000000000000000000000000060005260046000fd5b60646040517f9becf85d00000000000000000000000000000000000000000000000000000000815260206004820152601560248201527f426173655265736f6c7665722e5f6765744461746100000000000000000000006044820152fd5b90610946905160208082518301019101610424565b61095161075361046d565b159081610ad4575b81610ac0575b81610aac575b81610a98575b81610a84575b50610a7d5760009161064a6109978493604051928391602080840152604083019061038d565b73ffffffffffffffffffffffffffffffffffffffff6040516109ef8161064a60208201957f44dc8e4000000000000000000000000000000000000000000000000000000000875260206024840152604483019061038d565b5192165af46109fc610ae8565b9015610a1f57602081805181010312610079576020015180151581036100795790565b60646040517f9becf85d00000000000000000000000000000000000000000000000000000000815260206004820152601960248201527f426173655265736f6c7665722e5f7265717565737444617461000000000000006044820152fd5b5050600090565b610a919150610882610594565b1538610971565b9050610aa5610753610559565b159061096b565b9050610ab961075361051e565b1590610965565b9050610acd6107536104e3565b159061095f565b9050610ae16107536104a8565b1590610959565b3d15610b13573d90610af9826101a7565b91610b076040519384610137565b82523d6000602084013e565b606090565b9080821115610b2b57505061042161046d565b1115610b39576104216104a8565b6104216104e3565b604051610b8d60208281610b5e818301968781519384920161036a565b810103017fffffffffffffffffffffffffffffffffffffffffffffffffffffffffffffffe08101835282610137565b51902090604051610bae60208281610b5e818301968781519384920161036a565b519020149056fea264697066735822122075bbed8d5acd07bdcd28460d832181481246adf127127d8fa55e4a3d5232ef2164736f6c634300081c0033",
  "linkReferences": {},
  "deployedLinkReferences": {}
}