{
  "_format": "hh-sol-artifact-1",
  "contractName": "PausableFacet",
  "sourceName": "contracts/diamond/facets/PausableFacet.sol",
  "abi": [
    {
      "inputs": [],
      "name": "Pausable__NotPaused",
      "type": "error"
    },
    {
      "inputs": [],
      "name": "Pausable__Paused",
      "type": "error"
    },
    {
      "inputs": [],
      "name": "UintUtils__InsufficientPadding",
      "type": "error"
    },
    {
      "anonymous": false,
      "inputs": [
        {
          "indexed": false,
          "internalType": "address",
          "name": "account",
          "type": "address"
        }
      ],
      "name": "Paused",
      "type": "event"
    },
    {
      "anonymous": false,
      "inputs": [
        {
          "indexed": true,
          "internalType": "bytes32",
          "name": "role",
          "type": "bytes32"
        },
        {
          "indexed": true,
          "internalType": "bytes32",
          "name": "previousAdminRole",
          "type": "bytes32"
        },
        {
          "indexed": true,
          "internalType": "bytes32",
          "name": "newAdminRole",
          "type": "bytes32"
        }
      ],
      "name": "RoleAdminChanged",
      "type": "event"
    },
    {
      "anonymous": false,
      "inputs": [
        {
          "indexed": true,
          "internalType": "bytes32",
          "name": "role",
          "type": "bytes32"
        },
        {
          "indexed": true,
          "internalType": "address",
          "name": "account",
          "type": "address"
        },
        {
          "indexed": true,
          "internalType": "address",
          "name": "sender",
          "type": "address"
        }
      ],
      "name": "RoleGranted",
      "type": "event"
    },
    {
      "anonymous": false,
      "inputs": [
        {
          "indexed": true,
          "internalType": "bytes32",
          "name": "role",
          "type": "bytes32"
        },
        {
          "indexed": true,
          "internalType": "address",
          "name": "account",
          "type": "address"
        },
        {
          "indexed": true,
          "internalType": "address",
          "name": "sender",
          "type": "address"
        }
      ],
      "name": "RoleRevoked",
      "type": "event"
    },
    {
      "anonymous": false,
      "inputs": [
        {
          "indexed": false,
          "internalType": "address",
          "name": "account",
          "type": "address"
        }
      ],
      "name": "Unpaused",
      "type": "event"
    },
    {
      "inputs": [],
      "name": "pause",
      "outputs": [],
      "stateMutability": "nonpayable",
      "type": "function"
    },
    {
      "inputs": [],
      "name": "paused",
      "outputs": [
        {
          "internalType": "bool",
          "name": "status",
          "type": "bool"
        }
      ],
      "stateMutability": "view",
      "type": "function"
    },
    {
      "inputs": [],
      "name": "unpause",
      "outputs": [],
      "stateMutability": "nonpayable",
      "type": "function"
    }
  ],
  "bytecode": "0x608080604052346015576107bb908161001b8239f35b600080fdfe6080604052600436101561001257600080fd5b60003560e01c80633f4ba83a146101a15780635c975abb1461014157638456cb591461003d57600080fd5b3461013c5760007ffffffffffffffffffffffffffffffffffffffffffffffffffffffffffffffffc36011261013c5761007461029d565b7f68721c0bbf2c02a4d65000340d1370666be06a630022208d4baa9bd7a4b6fea85460ff8116610112577fffffffffffffffffffffffffffffffffffffffffffffffffffffffffffffff0060019116177f68721c0bbf2c02a4d65000340d1370666be06a630022208d4baa9bd7a4b6fea8557f62e78cea01bee320cd4e420270b5ea74000d11b0c9f74754ebdbfc544b05a2586020604051338152a1005b7f059519da0000000000000000000000000000000000000000000000000000000060005260046000fd5b600080fd5b3461013c5760007ffffffffffffffffffffffffffffffffffffffffffffffffffffffffffffffffc36011261013c57602060ff7f68721c0bbf2c02a4d65000340d1370666be06a630022208d4baa9bd7a4b6fea854166040519015158152f35b3461013c5760007ffffffffffffffffffffffffffffffffffffffffffffffffffffffffffffffffc36011261013c576101d861029d565b7f68721c0bbf2c02a4d65000340d1370666be06a630022208d4baa9bd7a4b6fea85460ff811615610273577fffffffffffffffffffffffffffffffffffffffffffffffffffffffffffffff00167f68721c0bbf2c02a4d65000340d1370666be06a630022208d4baa9bd7a4b6fea8557f5db9ee0a495bf2e6ff9c91a7834c1ba4fdd244a5e8aa4e537bd38aeae4b073aa6020604051338152a1005b7f59488a5a0000000000000000000000000000000000000000000000000000000060005260046000fd5b3360009081527f56672a897fec8f593dbda72d8f96ed3062a0fc2846fe0fef1ce1d2d41603db906020526040902054156102d357565b602a3360006102e18361073a565b916102ef60405193846106ca565b8383526102fb8461073a565b937fffffffffffffffffffffffffffffffffffffffffffffffffffffffffffffffe060208501950136863783511561067a576030855383516001101561067a57607860218501535b600281116105e657506105be57506000604261035e8161073a565b9161036c60405193846106ca565b8183526103788261073a565b917fffffffffffffffffffffffffffffffffffffffffffffffffffffffffffffffe0602085019301368437835115610591576030835383516001101561059157607860218501535b600281116104fb57506104d157601f60449361048660116104c89760377fffffffffffffffffffffffffffffffffffffffffffffffffffffffffffffffe096886104779950604051998a9461044260208701997f416363657373436f6e74726f6c3a206163636f756e74200000000000000000008b52518092878901906106a7565b8501917f206973206d697373696e6720726f6c65200000000000000000000000000000008584015251809360488401906106a7565b010103018481018652856106ca565b6040519586947f08c379a000000000000000000000000000000000000000000000000000000000865260206004870152518092816024880152878701906106a7565b01168101030190fd5b7fab409fe20000000000000000000000000000000000000000000000000000000060005260046000fd5b7fffffffffffffffffffffffffffffffffffffffffffffffffffffffffffffffff0190600f81166010811015610562577f3031323334353637383961626364656600000000000000000000000000000000901a6105588386610774565b5360041c906103c0565b7f4e487b7100000000000000000000000000000000000000000000000000000000600052603260045260246000fd5b6024827f4e487b710000000000000000000000000000000000000000000000000000000081526032600452fd5b807fab409fe20000000000000000000000000000000000000000000000000000000060049252fd5b7fffffffffffffffffffffffffffffffffffffffffffffffffffffffffffffffff0190600f8116601081101561064d577f3031323334353637383961626364656600000000000000000000000000000000901a6106438386610774565b5360041c90610343565b6024847f4e487b710000000000000000000000000000000000000000000000000000000081526032600452fd5b6024837f4e487b710000000000000000000000000000000000000000000000000000000081526032600452fd5b60005b8381106106ba5750506000910152565b81810151838201526020016106aa565b90601f7fffffffffffffffffffffffffffffffffffffffffffffffffffffffffffffffe0910116810190811067ffffffffffffffff82111761070b57604052565b7f4e487b7100000000000000000000000000000000000000000000000000000000600052604160045260246000fd5b67ffffffffffffffff811161070b57601f017fffffffffffffffffffffffffffffffffffffffffffffffffffffffffffffffe01660200190565b90815181101561056257016020019056fea2646970667358221220930ed1bf0afc78727f7ef3c3f4ff245e52be4e1c973489c9acae1c5663e7a20764736f6c634300081c0033",
  "linkReferences": {},
  "deployedLinkReferences": {}
}