{
  "contracts/inits/StakeAirDropInit.sol": {
    "StakeAirDropInit": {
      "abi": [
        {
          "inputs": [
            {
              "internalType": "address",
              "name": "_paymaster",
              "type": "address"
            }
          ],
          "name": "init",
          "outputs": [],
          "stateMutability": "nonpayable",
          "type": "function"
        }
      ],
      "evm": {
        "bytecode": {
          "linkReferences": {},
          "object": "60808060405234601557610168908161001b8239f35b600080fdfe600436101561000d57600080fd5b60003560e01c6319ab453c1461002257600080fd5b3461012d5760207ffffffffffffffffffffffffffffffffffffffffffffffffffffffffffffffffc36011261012d5760043573ffffffffffffffffffffffffffffffffffffffff811680910361012d57674563918244f400007fb4e10a4811f331e910bbd821832ab85ed1158088534d96bdd9d92f6de8be7981557fffffffffffffffffffffffff00000000000000000000000000000000000000007fb4e10a4811f331e910bbd821832ab85ed1158088534d96bdd9d92f6de8be79825416177fb4e10a4811f331e910bbd821832ab85ed1158088534d96bdd9d92f6de8be79825560027fb4e10a4811f331e910bbd821832ab85ed1158088534d96bdd9d92f6de8be798355600080f35b600080fdfea2646970667358221220417e3dcfdca61098b36f853a4b04354967d1d8985b5c67e78e392eb5ad3209c664736f6c634300081c0033",
          "opcodes": "PUSH1 0x80 DUP1 PUSH1 0x40 MSTORE CALLVALUE PUSH1 0x15 JUMPI PUSH2 0x168 SWAP1 DUP2 PUSH2 0x1B DUP3 CODECOPY RETURN JUMPDEST PUSH1 0x0 DUP1 REVERT INVALID PUSH1 0x4 CALLDATASIZE LT ISZERO PUSH2 0xD JUMPI PUSH1 0x0 DUP1 REVERT JUMPDEST PUSH1 0x0 CALLDATALOAD PUSH1 0xE0 SHR PUSH4 0x19AB453C EQ PUSH2 0x22 JUMPI PUSH1 0x0 DUP1 REVERT JUMPDEST CALLVALUE PUSH2 0x12D JUMPI PUSH1 0x20 PUSH32 0xFFFFFFFFFFFFFFFFFFFFFFFFFFFFFFFFFFFFFFFFFFFFFFFFFFFFFFFFFFFFFFFC CALLDATASIZE ADD SLT PUSH2 0x12D JUMPI PUSH1 0x4 CALLDATALOAD PUSH20 0xFFFFFFFFFFFFFFFFFFFFFFFFFFFFFFFFFFFFFFFF DUP2 AND DUP1 SWAP2 SUB PUSH2 0x12D JUMPI PUSH8 0x4563918244F40000 PUSH32 0xB4E10A4811F331E910BBD821832AB85ED1158088534D96BDD9D92F6DE8BE7981 SSTORE PUSH32 0xFFFFFFFFFFFFFFFFFFFFFFFF0000000000000000000000000000000000000000 PUSH32 0xB4E10A4811F331E910BBD821832AB85ED1158088534D96BDD9D92F6DE8BE7982 SLOAD AND OR PUSH32 0xB4E10A4811F331E910BBD821832AB85ED1158088534D96BDD9D92F6DE8BE7982 SSTORE PUSH1 0x2 PUSH32 0xB4E10A4811F331E910BBD821832AB85ED1158088534D96BDD9D92F6DE8BE7983 SSTORE PUSH1 0x0 DUP1 RETURN JUMPDEST PUSH1 0x0 DUP1 REVERT INVALID LOG2 PUSH5 0x6970667358 0x22 SLT KECCAK256 COINBASE PUSH31 0x3DCFDCA61098B36F853A4B04354967D1D8985B5C67E78E392EB5AD3209C664 PUSH20 0x6F6C634300081C00330000000000000000000000 "
        },
        "methodIdentifiers": {
          "init(address)": "19ab453c"
        }
      }
    }
  }
}