{
  "_format": "hh-sol-artifact-1",
  "contractName": "ChallengePoolDispute",
  "sourceName": "contracts/modules/ChallengePoolDispute.sol",
  "abi": [
    {
      "inputs": [
        {
          "internalType": "enum IChallengePool.ChallengeState",
          "name": "_state",
          "type": "uint8"
        }
      ],
      "name": "ActionNotAllowedForState",
      "type": "error"
    },
    {
      "inputs": [],
      "name": "BelowMinPrie",
      "type": "error"
    },
    {
      "inputs": [],
      "name": "DeadlineExceeded",
      "type": "error"
    },
    {
      "inputs": [
        {
          "internalType": "string",
          "name": "_functionName",
          "type": "string"
        }
      ],
      "name": "DelegateCallFailed",
      "type": "error"
    },
    {
      "inputs": [],
      "name": "DisputePeriodElapsed",
      "type": "error"
    },
    {
      "inputs": [],
      "name": "EmptyBytes",
      "type": "error"
    },
    {
      "inputs": [],
      "name": "EmptyString",
      "type": "error"
    },
    {
      "inputs": [
        {
          "internalType": "uint256",
          "name": "_requested",
          "type": "uint256"
        },
        {
          "internalType": "uint256",
          "name": "_available",
          "type": "uint256"
        }
      ],
      "name": "InsufficientStakes",
      "type": "error"
    },
    {
      "inputs": [],
      "name": "InvalidChallenge",
      "type": "error"
    },
    {
      "inputs": [],
      "name": "InvalidEventLength",
      "type": "error"
    },
    {
      "inputs": [],
      "name": "InvalidEventMaturity",
      "type": "error"
    },
    {
      "inputs": [],
      "name": "InvalidEventParam",
      "type": "error"
    },
    {
      "inputs": [],
      "name": "InvalidEventTopic",
      "type": "error"
    },
    {
      "inputs": [],
      "name": "InvalidOptionsLength",
      "type": "error"
    },
    {
      "inputs": [],
      "name": "InvalidOutcome",
      "type": "error"
    },
    {
      "inputs": [],
      "name": "InvalidPoolOption",
      "type": "error"
    },
    {
      "inputs": [],
      "name": "InvalidPrediction",
      "type": "error"
    },
    {
      "inputs": [],
      "name": "MaxPriceExceeded",
      "type": "error"
    },
    {
      "inputs": [],
      "name": "PlayerAlreadyDisputed",
      "type": "error"
    },
    {
      "inputs": [],
      "name": "PlayerAlreadyReleased",
      "type": "error"
    },
    {
      "inputs": [],
      "name": "PlayerAlreadyWithdrawn",
      "type": "error"
    },
    {
      "inputs": [],
      "name": "PlayerDidNotDispute",
      "type": "error"
    },
    {
      "inputs": [],
      "name": "PlayerDidNotWinPool",
      "type": "error"
    },
    {
      "inputs": [],
      "name": "PlayerNotInPool",
      "type": "error"
    },
    {
      "inputs": [],
      "name": "ProtocolInvariantCheckFailed",
      "type": "error"
    },
    {
      "inputs": [
        {
          "internalType": "address",
          "name": "token",
          "type": "address"
        }
      ],
      "name": "SafeERC20FailedOperation",
      "type": "error"
    },
    {
      "inputs": [],
      "name": "StakeLowerThanMinimum",
      "type": "error"
    },
    {
      "inputs": [],
      "name": "UintUtils__InsufficientPadding",
      "type": "error"
    },
    {
      "inputs": [
        {
          "internalType": "address",
          "name": "_token",
          "type": "address"
        }
      ],
      "name": "UnsupportedToken",
      "type": "error"
    },
    {
      "inputs": [],
      "name": "ZeroAddress",
      "type": "error"
    },
    {
      "inputs": [],
      "name": "ZeroNumber",
      "type": "error"
    },
    {
      "anonymous": false,
      "inputs": [
        {
          "indexed": true,
          "internalType": "uint256",
          "name": "challengeId",
          "type": "uint256"
        },
        {
          "indexed": true,
          "internalType": "address",
          "name": "canceller",
          "type": "address"
        },
        {
          "indexed": false,
          "internalType": "enum IChallengePool.ChallengeState",
          "name": "state",
          "type": "uint8"
        }
      ],
      "name": "CancelChallenge",
      "type": "event"
    },
    {
      "anonymous": false,
      "inputs": [
        {
          "indexed": true,
          "internalType": "uint256",
          "name": "challengeId",
          "type": "uint256"
        },
        {
          "indexed": true,
          "internalType": "address",
          "name": "closer",
          "type": "address"
        },
        {
          "indexed": false,
          "internalType": "enum IChallengePool.ChallengeState",
          "name": "state",
          "type": "uint8"
        },
        {
          "indexed": false,
          "internalType": "bytes",
          "name": "result",
          "type": "bytes"
        }
      ],
      "name": "CloseChallenge",
      "type": "event"
    },
    {
      "anonymous": false,
      "inputs": [
        {
          "indexed": true,
          "internalType": "uint256",
          "name": "challengeId",
          "type": "uint256"
        },
        {
          "indexed": true,
          "internalType": "address",
          "name": "disputor",
          "type": "address"
        },
        {
          "indexed": false,
          "internalType": "enum IChallengePool.ChallengeState",
          "name": "state",
          "type": "uint8"
        },
        {
          "indexed": false,
          "internalType": "bytes",
          "name": "result",
          "type": "bytes"
        },
        {
          "indexed": false,
          "internalType": "uint256",
          "name": "amount",
          "type": "uint256"
        }
      ],
      "name": "DisputeOutcome",
      "type": "event"
    },
    {
      "anonymous": false,
      "inputs": [
        {
          "indexed": true,
          "internalType": "uint256",
          "name": "challengeId",
          "type": "uint256"
        },
        {
          "indexed": true,
          "internalType": "address",
          "name": "disputor",
          "type": "address"
        },
        {
          "indexed": false,
          "internalType": "enum IChallengePool.ChallengeState",
          "name": "state",
          "type": "uint8"
        },
        {
          "indexed": false,
          "internalType": "bytes",
          "name": "result",
          "type": "bytes"
        },
        {
          "indexed": false,
          "internalType": "uint256",
          "name": "amount",
          "type": "uint256"
        }
      ],
      "name": "DisputeReleased",
      "type": "event"
    },
    {
      "anonymous": false,
      "inputs": [
        {
          "indexed": true,
          "internalType": "uint256",
          "name": "challengeId",
          "type": "uint256"
        },
        {
          "indexed": true,
          "internalType": "address",
          "name": "evaluator",
          "type": "address"
        },
        {
          "indexed": false,
          "internalType": "enum IChallengePool.ChallengeState",
          "name": "state",
          "type": "uint8"
        },
        {
          "indexed": false,
          "internalType": "bytes",
          "name": "result",
          "type": "bytes"
        }
      ],
      "name": "EvaluateChallenge",
      "type": "event"
    },
    {
      "anonymous": false,
      "inputs": [
        {
          "indexed": true,
          "internalType": "uint256",
          "name": "challengeId",
          "type": "uint256"
        },
        {
          "indexed": true,
          "internalType": "address",
          "name": "creator",
          "type": "address"
        },
        {
          "indexed": false,
          "internalType": "uint256",
          "name": "createdAt",
          "type": "uint256"
        },
        {
          "indexed": false,
          "internalType": "uint256",
          "name": "maturity",
          "type": "uint256"
        },
        {
          "indexed": false,
          "internalType": "enum IChallengePool.ChallengeState",
          "name": "state",
          "type": "uint8"
        },
        {
          "indexed": false,
          "internalType": "bytes",
          "name": "result",
          "type": "bytes"
        },
        {
          "indexed": false,
          "internalType": "uint256",
          "name": "basePrice",
          "type": "uint256"
        },
        {
          "indexed": false,
          "internalType": "uint256",
          "name": "fee",
          "type": "uint256"
        },
        {
          "indexed": false,
          "internalType": "uint256",
          "name": "totalStakes",
          "type": "uint256"
        },
        {
          "indexed": false,
          "internalType": "bytes",
          "name": "prediction",
          "type": "bytes"
        },
        {
          "components": [
            {
              "internalType": "bytes",
              "name": "params",
              "type": "bytes"
            },
            {
              "internalType": "string",
              "name": "topicId",
              "type": "string"
            },
            {
              "internalType": "uint256",
              "name": "maturity",
              "type": "uint256"
            }
          ],
          "indexed": false,
          "internalType": "struct IChallengePool.ChallengeEvent[]",
          "name": "events",
          "type": "tuple[]"
        },
        {
          "indexed": false,
          "internalType": "bytes[]",
          "name": "options",
          "type": "bytes[]"
        },
        {
          "indexed": false,
          "internalType": "address",
          "name": "stakeToken",
          "type": "address"
        },
        {
          "indexed": false,
          "internalType": "address",
          "name": "paymaster",
          "type": "address"
        }
      ],
      "name": "NewChallenge",
      "type": "event"
    },
    {
      "anonymous": false,
      "inputs": [
        {
          "indexed": true,
          "internalType": "bytes32",
          "name": "role",
          "type": "bytes32"
        },
        {
          "indexed": true,
          "internalType": "bytes32",
          "name": "previousAdminRole",
          "type": "bytes32"
        },
        {
          "indexed": true,
          "internalType": "bytes32",
          "name": "newAdminRole",
          "type": "bytes32"
        }
      ],
      "name": "RoleAdminChanged",
      "type": "event"
    },
    {
      "anonymous": false,
      "inputs": [
        {
          "indexed": true,
          "internalType": "bytes32",
          "name": "role",
          "type": "bytes32"
        },
        {
          "indexed": true,
          "internalType": "address",
          "name": "account",
          "type": "address"
        },
        {
          "indexed": true,
          "internalType": "address",
          "name": "sender",
          "type": "address"
        }
      ],
      "name": "RoleGranted",
      "type": "event"
    },
    {
      "anonymous": false,
      "inputs": [
        {
          "indexed": true,
          "internalType": "bytes32",
          "name": "role",
          "type": "bytes32"
        },
        {
          "indexed": true,
          "internalType": "address",
          "name": "account",
          "type": "address"
        },
        {
          "indexed": true,
          "internalType": "address",
          "name": "sender",
          "type": "address"
        }
      ],
      "name": "RoleRevoked",
      "type": "event"
    },
    {
      "anonymous": false,
      "inputs": [
        {
          "indexed": true,
          "internalType": "uint256",
          "name": "challengeId",
          "type": "uint256"
        },
        {
          "indexed": true,
          "internalType": "address",
          "name": "disputor",
          "type": "address"
        },
        {
          "indexed": false,
          "internalType": "enum IChallengePool.ChallengeState",
          "name": "state",
          "type": "uint8"
        },
        {
          "indexed": false,
          "internalType": "bytes",
          "name": "result",
          "type": "bytes"
        },
        {
          "indexed": false,
          "internalType": "uint256",
          "name": "amount",
          "type": "uint256"
        }
      ],
      "name": "SettleDispute",
      "type": "event"
    },
    {
      "anonymous": false,
      "inputs": [
        {
          "indexed": true,
          "internalType": "uint256",
          "name": "challengeId",
          "type": "uint256"
        },
        {
          "indexed": true,
          "internalType": "address",
          "name": "participant",
          "type": "address"
        },
        {
          "indexed": false,
          "internalType": "bytes",
          "name": "option",
          "type": "bytes"
        },
        {
          "indexed": false,
          "internalType": "uint256",
          "name": "stakes",
          "type": "uint256"
        },
        {
          "indexed": false,
          "internalType": "uint256",
          "name": "amount",
          "type": "uint256"
        },
        {
          "indexed": false,
          "internalType": "uint256",
          "name": "fee",
          "type": "uint256"
        }
      ],
      "name": "Stake",
      "type": "event"
    },
    {
      "anonymous": false,
      "inputs": [
        {
          "indexed": true,
          "internalType": "uint256",
          "name": "challengeId",
          "type": "uint256"
        },
        {
          "indexed": true,
          "internalType": "address",
          "name": "participant",
          "type": "address"
        },
        {
          "indexed": false,
          "internalType": "uint256",
          "name": "amountWon",
          "type": "uint256"
        },
        {
          "indexed": false,
          "internalType": "uint256",
          "name": "amountWithdrawn",
          "type": "uint256"
        }
      ],
      "name": "WinningsWithdrawn",
      "type": "event"
    },
    {
      "anonymous": false,
      "inputs": [
        {
          "indexed": true,
          "internalType": "uint256",
          "name": "challengeId",
          "type": "uint256"
        },
        {
          "indexed": true,
          "internalType": "address",
          "name": "participant",
          "type": "address"
        },
        {
          "indexed": false,
          "internalType": "bytes",
          "name": "option",
          "type": "bytes"
        },
        {
          "indexed": false,
          "internalType": "uint256",
          "name": "stakes",
          "type": "uint256"
        },
        {
          "indexed": false,
          "internalType": "uint256",
          "name": "amount",
          "type": "uint256"
        },
        {
          "indexed": false,
          "internalType": "uint256",
          "name": "fee",
          "type": "uint256"
        }
      ],
      "name": "Withdraw",
      "type": "event"
    },
    {
      "inputs": [
        {
          "internalType": "uint256",
          "name": "_challengeId",
          "type": "uint256"
        }
      ],
      "name": "cancel",
      "outputs": [],
      "stateMutability": "nonpayable",
      "type": "function"
    },
    {
      "inputs": [
        {
          "internalType": "uint256",
          "name": "_challengeId",
          "type": "uint256"
        }
      ],
      "name": "close",
      "outputs": [],
      "stateMutability": "nonpayable",
      "type": "function"
    },
    {
      "inputs": [
        {
          "internalType": "uint256",
          "name": "_challengeId",
          "type": "uint256"
        },
        {
          "internalType": "bytes",
          "name": "_outcome",
          "type": "bytes"
        }
      ],
      "name": "dispute",
      "outputs": [],
      "stateMutability": "nonpayable",
      "type": "function"
    },
    {
      "inputs": [
        {
          "internalType": "uint256",
          "name": "_challengeId",
          "type": "uint256"
        }
      ],
      "name": "evaluate",
      "outputs": [],
      "stateMutability": "nonpayable",
      "type": "function"
    },
    {
      "inputs": [
        {
          "internalType": "uint256",
          "name": "_challengeId",
          "type": "uint256"
        }
      ],
      "name": "releaseDispute",
      "outputs": [],
      "stateMutability": "nonpayable",
      "type": "function"
    },
    {
      "inputs": [
        {
          "internalType": "uint256",
          "name": "_challengeId",
          "type": "uint256"
        },
        {
          "internalType": "bytes",
          "name": "_outcome",
          "type": "bytes"
        }
      ],
      "name": "settle",
      "outputs": [],
      "stateMutability": "nonpayable",
      "type": "function"
    }
  ],
  "bytecode": "0x608080604052346015576125b6908161001b8239f35b600080fdfe6080604052600436101561001257600080fd5b60003560e01c80630aebeb4e146117645780633714323314610f5957806339c2ebb914610bfa57806340e58ee514610b115780635a139c801461087f5763f82d578a1461005e57600080fd5b3461060f5761006c366118a7565b7fbc351ae7fa32df0c8ad57278243ae7d011e90d073629dfc92fda8e9f319c6fd59291925482101561085557816000527fbc351ae7fa32df0c8ad57278243ae7d011e90d073629dfc92fda8e9f319c6fcc6020526100cd6040600020611dee565b600781101561058e576004810361082257506020926101076040516100f28682611934565b60008152610101368585611d87565b90611dcb565b6107f857826000527fbc351ae7fa32df0c8ad57278243ae7d011e90d073629dfc92fda8e9f319c6fcc84526040600020836000527fbc351ae7fa32df0c8ad57278243ae7d011e90d073629dfc92fda8e9f319c6fcf855260ff604060002086604051809287878337878201908152030190205416156107f8573360009081527fbc351ae7fa32df0c8ad57278243ae7d011e90d073629dfc92fda8e9f319c6fce60205260409020846000528552600160406000200154156107ce576101d0600a82015442611dbe565b7fbc351ae7fa32df0c8ad57278243ae7d011e90d073629dfc92fda8e9f319c6fde54106107a457836000527fbc351ae7fa32df0c8ad57278243ae7d011e90d073629dfc92fda8e9f319c6fd2855260408060002060009073ffffffffffffffffffffffffffffffffffffffff331682528752206001810190815461077a5767ffffffffffffffff851161074b576102718561026b83546119af565b83611c06565b846000601f821160011461069057916102d8826006959373ffffffffffffffffffffffffffffffffffffffff9795600091610685575b507fffffffffffffffffffffffffffffffffffffffffffffffffffffffffffffffff8260011b9260031b1c19161790565b90555b7fbc351ae7fa32df0c8ad57278243ae7d011e90d073629dfc92fda8e9f319c6fdf54905560098101805460ff811615610657575b50507fbc351ae7fa32df0c8ad57278243ae7d011e90d073629dfc92fda8e9f319c6fdf54866000527fbc351ae7fa32df0c8ad57278243ae7d011e90d073629dfc92fda8e9f319c6fd3885261037e60406000208960405180928a8a83378a820190815203019020918254611c58565b90557fbc351ae7fa32df0c8ad57278243ae7d011e90d073629dfc92fda8e9f319c6fdf54866000527fbc351ae7fa32df0c8ad57278243ae7d011e90d073629dfc92fda8e9f319c6fd488526103d96040600020918254611c58565b90550154167fbc351ae7fa32df0c8ad57278243ae7d011e90d073629dfc92fda8e9f319c6fdf5490604051907f70a082310000000000000000000000000000000000000000000000000000000082523060048301528682602481845afa90811561061b578790600092610627575b6024935061049c6040517f23b872dd0000000000000000000000000000000000000000000000000000000084820152338682015230604482015286606482015260648152610496608482611934565b826124f5565b604051938480927f70a082310000000000000000000000000000000000000000000000000000000082523060048301525afa801561061b576000906105e7575b6104e69250611dbe565b036105bd577fbc351ae7fa32df0c8ad57278243ae7d011e90d073629dfc92fda8e9f319c6fdf5460405190949091837fa2f36d372ca4283714640219602ffb66ae32e45c862842801326d61eede764d794601f9260607fffffffffffffffffffffffffffffffffffffffffffffffffffffffffffffffe095600688528701528160608701526080860137600060808286010152011681019360408201526080813395030190a3005b7f4e487b7100000000000000000000000000000000000000000000000000000000600052602160045260246000fd5b7fc7e8fc500000000000000000000000000000000000000000000000000000000060005260046000fd5b508682813d8311610614575b6105fd8183611934565b8101031261060f576104e691516104dc565b600080fd5b503d6105f3565b6040513d6000823e3d90fd5b915082813d8311610650575b61063d8183611934565b8101031261060f57866024925191610447565b503d610633565b7fffffffffffffffffffffffffffffffffffffffffffffffffffffffffffffff00166001179055388061030f565b9050880135386102a7565b8281528881209187907fffffffffffffffffffffffffffffffffffffffffffffffffffffffffffffffe016825b8b82821061073257505091600695939173ffffffffffffffffffffffffffffffffffffffff979593106106fa575b5050600187811b0190556102db565b7fffffffffffffffffffffffffffffffffffffffffffffffffffffffffffffffff60f88a60031b161c199088013516905538806106eb565b898501358655600190950194938401938a9350016106bd565b7f4e487b7100000000000000000000000000000000000000000000000000000000600052604160045260246000fd5b7fe90ecb600000000000000000000000000000000000000000000000000000000060005260046000fd5b7f1769da420000000000000000000000000000000000000000000000000000000060005260046000fd5b7f3110f1d80000000000000000000000000000000000000000000000000000000060005260046000fd5b7fc74a206d0000000000000000000000000000000000000000000000000000000060005260046000fd5b61084f907fabe418b700000000000000000000000000000000000000000000000000000000600052611919565b60246000fd5b7f92fa6fd30000000000000000000000000000000000000000000000000000000060005260046000fd5b3461060f5760207ffffffffffffffffffffffffffffffffffffffffffffffffffffffffffffffffc36011261060f576004357fbc351ae7fa32df0c8ad57278243ae7d011e90d073629dfc92fda8e9f319c6fd55481101561085557806000527fbc351ae7fa32df0c8ad57278243ae7d011e90d073629dfc92fda8e9f319c6fcc60205261090f6040600020611dee565b600781101561058e57600181036108225750806000527fbc351ae7fa32df0c8ad57278243ae7d011e90d073629dfc92fda8e9f319c6fcc6020526040600020906109983373ffffffffffffffffffffffffffffffffffffffff166000527fbc351ae7fa32df0c8ad57278243ae7d011e90d073629dfc92fda8e9f319c6fce602052604060002090565b81600052602052600160406000200154156107ce57806000527fbc351ae7fa32df0c8ad57278243ae7d011e90d073629dfc92fda8e9f319c6fd260205260408060002060009073ffffffffffffffffffffffffffffffffffffffff3316825260205220916001830180548015610ae7576002850180549360ff8516610abd57610a8c610aaf9360ff9360017fffffffffffffffffffffffffffffffffffffffffffffffffffffffffffffff007fb24a27359e856fd6f2185516f6a72446c33a18e343dfc739b4c2340347b809a69916179055339073ffffffffffffffffffffffffffffffffffffffff600685015416612365565b5416915494610a9e6040518094611927565b606060208401526060830190611ac4565b9360408201528033940390a3005b7f181b23060000000000000000000000000000000000000000000000000000000060005260046000fd5b7fce902ec00000000000000000000000000000000000000000000000000000000060005260046000fd5b3461060f5760207ffffffffffffffffffffffffffffffffffffffffffffffffffffffffffffffffc36011261060f57600435610b4b611fd4565b7fbc351ae7fa32df0c8ad57278243ae7d011e90d073629dfc92fda8e9f319c6fd55481101561085557806000527fbc351ae7fa32df0c8ad57278243ae7d011e90d073629dfc92fda8e9f319c6fcc602052604060002060027fffffffffffffffffffffffffffffffffffffffffffffffffffffffffffffff0082541617905560405190600282527ff1c355ceaac9a7d7014f5e6084c095e19bc67d436144b3e0f338d215f0706d0360203393a3005b3461060f57610c08366118a7565b610c13929192611fd4565b7fbc351ae7fa32df0c8ad57278243ae7d011e90d073629dfc92fda8e9f319c6fd55482101561085557816000527fbc351ae7fa32df0c8ad57278243ae7d011e90d073629dfc92fda8e9f319c6fcc602052610c716040600020611dee565b600781101561058e57600681036108225750602092610c966040516100f28682611934565b6107f857826000527fbc351ae7fa32df0c8ad57278243ae7d011e90d073629dfc92fda8e9f319c6fcc845260406000209360057fffffffffffffffffffffffffffffffffffffffffffffffffffffffffffffff008654161785556001850167ffffffffffffffff841161074b57610d118461026b83546119af565b600084601f8111600114610ebc5780610d5c92600091610eb157507fffffffffffffffffffffffffffffffffffffffffffffffffffffffffffffffff8260011b9260031b1c19161790565b90555b836000527fbc351ae7fa32df0c8ad57278243ae7d011e90d073629dfc92fda8e9f319c6fd48152610e3373ffffffffffffffffffffffffffffffffffffffff6006610df0604060002054886000527fbc351ae7fa32df0c8ad57278243ae7d011e90d073629dfc92fda8e9f319c6fd3865260406000208660405180928b8b83378b8201908152030190205490611dbe565b970154168673ffffffffffffffffffffffffffffffffffffffff7fbc351ae7fa32df0c8ad57278243ae7d011e90d073629dfc92fda8e9f319c6fdd541691612365565b60405191837ff0d6297b129114fe6d7a0cb8796989a0273fb75cae8bf9385031d3a07a3e6f4b94601f9260607fffffffffffffffffffffffffffffffffffffffffffffffffffffffffffffffe095600588528701528160608701526080860137600060808286010152011681019360408201526080813395030190a3005b9050850135896102a7565b7fffffffffffffffffffffffffffffffffffffffffffffffffffffffffffffffe016908281528584822092825b86828210610f4057505010610f08575b5050600184811b019055610d5f565b7fffffffffffffffffffffffffffffffffffffffffffffffffffffffffffffffff60f88760031b161c19908501351690558680610ef9565b8885013586556001909501949384019389935001610ee9565b3461060f5760207ffffffffffffffffffffffffffffffffffffffffffffffffffffffffffffffffc36011261060f576004357fbc351ae7fa32df0c8ad57278243ae7d011e90d073629dfc92fda8e9f319c6fd55481101561085557806000527fbc351ae7fa32df0c8ad57278243ae7d011e90d073629dfc92fda8e9f319c6fcc602052610fe96040600020611dee565b600781101561058e57600381036108225750806000527fbc351ae7fa32df0c8ad57278243ae7d011e90d073629dfc92fda8e9f319c6fcc60205260406000206020604051916110388284611934565b6000835261104d600182019361010185611a02565b6107f85760017fffffffffffffffffffffffffffffffffffffffffffffffffffffffffffffff008254161781556040516110878382611934565b60008152815460081c60ff161561157c5750600781019360019360005b86548110156112615760016110b98289611b66565b500185604051916000908054906110cf826119af565b916001811690811561122c57506001146111f8575b50509160029181847fba07f9bdb83529457286bae2254b67a516d5fac42a7c08e76b28b1c094cd2f2660ff965203019020015460a01c16600281101561058e57156111ce5760026111358289611b66565b5001546111637fbc351ae7fa32df0c8ad57278243ae7d011e90d073629dfc92fda8e9f319c6fdc5442611c58565b116111a45761118e611173611c94565b610101611189611183858c611b66565b50611bb1565b611e1b565b61119b575b6001016110a4565b60009550611193565b7fcce559bd0000000000000000000000000000000000000000000000000000000060005260046000fd5b7f4aa91a460000000000000000000000000000000000000000000000000000000060005260046000fd5b909150600052816000206000905b828210611218575050820181836110e4565b805482860152899390910190600101611206565b7fffffffffffffffffffffffffffffffffffffffffffffffffffffffffffffff001686525050801515028301905081836110e4565b50919450921561140e57611273611cdc565b80519067ffffffffffffffff821161074b576112998261129385546119af565b85611c06565b8390601f831160011461134957918061130a927f80f66fbf7ec17db9bc1a56585c52d733a369f41a93d2459c97cf644e9ac341e096959460009261133e575b50507fffffffffffffffffffffffffffffffffffffffffffffffffffffffffffffffff8260011b9260031b1c19161790565b90555b611315611cdc565b935b600a429101556040805191600183528201528061133933956040830190611d44565b0390a3005b0151905088806112d8565b907fffffffffffffffffffffffffffffffffffffffffffffffffffffffffffffffe083169184600052856000209260005b8181106113f757509160019391857f80f66fbf7ec17db9bc1a56585c52d733a369f41a93d2459c97cf644e9ac341e098979694106113c0575b505050811b01905561130d565b01517fffffffffffffffffffffffffffffffffffffffffffffffffffffffffffffffff60f88460031b161c191690558780806113b3565b92938760018192878601518155019501930161137a565b611416611c94565b80519067ffffffffffffffff821161074b576114368261129385546119af565b8390601f83116001146114b75791806114a6927f80f66fbf7ec17db9bc1a56585c52d733a369f41a93d2459c97cf644e9ac341e096959460009261133e5750507fffffffffffffffffffffffffffffffffffffffffffffffffffffffffffffffff8260011b9260031b1c19161790565b90555b6114b1611c94565b93611317565b907fffffffffffffffffffffffffffffffffffffffffffffffffffffffffffffffe083169184600052856000209260005b81811061156557509160019391857f80f66fbf7ec17db9bc1a56585c52d733a369f41a93d2459c97cf644e9ac341e0989796941061152e575b505050811b0190556114a9565b01517fffffffffffffffffffffffffffffffffffffffffffffffffffffffffffffffff60f88460031b161c19169055878080611521565b9293876001819287860151815501950193016114e8565b939260078201600090805415611737579084918152206115a0611189600092611bb1565b9081519167ffffffffffffffff831161170a576115c7836115c186546119af565b86611c06565b8591601f8411600114611648577f80f66fbf7ec17db9bc1a56585c52d733a369f41a93d2459c97cf644e9ac341e0969594936116369390928361163d5750507fffffffffffffffffffffffffffffffffffffffffffffffffffffffffffffffff8260011b9260031b1c19161790565b9055611317565b0151905089806112d8565b91907fffffffffffffffffffffffffffffffffffffffffffffffffffffffffffffffe08416858452878420935b8181106116f357509160019391857f80f66fbf7ec17db9bc1a56585c52d733a369f41a93d2459c97cf644e9ac341e09998979694106116bc575b505050811b019055611317565b01517fffffffffffffffffffffffffffffffffffffffffffffffffffffffffffffffff60f88460031b161c191690558880806116af565b929388600181928786015181550195019301611675565b6024827f4e487b710000000000000000000000000000000000000000000000000000000081526041600452fd5b6024827f4e487b710000000000000000000000000000000000000000000000000000000081526032600452fd5b3461060f5760207ffffffffffffffffffffffffffffffffffffffffffffffffffffffffffffffffc36011261060f576004357fbc351ae7fa32df0c8ad57278243ae7d011e90d073629dfc92fda8e9f319c6fd55481101561085557806000527fbc351ae7fa32df0c8ad57278243ae7d011e90d073629dfc92fda8e9f319c6fcc60205260406000209060ff825416600781101561058e576005811480159061189c575b61082257506040519161181b602084611934565b60008352611830600182019361010185611a02565b6107f85760017fffffffffffffffffffffffffffffffffffffffffffffffffffffffffffffff008254161790557f9b327a4ca612250b263fec35bd1093e1750b5245b99e30ced83d74c5d477ce0060405160018152604060208201528061133933956040830190611ac4565b506004811415611807565b60407ffffffffffffffffffffffffffffffffffffffffffffffffffffffffffffffffc82011261060f576004359160243567ffffffffffffffff811161060f578260238201121561060f5780600401359267ffffffffffffffff841161060f576024848301011161060f576024019190565b600781101561058e57600452565b90600782101561058e5752565b90601f7fffffffffffffffffffffffffffffffffffffffffffffffffffffffffffffffe0910116810190811067ffffffffffffffff82111761074b57604052565b67ffffffffffffffff811161074b57601f017fffffffffffffffffffffffffffffffffffffffffffffffffffffffffffffffe01660200190565b90600182811c921680156119f8575b60208310146119c957565b7f4e487b7100000000000000000000000000000000000000000000000000000000600052602260045260246000fd5b91607f16916119be565b9060405191826000825492611a16846119af565b8084529360018116908115611a845750600114611a3d575b50611a3b92500383611934565b565b90506000929192526020600020906000915b818310611a68575050906020611a3b9282010138611a2e565b6020919350806001915483858901015201910190918492611a4f565b60209350611a3b9592507fffffffffffffffffffffffffffffffffffffffffffffffffffffffffffffff0091501682840152151560051b82010138611a2e565b60009291815491611ad4836119af565b8083529260018116908115611b2a5750600114611af057505050565b60009081526020812093945091925b838310611b10575060209250010190565b600181602092949394548385870101520191019190611aff565b905060209495507fffffffffffffffffffffffffffffffffffffffffffffffffffffffffffffff0091509291921683830152151560051b010190565b8054821015611b82576000526003602060002091020190600090565b7f4e487b7100000000000000000000000000000000000000000000000000000000600052603260045260246000fd5b906040516060810181811067ffffffffffffffff82111761074b57604052604060028294611bde81611a02565b84528251611bfa81611bf38160018601611ac4565b0382611934565b60208501520154910152565b601f8211611c1357505050565b6000526020600020906020601f840160051c83019310611c4e575b601f0160051c01905b818110611c42575050565b60008155600101611c37565b9091508190611c2e565b91908201809211611c6557565b7f4e487b7100000000000000000000000000000000000000000000000000000000600052601160045260246000fd5b604051602080820152600260408201527f6e6f000000000000000000000000000000000000000000000000000000000000606082015260608152611cd9608082611934565b90565b604051602080820152600360408201527f7965730000000000000000000000000000000000000000000000000000000000606082015260608152611cd9608082611934565b60005b838110611d345750506000910152565b8181015183820152602001611d24565b907fffffffffffffffffffffffffffffffffffffffffffffffffffffffffffffffe0601f602093611d8081518092818752878088019101611d21565b0116010190565b929192611d9382611975565b91611da16040519384611934565b82948184528183011161060f578281602093846000960137010152565b91908203918211611c6557565b805190825191828103611de5576020809201209201201490565b50505050600090565b60ff81541690600782101561058e578115611e07575090565b60040154421015611e155790565b50600390565b600080916020810173ffffffffffffffffffffffffffffffffffffffff6001611e54602084518160405193828580945193849201611d21565b81017fba07f9bdb83529457286bae2254b67a516d5fac42a7c08e76b28b1c094cd2f2681520301902001541691611f3860405180926040611f0460208401967f164cf76b00000000000000000000000000000000000000000000000000000000885260206024860152611ed384516060604488015260a4870190611d44565b90517fffffffffffffffffffffffffffffffffffffffffffffffffffffffffffffffbc868303016064870152611d44565b9101516084830152037fffffffffffffffffffffffffffffffffffffffffffffffffffffffffffffffe08101835282611934565b51915af43d15611fcc573d90611f4d82611975565b91611f5b6040519384611934565b82523d6000602084013e5b15611f6e5790565b60646040517f9becf85d00000000000000000000000000000000000000000000000000000000815260206004820152600d60248201527f5f7265736f6c76654576656e74000000000000000000000000000000000000006044820152fd5b606090611f66565b3360009081527f5df958419b70ebe5143806cf0f6478e784c70715571b1537a8654d08aa000c9860205260409020541561200a57565b33602a600061201882611975565b926120266040519485611934565b82845261203283611975565b927fffffffffffffffffffffffffffffffffffffffffffffffffffffffffffffffe06020860194013685378451156122d157603084538451600110156122d157607860218601535b600281116122fe575061221557507f257f7af571bef1aeea6fc91519e3aff624d394bb4c68c84751ea30774903cea06000916042926120b884611975565b926120c66040519485611934565b8484526120d285611975565b947fffffffffffffffffffffffffffffffffffffffffffffffffffffffffffffffe06020860196013687378451156122d157603086538451600110156122d157607860218601535b6002811161223d5750612215576122116121736121d7601188603789896121a88a6040519889967f416363657373436f6e74726f6c3a206163636f756e7420000000000000000000602089015251809287890190611d21565b8501917f206973206d697373696e6720726f6c6520000000000000000000000000000000858401525180936048840190611d21565b010103017fffffffffffffffffffffffffffffffffffffffffffffffffffffffffffffffe08101835282611934565b6040519182917f08c379a0000000000000000000000000000000000000000000000000000000008352602060048401526024830190611d44565b0390fd5b807fab409fe20000000000000000000000000000000000000000000000000000000060049252fd5b7fffffffffffffffffffffffffffffffffffffffffffffffffffffffffffffffff0190600f811660108110156122a4577f3031323334353637383961626364656600000000000000000000000000000000901a61229a83876124e4565b5360041c9061211a565b6024847f4e487b710000000000000000000000000000000000000000000000000000000081526032600452fd5b6024837f4e487b710000000000000000000000000000000000000000000000000000000081526032600452fd5b7fffffffffffffffffffffffffffffffffffffffffffffffffffffffffffffffff0190600f811660108110156122a4577f3031323334353637383961626364656600000000000000000000000000000000901a61235b83876124e4565b5360041c9061207a565b73ffffffffffffffffffffffffffffffffffffffff909291921690604051907f70a08231000000000000000000000000000000000000000000000000000000008252306004830152602082602481865afa91821561061b576000926124af575b5060249261242760209273ffffffffffffffffffffffffffffffffffffffff604051917fa9059cbb0000000000000000000000000000000000000000000000000000000086840152168682015286604482015260448152610496606482611934565b604051938480927f70a082310000000000000000000000000000000000000000000000000000000082523060048301525afa90811561061b57600091612479575b6124729250611dbe565b036105bd57565b90506020823d6020116124a7575b8161249460209383611934565b8101031261060f57612472915190612468565b3d9150612487565b9091506020813d6020116124dc575b816124cb60209383611934565b8101031261060f57519060246123c5565b3d91506124be565b908151811015611b82570160200190565b906000602091828151910182855af11561061b576000513d612577575073ffffffffffffffffffffffffffffffffffffffff81163b155b6125335750565b73ffffffffffffffffffffffffffffffffffffffff907f5274afe7000000000000000000000000000000000000000000000000000000006000521660045260246000fd5b6001141561252c56fea26469706673582212203b3f0e7cb99669f6ee373089d5061b62d296f5af1aeeb4145403c87f151c0a8c64736f6c634300081c0033",
  "linkReferences": {},
  "deployedLinkReferences": {}
}