{
  "_format": "hh-sol-artifact-1",
  "contractName": "TopicRegistry",
  "sourceName": "contracts/modules/TopicRegistry.sol",
  "abi": [
    {
      "inputs": [
        {
          "internalType": "string",
          "name": "_functionName",
          "type": "string"
        }
      ],
      "name": "DelegateCallFailed",
      "type": "error"
    },
    {
      "inputs": [],
      "name": "EmptyBytes",
      "type": "error"
    },
    {
      "inputs": [],
      "name": "EmptyString",
      "type": "error"
    },
    {
      "inputs": [],
      "name": "ExistingTopic",
      "type": "error"
    },
    {
      "inputs": [],
      "name": "InvalidTopic",
      "type": "error"
    },
    {
      "inputs": [],
      "name": "UintUtils__InsufficientPadding",
      "type": "error"
    },
    {
      "inputs": [],
      "name": "ZeroAddress",
      "type": "error"
    },
    {
      "inputs": [],
      "name": "ZeroNumber",
      "type": "error"
    },
    {
      "anonymous": false,
      "inputs": [
        {
          "indexed": false,
          "internalType": "string",
          "name": "topicId",
          "type": "string"
        },
        {
          "indexed": false,
          "internalType": "address",
          "name": "poolResolver",
          "type": "address"
        },
        {
          "indexed": false,
          "internalType": "address",
          "name": "dataProvider",
          "type": "address"
        },
        {
          "indexed": false,
          "internalType": "enum ITopicRegistry.TopicState",
          "name": "state",
          "type": "uint8"
        }
      ],
      "name": "NewTopic",
      "type": "event"
    },
    {
      "anonymous": false,
      "inputs": [
        {
          "indexed": true,
          "internalType": "bytes32",
          "name": "role",
          "type": "bytes32"
        },
        {
          "indexed": true,
          "internalType": "bytes32",
          "name": "previousAdminRole",
          "type": "bytes32"
        },
        {
          "indexed": true,
          "internalType": "bytes32",
          "name": "newAdminRole",
          "type": "bytes32"
        }
      ],
      "name": "RoleAdminChanged",
      "type": "event"
    },
    {
      "anonymous": false,
      "inputs": [
        {
          "indexed": true,
          "internalType": "bytes32",
          "name": "role",
          "type": "bytes32"
        },
        {
          "indexed": true,
          "internalType": "address",
          "name": "account",
          "type": "address"
        },
        {
          "indexed": true,
          "internalType": "address",
          "name": "sender",
          "type": "address"
        }
      ],
      "name": "RoleGranted",
      "type": "event"
    },
    {
      "anonymous": false,
      "inputs": [
        {
          "indexed": true,
          "internalType": "bytes32",
          "name": "role",
          "type": "bytes32"
        },
        {
          "indexed": true,
          "internalType": "address",
          "name": "account",
          "type": "address"
        },
        {
          "indexed": true,
          "internalType": "address",
          "name": "sender",
          "type": "address"
        }
      ],
      "name": "RoleRevoked",
      "type": "event"
    },
    {
      "anonymous": false,
      "inputs": [
        {
          "indexed": false,
          "internalType": "string",
          "name": "topicId",
          "type": "string"
        },
        {
          "indexed": false,
          "internalType": "enum ITopicRegistry.TopicState",
          "name": "state",
          "type": "uint8"
        }
      ],
      "name": "TopicDisabled",
      "type": "event"
    },
    {
      "anonymous": false,
      "inputs": [
        {
          "indexed": false,
          "internalType": "string",
          "name": "topicId",
          "type": "string"
        },
        {
          "indexed": false,
          "internalType": "enum ITopicRegistry.TopicState",
          "name": "state",
          "type": "uint8"
        }
      ],
      "name": "TopicEnabled",
      "type": "event"
    },
    {
      "inputs": [
        {
          "internalType": "string",
          "name": "_topicId",
          "type": "string"
        },
        {
          "internalType": "address",
          "name": "_poolResolver",
          "type": "address"
        },
        {
          "internalType": "address",
          "name": "_dataProvider",
          "type": "address"
        }
      ],
      "name": "createTopic",
      "outputs": [],
      "stateMutability": "nonpayable",
      "type": "function"
    },
    {
      "inputs": [
        {
          "internalType": "string",
          "name": "_topicId",
          "type": "string"
        }
      ],
      "name": "disableTopic",
      "outputs": [],
      "stateMutability": "nonpayable",
      "type": "function"
    },
    {
      "inputs": [
        {
          "internalType": "string",
          "name": "_topicId",
          "type": "string"
        }
      ],
      "name": "enableTopic",
      "outputs": [],
      "stateMutability": "nonpayable",
      "type": "function"
    },
    {
      "inputs": [
        {
          "internalType": "string",
          "name": "_topicId",
          "type": "string"
        },
        {
          "internalType": "bytes",
          "name": "_params",
          "type": "bytes"
        }
      ],
      "name": "getData",
      "outputs": [
        {
          "internalType": "bytes",
          "name": "",
          "type": "bytes"
        }
      ],
      "stateMutability": "nonpayable",
      "type": "function"
    },
    {
      "inputs": [
        {
          "internalType": "string",
          "name": "_topicId",
          "type": "string"
        }
      ],
      "name": "getTopic",
      "outputs": [
        {
          "components": [
            {
              "internalType": "string",
              "name": "topicId",
              "type": "string"
            },
            {
              "internalType": "contract IPoolResolver",
              "name": "poolResolver",
              "type": "address"
            },
            {
              "internalType": "contract IDataProvider",
              "name": "dataProvider",
              "type": "address"
            },
            {
              "internalType": "enum ITopicRegistry.TopicState",
              "name": "state",
              "type": "uint8"
            }
          ],
          "internalType": "struct ITopicRegistry.Topic",
          "name": "",
          "type": "tuple"
        }
      ],
      "stateMutability": "view",
      "type": "function"
    },
    {
      "inputs": [
        {
          "internalType": "string",
          "name": "_topicId",
          "type": "string"
        },
        {
          "internalType": "bytes",
          "name": "_params",
          "type": "bytes"
        }
      ],
      "name": "hasData",
      "outputs": [
        {
          "internalType": "bool",
          "name": "",
          "type": "bool"
        }
      ],
      "stateMutability": "nonpayable",
      "type": "function"
    },
    {
      "inputs": [
        {
          "internalType": "string",
          "name": "_topicId",
          "type": "string"
        },
        {
          "internalType": "bytes",
          "name": "_params",
          "type": "bytes"
        }
      ],
      "name": "provideData",
      "outputs": [],
      "stateMutability": "nonpayable",
      "type": "function"
    },
    {
      "inputs": [
        {
          "internalType": "string",
          "name": "_topicId",
          "type": "string"
        },
        {
          "internalType": "bytes",
          "name": "_params",
          "type": "bytes"
        }
      ],
      "name": "registerEvent",
      "outputs": [],
      "stateMutability": "nonpayable",
      "type": "function"
    },
    {
      "inputs": [
        {
          "internalType": "string",
          "name": "_topicId",
          "type": "string"
        },
        {
          "internalType": "bytes",
          "name": "_params",
          "type": "bytes"
        }
      ],
      "name": "updateProvision",
      "outputs": [],
      "stateMutability": "nonpayable",
      "type": "function"
    }
  ],
  "bytecode": "0x608080604052346015576114ea908161001b8239f35b600080fdfe6080604052600436101561001257600080fd5b60003560e01c80631473addf14610dc4578063474502d814610bc05780635721c29914610a8357806362fd171f146106015780636490c03d146104a55780636b7d4169146102f65780638beb2f801461039a578063ad5b8dc6146102f65763b3d7d57a1461007f57600080fd5b346102f15761008d36610efc565b3360009081527fe462662cce7075a229bc540c3fa56dbdf044adfc96ab6efabe903fb7038c484c6020526040902054156101cd5761012f61015b73ffffffffffffffffffffffffffffffffffffffff60026100ec600098978998610fd2565b0154169360405192839160208301957feca82c1a00000000000000000000000000000000000000000000000000000000875260206024850152604484019161100a565b037fffffffffffffffffffffffffffffffffffffffffffffffffffffffffffffffe08101835282611065565b51915af46101676110e0565b501561016f57005b60646040517f9becf85d00000000000000000000000000000000000000000000000000000000815260206004820152601960248201527f546f70696352656769737472792e70726f7669646544617461000000000000006044820152fd5b6102ed6101d9336112c2565b6102b360116102077f68e79a7bf1e0bc45d0a330c573bc367f9cf464fd326078812f301165fbda4ef16113d0565b9260376040519485927f416363657373436f6e74726f6c3a206163636f756e742000000000000000000060208501526102498151809260208688019101610f6c565b83017f206973206d697373696e6720726f6c652000000000000000000000000000000083820152610284825180936020604885019101610f6c565b010103017fffffffffffffffffffffffffffffffffffffffffffffffffffffffffffffffe08101835282611065565b6040519182917f08c379a0000000000000000000000000000000000000000000000000000000008352602060048401526024830190610f8f565b0390fd5b600080fd5b346102f15760207ffffffffffffffffffffffffffffffffffffffffffffffffffffffffffffffffc3601126102f15760043567ffffffffffffffff81116102f157610345903690600401610ece565b6103586103528284610fd2565b54611110565b156103705761036e91610369611212565b61119a565b005b7f69585f990000000000000000000000000000000000000000000000000000000060005260046000fd5b346102f1576000806103d6600261012f61041973ffffffffffffffffffffffffffffffffffffffff6103cb36610efc565b969297919097610fd2565b0154169360405192839160208301957f1431b23a00000000000000000000000000000000000000000000000000000000875260206024850152604484019161100a565b51915af46104256110e0565b90156104475761044390604051918291602083526020830190610f8f565b0390f35b60646040517f9becf85d00000000000000000000000000000000000000000000000000000000815260206004820152601560248201527f546f70696352656769737472792e6765744461746100000000000000000000006044820152fd5b346102f1576104b336610efc565b3360009081527f5df958419b70ebe5143806cf0f6478e784c70715571b1537a8654d08aa000c986020526040902054156105c75761012f61055573ffffffffffffffffffffffffffffffffffffffff6002610512600098978998610fd2565b0154169360405192839160208301957f87a7cfd800000000000000000000000000000000000000000000000000000000875260206024850152604484019161100a565b51915af46105616110e0565b501561056957005b60646040517f9becf85d00000000000000000000000000000000000000000000000000000000815260206004820152601d60248201527f546f70696352656769737472792e75706461746550726f766973696f6e0000006044820152fd5b6102ed6105d3336112c2565b6102b360116102077f257f7af571bef1aeea6fc91519e3aff624d394bb4c68c84751ea30774903cea06113d0565b346102f15760607ffffffffffffffffffffffffffffffffffffffffffffffffffffffffffffffffc3601126102f15760043567ffffffffffffffff81116102f157610650903690600401610ece565b906024359073ffffffffffffffffffffffffffffffffffffffff82168092036102f1576044359273ffffffffffffffffffffffffffffffffffffffff84168094036102f15761069d611212565b6106a8368284611163565b5115610a59578215610a2f578315610a2f576106c76103528284610fd2565b610a0557604051926106d884611049565b6106e3368385611163565b84526020840181815260408501948686526060810191600183526107078587610fd2565b915180519067ffffffffffffffff82116109d6576107258454611110565b601f811161098e575b50602090601f83116001146108cf5773ffffffffffffffffffffffffffffffffffffffff94919383600294879687946000926108c4575b50507fffffffffffffffffffffffffffffffffffffffffffffffffffffffffffffffff8260011b9260031b1c19161783555b5116836001830191167fffffffffffffffffffffffff000000000000000000000000000000000000000082541617905501965116167fffffffffffffffffffffffff000000000000000000000000000000000000000086541617855551946002861015610895577f83339b6b7d198b91b7fca60f28a81c5f17d8b9f98b84652f0321f86cbab3a398946000967fffffffffffffffffffffff00ffffffffffffffffffffffffffffffffffffffff74ff000000000000000000000000000000000000000083549260a01b16911617905561087d60405194859460808652608086019161100a565b9160208401526040830152600160608301520390a180f35b7f4e487b7100000000000000000000000000000000000000000000000000000000600052602160045260246000fd5b015190508e80610765565b907fffffffffffffffffffffffffffffffffffffffffffffffffffffffffffffffe083169185600052816000209260005b81811061097657508473ffffffffffffffffffffffffffffffffffffffff97948897939488956002986001951061093f575b505050811b018355610797565b01517fffffffffffffffffffffffffffffffffffffffffffffffffffffffffffffffff60f88460031b161c191690558e8080610932565b92936020600181928786015181550195019301610900565b846000526020600020601f840160051c810191602085106109cc575b601f0160051c01905b8181106109c0575061072e565b600081556001016109b3565b90915081906109aa565b7f4e487b7100000000000000000000000000000000000000000000000000000000600052604160045260246000fd5b7ff73fe37a0000000000000000000000000000000000000000000000000000000060005260046000fd5b7fd92e233d0000000000000000000000000000000000000000000000000000000060005260046000fd5b7fecd7b0d10000000000000000000000000000000000000000000000000000000060005260046000fd5b346102f157610a9136610efc565b3360009081527f56672a897fec8f593dbda72d8f96ed3062a0fc2846fe0fef1ce1d2d41603db90602052604090205415610ba55761012f610b3373ffffffffffffffffffffffffffffffffffffffff6002610af0600098978998610fd2565b0154169360405192839160208301957fc90d080a00000000000000000000000000000000000000000000000000000000875260206024850152604484019161100a565b51915af4610b3f6110e0565b5015610b4757005b60646040517f9becf85d00000000000000000000000000000000000000000000000000000000815260206004820152601b60248201527f546f70696352656769737472792e72656769737465724576656e7400000000006044820152fd5b6102ed610bb1336112c2565b6102b3601161020760006113d0565b346102f15760207ffffffffffffffffffffffffffffffffffffffffffffffffffffffffffffffffc3601126102f15760043567ffffffffffffffff81116102f157610c0f903690600401610ece565b60006060604051610c1f81611049565b8181528260208201528260408201520152610c3d6103528284610fd2565b1561037057610c4b91610fd2565b60405190610c5882611049565b6040518154816000610c6983611110565b8083529260018116908115610d875750600114610d43575b610c8d92500382611065565b8252600273ffffffffffffffffffffffffffffffffffffffff6001830154169160208401928352015460ff604084019173ffffffffffffffffffffffffffffffffffffffff8116835260a01c16606084019160028210156108955773ffffffffffffffffffffffffffffffffffffffff91835281610d1e6040519660208852516080602089015260a0880190610f8f565b9451166040860152511660608401525190600282101561089557829160808301520390f35b5090836000526020600020906000915b818310610d6b575050906020610c8d92820101610c81565b6020919350806001915483858801015201910190918392610d53565b60209250610c8d9491507fffffffffffffffffffffffffffffffffffffffffffffffffffffffffffffff001682840152151560051b820101610c81565b346102f157600080610df5600261012f610e3873ffffffffffffffffffffffffffffffffffffffff6103cb36610efc565b0154169360405192839160208301957fbc0fd6d700000000000000000000000000000000000000000000000000000000875260206024850152604484019161100a565b51915af4610e446110e0565b9015610e70576020818051810103126102f157602001518015158091036102f157602090604051908152f35b60646040517f9becf85d00000000000000000000000000000000000000000000000000000000815260206004820152601560248201527f546f70696352656769737472792e6861734461746100000000000000000000006044820152fd5b9181601f840112156102f15782359167ffffffffffffffff83116102f157602083818601950101116102f157565b60407ffffffffffffffffffffffffffffffffffffffffffffffffffffffffffffffffc8201126102f15760043567ffffffffffffffff81116102f15781610f4591600401610ece565b929092916024359067ffffffffffffffff82116102f157610f6891600401610ece565b9091565b60005b838110610f7f5750506000910152565b8181015183820152602001610f6f565b907fffffffffffffffffffffffffffffffffffffffffffffffffffffffffffffffe0601f602093610fcb81518092818752878088019101610f6c565b0116010190565b60209082604051938492833781017fba07f9bdb83529457286bae2254b67a516d5fac42a7c08e76b28b1c094cd2f2681520301902090565b601f82602094937fffffffffffffffffffffffffffffffffffffffffffffffffffffffffffffffe0938186528686013760008582860101520116010190565b6080810190811067ffffffffffffffff8211176109d657604052565b90601f7fffffffffffffffffffffffffffffffffffffffffffffffffffffffffffffffe0910116810190811067ffffffffffffffff8211176109d657604052565b67ffffffffffffffff81116109d657601f017fffffffffffffffffffffffffffffffffffffffffffffffffffffffffffffffe01660200190565b3d1561110b573d906110f1826110a6565b916110ff6040519384611065565b82523d6000602084013e565b606090565b90600182811c92168015611159575b602083101461112a57565b7f4e487b7100000000000000000000000000000000000000000000000000000000600052602260045260246000fd5b91607f169161111f565b92919261116f826110a6565b9161117d6040519384611065565b8294818452818301116102f1578281602093846000960137010152565b7fb9e0d160e9ebc5f35d701da1a916966043c1876eef2b71f7cc3e9e43796d440f9160026111c88284610fd2565b017fffffffffffffffffffffff00ffffffffffffffffffffffffffffffffffffffff815416905561120660405192839260408452604084019161100a565b600060208301520390a1565b3360009081527f07829b1d2c74b9cdb76c9e34241ac13a240ba0f36f2bdce278acabec3b2371d460205260409020541561124857565b6102ed611254336112c2565b6102b360116102077fd259a6a26c9a89f98f5f243a97dfecb66c72090b18c64780a112825494c010c16113d0565b908151811015611293570160200190565b7f4e487b7100000000000000000000000000000000000000000000000000000000600052603260045260246000fd5b602a906112ce826110a6565b916112dc6040519384611065565b8083526112e8816110a6565b7fffffffffffffffffffffffffffffffffffffffffffffffffffffffffffffffe0602085019101368237835115611293576030905382516001101561129357607860218401535b60028111611369575061133f5790565b7fab409fe20000000000000000000000000000000000000000000000000000000060005260046000fd5b7fffffffffffffffffffffffffffffffffffffffffffffffffffffffffffffffff0190600f81166010811015611293577f3031323334353637383961626364656600000000000000000000000000000000901a6113c68385611282565b5360041c9061132f565b6042906113dc826110a6565b916113ea6040519384611065565b8083526113f6816110a6565b7fffffffffffffffffffffffffffffffffffffffffffffffffffffffffffffffe0602085019101368237835115611293576030905382516001101561129357607860218401535b6002811161144d575061133f5790565b7fffffffffffffffffffffffffffffffffffffffffffffffffffffffffffffffff0190600f81166010811015611293577f3031323334353637383961626364656600000000000000000000000000000000901a6114aa8385611282565b5360041c9061143d56fea2646970667358221220fbbc3bd3a0225a35bb4b5b06e72e4cdcd94face33ab0d03be3da47bb209e267464736f6c634300081c0033",
  "linkReferences": {},
  "deployedLinkReferences": {}
}