{
  "_format": "hh-sol-artifact-1",
  "contractName": "TopicRegistry",
  "sourceName": "contracts/modules/TopicRegistry.sol",
  "abi": [
    {
      "inputs": [
        {
          "internalType": "string",
          "name": "_functionName",
          "type": "string"
        }
      ],
      "name": "DelegateCallFailed",
      "type": "error"
    },
    {
      "inputs": [],
      "name": "EmptyString",
      "type": "error"
    },
    {
      "inputs": [],
      "name": "ExistingTopic",
      "type": "error"
    },
    {
      "inputs": [],
      "name": "InvalidTopic",
      "type": "error"
    },
    {
      "inputs": [],
      "name": "UintUtils__InsufficientPadding",
      "type": "error"
    },
    {
      "inputs": [],
      "name": "ZeroAddress",
      "type": "error"
    },
    {
      "anonymous": false,
      "inputs": [
        {
          "indexed": false,
          "internalType": "string",
          "name": "topicId",
          "type": "string"
        },
        {
          "indexed": false,
          "internalType": "address",
          "name": "poolResolver",
          "type": "address"
        },
        {
          "indexed": false,
          "internalType": "address",
          "name": "dataProvider",
          "type": "address"
        },
        {
          "indexed": false,
          "internalType": "enum ITopicRegistry.TopicState",
          "name": "state",
          "type": "uint8"
        }
      ],
      "name": "NewTopic",
      "type": "event"
    },
    {
      "anonymous": false,
      "inputs": [
        {
          "indexed": true,
          "internalType": "bytes32",
          "name": "role",
          "type": "bytes32"
        },
        {
          "indexed": true,
          "internalType": "bytes32",
          "name": "previousAdminRole",
          "type": "bytes32"
        },
        {
          "indexed": true,
          "internalType": "bytes32",
          "name": "newAdminRole",
          "type": "bytes32"
        }
      ],
      "name": "RoleAdminChanged",
      "type": "event"
    },
    {
      "anonymous": false,
      "inputs": [
        {
          "indexed": true,
          "internalType": "bytes32",
          "name": "role",
          "type": "bytes32"
        },
        {
          "indexed": true,
          "internalType": "address",
          "name": "account",
          "type": "address"
        },
        {
          "indexed": true,
          "internalType": "address",
          "name": "sender",
          "type": "address"
        }
      ],
      "name": "RoleGranted",
      "type": "event"
    },
    {
      "anonymous": false,
      "inputs": [
        {
          "indexed": true,
          "internalType": "bytes32",
          "name": "role",
          "type": "bytes32"
        },
        {
          "indexed": true,
          "internalType": "address",
          "name": "account",
          "type": "address"
        },
        {
          "indexed": true,
          "internalType": "address",
          "name": "sender",
          "type": "address"
        }
      ],
      "name": "RoleRevoked",
      "type": "event"
    },
    {
      "anonymous": false,
      "inputs": [
        {
          "indexed": false,
          "internalType": "string",
          "name": "topicId",
          "type": "string"
        },
        {
          "indexed": false,
          "internalType": "enum ITopicRegistry.TopicState",
          "name": "state",
          "type": "uint8"
        }
      ],
      "name": "TopicDisabled",
      "type": "event"
    },
    {
      "anonymous": false,
      "inputs": [
        {
          "indexed": false,
          "internalType": "string",
          "name": "topicId",
          "type": "string"
        },
        {
          "indexed": false,
          "internalType": "enum ITopicRegistry.TopicState",
          "name": "state",
          "type": "uint8"
        }
      ],
      "name": "TopicEnabled",
      "type": "event"
    },
    {
      "anonymous": false,
      "inputs": [
        {
          "indexed": false,
          "internalType": "string",
          "name": "topicId",
          "type": "string"
        },
        {
          "indexed": false,
          "internalType": "address",
          "name": "poolResolver",
          "type": "address"
        },
        {
          "indexed": false,
          "internalType": "address",
          "name": "dataProvider",
          "type": "address"
        },
        {
          "indexed": false,
          "internalType": "enum ITopicRegistry.TopicState",
          "name": "state",
          "type": "uint8"
        }
      ],
      "name": "UpdateTopic",
      "type": "event"
    },
    {
      "inputs": [
        {
          "internalType": "string",
          "name": "_topicId",
          "type": "string"
        },
        {
          "internalType": "address",
          "name": "_poolResolver",
          "type": "address"
        },
        {
          "internalType": "address",
          "name": "_dataProvider",
          "type": "address"
        }
      ],
      "name": "createTopic",
      "outputs": [],
      "stateMutability": "nonpayable",
      "type": "function"
    },
    {
      "inputs": [
        {
          "internalType": "string",
          "name": "_topicId",
          "type": "string"
        }
      ],
      "name": "disableTopic",
      "outputs": [],
      "stateMutability": "nonpayable",
      "type": "function"
    },
    {
      "inputs": [
        {
          "internalType": "string",
          "name": "_topicId",
          "type": "string"
        }
      ],
      "name": "enableTopic",
      "outputs": [],
      "stateMutability": "nonpayable",
      "type": "function"
    },
    {
      "inputs": [
        {
          "internalType": "string",
          "name": "_topicId",
          "type": "string"
        },
        {
          "internalType": "bytes",
          "name": "_params",
          "type": "bytes"
        }
      ],
      "name": "getData",
      "outputs": [
        {
          "internalType": "bytes",
          "name": "",
          "type": "bytes"
        }
      ],
      "stateMutability": "nonpayable",
      "type": "function"
    },
    {
      "inputs": [
        {
          "internalType": "string",
          "name": "_topicId",
          "type": "string"
        }
      ],
      "name": "getTopic",
      "outputs": [
        {
          "components": [
            {
              "internalType": "string",
              "name": "topicId",
              "type": "string"
            },
            {
              "internalType": "contract IPoolResolver",
              "name": "poolResolver",
              "type": "address"
            },
            {
              "internalType": "contract IDataProvider",
              "name": "dataProvider",
              "type": "address"
            },
            {
              "internalType": "enum ITopicRegistry.TopicState",
              "name": "state",
              "type": "uint8"
            }
          ],
          "internalType": "struct ITopicRegistry.Topic",
          "name": "",
          "type": "tuple"
        }
      ],
      "stateMutability": "view",
      "type": "function"
    },
    {
      "inputs": [
        {
          "internalType": "string",
          "name": "_topicId",
          "type": "string"
        },
        {
          "internalType": "bytes",
          "name": "_params",
          "type": "bytes"
        }
      ],
      "name": "hasData",
      "outputs": [
        {
          "internalType": "bool",
          "name": "",
          "type": "bool"
        }
      ],
      "stateMutability": "nonpayable",
      "type": "function"
    },
    {
      "inputs": [
        {
          "internalType": "string",
          "name": "_topicId",
          "type": "string"
        },
        {
          "internalType": "bytes",
          "name": "_params",
          "type": "bytes"
        }
      ],
      "name": "provideData",
      "outputs": [],
      "stateMutability": "nonpayable",
      "type": "function"
    },
    {
      "inputs": [
        {
          "internalType": "string",
          "name": "_topicId",
          "type": "string"
        },
        {
          "internalType": "bytes",
          "name": "_params",
          "type": "bytes"
        }
      ],
      "name": "registerEvent",
      "outputs": [],
      "stateMutability": "nonpayable",
      "type": "function"
    },
    {
      "inputs": [
        {
          "internalType": "string",
          "name": "_topicId",
          "type": "string"
        },
        {
          "internalType": "bytes",
          "name": "_params",
          "type": "bytes"
        }
      ],
      "name": "updateProvision",
      "outputs": [],
      "stateMutability": "nonpayable",
      "type": "function"
    },
    {
      "inputs": [
        {
          "internalType": "string",
          "name": "_topicId",
          "type": "string"
        },
        {
          "internalType": "address",
          "name": "_poolResolver",
          "type": "address"
        },
        {
          "internalType": "address",
          "name": "_dataProvider",
          "type": "address"
        }
      ],
      "name": "updateTopic",
      "outputs": [],
      "stateMutability": "nonpayable",
      "type": "function"
    }
  ],
  "bytecode": "0x60808060405234601557611848908161001b8239f35b600080fdfe6080604052600436101561001257600080fd5b60003560e01c80631473addf14610ff3578063474502d814610df45780635721c29914610cb757806362fd171f1461097c5780636490c03d146108205780636b7d4169146106a15780638beb2f8014610715578063ad5b8dc6146106a1578063b3d7d57a1461042f5763e1d355331461008a57600080fd5b3461042a576100983661120e565b92906100a2611570565b6100b56100af848461129d565b546113db565b156104005773ffffffffffffffffffffffffffffffffffffffff81169384156103d65773ffffffffffffffffffffffffffffffffffffffff81169485156103d65760405161010281611314565b61010d36878761142e565b81526020810191825260408101968752606081019160018352610130878761129d565b915180519067ffffffffffffffff82116103a75761014e84546113db565b601f811161035f575b50602090601f83116001146102a05773ffffffffffffffffffffffffffffffffffffffff9491938360029487968794600092610295575b50507fffffffffffffffffffffffffffffffffffffffffffffffffffffffffffffffff8260011b9260031b1c19161783555b5116836001830191167fffffffffffffffffffffffff000000000000000000000000000000000000000082541617905501975116167fffffffffffffffffffffffff00000000000000000000000000000000000000008754161786555191600283101561026657610255610261937fc51a8aa91906c3cff6365268ab604efa3878d2f69ad97ea023af6d62302eb9ff97611465565b604051948594856114b4565b0390a1005b7f4e487b7100000000000000000000000000000000000000000000000000000000600052602160045260246000fd5b01519050388061018e565b907fffffffffffffffffffffffffffffffffffffffffffffffffffffffffffffffe083169185600052816000209260005b81811061034757508473ffffffffffffffffffffffffffffffffffffffff979488979394889560029860019510610310575b505050811b0183556101c0565b01517fffffffffffffffffffffffffffffffffffffffffffffffffffffffffffffffff60f88460031b161c19169055388080610303565b929360206001819287860151815501950193016102d1565b846000526020600020601f840160051c8101916020851061039d575b601f0160051c01905b8181106103915750610157565b60008155600101610384565b909150819061037b565b7f4e487b7100000000000000000000000000000000000000000000000000000000600052604160045260246000fd5b7fd92e233d0000000000000000000000000000000000000000000000000000000060005260046000fd5b7f69585f990000000000000000000000000000000000000000000000000000000060005260046000fd5b600080fd5b3461042a5761043d3661112b565b3360009081527fe462662cce7075a229bc540c3fa56dbdf044adfc96ab6efabe903fb7038c484c60205260409020541561057d576104df61050b73ffffffffffffffffffffffffffffffffffffffff600261049c60009897899861129d565b0154169360405192839160208301957feca82c1a0000000000000000000000000000000000000000000000000000000087526020602485015260448401916112d5565b037fffffffffffffffffffffffffffffffffffffffffffffffffffffffffffffffe08101835282611330565b51915af46105176113ab565b501561051f57005b60646040517f9becf85d00000000000000000000000000000000000000000000000000000000815260206004820152601960248201527f546f70696352656769737472792e70726f7669646544617461000000000000006044820152fd5b61069d61058933611620565b61066360116105b77f68e79a7bf1e0bc45d0a330c573bc367f9cf464fd326078812f301165fbda4ef161172e565b9260376040519485927f416363657373436f6e74726f6c3a206163636f756e742000000000000000000060208501526105f9815180926020868801910161119b565b83017f206973206d697373696e6720726f6c65200000000000000000000000000000008382015261063482518093602060488501910161119b565b010103017fffffffffffffffffffffffffffffffffffffffffffffffffffffffffffffffe08101835282611330565b6040519182917f08c379a00000000000000000000000000000000000000000000000000000000083526020600484015260248301906111be565b0390fd5b3461042a5760207ffffffffffffffffffffffffffffffffffffffffffffffffffffffffffffffffc36011261042a5760043567ffffffffffffffff811161042a576106f09036906004016110fd565b6106fd6100af828461129d565b15610400576107139161070e611570565b6114f8565b005b3461042a5760008061075160026104df61079473ffffffffffffffffffffffffffffffffffffffff6107463661112b565b96929791909761129d565b0154169360405192839160208301957f1431b23a0000000000000000000000000000000000000000000000000000000087526020602485015260448401916112d5565b51915af46107a06113ab565b90156107c2576107be906040519182916020835260208301906111be565b0390f35b60646040517f9becf85d00000000000000000000000000000000000000000000000000000000815260206004820152601560248201527f546f70696352656769737472792e6765744461746100000000000000000000006044820152fd5b3461042a5761082e3661112b565b3360009081527f5df958419b70ebe5143806cf0f6478e784c70715571b1537a8654d08aa000c98602052604090205415610942576104df6108d073ffffffffffffffffffffffffffffffffffffffff600261088d60009897899861129d565b0154169360405192839160208301957f87a7cfd80000000000000000000000000000000000000000000000000000000087526020602485015260448401916112d5565b51915af46108dc6113ab565b50156108e457005b60646040517f9becf85d00000000000000000000000000000000000000000000000000000000815260206004820152601d60248201527f546f70696352656769737472792e75706461746550726f766973696f6e0000006044820152fd5b61069d61094e33611620565b61066360116105b77f257f7af571bef1aeea6fc91519e3aff624d394bb4c68c84751ea30774903cea061172e565b3461042a5761098a3661120e565b9290610994611570565b61099f36848461142e565b5115610c8d5773ffffffffffffffffffffffffffffffffffffffff81169384156103d65773ffffffffffffffffffffffffffffffffffffffff81169485156103d6576109ee6100af868661129d565b610c63576040516109fe81611314565b610a0936878761142e565b81526020810191825260408101968752606081019160018352610a2c878761129d565b915180519067ffffffffffffffff82116103a757610a4a84546113db565b601f8111610c1b575b50602090601f8311600114610b5c5773ffffffffffffffffffffffffffffffffffffffff9491938360029487968794600092610b51575b50507fffffffffffffffffffffffffffffffffffffffffffffffffffffffffffffffff8260011b9260031b1c19161783555b5116836001830191167fffffffffffffffffffffffff000000000000000000000000000000000000000082541617905501975116167fffffffffffffffffffffffff00000000000000000000000000000000000000008754161786555191600283101561026657610255610261937f83339b6b7d198b91b7fca60f28a81c5f17d8b9f98b84652f0321f86cbab3a39897611465565b015190508e80610a8a565b907fffffffffffffffffffffffffffffffffffffffffffffffffffffffffffffffe083169185600052816000209260005b818110610c0357508473ffffffffffffffffffffffffffffffffffffffff979488979394889560029860019510610bcc575b505050811b018355610abc565b01517fffffffffffffffffffffffffffffffffffffffffffffffffffffffffffffffff60f88460031b161c191690558e8080610bbf565b92936020600181928786015181550195019301610b8d565b846000526020600020601f840160051c81019160208510610c59575b601f0160051c01905b818110610c4d5750610a53565b60008155600101610c40565b9091508190610c37565b7ff73fe37a0000000000000000000000000000000000000000000000000000000060005260046000fd5b7fecd7b0d10000000000000000000000000000000000000000000000000000000060005260046000fd5b3461042a57610cc53661112b565b3360009081527f56672a897fec8f593dbda72d8f96ed3062a0fc2846fe0fef1ce1d2d41603db90602052604090205415610dd9576104df610d6773ffffffffffffffffffffffffffffffffffffffff6002610d2460009897899861129d565b0154169360405192839160208301957fc90d080a0000000000000000000000000000000000000000000000000000000087526020602485015260448401916112d5565b51915af4610d736113ab565b5015610d7b57005b60646040517f9becf85d00000000000000000000000000000000000000000000000000000000815260206004820152601b60248201527f546f70696352656769737472792e72656769737465724576656e7400000000006044820152fd5b61069d610de533611620565b61066360116105b7600061172e565b3461042a5760207ffffffffffffffffffffffffffffffffffffffffffffffffffffffffffffffffc36011261042a5760043567ffffffffffffffff811161042a57610e439036906004016110fd565b60006060604051610e5381611314565b8181528260208201528260408201520152610e716100af828461129d565b1561040057610e7f9161129d565b604051610e8b81611314565b6040518254816000610e9c836113db565b8083529260018116908115610fb65750600114610f72575b610ec092500382611330565b8152600273ffffffffffffffffffffffffffffffffffffffff600184015416926020830193845201549160ff604083019373ffffffffffffffffffffffffffffffffffffffff8116855260a01c16926060830160028510156102665773ffffffffffffffffffffffffffffffffffffffff6107be92610f58968352816040519788976020895251608060208a015260a08901906111be565b955116604087015251166060850152516080840190611201565b5090846000526020600020906000915b818310610f9a575050906020610ec092820101610eb4565b6020919350806001915483858801015201910190918392610f82565b60209250610ec09491507fffffffffffffffffffffffffffffffffffffffffffffffffffffffffffffff001682840152151560051b820101610eb4565b3461042a5760008061102460026104df61106773ffffffffffffffffffffffffffffffffffffffff6107463661112b565b0154169360405192839160208301957fbc0fd6d70000000000000000000000000000000000000000000000000000000087526020602485015260448401916112d5565b51915af46110736113ab565b901561109f5760208180518101031261042a576020015180151580910361042a57602090604051908152f35b60646040517f9becf85d00000000000000000000000000000000000000000000000000000000815260206004820152601560248201527f546f70696352656769737472792e6861734461746100000000000000000000006044820152fd5b9181601f8401121561042a5782359167ffffffffffffffff831161042a576020838186019501011161042a57565b60407ffffffffffffffffffffffffffffffffffffffffffffffffffffffffffffffffc82011261042a5760043567ffffffffffffffff811161042a5781611174916004016110fd565b929092916024359067ffffffffffffffff821161042a57611197916004016110fd565b9091565b60005b8381106111ae5750506000910152565b818101518382015260200161119e565b907fffffffffffffffffffffffffffffffffffffffffffffffffffffffffffffffe0601f6020936111fa8151809281875287808801910161119b565b0116010190565b9060028210156102665752565b60607ffffffffffffffffffffffffffffffffffffffffffffffffffffffffffffffffc82011261042a576004359067ffffffffffffffff821161042a57611257916004016110fd565b909160243573ffffffffffffffffffffffffffffffffffffffff8116810361042a579060443573ffffffffffffffffffffffffffffffffffffffff8116810361042a5790565b60209082604051938492833781017fba07f9bdb83529457286bae2254b67a516d5fac42a7c08e76b28b1c094cd2f2681520301902090565b601f82602094937fffffffffffffffffffffffffffffffffffffffffffffffffffffffffffffffe0938186528686013760008582860101520116010190565b6080810190811067ffffffffffffffff8211176103a757604052565b90601f7fffffffffffffffffffffffffffffffffffffffffffffffffffffffffffffffe0910116810190811067ffffffffffffffff8211176103a757604052565b67ffffffffffffffff81116103a757601f017fffffffffffffffffffffffffffffffffffffffffffffffffffffffffffffffe01660200190565b3d156113d6573d906113bc82611371565b916113ca6040519384611330565b82523d6000602084013e565b606090565b90600182811c92168015611424575b60208310146113f557565b7f4e487b7100000000000000000000000000000000000000000000000000000000600052602260045260246000fd5b91607f16916113ea565b92919261143a82611371565b916114486040519384611330565b82948184528183011161042a578281602093846000960137010152565b906002811015610266577fffffffffffffffffffffff00ffffffffffffffffffffffffffffffffffffffff74ff000000000000000000000000000000000000000083549260a01b169116179055565b929493906114e273ffffffffffffffffffffffffffffffffffffffff939184926080875260808701916112d5565b9516602084015216604082015260606001910152565b7fb9e0d160e9ebc5f35d701da1a916966043c1876eef2b71f7cc3e9e43796d440f916002611526828461129d565b017fffffffffffffffffffffff00ffffffffffffffffffffffffffffffffffffffff81541690556115646040519283926040845260408401916112d5565b600060208301520390a1565b3360009081527f07829b1d2c74b9cdb76c9e34241ac13a240ba0f36f2bdce278acabec3b2371d46020526040902054156115a657565b61069d6115b233611620565b61066360116105b77fd259a6a26c9a89f98f5f243a97dfecb66c72090b18c64780a112825494c010c161172e565b9081518110156115f1570160200190565b7f4e487b7100000000000000000000000000000000000000000000000000000000600052603260045260246000fd5b602a9061162c82611371565b9161163a6040519384611330565b80835261164681611371565b7fffffffffffffffffffffffffffffffffffffffffffffffffffffffffffffffe06020850191013682378351156115f157603090538251600110156115f157607860218401535b600281116116c7575061169d5790565b7fab409fe20000000000000000000000000000000000000000000000000000000060005260046000fd5b7fffffffffffffffffffffffffffffffffffffffffffffffffffffffffffffffff0190600f811660108110156115f1577f3031323334353637383961626364656600000000000000000000000000000000901a61172483856115e0565b5360041c9061168d565b60429061173a82611371565b916117486040519384611330565b80835261175481611371565b7fffffffffffffffffffffffffffffffffffffffffffffffffffffffffffffffe06020850191013682378351156115f157603090538251600110156115f157607860218401535b600281116117ab575061169d5790565b7fffffffffffffffffffffffffffffffffffffffffffffffffffffffffffffffff0190600f811660108110156115f1577f3031323334353637383961626364656600000000000000000000000000000000901a61180883856115e0565b5360041c9061179b56fea2646970667358221220fedff562554ff92b099de8d2ec0d11b0c66542f95b36adaf1d2e660b4bc3b78464736f6c634300081c0033",
  "linkReferences": {},
  "deployedLinkReferences": {}
}