{
  "_format": "hh-sol-artifact-1",
  "contractName": "ChallengePoolUpdateInit",
  "sourceName": "contracts/inits/ChallengePoolUpdateInit.sol",
  "abi": [
    {
      "inputs": [],
      "name": "init",
      "outputs": [],
      "stateMutability": "nonpayable",
      "type": "function"
    }
  ],
  "bytecode": "0x60808060405234601357608a908160198239f35b600080fdfe6004361015600c57600080fd5b60003560e01c63e1c7392a14602057600080fd5b34604f5760007ffffffffffffffffffffffffffffffffffffffffffffffffffffffffffffffffc360112604f57005b600080fdfea2646970667358221220a8e5ff044932d17171f2b983ad110d75d9576575cd9ec50f50c6daf9fe9f765a64736f6c634300081c0033",
  "linkReferences": {},
  "deployedLinkReferences": {}
}