{
  "_format": "hh-sol-artifact-1",
  "contractName": "ChallengePoolHandler",
  "sourceName": "contracts/modules/ChallengePoolHandler.sol",
  "abi": [
    {
      "inputs": [
        {
          "internalType": "enum IChallengePool.ChallengeState",
          "name": "_state",
          "type": "uint8"
        }
      ],
      "name": "ActionNotAllowedForState",
      "type": "error"
    },
    {
      "inputs": [],
      "name": "BelowMinPrie",
      "type": "error"
    },
    {
      "inputs": [],
      "name": "DeadlineExceeded",
      "type": "error"
    },
    {
      "inputs": [
        {
          "internalType": "string",
          "name": "_functionName",
          "type": "string"
        }
      ],
      "name": "DelegateCallFailed",
      "type": "error"
    },
    {
      "inputs": [],
      "name": "DisputePeriodElapsed",
      "type": "error"
    },
    {
      "inputs": [],
      "name": "EmptyBytes",
      "type": "error"
    },
    {
      "inputs": [],
      "name": "EmptyString",
      "type": "error"
    },
    {
      "inputs": [
        {
          "internalType": "uint256",
          "name": "_requested",
          "type": "uint256"
        },
        {
          "internalType": "uint256",
          "name": "_available",
          "type": "uint256"
        }
      ],
      "name": "InsufficientStakes",
      "type": "error"
    },
    {
      "inputs": [],
      "name": "InvalidChallenge",
      "type": "error"
    },
    {
      "inputs": [],
      "name": "InvalidEventLength",
      "type": "error"
    },
    {
      "inputs": [],
      "name": "InvalidEventMaturity",
      "type": "error"
    },
    {
      "inputs": [],
      "name": "InvalidEventParam",
      "type": "error"
    },
    {
      "inputs": [],
      "name": "InvalidEventTopic",
      "type": "error"
    },
    {
      "inputs": [],
      "name": "InvalidOptionsLength",
      "type": "error"
    },
    {
      "inputs": [],
      "name": "InvalidOutcome",
      "type": "error"
    },
    {
      "inputs": [],
      "name": "InvalidPoolOption",
      "type": "error"
    },
    {
      "inputs": [],
      "name": "InvalidPrediction",
      "type": "error"
    },
    {
      "inputs": [],
      "name": "MaxPriceExceeded",
      "type": "error"
    },
    {
      "inputs": [],
      "name": "PlayerAlreadyDisputed",
      "type": "error"
    },
    {
      "inputs": [],
      "name": "PlayerAlreadyReleased",
      "type": "error"
    },
    {
      "inputs": [],
      "name": "PlayerAlreadyWithdrawn",
      "type": "error"
    },
    {
      "inputs": [],
      "name": "PlayerDidNotDispute",
      "type": "error"
    },
    {
      "inputs": [],
      "name": "PlayerDidNotWinPool",
      "type": "error"
    },
    {
      "inputs": [],
      "name": "PlayerNotInPool",
      "type": "error"
    },
    {
      "inputs": [],
      "name": "ProtocolInvariantCheckFailed",
      "type": "error"
    },
    {
      "inputs": [
        {
          "internalType": "address",
          "name": "token",
          "type": "address"
        }
      ],
      "name": "SafeERC20FailedOperation",
      "type": "error"
    },
    {
      "inputs": [],
      "name": "StakeLowerThanMinimum",
      "type": "error"
    },
    {
      "inputs": [
        {
          "internalType": "address",
          "name": "_token",
          "type": "address"
        }
      ],
      "name": "UnsupportedToken",
      "type": "error"
    },
    {
      "inputs": [],
      "name": "ZeroAddress",
      "type": "error"
    },
    {
      "inputs": [],
      "name": "ZeroNumber",
      "type": "error"
    },
    {
      "anonymous": false,
      "inputs": [
        {
          "indexed": true,
          "internalType": "uint256",
          "name": "challengeId",
          "type": "uint256"
        },
        {
          "indexed": true,
          "internalType": "address",
          "name": "canceller",
          "type": "address"
        },
        {
          "indexed": false,
          "internalType": "enum IChallengePool.ChallengeState",
          "name": "state",
          "type": "uint8"
        }
      ],
      "name": "CancelChallenge",
      "type": "event"
    },
    {
      "anonymous": false,
      "inputs": [
        {
          "indexed": true,
          "internalType": "uint256",
          "name": "challengeId",
          "type": "uint256"
        },
        {
          "indexed": true,
          "internalType": "address",
          "name": "closer",
          "type": "address"
        },
        {
          "indexed": false,
          "internalType": "enum IChallengePool.ChallengeState",
          "name": "state",
          "type": "uint8"
        },
        {
          "indexed": false,
          "internalType": "bytes",
          "name": "result",
          "type": "bytes"
        }
      ],
      "name": "CloseChallenge",
      "type": "event"
    },
    {
      "anonymous": false,
      "inputs": [
        {
          "indexed": true,
          "internalType": "uint256",
          "name": "challengeId",
          "type": "uint256"
        },
        {
          "indexed": true,
          "internalType": "address",
          "name": "disputor",
          "type": "address"
        },
        {
          "indexed": false,
          "internalType": "enum IChallengePool.ChallengeState",
          "name": "state",
          "type": "uint8"
        },
        {
          "indexed": false,
          "internalType": "bytes",
          "name": "result",
          "type": "bytes"
        },
        {
          "indexed": false,
          "internalType": "uint256",
          "name": "amount",
          "type": "uint256"
        }
      ],
      "name": "DisputeOutcome",
      "type": "event"
    },
    {
      "anonymous": false,
      "inputs": [
        {
          "indexed": true,
          "internalType": "uint256",
          "name": "challengeId",
          "type": "uint256"
        },
        {
          "indexed": true,
          "internalType": "address",
          "name": "disputor",
          "type": "address"
        },
        {
          "indexed": false,
          "internalType": "enum IChallengePool.ChallengeState",
          "name": "state",
          "type": "uint8"
        },
        {
          "indexed": false,
          "internalType": "bytes",
          "name": "result",
          "type": "bytes"
        },
        {
          "indexed": false,
          "internalType": "uint256",
          "name": "amount",
          "type": "uint256"
        }
      ],
      "name": "DisputeReleased",
      "type": "event"
    },
    {
      "anonymous": false,
      "inputs": [
        {
          "indexed": true,
          "internalType": "uint256",
          "name": "challengeId",
          "type": "uint256"
        },
        {
          "indexed": true,
          "internalType": "address",
          "name": "evaluator",
          "type": "address"
        },
        {
          "indexed": false,
          "internalType": "enum IChallengePool.ChallengeState",
          "name": "state",
          "type": "uint8"
        },
        {
          "indexed": false,
          "internalType": "bytes",
          "name": "result",
          "type": "bytes"
        }
      ],
      "name": "EvaluateChallenge",
      "type": "event"
    },
    {
      "anonymous": false,
      "inputs": [
        {
          "indexed": true,
          "internalType": "uint256",
          "name": "challengeId",
          "type": "uint256"
        },
        {
          "indexed": true,
          "internalType": "address",
          "name": "creator",
          "type": "address"
        },
        {
          "indexed": false,
          "internalType": "uint256",
          "name": "createdAt",
          "type": "uint256"
        },
        {
          "indexed": false,
          "internalType": "uint256",
          "name": "maturity",
          "type": "uint256"
        },
        {
          "indexed": false,
          "internalType": "enum IChallengePool.ChallengeState",
          "name": "state",
          "type": "uint8"
        },
        {
          "indexed": false,
          "internalType": "bytes",
          "name": "result",
          "type": "bytes"
        },
        {
          "indexed": false,
          "internalType": "uint256",
          "name": "basePrice",
          "type": "uint256"
        },
        {
          "indexed": false,
          "internalType": "uint256",
          "name": "fee",
          "type": "uint256"
        },
        {
          "indexed": false,
          "internalType": "uint256",
          "name": "totalStakes",
          "type": "uint256"
        },
        {
          "indexed": false,
          "internalType": "bytes",
          "name": "prediction",
          "type": "bytes"
        },
        {
          "components": [
            {
              "internalType": "bytes",
              "name": "params",
              "type": "bytes"
            },
            {
              "internalType": "string",
              "name": "topicId",
              "type": "string"
            },
            {
              "internalType": "uint256",
              "name": "maturity",
              "type": "uint256"
            }
          ],
          "indexed": false,
          "internalType": "struct IChallengePool.ChallengeEvent[]",
          "name": "events",
          "type": "tuple[]"
        },
        {
          "indexed": false,
          "internalType": "bytes[]",
          "name": "options",
          "type": "bytes[]"
        },
        {
          "indexed": false,
          "internalType": "address",
          "name": "stakeToken",
          "type": "address"
        },
        {
          "indexed": false,
          "internalType": "address",
          "name": "paymaster",
          "type": "address"
        }
      ],
      "name": "NewChallenge",
      "type": "event"
    },
    {
      "anonymous": false,
      "inputs": [
        {
          "indexed": true,
          "internalType": "bytes32",
          "name": "role",
          "type": "bytes32"
        },
        {
          "indexed": true,
          "internalType": "bytes32",
          "name": "previousAdminRole",
          "type": "bytes32"
        },
        {
          "indexed": true,
          "internalType": "bytes32",
          "name": "newAdminRole",
          "type": "bytes32"
        }
      ],
      "name": "RoleAdminChanged",
      "type": "event"
    },
    {
      "anonymous": false,
      "inputs": [
        {
          "indexed": true,
          "internalType": "bytes32",
          "name": "role",
          "type": "bytes32"
        },
        {
          "indexed": true,
          "internalType": "address",
          "name": "account",
          "type": "address"
        },
        {
          "indexed": true,
          "internalType": "address",
          "name": "sender",
          "type": "address"
        }
      ],
      "name": "RoleGranted",
      "type": "event"
    },
    {
      "anonymous": false,
      "inputs": [
        {
          "indexed": true,
          "internalType": "bytes32",
          "name": "role",
          "type": "bytes32"
        },
        {
          "indexed": true,
          "internalType": "address",
          "name": "account",
          "type": "address"
        },
        {
          "indexed": true,
          "internalType": "address",
          "name": "sender",
          "type": "address"
        }
      ],
      "name": "RoleRevoked",
      "type": "event"
    },
    {
      "anonymous": false,
      "inputs": [
        {
          "indexed": true,
          "internalType": "uint256",
          "name": "challengeId",
          "type": "uint256"
        },
        {
          "indexed": true,
          "internalType": "address",
          "name": "disputor",
          "type": "address"
        },
        {
          "indexed": false,
          "internalType": "enum IChallengePool.ChallengeState",
          "name": "state",
          "type": "uint8"
        },
        {
          "indexed": false,
          "internalType": "bytes",
          "name": "result",
          "type": "bytes"
        },
        {
          "indexed": false,
          "internalType": "uint256",
          "name": "amount",
          "type": "uint256"
        }
      ],
      "name": "SettleDispute",
      "type": "event"
    },
    {
      "anonymous": false,
      "inputs": [
        {
          "indexed": true,
          "internalType": "uint256",
          "name": "challengeId",
          "type": "uint256"
        },
        {
          "indexed": true,
          "internalType": "address",
          "name": "participant",
          "type": "address"
        },
        {
          "indexed": false,
          "internalType": "bytes",
          "name": "option",
          "type": "bytes"
        },
        {
          "indexed": false,
          "internalType": "uint256",
          "name": "stakes",
          "type": "uint256"
        },
        {
          "indexed": false,
          "internalType": "uint256",
          "name": "amount",
          "type": "uint256"
        },
        {
          "indexed": false,
          "internalType": "uint256",
          "name": "fee",
          "type": "uint256"
        }
      ],
      "name": "Stake",
      "type": "event"
    },
    {
      "anonymous": false,
      "inputs": [
        {
          "indexed": true,
          "internalType": "uint256",
          "name": "challengeId",
          "type": "uint256"
        },
        {
          "indexed": true,
          "internalType": "address",
          "name": "participant",
          "type": "address"
        },
        {
          "indexed": false,
          "internalType": "uint256",
          "name": "amountWon",
          "type": "uint256"
        },
        {
          "indexed": false,
          "internalType": "uint256",
          "name": "amountWithdrawn",
          "type": "uint256"
        }
      ],
      "name": "WinningsWithdrawn",
      "type": "event"
    },
    {
      "anonymous": false,
      "inputs": [
        {
          "indexed": true,
          "internalType": "uint256",
          "name": "challengeId",
          "type": "uint256"
        },
        {
          "indexed": true,
          "internalType": "address",
          "name": "participant",
          "type": "address"
        },
        {
          "indexed": false,
          "internalType": "bytes",
          "name": "option",
          "type": "bytes"
        },
        {
          "indexed": false,
          "internalType": "uint256",
          "name": "stakes",
          "type": "uint256"
        },
        {
          "indexed": false,
          "internalType": "uint256",
          "name": "amount",
          "type": "uint256"
        },
        {
          "indexed": false,
          "internalType": "uint256",
          "name": "fee",
          "type": "uint256"
        }
      ],
      "name": "Withdraw",
      "type": "event"
    },
    {
      "inputs": [
        {
          "internalType": "uint256[]",
          "name": "_challengeIds",
          "type": "uint256[]"
        }
      ],
      "name": "bulkWithdraw",
      "outputs": [],
      "stateMutability": "nonpayable",
      "type": "function"
    },
    {
      "inputs": [
        {
          "components": [
            {
              "internalType": "bytes",
              "name": "params",
              "type": "bytes"
            },
            {
              "internalType": "string",
              "name": "topicId",
              "type": "string"
            },
            {
              "internalType": "uint256",
              "name": "maturity",
              "type": "uint256"
            }
          ],
          "internalType": "struct IChallengePool.ChallengeEvent[]",
          "name": "_events",
          "type": "tuple[]"
        },
        {
          "internalType": "bytes[]",
          "name": "_options",
          "type": "bytes[]"
        },
        {
          "internalType": "address",
          "name": "_stakeToken",
          "type": "address"
        },
        {
          "internalType": "bytes",
          "name": "_prediction",
          "type": "bytes"
        },
        {
          "internalType": "uint256",
          "name": "_quantity",
          "type": "uint256"
        },
        {
          "internalType": "uint256",
          "name": "_basePrice",
          "type": "uint256"
        },
        {
          "internalType": "address",
          "name": "_paymaster",
          "type": "address"
        }
      ],
      "name": "createChallenge",
      "outputs": [],
      "stateMutability": "nonpayable",
      "type": "function"
    },
    {
      "inputs": [
        {
          "internalType": "uint256",
          "name": "_challengeId",
          "type": "uint256"
        },
        {
          "internalType": "bytes",
          "name": "_prediction",
          "type": "bytes"
        },
        {
          "internalType": "uint256",
          "name": "_quantity",
          "type": "uint256"
        },
        {
          "internalType": "uint256",
          "name": "_minPrice",
          "type": "uint256"
        },
        {
          "internalType": "uint256",
          "name": "_deadline",
          "type": "uint256"
        }
      ],
      "name": "earlyWithdraw",
      "outputs": [],
      "stateMutability": "nonpayable",
      "type": "function"
    },
    {
      "inputs": [
        {
          "internalType": "uint256",
          "name": "_challengeId",
          "type": "uint256"
        }
      ],
      "name": "getChallenge",
      "outputs": [
        {
          "components": [
            {
              "internalType": "enum IChallengePool.ChallengeState",
              "name": "state",
              "type": "uint8"
            },
            {
              "internalType": "bool",
              "name": "multi",
              "type": "bool"
            },
            {
              "internalType": "bytes",
              "name": "outcome",
              "type": "bytes"
            },
            {
              "internalType": "uint256",
              "name": "totalStakes",
              "type": "uint256"
            },
            {
              "internalType": "uint256",
              "name": "createdAt",
              "type": "uint256"
            },
            {
              "internalType": "uint256",
              "name": "maturity",
              "type": "uint256"
            },
            {
              "internalType": "uint256",
              "name": "basePrice",
              "type": "uint256"
            },
            {
              "internalType": "address",
              "name": "stakeToken",
              "type": "address"
            },
            {
              "components": [
                {
                  "internalType": "bytes",
                  "name": "params",
                  "type": "bytes"
                },
                {
                  "internalType": "string",
                  "name": "topicId",
                  "type": "string"
                },
                {
                  "internalType": "uint256",
                  "name": "maturity",
                  "type": "uint256"
                }
              ],
              "internalType": "struct IChallengePool.ChallengeEvent[]",
              "name": "events",
              "type": "tuple[]"
            },
            {
              "internalType": "bytes[]",
              "name": "options",
              "type": "bytes[]"
            },
            {
              "internalType": "bool",
              "name": "disputed",
              "type": "bool"
            },
            {
              "internalType": "uint256",
              "name": "lastOutcomeSet",
              "type": "uint256"
            }
          ],
          "internalType": "struct IChallengePool.Challenge",
          "name": "",
          "type": "tuple"
        }
      ],
      "stateMutability": "view",
      "type": "function"
    },
    {
      "inputs": [
        {
          "internalType": "uint256",
          "name": "_challengeId",
          "type": "uint256"
        },
        {
          "internalType": "bytes",
          "name": "_option",
          "type": "bytes"
        },
        {
          "internalType": "uint256",
          "name": "_quantity",
          "type": "uint256"
        },
        {
          "internalType": "enum IChallengePool.PoolAction",
          "name": "_action",
          "type": "uint8"
        }
      ],
      "name": "price",
      "outputs": [
        {
          "internalType": "uint256",
          "name": "",
          "type": "uint256"
        }
      ],
      "stateMutability": "view",
      "type": "function"
    },
    {
      "inputs": [
        {
          "internalType": "uint256",
          "name": "_challengeId",
          "type": "uint256"
        },
        {
          "internalType": "bytes",
          "name": "_prediction",
          "type": "bytes"
        },
        {
          "internalType": "uint256",
          "name": "_quantity",
          "type": "uint256"
        },
        {
          "internalType": "uint256",
          "name": "_maxPrice",
          "type": "uint256"
        },
        {
          "internalType": "uint256",
          "name": "_deadline",
          "type": "uint256"
        },
        {
          "internalType": "address",
          "name": "_paymaster",
          "type": "address"
        }
      ],
      "name": "stake",
      "outputs": [],
      "stateMutability": "nonpayable",
      "type": "function"
    },
    {
      "inputs": [
        {
          "internalType": "uint256",
          "name": "_challengeId",
          "type": "uint256"
        }
      ],
      "name": "withdraw",
      "outputs": [],
      "stateMutability": "nonpayable",
      "type": "function"
    }
  ],
  "bytecode": "0x6080806040523460155761433c908161001b8239f35b600080fdfe610140604052600436101561001357600080fd5b60003560e01c8063156e38e414612a385780631bdd4b74146125d25780632e1a7d4d1461230657806331b830fa14611d4f57806340edf54d14611bb75780636eb9aec2146100e35763a6a21a5d1461006a57600080fd5b346100de5760207ffffffffffffffffffffffffffffffffffffffffffffffffffffffffffffffffc3601126100de5760043567ffffffffffffffff81116100de576100b990369060040161304e565b60005b818110156100dc576001906100d68160051b850135613bc4565b016100bc565b005b600080fd5b346100de5760e07ffffffffffffffffffffffffffffffffffffffffffffffffffffffffffffffffc3601126100de5760043567ffffffffffffffff81116100de5761013290369060040161304e565b9060805260243567ffffffffffffffff81116100de5761015690369060040161304e565b60443561010081905290929073ffffffffffffffffffffffffffffffffffffffff811690036100de5760643567ffffffffffffffff81116100de5761019f903690600401612f77565b9060e05292600060a05260c43560a05273ffffffffffffffffffffffffffffffffffffffff60a0511660a051036100de5760843515611b8d5760a43515611b8d5773ffffffffffffffffffffffffffffffffffffffff610100511615611b635760ff600261024f6101005173ffffffffffffffffffffffffffffffffffffffff166000527fbc351ae7fa32df0c8ad57278243ae7d011e90d073629dfc92fda8e9f319c6fd1602052604060002090565b01541615611b1c577fbc351ae7fa32df0c8ad57278243ae7d011e90d073629dfc92fda8e9f319c6fd95460a43510611af2576102b0610291368660e051613162565b602060c081905260405191906102a790836130e7565b600082526136f2565b611ac8578115611a9e577fbc351ae7fa32df0c8ad57278243ae7d011e90d073629dfc92fda8e9f319c6fda5481116101205261012051611a745760006101205280611643575061012051915060018110611615577fbc351ae7fa32df0c8ad57278243ae7d011e90d073629dfc92fda8e9f319c6fdb548111611615576103346134a5565b61033c613474565b52610345613474565b5061034e6134ea565b610356613481565b5261035f613481565b50606061037f61036d6134a5565b61037a368760e051613162565b6136f2565b158015611603575b6115d5575b610120515b8281106112cf57507fbc351ae7fa32df0c8ad57278243ae7d011e90d073629dfc92fda8e9f319c6fd8546127106103ca8260a435613199565b10610bd1576103db9060a4356140e9565b92600161042a6101005173ffffffffffffffffffffffffffffffffffffffff166000527fbc351ae7fa32df0c8ad57278243ae7d011e90d073629dfc92fda8e9f319c6fd1602052604060002090565b016104368582546131db565b905561044660843560a435613199565b6040519081604081011067ffffffffffffffff604084011117610d7657856106349183604061064095016040526084358152600160c05182018381527fbc351ae7fa32df0c8ad57278243ae7d011e90d073629dfc92fda8e9f319c6fd55461012051527fbc351ae7fa32df0c8ad57278243ae7d011e90d073629dfc92fda8e9f319c6fd060c051526040610120512092518355519101556105726040516104ec816130cb565b61012051815260843560c0518201528260408201527fbc351ae7fa32df0c8ad57278243ae7d011e90d073629dfc92fda8e9f319c6fd55461012051527fbc351ae7fa32df0c8ad57278243ae7d011e90d073629dfc92fda8e9f319c6fcf60c0515260406101205120604051908c60e05183378c82019081528160c051910301902061352f565b61062f604051610581816130cb565b61012051815260843560c0518201528260408201526105df3373ffffffffffffffffffffffffffffffffffffffff166000527fbc351ae7fa32df0c8ad57278243ae7d011e90d073629dfc92fda8e9f319c6fcd602052604060002090565b7fbc351ae7fa32df0c8ad57278243ae7d011e90d073629dfc92fda8e9f319c6fd554610120515260c0515260406101205120604051908c60e05183378c82019081528160c051910301902061352f565b6131db565b6101005160a051613742565b60405161064f60c051826130e7565b610120518152604051916106628361307f565b610120518352151560c051830152604082015260843560608201524260808201526101205160a082015260a43560c082015273ffffffffffffffffffffffffffffffffffffffff610100511660e08201526106bc83613345565b6106c960405191826130e7565b83815260c0518101368560051b6080510111610bd157608051905b8560051b6080510182106112a05750506101008201528161012082015261012051610140820152610120516101608201527fbc351ae7fa32df0c8ad57278243ae7d011e90d073629dfc92fda8e9f319c6fd55461012051527fbc351ae7fa32df0c8ad57278243ae7d011e90d073629dfc92fda8e9f319c6fcc60c0515260406101205120908051600781101561126d57610120515082547fffffffffffffffffffffffffffffffffffffffffffffffffffffffffffff000060ff61ff0060c051860151151560081b169316911617178255604081015180519067ffffffffffffffff8211610d76576107e6826107dd6001870154613250565b60018701613595565b60c051906001601f8411146111995791809161083893610120519261118e575b50507fffffffffffffffffffffffffffffffffffffffffffffffffffffffffffffffff8260011b9260031b1c19161790565b60018301555b606081015160028301556080810151600383015560a0810151600483015560c081015160058301556006820173ffffffffffffffffffffffffffffffffffffffff60e0830151167fffffffffffffffffffffffff0000000000000000000000000000000000000000825416179055610100810151805190680100000000000000008211610d765760078401548260078601558083106110c1575b5060c051019060078401610120515260c051610120512061012051925b828410610de15750505050610120810151805190680100000000000000008211610d76576008840154826008860155808310610da9575b5060c051019060088401610120515260c05161012051209161012051905b828210610c0b57505050506101608161099a610140600a9401511515600986019060ff7fffffffffffffffffffffffffffffffffffffffffffffffffffffffffffffff0083541691151516179055565b01519101557fbc351ae7fa32df0c8ad57278243ae7d011e90d073629dfc92fda8e9f319c6fd5549260018401809411610bd857610a5e90847fbc351ae7fa32df0c8ad57278243ae7d011e90d073629dfc92fda8e9f319c6fd55560405195610a0460c051886130e7565b6101208051885260408051428152825160c051820152915190820152610180606082018190529097610a3891890190612fd6565b9160a435608089015260a088015260843560c088015286820360e088015260e0516131e8565b84810361010086015282815260c05181019060c0518460051b820101936080519261012051907fffffffffffffffffffffffffffffffffffffffffffffffffffffffffffffffa1608051360301935b838310610b375789897fad166699768ff8877dce7a9cc829f355c7a821b300765dec8609ded3bf0637a2610aea8b8b85820361012087015261367b565b9273ffffffffffffffffffffffffffffffffffffffff610100511661014082015273ffffffffffffffffffffffffffffffffffffffff60a051166101608201528033940390a36101205180f35b9091929394967fffffffffffffffffffffffffffffffffffffffffffffffffffffffffffffffe082820301835287359086821215610bd1576001916080510190604080610bb5610b98610b8a868061362b565b6060875260608701916131e8565b610ba660c05187018761362b565b9086830360c0518801526131e8565b9301359101529760c051019260c0510193019194939290610aad565b6101205180fd5b7f4e487b710000000000000000000000000000000000000000000000000000000061012051526011600452602461012051fd5b805180519067ffffffffffffffff8211610d7657610c3382610c2d8854613250565b88613595565b60c051906001601f841114610ca6578260019492938594610c89936101205192610c9b5750507fffffffffffffffffffffffffffffffffffffffffffffffffffffffffffffffff8260011b9260031b1c19161790565b86555b60c0510194019101909261094a565b015190508f80610806565b9086610120515260c051610120512091610120515b7fffffffffffffffffffffffffffffffffffffffffffffffffffffffffffffffe085168110610d5d575092600194928594928593837fffffffffffffffffffffffffffffffffffffffffffffffffffffffffffffffe0811610610d26575b505050811b018655610c8c565b01517fffffffffffffffffffffffffffffffffffffffffffffffffffffffffffffffff60f88460031b161c191690558e8080610d19565b81830151845560c0516001909401939283019201610cbb565b7f4e487b710000000000000000000000000000000000000000000000000000000061012051526041600452602461012051fd5b60088501610120515260c0516101205120908382015b8183018110610dcf57505061092c565b80610ddb6001926135dc565b01610dbf565b8051805180519067ffffffffffffffff8211610d7657610e0b82610e058754613250565b87613595565b60c051906001601f841114610ff357918091610e5c936101205192610fe85750507fffffffffffffffffffffffffffffffffffffffffffffffffffffffffffffffff8260011b9260031b1c19161790565b83555b60c05181015180519067ffffffffffffffff8211610d7657610e9182610e886001880154613250565b60018801613595565b60c051906001601f841114610f105792610eea83600196946040946003976101205192610f055750507fffffffffffffffffffffffffffffffffffffffffffffffffffffffffffffffff8260011b9260031b1c19161790565b858701555b0151600285015560c051019201930192906108f5565b015190503880610806565b9060018601610120515260c051610120512091610120515b7fffffffffffffffffffffffffffffffffffffffffffffffffffffffffffffffe085168110610fcf575083604093600396936001989693837fffffffffffffffffffffffffffffffffffffffffffffffffffffffffffffffe08b961610610f99575b505050811b0185870155610eef565b01517fffffffffffffffffffffffffffffffffffffffffffffffffffffffffffffffff60f8848a1b161c19169055388080610f8a565b81830151845560c0516001909401939283019201610f28565b015190508e80610806565b919085610120515260c05161012051209061012051935b7fffffffffffffffffffffffffffffffffffffffffffffffffffffffffffffffe0841685106110a55760019450837fffffffffffffffffffffffffffffffffffffffffffffffffffffffffffffffe081161061106e575b505050811b018355610e5f565b01517fffffffffffffffffffffffffffffffffffffffffffffffffffffffffffffffff60f88460031b161c191690558d8080611061565b81810151835560c051948501946001909301929091019061100a565b6003818102048103610bd8576003838102048303610bd85760078501610120515260c05161012051208360030281015b82600302820181106111045750506108d8565b806111106003926135dc565b6001810161111e8154613250565b80611135575b5050610120516002820155016110f1565b601f811160011461114f57506101205190555b8c80611124565b611173908261012051526001601f60c0516101205120920160051c8201910161357e565b610120805182905260c0519051908120918190559055611148565b015190508980610806565b919060018501610120515260c05161012051209061012051935b7fffffffffffffffffffffffffffffffffffffffffffffffffffffffffffffffe0841685106112515760019450837fffffffffffffffffffffffffffffffffffffffffffffffffffffffffffffffe081161061121a575b505050811b01600183015561083e565b01517fffffffffffffffffffffffffffffffffffffffffffffffffffffffffffffffff60f88460031b161c1916905588808061120a565b81810151835560c05194850194600190930192909101906111b3565b7f4e487b710000000000000000000000000000000000000000000000000000000061012051526021600452602461012051fd5b813567ffffffffffffffff8111610bd1576112c0903690608051016133f7565b815260c05191820191016106e4565b6112dc8184608051613388565b60c051810135907fffffffffffffffffffffffffffffffffffffffffffffffffffffffffffffffe181360301821215610bd1570180359067ffffffffffffffff8211610bd15760c05101908036038213610bd15760ff918160029260405192833781017fba07f9bdb83529457286bae2254b67a516d5fac42a7c08e76b28b1c094cd2f2681528160c0519103019020015460a01c16600281101561126d57156115a757604061138e8285608051613388565b01356113bb7fbc351ae7fa32df0c8ad57278243ae7d011e90d073629dfc92fda8e9f319c6fdc54426131db565b11611579576113d6366113d18386608051613388565b6133f7565b73ffffffffffffffffffffffffffffffffffffffff600161140a60c051840151604051918183925192839160c05101612fb3565b81017fba07f9bdb83529457286bae2254b67a516d5fac42a7c08e76b28b1c094cd2f2681528160c0519103019020015416604051906114ad8261148160c0518201957f1e272e4c00000000000000000000000000000000000000000000000000000000875260c05160248401526044830190613019565b037fffffffffffffffffffffffffffffffffffffffffffffffffffffffffffffffe081018452836130e7565b6101205192610120519251915af46114c36140a1565b901561151a576114df9060c05181518201019060c051016140d1565b156114ec57600101610391565b7f66e37c08000000000000000000000000000000000000000000000000000000006101205152600461012051fd5b60646040517f9becf85d00000000000000000000000000000000000000000000000000000000815260c0516004820152600e60248201527f5f76616c69646174654576656e740000000000000000000000000000000000006044820152fd5b7fcce559bd000000000000000000000000000000000000000000000000000000006101205152600461012051fd5b7f4aa91a46000000000000000000000000000000000000000000000000000000006101205152600461012051fd5b7fea0599f8000000000000000000000000000000000000000000000000000000006101205152600461012051fd5b5061160f61036d6134ea565b15610387565b7f678c50c9000000000000000000000000000000000000000000000000000000006101205152600461012051fd5b60019260028210611a46578383036116155761165e82613345565b9061166c60405192836130e7565b82825260c0518201368460051b830111610bd15781905b8460051b83018210611a195750506080519192839290915080359036037fffffffffffffffffffffffffffffffffffffffffffffffffffffffffffffffa101811215610bd1576116d8906080510136906133f7565b6117d960c051820161180973ffffffffffffffffffffffffffffffffffffffff600261175f828c6117188751604051918183925192839160c05101612fb3565b81017fba07f9bdb83529457286bae2254b67a516d5fac42a7c08e76b28b1c094cd2f2681528160c05191030190200154169451604051918183925192839160c05101612fb3565b81017fba07f9bdb83529457286bae2254b67a516d5fac42a7c08e76b28b1c094cd2f2681528160c05191030190200154169361148160405194859260c0518401977fd925ce500000000000000000000000000000000000000000000000000000000089526024850152606060448501526084840190613019565b7fffffffffffffffffffffffffffffffffffffffffffffffffffffffffffffffdc8382030160648401528861367b565b6101205192610120519251915af461181f6140a1565b90156119ba5761183b9060c05181518201019060c051016140d1565b156114ec576101205191825b8281106118835750505061038c577fea0599f8000000000000000000000000000000000000000000000000000000006101205152600461012051fd5b6118ac60405161189560c051826130e7565b6101205181526118a58385613491565b51906136f2565b61198c57806118cd6118bf899385613491565b5161037a368c60e051613162565b611983575b7fbc351ae7fa32df0c8ad57278243ae7d011e90d073629dfc92fda8e9f319c6fd55461012051527fbc351ae7fa32df0c8ad57278243ae7d011e90d073629dfc92fda8e9f319c6fcf60c05152611947604061012051206119328386613491565b51604051928184925192839160c05101612fb3565b82019081528160c0519103019020827fffffffffffffffffffffffffffffffffffffffffffffffffffffffffffffff0082541617905501611847565b935080936118d2565b7f3d4d195c000000000000000000000000000000000000000000000000000000006101205152600461012051fd5b60646040517f9becf85d00000000000000000000000000000000000000000000000000000000815260c0516004820152601060248201527f5f76616c69646174654f7074696f6e73000000000000000000000000000000006044820152fd5b813567ffffffffffffffff8111610bd157611a37903690850161336a565b815260c0519182019101611683565b7f8ad44378000000000000000000000000000000000000000000000000000000006101205152600461012051fd5b7f8ad443780000000000000000000000000000000000000000000000000000000060005260046000fd5b7f678c50c90000000000000000000000000000000000000000000000000000000060005260046000fd5b7fea0599f80000000000000000000000000000000000000000000000000000000060005260046000fd5b7f7b31d8c60000000000000000000000000000000000000000000000000000000060005260046000fd5b7fbf16aab60000000000000000000000000000000000000000000000000000000060005273ffffffffffffffffffffffffffffffffffffffff610100511660045260246000fd5b7fd92e233d0000000000000000000000000000000000000000000000000000000060005260046000fd5b7f99d1d12f0000000000000000000000000000000000000000000000000000000060005260046000fd5b346100de5760807ffffffffffffffffffffffffffffffffffffffffffffffffffffffffffffffffc3601126100de5760043560243567ffffffffffffffff81116100de57611c09903690600401612f77565b5050600260643510156100de577fbc351ae7fa32df0c8ad57278243ae7d011e90d073629dfc92fda8e9f319c6fd554811015611d2557806000527fbc351ae7fa32df0c8ad57278243ae7d011e90d073629dfc92fda8e9f319c6fcc602052611c746040600020613715565b6007811015611cf65780611cc3576020611cbb836000527fbc351ae7fa32df0c8ad57278243ae7d011e90d073629dfc92fda8e9f319c6fcc60205260056040600020015490565b604051908152f35b611cf0907fabe418b700000000000000000000000000000000000000000000000000000000600052612fa5565b60246000fd5b7f4e487b7100000000000000000000000000000000000000000000000000000000600052602160045260246000fd5b7f92fa6fd30000000000000000000000000000000000000000000000000000000060005260046000fd5b346100de5760a07ffffffffffffffffffffffffffffffffffffffffffffffffffffffffffffffffc3601126100de5760043560243567ffffffffffffffff81116100de57611da1903690600401612f77565b9160443560643593608435947fbc351ae7fa32df0c8ad57278243ae7d011e90d073629dfc92fda8e9f319c6fd554841015611d2557611de1368387613162565b95611df6602097604051906102a78a836130e7565b611ac8578315611b8d578015611b8d578115611b8d57846000527fbc351ae7fa32df0c8ad57278243ae7d011e90d073629dfc92fda8e9f319c6fcc8752611e406040600020613715565b6007811015611cf65780611cc3575042116122dc57611e8c846000527fbc351ae7fa32df0c8ad57278243ae7d011e90d073629dfc92fda8e9f319c6fcc60205260056040600020015490565b9081106122b257611e9d8382613199565b907fbc351ae7fa32df0c8ad57278243ae7d011e90d073629dfc92fda8e9f319c6fd754906000612710611ed08484613199565b106122af575090611ee0916140e9565b90846000527fbc351ae7fa32df0c8ad57278243ae7d011e90d073629dfc92fda8e9f319c6fcc87526001611f7173ffffffffffffffffffffffffffffffffffffffff6006604060002001541673ffffffffffffffffffffffffffffffffffffffff166000527fbc351ae7fa32df0c8ad57278243ae7d011e90d073629dfc92fda8e9f319c6fd1602052604060002090565b01611f7d8382546131db565b9055846000527fbc351ae7fa32df0c8ad57278243ae7d011e90d073629dfc92fda8e9f319c6fcc8752611fce8273ffffffffffffffffffffffffffffffffffffffff60066040600020015416613efb565b3360009081527fbc351ae7fa32df0c8ad57278243ae7d011e90d073629dfc92fda8e9f319c6fcd602052604090208560005287526040600020876040518092868a833786820190815203019020966001880197885498868a1061227d579160027fbc351ae7fa32df0c8ad57278243ae7d011e90d073629dfc92fda8e9f319c6fcc926122789695946120838a7fde342d498cbd3cef89b0ed0094631f92f9cf57bfc8e8efe99d3e7c21213746a09c9d9e61335d565b90550161209184825461335d565b90553360009081527fbc351ae7fa32df0c8ad57278243ae7d011e90d073629dfc92fda8e9f319c6fce6020526040902089600052815260016040600020016120da88825461335d565b90553360009081527fbc351ae7fa32df0c8ad57278243ae7d011e90d073629dfc92fda8e9f319c6fce60205260409020896000528152600260406000200161212384825461335d565b9055886000527fbc351ae7fa32df0c8ad57278243ae7d011e90d073629dfc92fda8e9f319c6fcf8152600186828c604060002060405193849283378a8201908152030190200161217488825461335d565b9055886000527fbc351ae7fa32df0c8ad57278243ae7d011e90d073629dfc92fda8e9f319c6fcf8152600286828c604060002060405193849283378a820190815203019020016121c584825461335d565b9055886000527fbc351ae7fa32df0c8ad57278243ae7d011e90d073629dfc92fda8e9f319c6fd0815260406000206121fe88825461335d565b9055886000527fbc351ae7fa32df0c8ad57278243ae7d011e90d073629dfc92fda8e9f319c6fd08152600160406000200161223a84825461335d565b9055886000525261226a338273ffffffffffffffffffffffffffffffffffffffff60066040600020015416613962565b604051948594339986613227565b0390a3005b89877f2c774e9c0000000000000000000000000000000000000000000000000000000060005260045260245260446000fd5b80fd5b7feb2c75df0000000000000000000000000000000000000000000000000000000060005260046000fd5b7f559895a30000000000000000000000000000000000000000000000000000000060005260046000fd5b346100de5760207ffffffffffffffffffffffffffffffffffffffffffffffffffffffffffffffffc3601126100de576004357fbc351ae7fa32df0c8ad57278243ae7d011e90d073629dfc92fda8e9f319c6fd554811015611d2557806000527fbc351ae7fa32df0c8ad57278243ae7d011e90d073629dfc92fda8e9f319c6fcc60205260ff60406000205416906007821015611cf657600182036123ae576100dc9150613bc4565b600091600281036125a157508082527fbc351ae7fa32df0c8ad57278243ae7d011e90d073629dfc92fda8e9f319c6fcc6020526040822061242e3373ffffffffffffffffffffffffffffffffffffffff166000527fbc351ae7fa32df0c8ad57278243ae7d011e90d073629dfc92fda8e9f319c6fce602052604060002090565b828452602052600160408420015415612579573360009081527fbc351ae7fa32df0c8ad57278243ae7d011e90d073629dfc92fda8e9f319c6fce6020526040902082845260205260ff604084205416612551573360008181527fbc351ae7fa32df0c8ad57278243ae7d011e90d073629dfc92fda8e9f319c6fce6020818152604080842087895280835290882080547fffffffffffffffffffffffffffffffffffffffffffffffffffffffffffffff0016600117905593909252905282845260205261251e6002604085200154918273ffffffffffffffffffffffffffffffffffffffff60063393015416613962565b60405192835260208301527f7e2290278bab7591c02e1cee107f6eb5778796e4f991856e11ffc09bf8b818d060403393a3005b6004837f924260f1000000000000000000000000000000000000000000000000000000008152fd5b6004837f3110f1d8000000000000000000000000000000000000000000000000000000008152fd5b826125d06024927fabe418b7000000000000000000000000000000000000000000000000000000008352612fa5565bfd5b346100de5760207ffffffffffffffffffffffffffffffffffffffffffffffffffffffffffffffffc3601126100de5760043560006101606040516126158161307f565b828152826020820152606060408201528260608201528260808201528260a08201528260c08201528260e0820152606061010082015260606101208201528261014082015201527fbc351ae7fa32df0c8ad57278243ae7d011e90d073629dfc92fda8e9f319c6fd554811015611d25576000527fbc351ae7fa32df0c8ad57278243ae7d011e90d073629dfc92fda8e9f319c6fcc60205260406000206040516126bd8161307f565b81549160ff83166007811015611cf657825260ff602083019360081c16151583526040516126f9816126f281600186016132a3565b03826130e7565b60408301908152600282015493606084019485526003830154906080850191825260048401549060a08601918252600585015460c0870190815273ffffffffffffffffffffffffffffffffffffffff6006870154169060e088019182526007870193845461276681613345565b9561277460405197886130e7565b818752602087019060005260206000206000915b8383106129e357505050506101008901948552600888019586546127ab81613345565b976127b9604051998a6130e7565b818952602089019060005260206000206000915b8383106129be57505050506101208a01968752600a60ff60098b015416996101408c019a15158b520154976101608b019889526040519a60208c5251906007821015611cf65773ffffffffffffffffffffffffffffffffffffffff9661284e9260208e015251151560408d01525161018060608d01526101a08c0190612fd6565b9a5160808b01525160a08a01525160c08901525160e0880152511661010086015251947fffffffffffffffffffffffffffffffffffffffffffffffffffffffffffffffe085820301610120860152855180825260208201916020808360051b8301019801926000915b83831061297357505050505051917fffffffffffffffffffffffffffffffffffffffffffffffffffffffffffffffe084860301610140850152825180865260208601906020808260051b8901019501916000905b82821061292a5784511515610160890152855161018089015287870388f35b90919295602080612965837fffffffffffffffffffffffffffffffffffffffffffffffffffffffffffffffe08d600196030186528a51612fd6565b98019201920190929161290b565b90919293986020806129af837fffffffffffffffffffffffffffffffffffffffffffffffffffffffffffffffe086600196030187528d51613019565b9b0193019301919392906128b7565b6001602081926040516129d5816126f281896132a3565b8152019201920191906127cd565b600360206001926040516129f6816130cb565b604051612a07816126f2818a6132a3565b8152604051612a1c816126f281898b016132a3565b8382015260028601546040820152815201920192019190612788565b346100de5760c07ffffffffffffffffffffffffffffffffffffffffffffffffffffffffffffffffc3601126100de5760043560243567ffffffffffffffff81116100de57612a8a903690600401612f77565b60843592906044359060a43560643573ffffffffffffffffffffffffffffffffffffffff821682036100de577fbc351ae7fa32df0c8ad57278243ae7d011e90d073629dfc92fda8e9f319c6fd554851015611d2557612aea368488613162565b96612aff602098604051906102a78b836130e7565b611ac8578415611b8d578015611b8d578115611b8d57856000527fbc351ae7fa32df0c8ad57278243ae7d011e90d073629dfc92fda8e9f319c6fcc8852612b496040600020613715565b6007811015611cf65780611cc3575042106122dc57612b95856000527fbc351ae7fa32df0c8ad57278243ae7d011e90d073629dfc92fda8e9f319c6fcc60205260056040600020015490565b908111612f4d57612ba68482613199565b907fbc351ae7fa32df0c8ad57278243ae7d011e90d073629dfc92fda8e9f319c6fd654906000612710612bd98484613199565b106122af5750612ce191612bec916140e9565b92866000527fbc351ae7fa32df0c8ad57278243ae7d011e90d073629dfc92fda8e9f319c6fcc89526001612c7d73ffffffffffffffffffffffffffffffffffffffff6006604060002001541673ffffffffffffffffffffffffffffffffffffffff166000527fbc351ae7fa32df0c8ad57278243ae7d011e90d073629dfc92fda8e9f319c6fd1602052604060002090565b01612c898582546131db565b9055866000527fbc351ae7fa32df0c8ad57278243ae7d011e90d073629dfc92fda8e9f319c6fcc895273ffffffffffffffffffffffffffffffffffffffff60066040600020015416612cdb84866131db565b91613742565b3360009081527fbc351ae7fa32df0c8ad57278243ae7d011e90d073629dfc92fda8e9f319c6fcd602052604090208560005287526040600020876040518092868a833786820190815203019020966001880197885498868a1061227d579160027fbc351ae7fa32df0c8ad57278243ae7d011e90d073629dfc92fda8e9f319c6fcc92612278969594612d968a7f16540d96acd91a8646032d735756db867e1d742f340cebb250674fba027fc03e9c9d9e6131db565b905501612da48482546131db565b90553360009081527fbc351ae7fa32df0c8ad57278243ae7d011e90d073629dfc92fda8e9f319c6fce602052604090208960005281526001604060002001612ded8882546131db565b90553360009081527fbc351ae7fa32df0c8ad57278243ae7d011e90d073629dfc92fda8e9f319c6fce602052604090208960005281526002604060002001612e368482546131db565b9055886000527fbc351ae7fa32df0c8ad57278243ae7d011e90d073629dfc92fda8e9f319c6fcf8152600186828c604060002060405193849283378a82019081520301902001612e878882546131db565b9055886000527fbc351ae7fa32df0c8ad57278243ae7d011e90d073629dfc92fda8e9f319c6fcf8152600286828c604060002060405193849283378a82019081520301902001612ed88482546131db565b9055886000527fbc351ae7fa32df0c8ad57278243ae7d011e90d073629dfc92fda8e9f319c6fd081526040600020612f118882546131db565b9055886000527fbc351ae7fa32df0c8ad57278243ae7d011e90d073629dfc92fda8e9f319c6fd08152600160406000200161223a8482546131db565b7f1d5ece530000000000000000000000000000000000000000000000000000000060005260046000fd5b9181601f840112156100de5782359167ffffffffffffffff83116100de57602083818601950101116100de57565b6007811015611cf657600452565b60005b838110612fc65750506000910152565b8181015183820152602001612fb6565b907fffffffffffffffffffffffffffffffffffffffffffffffffffffffffffffffe0601f60209361301281518092818752878088019101612fb3565b0116010190565b906040806130456130338551606086526060860190612fd6565b60208601518582036020870152612fd6565b93015191015290565b9181601f840112156100de5782359167ffffffffffffffff83116100de576020808501948460051b0101116100de57565b610180810190811067ffffffffffffffff82111761309c57604052565b7f4e487b7100000000000000000000000000000000000000000000000000000000600052604160045260246000fd5b6060810190811067ffffffffffffffff82111761309c57604052565b90601f7fffffffffffffffffffffffffffffffffffffffffffffffffffffffffffffffe0910116810190811067ffffffffffffffff82111761309c57604052565b67ffffffffffffffff811161309c57601f017fffffffffffffffffffffffffffffffffffffffffffffffffffffffffffffffe01660200190565b92919261316e82613128565b9161317c60405193846130e7565b8294818452818301116100de578281602093846000960137010152565b818102929181159184041417156131ac57565b7f4e487b7100000000000000000000000000000000000000000000000000000000600052601160045260246000fd5b919082018092116131ac57565b601f82602094937fffffffffffffffffffffffffffffffffffffffffffffffffffffffffffffffe0938186528686013760008582860101520116010190565b9160609396959491613241916080855260808501916131e8565b95602083015260408201520152565b90600182811c92168015613299575b602083101461326a57565b7f4e487b7100000000000000000000000000000000000000000000000000000000600052602260045260246000fd5b91607f169161325f565b600092918154916132b383613250565b808352926001811690811561330957506001146132cf57505050565b60009081526020812093945091925b8383106132ef575060209250010190565b6001816020929493945483858701015201910191906132de565b905060209495507fffffffffffffffffffffffffffffffffffffffffffffffffffffffffffffff0091509291921683830152151560051b010190565b67ffffffffffffffff811161309c5760051b60200190565b919082039182116131ac57565b9080601f830112156100de5781602061338593359101613162565b90565b91908110156133c85760051b810135907fffffffffffffffffffffffffffffffffffffffffffffffffffffffffffffffa1813603018212156100de570190565b7f4e487b7100000000000000000000000000000000000000000000000000000000600052603260045260246000fd5b9190916060818403126100de5760405190613411826130cb565b8193813567ffffffffffffffff81116100de578161343091840161336a565b8352602082013567ffffffffffffffff81116100de5782019181601f840112156100de57613468604093928360208695359101613162565b60208501520135910152565b606051156133c857608090565b606051600110156133c85760a090565b80518210156133c85760209160051b010190565b604051602080820152600360408201527f79657300000000000000000000000000000000000000000000000000000000006060820152606081526133856080826130e7565b604051602080820152600260408201527f6e6f0000000000000000000000000000000000000000000000000000000000006060820152606081526133856080826130e7565b90604060029161356d81511515859060ff7fffffffffffffffffffffffffffffffffffffffffffffffffffffffffffffff0083541691151516179055565b602081015160018501550151910155565b818110613589575050565b6000815560010161357e565b9190601f81116135a457505050565b6135d0926000526020600020906020601f840160051c830193106135d2575b601f0160051c019061357e565b565b90915081906135c3565b6135e68154613250565b90816135f0575050565b81601f60009311600114613602575055565b8183526020832061361e91601f0160051c81019060010161357e565b8082528160208120915555565b90357fffffffffffffffffffffffffffffffffffffffffffffffffffffffffffffffe1823603018112156100de57016020813591019167ffffffffffffffff82116100de5781360383136100de57565b9080602083519182815201916020808360051b8301019401926000915b8383106136a757505050505090565b90919293946020806136e3837fffffffffffffffffffffffffffffffffffffffffffffffffffffffffffffffe086600196030187528951612fd6565b97019301930191939290613698565b80519082519182810361370c576020809201209201201490565b50505050600090565b60ff815416906007821015611cf657811561372e575090565b6004015442101561373c5790565b50600390565b600092919073ffffffffffffffffffffffffffffffffffffffff168061376d57506135d09250613efb565b73ffffffffffffffffffffffffffffffffffffffff821690604051927f70a08231000000000000000000000000000000000000000000000000000000008452306004850152602084602481865afa938415613957578694613923575b50813b1561391f576040517f9865a1d300000000000000000000000000000000000000000000000000000000815273ffffffffffffffffffffffffffffffffffffffff919091166004820152336024820152604481018590529085908290606490829084905af18015613914576138fa575b50906020602492604051938480927f70a082310000000000000000000000000000000000000000000000000000000082523060048301525afa80156138ef5784906138bb575b61388b925061335d565b036138935750565b807fc7e8fc500000000000000000000000000000000000000000000000000000000060049252fd5b506020823d6020116138e7575b816138d5602093836130e7565b810103126100de5761388b9151613881565b3d91506138c8565b6040513d86823e3d90fd5b8461390b60249493966020936130e7565b9491925061383b565b6040513d87823e3d90fd5b8580fd5b9093506020813d60201161394f575b8161393f602093836130e7565b8101031261391f575192386137c9565b3d9150613932565b6040513d88823e3d90fd5b73ffffffffffffffffffffffffffffffffffffffff909291921690604051907f70a08231000000000000000000000000000000000000000000000000000000008252306004830152602082602481865afa918215613adc57600092613ae8575b50602492613a2a60209273ffffffffffffffffffffffffffffffffffffffff604051917fa9059cbb0000000000000000000000000000000000000000000000000000000086840152168682015286604482015260448152613a246064826130e7565b8261427b565b604051938480927f70a082310000000000000000000000000000000000000000000000000000000082523060048301525afa908115613adc57600091613aa6575b613a75925061335d565b03613a7c57565b7fc7e8fc500000000000000000000000000000000000000000000000000000000060005260046000fd5b90506020823d602011613ad4575b81613ac1602093836130e7565b810103126100de57613a75915190613a6b565b3d9150613ab4565b6040513d6000823e3d90fd5b9091506020813d602011613b15575b81613b04602093836130e7565b810103126100de57519060246139c2565b3d9150613af7565b906040518092600090805490613b3282613250565b9160018116908115613b8e5750600114613b55575b505060209281520301902090565b90915060005260206000206000905b828210613b775750508101602038613b47565b805482870152859350602090910190600101613b64565b7fffffffffffffffffffffffffffffffffffffffffffffffffffffffffffffff0016855250508015150282019050602038613b47565b806000527fbc351ae7fa32df0c8ad57278243ae7d011e90d073629dfc92fda8e9f319c6fcc602052604060002090602091604051613c0284826130e7565b60008152613c2760018301916040519061037a82613c2081876132a3565b03836130e7565b613ed1573360009081527fbc351ae7fa32df0c8ad57278243ae7d011e90d073629dfc92fda8e9f319c6fce6020526040902083600052845260016040600020015415613ea757613ccb90613cba3373ffffffffffffffffffffffffffffffffffffffff166000527fbc351ae7fa32df0c8ad57278243ae7d011e90d073629dfc92fda8e9f319c6fcd602052604060002090565b846000528552604060002090613b1d565b92835460ff8116613e7d576001850154908115613e53576002613df6613e229360017fffffffffffffffffffffffffffffffffffffffffffffffffffffffffffffff00613dff9516178955876000527fbc351ae7fa32df0c8ad57278243ae7d011e90d073629dfc92fda8e9f319c6fcc8652604060002090886000527fbc351ae7fa32df0c8ad57278243ae7d011e90d073629dfc92fda8e9f319c6fcf8752613df184613dba6001613d8581604060002097019687613b1d565b0154948c6000527fbc351ae7fa32df0c8ad57278243ae7d011e90d073629dfc92fda8e9f319c6fcf8b52604060002090613b1d565b01548a6000527fbc351ae7fa32df0c8ad57278243ae7d011e90d073629dfc92fda8e9f319c6fd0895260016040600020015461335d565b61418c565b960154866131db565b928373ffffffffffffffffffffffffffffffffffffffff60063393015416613962565b6040519384528301527f7e2290278bab7591c02e1cee107f6eb5778796e4f991856e11ffc09bf8b818d060403393a3565b7f907643880000000000000000000000000000000000000000000000000000000060005260046000fd5b7f924260f10000000000000000000000000000000000000000000000000000000060005260046000fd5b7f3110f1d80000000000000000000000000000000000000000000000000000000060005260046000fd5b7fc74a206d0000000000000000000000000000000000000000000000000000000060005260046000fd5b73ffffffffffffffffffffffffffffffffffffffff16604051907f70a08231000000000000000000000000000000000000000000000000000000008252306004830152602082602481845afa918215613adc5760009261406c575b50906020602492613fef6040517f23b872dd0000000000000000000000000000000000000000000000000000000084820152613a2481613fc38930338b850173ffffffffffffffffffffffffffffffffffffffff6040929594938160608401971683521660208201520152565b037fffffffffffffffffffffffffffffffffffffffffffffffffffffffffffffffe081018352826130e7565b604051938480927f70a082310000000000000000000000000000000000000000000000000000000082523060048301525afa8015613adc5760009061403857613a75925061335d565b506020823d602011614064575b81614052602093836130e7565b810103126100de57613a759151613a6b565b3d9150614045565b91506020823d602011614099575b81614087602093836130e7565b810103126100de579051906020613f56565b3d915061407a565b3d156140cc573d906140b282613128565b916140c060405193846130e7565b82523d6000602084013e565b606090565b908160209103126100de575180151581036100de5790565b9190916000838202917fffffffffffffffffffffffffffffffffffffffffffffffffffffffffffffffff8582099183808410930392808403931461417f5782612710111561416d57507fbc01a36e2eb1c432ca57a786c226809d495182a9930be0ded288ce703afb7e919394612710910990828211900360fc1b910360041c170290565b634e487b71905260116020526024601cfd5b5050506127109192500490565b91818302917fffffffffffffffffffffffffffffffffffffffffffffffffffffffffffffffff8185099383808610950394808603951461423e57848311156142255790829109816000038216809204600281600302188082026002030280820260020302808202600203028082026002030280820260020302809102600203029360018380600003040190848311900302920304170290565b82634e487b71600052156003026011186020526024601cfd5b50508092501561424c570490565b7f4e487b7100000000000000000000000000000000000000000000000000000000600052601260045260246000fd5b906000602091828151910182855af115613adc576000513d6142fd575073ffffffffffffffffffffffffffffffffffffffff81163b155b6142b95750565b73ffffffffffffffffffffffffffffffffffffffff907f5274afe7000000000000000000000000000000000000000000000000000000006000521660045260246000fd5b600114156142b256fea26469706673582212204485174f280af3fd091a5e28e7c2ebf6929f960cfda0d66b66aa92ed9dc7e13364736f6c634300081c0033",
  "linkReferences": {},
  "deployedLinkReferences": {}
}