{
  "_format": "hh-sol-artifact-1",
  "contractName": "ChallengePoolHandler",
  "sourceName": "contracts/modules/ChallengePoolHandler.sol",
  "abi": [
    {
      "inputs": [
        {
          "internalType": "enum IChallengePool.ChallengeState",
          "name": "_state",
          "type": "uint8"
        }
      ],
      "name": "ActionNotAllowedForState",
      "type": "error"
    },
    {
      "inputs": [],
      "name": "BelowMinPrie",
      "type": "error"
    },
    {
      "inputs": [],
      "name": "DeadlineExceeded",
      "type": "error"
    },
    {
      "inputs": [
        {
          "internalType": "string",
          "name": "_functionName",
          "type": "string"
        }
      ],
      "name": "DelegateCallFailed",
      "type": "error"
    },
    {
      "inputs": [],
      "name": "DisputePeriodElapsed",
      "type": "error"
    },
    {
      "inputs": [],
      "name": "EmptyBytes",
      "type": "error"
    },
    {
      "inputs": [],
      "name": "EmptyString",
      "type": "error"
    },
    {
      "inputs": [
        {
          "internalType": "uint256",
          "name": "_requested",
          "type": "uint256"
        },
        {
          "internalType": "uint256",
          "name": "_available",
          "type": "uint256"
        }
      ],
      "name": "InsufficientStakes",
      "type": "error"
    },
    {
      "inputs": [],
      "name": "InvalidChallenge",
      "type": "error"
    },
    {
      "inputs": [],
      "name": "InvalidEventLength",
      "type": "error"
    },
    {
      "inputs": [],
      "name": "InvalidEventMaturity",
      "type": "error"
    },
    {
      "inputs": [],
      "name": "InvalidEventParam",
      "type": "error"
    },
    {
      "inputs": [],
      "name": "InvalidEventTopic",
      "type": "error"
    },
    {
      "inputs": [],
      "name": "InvalidOptionsLength",
      "type": "error"
    },
    {
      "inputs": [],
      "name": "InvalidOutcome",
      "type": "error"
    },
    {
      "inputs": [],
      "name": "InvalidPoolOption",
      "type": "error"
    },
    {
      "inputs": [],
      "name": "InvalidPrediction",
      "type": "error"
    },
    {
      "inputs": [],
      "name": "MaxPriceExceeded",
      "type": "error"
    },
    {
      "inputs": [],
      "name": "PlayerAlreadyDisputed",
      "type": "error"
    },
    {
      "inputs": [],
      "name": "PlayerAlreadyReleased",
      "type": "error"
    },
    {
      "inputs": [],
      "name": "PlayerAlreadyWithdrawn",
      "type": "error"
    },
    {
      "inputs": [],
      "name": "PlayerDidNotDispute",
      "type": "error"
    },
    {
      "inputs": [],
      "name": "PlayerDidNotWinPool",
      "type": "error"
    },
    {
      "inputs": [],
      "name": "PlayerNotInPool",
      "type": "error"
    },
    {
      "inputs": [],
      "name": "ProtocolInvariantCheckFailed",
      "type": "error"
    },
    {
      "inputs": [
        {
          "internalType": "address",
          "name": "token",
          "type": "address"
        }
      ],
      "name": "SafeERC20FailedOperation",
      "type": "error"
    },
    {
      "inputs": [],
      "name": "StakeLowerThanMinimum",
      "type": "error"
    },
    {
      "inputs": [
        {
          "internalType": "address",
          "name": "_token",
          "type": "address"
        }
      ],
      "name": "UnsupportedToken",
      "type": "error"
    },
    {
      "inputs": [],
      "name": "ZeroAddress",
      "type": "error"
    },
    {
      "inputs": [],
      "name": "ZeroNumber",
      "type": "error"
    },
    {
      "anonymous": false,
      "inputs": [
        {
          "indexed": false,
          "internalType": "uint256",
          "name": "challengeId",
          "type": "uint256"
        },
        {
          "indexed": false,
          "internalType": "address",
          "name": "canceller",
          "type": "address"
        },
        {
          "indexed": false,
          "internalType": "enum IChallengePool.ChallengeState",
          "name": "state",
          "type": "uint8"
        }
      ],
      "name": "CancelChallenge",
      "type": "event"
    },
    {
      "anonymous": false,
      "inputs": [
        {
          "indexed": false,
          "internalType": "uint256",
          "name": "challengeId",
          "type": "uint256"
        },
        {
          "indexed": false,
          "internalType": "address",
          "name": "closer",
          "type": "address"
        },
        {
          "indexed": false,
          "internalType": "enum IChallengePool.ChallengeState",
          "name": "state",
          "type": "uint8"
        },
        {
          "indexed": false,
          "internalType": "bytes",
          "name": "result",
          "type": "bytes"
        }
      ],
      "name": "CloseChallenge",
      "type": "event"
    },
    {
      "anonymous": false,
      "inputs": [
        {
          "indexed": false,
          "internalType": "uint256",
          "name": "challengeId",
          "type": "uint256"
        },
        {
          "indexed": false,
          "internalType": "address",
          "name": "disputor",
          "type": "address"
        },
        {
          "indexed": false,
          "internalType": "enum IChallengePool.ChallengeState",
          "name": "state",
          "type": "uint8"
        },
        {
          "indexed": false,
          "internalType": "bytes",
          "name": "result",
          "type": "bytes"
        },
        {
          "indexed": false,
          "internalType": "uint256",
          "name": "amount",
          "type": "uint256"
        }
      ],
      "name": "DisputeOutcome",
      "type": "event"
    },
    {
      "anonymous": false,
      "inputs": [
        {
          "indexed": false,
          "internalType": "uint256",
          "name": "challengeId",
          "type": "uint256"
        },
        {
          "indexed": false,
          "internalType": "address",
          "name": "disputor",
          "type": "address"
        },
        {
          "indexed": false,
          "internalType": "enum IChallengePool.ChallengeState",
          "name": "state",
          "type": "uint8"
        },
        {
          "indexed": false,
          "internalType": "bytes",
          "name": "result",
          "type": "bytes"
        },
        {
          "indexed": false,
          "internalType": "uint256",
          "name": "amount",
          "type": "uint256"
        }
      ],
      "name": "DisputeReleased",
      "type": "event"
    },
    {
      "anonymous": false,
      "inputs": [
        {
          "indexed": false,
          "internalType": "uint256",
          "name": "challengeId",
          "type": "uint256"
        },
        {
          "indexed": false,
          "internalType": "address",
          "name": "evaluator",
          "type": "address"
        },
        {
          "indexed": false,
          "internalType": "enum IChallengePool.ChallengeState",
          "name": "state",
          "type": "uint8"
        },
        {
          "indexed": false,
          "internalType": "bytes",
          "name": "result",
          "type": "bytes"
        }
      ],
      "name": "EvaluateChallenge",
      "type": "event"
    },
    {
      "anonymous": false,
      "inputs": [
        {
          "indexed": false,
          "internalType": "uint256",
          "name": "challengeId",
          "type": "uint256"
        },
        {
          "indexed": false,
          "internalType": "address",
          "name": "creator",
          "type": "address"
        },
        {
          "indexed": false,
          "internalType": "uint256",
          "name": "createdAt",
          "type": "uint256"
        },
        {
          "indexed": false,
          "internalType": "uint256",
          "name": "maturity",
          "type": "uint256"
        },
        {
          "indexed": false,
          "internalType": "enum IChallengePool.ChallengeState",
          "name": "state",
          "type": "uint8"
        },
        {
          "indexed": false,
          "internalType": "bytes",
          "name": "result",
          "type": "bytes"
        },
        {
          "indexed": false,
          "internalType": "uint256",
          "name": "basePrice",
          "type": "uint256"
        },
        {
          "indexed": false,
          "internalType": "uint256",
          "name": "fee",
          "type": "uint256"
        },
        {
          "indexed": false,
          "internalType": "uint256",
          "name": "totalStakes",
          "type": "uint256"
        },
        {
          "indexed": false,
          "internalType": "bytes",
          "name": "prediction",
          "type": "bytes"
        },
        {
          "components": [
            {
              "internalType": "bytes",
              "name": "params",
              "type": "bytes"
            },
            {
              "internalType": "string",
              "name": "topicId",
              "type": "string"
            },
            {
              "internalType": "uint256",
              "name": "maturity",
              "type": "uint256"
            }
          ],
          "indexed": false,
          "internalType": "struct IChallengePool.ChallengeEvent[]",
          "name": "events",
          "type": "tuple[]"
        },
        {
          "indexed": false,
          "internalType": "bytes[]",
          "name": "options",
          "type": "bytes[]"
        },
        {
          "indexed": false,
          "internalType": "address",
          "name": "stakeToken",
          "type": "address"
        },
        {
          "indexed": false,
          "internalType": "address",
          "name": "paymaster",
          "type": "address"
        }
      ],
      "name": "NewChallenge",
      "type": "event"
    },
    {
      "anonymous": false,
      "inputs": [
        {
          "indexed": true,
          "internalType": "bytes32",
          "name": "role",
          "type": "bytes32"
        },
        {
          "indexed": true,
          "internalType": "bytes32",
          "name": "previousAdminRole",
          "type": "bytes32"
        },
        {
          "indexed": true,
          "internalType": "bytes32",
          "name": "newAdminRole",
          "type": "bytes32"
        }
      ],
      "name": "RoleAdminChanged",
      "type": "event"
    },
    {
      "anonymous": false,
      "inputs": [
        {
          "indexed": true,
          "internalType": "bytes32",
          "name": "role",
          "type": "bytes32"
        },
        {
          "indexed": true,
          "internalType": "address",
          "name": "account",
          "type": "address"
        },
        {
          "indexed": true,
          "internalType": "address",
          "name": "sender",
          "type": "address"
        }
      ],
      "name": "RoleGranted",
      "type": "event"
    },
    {
      "anonymous": false,
      "inputs": [
        {
          "indexed": true,
          "internalType": "bytes32",
          "name": "role",
          "type": "bytes32"
        },
        {
          "indexed": true,
          "internalType": "address",
          "name": "account",
          "type": "address"
        },
        {
          "indexed": true,
          "internalType": "address",
          "name": "sender",
          "type": "address"
        }
      ],
      "name": "RoleRevoked",
      "type": "event"
    },
    {
      "anonymous": false,
      "inputs": [
        {
          "indexed": false,
          "internalType": "uint256",
          "name": "challengeId",
          "type": "uint256"
        },
        {
          "indexed": false,
          "internalType": "address",
          "name": "disputor",
          "type": "address"
        },
        {
          "indexed": false,
          "internalType": "enum IChallengePool.ChallengeState",
          "name": "state",
          "type": "uint8"
        },
        {
          "indexed": false,
          "internalType": "bytes",
          "name": "result",
          "type": "bytes"
        },
        {
          "indexed": false,
          "internalType": "uint256",
          "name": "amount",
          "type": "uint256"
        }
      ],
      "name": "SettleDispute",
      "type": "event"
    },
    {
      "anonymous": false,
      "inputs": [
        {
          "indexed": false,
          "internalType": "uint256",
          "name": "challengeId",
          "type": "uint256"
        },
        {
          "indexed": false,
          "internalType": "address",
          "name": "participant",
          "type": "address"
        },
        {
          "indexed": false,
          "internalType": "bytes",
          "name": "option",
          "type": "bytes"
        },
        {
          "indexed": false,
          "internalType": "uint256",
          "name": "stakes",
          "type": "uint256"
        },
        {
          "indexed": false,
          "internalType": "uint256",
          "name": "amount",
          "type": "uint256"
        },
        {
          "indexed": false,
          "internalType": "uint256",
          "name": "fee",
          "type": "uint256"
        }
      ],
      "name": "Stake",
      "type": "event"
    },
    {
      "anonymous": false,
      "inputs": [
        {
          "indexed": false,
          "internalType": "uint256",
          "name": "challengeId",
          "type": "uint256"
        },
        {
          "indexed": false,
          "internalType": "address",
          "name": "participant",
          "type": "address"
        },
        {
          "indexed": false,
          "internalType": "uint256",
          "name": "amountWon",
          "type": "uint256"
        },
        {
          "indexed": false,
          "internalType": "uint256",
          "name": "amountWithdrawn",
          "type": "uint256"
        }
      ],
      "name": "WinningsWithdrawn",
      "type": "event"
    },
    {
      "anonymous": false,
      "inputs": [
        {
          "indexed": false,
          "internalType": "uint256",
          "name": "challengeId",
          "type": "uint256"
        },
        {
          "indexed": false,
          "internalType": "address",
          "name": "participant",
          "type": "address"
        },
        {
          "indexed": false,
          "internalType": "bytes",
          "name": "option",
          "type": "bytes"
        },
        {
          "indexed": false,
          "internalType": "uint256",
          "name": "stakes",
          "type": "uint256"
        },
        {
          "indexed": false,
          "internalType": "uint256",
          "name": "amount",
          "type": "uint256"
        },
        {
          "indexed": false,
          "internalType": "uint256",
          "name": "fee",
          "type": "uint256"
        }
      ],
      "name": "Withdraw",
      "type": "event"
    },
    {
      "inputs": [
        {
          "internalType": "uint256[]",
          "name": "_challengeIds",
          "type": "uint256[]"
        }
      ],
      "name": "bulkWithdraw",
      "outputs": [],
      "stateMutability": "nonpayable",
      "type": "function"
    },
    {
      "inputs": [
        {
          "components": [
            {
              "internalType": "bytes",
              "name": "params",
              "type": "bytes"
            },
            {
              "internalType": "string",
              "name": "topicId",
              "type": "string"
            },
            {
              "internalType": "uint256",
              "name": "maturity",
              "type": "uint256"
            }
          ],
          "internalType": "struct IChallengePool.ChallengeEvent[]",
          "name": "_events",
          "type": "tuple[]"
        },
        {
          "internalType": "bytes[]",
          "name": "_options",
          "type": "bytes[]"
        },
        {
          "internalType": "address",
          "name": "_stakeToken",
          "type": "address"
        },
        {
          "internalType": "bytes",
          "name": "_prediction",
          "type": "bytes"
        },
        {
          "internalType": "uint256",
          "name": "_quantity",
          "type": "uint256"
        },
        {
          "internalType": "uint256",
          "name": "_basePrice",
          "type": "uint256"
        },
        {
          "internalType": "address",
          "name": "_paymaster",
          "type": "address"
        }
      ],
      "name": "createChallenge",
      "outputs": [],
      "stateMutability": "nonpayable",
      "type": "function"
    },
    {
      "inputs": [
        {
          "internalType": "uint256",
          "name": "_price",
          "type": "uint256"
        }
      ],
      "name": "createFee",
      "outputs": [
        {
          "internalType": "uint256",
          "name": "fee",
          "type": "uint256"
        },
        {
          "internalType": "uint256",
          "name": "feePlusPrice",
          "type": "uint256"
        }
      ],
      "stateMutability": "view",
      "type": "function"
    },
    {
      "inputs": [
        {
          "internalType": "uint256",
          "name": "_challengeId",
          "type": "uint256"
        },
        {
          "internalType": "bytes",
          "name": "_prediction",
          "type": "bytes"
        },
        {
          "internalType": "uint256",
          "name": "_quantity",
          "type": "uint256"
        },
        {
          "internalType": "uint256",
          "name": "_minPrice",
          "type": "uint256"
        },
        {
          "internalType": "uint256",
          "name": "_deadline",
          "type": "uint256"
        }
      ],
      "name": "earlyWithdraw",
      "outputs": [],
      "stateMutability": "nonpayable",
      "type": "function"
    },
    {
      "inputs": [
        {
          "internalType": "uint256",
          "name": "_price",
          "type": "uint256"
        }
      ],
      "name": "earlyWithdrawFee",
      "outputs": [
        {
          "internalType": "uint256",
          "name": "fee",
          "type": "uint256"
        },
        {
          "internalType": "uint256",
          "name": "feePlusPrice",
          "type": "uint256"
        }
      ],
      "stateMutability": "view",
      "type": "function"
    },
    {
      "inputs": [
        {
          "internalType": "uint256",
          "name": "_challengeId",
          "type": "uint256"
        }
      ],
      "name": "getChallenge",
      "outputs": [
        {
          "components": [
            {
              "internalType": "enum IChallengePool.ChallengeState",
              "name": "state",
              "type": "uint8"
            },
            {
              "internalType": "bool",
              "name": "multi",
              "type": "bool"
            },
            {
              "internalType": "bytes",
              "name": "outcome",
              "type": "bytes"
            },
            {
              "internalType": "uint256",
              "name": "totalStakes",
              "type": "uint256"
            },
            {
              "internalType": "uint256",
              "name": "createdAt",
              "type": "uint256"
            },
            {
              "internalType": "uint256",
              "name": "maturity",
              "type": "uint256"
            },
            {
              "internalType": "uint256",
              "name": "basePrice",
              "type": "uint256"
            },
            {
              "internalType": "address",
              "name": "stakeToken",
              "type": "address"
            },
            {
              "components": [
                {
                  "internalType": "bytes",
                  "name": "params",
                  "type": "bytes"
                },
                {
                  "internalType": "string",
                  "name": "topicId",
                  "type": "string"
                },
                {
                  "internalType": "uint256",
                  "name": "maturity",
                  "type": "uint256"
                }
              ],
              "internalType": "struct IChallengePool.ChallengeEvent[]",
              "name": "events",
              "type": "tuple[]"
            },
            {
              "internalType": "bytes[]",
              "name": "options",
              "type": "bytes[]"
            },
            {
              "internalType": "bool",
              "name": "disputed",
              "type": "bool"
            },
            {
              "internalType": "uint256",
              "name": "lastOutcomeSet",
              "type": "uint256"
            }
          ],
          "internalType": "struct IChallengePool.Challenge",
          "name": "",
          "type": "tuple"
        }
      ],
      "stateMutability": "view",
      "type": "function"
    },
    {
      "inputs": [
        {
          "internalType": "uint256",
          "name": "_challengeId",
          "type": "uint256"
        },
        {
          "internalType": "bytes",
          "name": "_option",
          "type": "bytes"
        },
        {
          "internalType": "uint256",
          "name": "_quantity",
          "type": "uint256"
        },
        {
          "internalType": "enum IChallengePool.PoolAction",
          "name": "_action",
          "type": "uint8"
        }
      ],
      "name": "price",
      "outputs": [
        {
          "internalType": "uint256",
          "name": "",
          "type": "uint256"
        }
      ],
      "stateMutability": "view",
      "type": "function"
    },
    {
      "inputs": [
        {
          "internalType": "uint256",
          "name": "_challengeId",
          "type": "uint256"
        },
        {
          "internalType": "bytes",
          "name": "_prediction",
          "type": "bytes"
        },
        {
          "internalType": "uint256",
          "name": "_quantity",
          "type": "uint256"
        },
        {
          "internalType": "uint256",
          "name": "_maxPrice",
          "type": "uint256"
        },
        {
          "internalType": "uint256",
          "name": "_deadline",
          "type": "uint256"
        },
        {
          "internalType": "address",
          "name": "_paymaster",
          "type": "address"
        }
      ],
      "name": "stake",
      "outputs": [],
      "stateMutability": "nonpayable",
      "type": "function"
    },
    {
      "inputs": [
        {
          "internalType": "uint256",
          "name": "_price",
          "type": "uint256"
        }
      ],
      "name": "stakeFee",
      "outputs": [
        {
          "internalType": "uint256",
          "name": "fee",
          "type": "uint256"
        },
        {
          "internalType": "uint256",
          "name": "feePlusPrice",
          "type": "uint256"
        }
      ],
      "stateMutability": "view",
      "type": "function"
    },
    {
      "inputs": [
        {
          "internalType": "uint256",
          "name": "_challengeId",
          "type": "uint256"
        }
      ],
      "name": "withdraw",
      "outputs": [],
      "stateMutability": "nonpayable",
      "type": "function"
    }
  ],
  "bytecode": "0x608080604052346015576143be908161001b8239f35b600080fdfe60e0604052600436101561001257600080fd5b60003560e01c8063156e38e414612a795780631bdd4b74146125eb5780632e1a7d4d146122b757806331b830fa14611cfb57806340edf54d14611b635780635c4cb59914611b025780636eb9aec2146101ec5780637ae530d81461018b578063a6a21a5d146101175763cd819f461461008a57600080fd5b346101125760207ffffffffffffffffffffffffffffffffffffffffffffffffffffffffffffffffc360112610112577fbc351ae7fa32df0c8ad57278243ae7d011e90d073629dfc92fda8e9f319c6fd8546004356127106100eb838361319e565b10610112576101066100ff6040938361416b565b80926131e0565b82519182526020820152f35b600080fd5b346101125760207ffffffffffffffffffffffffffffffffffffffffffffffffffffffffffffffffc3601126101125760043567ffffffffffffffff811161011257610166903690600401613053565b60005b81811015610189576001906101838160051b850135613a81565b01610169565b005b346101125760207ffffffffffffffffffffffffffffffffffffffffffffffffffffffffffffffffc360112610112577fbc351ae7fa32df0c8ad57278243ae7d011e90d073629dfc92fda8e9f319c6fd7546004356127106100eb838361319e565b346101125760e07ffffffffffffffffffffffffffffffffffffffffffffffffffffffffffffffffc3601126101125760043567ffffffffffffffff81116101125761023b903690600401613053565b9060243567ffffffffffffffff81116101125761025c903690600401613053565b906044359073ffffffffffffffffffffffffffffffffffffffff821682036101125760643567ffffffffffffffff81116101125761029e903690600401612fb1565b9060a0529260c4359173ffffffffffffffffffffffffffffffffffffffff831683036101125760843515611ad85760a43515611ad85773ffffffffffffffffffffffffffffffffffffffff841615611aae5760ff600261033d8673ffffffffffffffffffffffffffffffffffffffff166000527fbc351ae7fa32df0c8ad57278243ae7d011e90d073629dfc92fda8e9f319c6fd1602052604060002090565b01541615611a6a577fbc351ae7fa32df0c8ad57278243ae7d011e90d073629dfc92fda8e9f319c6fd95460a43510611a405761037c368660a051613167565b9161039a6020936040519061039186836130ec565b6000825261376a565b611a165787156119ec577fbc351ae7fa32df0c8ad57278243ae7d011e90d073629dfc92fda8e9f319c6fda54811160c05260c0516119c257600060c0528061163c57505060c0519460018710611610577fbc351ae7fa32df0c8ad57278243ae7d011e90d073629dfc92fda8e9f319c6fdb54871161161057604051606061042181836130ec565b600282527fffffffffffffffffffffffffffffffffffffffffffffffffffffffffffffffe0606001908460c0515b838110611601575050505061046261344e565b61046b8261341d565b526104758161341d565b5061047e613493565b6104878261342a565b526104918161342a565b50916104b061049e61344e565b6104ab368960a051613167565b61376a565b15806115ef575b6115c3575b60c05160808190525b888082106113445750507fbc351ae7fa32df0c8ad57278243ae7d011e90d073629dfc92fda8e9f319c6fd8546127106105008260a43561319e565b10610c84576105119060a43561416b565b96600161055d8773ffffffffffffffffffffffffffffffffffffffff166000527fbc351ae7fa32df0c8ad57278243ae7d011e90d073629dfc92fda8e9f319c6fd1602052604060002090565b016105698982546131e0565b905561057960843560a43561319e565b6040519081604081011067ffffffffffffffff604084011117610df757896107359183604061073c9501604052608435815260018782018381527fbc351ae7fa32df0c8ad57278243ae7d011e90d073629dfc92fda8e9f319c6fd55460c051527fbc351ae7fa32df0c8ad57278243ae7d011e90d073629dfc92fda8e9f319c6fd08952604060c051209251835551910155610697604051610619816130d0565b60c0518152608435888201528260408201527fbc351ae7fa32df0c8ad57278243ae7d011e90d073629dfc92fda8e9f319c6fd55460c051527fbc351ae7fa32df0c8ad57278243ae7d011e90d073629dfc92fda8e9f319c6fcf88528c88604060c05120916040519281849260a0518437820190815203019020613561565b6107306040516106a6816130d0565b60c05181526084358882015260408082018490523360009081527fbc351ae7fa32df0c8ad57278243ae7d011e90d073629dfc92fda8e9f319c6fcd602052207fbc351ae7fa32df0c8ad57278243ae7d011e90d073629dfc92fda8e9f319c6fd55460c0515288528c88604060c05120916040519281849260a0518437820190815203019020613561565b6131e0565b87876137ba565b60405161074983826130ec565b60c05181526040519161075b83613084565b60c05183521515838301526040820152608435606082015242608082015260805160a082015260a43560c082015273ffffffffffffffffffffffffffffffffffffffff861660e08201526107ae8961336b565b6107bb60405191826130ec565b898152828101368b60051b860111610c845784905b8b60051b860182106112ad5750506101008201528361012082015260c05161014082015260c0516101608201527fbc351ae7fa32df0c8ad57278243ae7d011e90d073629dfc92fda8e9f319c6fd55460c051527fbc351ae7fa32df0c8ad57278243ae7d011e90d073629dfc92fda8e9f319c6fcc8252604060c05120908051600781101561127c5760c0515082547fffffffffffffffffffffffffffffffffffffffffffffffffffffffffffff000060ff61ff0087860151151560081b169316911617178255604081015180519067ffffffffffffffff8211610df7576108c7826108be6001870154613276565b600187016135c7565b84906001601f8411146111ae579180916109169360c051926111a3575b50507fffffffffffffffffffffffffffffffffffffffffffffffffffffffffffffffff8260011b9260031b1c19161790565b60018301555b606081015160028301556080810151600383015560a0810151600483015560c081015160058301556006820173ffffffffffffffffffffffffffffffffffffffff60e0830151167fffffffffffffffffffffffff0000000000000000000000000000000000000000825416179055610100810151805190680100000000000000008211610df757849060078501548360078701558084106110d6575b50016007840160c051528460c0512060c051915b838310610e655750505050610120810151805190680100000000000000008211610df75784906008850154836008870155808410610e28575b509b94959b01906008840160c051528560c0512060c051925b828410610c8a575050505061016081610a6e610140600a9401511515600986019060ff7fffffffffffffffffffffffffffffffffffffffffffffffffffffffffffffff0083541691151516179055565b0151910155610b147fbc351ae7fa32df0c8ad57278243ae7d011e90d073629dfc92fda8e9f319c6fd5549760405197610aa7858a6130ec565b60c0518952610aec604051998b8b5233878c01524260408c015260805160608c015260c0515060c0515060c05160808c01526101c060a08c01526101c08b0190613010565b9160a43560c08b015260e08a01526084356101008a01528882036101208a015260a0516131ed565b9186830361014088015281835280830192818360051b82010199809460c051927fffffffffffffffffffffffffffffffffffffffffffffffffffffffffffffffa183360301905b868510610c29578c7fad166699768ff8877dce7a9cc829f355c7a821b300765dec8609ded3bf0637a28f8e8e73ffffffffffffffffffffffffffffffffffffffff8f8f610bb3868492878099036101608901526136f3565b9316610180850152166101a08301520390a160018101809111610bf8577fbc351ae7fa32df0c8ad57278243ae7d011e90d073629dfc92fda8e9f319c6fd55560c05180f35b7f4e487b710000000000000000000000000000000000000000000000000000000060c051526011600452602460c051fd5b909192939495969c7fffffffffffffffffffffffffffffffffffffffffffffffffffffffffffffffe08282030184528d3583811215610c845787610c72600193888394016136ad565b9f019401950193929695949190610b5b565b60c05180fd5b809d97969d5190815167ffffffffffffffff8111610df7578892610cb882610cb28754613276565b876135c7565b83906001601f841114610d29578260019593869593610d0b9360c05192610d1e5750507fffffffffffffffffffffffffffffffffffffffffffffffffffffffffffffffff8260011b9260031b1c19161790565b85555b019201930192909c95969c610a1e565b0151905038806108e4565b908560c095949551528360c051209160c0515b7fffffffffffffffffffffffffffffffffffffffffffffffffffffffffffffffe085168110610ddf57509260019592869594928693837fffffffffffffffffffffffffffffffffffffffffffffffffffffffffffffffe0811610610da8575b505050811b018555610d0e565b01517fffffffffffffffffffffffffffffffffffffffffffffffffffffffffffffffff60f88460031b161c19169055388080610d9b565b8183015184558c956001909401939283019201610d3c565b7f4e487b710000000000000000000000000000000000000000000000000000000060c051526041600452602460c051fd5b6008860160c051528260c05120908482015b8183018110610e4a575050610a05565b60019192939450610e5a8161360e565b019087939291610e3a565b8051805180519067ffffffffffffffff8211610df757610e8982610cb28754613276565b89906001601f84111461103057918091610ed79360c05192610d1e5750507fffffffffffffffffffffffffffffffffffffffffffffffffffffffffffffffff8260011b9260031b1c19161790565b83555b8781015190815167ffffffffffffffff8111610df7578992610f0c82610f036001890154613276565b600189016135c7565b83906001601f841114610f7b5792610f6383600197946040946003989760c05192610d1e5750507fffffffffffffffffffffffffffffffffffffffffffffffffffffffffffffffff8260011b9260031b1c19161790565b868801555b01516002860155019201920191906109cc565b7fffffffffffffffffffffffffffffffffffffffffffffffffffffffffffffffe0839296949316906001880160c051528560c051209160c0515b81811061101857509260039695949260019889938360409710610fe2575b505050811b0186880155610f68565b01517fffffffffffffffffffffffffffffffffffffffffffffffffffffffffffffffff60f8848b1b161c19169055388080610fd3565b888301518455978701978e9760019094019301610fb5565b907fffffffffffffffffffffffffffffffffffffffffffffffffffffffffffffffe08316918660c051528b60c051209260c0515b8d8282106110c0575050908460019594939210611089575b505050811b018355610eda565b01517fffffffffffffffffffffffffffffffffffffffffffffffffffffffffffffffff60f88460031b161c1916905538808061107c565b6001859682939686015181550195019301611064565b9091506003818102048103610bf8576003838102048303610bf8579085916007860160c051528260c051208460030281015b826003028201811061111b5750506109b8565b6003919293945061112b8161360e565b600181016111398154613276565b80611154575b505060c0516002820155019087939291611108565b601f811160011461116d575060c05190555b388061113f565b61118d908260c051526001601f8d60c05120920160051c820191016135b0565b60c08051829052518a8120918190559055611166565b015190508d806108e4565b91906001850160c051528560c051209060c051935b877fffffffffffffffffffffffffffffffffffffffffffffffffffffffffffffffe085168610611263575060019450837fffffffffffffffffffffffffffffffffffffffffffffffffffffffffffffffe081161061122c575b505050811b01600183015561091c565b01517fffffffffffffffffffffffffffffffffffffffffffffffffffffffffffffffff60f88460031b161c191690558c808061121c565b82820151845594850194600190930192909101906111c3565b7f4e487b710000000000000000000000000000000000000000000000000000000060c051526021600452602460c051fd5b813567ffffffffffffffff8111610c84578601606081360312610c8457604051916112d7836130d0565b813567ffffffffffffffff8111610c84576112f59036908401613390565b83528682013567ffffffffffffffff8111610c845782019236601f85011215610c8457604088949361132e869536908781359101613167565b85840152013560408201528152019101906107d0565b60026113686113626113598560ff95896133ae565b868101906134d8565b90613529565b015460a01c16600281101561127c5715611597576040611389828b866133ae565b01356113b67fbc351ae7fa32df0c8ad57278243ae7d011e90d073629dfc92fda8e9f319c6fdc54426131e0565b1161156b5760406113c8828b866133ae565b013560805110611554575b6113de818a856133ae565b61146583820161149173ffffffffffffffffffffffffffffffffffffffff600261141e611362836001611414611362898c6134d8565b01541695886134d8565b01541693604051938491888301967f1e272e4c00000000000000000000000000000000000000000000000000000000885260248401526040604484015260648301906136ad565b037fffffffffffffffffffffffffffffffffffffffffffffffffffffffffffffffe081018452836130ec565b60c0519260c0519251915af46114a5614123565b90156114f6578083806114bd93518301019101614153565b156114ca576001016104c5565b7f66e37c080000000000000000000000000000000000000000000000000000000060c05152600460c051fd5b606483604051907f9becf85d0000000000000000000000000000000000000000000000000000000082526004820152601660248201527f4c6962506f6f6c2e5f76616c69646174654576656e74000000000000000000006044820152fd5b6040611561828b866133ae565b01356080526113d3565b7fcce559bd0000000000000000000000000000000000000000000000000000000060c05152600460c051fd5b7f4aa91a460000000000000000000000000000000000000000000000000000000060c05152600460c051fd5b7fea0599f80000000000000000000000000000000000000000000000000000000060c05152600460c051fd5b506115fb61049e613493565b156104b7565b8282828701015201859061044f565b7f678c50c90000000000000000000000000000000000000000000000000000000060c05152600460c051fd5b91600196916002841061199657878903611610576116598461336b565b9061166760405192836130ec565b848252828201908560051b810191368311610c845781905b83821061196a575092958693509150508335368590037fffffffffffffffffffffffffffffffffffffffffffffffffffffffffffffffa101811215610c845784016117408a61177073ffffffffffffffffffffffffffffffffffffffff60026116f6611362838b890196611414611362898c6134d8565b015416936114656040519485928a8401977fd925ce5000000000000000000000000000000000000000000000000000000000895260248501526060604485015260848401906136ad565b7fffffffffffffffffffffffffffffffffffffffffffffffffffffffffffffffdc838203016064840152886136f3565b60c0519260c0519251915af4611784614123565b901561190c5780848061179c93518301019101614153565b156114ca5760c05191825b8281106117e1575050506104bc577fea0599f80000000000000000000000000000000000000000000000000000000060c05152600460c051fd5b6118076040516117f187826130ec565b60c0518152611800838561343a565b519061376a565b6118e0578061182961181a8d938561343a565b516104ab8d369060a051613167565b6118d7575b7fbc351ae7fa32df0c8ad57278243ae7d011e90d073629dfc92fda8e9f319c6fd55460c051527fbc351ae7fa32df0c8ad57278243ae7d011e90d073629dfc92fda8e9f319c6fcf86526118a086604060c0512061188b848761343a565b51908260405194838680955193849201612fed565b820190815203019020827fffffffffffffffffffffffffffffffffffffffffffffffffffffffffffffff00825416179055016117a7565b9350809361182e565b7f3d4d195c0000000000000000000000000000000000000000000000000000000060c05152600460c051fd5b606484604051907f9becf85d0000000000000000000000000000000000000000000000000000000082526004820152601860248201527f4c6962506f6f6c2e5f76616c69646174654f7074696f6e7300000000000000006044820152fd5b813567ffffffffffffffff8111610c8457869161198b839236908701613390565b81520191019061167f565b7f8ad443780000000000000000000000000000000000000000000000000000000060c05152600460c051fd5b7f8ad443780000000000000000000000000000000000000000000000000000000060005260046000fd5b7f678c50c90000000000000000000000000000000000000000000000000000000060005260046000fd5b7fea0599f80000000000000000000000000000000000000000000000000000000060005260046000fd5b7f7b31d8c60000000000000000000000000000000000000000000000000000000060005260046000fd5b73ffffffffffffffffffffffffffffffffffffffff847fbf16aab6000000000000000000000000000000000000000000000000000000006000521660045260246000fd5b7fd92e233d0000000000000000000000000000000000000000000000000000000060005260046000fd5b7f99d1d12f0000000000000000000000000000000000000000000000000000000060005260046000fd5b346101125760207ffffffffffffffffffffffffffffffffffffffffffffffffffffffffffffffffc360112610112577fbc351ae7fa32df0c8ad57278243ae7d011e90d073629dfc92fda8e9f319c6fd6546004356127106100eb838361319e565b346101125760807ffffffffffffffffffffffffffffffffffffffffffffffffffffffffffffffffc3601126101125760043560243567ffffffffffffffff811161011257611bb5903690600401612fb1565b505060026064351015610112577fbc351ae7fa32df0c8ad57278243ae7d011e90d073629dfc92fda8e9f319c6fd554811015611cd157806000527fbc351ae7fa32df0c8ad57278243ae7d011e90d073629dfc92fda8e9f319c6fcc602052611c20604060002061378d565b6007811015611ca25780611c6f576020611c67836000527fbc351ae7fa32df0c8ad57278243ae7d011e90d073629dfc92fda8e9f319c6fcc60205260056040600020015490565b604051908152f35b611c9c907fabe418b700000000000000000000000000000000000000000000000000000000600052612fdf565b60246000fd5b7f4e487b7100000000000000000000000000000000000000000000000000000000600052602160045260246000fd5b7f92fa6fd30000000000000000000000000000000000000000000000000000000060005260046000fd5b346101125760a07ffffffffffffffffffffffffffffffffffffffffffffffffffffffffffffffffc3601126101125760043560243567ffffffffffffffff811161011257611d4d903690600401612fb1565b9160443592606435608435947fbc351ae7fa32df0c8ad57278243ae7d011e90d073629dfc92fda8e9f319c6fd554841015611cd157611d8d368487613167565b95611da2602097604051906103918a836130ec565b611a16578115611ad8578015611ad8578215611ad857846000527fbc351ae7fa32df0c8ad57278243ae7d011e90d073629dfc92fda8e9f319c6fcc8752611dec604060002061378d565b6007811015611ca25780611c6f5750421161228d57611e38846000527fbc351ae7fa32df0c8ad57278243ae7d011e90d073629dfc92fda8e9f319c6fcc60205260056040600020015490565b91821061226357836000527fbc351ae7fa32df0c8ad57278243ae7d011e90d073629dfc92fda8e9f319c6fcf865260ff6040600020876040518092878a833787820190815203019020541615611a1657611e92818361319e565b917fbc351ae7fa32df0c8ad57278243ae7d011e90d073629dfc92fda8e9f319c6fd754906000612710611ec5848461319e565b10612260575090611ed59161416b565b92611f1f3373ffffffffffffffffffffffffffffffffffffffff166000527fbc351ae7fa32df0c8ad57278243ae7d011e90d073629dfc92fda8e9f319c6fcd602052604060002090565b8560005287526040600020876040518092848a833784820190815203019020966001880197885498848a1061222e579160027fbc351ae7fa32df0c8ad57278243ae7d011e90d073629dfc92fda8e9f319c6fcc92869594611fa66122299a99987fde342d498cbd3cef89b0ed0094631f92f9cf57bfc8e8efe99d3e7c21213746a09e613383565b905501611fb4868254613383565b90553360009081527fbc351ae7fa32df0c8ad57278243ae7d011e90d073629dfc92fda8e9f319c6fce602052604090208860005281526001604060002001611ffd858254613383565b90553360009081527fbc351ae7fa32df0c8ad57278243ae7d011e90d073629dfc92fda8e9f319c6fce602052604090208860005281526002604060002001612046868254613383565b9055876000527fbc351ae7fa32df0c8ad57278243ae7d011e90d073629dfc92fda8e9f319c6fcf8152600183828b604060002060405193849283378782019081520301902001612097858254613383565b9055876000527fbc351ae7fa32df0c8ad57278243ae7d011e90d073629dfc92fda8e9f319c6fcf8152600283828b6040600020604051938492833787820190815203019020016120e8868254613383565b9055876000527fbc351ae7fa32df0c8ad57278243ae7d011e90d073629dfc92fda8e9f319c6fd081526040600020612121858254613383565b9055876000527fbc351ae7fa32df0c8ad57278243ae7d011e90d073629dfc92fda8e9f319c6fd08152600160406000200161215d868254613383565b9055600088815282825260408082206006015473ffffffffffffffffffffffffffffffffffffffff1682527fbc351ae7fa32df0c8ad57278243ae7d011e90d073629dfc92fda8e9f319c6fd160205290206001016121bc8782546131e0565b9055876000528181526121ed8673ffffffffffffffffffffffffffffffffffffffff60066040600020015416613dc2565b876000525261221b338473ffffffffffffffffffffffffffffffffffffffff60066040600020015416613fac565b60405196879633908861322c565b0390a1005b89857f2c774e9c0000000000000000000000000000000000000000000000000000000060005260045260245260446000fd5b80fd5b7feb2c75df0000000000000000000000000000000000000000000000000000000060005260046000fd5b7f559895a30000000000000000000000000000000000000000000000000000000060005260046000fd5b346101125760207ffffffffffffffffffffffffffffffffffffffffffffffffffffffffffffffffc360112610112576004357fbc351ae7fa32df0c8ad57278243ae7d011e90d073629dfc92fda8e9f319c6fd554811015611cd157806000527fbc351ae7fa32df0c8ad57278243ae7d011e90d073629dfc92fda8e9f319c6fcc60205260ff60406000205416906007821015611ca2576001820361235f576101899150613a81565b600091600281036125ba57508082527fbc351ae7fa32df0c8ad57278243ae7d011e90d073629dfc92fda8e9f319c6fcc602052604082206123df3373ffffffffffffffffffffffffffffffffffffffff166000527fbc351ae7fa32df0c8ad57278243ae7d011e90d073629dfc92fda8e9f319c6fce602052604060002090565b828452602052600160408420015415612592573360009081527fbc351ae7fa32df0c8ad57278243ae7d011e90d073629dfc92fda8e9f319c6fce6020526040902082845260205260ff60408420541661256a57906080917f7e2290278bab7591c02e1cee107f6eb5778796e4f991856e11ffc09bf8b818d0936124a13373ffffffffffffffffffffffffffffffffffffffff166000527fbc351ae7fa32df0c8ad57278243ae7d011e90d073629dfc92fda8e9f319c6fce602052604060002090565b8382526020526040812060017fffffffffffffffffffffffffffffffffffffffffffffffffffffffffffffff0082541617905561251d3373ffffffffffffffffffffffffffffffffffffffff166000527fbc351ae7fa32df0c8ad57278243ae7d011e90d073629dfc92fda8e9f319c6fce602052604060002090565b8382526020526125516002604083200154928373ffffffffffffffffffffffffffffffffffffffff60063393015416613fac565b60405192835233602084015260408301526060820152a1005b6004837f924260f1000000000000000000000000000000000000000000000000000000008152fd5b6004837f3110f1d8000000000000000000000000000000000000000000000000000000008152fd5b826125e96024927fabe418b7000000000000000000000000000000000000000000000000000000008352612fdf565bfd5b346101125760207ffffffffffffffffffffffffffffffffffffffffffffffffffffffffffffffffc36011261011257600435600061016060405161262e81613084565b828152826020820152606060408201528260608201528260808201528260a08201528260c08201528260e0820152606061010082015260606101208201528261014082015201527fbc351ae7fa32df0c8ad57278243ae7d011e90d073629dfc92fda8e9f319c6fd554811015611cd1576000527fbc351ae7fa32df0c8ad57278243ae7d011e90d073629dfc92fda8e9f319c6fcc60205260406000206040516126d681613084565b81549160ff83166007811015611ca257825260ff602083019360081c16151583526040516127128161270b81600186016132c9565b03826130ec565b60408301908152600282015493606084019485526003830154906080850191825260048401549060a08601918252600585015460c0870190815273ffffffffffffffffffffffffffffffffffffffff6006870154169060e088019182526007870193845461277f8161336b565b9561278d60405197886130ec565b818752602087019060005260206000206000915b838310612a2457505050506101008901948552600888019586546127c48161336b565b976127d2604051998a6130ec565b818952602089019060005260206000206000915b8383106129ff57505050506101208a01968752600a60ff60098b015416996101408c019a15158b520154976101608b019889526040519a60208c5251906007821015611ca25773ffffffffffffffffffffffffffffffffffffffff966128679260208e015251151560408d01525161018060608d01526101a08c0190613010565b9a5160808b01525160a08a01525160c08901525160e0880152511661010086015251947fffffffffffffffffffffffffffffffffffffffffffffffffffffffffffffffe085820301610120860152855180825260208201916020808360051b8301019801926000915b83831061298c57505050505051917fffffffffffffffffffffffffffffffffffffffffffffffffffffffffffffffe084860301610140850152825180865260208601906020808260051b8901019501916000905b8282106129435784511515610160890152855161018089015287870388f35b9091929560208061297e837fffffffffffffffffffffffffffffffffffffffffffffffffffffffffffffffe08d600196030186528a51613010565b980192019201909291612924565b9091929398602080827fffffffffffffffffffffffffffffffffffffffffffffffffffffffffffffffe085600195030186528c51906040806129ea6129da8551606086526060860190613010565b8686015185820388870152613010565b9301519101529b0193019301919392906128d0565b600160208192604051612a168161270b81896132c9565b8152019201920191906127e6565b60036020600192604051612a37816130d0565b604051612a488161270b818a6132c9565b8152604051612a5d8161270b81898b016132c9565b83820152600286015460408201528152019201920191906127a1565b346101125760c07ffffffffffffffffffffffffffffffffffffffffffffffffffffffffffffffffc3601126101125760043560243567ffffffffffffffff811161011257612acb903690600401612fb1565b91604435606435906084359460a43573ffffffffffffffffffffffffffffffffffffffff81168103610112577fbc351ae7fa32df0c8ad57278243ae7d011e90d073629dfc92fda8e9f319c6fd554851015611cd157612b2b368388613167565b96612b40602098604051906103918b836130ec565b611a16578315611ad8578015611ad8578415611ad857856000527fbc351ae7fa32df0c8ad57278243ae7d011e90d073629dfc92fda8e9f319c6fcc8852612b8a604060002061378d565b6007811015611ca25780611c6f5750421161228d57612bd6856000527fbc351ae7fa32df0c8ad57278243ae7d011e90d073629dfc92fda8e9f319c6fcc60205260056040600020015490565b938411612f8757846000527fbc351ae7fa32df0c8ad57278243ae7d011e90d073629dfc92fda8e9f319c6fcf875260ff6040600020886040518092868b833786820190815203019020541615611a1657612c30838561319e565b937fbc351ae7fa32df0c8ad57278243ae7d011e90d073629dfc92fda8e9f319c6fd654906000612710612c63848461319e565b1061226057507f16540d96acd91a8646032d735756db867e1d742f340cebb250674fba027fc03e9894927fbc351ae7fa32df0c8ad57278243ae7d011e90d073629dfc92fda8e9f319c6fcc612cc061222998969461221b9461416b565b96612d0a3373ffffffffffffffffffffffffffffffffffffffff166000527fbc351ae7fa32df0c8ad57278243ae7d011e90d073629dfc92fda8e9f319c6fcd602052604060002090565b8a6000528152600285828d604060002060405193849283378982019081520301902060018101612d3b8982546131e0565b905501612d498882546131e0565b90553360009081527fbc351ae7fa32df0c8ad57278243ae7d011e90d073629dfc92fda8e9f319c6fce602052604090208a60005281526001604060002001612d928782546131e0565b90553360009081527fbc351ae7fa32df0c8ad57278243ae7d011e90d073629dfc92fda8e9f319c6fce602052604090208a60005281526002604060002001612ddb8882546131e0565b9055896000527fbc351ae7fa32df0c8ad57278243ae7d011e90d073629dfc92fda8e9f319c6fcf8152600185828d604060002060405193849283378982019081520301902001612e2c8782546131e0565b9055896000527fbc351ae7fa32df0c8ad57278243ae7d011e90d073629dfc92fda8e9f319c6fcf8152600285828d604060002060405193849283378982019081520301902001612e7d8882546131e0565b9055896000527fbc351ae7fa32df0c8ad57278243ae7d011e90d073629dfc92fda8e9f319c6fd081526040600020612eb68782546131e0565b9055896000527fbc351ae7fa32df0c8ad57278243ae7d011e90d073629dfc92fda8e9f319c6fd081526001604060002001612ef28882546131e0565b905560008a815282825260408082206006015473ffffffffffffffffffffffffffffffffffffffff1682527fbc351ae7fa32df0c8ad57278243ae7d011e90d073629dfc92fda8e9f319c6fd16020529020600101612f518982546131e0565b9055896000525273ffffffffffffffffffffffffffffffffffffffff60066040600020015416612f8186886131e0565b916137ba565b7f1d5ece530000000000000000000000000000000000000000000000000000000060005260046000fd5b9181601f840112156101125782359167ffffffffffffffff8311610112576020838186019501011161011257565b6007811015611ca257600452565b60005b8381106130005750506000910152565b8181015183820152602001612ff0565b907fffffffffffffffffffffffffffffffffffffffffffffffffffffffffffffffe0601f60209361304c81518092818752878088019101612fed565b0116010190565b9181601f840112156101125782359167ffffffffffffffff8311610112576020808501948460051b01011161011257565b610180810190811067ffffffffffffffff8211176130a157604052565b7f4e487b7100000000000000000000000000000000000000000000000000000000600052604160045260246000fd5b6060810190811067ffffffffffffffff8211176130a157604052565b90601f7fffffffffffffffffffffffffffffffffffffffffffffffffffffffffffffffe0910116810190811067ffffffffffffffff8211176130a157604052565b67ffffffffffffffff81116130a157601f017fffffffffffffffffffffffffffffffffffffffffffffffffffffffffffffffe01660200190565b9291926131738261312d565b9161318160405193846130ec565b829481845281830111610112578281602093846000960137010152565b818102929181159184041417156131b157565b7f4e487b7100000000000000000000000000000000000000000000000000000000600052601160045260246000fd5b919082018092116131b157565b601f82602094937fffffffffffffffffffffffffffffffffffffffffffffffffffffffffffffffe0938186528686013760008582860101520116010190565b9373ffffffffffffffffffffffffffffffffffffffff6132679360a0979a99989593875216602086015260c0604086015260c08501916131ed565b95606083015260808201520152565b90600182811c921680156132bf575b602083101461329057565b7f4e487b7100000000000000000000000000000000000000000000000000000000600052602260045260246000fd5b91607f1691613285565b600092918154916132d983613276565b808352926001811690811561332f57506001146132f557505050565b60009081526020812093945091925b838310613315575060209250010190565b600181602092949394548385870101520191019190613304565b905060209495507fffffffffffffffffffffffffffffffffffffffffffffffffffffffffffffff0091509291921683830152151560051b010190565b67ffffffffffffffff81116130a15760051b60200190565b919082039182116131b157565b9080601f83011215610112578160206133ab93359101613167565b90565b91908110156133ee5760051b810135907fffffffffffffffffffffffffffffffffffffffffffffffffffffffffffffffa181360301821215610112570190565b7f4e487b7100000000000000000000000000000000000000000000000000000000600052603260045260246000fd5b8051156133ee5760200190565b8051600110156133ee5760400190565b80518210156133ee5760209160051b010190565b604051602080820152600360408201527f79657300000000000000000000000000000000000000000000000000000000006060820152606081526133ab6080826130ec565b604051602080820152600260408201527f6e6f0000000000000000000000000000000000000000000000000000000000006060820152606081526133ab6080826130ec565b9035907fffffffffffffffffffffffffffffffffffffffffffffffffffffffffffffffe181360301821215610112570180359067ffffffffffffffff82116101125760200191813603831361011257565b60209082604051938492833781017fba07f9bdb83529457286bae2254b67a516d5fac42a7c08e76b28b1c094cd2f2681520301902090565b90604060029161359f81511515859060ff7fffffffffffffffffffffffffffffffffffffffffffffffffffffffffffffff0083541691151516179055565b602081015160018501550151910155565b8181106135bb575050565b600081556001016135b0565b9190601f81116135d657505050565b613602926000526020600020906020601f840160051c83019310613604575b601f0160051c01906135b0565b565b90915081906135f5565b6136188154613276565b9081613622575050565b81601f60009311600114613634575055565b8183526020832061365091601f0160051c8101906001016135b0565b8082528160208120915555565b90357fffffffffffffffffffffffffffffffffffffffffffffffffffffffffffffffe18236030181121561011257016020813591019167ffffffffffffffff821161011257813603831361011257565b906040806136ea6136cf6136c1868061365d565b6060875260608701916131ed565b6136dc602087018761365d565b9086830360208801526131ed565b93013591015290565b9080602083519182815201916020808360051b8301019401926000915b83831061371f57505050505090565b909192939460208061375b837fffffffffffffffffffffffffffffffffffffffffffffffffffffffffffffffe086600196030187528951613010565b97019301930191939290613710565b805190825191828103613784576020809201209201201490565b50505050600090565b60ff815416906007821015611ca25781156137a6575090565b600401544210156137b45790565b50600390565b600092919073ffffffffffffffffffffffffffffffffffffffff16806137e557506136029250613dc2565b73ffffffffffffffffffffffffffffffffffffffff821690604051927f70a08231000000000000000000000000000000000000000000000000000000008452306004850152602084602481865afa9384156139cf57869461399b575b50813b15613997576040517f9865a1d300000000000000000000000000000000000000000000000000000000815273ffffffffffffffffffffffffffffffffffffffff919091166004820152336024820152604481018590529085908290606490829084905af1801561398c57613972575b50906020602492604051938480927f70a082310000000000000000000000000000000000000000000000000000000082523060048301525afa8015613967578490613933575b6139039250613383565b0361390b5750565b807fc7e8fc500000000000000000000000000000000000000000000000000000000060049252fd5b506020823d60201161395f575b8161394d602093836130ec565b810103126101125761390391516138f9565b3d9150613940565b6040513d86823e3d90fd5b8461398360249493966020936130ec565b949192506138b3565b6040513d87823e3d90fd5b8580fd5b9093506020813d6020116139c7575b816139b7602093836130ec565b8101031261399757519238613841565b3d91506139aa565b6040513d88823e3d90fd5b9060405180926000908054906139ef82613276565b9160018116908115613a4b5750600114613a12575b505060209281520301902090565b90915060005260206000206000905b828210613a345750508101602038613a04565b805482870152859350602090910190600101613a21565b7fffffffffffffffffffffffffffffffffffffffffffffffffffffffffffffff0016855250508015150282019050602038613a04565b806000527fbc351ae7fa32df0c8ad57278243ae7d011e90d073629dfc92fda8e9f319c6fcc6020526040600020602091604051613abe84826130ec565b60008152613ae36001840191604051906104ab82613adc81876132c9565b03836130ec565b613d98573360009081527fbc351ae7fa32df0c8ad57278243ae7d011e90d073629dfc92fda8e9f319c6fce6020526040902082600052845260016040600020015415613d6e57613b8790613b763373ffffffffffffffffffffffffffffffffffffffff166000527fbc351ae7fa32df0c8ad57278243ae7d011e90d073629dfc92fda8e9f319c6fcd602052604060002090565b8360005285526040600020906139da565b9182549260ff8416613d44576001810154948515613d1a57613d02613cdf6002613cd67f7e2290278bab7591c02e1cee107f6eb5778796e4f991856e11ffc09bf8b818d09960017fffffffffffffffffffffffffffffffffffffffffffffffffffffffffffffff0060809b16178755886000527fbc351ae7fa32df0c8ad57278243ae7d011e90d073629dfc92fda8e9f319c6fcc8652604060002090896000527fbc351ae7fa32df0c8ad57278243ae7d011e90d073629dfc92fda8e9f319c6fcf8752613cd184613c9a6001613c65816040600020970196876139da565b0154948d6000527fbc351ae7fa32df0c8ad57278243ae7d011e90d073629dfc92fda8e9f319c6fcf8b526040600020906139da565b01548b6000527fbc351ae7fa32df0c8ad57278243ae7d011e90d073629dfc92fda8e9f319c6fd08952600160406000200154613383565b61420e565b940154846131e0565b938473ffffffffffffffffffffffffffffffffffffffff60063393015416613fac565b604051938452339084015260408301526060820152a1565b7f907643880000000000000000000000000000000000000000000000000000000060005260046000fd5b7f924260f10000000000000000000000000000000000000000000000000000000060005260046000fd5b7f3110f1d80000000000000000000000000000000000000000000000000000000060005260046000fd5b7fc74a206d0000000000000000000000000000000000000000000000000000000060005260046000fd5b73ffffffffffffffffffffffffffffffffffffffff16604051907f70a08231000000000000000000000000000000000000000000000000000000008252306004830152602082602481845afa918215613f6b57600092613f77575b50906020602492613ebc6040517f23b872dd0000000000000000000000000000000000000000000000000000000084820152613eb681613e8a8930338b850173ffffffffffffffffffffffffffffffffffffffff6040929594938160608401971683521660208201520152565b037fffffffffffffffffffffffffffffffffffffffffffffffffffffffffffffffe081018352826130ec565b826142fd565b604051938480927f70a082310000000000000000000000000000000000000000000000000000000082523060048301525afa8015613f6b57600090613f37575b613f069250613383565b03613f0d57565b7fc7e8fc500000000000000000000000000000000000000000000000000000000060005260046000fd5b506020823d602011613f63575b81613f51602093836130ec565b8101031261011257613f069151613efc565b3d9150613f44565b6040513d6000823e3d90fd5b91506020823d602011613fa4575b81613f92602093836130ec565b81010312610112579051906020613e1d565b3d9150613f85565b73ffffffffffffffffffffffffffffffffffffffff909291921690604051907f70a08231000000000000000000000000000000000000000000000000000000008252306004830152602082602481865afa918215613f6b576000926140ee575b5060249261406e60209273ffffffffffffffffffffffffffffffffffffffff604051917fa9059cbb0000000000000000000000000000000000000000000000000000000086840152168682015286604482015260448152613eb66064826130ec565b604051938480927f70a082310000000000000000000000000000000000000000000000000000000082523060048301525afa908115613f6b576000916140b857613f069250613383565b90506020823d6020116140e6575b816140d3602093836130ec565b8101031261011257613f06915190613efc565b3d91506140c6565b9091506020813d60201161411b575b8161410a602093836130ec565b81010312610112575190602461400c565b3d91506140fd565b3d1561414e573d906141348261312d565b9161414260405193846130ec565b82523d6000602084013e565b606090565b90816020910312610112575180151581036101125790565b9190916000838202917fffffffffffffffffffffffffffffffffffffffffffffffffffffffffffffffff85820991838084109303928084039314614201578261271011156141ef57507fbc01a36e2eb1c432ca57a786c226809d495182a9930be0ded288ce703afb7e919394612710910990828211900360fc1b910360041c170290565b634e487b71905260116020526024601cfd5b5050506127109192500490565b91818302917fffffffffffffffffffffffffffffffffffffffffffffffffffffffffffffffff818509938380861095039480860395146142c057848311156142a75790829109816000038216809204600281600302188082026002030280820260020302808202600203028082026002030280820260020302809102600203029360018380600003040190848311900302920304170290565b82634e487b71600052156003026011186020526024601cfd5b5050809250156142ce570490565b7f4e487b7100000000000000000000000000000000000000000000000000000000600052601260045260246000fd5b906000602091828151910182855af115613f6b576000513d61437f575073ffffffffffffffffffffffffffffffffffffffff81163b155b61433b5750565b73ffffffffffffffffffffffffffffffffffffffff907f5274afe7000000000000000000000000000000000000000000000000000000006000521660045260246000fd5b6001141561433456fea264697066735822122087d873a8077c43f5fdb8abe839e350221c1a41b5216e70b2c5a1eec67557c69464736f6c634300081c0033",
  "linkReferences": {},
  "deployedLinkReferences": {}
}