{
  "_format": "hh-sol-artifact-1",
  "contractName": "TopicRegistry",
  "sourceName": "contracts/modules/TopicRegistry.sol",
  "abi": [
    {
      "inputs": [
        {
          "internalType": "string",
          "name": "_functionName",
          "type": "string"
        }
      ],
      "name": "DelegateCallFailed",
      "type": "error"
    },
    {
      "inputs": [],
      "name": "EmptyBytes",
      "type": "error"
    },
    {
      "inputs": [],
      "name": "EmptyString",
      "type": "error"
    },
    {
      "inputs": [],
      "name": "ExistingTopic",
      "type": "error"
    },
    {
      "inputs": [],
      "name": "InvalidTopic",
      "type": "error"
    },
    {
      "inputs": [],
      "name": "ZeroAddress",
      "type": "error"
    },
    {
      "inputs": [],
      "name": "ZeroNumber",
      "type": "error"
    },
    {
      "anonymous": false,
      "inputs": [
        {
          "indexed": true,
          "internalType": "string",
          "name": "topicId",
          "type": "string"
        },
        {
          "indexed": true,
          "internalType": "address",
          "name": "poolResolver",
          "type": "address"
        },
        {
          "indexed": true,
          "internalType": "address",
          "name": "dataProvider",
          "type": "address"
        },
        {
          "indexed": false,
          "internalType": "enum ITopicRegistry.TopicState",
          "name": "state",
          "type": "uint8"
        }
      ],
      "name": "NewTopic",
      "type": "event"
    },
    {
      "anonymous": false,
      "inputs": [
        {
          "indexed": true,
          "internalType": "bytes32",
          "name": "role",
          "type": "bytes32"
        },
        {
          "indexed": true,
          "internalType": "bytes32",
          "name": "previousAdminRole",
          "type": "bytes32"
        },
        {
          "indexed": true,
          "internalType": "bytes32",
          "name": "newAdminRole",
          "type": "bytes32"
        }
      ],
      "name": "RoleAdminChanged",
      "type": "event"
    },
    {
      "anonymous": false,
      "inputs": [
        {
          "indexed": true,
          "internalType": "bytes32",
          "name": "role",
          "type": "bytes32"
        },
        {
          "indexed": true,
          "internalType": "address",
          "name": "account",
          "type": "address"
        },
        {
          "indexed": true,
          "internalType": "address",
          "name": "sender",
          "type": "address"
        }
      ],
      "name": "RoleGranted",
      "type": "event"
    },
    {
      "anonymous": false,
      "inputs": [
        {
          "indexed": true,
          "internalType": "bytes32",
          "name": "role",
          "type": "bytes32"
        },
        {
          "indexed": true,
          "internalType": "address",
          "name": "account",
          "type": "address"
        },
        {
          "indexed": true,
          "internalType": "address",
          "name": "sender",
          "type": "address"
        }
      ],
      "name": "RoleRevoked",
      "type": "event"
    },
    {
      "anonymous": false,
      "inputs": [
        {
          "indexed": true,
          "internalType": "string",
          "name": "topicId",
          "type": "string"
        },
        {
          "indexed": false,
          "internalType": "enum ITopicRegistry.TopicState",
          "name": "state",
          "type": "uint8"
        }
      ],
      "name": "TopicDisabled",
      "type": "event"
    },
    {
      "anonymous": false,
      "inputs": [
        {
          "indexed": true,
          "internalType": "string",
          "name": "topicId",
          "type": "string"
        },
        {
          "indexed": false,
          "internalType": "enum ITopicRegistry.TopicState",
          "name": "state",
          "type": "uint8"
        }
      ],
      "name": "TopicEnabled",
      "type": "event"
    },
    {
      "inputs": [
        {
          "internalType": "string",
          "name": "_topicId",
          "type": "string"
        },
        {
          "internalType": "address",
          "name": "_poolResolver",
          "type": "address"
        },
        {
          "internalType": "address",
          "name": "_dataProvider",
          "type": "address"
        }
      ],
      "name": "createTopic",
      "outputs": [],
      "stateMutability": "nonpayable",
      "type": "function"
    },
    {
      "inputs": [
        {
          "internalType": "string",
          "name": "_topicId",
          "type": "string"
        }
      ],
      "name": "disableTopic",
      "outputs": [],
      "stateMutability": "nonpayable",
      "type": "function"
    },
    {
      "inputs": [
        {
          "internalType": "string",
          "name": "_topicId",
          "type": "string"
        }
      ],
      "name": "enableTopic",
      "outputs": [],
      "stateMutability": "nonpayable",
      "type": "function"
    },
    {
      "inputs": [
        {
          "internalType": "string",
          "name": "_topicId",
          "type": "string"
        },
        {
          "internalType": "bytes",
          "name": "_params",
          "type": "bytes"
        }
      ],
      "name": "getData",
      "outputs": [
        {
          "internalType": "bytes",
          "name": "",
          "type": "bytes"
        }
      ],
      "stateMutability": "nonpayable",
      "type": "function"
    },
    {
      "inputs": [
        {
          "internalType": "string",
          "name": "_topicId",
          "type": "string"
        }
      ],
      "name": "getTopic",
      "outputs": [
        {
          "components": [
            {
              "internalType": "string",
              "name": "topicId",
              "type": "string"
            },
            {
              "internalType": "contract IPoolResolver",
              "name": "poolResolver",
              "type": "address"
            },
            {
              "internalType": "contract IDataProvider",
              "name": "dataProvider",
              "type": "address"
            },
            {
              "internalType": "enum ITopicRegistry.TopicState",
              "name": "state",
              "type": "uint8"
            }
          ],
          "internalType": "struct ITopicRegistry.Topic",
          "name": "",
          "type": "tuple"
        }
      ],
      "stateMutability": "view",
      "type": "function"
    },
    {
      "inputs": [
        {
          "internalType": "string",
          "name": "_topicId",
          "type": "string"
        },
        {
          "internalType": "bytes",
          "name": "_params",
          "type": "bytes"
        }
      ],
      "name": "hasData",
      "outputs": [
        {
          "internalType": "bool",
          "name": "",
          "type": "bool"
        }
      ],
      "stateMutability": "nonpayable",
      "type": "function"
    },
    {
      "inputs": [
        {
          "internalType": "string",
          "name": "_topicId",
          "type": "string"
        },
        {
          "internalType": "bytes",
          "name": "_params",
          "type": "bytes"
        }
      ],
      "name": "provideData",
      "outputs": [],
      "stateMutability": "nonpayable",
      "type": "function"
    },
    {
      "inputs": [
        {
          "internalType": "string",
          "name": "_topicId",
          "type": "string"
        },
        {
          "internalType": "bytes",
          "name": "_params",
          "type": "bytes"
        }
      ],
      "name": "registerEvent",
      "outputs": [],
      "stateMutability": "nonpayable",
      "type": "function"
    },
    {
      "inputs": [
        {
          "internalType": "string",
          "name": "_topicId",
          "type": "string"
        },
        {
          "internalType": "bytes",
          "name": "_params",
          "type": "bytes"
        }
      ],
      "name": "updateProvision",
      "outputs": [],
      "stateMutability": "nonpayable",
      "type": "function"
    }
  ],
  "bytecode": "0x6080806040523460155761100f908161001b8239f35b600080fdfe6080604052600436101561001257600080fd5b60003560e01c80631473addf14610b72578063474502d8146109445780635721c2991461086657806362fd171f146103c95780636490c03d146102eb5780636b7d4169146101995780638beb2f80146101f3578063ad5b8dc6146101995763b3d7d57a1461007f57600080fd5b346101945760008060026100bb6100f661012273ffffffffffffffffffffffffffffffffffffffff6100b036610ca2565b979296919096610e0f565b0154169360405192839160208301957feca82c1a00000000000000000000000000000000000000000000000000000000875260248401610e47565b037fffffffffffffffffffffffffffffffffffffffffffffffffffffffffffffffe08101835282610d94565b51915af461012e610e8d565b501561013657005b60646040517f9becf85d00000000000000000000000000000000000000000000000000000000815260206004820152601960248201527f546f70696352656769737472792e70726f7669646544617461000000000000006044820152fd5b600080fd5b346101945760207ffffffffffffffffffffffffffffffffffffffffffffffffffffffffffffffffc3601126101945760043567ffffffffffffffff8111610194576101eb6101f1913690600401610c74565b90610f55565b005b346101945760008060026102246100f661025f73ffffffffffffffffffffffffffffffffffffffff6100b036610ca2565b0154169360405192839160208301957f1431b23a00000000000000000000000000000000000000000000000000000000875260248401610e47565b51915af461026b610e8d565b901561028d5761028990604051918291602083526020830190610d35565b0390f35b60646040517f9becf85d00000000000000000000000000000000000000000000000000000000815260206004820152601560248201527f546f70696352656769737472792e6765744461746100000000000000000000006044820152fd5b3461019457600080600261031c6100f661035773ffffffffffffffffffffffffffffffffffffffff6100b036610ca2565b0154169360405192839160208301957f87a7cfd800000000000000000000000000000000000000000000000000000000875260248401610e47565b51915af4610363610e8d565b501561036b57005b60646040517f9becf85d00000000000000000000000000000000000000000000000000000000815260206004820152601d60248201527f546f70696352656769737472792e75706461746550726f766973696f6e0000006044820152fd5b346101945760607ffffffffffffffffffffffffffffffffffffffffffffffffffffffffffffffffc3601126101945760043567ffffffffffffffff811161019457366023820112156101945780600401359061042482610dd5565b916104326040519384610d94565b80835260208301913660248383010111610194578160009260246020930185378401015260243573ffffffffffffffffffffffffffffffffffffffff8116809103610194576044359173ffffffffffffffffffffffffffffffffffffffff83168093036101945783511561083c578115610812578215610812576104be6104b885610f10565b54610ebd565b6107e857604051906104cf82610d78565b8482526020820183815260408301928584526060810191600183526104f388610f10565b915180519067ffffffffffffffff82116107b9576105118454610ebd565b601f8111610771575b50602090601f83116001146106b25773ffffffffffffffffffffffffffffffffffffffff94919383600294879687946000926106a7575b50507fffffffffffffffffffffffffffffffffffffffffffffffffffffffffffffffff8260011b9260031b1c19161783555b5116836001830191167fffffffffffffffffffffffff000000000000000000000000000000000000000082541617905501945116167fffffffffffffffffffffffff00000000000000000000000000000000000000008454161783555194600286101561067857610645926000967fffffffffffffffffffffff00ffffffffffffffffffffffffffffffffffffffff74ff000000000000000000000000000000000000000083549260a01b169116179055604051928392839251928391610d12565b81010390207f83339b6b7d198b91b7fca60f28a81c5f17d8b9f98b84652f0321f86cbab3a398602060405160018152a480f35b7f4e487b7100000000000000000000000000000000000000000000000000000000600052602160045260246000fd5b015190508e80610551565b907fffffffffffffffffffffffffffffffffffffffffffffffffffffffffffffffe083169185600052816000209260005b81811061075957508473ffffffffffffffffffffffffffffffffffffffff979488979394889560029860019510610722575b505050811b018355610583565b01517fffffffffffffffffffffffffffffffffffffffffffffffffffffffffffffffff60f88460031b161c191690558e8080610715565b929360206001819287860151815501950193016106e3565b846000526020600020601f840160051c810191602085106107af575b601f0160051c01905b8181106107a3575061051a565b60008155600101610796565b909150819061078d565b7f4e487b7100000000000000000000000000000000000000000000000000000000600052604160045260246000fd5b7ff73fe37a0000000000000000000000000000000000000000000000000000000060005260046000fd5b7fd92e233d0000000000000000000000000000000000000000000000000000000060005260046000fd5b7fecd7b0d10000000000000000000000000000000000000000000000000000000060005260046000fd5b346101945760008060026108976100f66108d273ffffffffffffffffffffffffffffffffffffffff6100b036610ca2565b0154169360405192839160208301957fc90d080a00000000000000000000000000000000000000000000000000000000875260248401610e47565b51915af46108de610e8d565b50156108e657005b60646040517f9becf85d00000000000000000000000000000000000000000000000000000000815260206004820152601b60248201527f546f70696352656769737472792e72656769737465724576656e7400000000006044820152fd5b346101945760207ffffffffffffffffffffffffffffffffffffffffffffffffffffffffffffffffc3601126101945760043567ffffffffffffffff811161019457610993903690600401610c74565b600060606040516109a381610d78565b81815282602082015282604082015201526109c16104b88284610e0f565b15610b48576109cf91610e0f565b604051906109dc82610d78565b60405181548160006109ed83610ebd565b8083529260018116908115610b0b5750600114610ac7575b610a1192500382610d94565b8252600273ffffffffffffffffffffffffffffffffffffffff6001830154169160208401928352015460ff604084019173ffffffffffffffffffffffffffffffffffffffff8116835260a01c16606084019160028210156106785773ffffffffffffffffffffffffffffffffffffffff91835281610aa26040519660208852516080602089015260a0880190610d35565b9451166040860152511660608401525190600282101561067857829160808301520390f35b5090836000526020600020906000915b818310610aef575050906020610a1192820101610a05565b6020919350806001915483858801015201910190918392610ad7565b60209250610a119491507fffffffffffffffffffffffffffffffffffffffffffffffffffffffffffffff001682840152151560051b820101610a05565b7f69585f990000000000000000000000000000000000000000000000000000000060005260046000fd5b34610194576000806002610ba36100f6610bde73ffffffffffffffffffffffffffffffffffffffff6100b036610ca2565b0154169360405192839160208301957fbc0fd6d700000000000000000000000000000000000000000000000000000000875260248401610e47565b51915af4610bea610e8d565b9015610c1657602081805181010312610194576020015180151580910361019457602090604051908152f35b60646040517f9becf85d00000000000000000000000000000000000000000000000000000000815260206004820152601560248201527f546f70696352656769737472792e6861734461746100000000000000000000006044820152fd5b9181601f840112156101945782359167ffffffffffffffff8311610194576020838186019501011161019457565b60407ffffffffffffffffffffffffffffffffffffffffffffffffffffffffffffffffc8201126101945760043567ffffffffffffffff81116101945781610ceb91600401610c74565b929092916024359067ffffffffffffffff821161019457610d0e91600401610c74565b9091565b60005b838110610d255750506000910152565b8181015183820152602001610d15565b907fffffffffffffffffffffffffffffffffffffffffffffffffffffffffffffffe0601f602093610d7181518092818752878088019101610d12565b0116010190565b6080810190811067ffffffffffffffff8211176107b957604052565b90601f7fffffffffffffffffffffffffffffffffffffffffffffffffffffffffffffffe0910116810190811067ffffffffffffffff8211176107b957604052565b67ffffffffffffffff81116107b957601f017fffffffffffffffffffffffffffffffffffffffffffffffffffffffffffffffe01660200190565b60209082604051938492833781017fba07f9bdb83529457286bae2254b67a516d5fac42a7c08e76b28b1c094cd2f2681520301902090565b90601f836040947fffffffffffffffffffffffffffffffffffffffffffffffffffffffffffffffe093602086528160208701528686013760008582860101520116010190565b3d15610eb8573d90610e9e82610dd5565b91610eac6040519384610d94565b82523d6000602084013e565b606090565b90600182811c92168015610f06575b6020831014610ed757565b7f4e487b7100000000000000000000000000000000000000000000000000000000600052602260045260246000fd5b91607f1691610ecc565b6020610f29918160405193828580945193849201610d12565b81017fba07f9bdb83529457286bae2254b67a516d5fac42a7c08e76b28b1c094cd2f2681520301902090565b610f626104b88383610e0f565b15610b48576002610f738383610e0f565b017fffffffffffffffffffffff00ffffffffffffffffffffffffffffffffffffffff81541690558160405192839283378101600081520390207fb9e0d160e9ebc5f35d701da1a916966043c1876eef2b71f7cc3e9e43796d440f602060405160008152a256fea26469706673582212202bbb63f0b0874a75251caf7fe26bf2bd33adb837302b6f33d2856e00a047f13864736f6c634300081c0033",
  "linkReferences": {},
  "deployedLinkReferences": {}
}