{
  "_format": "hh-sol-artifact-1",
  "contractName": "ChallengePoolManager",
  "sourceName": "contracts/modules/ChallengePoolManager.sol",
  "abi": [
    {
      "inputs": [],
      "name": "EmptyBytes",
      "type": "error"
    },
    {
      "inputs": [],
      "name": "EmptyString",
      "type": "error"
    },
    {
      "inputs": [],
      "name": "ProtocolInvariantCheckFailed",
      "type": "error"
    },
    {
      "inputs": [
        {
          "internalType": "address",
          "name": "token",
          "type": "address"
        }
      ],
      "name": "SafeERC20FailedOperation",
      "type": "error"
    },
    {
      "inputs": [],
      "name": "UintUtils__InsufficientPadding",
      "type": "error"
    },
    {
      "inputs": [],
      "name": "ZeroAddress",
      "type": "error"
    },
    {
      "inputs": [],
      "name": "ZeroNumber",
      "type": "error"
    },
    {
      "anonymous": false,
      "inputs": [
        {
          "indexed": false,
          "internalType": "address",
          "name": "caller",
          "type": "address"
        },
        {
          "indexed": false,
          "internalType": "address",
          "name": "token",
          "type": "address"
        },
        {
          "indexed": false,
          "internalType": "address",
          "name": "to",
          "type": "address"
        },
        {
          "indexed": false,
          "internalType": "uint256",
          "name": "amount",
          "type": "uint256"
        }
      ],
      "name": "FeeWithdrawn",
      "type": "event"
    },
    {
      "anonymous": false,
      "inputs": [
        {
          "indexed": true,
          "internalType": "bytes32",
          "name": "role",
          "type": "bytes32"
        },
        {
          "indexed": true,
          "internalType": "bytes32",
          "name": "previousAdminRole",
          "type": "bytes32"
        },
        {
          "indexed": true,
          "internalType": "bytes32",
          "name": "newAdminRole",
          "type": "bytes32"
        }
      ],
      "name": "RoleAdminChanged",
      "type": "event"
    },
    {
      "anonymous": false,
      "inputs": [
        {
          "indexed": true,
          "internalType": "bytes32",
          "name": "role",
          "type": "bytes32"
        },
        {
          "indexed": true,
          "internalType": "address",
          "name": "account",
          "type": "address"
        },
        {
          "indexed": true,
          "internalType": "address",
          "name": "sender",
          "type": "address"
        }
      ],
      "name": "RoleGranted",
      "type": "event"
    },
    {
      "anonymous": false,
      "inputs": [
        {
          "indexed": true,
          "internalType": "bytes32",
          "name": "role",
          "type": "bytes32"
        },
        {
          "indexed": true,
          "internalType": "address",
          "name": "account",
          "type": "address"
        },
        {
          "indexed": true,
          "internalType": "address",
          "name": "sender",
          "type": "address"
        }
      ],
      "name": "RoleRevoked",
      "type": "event"
    },
    {
      "anonymous": false,
      "inputs": [
        {
          "indexed": false,
          "internalType": "address",
          "name": "caller",
          "type": "address"
        },
        {
          "indexed": false,
          "internalType": "uint256",
          "name": "oldCreatePoolFee",
          "type": "uint256"
        },
        {
          "indexed": false,
          "internalType": "uint256",
          "name": "newCreatePoolFee",
          "type": "uint256"
        }
      ],
      "name": "SetCreatePoolFee",
      "type": "event"
    },
    {
      "anonymous": false,
      "inputs": [
        {
          "indexed": false,
          "internalType": "address",
          "name": "caller",
          "type": "address"
        },
        {
          "indexed": false,
          "internalType": "uint256",
          "name": "oldDisputePeriod",
          "type": "uint256"
        },
        {
          "indexed": false,
          "internalType": "uint256",
          "name": "newDisputePeriod",
          "type": "uint256"
        }
      ],
      "name": "SetDisputePeriod",
      "type": "event"
    },
    {
      "anonymous": false,
      "inputs": [
        {
          "indexed": false,
          "internalType": "address",
          "name": "caller",
          "type": "address"
        },
        {
          "indexed": false,
          "internalType": "uint256",
          "name": "oldDisputeStake",
          "type": "uint256"
        },
        {
          "indexed": false,
          "internalType": "uint256",
          "name": "newDisputeStake",
          "type": "uint256"
        }
      ],
      "name": "SetDisputeStake",
      "type": "event"
    },
    {
      "anonymous": false,
      "inputs": [
        {
          "indexed": false,
          "internalType": "address",
          "name": "caller",
          "type": "address"
        },
        {
          "indexed": false,
          "internalType": "uint256",
          "name": "oldEarlyWithdrawFee",
          "type": "uint256"
        },
        {
          "indexed": false,
          "internalType": "uint256",
          "name": "newEarlyWithdrawFee",
          "type": "uint256"
        }
      ],
      "name": "SetEarlyWithdrawFee",
      "type": "event"
    },
    {
      "anonymous": false,
      "inputs": [
        {
          "indexed": false,
          "internalType": "address",
          "name": "caller",
          "type": "address"
        },
        {
          "indexed": false,
          "internalType": "address",
          "name": "oldFeeAddress",
          "type": "address"
        },
        {
          "indexed": false,
          "internalType": "address",
          "name": "newFeeAddress",
          "type": "address"
        }
      ],
      "name": "SetFeeAddress",
      "type": "event"
    },
    {
      "anonymous": false,
      "inputs": [
        {
          "indexed": false,
          "internalType": "address",
          "name": "caller",
          "type": "address"
        },
        {
          "indexed": false,
          "internalType": "uint256",
          "name": "oldMaxEventsPerPool",
          "type": "uint256"
        },
        {
          "indexed": false,
          "internalType": "uint256",
          "name": "newMaxEventsPerPool",
          "type": "uint256"
        }
      ],
      "name": "SetMaxEventsPerPool",
      "type": "event"
    },
    {
      "anonymous": false,
      "inputs": [
        {
          "indexed": false,
          "internalType": "address",
          "name": "caller",
          "type": "address"
        },
        {
          "indexed": false,
          "internalType": "uint256",
          "name": "oldMaxOptionsPerPool",
          "type": "uint256"
        },
        {
          "indexed": false,
          "internalType": "uint256",
          "name": "newMaxOptionsPerPool",
          "type": "uint256"
        }
      ],
      "name": "SetMaxOptionsPerPool",
      "type": "event"
    },
    {
      "anonymous": false,
      "inputs": [
        {
          "indexed": false,
          "internalType": "address",
          "name": "caller",
          "type": "address"
        },
        {
          "indexed": false,
          "internalType": "uint256",
          "name": "oldMinMaturityPeriod",
          "type": "uint256"
        },
        {
          "indexed": false,
          "internalType": "uint256",
          "name": "newMinMaturityPeriod",
          "type": "uint256"
        }
      ],
      "name": "SetMinMaturityPeriod",
      "type": "event"
    },
    {
      "anonymous": false,
      "inputs": [
        {
          "indexed": false,
          "internalType": "address",
          "name": "caller",
          "type": "address"
        },
        {
          "indexed": false,
          "internalType": "uint256",
          "name": "oldMinStakeAmount",
          "type": "uint256"
        },
        {
          "indexed": false,
          "internalType": "uint256",
          "name": "newMinStakeAmount",
          "type": "uint256"
        }
      ],
      "name": "SetMinStakeAmount",
      "type": "event"
    },
    {
      "anonymous": false,
      "inputs": [
        {
          "indexed": false,
          "internalType": "address",
          "name": "caller",
          "type": "address"
        },
        {
          "indexed": false,
          "internalType": "uint256",
          "name": "oldStakeFee",
          "type": "uint256"
        },
        {
          "indexed": false,
          "internalType": "uint256",
          "name": "newStakeFee",
          "type": "uint256"
        }
      ],
      "name": "SetStakeFee",
      "type": "event"
    },
    {
      "anonymous": false,
      "inputs": [
        {
          "indexed": false,
          "internalType": "address",
          "name": "caller",
          "type": "address"
        },
        {
          "indexed": false,
          "internalType": "address",
          "name": "token",
          "type": "address"
        },
        {
          "indexed": false,
          "internalType": "bool",
          "name": "active",
          "type": "bool"
        }
      ],
      "name": "StakeTokenAdded",
      "type": "event"
    },
    {
      "anonymous": false,
      "inputs": [
        {
          "indexed": false,
          "internalType": "address",
          "name": "caller",
          "type": "address"
        },
        {
          "indexed": false,
          "internalType": "address",
          "name": "token",
          "type": "address"
        },
        {
          "indexed": false,
          "internalType": "bool",
          "name": "active",
          "type": "bool"
        }
      ],
      "name": "StakeTokenRemoved",
      "type": "event"
    },
    {
      "inputs": [
        {
          "internalType": "address",
          "name": "_stakeToken",
          "type": "address"
        }
      ],
      "name": "addStakeToken",
      "outputs": [],
      "stateMutability": "nonpayable",
      "type": "function"
    },
    {
      "inputs": [],
      "name": "challengeId",
      "outputs": [
        {
          "internalType": "uint256",
          "name": "",
          "type": "uint256"
        }
      ],
      "stateMutability": "view",
      "type": "function"
    },
    {
      "inputs": [],
      "name": "createPoolFee",
      "outputs": [
        {
          "internalType": "uint256",
          "name": "",
          "type": "uint256"
        }
      ],
      "stateMutability": "view",
      "type": "function"
    },
    {
      "inputs": [],
      "name": "disputePeriod",
      "outputs": [
        {
          "internalType": "uint256",
          "name": "",
          "type": "uint256"
        }
      ],
      "stateMutability": "view",
      "type": "function"
    },
    {
      "inputs": [],
      "name": "disputeStake",
      "outputs": [
        {
          "internalType": "uint256",
          "name": "",
          "type": "uint256"
        }
      ],
      "stateMutability": "view",
      "type": "function"
    },
    {
      "inputs": [],
      "name": "earlyWithdrawFee",
      "outputs": [
        {
          "internalType": "uint256",
          "name": "",
          "type": "uint256"
        }
      ],
      "stateMutability": "view",
      "type": "function"
    },
    {
      "inputs": [],
      "name": "feeAddress",
      "outputs": [
        {
          "internalType": "address",
          "name": "",
          "type": "address"
        }
      ],
      "stateMutability": "view",
      "type": "function"
    },
    {
      "inputs": [],
      "name": "maxEventsPerPool",
      "outputs": [
        {
          "internalType": "uint256",
          "name": "",
          "type": "uint256"
        }
      ],
      "stateMutability": "view",
      "type": "function"
    },
    {
      "inputs": [],
      "name": "maxOptionsPerPool",
      "outputs": [
        {
          "internalType": "uint256",
          "name": "",
          "type": "uint256"
        }
      ],
      "stateMutability": "view",
      "type": "function"
    },
    {
      "inputs": [],
      "name": "minMaturityPeriod",
      "outputs": [
        {
          "internalType": "uint256",
          "name": "",
          "type": "uint256"
        }
      ],
      "stateMutability": "view",
      "type": "function"
    },
    {
      "inputs": [],
      "name": "minStakeAmount",
      "outputs": [
        {
          "internalType": "uint256",
          "name": "",
          "type": "uint256"
        }
      ],
      "stateMutability": "view",
      "type": "function"
    },
    {
      "inputs": [
        {
          "internalType": "address",
          "name": "_stakeToken",
          "type": "address"
        }
      ],
      "name": "removeStakeToken",
      "outputs": [],
      "stateMutability": "nonpayable",
      "type": "function"
    },
    {
      "inputs": [
        {
          "internalType": "uint256",
          "name": "_createPoolFee",
          "type": "uint256"
        }
      ],
      "name": "setCreatePoolFee",
      "outputs": [],
      "stateMutability": "nonpayable",
      "type": "function"
    },
    {
      "inputs": [
        {
          "internalType": "uint256",
          "name": "_disputePeriod",
          "type": "uint256"
        }
      ],
      "name": "setDisputePeriod",
      "outputs": [],
      "stateMutability": "nonpayable",
      "type": "function"
    },
    {
      "inputs": [
        {
          "internalType": "uint256",
          "name": "_disputeStake",
          "type": "uint256"
        }
      ],
      "name": "setDisputeStake",
      "outputs": [],
      "stateMutability": "nonpayable",
      "type": "function"
    },
    {
      "inputs": [
        {
          "internalType": "uint256",
          "name": "_earlyWithdrawFee",
          "type": "uint256"
        }
      ],
      "name": "setEarlyWithdrawFee",
      "outputs": [],
      "stateMutability": "nonpayable",
      "type": "function"
    },
    {
      "inputs": [
        {
          "internalType": "address",
          "name": "_feeAddress",
          "type": "address"
        }
      ],
      "name": "setFeeAddress",
      "outputs": [],
      "stateMutability": "nonpayable",
      "type": "function"
    },
    {
      "inputs": [
        {
          "internalType": "uint256",
          "name": "_maxEventsPerPool",
          "type": "uint256"
        }
      ],
      "name": "setMaxEventsPerPool",
      "outputs": [],
      "stateMutability": "nonpayable",
      "type": "function"
    },
    {
      "inputs": [
        {
          "internalType": "uint256",
          "name": "_maxOptionsPerPool",
          "type": "uint256"
        }
      ],
      "name": "setMaxOptionsPerPool",
      "outputs": [],
      "stateMutability": "nonpayable",
      "type": "function"
    },
    {
      "inputs": [
        {
          "internalType": "uint256",
          "name": "_minMaturityPeriod",
          "type": "uint256"
        }
      ],
      "name": "setMinMaturityPeriod",
      "outputs": [],
      "stateMutability": "nonpayable",
      "type": "function"
    },
    {
      "inputs": [
        {
          "internalType": "uint256",
          "name": "_minStakeAmount",
          "type": "uint256"
        }
      ],
      "name": "setMinStakeAmount",
      "outputs": [],
      "stateMutability": "nonpayable",
      "type": "function"
    },
    {
      "inputs": [
        {
          "internalType": "uint256",
          "name": "_stakeFee",
          "type": "uint256"
        }
      ],
      "name": "setStakeFee",
      "outputs": [],
      "stateMutability": "nonpayable",
      "type": "function"
    },
    {
      "inputs": [],
      "name": "stakeFee",
      "outputs": [
        {
          "internalType": "uint256",
          "name": "",
          "type": "uint256"
        }
      ],
      "stateMutability": "view",
      "type": "function"
    },
    {
      "inputs": [
        {
          "internalType": "address",
          "name": "_token",
          "type": "address"
        }
      ],
      "name": "stakeToken",
      "outputs": [
        {
          "components": [
            {
              "internalType": "address",
              "name": "token",
              "type": "address"
            },
            {
              "internalType": "uint256",
              "name": "accumulatedFee",
              "type": "uint256"
            },
            {
              "internalType": "bool",
              "name": "active",
              "type": "bool"
            }
          ],
          "internalType": "struct IChallengePoolManager.StakeToken",
          "name": "",
          "type": "tuple"
        }
      ],
      "stateMutability": "view",
      "type": "function"
    },
    {
      "inputs": [
        {
          "internalType": "address",
          "name": "_stakeToken",
          "type": "address"
        }
      ],
      "name": "withdrawFee",
      "outputs": [],
      "stateMutability": "nonpayable",
      "type": "function"
    }
  ],
  "bytecode": "0x608080604052346015576119d6908161001b8239f35b600080fdfe608080604052600436101561001357600080fd5b60003560e01c90816302024b8c1461159657508063166866c71461141d5780631ac3ddeb14610f895780631b938b2314610e7a5780631fecb71a14610c4f578063222c977714610bf4578063300a0a7114610b9957806331c2283814610b3e578063328758ee14610ae35780634127535814610a72578063483e6e3a14610a175780635bf31d4d146109bc57806361d36d08146109145780636c91423c1461086c5780637a18998e146107c45780638705fcd414610663578063a80a788214610608578063a83ba53e14610560578063c22982f4146104b8578063cb84d99714610410578063d94c02a814610368578063e2d7bee4146102c0578063eb4af045146101ed578063ed927884146101925763f18876841461013257600080fd5b3461018d5760007ffffffffffffffffffffffffffffffffffffffffffffffffffffffffffffffffc36011261018d5760207fbc351ae7fa32df0c8ad57278243ae7d011e90d073629dfc92fda8e9f319c6fd954604051908152f35b600080fd5b3461018d5760007ffffffffffffffffffffffffffffffffffffffffffffffffffffffffffffffffc36011261018d5760207fbc351ae7fa32df0c8ad57278243ae7d011e90d073629dfc92fda8e9f319c6fd854604051908152f35b3461018d5760207ffffffffffffffffffffffffffffffffffffffffffffffffffffffffffffffffc36011261018d5760043561022761167a565b8015610296577fbc351ae7fa32df0c8ad57278243ae7d011e90d073629dfc92fda8e9f319c6fd98054908290556040805133815260208101929092528101919091527f539d887eb3ffb1a8d2736c1173c072d91cef621cd06d41f1deef8e9e8ff66af29080606081015b0390a1005b7f99d1d12f0000000000000000000000000000000000000000000000000000000060005260046000fd5b3461018d5760207ffffffffffffffffffffffffffffffffffffffffffffffffffffffffffffffffc36011261018d576004356102fa61167a565b8015610296577fbc351ae7fa32df0c8ad57278243ae7d011e90d073629dfc92fda8e9f319c6fd68054908290556040805133815260208101929092528101919091527f69a376ad7f01ec6d554ea89bfd284263f4e254f7dfee915ceda6ea7fbdfcdcbc908060608101610291565b3461018d5760207ffffffffffffffffffffffffffffffffffffffffffffffffffffffffffffffffc36011261018d576004356103a261167a565b8015610296577fbc351ae7fa32df0c8ad57278243ae7d011e90d073629dfc92fda8e9f319c6fdc8054908290556040805133815260208101929092528101919091527fa94df428985a0efb2b31ab1d964cabb0c88b5f05bdc34e47de69fdda7043a8e7908060608101610291565b3461018d5760207ffffffffffffffffffffffffffffffffffffffffffffffffffffffffffffffffc36011261018d5760043561044a61167a565b8015610296577fbc351ae7fa32df0c8ad57278243ae7d011e90d073629dfc92fda8e9f319c6fd88054908290556040805133815260208101929092528101919091527f555f4eabdd6b2dd84995e25625d1cae0d3236b03fdf206177232f021e83e8c79908060608101610291565b3461018d5760207ffffffffffffffffffffffffffffffffffffffffffffffffffffffffffffffffc36011261018d576004356104f261167a565b8015610296577fbc351ae7fa32df0c8ad57278243ae7d011e90d073629dfc92fda8e9f319c6fd78054908290556040805133815260208101929092528101919091527f7bfe3eb98ed528ed065c326fdcb51196c99fad37ae9ddb28f2b33646e93b7aa6908060608101610291565b3461018d5760207ffffffffffffffffffffffffffffffffffffffffffffffffffffffffffffffffc36011261018d5760043561059a61167a565b8015610296577fbc351ae7fa32df0c8ad57278243ae7d011e90d073629dfc92fda8e9f319c6fde8054908290556040805133815260208101929092528101919091527f4f060858c0bbc3b4f2301910d1e98a74b3c959a1fbde19f51c6c48663ac072c0908060608101610291565b3461018d5760007ffffffffffffffffffffffffffffffffffffffffffffffffffffffffffffffffc36011261018d5760207fbc351ae7fa32df0c8ad57278243ae7d011e90d073629dfc92fda8e9f319c6fd754604051908152f35b3461018d5760207ffffffffffffffffffffffffffffffffffffffffffffffffffffffffffffffffc36011261018d5760043573ffffffffffffffffffffffffffffffffffffffff811680910361018d576106bb61167a565b801561079a5760607f654917c63d2aa0d7b15ba9ed80d2d992fa200b96cb9f6e461114130da3c1b7269173ffffffffffffffffffffffffffffffffffffffff7fbc351ae7fa32df0c8ad57278243ae7d011e90d073629dfc92fda8e9f319c6fdd541690807fffffffffffffffffffffffff00000000000000000000000000000000000000007fbc351ae7fa32df0c8ad57278243ae7d011e90d073629dfc92fda8e9f319c6fdd5416177fbc351ae7fa32df0c8ad57278243ae7d011e90d073629dfc92fda8e9f319c6fdd556040519133835260208301526040820152a1005b7fd92e233d0000000000000000000000000000000000000000000000000000000060005260046000fd5b3461018d5760207ffffffffffffffffffffffffffffffffffffffffffffffffffffffffffffffffc36011261018d576004356107fe61167a565b8015610296577fbc351ae7fa32df0c8ad57278243ae7d011e90d073629dfc92fda8e9f319c6fdb8054908290556040805133815260208101929092528101919091527f8c5cc355d560dcc1d2b9334ac946d2dafe09f6639cf5ea57c20df7b416d10223908060608101610291565b3461018d5760207ffffffffffffffffffffffffffffffffffffffffffffffffffffffffffffffffc36011261018d576004356108a661167a565b8015610296577fbc351ae7fa32df0c8ad57278243ae7d011e90d073629dfc92fda8e9f319c6fda8054908290556040805133815260208101929092528101919091527f2cef20264fded8c037960a12cc2a89fa210a9df5df495a64e153728d69fe9e1c908060608101610291565b3461018d5760207ffffffffffffffffffffffffffffffffffffffffffffffffffffffffffffffffc36011261018d5760043561094e61167a565b8015610296577fbc351ae7fa32df0c8ad57278243ae7d011e90d073629dfc92fda8e9f319c6fdf8054908290556040805133815260208101929092528101919091527f09c959dbae654fb3f185b511ec013a13d41374ef17fc926fd3e92f33e96de787908060608101610291565b3461018d5760007ffffffffffffffffffffffffffffffffffffffffffffffffffffffffffffffffc36011261018d5760207fbc351ae7fa32df0c8ad57278243ae7d011e90d073629dfc92fda8e9f319c6fde54604051908152f35b3461018d5760007ffffffffffffffffffffffffffffffffffffffffffffffffffffffffffffffffc36011261018d5760207fbc351ae7fa32df0c8ad57278243ae7d011e90d073629dfc92fda8e9f319c6fd554604051908152f35b3461018d5760007ffffffffffffffffffffffffffffffffffffffffffffffffffffffffffffffffc36011261018d57602073ffffffffffffffffffffffffffffffffffffffff7fbc351ae7fa32df0c8ad57278243ae7d011e90d073629dfc92fda8e9f319c6fdd5416604051908152f35b3461018d5760007ffffffffffffffffffffffffffffffffffffffffffffffffffffffffffffffffc36011261018d5760207fbc351ae7fa32df0c8ad57278243ae7d011e90d073629dfc92fda8e9f319c6fdc54604051908152f35b3461018d5760007ffffffffffffffffffffffffffffffffffffffffffffffffffffffffffffffffc36011261018d5760207fbc351ae7fa32df0c8ad57278243ae7d011e90d073629dfc92fda8e9f319c6fdb54604051908152f35b3461018d5760007ffffffffffffffffffffffffffffffffffffffffffffffffffffffffffffffffc36011261018d5760207fbc351ae7fa32df0c8ad57278243ae7d011e90d073629dfc92fda8e9f319c6fdf54604051908152f35b3461018d5760007ffffffffffffffffffffffffffffffffffffffffffffffffffffffffffffffffc36011261018d5760207fbc351ae7fa32df0c8ad57278243ae7d011e90d073629dfc92fda8e9f319c6fd654604051908152f35b3461018d5760207ffffffffffffffffffffffffffffffffffffffffffffffffffffffffffffffffc36011261018d5760043573ffffffffffffffffffffffffffffffffffffffff81169081810361018d57610ca861167a565b811561079a5760ff6002610cfb8373ffffffffffffffffffffffffffffffffffffffff166000527fbc351ae7fa32df0c8ad57278243ae7d011e90d073629dfc92fda8e9f319c6fd1602052604060002090565b015416610e1c577fabea194908b124a342dcc7141da8b23ddc9034806d5b4ea5c9ecc87a973c48cf916060916002604051610d35816115ee565b838152602081016000815273ffffffffffffffffffffffffffffffffffffffff610da660408401956001875273ffffffffffffffffffffffffffffffffffffffff166000527fbc351ae7fa32df0c8ad57278243ae7d011e90d073629dfc92fda8e9f319c6fd1602052604060002090565b9251167fffffffffffffffffffffffff0000000000000000000000000000000000000000835416178255516001820155019051151560ff7fffffffffffffffffffffffffffffffffffffffffffffffffffffffffffffff00835416911617905560405190338252602082015260016040820152a1005b60646040517f08c379a000000000000000000000000000000000000000000000000000000000815260206004820152601560248201527f7374616b6520746f6b656e2069732061637469766500000000000000000000006044820152fd5b3461018d5760207ffffffffffffffffffffffffffffffffffffffffffffffffffffffffffffffffc36011261018d5760043573ffffffffffffffffffffffffffffffffffffffff8116810361018d57610f2e606091600060408051610ede816115ee565b828152826020820152015273ffffffffffffffffffffffffffffffffffffffff166000527fbc351ae7fa32df0c8ad57278243ae7d011e90d073629dfc92fda8e9f319c6fd1602052604060002090565b604051610f3a816115ee565b73ffffffffffffffffffffffffffffffffffffffff82541691828252604060ff600260018401549360208601948552015416920191151582526040519283525160208301525115156040820152f35b3461018d5760207ffffffffffffffffffffffffffffffffffffffffffffffffffffffffffffffffc36011261018d5760043573ffffffffffffffffffffffffffffffffffffffff81169081810361018d573360009081527f56672a897fec8f593dbda72d8f96ed3062a0fc2846fe0fef1ce1d2d41603db906020526040902054156113055761105960019173ffffffffffffffffffffffffffffffffffffffff166000527fbc351ae7fa32df0c8ad57278243ae7d011e90d073629dfc92fda8e9f319c6fd1602052604060002090565b0180549081156112a757600090556040517f70a08231000000000000000000000000000000000000000000000000000000008152306004820152602081602481865afa90811561122f57600091611272575b5060206000604051828101907fa9059cbb000000000000000000000000000000000000000000000000000000008252336024820152856044820152604481526110f5606482611639565b519082875af11561122f576000513d6112695750823b155b61123b576040517f70a08231000000000000000000000000000000000000000000000000000000008152306004820152602081602481875afa90811561122f576000916111fd575b5081039081116111ce5781036111a4577f35774fb163e9ed3ec7fc7b98a96184a58a3bf662a2e698e1601b239c4388d15b916080916040519133835260208301523360408301526060820152a1005b7fc7e8fc500000000000000000000000000000000000000000000000000000000060005260046000fd5b7f4e487b7100000000000000000000000000000000000000000000000000000000600052601160045260246000fd5b90506020813d602011611227575b8161121860209383611639565b8101031261018d575184611155565b3d915061120b565b6040513d6000823e3d90fd5b827f5274afe70000000000000000000000000000000000000000000000000000000060005260045260246000fd5b6001141561110d565b906020823d60201161129f575b8161128c60209383611639565b8101031261129c575051836110ab565b80fd5b3d915061127f565b60646040517f08c379a000000000000000000000000000000000000000000000000000000000815260206004820152600f60248201527f6e6f2066656520746f20657874726100000000000000000000000000000000006044820152fd5b611414604460377fffffffffffffffffffffffffffffffffffffffffffffffffffffffffffffffe0601f611338336117ae565b6113d2601161134760006118bc565b60405196879160208301957f416363657373436f6e74726f6c3a206163636f756e742000000000000000000087526113888151809260208688019101611711565b83017f206973206d697373696e6720726f6c6520000000000000000000000000000000838201526113c3825180936020604885019101611711565b01010301848101865285611639565b6040519586947f08c379a00000000000000000000000000000000000000000000000000000000086526020600487015251809281602488015287870190611711565b01168101030190fd5b3461018d5760207ffffffffffffffffffffffffffffffffffffffffffffffffffffffffffffffffc36011261018d5760043573ffffffffffffffffffffffffffffffffffffffff81169081810361018d5761147661167a565b811561079a576114c760029173ffffffffffffffffffffffffffffffffffffffff166000527fbc351ae7fa32df0c8ad57278243ae7d011e90d073629dfc92fda8e9f319c6fd1602052604060002090565b0190815490600160ff8316151503611538577f2d587db0eb52019b424daba3498c75ccedabcca3d0abde74eade81db92ff868b927fffffffffffffffffffffffffffffffffffffffffffffffffffffffffffffff0060609316905560405190338252602082015260006040820152a1005b60646040517f08c379a000000000000000000000000000000000000000000000000000000000815260206004820152601960248201527f7374616b6520746f6b656e206973206e6f7420616374697665000000000000006044820152fd5b3461018d5760007ffffffffffffffffffffffffffffffffffffffffffffffffffffffffffffffffc36011261018d576020907fbc351ae7fa32df0c8ad57278243ae7d011e90d073629dfc92fda8e9f319c6fda548152f35b6060810190811067ffffffffffffffff82111761160a57604052565b7f4e487b7100000000000000000000000000000000000000000000000000000000600052604160045260246000fd5b90601f7fffffffffffffffffffffffffffffffffffffffffffffffffffffffffffffffe0910116810190811067ffffffffffffffff82111761160a57604052565b3360009081527ffcd7b55f15e2af29c253b5826e1f276923ba99635f76f0021cbac585571660c86020526040902054156116b057565b611414604460377fffffffffffffffffffffffffffffffffffffffffffffffffffffffffffffffe0601f6116e3336117ae565b6113d260116113477f143759e3172306ff31f387ad631b8acfd4307a8508f07ae6e594580439d23ad76118bc565b60005b8381106117245750506000910152565b8181015183820152602001611714565b67ffffffffffffffff811161160a57601f017fffffffffffffffffffffffffffffffffffffffffffffffffffffffffffffffe01660200190565b90815181101561177f570160200190565b7f4e487b7100000000000000000000000000000000000000000000000000000000600052603260045260246000fd5b602a906117ba82611734565b916117c86040519384611639565b8083526117d481611734565b7fffffffffffffffffffffffffffffffffffffffffffffffffffffffffffffffe060208501910136823783511561177f576030905382516001101561177f57607860218401535b60028111611855575061182b5790565b7fab409fe20000000000000000000000000000000000000000000000000000000060005260046000fd5b7fffffffffffffffffffffffffffffffffffffffffffffffffffffffffffffffff0190600f8116601081101561177f577f3031323334353637383961626364656600000000000000000000000000000000901a6118b2838561176e565b5360041c9061181b565b6042906118c882611734565b916118d66040519384611639565b8083526118e281611734565b7fffffffffffffffffffffffffffffffffffffffffffffffffffffffffffffffe060208501910136823783511561177f576030905382516001101561177f57607860218401535b60028111611939575061182b5790565b7fffffffffffffffffffffffffffffffffffffffffffffffffffffffffffffffff0190600f8116601081101561177f577f3031323334353637383961626364656600000000000000000000000000000000901a611996838561176e565b5360041c9061192956fea2646970667358221220a47fac5f62af90490e437a0a36b2ffffabec73a61edc06b7ff4ab7dba44a6e8364736f6c634300081c0033",
  "linkReferences": {},
  "deployedLinkReferences": {}
}