{
  "_format": "hh-sol-artifact-1",
  "contractName": "ChallengePoolView",
  "sourceName": "contracts/modules/ChallengePoolView.sol",
  "abi": [
    {
      "inputs": [
        {
          "internalType": "uint256",
          "name": "_challengeId",
          "type": "uint256"
        }
      ],
      "name": "challenges",
      "outputs": [
        {
          "components": [
            {
              "internalType": "enum IChallengePool.ChallengeState",
              "name": "state",
              "type": "uint8"
            },
            {
              "internalType": "bool",
              "name": "multi",
              "type": "bool"
            },
            {
              "internalType": "bytes",
              "name": "outcome",
              "type": "bytes"
            },
            {
              "internalType": "uint256",
              "name": "totalStakes",
              "type": "uint256"
            },
            {
              "internalType": "uint256",
              "name": "createdAt",
              "type": "uint256"
            },
            {
              "internalType": "uint256",
              "name": "maturity",
              "type": "uint256"
            },
            {
              "internalType": "uint256",
              "name": "basePrice",
              "type": "uint256"
            },
            {
              "internalType": "address",
              "name": "stakeToken",
              "type": "address"
            },
            {
              "components": [
                {
                  "internalType": "bytes",
                  "name": "params",
                  "type": "bytes"
                },
                {
                  "internalType": "string",
                  "name": "topicId",
                  "type": "string"
                },
                {
                  "internalType": "uint256",
                  "name": "maturity",
                  "type": "uint256"
                }
              ],
              "internalType": "struct IChallengePool.ChallengeEvent[]",
              "name": "events",
              "type": "tuple[]"
            },
            {
              "internalType": "bytes[]",
              "name": "options",
              "type": "bytes[]"
            },
            {
              "internalType": "bool",
              "name": "disputed",
              "type": "bool"
            },
            {
              "internalType": "uint256",
              "name": "lastOutcomeSet",
              "type": "uint256"
            }
          ],
          "internalType": "struct IChallengePool.Challenge",
          "name": "",
          "type": "tuple"
        }
      ],
      "stateMutability": "view",
      "type": "function"
    },
    {
      "inputs": [
        {
          "internalType": "uint256",
          "name": "_challengeId",
          "type": "uint256"
        },
        {
          "internalType": "bytes",
          "name": "_option",
          "type": "bytes"
        }
      ],
      "name": "optionDisputes",
      "outputs": [
        {
          "internalType": "uint256",
          "name": "",
          "type": "uint256"
        }
      ],
      "stateMutability": "view",
      "type": "function"
    },
    {
      "inputs": [
        {
          "internalType": "uint256",
          "name": "_challengeId",
          "type": "uint256"
        },
        {
          "internalType": "bytes",
          "name": "_option",
          "type": "bytes"
        }
      ],
      "name": "optionSupply",
      "outputs": [
        {
          "components": [
            {
              "internalType": "bool",
              "name": "exists",
              "type": "bool"
            },
            {
              "internalType": "uint256",
              "name": "stakes",
              "type": "uint256"
            },
            {
              "internalType": "uint256",
              "name": "tokens",
              "type": "uint256"
            }
          ],
          "internalType": "struct IChallengePool.OptionSupply",
          "name": "",
          "type": "tuple"
        }
      ],
      "stateMutability": "view",
      "type": "function"
    },
    {
      "inputs": [
        {
          "internalType": "uint256",
          "name": "_challengeId",
          "type": "uint256"
        },
        {
          "internalType": "address",
          "name": "_player",
          "type": "address"
        }
      ],
      "name": "playerDisputes",
      "outputs": [
        {
          "components": [
            {
              "internalType": "bytes",
              "name": "dispute",
              "type": "bytes"
            },
            {
              "internalType": "uint256",
              "name": "stake",
              "type": "uint256"
            },
            {
              "internalType": "bool",
              "name": "released",
              "type": "bool"
            }
          ],
          "internalType": "struct IChallengePool.Dispute",
          "name": "",
          "type": "tuple"
        }
      ],
      "stateMutability": "view",
      "type": "function"
    },
    {
      "inputs": [
        {
          "internalType": "address",
          "name": "_player",
          "type": "address"
        },
        {
          "internalType": "uint256",
          "name": "_challengeId",
          "type": "uint256"
        },
        {
          "internalType": "bytes",
          "name": "_option",
          "type": "bytes"
        }
      ],
      "name": "playerOptionSupply",
      "outputs": [
        {
          "components": [
            {
              "internalType": "bool",
              "name": "withdrawn",
              "type": "bool"
            },
            {
              "internalType": "uint256",
              "name": "stakes",
              "type": "uint256"
            },
            {
              "internalType": "uint256",
              "name": "tokens",
              "type": "uint256"
            }
          ],
          "internalType": "struct IChallengePool.PlayerSupply",
          "name": "",
          "type": "tuple"
        }
      ],
      "stateMutability": "view",
      "type": "function"
    },
    {
      "inputs": [
        {
          "internalType": "uint256",
          "name": "_challengeId",
          "type": "uint256"
        },
        {
          "internalType": "address",
          "name": "_player",
          "type": "address"
        }
      ],
      "name": "playerSupply",
      "outputs": [
        {
          "components": [
            {
              "internalType": "bool",
              "name": "withdrawn",
              "type": "bool"
            },
            {
              "internalType": "uint256",
              "name": "stakes",
              "type": "uint256"
            },
            {
              "internalType": "uint256",
              "name": "tokens",
              "type": "uint256"
            }
          ],
          "internalType": "struct IChallengePool.PlayerSupply",
          "name": "",
          "type": "tuple"
        }
      ],
      "stateMutability": "view",
      "type": "function"
    },
    {
      "inputs": [
        {
          "internalType": "uint256",
          "name": "_challengeId",
          "type": "uint256"
        }
      ],
      "name": "poolDisputes",
      "outputs": [
        {
          "internalType": "uint256",
          "name": "",
          "type": "uint256"
        }
      ],
      "stateMutability": "view",
      "type": "function"
    },
    {
      "inputs": [
        {
          "internalType": "uint256",
          "name": "_challengeId",
          "type": "uint256"
        }
      ],
      "name": "poolSupply",
      "outputs": [
        {
          "components": [
            {
              "internalType": "uint256",
              "name": "stakes",
              "type": "uint256"
            },
            {
              "internalType": "uint256",
              "name": "tokens",
              "type": "uint256"
            }
          ],
          "internalType": "struct IChallengePool.Supply",
          "name": "",
          "type": "tuple"
        }
      ],
      "stateMutability": "view",
      "type": "function"
    }
  ],
  "bytecode": "0x60808060405234601557610cb4908161001b8239f35b600080fdfe608080604052600436101561001357600080fd5b60003560e01c908163038590e814610907575080632fa05b291461086a5780634c267e27146107d05780638f1d377614610343578063957e69d9146102e15780639b9126aa14610288578063ba038f32146101725763edbabebb1461007757600080fd5b3461016d5760607ffffffffffffffffffffffffffffffffffffffffffffffffffffffffffffffffc36011261016d5760043573ffffffffffffffffffffffffffffffffffffffff811680910361016d5760443567ffffffffffffffff811161016d5760609160206100ef6101489336906004016109ee565b926100f8610b33565b506000527fbc351ae7fa32df0c8ad57278243ae7d011e90d073629dfc92fda8e9f319c6fcd8252604060002060243560005282526040600020836040519485938437820190815203019020610b52565b61016b604051809260408091805115158452602081015160208501520151910152565bf35b600080fd5b3461016d5760407ffffffffffffffffffffffffffffffffffffffffffffffffffffffffffffffffc36011261016d5761027560406101ae61096c565b60008280516101bc81610ad6565b6060815282602082015201526004356000527fbc351ae7fa32df0c8ad57278243ae7d011e90d073629dfc92fda8e9f319c6fd26020528160002073ffffffffffffffffffffffffffffffffffffffff600092168252602052206040519061022282610ad6565b60405161023a816102338185610b7f565b0382610af2565b825260ff600260018301549260208501938452015416604083019015158152604051938493602085525160606020860152608085019061098f565b9151604084015251151560608301520390f35b3461016d5760208061029936610a1c565b92916000527fbc351ae7fa32df0c8ad57278243ae7d011e90d073629dfc92fda8e9f319c6fd38252604060002083604051948593843782019081520301902054604051908152f35b3461016d57606061014860206102f636610a1c565b9291610300610b33565b506000527fbc351ae7fa32df0c8ad57278243ae7d011e90d073629dfc92fda8e9f319c6fcf82526040600020836040519485938437820190815203019020610b52565b3461016d5760207ffffffffffffffffffffffffffffffffffffffffffffffffffffffffffffffffc36011261016d57600061016060405161038381610ab9565b828152826020820152606060408201528260608201528260808201528260a08201528260c08201528260e0820152606061010082015260606101208201528261014082015201526004356000527fbc351ae7fa32df0c8ad57278243ae7d011e90d073629dfc92fda8e9f319c6fcc602052604060002060405161040581610ab9565b81549160ff8316600781101561072757825260ff602083019360081c161515835260405161043a816102338160018601610b7f565b60408301908152600282015493606084019485526003830154906080850191825260048401549060a08601918252600585015460c0870190815273ffffffffffffffffffffffffffffffffffffffff6006870154169060e08801918252600787019384546104a781610c66565b956104b56040519788610af2565b818752602087019060005260206000206000915b83831061077b57505050506101008901948552600888019586546104ec81610c66565b976104fa604051998a610af2565b818952602089019060005260206000206000915b83831061075657505050506101208a01968752600a60ff60098b015416996101408c019a15158b520154976101608b019889526040519a60208c52519060078210156107275773ffffffffffffffffffffffffffffffffffffffff9661058f9260208e015251151560408d01525161018060608d01526101a08c019061098f565b9a5160808b01525160a08a01525160c08901525160e0880152511661010086015251947fffffffffffffffffffffffffffffffffffffffffffffffffffffffffffffffe085820301610120860152855180825260208201916020808360051b8301019801926000915b8383106106b457505050505051917fffffffffffffffffffffffffffffffffffffffffffffffffffffffffffffffe084860301610140850152825180865260208601906020808260051b8901019501916000905b82821061066b5784511515610160890152855161018089015287870388f35b909192956020806106a6837fffffffffffffffffffffffffffffffffffffffffffffffffffffffffffffffe08d600196030186528a5161098f565b98019201920190929161064c565b9091929398602080827fffffffffffffffffffffffffffffffffffffffffffffffffffffffffffffffe085600195030186528c5190604080610712610702855160608652606086019061098f565b868601518582038887015261098f565b9301519101529b0193019301919392906105f8565b7f4e487b7100000000000000000000000000000000000000000000000000000000600052602160045260246000fd5b60016020819260405161076d816102338189610b7f565b81520192019201919061050e565b6003602060019260405161078e81610ad6565b60405161079f81610233818a610b7f565b81526040516107b48161023381898b01610b7f565b83820152600286015460408201528152019201920191906104c9565b3461016d5760407ffffffffffffffffffffffffffffffffffffffffffffffffffffffffffffffffc36011261016d5773ffffffffffffffffffffffffffffffffffffffff61081c61096c565b610824610b33565b50166000527fbc351ae7fa32df0c8ad57278243ae7d011e90d073629dfc92fda8e9f319c6fce602052604060002060043560005260205260606101486040600020610b52565b3461016d5760207ffffffffffffffffffffffffffffffffffffffffffffffffffffffffffffffffc36011261016d57600060206040516108a981610a6e565b82815201526004356000527fbc351ae7fa32df0c8ad57278243ae7d011e90d073629dfc92fda8e9f319c6fd060205260408060002081516108e981610a6e565b60206001835493848452015491019081528251918252516020820152f35b3461016d5760207ffffffffffffffffffffffffffffffffffffffffffffffffffffffffffffffffc36011261016d576020906004356000527fbc351ae7fa32df0c8ad57278243ae7d011e90d073629dfc92fda8e9f319c6fd482526040600020548152f35b6024359073ffffffffffffffffffffffffffffffffffffffff8216820361016d57565b919082519283825260005b8481106109d95750507fffffffffffffffffffffffffffffffffffffffffffffffffffffffffffffffe0601f8460006020809697860101520116010190565b8060208092840101518282860101520161099a565b9181601f8401121561016d5782359167ffffffffffffffff831161016d576020838186019501011161016d57565b9060407ffffffffffffffffffffffffffffffffffffffffffffffffffffffffffffffffc83011261016d57600435916024359067ffffffffffffffff821161016d57610a6a916004016109ee565b9091565b6040810190811067ffffffffffffffff821117610a8a57604052565b7f4e487b7100000000000000000000000000000000000000000000000000000000600052604160045260246000fd5b610180810190811067ffffffffffffffff821117610a8a57604052565b6060810190811067ffffffffffffffff821117610a8a57604052565b90601f7fffffffffffffffffffffffffffffffffffffffffffffffffffffffffffffffe0910116810190811067ffffffffffffffff821117610a8a57604052565b60405190610b4082610ad6565b60006040838281528260208201520152565b90604051610b5f81610ad6565b60406002829460ff81541615158452600181015460208501520154910152565b600092918154918260011c92600181168015610c5c575b602085108114610c2d57848452908115610bf15750600114610bb757505050565b60009081526020812093945091925b838310610bd7575060209250010190565b600181602092949394548385870101520191019190610bc6565b905060209495507fffffffffffffffffffffffffffffffffffffffffffffffffffffffffffffff0091509291921683830152151560051b010190565b7f4e487b7100000000000000000000000000000000000000000000000000000000600052602260045260246000fd5b93607f1693610b96565b67ffffffffffffffff8111610a8a5760051b6020019056fea2646970667358221220d91ef59be100736879faa3d82896968cc6269301edb29fd0fcab6f587de4d23164736f6c634300081c0033",
  "linkReferences": {},
  "deployedLinkReferences": {}
}