{
  "_format": "hh-sol-artifact-1",
  "contractName": "ChallengePoolDispute",
  "sourceName": "contracts/modules/ChallengePoolDispute.sol",
  "abi": [
    {
      "inputs": [
        {
          "internalType": "enum IChallengePool.ChallengeState",
          "name": "_state",
          "type": "uint8"
        }
      ],
      "name": "ActionNotAllowedForState",
      "type": "error"
    },
    {
      "inputs": [],
      "name": "BelowMinPrie",
      "type": "error"
    },
    {
      "inputs": [],
      "name": "DeadlineExceeded",
      "type": "error"
    },
    {
      "inputs": [
        {
          "internalType": "string",
          "name": "_functionName",
          "type": "string"
        }
      ],
      "name": "DelegateCallFailed",
      "type": "error"
    },
    {
      "inputs": [],
      "name": "DisputePeriodElapsed",
      "type": "error"
    },
    {
      "inputs": [],
      "name": "EmptyBytes",
      "type": "error"
    },
    {
      "inputs": [],
      "name": "EmptyString",
      "type": "error"
    },
    {
      "inputs": [
        {
          "internalType": "uint256",
          "name": "_requested",
          "type": "uint256"
        },
        {
          "internalType": "uint256",
          "name": "_available",
          "type": "uint256"
        }
      ],
      "name": "InsufficientStakes",
      "type": "error"
    },
    {
      "inputs": [],
      "name": "InvalidChallenge",
      "type": "error"
    },
    {
      "inputs": [],
      "name": "InvalidEventLength",
      "type": "error"
    },
    {
      "inputs": [],
      "name": "InvalidEventMaturity",
      "type": "error"
    },
    {
      "inputs": [],
      "name": "InvalidEventParam",
      "type": "error"
    },
    {
      "inputs": [],
      "name": "InvalidEventTopic",
      "type": "error"
    },
    {
      "inputs": [],
      "name": "InvalidOptionsLength",
      "type": "error"
    },
    {
      "inputs": [],
      "name": "InvalidOutcome",
      "type": "error"
    },
    {
      "inputs": [],
      "name": "InvalidPoolOption",
      "type": "error"
    },
    {
      "inputs": [],
      "name": "InvalidPrediction",
      "type": "error"
    },
    {
      "inputs": [],
      "name": "MaxPriceExceeded",
      "type": "error"
    },
    {
      "inputs": [],
      "name": "PlayerAlreadyDisputed",
      "type": "error"
    },
    {
      "inputs": [],
      "name": "PlayerAlreadyReleased",
      "type": "error"
    },
    {
      "inputs": [],
      "name": "PlayerAlreadyWithdrawn",
      "type": "error"
    },
    {
      "inputs": [],
      "name": "PlayerDidNotDispute",
      "type": "error"
    },
    {
      "inputs": [],
      "name": "PlayerDidNotWinPool",
      "type": "error"
    },
    {
      "inputs": [],
      "name": "PlayerNotInPool",
      "type": "error"
    },
    {
      "inputs": [],
      "name": "ProtocolInvariantCheckFailed",
      "type": "error"
    },
    {
      "inputs": [
        {
          "internalType": "address",
          "name": "token",
          "type": "address"
        }
      ],
      "name": "SafeERC20FailedOperation",
      "type": "error"
    },
    {
      "inputs": [],
      "name": "StakeLowerThanMinimum",
      "type": "error"
    },
    {
      "inputs": [
        {
          "internalType": "address",
          "name": "_token",
          "type": "address"
        }
      ],
      "name": "UnsupportedToken",
      "type": "error"
    },
    {
      "inputs": [],
      "name": "ZeroAddress",
      "type": "error"
    },
    {
      "inputs": [],
      "name": "ZeroNumber",
      "type": "error"
    },
    {
      "anonymous": false,
      "inputs": [
        {
          "indexed": true,
          "internalType": "uint256",
          "name": "challengeId",
          "type": "uint256"
        },
        {
          "indexed": true,
          "internalType": "address",
          "name": "canceller",
          "type": "address"
        },
        {
          "indexed": false,
          "internalType": "enum IChallengePool.ChallengeState",
          "name": "state",
          "type": "uint8"
        }
      ],
      "name": "CancelChallenge",
      "type": "event"
    },
    {
      "anonymous": false,
      "inputs": [
        {
          "indexed": true,
          "internalType": "uint256",
          "name": "challengeId",
          "type": "uint256"
        },
        {
          "indexed": true,
          "internalType": "address",
          "name": "closer",
          "type": "address"
        },
        {
          "indexed": false,
          "internalType": "enum IChallengePool.ChallengeState",
          "name": "state",
          "type": "uint8"
        },
        {
          "indexed": false,
          "internalType": "bytes",
          "name": "result",
          "type": "bytes"
        }
      ],
      "name": "CloseChallenge",
      "type": "event"
    },
    {
      "anonymous": false,
      "inputs": [
        {
          "indexed": true,
          "internalType": "uint256",
          "name": "challengeId",
          "type": "uint256"
        },
        {
          "indexed": true,
          "internalType": "address",
          "name": "disputor",
          "type": "address"
        },
        {
          "indexed": false,
          "internalType": "enum IChallengePool.ChallengeState",
          "name": "state",
          "type": "uint8"
        },
        {
          "indexed": false,
          "internalType": "bytes",
          "name": "result",
          "type": "bytes"
        },
        {
          "indexed": false,
          "internalType": "uint256",
          "name": "amount",
          "type": "uint256"
        }
      ],
      "name": "DisputeOutcome",
      "type": "event"
    },
    {
      "anonymous": false,
      "inputs": [
        {
          "indexed": true,
          "internalType": "uint256",
          "name": "challengeId",
          "type": "uint256"
        },
        {
          "indexed": true,
          "internalType": "address",
          "name": "disputor",
          "type": "address"
        },
        {
          "indexed": false,
          "internalType": "enum IChallengePool.ChallengeState",
          "name": "state",
          "type": "uint8"
        },
        {
          "indexed": false,
          "internalType": "bytes",
          "name": "result",
          "type": "bytes"
        },
        {
          "indexed": false,
          "internalType": "uint256",
          "name": "amount",
          "type": "uint256"
        }
      ],
      "name": "DisputeReleased",
      "type": "event"
    },
    {
      "anonymous": false,
      "inputs": [
        {
          "indexed": true,
          "internalType": "uint256",
          "name": "challengeId",
          "type": "uint256"
        },
        {
          "indexed": true,
          "internalType": "address",
          "name": "evaluator",
          "type": "address"
        },
        {
          "indexed": false,
          "internalType": "enum IChallengePool.ChallengeState",
          "name": "state",
          "type": "uint8"
        },
        {
          "indexed": false,
          "internalType": "bytes",
          "name": "result",
          "type": "bytes"
        }
      ],
      "name": "EvaluateChallenge",
      "type": "event"
    },
    {
      "anonymous": false,
      "inputs": [
        {
          "indexed": true,
          "internalType": "uint256",
          "name": "challengeId",
          "type": "uint256"
        },
        {
          "indexed": true,
          "internalType": "address",
          "name": "creator",
          "type": "address"
        },
        {
          "indexed": false,
          "internalType": "uint256",
          "name": "createdAt",
          "type": "uint256"
        },
        {
          "indexed": false,
          "internalType": "uint256",
          "name": "maturity",
          "type": "uint256"
        },
        {
          "indexed": false,
          "internalType": "enum IChallengePool.ChallengeState",
          "name": "state",
          "type": "uint8"
        },
        {
          "indexed": false,
          "internalType": "bytes",
          "name": "result",
          "type": "bytes"
        },
        {
          "indexed": false,
          "internalType": "uint256",
          "name": "basePrice",
          "type": "uint256"
        },
        {
          "indexed": false,
          "internalType": "uint256",
          "name": "fee",
          "type": "uint256"
        },
        {
          "indexed": false,
          "internalType": "uint256",
          "name": "totalStakes",
          "type": "uint256"
        },
        {
          "indexed": false,
          "internalType": "bytes",
          "name": "prediction",
          "type": "bytes"
        },
        {
          "components": [
            {
              "internalType": "bytes",
              "name": "params",
              "type": "bytes"
            },
            {
              "internalType": "string",
              "name": "topicId",
              "type": "string"
            },
            {
              "internalType": "uint256",
              "name": "maturity",
              "type": "uint256"
            }
          ],
          "indexed": false,
          "internalType": "struct IChallengePool.ChallengeEvent[]",
          "name": "events",
          "type": "tuple[]"
        },
        {
          "indexed": false,
          "internalType": "bytes[]",
          "name": "options",
          "type": "bytes[]"
        },
        {
          "indexed": false,
          "internalType": "address",
          "name": "stakeToken",
          "type": "address"
        },
        {
          "indexed": false,
          "internalType": "address",
          "name": "paymaster",
          "type": "address"
        }
      ],
      "name": "NewChallenge",
      "type": "event"
    },
    {
      "anonymous": false,
      "inputs": [
        {
          "indexed": true,
          "internalType": "bytes32",
          "name": "role",
          "type": "bytes32"
        },
        {
          "indexed": true,
          "internalType": "bytes32",
          "name": "previousAdminRole",
          "type": "bytes32"
        },
        {
          "indexed": true,
          "internalType": "bytes32",
          "name": "newAdminRole",
          "type": "bytes32"
        }
      ],
      "name": "RoleAdminChanged",
      "type": "event"
    },
    {
      "anonymous": false,
      "inputs": [
        {
          "indexed": true,
          "internalType": "bytes32",
          "name": "role",
          "type": "bytes32"
        },
        {
          "indexed": true,
          "internalType": "address",
          "name": "account",
          "type": "address"
        },
        {
          "indexed": true,
          "internalType": "address",
          "name": "sender",
          "type": "address"
        }
      ],
      "name": "RoleGranted",
      "type": "event"
    },
    {
      "anonymous": false,
      "inputs": [
        {
          "indexed": true,
          "internalType": "bytes32",
          "name": "role",
          "type": "bytes32"
        },
        {
          "indexed": true,
          "internalType": "address",
          "name": "account",
          "type": "address"
        },
        {
          "indexed": true,
          "internalType": "address",
          "name": "sender",
          "type": "address"
        }
      ],
      "name": "RoleRevoked",
      "type": "event"
    },
    {
      "anonymous": false,
      "inputs": [
        {
          "indexed": true,
          "internalType": "uint256",
          "name": "challengeId",
          "type": "uint256"
        },
        {
          "indexed": true,
          "internalType": "address",
          "name": "disputor",
          "type": "address"
        },
        {
          "indexed": false,
          "internalType": "enum IChallengePool.ChallengeState",
          "name": "state",
          "type": "uint8"
        },
        {
          "indexed": false,
          "internalType": "bytes",
          "name": "result",
          "type": "bytes"
        },
        {
          "indexed": false,
          "internalType": "uint256",
          "name": "amount",
          "type": "uint256"
        }
      ],
      "name": "SettleDispute",
      "type": "event"
    },
    {
      "anonymous": false,
      "inputs": [
        {
          "indexed": true,
          "internalType": "uint256",
          "name": "challengeId",
          "type": "uint256"
        },
        {
          "indexed": true,
          "internalType": "address",
          "name": "participant",
          "type": "address"
        },
        {
          "indexed": false,
          "internalType": "bytes",
          "name": "option",
          "type": "bytes"
        },
        {
          "indexed": false,
          "internalType": "uint256",
          "name": "stakes",
          "type": "uint256"
        },
        {
          "indexed": false,
          "internalType": "uint256",
          "name": "amount",
          "type": "uint256"
        },
        {
          "indexed": false,
          "internalType": "uint256",
          "name": "fee",
          "type": "uint256"
        }
      ],
      "name": "Stake",
      "type": "event"
    },
    {
      "anonymous": false,
      "inputs": [
        {
          "indexed": true,
          "internalType": "uint256",
          "name": "challengeId",
          "type": "uint256"
        },
        {
          "indexed": true,
          "internalType": "address",
          "name": "participant",
          "type": "address"
        },
        {
          "indexed": false,
          "internalType": "uint256",
          "name": "amountWon",
          "type": "uint256"
        },
        {
          "indexed": false,
          "internalType": "uint256",
          "name": "amountWithdrawn",
          "type": "uint256"
        }
      ],
      "name": "WinningsWithdrawn",
      "type": "event"
    },
    {
      "anonymous": false,
      "inputs": [
        {
          "indexed": true,
          "internalType": "uint256",
          "name": "challengeId",
          "type": "uint256"
        },
        {
          "indexed": true,
          "internalType": "address",
          "name": "participant",
          "type": "address"
        },
        {
          "indexed": false,
          "internalType": "bytes",
          "name": "option",
          "type": "bytes"
        },
        {
          "indexed": false,
          "internalType": "uint256",
          "name": "stakes",
          "type": "uint256"
        },
        {
          "indexed": false,
          "internalType": "uint256",
          "name": "amount",
          "type": "uint256"
        },
        {
          "indexed": false,
          "internalType": "uint256",
          "name": "fee",
          "type": "uint256"
        }
      ],
      "name": "Withdraw",
      "type": "event"
    },
    {
      "inputs": [
        {
          "internalType": "uint256",
          "name": "_challengeId",
          "type": "uint256"
        }
      ],
      "name": "cancel",
      "outputs": [],
      "stateMutability": "nonpayable",
      "type": "function"
    },
    {
      "inputs": [
        {
          "internalType": "uint256",
          "name": "_challengeId",
          "type": "uint256"
        }
      ],
      "name": "close",
      "outputs": [],
      "stateMutability": "nonpayable",
      "type": "function"
    },
    {
      "inputs": [
        {
          "internalType": "uint256",
          "name": "_challengeId",
          "type": "uint256"
        },
        {
          "internalType": "bytes",
          "name": "_outcome",
          "type": "bytes"
        }
      ],
      "name": "dispute",
      "outputs": [],
      "stateMutability": "nonpayable",
      "type": "function"
    },
    {
      "inputs": [
        {
          "internalType": "uint256",
          "name": "_challengeId",
          "type": "uint256"
        }
      ],
      "name": "evaluate",
      "outputs": [],
      "stateMutability": "nonpayable",
      "type": "function"
    },
    {
      "inputs": [
        {
          "internalType": "uint256",
          "name": "_challengeId",
          "type": "uint256"
        }
      ],
      "name": "releaseDispute",
      "outputs": [],
      "stateMutability": "nonpayable",
      "type": "function"
    },
    {
      "inputs": [
        {
          "internalType": "uint256",
          "name": "_challengeId",
          "type": "uint256"
        },
        {
          "internalType": "bytes",
          "name": "_outcome",
          "type": "bytes"
        }
      ],
      "name": "settle",
      "outputs": [],
      "stateMutability": "nonpayable",
      "type": "function"
    }
  ],
  "bytecode": "0x60808060405234601557612204908161001b8239f35b600080fdfe6080604052600436101561001257600080fd5b60003560e01c80630aebeb4e146117545780633714323314610f4957806339c2ebb914610bf257806340e58ee514610b115780635a139c801461087f5763f82d578a1461005e57600080fd5b3461060f5761006c36611897565b7fbc351ae7fa32df0c8ad57278243ae7d011e90d073629dfc92fda8e9f319c6fd59291925482101561085557816000527fbc351ae7fa32df0c8ad57278243ae7d011e90d073629dfc92fda8e9f319c6fcc6020526100cd6040600020611dde565b600781101561058e576004810361082257506020926101076040516100f28682611924565b60008152610101368585611d77565b90611dbb565b6107f857826000527fbc351ae7fa32df0c8ad57278243ae7d011e90d073629dfc92fda8e9f319c6fcc84526040600020836000527fbc351ae7fa32df0c8ad57278243ae7d011e90d073629dfc92fda8e9f319c6fcf855260ff604060002086604051809287878337878201908152030190205416156107f8573360009081527fbc351ae7fa32df0c8ad57278243ae7d011e90d073629dfc92fda8e9f319c6fce60205260409020846000528552600160406000200154156107ce576101d0600a82015442611dae565b7fbc351ae7fa32df0c8ad57278243ae7d011e90d073629dfc92fda8e9f319c6fde54106107a457836000527fbc351ae7fa32df0c8ad57278243ae7d011e90d073629dfc92fda8e9f319c6fd2855260408060002060009073ffffffffffffffffffffffffffffffffffffffff331682528752206001810190815461077a5767ffffffffffffffff851161074b576102718561026b835461199f565b83611bf6565b846000601f821160011461069057916102d8826006959373ffffffffffffffffffffffffffffffffffffffff9795600091610685575b507fffffffffffffffffffffffffffffffffffffffffffffffffffffffffffffffff8260011b9260031b1c19161790565b90555b7fbc351ae7fa32df0c8ad57278243ae7d011e90d073629dfc92fda8e9f319c6fdf54905560098101805460ff811615610657575b50507fbc351ae7fa32df0c8ad57278243ae7d011e90d073629dfc92fda8e9f319c6fdf54866000527fbc351ae7fa32df0c8ad57278243ae7d011e90d073629dfc92fda8e9f319c6fd3885261037e60406000208960405180928a8a83378a820190815203019020918254611c48565b90557fbc351ae7fa32df0c8ad57278243ae7d011e90d073629dfc92fda8e9f319c6fdf54866000527fbc351ae7fa32df0c8ad57278243ae7d011e90d073629dfc92fda8e9f319c6fd488526103d96040600020918254611c48565b90550154167fbc351ae7fa32df0c8ad57278243ae7d011e90d073629dfc92fda8e9f319c6fdf5490604051907f70a082310000000000000000000000000000000000000000000000000000000082523060048301528682602481845afa90811561061b578790600092610627575b6024935061049c6040517f23b872dd0000000000000000000000000000000000000000000000000000000084820152338682015230604482015286606482015260648152610496608482611924565b82612143565b604051938480927f70a082310000000000000000000000000000000000000000000000000000000082523060048301525afa801561061b576000906105e7575b6104e69250611dae565b036105bd577fbc351ae7fa32df0c8ad57278243ae7d011e90d073629dfc92fda8e9f319c6fdf5460405190949091837fa2f36d372ca4283714640219602ffb66ae32e45c862842801326d61eede764d794601f9260607fffffffffffffffffffffffffffffffffffffffffffffffffffffffffffffffe095600688528701528160608701526080860137600060808286010152011681019360408201526080813395030190a3005b7f4e487b7100000000000000000000000000000000000000000000000000000000600052602160045260246000fd5b7fc7e8fc500000000000000000000000000000000000000000000000000000000060005260046000fd5b508682813d8311610614575b6105fd8183611924565b8101031261060f576104e691516104dc565b600080fd5b503d6105f3565b6040513d6000823e3d90fd5b915082813d8311610650575b61063d8183611924565b8101031261060f57866024925191610447565b503d610633565b7fffffffffffffffffffffffffffffffffffffffffffffffffffffffffffffff00166001179055388061030f565b9050880135386102a7565b8281528881209187907fffffffffffffffffffffffffffffffffffffffffffffffffffffffffffffffe016825b8b82821061073257505091600695939173ffffffffffffffffffffffffffffffffffffffff979593106106fa575b5050600187811b0190556102db565b7fffffffffffffffffffffffffffffffffffffffffffffffffffffffffffffffff60f88a60031b161c199088013516905538806106eb565b898501358655600190950194938401938a9350016106bd565b7f4e487b7100000000000000000000000000000000000000000000000000000000600052604160045260246000fd5b7fe90ecb600000000000000000000000000000000000000000000000000000000060005260046000fd5b7f1769da420000000000000000000000000000000000000000000000000000000060005260046000fd5b7f3110f1d80000000000000000000000000000000000000000000000000000000060005260046000fd5b7fc74a206d0000000000000000000000000000000000000000000000000000000060005260046000fd5b61084f907fabe418b700000000000000000000000000000000000000000000000000000000600052611909565b60246000fd5b7f92fa6fd30000000000000000000000000000000000000000000000000000000060005260046000fd5b3461060f5760207ffffffffffffffffffffffffffffffffffffffffffffffffffffffffffffffffc36011261060f576004357fbc351ae7fa32df0c8ad57278243ae7d011e90d073629dfc92fda8e9f319c6fd55481101561085557806000527fbc351ae7fa32df0c8ad57278243ae7d011e90d073629dfc92fda8e9f319c6fcc60205261090f6040600020611dde565b600781101561058e57600181036108225750806000527fbc351ae7fa32df0c8ad57278243ae7d011e90d073629dfc92fda8e9f319c6fcc6020526040600020906109983373ffffffffffffffffffffffffffffffffffffffff166000527fbc351ae7fa32df0c8ad57278243ae7d011e90d073629dfc92fda8e9f319c6fce602052604060002090565b81600052602052600160406000200154156107ce57806000527fbc351ae7fa32df0c8ad57278243ae7d011e90d073629dfc92fda8e9f319c6fd260205260408060002060009073ffffffffffffffffffffffffffffffffffffffff3316825260205220916001830180548015610ae7576002850180549360ff8516610abd57610a8c610aaf9360ff9360017fffffffffffffffffffffffffffffffffffffffffffffffffffffffffffffff007fb24a27359e856fd6f2185516f6a72446c33a18e343dfc739b4c2340347b809a69916179055339073ffffffffffffffffffffffffffffffffffffffff600685015416611fc4565b5416915494610a9e6040518094611917565b606060208401526060830190611ab4565b9360408201528033940390a3005b7f181b23060000000000000000000000000000000000000000000000000000000060005260046000fd5b7fce902ec00000000000000000000000000000000000000000000000000000000060005260046000fd5b3461060f5760207ffffffffffffffffffffffffffffffffffffffffffffffffffffffffffffffffc36011261060f576004357fbc351ae7fa32df0c8ad57278243ae7d011e90d073629dfc92fda8e9f319c6fd55481101561085557806000527fbc351ae7fa32df0c8ad57278243ae7d011e90d073629dfc92fda8e9f319c6fcc602052604060002060027fffffffffffffffffffffffffffffffffffffffffffffffffffffffffffffff0082541617905560405190600282527ff1c355ceaac9a7d7014f5e6084c095e19bc67d436144b3e0f338d215f0706d0360203393a3005b3461060f57610c0036611897565b7fbc351ae7fa32df0c8ad57278243ae7d011e90d073629dfc92fda8e9f319c6fd59291925482101561085557816000527fbc351ae7fa32df0c8ad57278243ae7d011e90d073629dfc92fda8e9f319c6fcc602052610c616040600020611dde565b600781101561058e57600681036108225750602092610c866040516100f28682611924565b6107f857826000527fbc351ae7fa32df0c8ad57278243ae7d011e90d073629dfc92fda8e9f319c6fcc845260406000209360057fffffffffffffffffffffffffffffffffffffffffffffffffffffffffffffff008654161785556001850167ffffffffffffffff841161074b57610d018461026b835461199f565b600084601f8111600114610eac5780610d4c92600091610ea157507fffffffffffffffffffffffffffffffffffffffffffffffffffffffffffffffff8260011b9260031b1c19161790565b90555b836000527fbc351ae7fa32df0c8ad57278243ae7d011e90d073629dfc92fda8e9f319c6fd48152610e2373ffffffffffffffffffffffffffffffffffffffff6006610de0604060002054886000527fbc351ae7fa32df0c8ad57278243ae7d011e90d073629dfc92fda8e9f319c6fd3865260406000208660405180928b8b83378b8201908152030190205490611dae565b970154168673ffffffffffffffffffffffffffffffffffffffff7fbc351ae7fa32df0c8ad57278243ae7d011e90d073629dfc92fda8e9f319c6fdd541691611fc4565b60405191837ff0d6297b129114fe6d7a0cb8796989a0273fb75cae8bf9385031d3a07a3e6f4b94601f9260607fffffffffffffffffffffffffffffffffffffffffffffffffffffffffffffffe095600588528701528160608701526080860137600060808286010152011681019360408201526080813395030190a3005b9050850135896102a7565b7fffffffffffffffffffffffffffffffffffffffffffffffffffffffffffffffe016908281528584822092825b86828210610f3057505010610ef8575b5050600184811b019055610d4f565b7fffffffffffffffffffffffffffffffffffffffffffffffffffffffffffffffff60f88760031b161c19908501351690558680610ee9565b8885013586556001909501949384019389935001610ed9565b3461060f5760207ffffffffffffffffffffffffffffffffffffffffffffffffffffffffffffffffc36011261060f576004357fbc351ae7fa32df0c8ad57278243ae7d011e90d073629dfc92fda8e9f319c6fd55481101561085557806000527fbc351ae7fa32df0c8ad57278243ae7d011e90d073629dfc92fda8e9f319c6fcc602052610fd96040600020611dde565b600781101561058e57600381036108225750806000527fbc351ae7fa32df0c8ad57278243ae7d011e90d073629dfc92fda8e9f319c6fcc60205260406000206020604051916110288284611924565b6000835261103d6001820193610101856119f2565b6107f85760017fffffffffffffffffffffffffffffffffffffffffffffffffffffffffffffff008254161781556040516110778382611924565b60008152815460081c60ff161561156c5750600781019360019360005b86548110156112515760016110a98289611b56565b500185604051916000908054906110bf8261199f565b916001811690811561121c57506001146111e8575b50509160029181847fba07f9bdb83529457286bae2254b67a516d5fac42a7c08e76b28b1c094cd2f2660ff965203019020015460a01c16600281101561058e57156111be5760026111258289611b56565b5001546111537fbc351ae7fa32df0c8ad57278243ae7d011e90d073629dfc92fda8e9f319c6fdc5442611c48565b116111945761117e611163611c84565b610101611179611173858c611b56565b50611ba1565b611e0b565b61118b575b600101611094565b60009550611183565b7fcce559bd0000000000000000000000000000000000000000000000000000000060005260046000fd5b7f4aa91a460000000000000000000000000000000000000000000000000000000060005260046000fd5b909150600052816000206000905b828210611208575050820181836110d4565b8054828601528993909101906001016111f6565b7fffffffffffffffffffffffffffffffffffffffffffffffffffffffffffffff001686525050801515028301905081836110d4565b5091945092156113fe57611263611ccc565b80519067ffffffffffffffff821161074b5761128982611283855461199f565b85611bf6565b8390601f83116001146113395791806112fa927f80f66fbf7ec17db9bc1a56585c52d733a369f41a93d2459c97cf644e9ac341e096959460009261132e575b50507fffffffffffffffffffffffffffffffffffffffffffffffffffffffffffffffff8260011b9260031b1c19161790565b90555b611305611ccc565b935b600a429101556040805191600183528201528061132933956040830190611d34565b0390a3005b0151905088806112c8565b907fffffffffffffffffffffffffffffffffffffffffffffffffffffffffffffffe083169184600052856000209260005b8181106113e757509160019391857f80f66fbf7ec17db9bc1a56585c52d733a369f41a93d2459c97cf644e9ac341e098979694106113b0575b505050811b0190556112fd565b01517fffffffffffffffffffffffffffffffffffffffffffffffffffffffffffffffff60f88460031b161c191690558780806113a3565b92938760018192878601518155019501930161136a565b611406611c84565b80519067ffffffffffffffff821161074b5761142682611283855461199f565b8390601f83116001146114a7579180611496927f80f66fbf7ec17db9bc1a56585c52d733a369f41a93d2459c97cf644e9ac341e096959460009261132e5750507fffffffffffffffffffffffffffffffffffffffffffffffffffffffffffffffff8260011b9260031b1c19161790565b90555b6114a1611c84565b93611307565b907fffffffffffffffffffffffffffffffffffffffffffffffffffffffffffffffe083169184600052856000209260005b81811061155557509160019391857f80f66fbf7ec17db9bc1a56585c52d733a369f41a93d2459c97cf644e9ac341e0989796941061151e575b505050811b019055611499565b01517fffffffffffffffffffffffffffffffffffffffffffffffffffffffffffffffff60f88460031b161c19169055878080611511565b9293876001819287860151815501950193016114d8565b93926007820160009080541561172757908491815220611590611179600092611ba1565b9081519167ffffffffffffffff83116116fa576115b7836115b1865461199f565b86611bf6565b8591601f8411600114611638577f80f66fbf7ec17db9bc1a56585c52d733a369f41a93d2459c97cf644e9ac341e0969594936116269390928361162d5750507fffffffffffffffffffffffffffffffffffffffffffffffffffffffffffffffff8260011b9260031b1c19161790565b9055611307565b0151905089806112c8565b91907fffffffffffffffffffffffffffffffffffffffffffffffffffffffffffffffe08416858452878420935b8181106116e357509160019391857f80f66fbf7ec17db9bc1a56585c52d733a369f41a93d2459c97cf644e9ac341e09998979694106116ac575b505050811b019055611307565b01517fffffffffffffffffffffffffffffffffffffffffffffffffffffffffffffffff60f88460031b161c1916905588808061169f565b929388600181928786015181550195019301611665565b6024827f4e487b710000000000000000000000000000000000000000000000000000000081526041600452fd5b6024827f4e487b710000000000000000000000000000000000000000000000000000000081526032600452fd5b3461060f5760207ffffffffffffffffffffffffffffffffffffffffffffffffffffffffffffffffc36011261060f576004357fbc351ae7fa32df0c8ad57278243ae7d011e90d073629dfc92fda8e9f319c6fd55481101561085557806000527fbc351ae7fa32df0c8ad57278243ae7d011e90d073629dfc92fda8e9f319c6fcc60205260406000209060ff825416600781101561058e576005811480159061188c575b61082257506040519161180b602084611924565b600083526118206001820193610101856119f2565b6107f85760017fffffffffffffffffffffffffffffffffffffffffffffffffffffffffffffff008254161790557f9b327a4ca612250b263fec35bd1093e1750b5245b99e30ced83d74c5d477ce0060405160018152604060208201528061132933956040830190611ab4565b5060048114156117f7565b60407ffffffffffffffffffffffffffffffffffffffffffffffffffffffffffffffffc82011261060f576004359160243567ffffffffffffffff811161060f578260238201121561060f5780600401359267ffffffffffffffff841161060f576024848301011161060f576024019190565b600781101561058e57600452565b90600782101561058e5752565b90601f7fffffffffffffffffffffffffffffffffffffffffffffffffffffffffffffffe0910116810190811067ffffffffffffffff82111761074b57604052565b67ffffffffffffffff811161074b57601f017fffffffffffffffffffffffffffffffffffffffffffffffffffffffffffffffe01660200190565b90600182811c921680156119e8575b60208310146119b957565b7f4e487b7100000000000000000000000000000000000000000000000000000000600052602260045260246000fd5b91607f16916119ae565b9060405191826000825492611a068461199f565b8084529360018116908115611a745750600114611a2d575b50611a2b92500383611924565b565b90506000929192526020600020906000915b818310611a58575050906020611a2b9282010138611a1e565b6020919350806001915483858901015201910190918492611a3f565b60209350611a2b9592507fffffffffffffffffffffffffffffffffffffffffffffffffffffffffffffff0091501682840152151560051b82010138611a1e565b60009291815491611ac48361199f565b8083529260018116908115611b1a5750600114611ae057505050565b60009081526020812093945091925b838310611b00575060209250010190565b600181602092949394548385870101520191019190611aef565b905060209495507fffffffffffffffffffffffffffffffffffffffffffffffffffffffffffffff0091509291921683830152151560051b010190565b8054821015611b72576000526003602060002091020190600090565b7f4e487b7100000000000000000000000000000000000000000000000000000000600052603260045260246000fd5b906040516060810181811067ffffffffffffffff82111761074b57604052604060028294611bce816119f2565b84528251611bea81611be38160018601611ab4565b0382611924565b60208501520154910152565b601f8211611c0357505050565b6000526020600020906020601f840160051c83019310611c3e575b601f0160051c01905b818110611c32575050565b60008155600101611c27565b9091508190611c1e565b91908201809211611c5557565b7f4e487b7100000000000000000000000000000000000000000000000000000000600052601160045260246000fd5b604051602080820152600260408201527f6e6f000000000000000000000000000000000000000000000000000000000000606082015260608152611cc9608082611924565b90565b604051602080820152600360408201527f7965730000000000000000000000000000000000000000000000000000000000606082015260608152611cc9608082611924565b60005b838110611d245750506000910152565b8181015183820152602001611d14565b907fffffffffffffffffffffffffffffffffffffffffffffffffffffffffffffffe0601f602093611d7081518092818752878088019101611d11565b0116010190565b929192611d8382611965565b91611d916040519384611924565b82948184528183011161060f578281602093846000960137010152565b91908203918211611c5557565b805190825191828103611dd5576020809201209201201490565b50505050600090565b60ff81541690600782101561058e578115611df7575090565b60040154421015611e055790565b50600390565b600080916020810173ffffffffffffffffffffffffffffffffffffffff6001611e44602084518160405193828580945193849201611d11565b81017fba07f9bdb83529457286bae2254b67a516d5fac42a7c08e76b28b1c094cd2f2681520301902001541691611f2860405180926040611ef460208401967f164cf76b00000000000000000000000000000000000000000000000000000000885260206024860152611ec384516060604488015260a4870190611d34565b90517fffffffffffffffffffffffffffffffffffffffffffffffffffffffffffffffbc868303016064870152611d34565b9101516084830152037fffffffffffffffffffffffffffffffffffffffffffffffffffffffffffffffe08101835282611924565b51915af43d15611fbc573d90611f3d82611965565b91611f4b6040519384611924565b82523d6000602084013e5b15611f5e5790565b60646040517f9becf85d00000000000000000000000000000000000000000000000000000000815260206004820152600d60248201527f5f7265736f6c76654576656e74000000000000000000000000000000000000006044820152fd5b606090611f56565b73ffffffffffffffffffffffffffffffffffffffff909291921690604051907f70a08231000000000000000000000000000000000000000000000000000000008252306004830152602082602481865afa91821561061b5760009261210e575b5060249261208660209273ffffffffffffffffffffffffffffffffffffffff604051917fa9059cbb0000000000000000000000000000000000000000000000000000000086840152168682015286604482015260448152610496606482611924565b604051938480927f70a082310000000000000000000000000000000000000000000000000000000082523060048301525afa90811561061b576000916120d8575b6120d19250611dae565b036105bd57565b90506020823d602011612106575b816120f360209383611924565b8101031261060f576120d19151906120c7565b3d91506120e6565b9091506020813d60201161213b575b8161212a60209383611924565b8101031261060f5751906024612024565b3d915061211d565b906000602091828151910182855af11561061b576000513d6121c5575073ffffffffffffffffffffffffffffffffffffffff81163b155b6121815750565b73ffffffffffffffffffffffffffffffffffffffff907f5274afe7000000000000000000000000000000000000000000000000000000006000521660045260246000fd5b6001141561217a56fea2646970667358221220be209c161598b4c35b92ec7e7567148c956d80765426c03880fe746f87b6cc4864736f6c634300081c0033",
  "linkReferences": {},
  "deployedLinkReferences": {}
}