{
  "_format": "hh-sol-artifact-1",
  "contractName": "ChallengePoolHandler",
  "sourceName": "contracts/modules/ChallengePoolHandler.sol",
  "abi": [
    {
      "inputs": [
        {
          "internalType": "enum IChallengePoolCommon.ChallengeState",
          "name": "_state",
          "type": "uint8"
        }
      ],
      "name": "ActionNotAllowedForState",
      "type": "error"
    },
    {
      "inputs": [],
      "name": "BelowMinPrie",
      "type": "error"
    },
    {
      "inputs": [],
      "name": "DeadlineExceeded",
      "type": "error"
    },
    {
      "inputs": [
        {
          "internalType": "string",
          "name": "_functionName",
          "type": "string"
        }
      ],
      "name": "DelegateCallFailed",
      "type": "error"
    },
    {
      "inputs": [],
      "name": "DisputePeriod",
      "type": "error"
    },
    {
      "inputs": [],
      "name": "DisputePeriodElapsed",
      "type": "error"
    },
    {
      "inputs": [
        {
          "internalType": "uint256",
          "name": "_requested",
          "type": "uint256"
        },
        {
          "internalType": "uint256",
          "name": "_available",
          "type": "uint256"
        }
      ],
      "name": "InsufficientStakes",
      "type": "error"
    },
    {
      "inputs": [],
      "name": "InvalidChallenge",
      "type": "error"
    },
    {
      "inputs": [],
      "name": "InvalidEventLength",
      "type": "error"
    },
    {
      "inputs": [],
      "name": "InvalidEventMaturity",
      "type": "error"
    },
    {
      "inputs": [],
      "name": "InvalidEventParam",
      "type": "error"
    },
    {
      "inputs": [],
      "name": "InvalidEventTopic",
      "type": "error"
    },
    {
      "inputs": [],
      "name": "InvalidOptionsLength",
      "type": "error"
    },
    {
      "inputs": [],
      "name": "InvalidOutcome",
      "type": "error"
    },
    {
      "inputs": [],
      "name": "InvalidPoolOption",
      "type": "error"
    },
    {
      "inputs": [],
      "name": "InvalidPrediction",
      "type": "error"
    },
    {
      "inputs": [],
      "name": "MaxPriceExceeded",
      "type": "error"
    },
    {
      "inputs": [],
      "name": "NotImplemented",
      "type": "error"
    },
    {
      "inputs": [],
      "name": "Pausable__NotPaused",
      "type": "error"
    },
    {
      "inputs": [],
      "name": "Pausable__Paused",
      "type": "error"
    },
    {
      "inputs": [],
      "name": "PlayerAlreadyDisputed",
      "type": "error"
    },
    {
      "inputs": [],
      "name": "PlayerAlreadyReleased",
      "type": "error"
    },
    {
      "inputs": [],
      "name": "PlayerAlreadyWithdrawn",
      "type": "error"
    },
    {
      "inputs": [],
      "name": "PlayerDidNotDispute",
      "type": "error"
    },
    {
      "inputs": [],
      "name": "PlayerDidNotWinPool",
      "type": "error"
    },
    {
      "inputs": [],
      "name": "PlayerLostDispute",
      "type": "error"
    },
    {
      "inputs": [],
      "name": "PlayerNotInPool",
      "type": "error"
    },
    {
      "inputs": [],
      "name": "ProtocolInvariantCheckFailed",
      "type": "error"
    },
    {
      "inputs": [],
      "name": "ReentrancyGuard__ReentrantCall",
      "type": "error"
    },
    {
      "inputs": [
        {
          "internalType": "address",
          "name": "token",
          "type": "address"
        }
      ],
      "name": "SafeERC20FailedOperation",
      "type": "error"
    },
    {
      "inputs": [],
      "name": "StakeLowerThanMinimum",
      "type": "error"
    },
    {
      "inputs": [
        {
          "internalType": "address",
          "name": "_token",
          "type": "address"
        }
      ],
      "name": "UnsupportedToken",
      "type": "error"
    },
    {
      "inputs": [],
      "name": "ZeroAddress",
      "type": "error"
    },
    {
      "inputs": [],
      "name": "ZeroNumber",
      "type": "error"
    },
    {
      "anonymous": false,
      "inputs": [
        {
          "indexed": false,
          "internalType": "uint256",
          "name": "challengeId",
          "type": "uint256"
        },
        {
          "indexed": false,
          "internalType": "address",
          "name": "closer",
          "type": "address"
        },
        {
          "indexed": false,
          "internalType": "enum IChallengePoolCommon.ChallengeState",
          "name": "state",
          "type": "uint8"
        },
        {
          "indexed": false,
          "internalType": "bytes",
          "name": "result",
          "type": "bytes"
        }
      ],
      "name": "CloseChallenge",
      "type": "event"
    },
    {
      "anonymous": false,
      "inputs": [
        {
          "indexed": false,
          "internalType": "uint256",
          "name": "challengeId",
          "type": "uint256"
        },
        {
          "indexed": false,
          "internalType": "address",
          "name": "evaluator",
          "type": "address"
        },
        {
          "indexed": false,
          "internalType": "enum IChallengePoolCommon.ChallengeState",
          "name": "state",
          "type": "uint8"
        },
        {
          "indexed": false,
          "internalType": "bytes",
          "name": "result",
          "type": "bytes"
        }
      ],
      "name": "EvaluateChallenge",
      "type": "event"
    },
    {
      "anonymous": false,
      "inputs": [
        {
          "indexed": false,
          "internalType": "uint256",
          "name": "challengeId",
          "type": "uint256"
        },
        {
          "indexed": false,
          "internalType": "address",
          "name": "creator",
          "type": "address"
        },
        {
          "indexed": false,
          "internalType": "uint256",
          "name": "createdAt",
          "type": "uint256"
        },
        {
          "indexed": false,
          "internalType": "uint256",
          "name": "maturity",
          "type": "uint256"
        },
        {
          "indexed": false,
          "internalType": "enum IChallengePoolCommon.ChallengeState",
          "name": "state",
          "type": "uint8"
        },
        {
          "indexed": false,
          "internalType": "bytes",
          "name": "result",
          "type": "bytes"
        },
        {
          "indexed": false,
          "internalType": "uint256",
          "name": "basePrice",
          "type": "uint256"
        },
        {
          "indexed": false,
          "internalType": "uint256",
          "name": "fee",
          "type": "uint256"
        },
        {
          "indexed": false,
          "internalType": "uint256",
          "name": "quantity",
          "type": "uint256"
        },
        {
          "indexed": false,
          "internalType": "uint256",
          "name": "totalAmount",
          "type": "uint256"
        },
        {
          "indexed": false,
          "internalType": "uint256",
          "name": "rewards",
          "type": "uint256"
        },
        {
          "indexed": false,
          "internalType": "bytes",
          "name": "prediction",
          "type": "bytes"
        },
        {
          "components": [
            {
              "internalType": "bytes",
              "name": "params",
              "type": "bytes"
            },
            {
              "internalType": "string",
              "name": "topicId",
              "type": "string"
            },
            {
              "internalType": "uint256",
              "name": "maturity",
              "type": "uint256"
            }
          ],
          "indexed": false,
          "internalType": "struct IChallengePoolCommon.ChallengeEvent[]",
          "name": "events",
          "type": "tuple[]"
        },
        {
          "indexed": false,
          "internalType": "bytes[]",
          "name": "options",
          "type": "bytes[]"
        },
        {
          "indexed": false,
          "internalType": "address",
          "name": "stakeToken",
          "type": "address"
        },
        {
          "indexed": false,
          "internalType": "bool",
          "name": "multi",
          "type": "bool"
        }
      ],
      "name": "NewChallenge",
      "type": "event"
    },
    {
      "anonymous": false,
      "inputs": [
        {
          "indexed": false,
          "internalType": "address",
          "name": "account",
          "type": "address"
        }
      ],
      "name": "Paused",
      "type": "event"
    },
    {
      "anonymous": false,
      "inputs": [
        {
          "indexed": true,
          "internalType": "bytes32",
          "name": "role",
          "type": "bytes32"
        },
        {
          "indexed": true,
          "internalType": "bytes32",
          "name": "previousAdminRole",
          "type": "bytes32"
        },
        {
          "indexed": true,
          "internalType": "bytes32",
          "name": "newAdminRole",
          "type": "bytes32"
        }
      ],
      "name": "RoleAdminChanged",
      "type": "event"
    },
    {
      "anonymous": false,
      "inputs": [
        {
          "indexed": true,
          "internalType": "bytes32",
          "name": "role",
          "type": "bytes32"
        },
        {
          "indexed": true,
          "internalType": "address",
          "name": "account",
          "type": "address"
        },
        {
          "indexed": true,
          "internalType": "address",
          "name": "sender",
          "type": "address"
        }
      ],
      "name": "RoleGranted",
      "type": "event"
    },
    {
      "anonymous": false,
      "inputs": [
        {
          "indexed": true,
          "internalType": "bytes32",
          "name": "role",
          "type": "bytes32"
        },
        {
          "indexed": true,
          "internalType": "address",
          "name": "account",
          "type": "address"
        },
        {
          "indexed": true,
          "internalType": "address",
          "name": "sender",
          "type": "address"
        }
      ],
      "name": "RoleRevoked",
      "type": "event"
    },
    {
      "anonymous": false,
      "inputs": [
        {
          "indexed": false,
          "internalType": "uint256",
          "name": "challengeId",
          "type": "uint256"
        },
        {
          "indexed": false,
          "internalType": "address",
          "name": "participant",
          "type": "address"
        },
        {
          "indexed": false,
          "internalType": "bytes",
          "name": "option",
          "type": "bytes"
        },
        {
          "indexed": false,
          "internalType": "uint256",
          "name": "stakes",
          "type": "uint256"
        },
        {
          "indexed": false,
          "internalType": "uint256",
          "name": "price",
          "type": "uint256"
        },
        {
          "indexed": false,
          "internalType": "uint256",
          "name": "totalAmount",
          "type": "uint256"
        },
        {
          "indexed": false,
          "internalType": "uint256",
          "name": "fee",
          "type": "uint256"
        },
        {
          "indexed": false,
          "internalType": "uint256",
          "name": "rewards",
          "type": "uint256"
        }
      ],
      "name": "Stake",
      "type": "event"
    },
    {
      "anonymous": false,
      "inputs": [
        {
          "indexed": false,
          "internalType": "address",
          "name": "account",
          "type": "address"
        }
      ],
      "name": "Unpaused",
      "type": "event"
    },
    {
      "anonymous": false,
      "inputs": [
        {
          "indexed": false,
          "internalType": "uint256",
          "name": "challengeId",
          "type": "uint256"
        },
        {
          "indexed": false,
          "internalType": "address",
          "name": "participant",
          "type": "address"
        },
        {
          "indexed": false,
          "internalType": "uint256",
          "name": "amountWon",
          "type": "uint256"
        },
        {
          "indexed": false,
          "internalType": "uint256",
          "name": "amountWithdrawn",
          "type": "uint256"
        }
      ],
      "name": "WinningsWithdrawn",
      "type": "event"
    },
    {
      "anonymous": false,
      "inputs": [
        {
          "indexed": false,
          "internalType": "uint256",
          "name": "challengeId",
          "type": "uint256"
        },
        {
          "indexed": false,
          "internalType": "address",
          "name": "participant",
          "type": "address"
        },
        {
          "indexed": false,
          "internalType": "bytes",
          "name": "option",
          "type": "bytes"
        },
        {
          "indexed": false,
          "internalType": "uint256",
          "name": "stakes",
          "type": "uint256"
        },
        {
          "indexed": false,
          "internalType": "uint256",
          "name": "price",
          "type": "uint256"
        },
        {
          "indexed": false,
          "internalType": "uint256",
          "name": "penalty",
          "type": "uint256"
        },
        {
          "indexed": false,
          "internalType": "uint256",
          "name": "totalAmount",
          "type": "uint256"
        },
        {
          "indexed": false,
          "internalType": "uint256",
          "name": "fee",
          "type": "uint256"
        },
        {
          "indexed": false,
          "internalType": "uint256",
          "name": "rewards",
          "type": "uint256"
        }
      ],
      "name": "Withdraw",
      "type": "event"
    },
    {
      "inputs": [
        {
          "internalType": "uint256[]",
          "name": "_challengeIds",
          "type": "uint256[]"
        }
      ],
      "name": "bulkWithdraw",
      "outputs": [],
      "stateMutability": "nonpayable",
      "type": "function"
    },
    {
      "inputs": [
        {
          "internalType": "uint256",
          "name": "_challengeId",
          "type": "uint256"
        }
      ],
      "name": "close",
      "outputs": [],
      "stateMutability": "nonpayable",
      "type": "function"
    },
    {
      "inputs": [
        {
          "components": [
            {
              "internalType": "bytes",
              "name": "params",
              "type": "bytes"
            },
            {
              "internalType": "string",
              "name": "topicId",
              "type": "string"
            },
            {
              "internalType": "uint256",
              "name": "maturity",
              "type": "uint256"
            }
          ],
          "internalType": "struct IChallengePoolCommon.ChallengeEvent[]",
          "name": "_events",
          "type": "tuple[]"
        },
        {
          "internalType": "bytes[]",
          "name": "_options",
          "type": "bytes[]"
        },
        {
          "internalType": "address",
          "name": "_stakeToken",
          "type": "address"
        },
        {
          "internalType": "bytes",
          "name": "_prediction",
          "type": "bytes"
        },
        {
          "internalType": "uint256",
          "name": "_quantity",
          "type": "uint256"
        },
        {
          "internalType": "uint256",
          "name": "_basePrice",
          "type": "uint256"
        },
        {
          "internalType": "address",
          "name": "_paymaster",
          "type": "address"
        }
      ],
      "name": "createChallenge",
      "outputs": [],
      "stateMutability": "nonpayable",
      "type": "function"
    },
    {
      "inputs": [
        {
          "internalType": "uint256",
          "name": "_challengeId",
          "type": "uint256"
        },
        {
          "internalType": "bytes",
          "name": "_prediction",
          "type": "bytes"
        },
        {
          "internalType": "uint256",
          "name": "_quantity",
          "type": "uint256"
        },
        {
          "internalType": "uint256",
          "name": "_deadline",
          "type": "uint256"
        }
      ],
      "name": "earlyWithdraw",
      "outputs": [],
      "stateMutability": "nonpayable",
      "type": "function"
    },
    {
      "inputs": [
        {
          "internalType": "uint256",
          "name": "_challengeId",
          "type": "uint256"
        }
      ],
      "name": "evaluate",
      "outputs": [],
      "stateMutability": "nonpayable",
      "type": "function"
    },
    {
      "inputs": [
        {
          "internalType": "uint256",
          "name": "_challengeId",
          "type": "uint256"
        },
        {
          "internalType": "bytes",
          "name": "_prediction",
          "type": "bytes"
        },
        {
          "internalType": "uint256",
          "name": "_quantity",
          "type": "uint256"
        },
        {
          "internalType": "address",
          "name": "_paymaster",
          "type": "address"
        }
      ],
      "name": "stake",
      "outputs": [],
      "stateMutability": "nonpayable",
      "type": "function"
    },
    {
      "inputs": [
        {
          "internalType": "uint256",
          "name": "_challengeId",
          "type": "uint256"
        }
      ],
      "name": "withdraw",
      "outputs": [],
      "stateMutability": "nonpayable",
      "type": "function"
    }
  ],
  "bytecode": "0x60808060405234601557614a16908161001b8239f35b600080fdfe6101a0604052600436101561001357600080fd5b60003560e01c80630aebeb4e14612a4257806318d2d415146122e85780632e1a7d4d146121e85780633714323314611e0c5780636eb9aec2146103e8578063a6a21a5d1461033b5763ac68a6301461006a57600080fd5b346103365760807ffffffffffffffffffffffffffffffffffffffffffffffffffffffffffffffffc3601126103365760043560243567ffffffffffffffff8111610336576100bc903690600401612c42565b60ff7f68721c0bbf2c02a4d65000340d1370666be06a630022208d4baa9bd7a4b6fea8541661030c5760027f09acf4e54214992e70883cf7dcd6957ff2c71cd9e14df4bec4383bc0d11607dc54146102e25760027f09acf4e54214992e70883cf7dcd6957ff2c71cd9e14df4bec4383bc0d11607dc557fbc351ae7fa32df0c8ad57278243ae7d011e90d073629dfc92fda8e9f319c6fd5548310156102b8576101829161016a913691612f55565b60405190610179602083612cd9565b6000825261335e565b61028e57604435156102645760643515610264576000527fbc351ae7fa32df0c8ad57278243ae7d011e90d073629dfc92fda8e9f319c6fcc6020526101ca6040600020613381565b60078110156102355780610202577fd62347250000000000000000000000000000000000000000000000000000000060005260046000fd5b61022f907fabe418b700000000000000000000000000000000000000000000000000000000600052612e69565b60246000fd5b7f4e487b7100000000000000000000000000000000000000000000000000000000600052602160045260246000fd5b7f99d1d12f0000000000000000000000000000000000000000000000000000000060005260046000fd5b7fea0599f80000000000000000000000000000000000000000000000000000000060005260046000fd5b7f92fa6fd30000000000000000000000000000000000000000000000000000000060005260046000fd5b7fbb6b8f9a0000000000000000000000000000000000000000000000000000000060005260046000fd5b7f059519da0000000000000000000000000000000000000000000000000000000060005260046000fd5b600080fd5b346103365760207ffffffffffffffffffffffffffffffffffffffffffffffffffffffffffffffffc3601126103365760043567ffffffffffffffff81116103365761038a903690600401612c70565b9060005b82811061039757005b6103a281848461334e565b357fbc351ae7fa32df0c8ad57278243ae7d011e90d073629dfc92fda8e9f319c6fd55411156102b857806103e26103dc600193868661334e565b35613a7e565b0161038e565b346103365760e07ffffffffffffffffffffffffffffffffffffffffffffffffffffffffffffffffc3601126103365760043567ffffffffffffffff811161033657610437903690600401612c70565b9060243567ffffffffffffffff811161033657610458903690600401612c70565b6044356101008190529093919073ffffffffffffffffffffffffffffffffffffffff811690036103365760643567ffffffffffffffff8111610336576104a2903690600401612c42565b60c435610120819052909591929073ffffffffffffffffffffffffffffffffffffffff811690036103365760ff7f68721c0bbf2c02a4d65000340d1370666be06a630022208d4baa9bd7a4b6fea8541661030c57608435156102645760a435156102645773ffffffffffffffffffffffffffffffffffffffff610100511615611de25760ff60026105756101005173ffffffffffffffffffffffffffffffffffffffff166000527fbc351ae7fa32df0c8ad57278243ae7d011e90d073629dfc92fda8e9f319c6fd4602052604060002090565b01541615611d9b577fbc351ae7fa32df0c8ad57278243ae7d011e90d073629dfc92fda8e9f319c6fd95460a43510611d71576105cb6105b5368886612f55565b6020608081905260405191906101799083612cd9565b61028e5760018410611d1d577fbc351ae7fa32df0c8ad57278243ae7d011e90d073629dfc92fda8e9f319c6fdb548411611d47577fbc351ae7fa32df0c8ad57278243ae7d011e90d073629dfc92fda8e9f319c6fda548211611d4757600060c05281611aaf575050600060c05260405160606106478183612cd9565b6002825260c051604091905b828110611a9d57505050610665613132565b61066e82613294565b5261067881613294565b506106816130ea565b61068a826132a1565b52610694816132a1565b50915b60009360005b84518110156107c6576106cd6040516106b860805182612cd9565b600081526106c683886132b1565b519061335e565b61079c576106ef6106de82876132b1565b516106ea368a88612f55565b61335e565b610793575b6001907fbc351ae7fa32df0c8ad57278243ae7d011e90d073629dfc92fda8e9f319c6fd5546000527fbc351ae7fa32df0c8ad57278243ae7d011e90d073629dfc92fda8e9f319c6fcf60805152604060002061075082886132b1565b518051906080510120600052608051526040600020827fffffffffffffffffffffffffffffffffffffffffffffffffffffffffffffff008254161790550161069d565b600195506106f4565b7f3d4d195c0000000000000000000000000000000000000000000000000000000060005260046000fd5b50909291931561028e577fffffffffffffffffffffffffffffffffffffffffffffffffffffffffffffffff60e05260005b83811061181d57507fbc351ae7fa32df0c8ad57278243ae7d011e90d073629dfc92fda8e9f319c6fd854600060a0526127106108358260a435612f8c565b10611817576108469060a435614033565b60a05260016108976101005173ffffffffffffffffffffffffffffffffffffffff166000527fbc351ae7fa32df0c8ad57278243ae7d011e90d073629dfc92fda8e9f319c6fd4602052604060002090565b016108a560a0518254612f9f565b90556108b560843560a435612f8c565b610140526108c860e051426084356133ae565b6109896040516108d781612ca1565b600081526084356080518201526101405160408201528260608201527fbc351ae7fa32df0c8ad57278243ae7d011e90d073629dfc92fda8e9f319c6fd5546000527fbc351ae7fa32df0c8ad57278243ae7d011e90d073629dfc92fda8e9f319c6fcd60805152604060002073ffffffffffffffffffffffffffffffffffffffff3316600052608051526040600020610970368a8a612f55565b8051906080510120600052608051526040600020613e97565b610a2b60405161099881612ca1565b600081526084356080518201526101405160408201528260608201527fbc351ae7fa32df0c8ad57278243ae7d011e90d073629dfc92fda8e9f319c6fd5546000527fbc351ae7fa32df0c8ad57278243ae7d011e90d073629dfc92fda8e9f319c6fce60805152604060002073ffffffffffffffffffffffffffffffffffffffff3316600052608051526040600020613e97565b610ab0604051610a3a81612ca1565b600181526084356080518201526101405160408201528260608201527fbc351ae7fa32df0c8ad57278243ae7d011e90d073629dfc92fda8e9f319c6fd5546000527fbc351ae7fa32df0c8ad57278243ae7d011e90d073629dfc92fda8e9f319c6fcf608051526040600020610970368a8a612f55565b60405180604081011067ffffffffffffffff6040830111176117e857604081016040526084358152600160805182016101405181527fbc351ae7fa32df0c8ad57278243ae7d011e90d073629dfc92fda8e9f319c6fd5546000527fbc351ae7fa32df0c8ad57278243ae7d011e90d073629dfc92fda8e9f319c6fd06080515260406000209251835551910155604051610b4b60805182612cd9565b6000815260405190610160820182811067ffffffffffffffff8211176117e8576040526000825260c0511515608051830152604082015242606082015260e051608082015260a43560a082015273ffffffffffffffffffffffffffffffffffffffff610100511660c0820152610bd3610bc38661307a565b6040516101805261018051612cd9565b61018051508461018051526080516101805101368660051b8501116103365783905b8660051b8501821061173f5750506101805160e082015283610100820152600061012082015260006101408201527fbc351ae7fa32df0c8ad57278243ae7d011e90d073629dfc92fda8e9f319c6fd5546000527fbc351ae7fa32df0c8ad57278243ae7d011e90d073629dfc92fda8e9f319c6fcc608051526040600020908051600781101561016052610160516102355760006101605260ff7fffffffffffffffffffffffffffffffffffffffffffffffffffffffffffffff00845416911617825560805181015115157fffffffffffffffffffffffffffffffffffffffffffffffffffffffffffff00ff61ff0084549260081b169116178255604081015180519067ffffffffffffffff82116112a057610d2082610d176001870154612d54565b6001870161318e565b608051906001601f84111461166b57918091610d72936101605192611660575b50507fffffffffffffffffffffffffffffffffffffffffffffffffffffffffffffffff8260011b9260031b1c19161790565b60018301555b606081015160028301556080810151600383015560a081015160048301556005820173ffffffffffffffffffffffffffffffffffffffff60c0830151167fffffffffffffffffffffffff000000000000000000000000000000000000000082541617905560e08101518051906801000000000000000082116112a0576006840154826006860155808310611593575b506080510190600684016101605152608051610160512061016051925b82841061130b57505050506101008101518051906801000000000000000082116112a05760078401548260078601558083106112d3575b50608097959751019060078401610160515260805161016051209161016051905b82821061112f575050505090600961014083610ed1610120610f8c979601511515600886019060ff7fffffffffffffffffffffffffffffffffffffffffffffffffffffffffffffff0083541691151516179055565b01519101557fbc351ae7fa32df0c8ad57278243ae7d011e90d073629dfc92fda8e9f319c6fd5549660405196610f0960805189612cd9565b610160518852610f54604051988a8a52336080518b01524260408b015260e05160608b0152610160515061016051506101605160808b015261020060a08b01526102008a01906131f6565b9260a43560c08a015260a05160e08a01526084356101008a0152610140516101208a0152610140890152878303610160890152612fac565b928484036101808601528184526080518401916080518160051b86010194829361016051917fffffffffffffffffffffffffffffffffffffffffffffffffffffffffffffffa185360301905b8484106110cb578a7fdd5a97c5099afb95d249eea641e04bf5c1eb4d3de2f68f1ee16affcda9e853a58b806110168d8d8382036101a0850152613adc565b73ffffffffffffffffffffffffffffffffffffffff61010051166101c083015260c05115156101e08301520390a160018101809111611098577fbc351ae7fa32df0c8ad57278243ae7d011e90d073629dfc92fda8e9f319c6fd5556110913361108460a05161014051612f9f565b61010051610120516133e5565b6101605180f35b7f4e487b710000000000000000000000000000000000000000000000000000000061016051526011600452602461016051fd5b909192939495977fffffffffffffffffffffffffffffffffffffffffffffffffffffffffffffffe082820301845288358381121561112857600191886111119201613e39565b986080510193608051019401929594939190610fd8565b6101605180fd5b809997995180519067ffffffffffffffff82116112a05761115a826111548854612d54565b8861318e565b608051906001601f8411146111d05782600194929385946111b09361016051926111c55750507fffffffffffffffffffffffffffffffffffffffffffffffffffffffffffffffff8260011b9260031b1c19161790565b86555b60805101940191019092989698610e7c565b015190503880610d40565b90866101605152608051610160512091610160515b7fffffffffffffffffffffffffffffffffffffffffffffffffffffffffffffffe085168110611287575092600194928594928593837fffffffffffffffffffffffffffffffffffffffffffffffffffffffffffffffe0811610611250575b505050811b0186556111b3565b01517fffffffffffffffffffffffffffffffffffffffffffffffffffffffffffffffff60f88460031b161c19169055388080611243565b81830151845560805160019094019392830192016111e5565b7f4e487b710000000000000000000000000000000000000000000000000000000061016051526041600452602461016051fd5b6007850161016051526080516101605120908382015b81830181106112f9575050610e5b565b80611305600192613ef0565b016112e9565b8051805180519067ffffffffffffffff82116112a0576113358261132f8754612d54565b8761318e565b608051906001601f8411146114e7579180916113869361016051926111c55750507fffffffffffffffffffffffffffffffffffffffffffffffffffffffffffffffff8260011b9260031b1c19161790565b83555b60805181015180519067ffffffffffffffff82116112a0576113bb826113b26001880154612d54565b6001880161318e565b608051906001601f84111461142f5792611414836001969460409460039761016051926111c55750507fffffffffffffffffffffffffffffffffffffffffffffffffffffffffffffffff8260011b9260031b1c19161790565b858701555b0151600285015560805101920193019290610e24565b907fffffffffffffffffffffffffffffffffffffffffffffffffffffffffffffffe0831691600187016101605152608051610160512092610160515b8181106114ce575093604093600396936001989693838a9510611498575b505050811b0185870155611419565b01517fffffffffffffffffffffffffffffffffffffffffffffffffffffffffffffffff60f8848a1b161c19169055388080611489565b828401518555608051600190950194938401930161146b565b907fffffffffffffffffffffffffffffffffffffffffffffffffffffffffffffffe0831691866101605152608051610160512092610160515b81811061157a5750908460019594939210611543575b505050811b018355611389565b01517fffffffffffffffffffffffffffffffffffffffffffffffffffffffffffffffff60f88460031b161c191690558f8080611536565b8284015185556080516001909501949384019301611520565b60038181020481036110985760038381020483036110985760068501610160515260805161016051208360030281015b82600302820181106115d6575050610e07565b806115e2600392613ef0565b600181016115f08154612d54565b80611607575b5050610160516002820155016115c3565b601f811160011461162157506101605190555b8e806115f6565b611645908261016051526001601f6080516101605120920160051c82019101613177565b6101608051829052608051905190812091819055905561161a565b015190508b80610d40565b919060018501610160515260805161016051209061016051935b7fffffffffffffffffffffffffffffffffffffffffffffffffffffffffffffffe0841685106117235760019450837fffffffffffffffffffffffffffffffffffffffffffffffffffffffffffffffe08116106116ec575b505050811b016001830155610d78565b01517fffffffffffffffffffffffffffffffffffffffffffffffffffffffffffffffff60f88460031b161c191690558a80806116dc565b8181015183556080519485019460019093019290910190611685565b813567ffffffffffffffff8111610336576060818701360312610336576040519061176982612cbd565b8087013567ffffffffffffffff81116103365761178b903690838a0101613239565b8252608051818801013567ffffffffffffffff811161033657818801019036601f83011215610336576117c8604092369080359060805101612f55565b608051840152870101356040820152815260805101906080510190610bf5565b7f4e487b7100000000000000000000000000000000000000000000000000000000600052604160045260246000fd5b60a05180fd5b60ff600261184361183d611832858988613254565b6080518101906132c5565b90613316565b015460a01c1660028110156102355715611a73576040611864828685613254565b01356118917fbc351ae7fa32df0c8ad57278243ae7d011e90d073629dfc92fda8e9f319c6fdc5442612f9f565b11611a495760406118a3828685613254565b013560e05111611a32575b6000806118bc838786613254565b60805181019061194861197473ffffffffffffffffffffffffffffffffffffffff60026118ff61183d8360016118f561183d8b8b6132c5565b01541697876132c5565b015416926040519283916080518301957f1e272e4c0000000000000000000000000000000000000000000000000000000087526024840152604060448401526064830190613e39565b037fffffffffffffffffffffffffffffffffffffffffffffffffffffffffffffffe08101835282612cd9565b51915af4611980613b53565b90156119d35761199c9060805181518201019060805101613e7f565b156119a9576001016107f7565b7f66e37c080000000000000000000000000000000000000000000000000000000060005260046000fd5b60646040517f9becf85d0000000000000000000000000000000000000000000000000000000081526080516004820152601660248201527f4c6962506f6f6c2e5f76616c69646174654576656e74000000000000000000006044820152fd5b6040611a3f828685613254565b013560e0526118ae565b7fcce559bd0000000000000000000000000000000000000000000000000000000060005260046000fd5b7f4aa91a460000000000000000000000000000000000000000000000000000000060005260046000fd5b81608051828601015260805101610653565b600160c09492945260028410611d475760c0518211611d1d57611ad18461307a565b93611adf6040519586612cd9565b80855260805185019060051b8201913683116103365780915b838310611cf057505050508260008215611cc3578535907fffffffffffffffffffffffffffffffffffffffffffffffffffffffffffffffa187360301821215611cc057506000918291870190611bdb611c0b60805184019361194873ffffffffffffffffffffffffffffffffffffffff6002611b9261183d83611b88611b7e8c896132c5565b60c0519291613316565b01541699866132c5565b015416946040519485936080518501977fd925ce500000000000000000000000000000000000000000000000000000000089526024860152606060448601526084850190613e39565b907fffffffffffffffffffffffffffffffffffffffffffffffffffffffffffffffdc848303016064850152613adc565b51915af4611c17613b53565b9015611c6157611c339060805181518201019060805101613e7f565b610697577f66e37c080000000000000000000000000000000000000000000000000000000060005260046000fd5b60646040517f9becf85d0000000000000000000000000000000000000000000000000000000081526080516004820152601860248201527f4c6962506f6f6c2e5f76616c69646174654f7074696f6e7300000000000000006044820152fd5b80fd5b807f4e487b7100000000000000000000000000000000000000000000000000000000602492526032600452fd5b823567ffffffffffffffff811161033657611d0e9036908401613239565b81526080519283019201611af8565b7f678c50c90000000000000000000000000000000000000000000000000000000060005260046000fd5b7f8ad443780000000000000000000000000000000000000000000000000000000060005260046000fd5b7f7b31d8c60000000000000000000000000000000000000000000000000000000060005260046000fd5b7fbf16aab60000000000000000000000000000000000000000000000000000000060005273ffffffffffffffffffffffffffffffffffffffff610100511660045260246000fd5b7fd92e233d0000000000000000000000000000000000000000000000000000000060005260046000fd5b346103365760207ffffffffffffffffffffffffffffffffffffffffffffffffffffffffffffffffc3601126103365760043560ff7f68721c0bbf2c02a4d65000340d1370666be06a630022208d4baa9bd7a4b6fea8541661030c577fbc351ae7fa32df0c8ad57278243ae7d011e90d073629dfc92fda8e9f319c6fd5548110156102b857806000527fbc351ae7fa32df0c8ad57278243ae7d011e90d073629dfc92fda8e9f319c6fcc602052611ec56040600020613381565b600781101561023557600381036102025750806000527fbc351ae7fa32df0c8ad57278243ae7d011e90d073629dfc92fda8e9f319c6fcc602052604060002060047fffffffffffffffffffffffffffffffffffffffffffffffffffffffffffffff00825416178155602091604051611f3d8482612cd9565b60009052815460081c60ff1661218f57600191600781016006820160005b815481101561218557611f6e8183612feb565b5060024291015411611a4957611fb0611f856130ea565b611faa611f9b611f958587612feb565b50613036565b611fa487613092565b90613b83565b9061335e565b611fbc57600101611f5b565b50505090915060005b1561217757611fd2613132565b905b60018101825167ffffffffffffffff81116117e857611ffd81611ff78454612d54565b8461318e565b85601f82116001146120af57916120718261209f95937f80f66fbf7ec17db9bc1a56585c52d733a369f41a93d2459c97cf644e9ac341e0999897956000916120a4575b507fffffffffffffffffffffffffffffffffffffffffffffffffffffffffffffffff8260011b9260031b1c19161790565b90555b60094291015560405193849384523390840152600460408401526080606084015260808301906131f6565b0390a1005b90508501518a612040565b7fffffffffffffffffffffffffffffffffffffffffffffffffffffffffffffffe082169083600052876000209160005b8181106121605750927f80f66fbf7ec17db9bc1a56585c52d733a369f41a93d2459c97cf644e9ac341e098979694926001928261209f989610612129575b5050811b019055612074565b8601517fffffffffffffffffffffffffffffffffffffffffffffffffffffffffffffffff60f88460031b161c19169055898061211d565b91928960018192868b0151815501940192016120df565b61217f6130ea565b90611fd4565b5050509091611fc5565b90600681016000908054156121bb5784826121af9261217f945220613036565b611fa460078401613092565b6024827f4e487b710000000000000000000000000000000000000000000000000000000081526032600452fd5b346103365760207ffffffffffffffffffffffffffffffffffffffffffffffffffffffffffffffffc3601126103365760043560ff7f68721c0bbf2c02a4d65000340d1370666be06a630022208d4baa9bd7a4b6fea8541661030c5760027f09acf4e54214992e70883cf7dcd6957ff2c71cd9e14df4bec4383bc0d11607dc54146102e25760027f09acf4e54214992e70883cf7dcd6957ff2c71cd9e14df4bec4383bc0d11607dc557fbc351ae7fa32df0c8ad57278243ae7d011e90d073629dfc92fda8e9f319c6fd5548110156102b8576122c290613a7e565b60017f09acf4e54214992e70883cf7dcd6957ff2c71cd9e14df4bec4383bc0d11607dc55005b346103365760807ffffffffffffffffffffffffffffffffffffffffffffffffffffffffffffffffc3601126103365760043560243567ffffffffffffffff81116103365761233a903690600401612c42565b909160443560643573ffffffffffffffffffffffffffffffffffffffff811681036103365760ff7f68721c0bbf2c02a4d65000340d1370666be06a630022208d4baa9bd7a4b6fea8541661030c577fbc351ae7fa32df0c8ad57278243ae7d011e90d073629dfc92fda8e9f319c6fd5548310156102b8576123bc368587612f55565b936123d1602095604051906101798883612cd9565b61028e57821561026457836000527fbc351ae7fa32df0c8ad57278243ae7d011e90d073629dfc92fda8e9f319c6fcc855261240f6040600020613381565b600781101561023557806102025750836000527fbc351ae7fa32df0c8ad57278243ae7d011e90d073629dfc92fda8e9f319c6fcc8552600460406000200154846000527fbc351ae7fa32df0c8ad57278243ae7d011e90d073629dfc92fda8e9f319c6fcf8652604060002061248536848a612f55565b878151910120600052865260ff604060002054161561028e576124a88482612f8c565b907fbc351ae7fa32df0c8ad57278243ae7d011e90d073629dfc92fda8e9f319c6fd65460006127106124da8385612f8c565b10611cc057507f2e5e91b93b8bcab4a74b1f1eedeab795674919d3d007fcc45dd28a2deed58f1d9861250f612a239284614033565b94886000527fbc351ae7fa32df0c8ad57278243ae7d011e90d073629dfc92fda8e9f319c6fcc8a52612a0361257d6002604060002001548b6000527fbc351ae7fa32df0c8ad57278243ae7d011e90d073629dfc92fda8e9f319c6fcc8d52600360406000200154908b6133ae565b978a6000527fbc351ae7fa32df0c8ad57278243ae7d011e90d073629dfc92fda8e9f319c6fcd8c52604060002073ffffffffffffffffffffffffffffffffffffffff33166000528c5260406000206125d6368587612f55565b8d81519101206000528c5260036040600020600181016125f78d8254612f9f565b9055600281016126088a8254612f9f565b9055016126168a8254612f9f565b90558a6000527fbc351ae7fa32df0c8ad57278243ae7d011e90d073629dfc92fda8e9f319c6fce8c52604060002073ffffffffffffffffffffffffffffffffffffffff33166000528c5260016040600020016126738b8254612f9f565b90558a6000527fbc351ae7fa32df0c8ad57278243ae7d011e90d073629dfc92fda8e9f319c6fce8c52604060002073ffffffffffffffffffffffffffffffffffffffff33166000528c5260026040600020016126d0888254612f9f565b90558a6000527fbc351ae7fa32df0c8ad57278243ae7d011e90d073629dfc92fda8e9f319c6fce8c52604060002073ffffffffffffffffffffffffffffffffffffffff33166000528c52600360406000200161272d8a8254612f9f565b90558a6000527fbc351ae7fa32df0c8ad57278243ae7d011e90d073629dfc92fda8e9f319c6fcf8c526040600020612766368587612f55565b8d81519101206000528c5260016040600020016127848b8254612f9f565b90558a6000527fbc351ae7fa32df0c8ad57278243ae7d011e90d073629dfc92fda8e9f319c6fcf8c5260406000206127bd368587612f55565b8d81519101206000528c5260026040600020016127db888254612f9f565b90558a6000527fbc351ae7fa32df0c8ad57278243ae7d011e90d073629dfc92fda8e9f319c6fcf8c526040600020612814368587612f55565b8d81519101206000528c5260036040600020016128328a8254612f9f565b90558a6000527fbc351ae7fa32df0c8ad57278243ae7d011e90d073629dfc92fda8e9f319c6fd08c52604060002061286b8b8254612f9f565b90558a6000527fbc351ae7fa32df0c8ad57278243ae7d011e90d073629dfc92fda8e9f319c6fd08c5260016040600020016128a7888254612f9f565b905560008b81527fbc351ae7fa32df0c8ad57278243ae7d011e90d073629dfc92fda8e9f319c6fcc8d5260408082206005015473ffffffffffffffffffffffffffffffffffffffff1682527fbc351ae7fa32df0c8ad57278243ae7d011e90d073629dfc92fda8e9f319c6fd46020529020600101612926898254612f9f565b90558a6000527fbc351ae7fa32df0c8ad57278243ae7d011e90d073629dfc92fda8e9f319c6fcc8c5261298473ffffffffffffffffffffffffffffffffffffffff60056040600020015416339061297d8a8c612f9f565b90846133e5565b8a6000527fbc351ae7fa32df0c8ad57278243ae7d011e90d073629dfc92fda8e9f319c6fcc8c5273ffffffffffffffffffffffffffffffffffffffff60056040600020015416908b6000527fbc351ae7fa32df0c8ad57278243ae7d011e90d073629dfc92fda8e9f319c6fcc8d5260036040600020015491339161374f565b604051998a998a5233908a015261010060408a0152610100890191612fac565b946060870152608086015260a085015260c084015260e08301520390a1005b346103365760207ffffffffffffffffffffffffffffffffffffffffffffffffffffffffffffffffc3601126103365760043560ff7f68721c0bbf2c02a4d65000340d1370666be06a630022208d4baa9bd7a4b6fea8541661030c577fbc351ae7fa32df0c8ad57278243ae7d011e90d073629dfc92fda8e9f319c6fd5548110156102b857806000527fbc351ae7fa32df0c8ad57278243ae7d011e90d073629dfc92fda8e9f319c6fcc60205260406000209060405190612b03602083612cd9565b60008252612b186001840192611faa84612da7565b612c185760ff835416600781101561023557600581141580612c0d575b6102025750612b48600984015442612e77565b7fbc351ae7fa32df0c8ad57278243ae7d011e90d073629dfc92fda8e9f319c6fde5411612be3577f9b327a4ca612250b263fec35bd1093e1750b5245b99e30ced83d74c5d477ce009260017fffffffffffffffffffffffffffffffffffffffffffffffffffffffffffffff0082541617905561209f604051928392835233602084015260016040840152608060608401526080830190612eb3565b7f7ffb829d0000000000000000000000000000000000000000000000000000000060005260046000fd5b506004811415612b35565b7fc74a206d0000000000000000000000000000000000000000000000000000000060005260046000fd5b9181601f840112156103365782359167ffffffffffffffff8311610336576020838186019501011161033657565b9181601f840112156103365782359167ffffffffffffffff8311610336576020808501948460051b01011161033657565b6080810190811067ffffffffffffffff8211176117e857604052565b6060810190811067ffffffffffffffff8211176117e857604052565b90601f7fffffffffffffffffffffffffffffffffffffffffffffffffffffffffffffffe0910116810190811067ffffffffffffffff8211176117e857604052565b67ffffffffffffffff81116117e857601f017fffffffffffffffffffffffffffffffffffffffffffffffffffffffffffffffe01660200190565b90600182811c92168015612d9d575b6020831014612d6e57565b7f4e487b7100000000000000000000000000000000000000000000000000000000600052602260045260246000fd5b91607f1691612d63565b9060405191826000825492612dbb84612d54565b8084529360018116908115612e295750600114612de2575b50612de092500383612cd9565b565b90506000929192526020600020906000915b818310612e0d575050906020612de09282010138612dd3565b6020919350806001915483858901015201910190918492612df4565b60209350612de09592507fffffffffffffffffffffffffffffffffffffffffffffffffffffffffffffff0091501682840152151560051b82010138612dd3565b600781101561023557600452565b91908203918211612e8457565b7f4e487b7100000000000000000000000000000000000000000000000000000000600052601160045260246000fd5b60009291815491612ec383612d54565b8083529260018116908115612f195750600114612edf57505050565b60009081526020812093945091925b838310612eff575060209250010190565b600181602092949394548385870101520191019190612eee565b905060209495507fffffffffffffffffffffffffffffffffffffffffffffffffffffffffffffff0091509291921683830152151560051b010190565b929192612f6182612d1a565b91612f6f6040519384612cd9565b829481845281830111610336578281602093846000960137010152565b81810292918115918404141715612e8457565b91908201809211612e8457565b601f82602094937fffffffffffffffffffffffffffffffffffffffffffffffffffffffffffffffe0938186528686013760008582860101520116010190565b8054821015613007576000526003602060002091020190600090565b7f4e487b7100000000000000000000000000000000000000000000000000000000600052603260045260246000fd5b9060405161304381612cbd565b60406002829461305281612da7565b8452825161306e816130678160018601612eb3565b0382612cd9565b60208501520154910152565b67ffffffffffffffff81116117e85760051b60200190565b90815461309e8161307a565b926130ac6040519485612cd9565b818452602084019060005260206000206000915b8383106130cd5750505050565b6001602081926130dc85612da7565b8152019201920191906130c0565b604051602080820152600260408201527f6e6f00000000000000000000000000000000000000000000000000000000000060608201526060815261312f608082612cd9565b90565b604051602080820152600360408201527f796573000000000000000000000000000000000000000000000000000000000060608201526060815261312f608082612cd9565b818110613182575050565b60008155600101613177565b9190601f811161319d57505050565b612de0926000526020600020906020601f840160051c830193106131c9575b601f0160051c0190613177565b90915081906131bc565b60005b8381106131e65750506000910152565b81810151838201526020016131d6565b907fffffffffffffffffffffffffffffffffffffffffffffffffffffffffffffffe0601f602093613232815180928187528780880191016131d3565b0116010190565b9080601f830112156103365781602061312f93359101612f55565b91908110156130075760051b810135907fffffffffffffffffffffffffffffffffffffffffffffffffffffffffffffffa181360301821215610336570190565b8051156130075760200190565b8051600110156130075760400190565b80518210156130075760209160051b010190565b9035907fffffffffffffffffffffffffffffffffffffffffffffffffffffffffffffffe181360301821215610336570180359067ffffffffffffffff82116103365760200191813603831361033657565b60209082604051938492833781017fba07f9bdb83529457286bae2254b67a516d5fac42a7c08e76b28b1c094cd2f2681520301902090565b91908110156130075760051b0190565b805190825191828103613378576020809201209201201490565b50505050600090565b60ff81541690600782101561023557811561339a575090565b600301544210156133a85790565b50600390565b908042146133dc5761312f926133d16133d7926133cb4284612e77565b92612e77565b90613f3f565b612f8c565b50505061271090565b6000939073ffffffffffffffffffffffffffffffffffffffff16806135d557509073ffffffffffffffffffffffffffffffffffffffff1690604051907f70a08231000000000000000000000000000000000000000000000000000000008252306004830152602082602481865afa9182156135ca579084918693613591575b50926134d96020926134d36024966119486040519384927f23b872dd000000000000000000000000000000000000000000000000000000008985015230908b850173ffffffffffffffffffffffffffffffffffffffff6040929594938160608401971683521660208201520152565b82614955565b604051938480927f70a082310000000000000000000000000000000000000000000000000000000082523060048301525afa8015613586578490613552575b6135229250612e77565b0361352a5750565b807fc7e8fc500000000000000000000000000000000000000000000000000000000060049252fd5b506020823d60201161357e575b8161356c60209383612cd9565b81010312610336576135229151613518565b3d915061355f565b6040513d86823e3d90fd5b915091506020813d6020116135c2575b816135ae60209383612cd9565b8101031261033657519083906134d9613464565b3d91506135a1565b6040513d87823e3d90fd5b73ffffffffffffffffffffffffffffffffffffffff831691604051937f70a08231000000000000000000000000000000000000000000000000000000008552306004860152602085602481875afa948515613744578795613710575b50823b1561370c576040517f9865a1d300000000000000000000000000000000000000000000000000000000815273ffffffffffffffffffffffffffffffffffffffff918216600482015291166024820152604481018590529085908290606490829084905af180156135ca576136f2575b50906020602492604051938480927f70a082310000000000000000000000000000000000000000000000000000000082523060048301525afa8015613586578490613552576135229250612e77565b846137036024949396602093612cd9565b949192506136a3565b8680fd5b9094506020813d60201161373c575b8161372c60209383612cd9565b8101031261370c57519338613631565b3d915061371f565b6040513d89823e3d90fd5b929173ffffffffffffffffffffffffffffffffffffffff60009416613a785760409284806119486137eb87516137858982612cd9565b600d81527f5f7374616b6541697244726f7000000000000000000000000000000000000000602082015288519283917f41304fac0000000000000000000000000000000000000000000000000000000060208401526020602484015260448301906131f6565b6020815191016a636f6e736f6c652e6c6f675afa506138507fb4e10a4811f331e910bbd821832ab85ed1158088534d96bdd9d92f6de8be79855461382e81614196565b61384061383b4283612f9f565b614196565b61384983614196565b4290612f9f565b11613a785761389e8173ffffffffffffffffffffffffffffffffffffffff166000527fb4e10a4811f331e910bbd821832ab85ed1158088534d96bdd9d92f6de8be7984602052604060002090565b73ffffffffffffffffffffffffffffffffffffffff83168552602052828420547fb4e10a4811f331e910bbd821832ab85ed1158088534d96bdd9d92f6de8be7983541115613a785761392f8173ffffffffffffffffffffffffffffffffffffffff166000527fb4e10a4811f331e910bbd821832ab85ed1158088534d96bdd9d92f6de8be7984602052604060002090565b73ffffffffffffffffffffffffffffffffffffffff8316855260205282842080549060018201809211613a4b575573ffffffffffffffffffffffffffffffffffffffff7fb4e10a4811f331e910bbd821832ab85ed1158088534d96bdd9d92f6de8be79825416907fb4e10a4811f331e910bbd821832ab85ed1158088534d96bdd9d92f6de8be79815492823b15613a475784517fb3db428b00000000000000000000000000000000000000000000000000000000815273ffffffffffffffffffffffffffffffffffffffff918216600482015291166024820152604481019290925290919083908390606490829084905af1908115613a3e5750613a31575050565b81613a3b91612cd9565b50565b513d84823e3d90fd5b8580fd5b6024867f4e487b710000000000000000000000000000000000000000000000000000000081526011600452fd5b50505050565b806000527fbc351ae7fa32df0c8ad57278243ae7d011e90d073629dfc92fda8e9f319c6fcc60205260ff6040600020541660078110156102355760018103613aca5750612de090614450565b600281036102025750612de0906141ef565b9080602083519182815201916020808360051b8301019401926000915b838310613b0857505050505090565b9091929394602080613b44837fffffffffffffffffffffffffffffffffffffffffffffffffffffffffffffffe0866001960301875289516131f6565b97019301930191939290613af9565b3d15613b7e573d90613b6482612d1a565b91613b726040519384612cd9565b82523d6000602084013e565b606090565b600091908291613cd4613d0b6020840161194873ffffffffffffffffffffffffffffffffffffffff6001613bc76020855181604051938285809451938492016131d3565b81017fba07f9bdb83529457286bae2254b67a516d5fac42a7c08e76b28b1c094cd2f268152030190200154169573ffffffffffffffffffffffffffffffffffffffff6002613c256020865181604051938285809451938492016131d3565b81017fba07f9bdb83529457286bae2254b67a516d5fac42a7c08e76b28b1c094cd2f26815203019020015416956040805196879560208701997f164cf76b000000000000000000000000000000000000000000000000000000008b52602488015260606044880152613ca38551606060848a015260e48901906131f6565b90517fffffffffffffffffffffffffffffffffffffffffffffffffffffffffffffff7c8883030160a48901526131f6565b92015160c48501527fffffffffffffffffffffffffffffffffffffffffffffffffffffffffffffffdc848303016064850152613adc565b51915af4613d17613b53565b9015613d8b5780518101906020818184019303126103365760208101519067ffffffffffffffff8211610336570181603f82011215610336576020810151613d5e81612d1a565b92613d6c6040519485612cd9565b818452604083830101116103365761312f9160406020850191016131d3565b60646040517f9becf85d00000000000000000000000000000000000000000000000000000000815260206004820152601560248201527f4c6962506f6f6c2e5f7265736f6c76654576656e7400000000000000000000006044820152fd5b90357fffffffffffffffffffffffffffffffffffffffffffffffffffffffffffffffe18236030181121561033657016020813591019167ffffffffffffffff821161033657813603831361033657565b90604080613e76613e5b613e4d8680613de9565b606087526060870191612fac565b613e686020870187613de9565b908683036020880152612fac565b93013591015290565b90816020910312610336575180151581036103365790565b906060600391613ed581511515859060ff7fffffffffffffffffffffffffffffffffffffffffffffffffffffffffffffff0083541691151516179055565b60208101516001850155604081015160028501550151910155565b613efa8154612d54565b9081613f04575050565b81601f60009311600114613f16575055565b81835260208320613f3291601f0160051c810190600101613177565b8082528160208120915555565b908161271002907fffffffffffffffffffffffffffffffffffffffffffffffffffffffffffffffff836127100992828085109403938085039414613ff75783821115613fde57819061271009816000038216809204600281600302188082026002030280820260020302808202600203028082026002030280820260020302809102600203029360018380600003040190848311900302920304170290565b50634e487b71600052156003026011186020526024601cfd5b5080925015614004570490565b7f4e487b7100000000000000000000000000000000000000000000000000000000600052601260045260246000fd5b9190916000838202917fffffffffffffffffffffffffffffffffffffffffffffffffffffffffffffffff858209918380841093039280840393146140c9578261271011156140b757507fbc01a36e2eb1c432ca57a786c226809d495182a9930be0ded288ce703afb7e919394612710910990828211900360fc1b910360041c170290565b634e487b71905260116020526024601cfd5b5050506127109192500490565b91818302917fffffffffffffffffffffffffffffffffffffffffffffffffffffffffffffffff81850993838086109503948086039514614188578483111561416f5790829109816000038216809204600281600302188082026002030280820260020302808202600203028082026002030280820260020302809102600203029360018380600003040190848311900302920304170290565b82634e487b71600052156003026011186020526024601cfd5b505080925015614004570490565b60008091604051907ff82c50f10000000000000000000000000000000000000000000000000000000060208301526024820152602481526141d8604482612cd9565b6020815191016a636f6e736f6c652e6c6f675afa50565b806000527fbc351ae7fa32df0c8ad57278243ae7d011e90d073629dfc92fda8e9f319c6fcc6020526040600020816000527fbc351ae7fa32df0c8ad57278243ae7d011e90d073629dfc92fda8e9f319c6fce602052604060002073ffffffffffffffffffffffffffffffffffffffff33166000526020526001604060002001541561442657816000527fbc351ae7fa32df0c8ad57278243ae7d011e90d073629dfc92fda8e9f319c6fce602052604060002073ffffffffffffffffffffffffffffffffffffffff331660005260205260ff604060002054166143fc57816080917f7e2290278bab7591c02e1cee107f6eb5778796e4f991856e11ffc09bf8b818d0936000527fbc351ae7fa32df0c8ad57278243ae7d011e90d073629dfc92fda8e9f319c6fce602052604060002073ffffffffffffffffffffffffffffffffffffffff3316600052602052604060002060017fffffffffffffffffffffffffffffffffffffffffffffffffffffffffffffff00825416179055816000527fbc351ae7fa32df0c8ad57278243ae7d011e90d073629dfc92fda8e9f319c6fce602052604060002073ffffffffffffffffffffffffffffffffffffffff33166000526020526143e1600260406000200154918273ffffffffffffffffffffffffffffffffffffffff6005339301541661468a565b604051918252336020830152600060408301526060820152a1565b7f924260f10000000000000000000000000000000000000000000000000000000060005260046000fd5b7f3110f1d80000000000000000000000000000000000000000000000000000000060005260046000fd5b806000527fbc351ae7fa32df0c8ad57278243ae7d011e90d073629dfc92fda8e9f319c6fcc602052604060002060209160405161448d8482612cd9565b600081526144a26001840191611faa83612da7565b612c1857816000527fbc351ae7fa32df0c8ad57278243ae7d011e90d073629dfc92fda8e9f319c6fcf845260406000206144db82612da7565b85815191012060005284526003604060002001541561467d5760008281527fbc351ae7fa32df0c8ad57278243ae7d011e90d073629dfc92fda8e9f319c6fce8552604080822033835286529020600101541561442657816000527fbc351ae7fa32df0c8ad57278243ae7d011e90d073629dfc92fda8e9f319c6fcd8452604060002073ffffffffffffffffffffffffffffffffffffffff33166000528452614587604060002091612da7565b848151910120600052835260406000209182549260ff84166143fc57600181015415614653577f7e2290278bab7591c02e1cee107f6eb5778796e4f991856e11ffc09bf8b818d09460017fffffffffffffffffffffffffffffffffffffffffffffffffffffffffffffff006080961617825561463b614618600261460f60038601548861483f565b94015484612f9f565b938473ffffffffffffffffffffffffffffffffffffffff6005339301541661468a565b604051938452339084015260408301526060820152a1565b7f907643880000000000000000000000000000000000000000000000000000000060005260046000fd5b509050612de091506141ef565b73ffffffffffffffffffffffffffffffffffffffff909291921690604051907f70a08231000000000000000000000000000000000000000000000000000000008252306004830152602082602481865afa9182156147fe5760009261480a575b5060249261474c60209273ffffffffffffffffffffffffffffffffffffffff604051917fa9059cbb00000000000000000000000000000000000000000000000000000000868401521686820152866044820152604481526134d3606482612cd9565b604051938480927f70a082310000000000000000000000000000000000000000000000000000000082523060048301525afa9081156147fe576000916147c8575b6147979250612e77565b0361479e57565b7fc7e8fc500000000000000000000000000000000000000000000000000000000060005260046000fd5b90506020823d6020116147f6575b816147e360209383612cd9565b810103126103365761479791519061478d565b3d91506147d6565b6040513d6000823e3d90fd5b9091506020813d602011614837575b8161482660209383612cd9565b8101031261033657519060246146ea565b3d9150614819565b90816000527fbc351ae7fa32df0c8ad57278243ae7d011e90d073629dfc92fda8e9f319c6fcc602052604060002090826000527fbc351ae7fa32df0c8ad57278243ae7d011e90d073629dfc92fda8e9f319c6fcf602052600160406000209201916148a983612da7565b6020815191012060005260205260036040600020015491821561337857836149509161312f956000527fbc351ae7fa32df0c8ad57278243ae7d011e90d073629dfc92fda8e9f319c6fcf602052614904604060002091612da7565b60208151910120600052602052600260406000200154906000527fbc351ae7fa32df0c8ad57278243ae7d011e90d073629dfc92fda8e9f319c6fd0602052600160406000200154612e77565b6140d6565b906000602091828151910182855af1156147fe576000513d6149d7575073ffffffffffffffffffffffffffffffffffffffff81163b155b6149935750565b73ffffffffffffffffffffffffffffffffffffffff907f5274afe7000000000000000000000000000000000000000000000000000000006000521660045260246000fd5b6001141561498c56fea264697066735822122050415a2efdbc69aad9eb0a4be880e2f4089af606af0836011c1e8163e6d17ae764736f6c634300081c0033",
  "linkReferences": {},
  "deployedLinkReferences": {}
}