{
  "_format": "hh-sol-artifact-1",
  "contractName": "ChallengePoolHandler",
  "sourceName": "contracts/modules/ChallengePoolHandler.sol",
  "abi": [
    {
      "inputs": [
        {
          "internalType": "enum IChallengePool.ChallengeState",
          "name": "_state",
          "type": "uint8"
        }
      ],
      "name": "ActionNotAllowedForState",
      "type": "error"
    },
    {
      "inputs": [],
      "name": "BelowMinPrie",
      "type": "error"
    },
    {
      "inputs": [],
      "name": "DeadlineExceeded",
      "type": "error"
    },
    {
      "inputs": [
        {
          "internalType": "string",
          "name": "_functionName",
          "type": "string"
        }
      ],
      "name": "DelegateCallFailed",
      "type": "error"
    },
    {
      "inputs": [],
      "name": "DisputePeriodElapsed",
      "type": "error"
    },
    {
      "inputs": [],
      "name": "EmptyBytes",
      "type": "error"
    },
    {
      "inputs": [],
      "name": "EmptyString",
      "type": "error"
    },
    {
      "inputs": [
        {
          "internalType": "uint256",
          "name": "_requested",
          "type": "uint256"
        },
        {
          "internalType": "uint256",
          "name": "_available",
          "type": "uint256"
        }
      ],
      "name": "InsufficientStakes",
      "type": "error"
    },
    {
      "inputs": [],
      "name": "InvalidChallenge",
      "type": "error"
    },
    {
      "inputs": [],
      "name": "InvalidEventLength",
      "type": "error"
    },
    {
      "inputs": [],
      "name": "InvalidEventMaturity",
      "type": "error"
    },
    {
      "inputs": [],
      "name": "InvalidEventParam",
      "type": "error"
    },
    {
      "inputs": [],
      "name": "InvalidEventTopic",
      "type": "error"
    },
    {
      "inputs": [],
      "name": "InvalidOptionsLength",
      "type": "error"
    },
    {
      "inputs": [],
      "name": "InvalidOutcome",
      "type": "error"
    },
    {
      "inputs": [],
      "name": "InvalidPoolOption",
      "type": "error"
    },
    {
      "inputs": [],
      "name": "InvalidPrediction",
      "type": "error"
    },
    {
      "inputs": [],
      "name": "MaxPriceExceeded",
      "type": "error"
    },
    {
      "inputs": [],
      "name": "PlayerAlreadyDisputed",
      "type": "error"
    },
    {
      "inputs": [],
      "name": "PlayerAlreadyReleased",
      "type": "error"
    },
    {
      "inputs": [],
      "name": "PlayerAlreadyWithdrawn",
      "type": "error"
    },
    {
      "inputs": [],
      "name": "PlayerDidNotDispute",
      "type": "error"
    },
    {
      "inputs": [],
      "name": "PlayerDidNotWinPool",
      "type": "error"
    },
    {
      "inputs": [],
      "name": "PlayerNotInPool",
      "type": "error"
    },
    {
      "inputs": [],
      "name": "ProtocolInvariantCheckFailed",
      "type": "error"
    },
    {
      "inputs": [
        {
          "internalType": "address",
          "name": "token",
          "type": "address"
        }
      ],
      "name": "SafeERC20FailedOperation",
      "type": "error"
    },
    {
      "inputs": [],
      "name": "StakeLowerThanMinimum",
      "type": "error"
    },
    {
      "inputs": [
        {
          "internalType": "address",
          "name": "_token",
          "type": "address"
        }
      ],
      "name": "UnsupportedToken",
      "type": "error"
    },
    {
      "inputs": [],
      "name": "ZeroAddress",
      "type": "error"
    },
    {
      "inputs": [],
      "name": "ZeroNumber",
      "type": "error"
    },
    {
      "anonymous": false,
      "inputs": [
        {
          "indexed": true,
          "internalType": "uint256",
          "name": "challengeId",
          "type": "uint256"
        },
        {
          "indexed": true,
          "internalType": "address",
          "name": "canceller",
          "type": "address"
        },
        {
          "indexed": false,
          "internalType": "enum IChallengePool.ChallengeState",
          "name": "state",
          "type": "uint8"
        }
      ],
      "name": "CancelChallenge",
      "type": "event"
    },
    {
      "anonymous": false,
      "inputs": [
        {
          "indexed": true,
          "internalType": "uint256",
          "name": "challengeId",
          "type": "uint256"
        },
        {
          "indexed": true,
          "internalType": "address",
          "name": "closer",
          "type": "address"
        },
        {
          "indexed": false,
          "internalType": "enum IChallengePool.ChallengeState",
          "name": "state",
          "type": "uint8"
        },
        {
          "indexed": false,
          "internalType": "bytes",
          "name": "result",
          "type": "bytes"
        }
      ],
      "name": "CloseChallenge",
      "type": "event"
    },
    {
      "anonymous": false,
      "inputs": [
        {
          "indexed": true,
          "internalType": "uint256",
          "name": "challengeId",
          "type": "uint256"
        },
        {
          "indexed": true,
          "internalType": "address",
          "name": "disputor",
          "type": "address"
        },
        {
          "indexed": false,
          "internalType": "enum IChallengePool.ChallengeState",
          "name": "state",
          "type": "uint8"
        },
        {
          "indexed": false,
          "internalType": "bytes",
          "name": "result",
          "type": "bytes"
        },
        {
          "indexed": false,
          "internalType": "uint256",
          "name": "amount",
          "type": "uint256"
        }
      ],
      "name": "DisputeOutcome",
      "type": "event"
    },
    {
      "anonymous": false,
      "inputs": [
        {
          "indexed": true,
          "internalType": "uint256",
          "name": "challengeId",
          "type": "uint256"
        },
        {
          "indexed": true,
          "internalType": "address",
          "name": "disputor",
          "type": "address"
        },
        {
          "indexed": false,
          "internalType": "enum IChallengePool.ChallengeState",
          "name": "state",
          "type": "uint8"
        },
        {
          "indexed": false,
          "internalType": "bytes",
          "name": "result",
          "type": "bytes"
        },
        {
          "indexed": false,
          "internalType": "uint256",
          "name": "amount",
          "type": "uint256"
        }
      ],
      "name": "DisputeReleased",
      "type": "event"
    },
    {
      "anonymous": false,
      "inputs": [
        {
          "indexed": true,
          "internalType": "uint256",
          "name": "challengeId",
          "type": "uint256"
        },
        {
          "indexed": true,
          "internalType": "address",
          "name": "evaluator",
          "type": "address"
        },
        {
          "indexed": false,
          "internalType": "enum IChallengePool.ChallengeState",
          "name": "state",
          "type": "uint8"
        },
        {
          "indexed": false,
          "internalType": "bytes",
          "name": "result",
          "type": "bytes"
        }
      ],
      "name": "EvaluateChallenge",
      "type": "event"
    },
    {
      "anonymous": false,
      "inputs": [
        {
          "indexed": true,
          "internalType": "uint256",
          "name": "challengeId",
          "type": "uint256"
        },
        {
          "indexed": true,
          "internalType": "address",
          "name": "creator",
          "type": "address"
        },
        {
          "indexed": false,
          "internalType": "uint256",
          "name": "createdAt",
          "type": "uint256"
        },
        {
          "indexed": false,
          "internalType": "uint256",
          "name": "maturity",
          "type": "uint256"
        },
        {
          "indexed": false,
          "internalType": "enum IChallengePool.ChallengeState",
          "name": "state",
          "type": "uint8"
        },
        {
          "indexed": false,
          "internalType": "bytes",
          "name": "result",
          "type": "bytes"
        },
        {
          "indexed": false,
          "internalType": "uint256",
          "name": "basePrice",
          "type": "uint256"
        },
        {
          "indexed": false,
          "internalType": "uint256",
          "name": "fee",
          "type": "uint256"
        },
        {
          "indexed": false,
          "internalType": "uint256",
          "name": "totalStakes",
          "type": "uint256"
        },
        {
          "indexed": false,
          "internalType": "bytes",
          "name": "prediction",
          "type": "bytes"
        },
        {
          "components": [
            {
              "internalType": "bytes",
              "name": "params",
              "type": "bytes"
            },
            {
              "internalType": "string",
              "name": "topicId",
              "type": "string"
            },
            {
              "internalType": "uint256",
              "name": "maturity",
              "type": "uint256"
            }
          ],
          "indexed": false,
          "internalType": "struct IChallengePool.ChallengeEvent[]",
          "name": "events",
          "type": "tuple[]"
        },
        {
          "indexed": false,
          "internalType": "bytes[]",
          "name": "options",
          "type": "bytes[]"
        },
        {
          "indexed": false,
          "internalType": "address",
          "name": "stakeToken",
          "type": "address"
        },
        {
          "indexed": false,
          "internalType": "address",
          "name": "paymaster",
          "type": "address"
        }
      ],
      "name": "NewChallenge",
      "type": "event"
    },
    {
      "anonymous": false,
      "inputs": [
        {
          "indexed": true,
          "internalType": "bytes32",
          "name": "role",
          "type": "bytes32"
        },
        {
          "indexed": true,
          "internalType": "bytes32",
          "name": "previousAdminRole",
          "type": "bytes32"
        },
        {
          "indexed": true,
          "internalType": "bytes32",
          "name": "newAdminRole",
          "type": "bytes32"
        }
      ],
      "name": "RoleAdminChanged",
      "type": "event"
    },
    {
      "anonymous": false,
      "inputs": [
        {
          "indexed": true,
          "internalType": "bytes32",
          "name": "role",
          "type": "bytes32"
        },
        {
          "indexed": true,
          "internalType": "address",
          "name": "account",
          "type": "address"
        },
        {
          "indexed": true,
          "internalType": "address",
          "name": "sender",
          "type": "address"
        }
      ],
      "name": "RoleGranted",
      "type": "event"
    },
    {
      "anonymous": false,
      "inputs": [
        {
          "indexed": true,
          "internalType": "bytes32",
          "name": "role",
          "type": "bytes32"
        },
        {
          "indexed": true,
          "internalType": "address",
          "name": "account",
          "type": "address"
        },
        {
          "indexed": true,
          "internalType": "address",
          "name": "sender",
          "type": "address"
        }
      ],
      "name": "RoleRevoked",
      "type": "event"
    },
    {
      "anonymous": false,
      "inputs": [
        {
          "indexed": true,
          "internalType": "uint256",
          "name": "challengeId",
          "type": "uint256"
        },
        {
          "indexed": true,
          "internalType": "address",
          "name": "disputor",
          "type": "address"
        },
        {
          "indexed": false,
          "internalType": "enum IChallengePool.ChallengeState",
          "name": "state",
          "type": "uint8"
        },
        {
          "indexed": false,
          "internalType": "bytes",
          "name": "result",
          "type": "bytes"
        },
        {
          "indexed": false,
          "internalType": "uint256",
          "name": "amount",
          "type": "uint256"
        }
      ],
      "name": "SettleDispute",
      "type": "event"
    },
    {
      "anonymous": false,
      "inputs": [
        {
          "indexed": true,
          "internalType": "uint256",
          "name": "challengeId",
          "type": "uint256"
        },
        {
          "indexed": true,
          "internalType": "address",
          "name": "participant",
          "type": "address"
        },
        {
          "indexed": false,
          "internalType": "bytes",
          "name": "option",
          "type": "bytes"
        },
        {
          "indexed": false,
          "internalType": "uint256",
          "name": "stakes",
          "type": "uint256"
        },
        {
          "indexed": false,
          "internalType": "uint256",
          "name": "amount",
          "type": "uint256"
        },
        {
          "indexed": false,
          "internalType": "uint256",
          "name": "fee",
          "type": "uint256"
        }
      ],
      "name": "Stake",
      "type": "event"
    },
    {
      "anonymous": false,
      "inputs": [
        {
          "indexed": true,
          "internalType": "uint256",
          "name": "challengeId",
          "type": "uint256"
        },
        {
          "indexed": true,
          "internalType": "address",
          "name": "participant",
          "type": "address"
        },
        {
          "indexed": false,
          "internalType": "uint256",
          "name": "amountWon",
          "type": "uint256"
        },
        {
          "indexed": false,
          "internalType": "uint256",
          "name": "amountWithdrawn",
          "type": "uint256"
        }
      ],
      "name": "WinningsWithdrawn",
      "type": "event"
    },
    {
      "anonymous": false,
      "inputs": [
        {
          "indexed": true,
          "internalType": "uint256",
          "name": "challengeId",
          "type": "uint256"
        },
        {
          "indexed": true,
          "internalType": "address",
          "name": "participant",
          "type": "address"
        },
        {
          "indexed": false,
          "internalType": "bytes",
          "name": "option",
          "type": "bytes"
        },
        {
          "indexed": false,
          "internalType": "uint256",
          "name": "stakes",
          "type": "uint256"
        },
        {
          "indexed": false,
          "internalType": "uint256",
          "name": "amount",
          "type": "uint256"
        },
        {
          "indexed": false,
          "internalType": "uint256",
          "name": "fee",
          "type": "uint256"
        }
      ],
      "name": "Withdraw",
      "type": "event"
    },
    {
      "inputs": [
        {
          "internalType": "uint256[]",
          "name": "_challengeIds",
          "type": "uint256[]"
        }
      ],
      "name": "bulkWithdraw",
      "outputs": [],
      "stateMutability": "nonpayable",
      "type": "function"
    },
    {
      "inputs": [
        {
          "components": [
            {
              "internalType": "bytes",
              "name": "params",
              "type": "bytes"
            },
            {
              "internalType": "string",
              "name": "topicId",
              "type": "string"
            },
            {
              "internalType": "uint256",
              "name": "maturity",
              "type": "uint256"
            }
          ],
          "internalType": "struct IChallengePool.ChallengeEvent[]",
          "name": "_events",
          "type": "tuple[]"
        },
        {
          "internalType": "bytes[]",
          "name": "_options",
          "type": "bytes[]"
        },
        {
          "internalType": "address",
          "name": "_stakeToken",
          "type": "address"
        },
        {
          "internalType": "bytes",
          "name": "_prediction",
          "type": "bytes"
        },
        {
          "internalType": "uint256",
          "name": "_quantity",
          "type": "uint256"
        },
        {
          "internalType": "uint256",
          "name": "_basePrice",
          "type": "uint256"
        },
        {
          "internalType": "address",
          "name": "_paymaster",
          "type": "address"
        }
      ],
      "name": "createChallenge",
      "outputs": [],
      "stateMutability": "nonpayable",
      "type": "function"
    },
    {
      "inputs": [
        {
          "internalType": "uint256",
          "name": "_challengeId",
          "type": "uint256"
        },
        {
          "internalType": "bytes",
          "name": "_prediction",
          "type": "bytes"
        },
        {
          "internalType": "uint256",
          "name": "_quantity",
          "type": "uint256"
        },
        {
          "internalType": "uint256",
          "name": "_minPrice",
          "type": "uint256"
        },
        {
          "internalType": "uint256",
          "name": "_deadline",
          "type": "uint256"
        }
      ],
      "name": "earlyWithdraw",
      "outputs": [],
      "stateMutability": "nonpayable",
      "type": "function"
    },
    {
      "inputs": [
        {
          "internalType": "uint256",
          "name": "_challengeId",
          "type": "uint256"
        }
      ],
      "name": "getChallenge",
      "outputs": [
        {
          "components": [
            {
              "internalType": "enum IChallengePool.ChallengeState",
              "name": "state",
              "type": "uint8"
            },
            {
              "internalType": "bool",
              "name": "multi",
              "type": "bool"
            },
            {
              "internalType": "bytes",
              "name": "outcome",
              "type": "bytes"
            },
            {
              "internalType": "uint256",
              "name": "totalStakes",
              "type": "uint256"
            },
            {
              "internalType": "uint256",
              "name": "createdAt",
              "type": "uint256"
            },
            {
              "internalType": "uint256",
              "name": "maturity",
              "type": "uint256"
            },
            {
              "internalType": "uint256",
              "name": "basePrice",
              "type": "uint256"
            },
            {
              "internalType": "address",
              "name": "stakeToken",
              "type": "address"
            },
            {
              "components": [
                {
                  "internalType": "bytes",
                  "name": "params",
                  "type": "bytes"
                },
                {
                  "internalType": "string",
                  "name": "topicId",
                  "type": "string"
                },
                {
                  "internalType": "uint256",
                  "name": "maturity",
                  "type": "uint256"
                }
              ],
              "internalType": "struct IChallengePool.ChallengeEvent[]",
              "name": "events",
              "type": "tuple[]"
            },
            {
              "internalType": "bytes[]",
              "name": "options",
              "type": "bytes[]"
            },
            {
              "internalType": "bool",
              "name": "disputed",
              "type": "bool"
            },
            {
              "internalType": "uint256",
              "name": "lastOutcomeSet",
              "type": "uint256"
            }
          ],
          "internalType": "struct IChallengePool.Challenge",
          "name": "",
          "type": "tuple"
        }
      ],
      "stateMutability": "view",
      "type": "function"
    },
    {
      "inputs": [
        {
          "internalType": "uint256",
          "name": "_challengeId",
          "type": "uint256"
        },
        {
          "internalType": "bytes",
          "name": "_option",
          "type": "bytes"
        },
        {
          "internalType": "uint256",
          "name": "_quantity",
          "type": "uint256"
        },
        {
          "internalType": "enum IChallengePool.PoolAction",
          "name": "_action",
          "type": "uint8"
        }
      ],
      "name": "price",
      "outputs": [
        {
          "internalType": "uint256",
          "name": "",
          "type": "uint256"
        }
      ],
      "stateMutability": "view",
      "type": "function"
    },
    {
      "inputs": [
        {
          "internalType": "uint256",
          "name": "_challengeId",
          "type": "uint256"
        },
        {
          "internalType": "bytes",
          "name": "_prediction",
          "type": "bytes"
        },
        {
          "internalType": "uint256",
          "name": "_quantity",
          "type": "uint256"
        },
        {
          "internalType": "uint256",
          "name": "_maxPrice",
          "type": "uint256"
        },
        {
          "internalType": "uint256",
          "name": "_deadline",
          "type": "uint256"
        },
        {
          "internalType": "address",
          "name": "_paymaster",
          "type": "address"
        }
      ],
      "name": "stake",
      "outputs": [],
      "stateMutability": "nonpayable",
      "type": "function"
    },
    {
      "inputs": [
        {
          "internalType": "uint256",
          "name": "_challengeId",
          "type": "uint256"
        }
      ],
      "name": "withdraw",
      "outputs": [],
      "stateMutability": "nonpayable",
      "type": "function"
    }
  ],
  "bytecode": "0x6080806040523460155761444d908161001b8239f35b600080fdfe610140604052600436101561001357600080fd5b60003560e01c8063156e38e414612aeb5780631bdd4b74146126855780632e1a7d4d146123b957806331b830fa14611e0257806340edf54d14611c6a5780636eb9aec2146100e35763a6a21a5d1461006a57600080fd5b346100de5760207ffffffffffffffffffffffffffffffffffffffffffffffffffffffffffffffffc3601126100de5760043567ffffffffffffffff81116100de576100b9903690600401613101565b60005b818110156100dc576001906100d68160051b850135613c77565b016100bc565b005b600080fd5b346100de5760e07ffffffffffffffffffffffffffffffffffffffffffffffffffffffffffffffffc3601126100de5760043567ffffffffffffffff81116100de57610132903690600401613101565b9060805260243567ffffffffffffffff81116100de57610156903690600401613101565b60443561010081905290929073ffffffffffffffffffffffffffffffffffffffff811690036100de5760643567ffffffffffffffff81116100de5761019f90369060040161302a565b9060e05292600060a05260c43560a05273ffffffffffffffffffffffffffffffffffffffff60a0511660a051036100de5760843515611c405760a43515611c405773ffffffffffffffffffffffffffffffffffffffff610100511615611c165760ff600261024f6101005173ffffffffffffffffffffffffffffffffffffffff166000527fbc351ae7fa32df0c8ad57278243ae7d011e90d073629dfc92fda8e9f319c6fd1602052604060002090565b01541615611bcf577fbc351ae7fa32df0c8ad57278243ae7d011e90d073629dfc92fda8e9f319c6fd95460a43510611ba5576102b0610291368660e051613215565b602060c081905260405191906102a7908361319a565b600082526137a5565b611b7b578115611b51577fbc351ae7fa32df0c8ad57278243ae7d011e90d073629dfc92fda8e9f319c6fda5481116101205261012051611b275760006101205280611643575061012051915060018110611615577fbc351ae7fa32df0c8ad57278243ae7d011e90d073629dfc92fda8e9f319c6fdb54811161161557610334613558565b61033c613527565b52610345613527565b5061034e61359d565b610356613534565b5261035f613534565b50606061037f61036d613558565b61037a368760e051613215565b6137a5565b158015611603575b6115d5575b610120515b8281106112cf57507fbc351ae7fa32df0c8ad57278243ae7d011e90d073629dfc92fda8e9f319c6fd8546127106103ca8260a43561324c565b10610bd1576103db9060a4356141fa565b92600161042a6101005173ffffffffffffffffffffffffffffffffffffffff166000527fbc351ae7fa32df0c8ad57278243ae7d011e90d073629dfc92fda8e9f319c6fd1602052604060002090565b0161043685825461328e565b905561044660843560a43561324c565b6040519081604081011067ffffffffffffffff604084011117610d7657856106349183604061064095016040526084358152600160c05182018381527fbc351ae7fa32df0c8ad57278243ae7d011e90d073629dfc92fda8e9f319c6fd55461012051527fbc351ae7fa32df0c8ad57278243ae7d011e90d073629dfc92fda8e9f319c6fd060c051526040610120512092518355519101556105726040516104ec8161317e565b61012051815260843560c0518201528260408201527fbc351ae7fa32df0c8ad57278243ae7d011e90d073629dfc92fda8e9f319c6fd55461012051527fbc351ae7fa32df0c8ad57278243ae7d011e90d073629dfc92fda8e9f319c6fcf60c0515260406101205120604051908c60e05183378c82019081528160c05191030190206135e2565b61062f6040516105818161317e565b61012051815260843560c0518201528260408201526105df3373ffffffffffffffffffffffffffffffffffffffff166000527fbc351ae7fa32df0c8ad57278243ae7d011e90d073629dfc92fda8e9f319c6fcd602052604060002090565b7fbc351ae7fa32df0c8ad57278243ae7d011e90d073629dfc92fda8e9f319c6fd554610120515260c0515260406101205120604051908c60e05183378c82019081528160c05191030190206135e2565b61328e565b6101005160a0516137f5565b60405161064f60c0518261319a565b6101205181526040519161066283613132565b610120518352151560c051830152604082015260843560608201524260808201526101205160a082015260a43560c082015273ffffffffffffffffffffffffffffffffffffffff610100511660e08201526106bc836133f8565b6106c9604051918261319a565b83815260c0518101368560051b6080510111610bd157608051905b8560051b6080510182106112a05750506101008201528161012082015261012051610140820152610120516101608201527fbc351ae7fa32df0c8ad57278243ae7d011e90d073629dfc92fda8e9f319c6fd55461012051527fbc351ae7fa32df0c8ad57278243ae7d011e90d073629dfc92fda8e9f319c6fcc60c0515260406101205120908051600781101561126d57610120515082547fffffffffffffffffffffffffffffffffffffffffffffffffffffffffffff000060ff61ff0060c051860151151560081b169316911617178255604081015180519067ffffffffffffffff8211610d76576107e6826107dd6001870154613303565b60018701613648565b60c051906001601f8411146111995791809161083893610120519261118e575b50507fffffffffffffffffffffffffffffffffffffffffffffffffffffffffffffffff8260011b9260031b1c19161790565b60018301555b606081015160028301556080810151600383015560a0810151600483015560c081015160058301556006820173ffffffffffffffffffffffffffffffffffffffff60e0830151167fffffffffffffffffffffffff0000000000000000000000000000000000000000825416179055610100810151805190680100000000000000008211610d765760078401548260078601558083106110c1575b5060c051019060078401610120515260c051610120512061012051925b828410610de15750505050610120810151805190680100000000000000008211610d76576008840154826008860155808310610da9575b5060c051019060088401610120515260c05161012051209161012051905b828210610c0b57505050506101608161099a610140600a9401511515600986019060ff7fffffffffffffffffffffffffffffffffffffffffffffffffffffffffffffff0083541691151516179055565b01519101557fbc351ae7fa32df0c8ad57278243ae7d011e90d073629dfc92fda8e9f319c6fd5549260018401809411610bd857610a5e90847fbc351ae7fa32df0c8ad57278243ae7d011e90d073629dfc92fda8e9f319c6fd55560405195610a0460c0518861319a565b6101208051885260408051428152825160c051820152915190820152610180606082018190529097610a3891890190613089565b9160a435608089015260a088015260843560c088015286820360e088015260e05161329b565b84810361010086015282815260c05181019060c0518460051b820101936080519261012051907fffffffffffffffffffffffffffffffffffffffffffffffffffffffffffffffa1608051360301935b838310610b375789897fad166699768ff8877dce7a9cc829f355c7a821b300765dec8609ded3bf0637a2610aea8b8b85820361012087015261372e565b9273ffffffffffffffffffffffffffffffffffffffff610100511661014082015273ffffffffffffffffffffffffffffffffffffffff60a051166101608201528033940390a36101205180f35b9091929394967fffffffffffffffffffffffffffffffffffffffffffffffffffffffffffffffe082820301835287359086821215610bd1576001916080510190604080610bb5610b98610b8a86806136de565b60608752606087019161329b565b610ba660c0518701876136de565b9086830360c05188015261329b565b9301359101529760c051019260c0510193019194939290610aad565b6101205180fd5b7f4e487b710000000000000000000000000000000000000000000000000000000061012051526011600452602461012051fd5b805180519067ffffffffffffffff8211610d7657610c3382610c2d8854613303565b88613648565b60c051906001601f841114610ca6578260019492938594610c89936101205192610c9b5750507fffffffffffffffffffffffffffffffffffffffffffffffffffffffffffffffff8260011b9260031b1c19161790565b86555b60c0510194019101909261094a565b015190508f80610806565b9086610120515260c051610120512091610120515b7fffffffffffffffffffffffffffffffffffffffffffffffffffffffffffffffe085168110610d5d575092600194928594928593837fffffffffffffffffffffffffffffffffffffffffffffffffffffffffffffffe0811610610d26575b505050811b018655610c8c565b01517fffffffffffffffffffffffffffffffffffffffffffffffffffffffffffffffff60f88460031b161c191690558e8080610d19565b81830151845560c0516001909401939283019201610cbb565b7f4e487b710000000000000000000000000000000000000000000000000000000061012051526041600452602461012051fd5b60088501610120515260c0516101205120908382015b8183018110610dcf57505061092c565b80610ddb60019261368f565b01610dbf565b8051805180519067ffffffffffffffff8211610d7657610e0b82610e058754613303565b87613648565b60c051906001601f841114610ff357918091610e5c936101205192610fe85750507fffffffffffffffffffffffffffffffffffffffffffffffffffffffffffffffff8260011b9260031b1c19161790565b83555b60c05181015180519067ffffffffffffffff8211610d7657610e9182610e886001880154613303565b60018801613648565b60c051906001601f841114610f105792610eea83600196946040946003976101205192610f055750507fffffffffffffffffffffffffffffffffffffffffffffffffffffffffffffffff8260011b9260031b1c19161790565b858701555b0151600285015560c051019201930192906108f5565b015190503880610806565b9060018601610120515260c051610120512091610120515b7fffffffffffffffffffffffffffffffffffffffffffffffffffffffffffffffe085168110610fcf575083604093600396936001989693837fffffffffffffffffffffffffffffffffffffffffffffffffffffffffffffffe08b961610610f99575b505050811b0185870155610eef565b01517fffffffffffffffffffffffffffffffffffffffffffffffffffffffffffffffff60f8848a1b161c19169055388080610f8a565b81830151845560c0516001909401939283019201610f28565b015190508e80610806565b919085610120515260c05161012051209061012051935b7fffffffffffffffffffffffffffffffffffffffffffffffffffffffffffffffe0841685106110a55760019450837fffffffffffffffffffffffffffffffffffffffffffffffffffffffffffffffe081161061106e575b505050811b018355610e5f565b01517fffffffffffffffffffffffffffffffffffffffffffffffffffffffffffffffff60f88460031b161c191690558d8080611061565b81810151835560c051948501946001909301929091019061100a565b6003818102048103610bd8576003838102048303610bd85760078501610120515260c05161012051208360030281015b82600302820181106111045750506108d8565b8061111060039261368f565b6001810161111e8154613303565b80611135575b5050610120516002820155016110f1565b601f811160011461114f57506101205190555b8c80611124565b611173908261012051526001601f60c0516101205120920160051c82019101613631565b610120805182905260c0519051908120918190559055611148565b015190508980610806565b919060018501610120515260c05161012051209061012051935b7fffffffffffffffffffffffffffffffffffffffffffffffffffffffffffffffe0841685106112515760019450837fffffffffffffffffffffffffffffffffffffffffffffffffffffffffffffffe081161061121a575b505050811b01600183015561083e565b01517fffffffffffffffffffffffffffffffffffffffffffffffffffffffffffffffff60f88460031b161c1916905588808061120a565b81810151835560c05194850194600190930192909101906111b3565b7f4e487b710000000000000000000000000000000000000000000000000000000061012051526021600452602461012051fd5b813567ffffffffffffffff8111610bd1576112c0903690608051016134aa565b815260c05191820191016106e4565b6112dc818460805161343b565b60c051810135907fffffffffffffffffffffffffffffffffffffffffffffffffffffffffffffffe181360301821215610bd1570180359067ffffffffffffffff8211610bd15760c05101908036038213610bd15760ff918160029260405192833781017fba07f9bdb83529457286bae2254b67a516d5fac42a7c08e76b28b1c094cd2f2681528160c0519103019020015460a01c16600281101561126d57156115a757604061138e828560805161343b565b01356113bb7fbc351ae7fa32df0c8ad57278243ae7d011e90d073629dfc92fda8e9f319c6fdc544261328e565b11611579576113d6366113d1838660805161343b565b6134aa565b73ffffffffffffffffffffffffffffffffffffffff600161140a60c051840151604051918183925192839160c05101613066565b81017fba07f9bdb83529457286bae2254b67a516d5fac42a7c08e76b28b1c094cd2f2681528160c0519103019020015416604051906114ad8261148160c0518201957f1e272e4c00000000000000000000000000000000000000000000000000000000875260c051602484015260448301906130cc565b037fffffffffffffffffffffffffffffffffffffffffffffffffffffffffffffffe0810184528361319a565b6101205192610120519251915af46114c3614154565b901561151a576114df9060c05181518201019060c05101614184565b156114ec57600101610391565b7f66e37c08000000000000000000000000000000000000000000000000000000006101205152600461012051fd5b60646040517f9becf85d00000000000000000000000000000000000000000000000000000000815260c0516004820152600e60248201527f5f76616c69646174654576656e740000000000000000000000000000000000006044820152fd5b7fcce559bd000000000000000000000000000000000000000000000000000000006101205152600461012051fd5b7f4aa91a46000000000000000000000000000000000000000000000000000000006101205152600461012051fd5b7fea0599f8000000000000000000000000000000000000000000000000000000006101205152600461012051fd5b5061160f61036d61359d565b15610387565b7f678c50c9000000000000000000000000000000000000000000000000000000006101205152600461012051fd5b60019260028210611af9578383036116155761165e826133f8565b9061166c604051928361319a565b82825260c0518201368460051b830111610bd15781905b8460051b83018210611acc5750506080519192839290915080359036037fffffffffffffffffffffffffffffffffffffffffffffffffffffffffffffffa101811215610bd1576116d8906080510136906134aa565b6117e360c05182016116ea815161419c565b61181373ffffffffffffffffffffffffffffffffffffffff6002611769828c6117228751604051918183925192839160c05101613066565b81017fba07f9bdb83529457286bae2254b67a516d5fac42a7c08e76b28b1c094cd2f2681528160c05191030190200154169451604051918183925192839160c05101613066565b81017fba07f9bdb83529457286bae2254b67a516d5fac42a7c08e76b28b1c094cd2f2681528160c05191030190200154169361148160405194859260c0518401977fd925ce5000000000000000000000000000000000000000000000000000000000895260248501526060604485015260848401906130cc565b7fffffffffffffffffffffffffffffffffffffffffffffffffffffffffffffffdc8382030160648401528861372e565b6101205192610120519251915af49161182a614154565b92604051907f32458eed0000000000000000000000000000000000000000000000000000000060c0518301521590811560248201526024815261186e60448261319a565b61012051815160c05191928392016a636f6e736f6c652e6c6f675afa50611a6d576040805190936118f0916118d7906118a7878261319a565b600781527f737563636573730000000000000000000000000000000000000000000000000060c05182015261419c565b6118e08161419c565b60c0518151820181019101614184565b156114ec576101205192835b838110611939575050505061038c577fea0599f8000000000000000000000000000000000000000000000000000000006101205152600461012051fd5b611961825161194a60c0518261319a565b61012051815261195a8386613544565b51906137a5565b611a3f57806119826119748a9386613544565b5161037a368d60e051613215565b611a36575b7fbc351ae7fa32df0c8ad57278243ae7d011e90d073629dfc92fda8e9f319c6fd55461012051527fbc351ae7fa32df0c8ad57278243ae7d011e90d073629dfc92fda8e9f319c6fcf60c051526119fa8361012051206119e68387613544565b518551928184925192839160c05101613066565b82019081528160c0519103019020827fffffffffffffffffffffffffffffffffffffffffffffffffffffffffffffff00825416179055016118fc565b94508094611987565b7f3d4d195c000000000000000000000000000000000000000000000000000000006101205152600461012051fd5b60646040517f9becf85d00000000000000000000000000000000000000000000000000000000815260c0516004820152601060248201527f5f76616c69646174654f7074696f6e73000000000000000000000000000000006044820152fd5b813567ffffffffffffffff8111610bd157611aea903690850161341d565b815260c0519182019101611683565b7f8ad44378000000000000000000000000000000000000000000000000000000006101205152600461012051fd5b7f8ad443780000000000000000000000000000000000000000000000000000000060005260046000fd5b7f678c50c90000000000000000000000000000000000000000000000000000000060005260046000fd5b7fea0599f80000000000000000000000000000000000000000000000000000000060005260046000fd5b7f7b31d8c60000000000000000000000000000000000000000000000000000000060005260046000fd5b7fbf16aab60000000000000000000000000000000000000000000000000000000060005273ffffffffffffffffffffffffffffffffffffffff610100511660045260246000fd5b7fd92e233d0000000000000000000000000000000000000000000000000000000060005260046000fd5b7f99d1d12f0000000000000000000000000000000000000000000000000000000060005260046000fd5b346100de5760807ffffffffffffffffffffffffffffffffffffffffffffffffffffffffffffffffc3601126100de5760043560243567ffffffffffffffff81116100de57611cbc90369060040161302a565b5050600260643510156100de577fbc351ae7fa32df0c8ad57278243ae7d011e90d073629dfc92fda8e9f319c6fd554811015611dd857806000527fbc351ae7fa32df0c8ad57278243ae7d011e90d073629dfc92fda8e9f319c6fcc602052611d2760406000206137c8565b6007811015611da95780611d76576020611d6e836000527fbc351ae7fa32df0c8ad57278243ae7d011e90d073629dfc92fda8e9f319c6fcc60205260056040600020015490565b604051908152f35b611da3907fabe418b700000000000000000000000000000000000000000000000000000000600052613058565b60246000fd5b7f4e487b7100000000000000000000000000000000000000000000000000000000600052602160045260246000fd5b7f92fa6fd30000000000000000000000000000000000000000000000000000000060005260046000fd5b346100de5760a07ffffffffffffffffffffffffffffffffffffffffffffffffffffffffffffffffc3601126100de5760043560243567ffffffffffffffff81116100de57611e5490369060040161302a565b9160443560643593608435947fbc351ae7fa32df0c8ad57278243ae7d011e90d073629dfc92fda8e9f319c6fd554841015611dd857611e94368387613215565b95611ea9602097604051906102a78a8361319a565b611b7b578315611c40578015611c40578115611c4057846000527fbc351ae7fa32df0c8ad57278243ae7d011e90d073629dfc92fda8e9f319c6fcc8752611ef360406000206137c8565b6007811015611da95780611d765750421161238f57611f3f846000527fbc351ae7fa32df0c8ad57278243ae7d011e90d073629dfc92fda8e9f319c6fcc60205260056040600020015490565b90811061236557611f50838261324c565b907fbc351ae7fa32df0c8ad57278243ae7d011e90d073629dfc92fda8e9f319c6fd754906000612710611f83848461324c565b10612362575090611f93916141fa565b90846000527fbc351ae7fa32df0c8ad57278243ae7d011e90d073629dfc92fda8e9f319c6fcc8752600161202473ffffffffffffffffffffffffffffffffffffffff6006604060002001541673ffffffffffffffffffffffffffffffffffffffff166000527fbc351ae7fa32df0c8ad57278243ae7d011e90d073629dfc92fda8e9f319c6fd1602052604060002090565b0161203083825461328e565b9055846000527fbc351ae7fa32df0c8ad57278243ae7d011e90d073629dfc92fda8e9f319c6fcc87526120818273ffffffffffffffffffffffffffffffffffffffff60066040600020015416613fae565b3360009081527fbc351ae7fa32df0c8ad57278243ae7d011e90d073629dfc92fda8e9f319c6fcd602052604090208560005287526040600020876040518092868a833786820190815203019020966001880197885498868a10612330579160027fbc351ae7fa32df0c8ad57278243ae7d011e90d073629dfc92fda8e9f319c6fcc9261232b9695946121368a7fde342d498cbd3cef89b0ed0094631f92f9cf57bfc8e8efe99d3e7c21213746a09c9d9e613410565b905501612144848254613410565b90553360009081527fbc351ae7fa32df0c8ad57278243ae7d011e90d073629dfc92fda8e9f319c6fce60205260409020896000528152600160406000200161218d888254613410565b90553360009081527fbc351ae7fa32df0c8ad57278243ae7d011e90d073629dfc92fda8e9f319c6fce6020526040902089600052815260026040600020016121d6848254613410565b9055886000527fbc351ae7fa32df0c8ad57278243ae7d011e90d073629dfc92fda8e9f319c6fcf8152600186828c604060002060405193849283378a82019081520301902001612227888254613410565b9055886000527fbc351ae7fa32df0c8ad57278243ae7d011e90d073629dfc92fda8e9f319c6fcf8152600286828c604060002060405193849283378a82019081520301902001612278848254613410565b9055886000527fbc351ae7fa32df0c8ad57278243ae7d011e90d073629dfc92fda8e9f319c6fd0815260406000206122b1888254613410565b9055886000527fbc351ae7fa32df0c8ad57278243ae7d011e90d073629dfc92fda8e9f319c6fd0815260016040600020016122ed848254613410565b9055886000525261231d338273ffffffffffffffffffffffffffffffffffffffff60066040600020015416613a15565b6040519485943399866132da565b0390a3005b89877f2c774e9c0000000000000000000000000000000000000000000000000000000060005260045260245260446000fd5b80fd5b7feb2c75df0000000000000000000000000000000000000000000000000000000060005260046000fd5b7f559895a30000000000000000000000000000000000000000000000000000000060005260046000fd5b346100de5760207ffffffffffffffffffffffffffffffffffffffffffffffffffffffffffffffffc3601126100de576004357fbc351ae7fa32df0c8ad57278243ae7d011e90d073629dfc92fda8e9f319c6fd554811015611dd857806000527fbc351ae7fa32df0c8ad57278243ae7d011e90d073629dfc92fda8e9f319c6fcc60205260ff60406000205416906007821015611da95760018203612461576100dc9150613c77565b6000916002810361265457508082527fbc351ae7fa32df0c8ad57278243ae7d011e90d073629dfc92fda8e9f319c6fcc602052604082206124e13373ffffffffffffffffffffffffffffffffffffffff166000527fbc351ae7fa32df0c8ad57278243ae7d011e90d073629dfc92fda8e9f319c6fce602052604060002090565b82845260205260016040842001541561262c573360009081527fbc351ae7fa32df0c8ad57278243ae7d011e90d073629dfc92fda8e9f319c6fce6020526040902082845260205260ff604084205416612604573360008181527fbc351ae7fa32df0c8ad57278243ae7d011e90d073629dfc92fda8e9f319c6fce6020818152604080842087895280835290882080547fffffffffffffffffffffffffffffffffffffffffffffffffffffffffffffff001660011790559390925290528284526020526125d16002604085200154918273ffffffffffffffffffffffffffffffffffffffff60063393015416613a15565b60405192835260208301527f7e2290278bab7591c02e1cee107f6eb5778796e4f991856e11ffc09bf8b818d060403393a3005b6004837f924260f1000000000000000000000000000000000000000000000000000000008152fd5b6004837f3110f1d8000000000000000000000000000000000000000000000000000000008152fd5b826126836024927fabe418b7000000000000000000000000000000000000000000000000000000008352613058565bfd5b346100de5760207ffffffffffffffffffffffffffffffffffffffffffffffffffffffffffffffffc3601126100de5760043560006101606040516126c881613132565b828152826020820152606060408201528260608201528260808201528260a08201528260c08201528260e0820152606061010082015260606101208201528261014082015201527fbc351ae7fa32df0c8ad57278243ae7d011e90d073629dfc92fda8e9f319c6fd554811015611dd8576000527fbc351ae7fa32df0c8ad57278243ae7d011e90d073629dfc92fda8e9f319c6fcc602052604060002060405161277081613132565b81549160ff83166007811015611da957825260ff602083019360081c16151583526040516127ac816127a58160018601613356565b038261319a565b60408301908152600282015493606084019485526003830154906080850191825260048401549060a08601918252600585015460c0870190815273ffffffffffffffffffffffffffffffffffffffff6006870154169060e0880191825260078701938454612819816133f8565b95612827604051978861319a565b818752602087019060005260206000206000915b838310612a96575050505061010089019485526008880195865461285e816133f8565b9761286c604051998a61319a565b818952602089019060005260206000206000915b838310612a7157505050506101208a01968752600a60ff60098b015416996101408c019a15158b520154976101608b019889526040519a60208c5251906007821015611da95773ffffffffffffffffffffffffffffffffffffffff966129019260208e015251151560408d01525161018060608d01526101a08c0190613089565b9a5160808b01525160a08a01525160c08901525160e0880152511661010086015251947fffffffffffffffffffffffffffffffffffffffffffffffffffffffffffffffe085820301610120860152855180825260208201916020808360051b8301019801926000915b838310612a2657505050505051917fffffffffffffffffffffffffffffffffffffffffffffffffffffffffffffffe084860301610140850152825180865260208601906020808260051b8901019501916000905b8282106129dd5784511515610160890152855161018089015287870388f35b90919295602080612a18837fffffffffffffffffffffffffffffffffffffffffffffffffffffffffffffffe08d600196030186528a51613089565b9801920192019092916129be565b9091929398602080612a62837fffffffffffffffffffffffffffffffffffffffffffffffffffffffffffffffe086600196030187528d516130cc565b9b01930193019193929061296a565b600160208192604051612a88816127a58189613356565b815201920192019190612880565b60036020600192604051612aa98161317e565b604051612aba816127a5818a613356565b8152604051612acf816127a581898b01613356565b838201526002860154604082015281520192019201919061283b565b346100de5760c07ffffffffffffffffffffffffffffffffffffffffffffffffffffffffffffffffc3601126100de5760043560243567ffffffffffffffff81116100de57612b3d90369060040161302a565b60843592906044359060a43560643573ffffffffffffffffffffffffffffffffffffffff821682036100de577fbc351ae7fa32df0c8ad57278243ae7d011e90d073629dfc92fda8e9f319c6fd554851015611dd857612b9d368488613215565b96612bb2602098604051906102a78b8361319a565b611b7b578415611c40578015611c40578115611c4057856000527fbc351ae7fa32df0c8ad57278243ae7d011e90d073629dfc92fda8e9f319c6fcc8852612bfc60406000206137c8565b6007811015611da95780611d765750421061238f57612c48856000527fbc351ae7fa32df0c8ad57278243ae7d011e90d073629dfc92fda8e9f319c6fcc60205260056040600020015490565b90811161300057612c59848261324c565b907fbc351ae7fa32df0c8ad57278243ae7d011e90d073629dfc92fda8e9f319c6fd654906000612710612c8c848461324c565b106123625750612d9491612c9f916141fa565b92866000527fbc351ae7fa32df0c8ad57278243ae7d011e90d073629dfc92fda8e9f319c6fcc89526001612d3073ffffffffffffffffffffffffffffffffffffffff6006604060002001541673ffffffffffffffffffffffffffffffffffffffff166000527fbc351ae7fa32df0c8ad57278243ae7d011e90d073629dfc92fda8e9f319c6fd1602052604060002090565b01612d3c85825461328e565b9055866000527fbc351ae7fa32df0c8ad57278243ae7d011e90d073629dfc92fda8e9f319c6fcc895273ffffffffffffffffffffffffffffffffffffffff60066040600020015416612d8e848661328e565b916137f5565b3360009081527fbc351ae7fa32df0c8ad57278243ae7d011e90d073629dfc92fda8e9f319c6fcd602052604090208560005287526040600020876040518092868a833786820190815203019020966001880197885498868a10612330579160027fbc351ae7fa32df0c8ad57278243ae7d011e90d073629dfc92fda8e9f319c6fcc9261232b969594612e498a7f16540d96acd91a8646032d735756db867e1d742f340cebb250674fba027fc03e9c9d9e61328e565b905501612e5784825461328e565b90553360009081527fbc351ae7fa32df0c8ad57278243ae7d011e90d073629dfc92fda8e9f319c6fce602052604090208960005281526001604060002001612ea088825461328e565b90553360009081527fbc351ae7fa32df0c8ad57278243ae7d011e90d073629dfc92fda8e9f319c6fce602052604090208960005281526002604060002001612ee984825461328e565b9055886000527fbc351ae7fa32df0c8ad57278243ae7d011e90d073629dfc92fda8e9f319c6fcf8152600186828c604060002060405193849283378a82019081520301902001612f3a88825461328e565b9055886000527fbc351ae7fa32df0c8ad57278243ae7d011e90d073629dfc92fda8e9f319c6fcf8152600286828c604060002060405193849283378a82019081520301902001612f8b84825461328e565b9055886000527fbc351ae7fa32df0c8ad57278243ae7d011e90d073629dfc92fda8e9f319c6fd081526040600020612fc488825461328e565b9055886000527fbc351ae7fa32df0c8ad57278243ae7d011e90d073629dfc92fda8e9f319c6fd0815260016040600020016122ed84825461328e565b7f1d5ece530000000000000000000000000000000000000000000000000000000060005260046000fd5b9181601f840112156100de5782359167ffffffffffffffff83116100de57602083818601950101116100de57565b6007811015611da957600452565b60005b8381106130795750506000910152565b8181015183820152602001613069565b907fffffffffffffffffffffffffffffffffffffffffffffffffffffffffffffffe0601f6020936130c581518092818752878088019101613066565b0116010190565b906040806130f86130e68551606086526060860190613089565b60208601518582036020870152613089565b93015191015290565b9181601f840112156100de5782359167ffffffffffffffff83116100de576020808501948460051b0101116100de57565b610180810190811067ffffffffffffffff82111761314f57604052565b7f4e487b7100000000000000000000000000000000000000000000000000000000600052604160045260246000fd5b6060810190811067ffffffffffffffff82111761314f57604052565b90601f7fffffffffffffffffffffffffffffffffffffffffffffffffffffffffffffffe0910116810190811067ffffffffffffffff82111761314f57604052565b67ffffffffffffffff811161314f57601f017fffffffffffffffffffffffffffffffffffffffffffffffffffffffffffffffe01660200190565b929192613221826131db565b9161322f604051938461319a565b8294818452818301116100de578281602093846000960137010152565b8181029291811591840414171561325f57565b7f4e487b7100000000000000000000000000000000000000000000000000000000600052601160045260246000fd5b9190820180921161325f57565b601f82602094937fffffffffffffffffffffffffffffffffffffffffffffffffffffffffffffffe0938186528686013760008582860101520116010190565b91606093969594916132f49160808552608085019161329b565b95602083015260408201520152565b90600182811c9216801561334c575b602083101461331d57565b7f4e487b7100000000000000000000000000000000000000000000000000000000600052602260045260246000fd5b91607f1691613312565b6000929181549161336683613303565b80835292600181169081156133bc575060011461338257505050565b60009081526020812093945091925b8383106133a2575060209250010190565b600181602092949394548385870101520191019190613391565b905060209495507fffffffffffffffffffffffffffffffffffffffffffffffffffffffffffffff0091509291921683830152151560051b010190565b67ffffffffffffffff811161314f5760051b60200190565b9190820391821161325f57565b9080601f830112156100de5781602061343893359101613215565b90565b919081101561347b5760051b810135907fffffffffffffffffffffffffffffffffffffffffffffffffffffffffffffffa1813603018212156100de570190565b7f4e487b7100000000000000000000000000000000000000000000000000000000600052603260045260246000fd5b9190916060818403126100de57604051906134c48261317e565b8193813567ffffffffffffffff81116100de57816134e391840161341d565b8352602082013567ffffffffffffffff81116100de5782019181601f840112156100de5761351b604093928360208695359101613215565b60208501520135910152565b6060511561347b57608090565b6060516001101561347b5760a090565b805182101561347b5760209160051b010190565b604051602080820152600360408201527f796573000000000000000000000000000000000000000000000000000000000060608201526060815261343860808261319a565b604051602080820152600260408201527f6e6f00000000000000000000000000000000000000000000000000000000000060608201526060815261343860808261319a565b90604060029161362081511515859060ff7fffffffffffffffffffffffffffffffffffffffffffffffffffffffffffffff0083541691151516179055565b602081015160018501550151910155565b81811061363c575050565b60008155600101613631565b9190601f811161365757505050565b613683926000526020600020906020601f840160051c83019310613685575b601f0160051c0190613631565b565b9091508190613676565b6136998154613303565b90816136a3575050565b81601f600093116001146136b5575055565b818352602083206136d191601f0160051c810190600101613631565b8082528160208120915555565b90357fffffffffffffffffffffffffffffffffffffffffffffffffffffffffffffffe1823603018112156100de57016020813591019167ffffffffffffffff82116100de5781360383136100de57565b9080602083519182815201916020808360051b8301019401926000915b83831061375a57505050505090565b9091929394602080613796837fffffffffffffffffffffffffffffffffffffffffffffffffffffffffffffffe086600196030187528951613089565b9701930193019193929061374b565b8051908251918281036137bf576020809201209201201490565b50505050600090565b60ff815416906007821015611da95781156137e1575090565b600401544210156137ef5790565b50600390565b600092919073ffffffffffffffffffffffffffffffffffffffff168061382057506136839250613fae565b73ffffffffffffffffffffffffffffffffffffffff821690604051927f70a08231000000000000000000000000000000000000000000000000000000008452306004850152602084602481865afa938415613a0a5786946139d6575b50813b156139d2576040517f9865a1d300000000000000000000000000000000000000000000000000000000815273ffffffffffffffffffffffffffffffffffffffff919091166004820152336024820152604481018590529085908290606490829084905af180156139c7576139ad575b50906020602492604051938480927f70a082310000000000000000000000000000000000000000000000000000000082523060048301525afa80156139a257849061396e575b61393e9250613410565b036139465750565b807fc7e8fc500000000000000000000000000000000000000000000000000000000060049252fd5b506020823d60201161399a575b816139886020938361319a565b810103126100de5761393e9151613934565b3d915061397b565b6040513d86823e3d90fd5b846139be602494939660209361319a565b949192506138ee565b6040513d87823e3d90fd5b8580fd5b9093506020813d602011613a02575b816139f26020938361319a565b810103126139d25751923861387c565b3d91506139e5565b6040513d88823e3d90fd5b73ffffffffffffffffffffffffffffffffffffffff909291921690604051907f70a08231000000000000000000000000000000000000000000000000000000008252306004830152602082602481865afa918215613b8f57600092613b9b575b50602492613add60209273ffffffffffffffffffffffffffffffffffffffff604051917fa9059cbb0000000000000000000000000000000000000000000000000000000086840152168682015286604482015260448152613ad760648261319a565b8261438c565b604051938480927f70a082310000000000000000000000000000000000000000000000000000000082523060048301525afa908115613b8f57600091613b59575b613b289250613410565b03613b2f57565b7fc7e8fc500000000000000000000000000000000000000000000000000000000060005260046000fd5b90506020823d602011613b87575b81613b746020938361319a565b810103126100de57613b28915190613b1e565b3d9150613b67565b6040513d6000823e3d90fd5b9091506020813d602011613bc8575b81613bb76020938361319a565b810103126100de5751906024613a75565b3d9150613baa565b906040518092600090805490613be582613303565b9160018116908115613c415750600114613c08575b505060209281520301902090565b90915060005260206000206000905b828210613c2a5750508101602038613bfa565b805482870152859350602090910190600101613c17565b7fffffffffffffffffffffffffffffffffffffffffffffffffffffffffffffff0016855250508015150282019050602038613bfa565b806000527fbc351ae7fa32df0c8ad57278243ae7d011e90d073629dfc92fda8e9f319c6fcc602052604060002090602091604051613cb5848261319a565b60008152613cda60018301916040519061037a82613cd38187613356565b038361319a565b613f84573360009081527fbc351ae7fa32df0c8ad57278243ae7d011e90d073629dfc92fda8e9f319c6fce6020526040902083600052845260016040600020015415613f5a57613d7e90613d6d3373ffffffffffffffffffffffffffffffffffffffff166000527fbc351ae7fa32df0c8ad57278243ae7d011e90d073629dfc92fda8e9f319c6fcd602052604060002090565b846000528552604060002090613bd0565b92835460ff8116613f30576001850154908115613f06576002613ea9613ed59360017fffffffffffffffffffffffffffffffffffffffffffffffffffffffffffffff00613eb29516178955876000527fbc351ae7fa32df0c8ad57278243ae7d011e90d073629dfc92fda8e9f319c6fcc8652604060002090886000527fbc351ae7fa32df0c8ad57278243ae7d011e90d073629dfc92fda8e9f319c6fcf8752613ea484613e6d6001613e3881604060002097019687613bd0565b0154948c6000527fbc351ae7fa32df0c8ad57278243ae7d011e90d073629dfc92fda8e9f319c6fcf8b52604060002090613bd0565b01548a6000527fbc351ae7fa32df0c8ad57278243ae7d011e90d073629dfc92fda8e9f319c6fd08952600160406000200154613410565b61429d565b9601548661328e565b928373ffffffffffffffffffffffffffffffffffffffff60063393015416613a15565b6040519384528301527f7e2290278bab7591c02e1cee107f6eb5778796e4f991856e11ffc09bf8b818d060403393a3565b7f907643880000000000000000000000000000000000000000000000000000000060005260046000fd5b7f924260f10000000000000000000000000000000000000000000000000000000060005260046000fd5b7f3110f1d80000000000000000000000000000000000000000000000000000000060005260046000fd5b7fc74a206d0000000000000000000000000000000000000000000000000000000060005260046000fd5b73ffffffffffffffffffffffffffffffffffffffff16604051907f70a08231000000000000000000000000000000000000000000000000000000008252306004830152602082602481845afa918215613b8f5760009261411f575b509060206024926140a26040517f23b872dd0000000000000000000000000000000000000000000000000000000084820152613ad7816140768930338b850173ffffffffffffffffffffffffffffffffffffffff6040929594938160608401971683521660208201520152565b037fffffffffffffffffffffffffffffffffffffffffffffffffffffffffffffffe0810183528261319a565b604051938480927f70a082310000000000000000000000000000000000000000000000000000000082523060048301525afa8015613b8f576000906140eb57613b289250613410565b506020823d602011614117575b816141056020938361319a565b810103126100de57613b289151613b1e565b3d91506140f8565b91506020823d60201161414c575b8161413a6020938361319a565b810103126100de579051906020614009565b3d915061412d565b3d1561417f573d90614165826131db565b91614173604051938461319a565b82523d6000602084013e565b606090565b908160209103126100de575180151581036100de5790565b60006140766141e382936040519283917f41304fac000000000000000000000000000000000000000000000000000000006020840152602060248401526044830190613089565b6020815191016a636f6e736f6c652e6c6f675afa50565b9190916000838202917fffffffffffffffffffffffffffffffffffffffffffffffffffffffffffffffff858209918380841093039280840393146142905782612710111561427e57507fbc01a36e2eb1c432ca57a786c226809d495182a9930be0ded288ce703afb7e919394612710910990828211900360fc1b910360041c170290565b634e487b71905260116020526024601cfd5b5050506127109192500490565b91818302917fffffffffffffffffffffffffffffffffffffffffffffffffffffffffffffffff8185099383808610950394808603951461434f57848311156143365790829109816000038216809204600281600302188082026002030280820260020302808202600203028082026002030280820260020302809102600203029360018380600003040190848311900302920304170290565b82634e487b71600052156003026011186020526024601cfd5b50508092501561435d570490565b7f4e487b7100000000000000000000000000000000000000000000000000000000600052601260045260246000fd5b906000602091828151910182855af115613b8f576000513d61440e575073ffffffffffffffffffffffffffffffffffffffff81163b155b6143ca5750565b73ffffffffffffffffffffffffffffffffffffffff907f5274afe7000000000000000000000000000000000000000000000000000000006000521660045260246000fd5b600114156143c356fea264697066735822122072e8d7ccd8f3c00881e563de82e2b94bdfbe1529dc86a55442f69f30cfadd07464736f6c634300081c0033",
  "linkReferences": {},
  "deployedLinkReferences": {}
}