{
  "_format": "hh-sol-artifact-1",
  "contractName": "AssetPriceDataProvider",
  "sourceName": "contracts/modules/data-providers/AssetPriceDataProvider.sol",
  "abi": [
    {
      "inputs": [],
      "name": "DataAlreadyProvided",
      "type": "error"
    },
    {
      "inputs": [],
      "name": "DataAlreadyRegistered",
      "type": "error"
    },
    {
      "inputs": [],
      "name": "DataNotProvided",
      "type": "error"
    },
    {
      "inputs": [],
      "name": "DataNotRegistered",
      "type": "error"
    },
    {
      "inputs": [],
      "name": "DataNotRequested",
      "type": "error"
    },
    {
      "inputs": [],
      "name": "EmptyBytes",
      "type": "error"
    },
    {
      "inputs": [],
      "name": "EmptyString",
      "type": "error"
    },
    {
      "inputs": [],
      "name": "InvalidResult",
      "type": "error"
    },
    {
      "inputs": [
        {
          "internalType": "uint256",
          "name": "_date",
          "type": "uint256"
        }
      ],
      "name": "InvalidSubmissionDate",
      "type": "error"
    },
    {
      "inputs": [],
      "name": "NotImplemented",
      "type": "error"
    },
    {
      "inputs": [],
      "name": "ZeroAddress",
      "type": "error"
    },
    {
      "inputs": [],
      "name": "ZeroNumber",
      "type": "error"
    },
    {
      "anonymous": false,
      "inputs": [
        {
          "indexed": true,
          "internalType": "address",
          "name": "caller",
          "type": "address"
        },
        {
          "indexed": true,
          "internalType": "string",
          "name": "namespace",
          "type": "string"
        },
        {
          "indexed": false,
          "internalType": "bytes",
          "name": "requestId",
          "type": "bytes"
        },
        {
          "indexed": false,
          "internalType": "bytes",
          "name": "params",
          "type": "bytes"
        }
      ],
      "name": "DataProvided",
      "type": "event"
    },
    {
      "anonymous": false,
      "inputs": [
        {
          "indexed": true,
          "internalType": "address",
          "name": "caller",
          "type": "address"
        },
        {
          "indexed": true,
          "internalType": "string",
          "name": "namespace",
          "type": "string"
        },
        {
          "indexed": false,
          "internalType": "bytes",
          "name": "requestId",
          "type": "bytes"
        },
        {
          "indexed": false,
          "internalType": "bytes",
          "name": "params",
          "type": "bytes"
        }
      ],
      "name": "DataRegistered",
      "type": "event"
    },
    {
      "anonymous": false,
      "inputs": [
        {
          "indexed": true,
          "internalType": "address",
          "name": "caller",
          "type": "address"
        },
        {
          "indexed": true,
          "internalType": "string",
          "name": "namespace",
          "type": "string"
        },
        {
          "indexed": false,
          "internalType": "bytes",
          "name": "requestId",
          "type": "bytes"
        },
        {
          "indexed": false,
          "internalType": "bytes",
          "name": "params",
          "type": "bytes"
        }
      ],
      "name": "DataRequested",
      "type": "event"
    },
    {
      "inputs": [
        {
          "internalType": "bytes",
          "name": "_params",
          "type": "bytes"
        }
      ],
      "name": "getData",
      "outputs": [
        {
          "internalType": "bytes",
          "name": "_data",
          "type": "bytes"
        }
      ],
      "stateMutability": "view",
      "type": "function"
    },
    {
      "inputs": [
        {
          "internalType": "bytes",
          "name": "_params",
          "type": "bytes"
        }
      ],
      "name": "hasData",
      "outputs": [
        {
          "internalType": "bool",
          "name": "",
          "type": "bool"
        }
      ],
      "stateMutability": "view",
      "type": "function"
    },
    {
      "inputs": [],
      "name": "namspace",
      "outputs": [
        {
          "internalType": "string",
          "name": "",
          "type": "string"
        }
      ],
      "stateMutability": "pure",
      "type": "function"
    },
    {
      "inputs": [
        {
          "internalType": "bytes",
          "name": "_params",
          "type": "bytes"
        }
      ],
      "name": "provideData",
      "outputs": [],
      "stateMutability": "nonpayable",
      "type": "function"
    },
    {
      "inputs": [
        {
          "internalType": "bytes",
          "name": "",
          "type": "bytes"
        }
      ],
      "name": "registerEvent",
      "outputs": [],
      "stateMutability": "nonpayable",
      "type": "function"
    },
    {
      "inputs": [
        {
          "internalType": "bytes",
          "name": "_params",
          "type": "bytes"
        }
      ],
      "name": "requestData",
      "outputs": [
        {
          "internalType": "bool",
          "name": "",
          "type": "bool"
        }
      ],
      "stateMutability": "nonpayable",
      "type": "function"
    },
    {
      "inputs": [
        {
          "internalType": "bytes",
          "name": "_params",
          "type": "bytes"
        }
      ],
      "name": "updateProvision",
      "outputs": [],
      "stateMutability": "nonpayable",
      "type": "function"
    },
    {
      "inputs": [
        {
          "internalType": "bytes",
          "name": "",
          "type": "bytes"
        },
        {
          "internalType": "bytes[]",
          "name": "_options",
          "type": "bytes[]"
        }
      ],
      "name": "validateOptions",
      "outputs": [
        {
          "internalType": "bool",
          "name": "",
          "type": "bool"
        }
      ],
      "stateMutability": "nonpayable",
      "type": "function"
    }
  ],
  "bytecode": "0x60808060405234601557611114908161001b8239f35b600080fdfe6080604052600436101561001257600080fd5b60003560e01c80631431b23a1461079557806344dc8e401461073b5780637551a8a0146106e957806387a7cfd8146104d5578063bc0fd6d714610460578063c90d080a146103e5578063dae79e2c146103455763eca82c1a1461007457600080fd5b346103405760207ffffffffffffffffffffffffffffffffffffffffffffffffffffffffffffffffc3601126103405760043567ffffffffffffffff8111610340576100c390369060040161080f565b906100ce8282610f08565b9081421061031257906100e091610f4b565b6100e98161100e565b156102e8576100f781610fdb565b6102be576001610106826108a3565b019267ffffffffffffffff811161028f5761012b8161012586546108e8565b86610aa3565b600093601f82116001146101d05761019b82807ff283980cf2fb422908da27e3d9fdf43acd75d0856dbaa2a68f680c76399137049596976000916101c5575b507fffffffffffffffffffffffffffffffffffffffffffffffffffffffffffffffff8260011b9260031b1c19161790565b90555b6101ae6101a9610ecd565b610af5565b936101c0604051928392339684610b15565b0390a3005b90508701353861016a565b808552602085207fffffffffffffffffffffffffffffffffffffffffffffffffffffffffffffffe0831695805b8781106102775750837ff283980cf2fb422908da27e3d9fdf43acd75d0856dbaa2a68f680c76399137049596971061023f575b5050600182811b01905561019e565b7fffffffffffffffffffffffffffffffffffffffffffffffffffffffffffffffff60f88560031b161c19908701351690553880610230565b9091602060018192858a0135815501930191016101fd565b7f4e487b7100000000000000000000000000000000000000000000000000000000600052604160045260246000fd5b7f817ff87e0000000000000000000000000000000000000000000000000000000060005260046000fd5b7f04c807300000000000000000000000000000000000000000000000000000000060005260046000fd5b507fd6b8b7c10000000000000000000000000000000000000000000000000000000060005260045260246000fd5b600080fd5b346103405760407ffffffffffffffffffffffffffffffffffffffffffffffffffffffffffffffffc3601126103405760043567ffffffffffffffff81116103405761039490369060040161080f565b505060243567ffffffffffffffff811161034057366023820112156103405780600401359067ffffffffffffffff821161034057602436918360051b01011161034057602090600160405191118152f35b346103405760207ffffffffffffffffffffffffffffffffffffffffffffffffffffffffffffffffc3601126103405760043567ffffffffffffffff81116103405761043490369060040161080f565b50507fd62347250000000000000000000000000000000000000000000000000000000060005260046000fd5b346103405760207ffffffffffffffffffffffffffffffffffffffffffffffffffffffffffffffffc3601126103405760043567ffffffffffffffff8111610340576104cb6104c66104c06104ba602094369060040161080f565b90610f08565b90610f4b565b610fdb565b6040519015158152f35b346103405760207ffffffffffffffffffffffffffffffffffffffffffffffffffffffffffffffffc3601126103405760043567ffffffffffffffff81116103405761052490369060040161080f565b9061052f8282610f08565b90814210610312579061054191610f4b565b61054a8161100e565b156102e85761055881610fdb565b156106bf576001610568826108a3565b019267ffffffffffffffff811161028f576105878161012586546108e8565b600093601f82116001146106015761019b82807ff283980cf2fb422908da27e3d9fdf43acd75d0856dbaa2a68f680c76399137049596976000916105f657507fffffffffffffffffffffffffffffffffffffffffffffffffffffffffffffffff8260011b9260031b1c19161790565b90508701358861016a565b808552602085207fffffffffffffffffffffffffffffffffffffffffffffffffffffffffffffffe0831695805b8781106106a75750837ff283980cf2fb422908da27e3d9fdf43acd75d0856dbaa2a68f680c76399137049596971061066f575050600182811b01905561019e565b7fffffffffffffffffffffffffffffffffffffffffffffffffffffffffffffffff60f88560031b161c19908701351690558580610230565b9091602060018192858a01358155019301910161062e565b7f3c15fc3c0000000000000000000000000000000000000000000000000000000060005260046000fd5b346103405760007ffffffffffffffffffffffffffffffffffffffffffffffffffffffffffffffffc36011261034057610737610723610ecd565b604051918291602083526020830190610860565b0390f35b346103405760207ffffffffffffffffffffffffffffffffffffffffffffffffffffffffffffffffc3601126103405760043567ffffffffffffffff8111610340576104cb61078f602092369060040161080f565b90610b6e565b346103405760207ffffffffffffffffffffffffffffffffffffffffffffffffffffffffffffffffc3601126103405760043567ffffffffffffffff8111610340576104c06104ba6107ea92369060040161080f565b6107f381610fdb565b156106bf576107236001610809610737936108a3565b0161097c565b9181601f840112156103405782359167ffffffffffffffff8311610340576020838186019501011161034057565b60005b8381106108505750506000910152565b8181015183820152602001610840565b907fffffffffffffffffffffffffffffffffffffffffffffffffffffffffffffffe0601f60209361089c8151809281875287808801910161083d565b0116010190565b60206108bc91816040519382858094519384920161083d565b81017fde1d81bc9860c075d76ad153e67ec9a4f01e6b3b42e3792f5f132c7f1734014081520301902090565b90600182811c92168015610931575b602083101461090257565b7f4e487b7100000000000000000000000000000000000000000000000000000000600052602260045260246000fd5b91607f16916108f7565b90601f7fffffffffffffffffffffffffffffffffffffffffffffffffffffffffffffffe0910116810190811067ffffffffffffffff82111761028f57604052565b9060405191826000825492610990846108e8565b80845293600181169081156109fe57506001146109b7575b506109b59250038361093b565b565b90506000929192526020600020906000915b8183106109e25750509060206109b592820101386109a8565b60209193508060019154838589010152019101909184926109c9565b602093506109b59592507fffffffffffffffffffffffffffffffffffffffffffffffffffffffffffffff0091501682840152151560051b820101386109a8565b92919267ffffffffffffffff821161028f5760405191610a86601f82017fffffffffffffffffffffffffffffffffffffffffffffffffffffffffffffffe0166020018461093b565b829481845281830111610340578281602093846000960137010152565b601f8211610ab057505050565b6000526020600020906020601f840160051c83019310610aeb575b601f0160051c01905b818110610adf575050565b60008155600101610ad4565b9091508190610acb565b610b0d9060206040519282848094519384920161083d565b810103902090565b9183602094601f92610b507fffffffffffffffffffffffffffffffffffffffffffffffffffffffffffffffe095604088526040880190610860565b95878188039101528186528686013760008582860101520116010190565b90610b7c6104c08284610f08565b90610b868261100e565b610ec5576020604051610b99828261093b565b60008152604051906060820182811067ffffffffffffffff82111761028f57604052610bc6368588610a3e565b8252828201908152604082019260008452610be0866108a3565b925180519067ffffffffffffffff821161028f57610c0882610c0287546108e8565b87610aa3565b8290601f8311600114610e2257610c55929160009183610d4b575b50507fffffffffffffffffffffffffffffffffffffffffffffffffffffffffffffffff8260011b9260031b1c19161790565b83555b6001830191519081519167ffffffffffffffff831161028f57610c7f8361012586546108e8565b81601f8411600114610d565750827f8f98cf6cad37d272d2ef9755b9af214ca9dc0d507ee88fd6396e6c2c94e8532e9796959360029593610cf393600092610d4b5750507fffffffffffffffffffffffffffffffffffffffffffffffffffffffffffffffff8260011b9260031b1c19161790565b90555b019051151560ff7fffffffffffffffffffffffffffffffffffffffffffffffffffffffffffffff008354169116179055610d316101a9610ecd565b93610d43604051928392339684610b15565b0390a3600190565b015190503880610c23565b91907fffffffffffffffffffffffffffffffffffffffffffffffffffffffffffffffe084168560005283600020936000905b828210610e0a5750509260019285927f8f98cf6cad37d272d2ef9755b9af214ca9dc0d507ee88fd6396e6c2c94e8532e9a9998966002989610610dd3575b505050811b019055610cf6565b01517fffffffffffffffffffffffffffffffffffffffffffffffffffffffffffffffff60f88460031b161c19169055388080610dc6565b80600186978294978701518155019601940190610d88565b907fffffffffffffffffffffffffffffffffffffffffffffffffffffffffffffffe083169186600052846000209260005b86828210610eaf575050908460019594939210610e78575b505050811b018355610c58565b01517fffffffffffffffffffffffffffffffffffffffffffffffffffffffffffffffff60f88460031b161c19169055388080610e6b565b6001859682939686015181550195019301610e53565b505050600190565b60405190610edc60408361093b565b600b82527f61737365742d70726963650000000000000000000000000000000000000000006020830152565b9190820160408382031261034057823567ffffffffffffffff811161034057830181601f82011215610340576020918183610f4593359101610a3e565b92013590565b610fd890610f7692610fa6610f5e610ecd565b92604051958694606060208701526080860190610860565b907fffffffffffffffffffffffffffffffffffffffffffffffffffffffffffffffe0858303016040860152610860565b906060830152037fffffffffffffffffffffffffffffffffffffffffffffffffffffffffffffffe0810183528261093b565b90565b6001610fe961100a926108a3565b0161100560405191610ffc60208461093b565b6000835261097c565b6110bb565b1590565b60ff600261107d602060405161106b8651918381818a019461103181838861083d565b81017fde1d81bc9860c075d76ad153e67ec9a4f01e6b3b42e3792f5f132c7f1734014081520301902061100560405191610ffc868461093b565b9560405193849283925192839161083d565b81017fde1d81bc9860c075d76ad153e67ec9a4f01e6b3b42e3792f5f132c7f17340140815203019020015416901590816110b5575090565b90501590565b8051908251918281036110d5576020809201209201201490565b5050505060009056fea264697066735822122088b936e8184de7edd38e675d0e9f80167df1d02c9cc445470701e7f8e4400bee64736f6c634300081c0033",
  "linkReferences": {},
  "deployedLinkReferences": {}
}