{
  "_format": "hh-sol-artifact-1",
  "contractName": "FootBallScoresProvider",
  "sourceName": "contracts/modules/data-providers/FootBallScoresProvider.sol",
  "abi": [
    {
      "inputs": [],
      "name": "DataAlreadyProvided",
      "type": "error"
    },
    {
      "inputs": [],
      "name": "DataAlreadyRegistered",
      "type": "error"
    },
    {
      "inputs": [],
      "name": "DataNotProvided",
      "type": "error"
    },
    {
      "inputs": [],
      "name": "DataNotRegistered",
      "type": "error"
    },
    {
      "inputs": [],
      "name": "DataNotRequested",
      "type": "error"
    },
    {
      "inputs": [],
      "name": "EmptyBytes",
      "type": "error"
    },
    {
      "inputs": [],
      "name": "EmptyString",
      "type": "error"
    },
    {
      "inputs": [],
      "name": "InvalidResult",
      "type": "error"
    },
    {
      "inputs": [
        {
          "internalType": "uint256",
          "name": "_date",
          "type": "uint256"
        }
      ],
      "name": "InvalidSubmissionDate",
      "type": "error"
    },
    {
      "inputs": [],
      "name": "NotImplemented",
      "type": "error"
    },
    {
      "inputs": [],
      "name": "ZeroAddress",
      "type": "error"
    },
    {
      "inputs": [],
      "name": "ZeroNumber",
      "type": "error"
    },
    {
      "anonymous": false,
      "inputs": [
        {
          "indexed": true,
          "internalType": "address",
          "name": "caller",
          "type": "address"
        },
        {
          "indexed": true,
          "internalType": "string",
          "name": "namespace",
          "type": "string"
        },
        {
          "indexed": false,
          "internalType": "bytes",
          "name": "requestId",
          "type": "bytes"
        },
        {
          "indexed": false,
          "internalType": "bytes",
          "name": "params",
          "type": "bytes"
        }
      ],
      "name": "DataProvided",
      "type": "event"
    },
    {
      "anonymous": false,
      "inputs": [
        {
          "indexed": true,
          "internalType": "address",
          "name": "caller",
          "type": "address"
        },
        {
          "indexed": true,
          "internalType": "string",
          "name": "namespace",
          "type": "string"
        },
        {
          "indexed": false,
          "internalType": "bytes",
          "name": "requestId",
          "type": "bytes"
        },
        {
          "indexed": false,
          "internalType": "bytes",
          "name": "params",
          "type": "bytes"
        }
      ],
      "name": "DataRegistered",
      "type": "event"
    },
    {
      "anonymous": false,
      "inputs": [
        {
          "indexed": true,
          "internalType": "address",
          "name": "caller",
          "type": "address"
        },
        {
          "indexed": true,
          "internalType": "string",
          "name": "namespace",
          "type": "string"
        },
        {
          "indexed": false,
          "internalType": "bytes",
          "name": "requestId",
          "type": "bytes"
        },
        {
          "indexed": false,
          "internalType": "bytes",
          "name": "params",
          "type": "bytes"
        }
      ],
      "name": "DataRequested",
      "type": "event"
    },
    {
      "inputs": [
        {
          "internalType": "bytes",
          "name": "_params",
          "type": "bytes"
        }
      ],
      "name": "getData",
      "outputs": [
        {
          "internalType": "bytes",
          "name": "_data",
          "type": "bytes"
        }
      ],
      "stateMutability": "view",
      "type": "function"
    },
    {
      "inputs": [
        {
          "internalType": "bytes",
          "name": "_params",
          "type": "bytes"
        }
      ],
      "name": "hasData",
      "outputs": [
        {
          "internalType": "bool",
          "name": "",
          "type": "bool"
        }
      ],
      "stateMutability": "view",
      "type": "function"
    },
    {
      "inputs": [],
      "name": "namspace",
      "outputs": [
        {
          "internalType": "string",
          "name": "",
          "type": "string"
        }
      ],
      "stateMutability": "pure",
      "type": "function"
    },
    {
      "inputs": [
        {
          "internalType": "bytes",
          "name": "_params",
          "type": "bytes"
        }
      ],
      "name": "provideData",
      "outputs": [],
      "stateMutability": "nonpayable",
      "type": "function"
    },
    {
      "inputs": [
        {
          "internalType": "bytes",
          "name": "",
          "type": "bytes"
        }
      ],
      "name": "registerEvent",
      "outputs": [],
      "stateMutability": "nonpayable",
      "type": "function"
    },
    {
      "inputs": [
        {
          "internalType": "bytes",
          "name": "_params",
          "type": "bytes"
        }
      ],
      "name": "requestData",
      "outputs": [
        {
          "internalType": "bool",
          "name": "",
          "type": "bool"
        }
      ],
      "stateMutability": "nonpayable",
      "type": "function"
    },
    {
      "inputs": [
        {
          "internalType": "bytes",
          "name": "_params",
          "type": "bytes"
        }
      ],
      "name": "updateProvision",
      "outputs": [],
      "stateMutability": "nonpayable",
      "type": "function"
    },
    {
      "inputs": [
        {
          "internalType": "bytes",
          "name": "",
          "type": "bytes"
        },
        {
          "internalType": "bytes[]",
          "name": "_options",
          "type": "bytes[]"
        }
      ],
      "name": "validateOptions",
      "outputs": [
        {
          "internalType": "bool",
          "name": "",
          "type": "bool"
        }
      ],
      "stateMutability": "nonpayable",
      "type": "function"
    }
  ],
  "bytecode": "0x608080604052346015576110bd908161001b8239f35b600080fdfe6080604052600436101561001257600080fd5b60003560e01c80631431b23a1461074e57806344dc8e40146106f45780637551a8a0146106a257806387a7cfd81461049b578063bc0fd6d71461042a578063c90d080a146103af578063dae79e2c1461030f5763eca82c1a1461007457600080fd5b3461030a5760207ffffffffffffffffffffffffffffffffffffffffffffffffffffffffffffffffc36011261030a5760043567ffffffffffffffff811161030a576100c39036906004016107c8565b906100d86100d383830183610ec3565b610efe565b6100e181610fb7565b156102e0576100ef81610f84565b6102b65760016100fe8261085c565b019267ffffffffffffffff8111610287576101238161011d86546108a1565b86610a5c565b600093601f82116001146101c85761019382807ff283980cf2fb422908da27e3d9fdf43acd75d0856dbaa2a68f680c76399137049596976000916101bd575b507fffffffffffffffffffffffffffffffffffffffffffffffffffffffffffffffff8260011b9260031b1c19161790565b90555b6101a66101a1610e88565b610aae565b936101b8604051928392339684610ace565b0390a3005b905087013538610162565b808552602085207fffffffffffffffffffffffffffffffffffffffffffffffffffffffffffffffe0831695805b87811061026f5750837ff283980cf2fb422908da27e3d9fdf43acd75d0856dbaa2a68f680c763991370495969710610237575b5050600182811b019055610196565b7fffffffffffffffffffffffffffffffffffffffffffffffffffffffffffffffff60f88560031b161c19908701351690553880610228565b9091602060018192858a0135815501930191016101f5565b7f4e487b7100000000000000000000000000000000000000000000000000000000600052604160045260246000fd5b7f817ff87e0000000000000000000000000000000000000000000000000000000060005260046000fd5b7f04c807300000000000000000000000000000000000000000000000000000000060005260046000fd5b600080fd5b3461030a5760407ffffffffffffffffffffffffffffffffffffffffffffffffffffffffffffffffc36011261030a5760043567ffffffffffffffff811161030a5761035e9036906004016107c8565b505060243567ffffffffffffffff811161030a573660238201121561030a5780600401359067ffffffffffffffff821161030a57602436918360051b01011161030a57602090600160405191118152f35b3461030a5760207ffffffffffffffffffffffffffffffffffffffffffffffffffffffffffffffffc36011261030a5760043567ffffffffffffffff811161030a576103fe9036906004016107c8565b50507fd62347250000000000000000000000000000000000000000000000000000000060005260046000fd5b3461030a5760207ffffffffffffffffffffffffffffffffffffffffffffffffffffffffffffffffc36011261030a5760043567ffffffffffffffff811161030a5761049161048c6100d361048460209436906004016107c8565b810190610ec3565b610f84565b6040519015158152f35b3461030a5760207ffffffffffffffffffffffffffffffffffffffffffffffffffffffffffffffffc36011261030a5760043567ffffffffffffffff811161030a576104ea9036906004016107c8565b906104fa6100d383830183610ec3565b61050381610fb7565b156102e05761051181610f84565b156106785760016105218261085c565b019267ffffffffffffffff8111610287576105408161011d86546108a1565b600093601f82116001146105ba5761019382807ff283980cf2fb422908da27e3d9fdf43acd75d0856dbaa2a68f680c76399137049596976000916105af57507fffffffffffffffffffffffffffffffffffffffffffffffffffffffffffffffff8260011b9260031b1c19161790565b905087013588610162565b808552602085207fffffffffffffffffffffffffffffffffffffffffffffffffffffffffffffffe0831695805b8781106106605750837ff283980cf2fb422908da27e3d9fdf43acd75d0856dbaa2a68f680c763991370495969710610628575050600182811b019055610196565b7fffffffffffffffffffffffffffffffffffffffffffffffffffffffffffffffff60f88560031b161c19908701351690558580610228565b9091602060018192858a0135815501930191016105e7565b7f3c15fc3c0000000000000000000000000000000000000000000000000000000060005260046000fd5b3461030a5760007ffffffffffffffffffffffffffffffffffffffffffffffffffffffffffffffffc36011261030a576106f06106dc610e88565b604051918291602083526020830190610819565b0390f35b3461030a5760207ffffffffffffffffffffffffffffffffffffffffffffffffffffffffffffffffc36011261030a5760043567ffffffffffffffff811161030a5761049161074860209236906004016107c8565b90610b27565b3461030a5760207ffffffffffffffffffffffffffffffffffffffffffffffffffffffffffffffffc36011261030a5760043567ffffffffffffffff811161030a576100d36104846107a39236906004016107c8565b6107ac81610f84565b15610678576106dc60016107c26106f09361085c565b01610935565b9181601f8401121561030a5782359167ffffffffffffffff831161030a576020838186019501011161030a57565b60005b8381106108095750506000910152565b81810151838201526020016107f9565b907fffffffffffffffffffffffffffffffffffffffffffffffffffffffffffffffe0601f602093610855815180928187528780880191016107f6565b0116010190565b60206108759181604051938285809451938492016107f6565b81017fde1d81bc9860c075d76ad153e67ec9a4f01e6b3b42e3792f5f132c7f1734014081520301902090565b90600182811c921680156108ea575b60208310146108bb57565b7f4e487b7100000000000000000000000000000000000000000000000000000000600052602260045260246000fd5b91607f16916108b0565b90601f7fffffffffffffffffffffffffffffffffffffffffffffffffffffffffffffffe0910116810190811067ffffffffffffffff82111761028757604052565b9060405191826000825492610949846108a1565b80845293600181169081156109b75750600114610970575b5061096e925003836108f4565b565b90506000929192526020600020906000915b81831061099b57505090602061096e9282010138610961565b6020919350806001915483858901015201910190918492610982565b6020935061096e9592507fffffffffffffffffffffffffffffffffffffffffffffffffffffffffffffff0091501682840152151560051b82010138610961565b92919267ffffffffffffffff82116102875760405191610a3f601f82017fffffffffffffffffffffffffffffffffffffffffffffffffffffffffffffffe016602001846108f4565b82948184528183011161030a578281602093846000960137010152565b601f8211610a6957505050565b6000526020600020906020601f840160051c83019310610aa4575b601f0160051c01905b818110610a98575050565b60008155600101610a8d565b9091508190610a84565b610ac6906020604051928284809451938492016107f6565b810103902090565b9183602094601f92610b097fffffffffffffffffffffffffffffffffffffffffffffffffffffffffffffffe095604088526040880190610819565b95878188039101528186528686013760008582860101520116010190565b90610b376100d382840184610ec3565b90610b4182610fb7565b610e80576020604051610b5482826108f4565b60008152604051906060820182811067ffffffffffffffff82111761028757604052610b813685886109f7565b8252828201908152604082019260008452610b9b8661085c565b925180519067ffffffffffffffff821161028757610bc382610bbd87546108a1565b87610a5c565b8290601f8311600114610ddd57610c10929160009183610d06575b50507fffffffffffffffffffffffffffffffffffffffffffffffffffffffffffffffff8260011b9260031b1c19161790565b83555b6001830191519081519167ffffffffffffffff831161028757610c3a8361011d86546108a1565b81601f8411600114610d115750827f8f98cf6cad37d272d2ef9755b9af214ca9dc0d507ee88fd6396e6c2c94e8532e9796959360029593610cae93600092610d065750507fffffffffffffffffffffffffffffffffffffffffffffffffffffffffffffffff8260011b9260031b1c19161790565b90555b019051151560ff7fffffffffffffffffffffffffffffffffffffffffffffffffffffffffffffff008354169116179055610cec6101a1610e88565b93610cfe604051928392339684610ace565b0390a3600190565b015190503880610bde565b91907fffffffffffffffffffffffffffffffffffffffffffffffffffffffffffffffe084168560005283600020936000905b828210610dc55750509260019285927f8f98cf6cad37d272d2ef9755b9af214ca9dc0d507ee88fd6396e6c2c94e8532e9a9998966002989610610d8e575b505050811b019055610cb1565b01517fffffffffffffffffffffffffffffffffffffffffffffffffffffffffffffffff60f88460031b161c19169055388080610d81565b80600186978294978701518155019601940190610d43565b907fffffffffffffffffffffffffffffffffffffffffffffffffffffffffffffffe083169186600052846000209260005b86828210610e6a575050908460019594939210610e33575b505050811b018355610c13565b01517fffffffffffffffffffffffffffffffffffffffffffffffffffffffffffffffff60f88460031b161c19169055388080610e26565b6001859682939686015181550195019301610e0e565b505050600190565b60405190610e976040836108f4565b600f82527f666f6f7462616c6c2d73636f72657300000000000000000000000000000000006020830152565b60208183031261030a5780359067ffffffffffffffff821161030a57019080601f8301121561030a57816020610efb933591016109f7565b90565b610efb610f2891610f58610f10610e88565b91604051948593604060208601526060850190610819565b907fffffffffffffffffffffffffffffffffffffffffffffffffffffffffffffffe0848303016040850152610819565b037fffffffffffffffffffffffffffffffffffffffffffffffffffffffffffffffe081018352826108f4565b6001610f92610fb39261085c565b01610fae60405191610fa56020846108f4565b60008352610935565b611064565b1590565b60ff600261102660206040516110148651918381818a0194610fda8183886107f6565b81017fde1d81bc9860c075d76ad153e67ec9a4f01e6b3b42e3792f5f132c7f17340140815203019020610fae60405191610fa586846108f4565b956040519384928392519283916107f6565b81017fde1d81bc9860c075d76ad153e67ec9a4f01e6b3b42e3792f5f132c7f173401408152030190200154169015908161105e575090565b90501590565b80519082519182810361107e576020809201209201201490565b5050505060009056fea2646970667358221220625435385ef596c79abe3caf6b3e21c403af4298d65fd265323095f6d623805364736f6c634300081c0033",
  "linkReferences": {},
  "deployedLinkReferences": {}
}