{
  "_format": "hh-sol-artifact-1",
  "contractName": "MultiFootBallOutcomeResolver",
  "sourceName": "contracts/modules/pool-resolvers/MultiFootBallOutcomeResolver.sol",
  "abi": [
    {
      "inputs": [
        {
          "internalType": "string",
          "name": "_functionName",
          "type": "string"
        }
      ],
      "name": "DelegateCallFailed",
      "type": "error"
    },
    {
      "inputs": [
        {
          "internalType": "contract IDataProvider",
          "name": "dataProvider",
          "type": "address"
        },
        {
          "components": [
            {
              "internalType": "bytes",
              "name": "params",
              "type": "bytes"
            },
            {
              "internalType": "string",
              "name": "topicId",
              "type": "string"
            },
            {
              "internalType": "uint256",
              "name": "maturity",
              "type": "uint256"
            }
          ],
          "internalType": "struct IChallengePoolCommon.ChallengeEvent",
          "name": "_event",
          "type": "tuple"
        },
        {
          "internalType": "bytes[]",
          "name": "",
          "type": "bytes[]"
        }
      ],
      "name": "resolveEvent",
      "outputs": [
        {
          "internalType": "bytes",
          "name": "",
          "type": "bytes"
        }
      ],
      "stateMutability": "nonpayable",
      "type": "function"
    },
    {
      "inputs": [
        {
          "internalType": "contract IDataProvider",
          "name": "dataProvider",
          "type": "address"
        },
        {
          "components": [
            {
              "internalType": "bytes",
              "name": "params",
              "type": "bytes"
            },
            {
              "internalType": "string",
              "name": "topicId",
              "type": "string"
            },
            {
              "internalType": "uint256",
              "name": "maturity",
              "type": "uint256"
            }
          ],
          "internalType": "struct IChallengePoolCommon.ChallengeEvent",
          "name": "_event",
          "type": "tuple"
        }
      ],
      "name": "validateEvent",
      "outputs": [
        {
          "internalType": "bool",
          "name": "",
          "type": "bool"
        }
      ],
      "stateMutability": "nonpayable",
      "type": "function"
    },
    {
      "inputs": [
        {
          "internalType": "contract IDataProvider",
          "name": "",
          "type": "address"
        },
        {
          "components": [
            {
              "internalType": "bytes",
              "name": "params",
              "type": "bytes"
            },
            {
              "internalType": "string",
              "name": "topicId",
              "type": "string"
            },
            {
              "internalType": "uint256",
              "name": "maturity",
              "type": "uint256"
            }
          ],
          "internalType": "struct IChallengePoolCommon.ChallengeEvent",
          "name": "",
          "type": "tuple"
        },
        {
          "internalType": "bytes[]",
          "name": "_options",
          "type": "bytes[]"
        }
      ],
      "name": "validateOptions",
      "outputs": [
        {
          "internalType": "bool",
          "name": "",
          "type": "bool"
        }
      ],
      "stateMutability": "pure",
      "type": "function"
    }
  ],
  "bytecode": "0x6080806040523460155761083b908161001b8239f35b600080fdfe6080604052600436101561001257600080fd5b60003560e01c8063164cf76b146102175780631e272e4c146100685763d925ce501461003d57600080fd5b346100635760206100596100503661033e565b925090506105a4565b6040519015158152f35b600080fd5b346100635760407ffffffffffffffffffffffffffffffffffffffffffffffffffffffffffffffffc3601126100635760043573ffffffffffffffffffffffffffffffffffffffff81168091036100635760243567ffffffffffffffff81116100635760607ffffffffffffffffffffffffffffffffffffffffffffffffffffffffffffffffc8260040192360301126100635760009161011261010b838594610472565b369161056d565b6040516101818161015560208201947f44dc8e40000000000000000000000000000000000000000000000000000000008652602060248401526044830190610413565b037fffffffffffffffffffffffffffffffffffffffffffffffffffffffffffffffe081018352826104c3565b51915af461018d6105fd565b90156101b957602081805181010312610063576020015180151580910361006357602090604051908152f35b60646040517f9becf85d00000000000000000000000000000000000000000000000000000000815260206004820152601960248201527f426173655265736f6c7665722e5f7265717565737444617461000000000000006044820152fd5b346100635760008061010b61023961022e3661033e565b505080939193610472565b73ffffffffffffffffffffffffffffffffffffffff6040516102918161015560208201957f1431b23a000000000000000000000000000000000000000000000000000000008752602060248401526044830190610413565b5192165af461029e6105fd565b90156102e057604081805181010312610063576102c881604060206102dc940151910151906106de565b604051918291602083526020830190610413565b0390f35b60646040517f9becf85d00000000000000000000000000000000000000000000000000000000815260206004820152601560248201527f426173655265736f6c7665722e5f6765744461746100000000000000000000006044820152fd5b9060607ffffffffffffffffffffffffffffffffffffffffffffffffffffffffffffffffc8301126100635760043573ffffffffffffffffffffffffffffffffffffffff81168103610063579160243567ffffffffffffffff81116100635760607ffffffffffffffffffffffffffffffffffffffffffffffffffffffffffffffffc8284030112610063576004019160443567ffffffffffffffff811161006357826023820112156100635780600401359267ffffffffffffffff84116100635760248460051b83010111610063576024019190565b919082519283825260005b84811061045d5750507fffffffffffffffffffffffffffffffffffffffffffffffffffffffffffffffe0601f8460006020809697860101520116010190565b8060208092840101518282860101520161041e565b9035907fffffffffffffffffffffffffffffffffffffffffffffffffffffffffffffffe181360301821215610063570180359067ffffffffffffffff82116100635760200191813603831361006357565b90601f7fffffffffffffffffffffffffffffffffffffffffffffffffffffffffffffffe0910116810190811067ffffffffffffffff82111761050457604052565b7f4e487b7100000000000000000000000000000000000000000000000000000000600052604160045260246000fd5b67ffffffffffffffff811161050457601f017fffffffffffffffffffffffffffffffffffffffffffffffffffffffffffffffe01660200190565b92919261057982610533565b9161058760405193846104c3565b829481845281830111610063578281602093846000960137010152565b81156105f657600382116105f65760005b828110156105ee5760006105d96105d461010b8460051b860186610472565b610732565b156105e757506001016105b5565b9250505090565b505050600190565b5050600090565b3d15610628573d9061060e82610533565b9161061c60405193846104c3565b82523d6000602084013e565b606090565b6040519061063c6040836104c3565b600482527f64726177000000000000000000000000000000000000000000000000000000006020830152565b604051906106776040836104c3565b600482527f61776179000000000000000000000000000000000000000000000000000000006020830152565b604051906106b26040836104c3565b600482527f686f6d65000000000000000000000000000000000000000000000000000000006020830152565b908082111561071057505061015561070d6106f76106a3565b6040519283916020808401526040830190610413565b90565b11156107245761015561070d6106f7610668565b61015561070d6106f761062d565b6107496101556107436106f76106a3565b826107e2565b1590816107c8575b81610766575b5061076157600190565b600090565b6107c19150610790906107bc61077a61062d565b6040519384916020808401526040830190610413565b037fffffffffffffffffffffffffffffffffffffffffffffffffffffffffffffffe081018452836104c3565b6107e2565b1538610757565b90506107db6101556107436106f7610668565b1590610751565b8051908251918281036107fc576020809201209201201490565b5050505060009056fea26469706673582212200f3ae4fc4a129828cb2e522a17eed02132cf9e70690236e7d8f533173f84837c64736f6c634300081c0033",
  "linkReferences": {},
  "deployedLinkReferences": {}
}