{
  "_format": "hh-sol-artifact-1",
  "contractName": "AccessControlInit",
  "sourceName": "contracts/diamond/upgradeInitializers/AccessControlInit.sol",
  "abi": [
    {
      "anonymous": false,
      "inputs": [
        {
          "indexed": true,
          "internalType": "bytes32",
          "name": "role",
          "type": "bytes32"
        },
        {
          "indexed": true,
          "internalType": "bytes32",
          "name": "previousAdminRole",
          "type": "bytes32"
        },
        {
          "indexed": true,
          "internalType": "bytes32",
          "name": "newAdminRole",
          "type": "bytes32"
        }
      ],
      "name": "RoleAdminChanged",
      "type": "event"
    },
    {
      "anonymous": false,
      "inputs": [
        {
          "indexed": true,
          "internalType": "bytes32",
          "name": "role",
          "type": "bytes32"
        },
        {
          "indexed": true,
          "internalType": "address",
          "name": "account",
          "type": "address"
        },
        {
          "indexed": true,
          "internalType": "address",
          "name": "sender",
          "type": "address"
        }
      ],
      "name": "RoleGranted",
      "type": "event"
    },
    {
      "anonymous": false,
      "inputs": [
        {
          "indexed": true,
          "internalType": "bytes32",
          "name": "role",
          "type": "bytes32"
        },
        {
          "indexed": true,
          "internalType": "address",
          "name": "account",
          "type": "address"
        },
        {
          "indexed": true,
          "internalType": "address",
          "name": "sender",
          "type": "address"
        }
      ],
      "name": "RoleRevoked",
      "type": "event"
    },
    {
      "inputs": [],
      "name": "init",
      "outputs": [],
      "stateMutability": "nonpayable",
      "type": "function"
    }
  ],
  "bytecode": "0x6080806040523460155761055c908161001b8239f35b600080fdfe6080604052600436101561001257600080fd5b60003560e01c63e1c7392a1461002757600080fd5b346105215760007ffffffffffffffffffffffffffffffffffffffffffffffffffffffffffffffffc360112610521573360009081527f56672a897fec8f593dbda72d8f96ed3062a0fc2846fe0fef1ce1d2d41603db9060208190526040909120547f56672a897fec8f593dbda72d8f96ed3062a0fc2846fe0fef1ce1d2d41603db8f90156104dc575b5050333360007f2f8788117e7eff1d82e926ec794901d17c78024a50270940304540a733656f0d8180a43360009081527fe462662cce7075a229bc540c3fa56dbdf044adfc96ab6efabe903fb7038c484c60208190526040909120547fe462662cce7075a229bc540c3fa56dbdf044adfc96ab6efabe903fb7038c484b9015610497575b505033337f68e79a7bf1e0bc45d0a330c573bc367f9cf464fd326078812f301165fbda4ef17f2f8788117e7eff1d82e926ec794901d17c78024a50270940304540a733656f0d600080a43360009081527f5df958419b70ebe5143806cf0f6478e784c70715571b1537a8654d08aa000c9860208190526040909120547f5df958419b70ebe5143806cf0f6478e784c70715571b1537a8654d08aa000c979015610452575b505033337f257f7af571bef1aeea6fc91519e3aff624d394bb4c68c84751ea30774903cea07f2f8788117e7eff1d82e926ec794901d17c78024a50270940304540a733656f0d600080a43360009081527ffcd7b55f15e2af29c253b5826e1f276923ba99635f76f0021cbac585571660c860208190526040909120547ffcd7b55f15e2af29c253b5826e1f276923ba99635f76f0021cbac585571660c7901561040d575b505033337f143759e3172306ff31f387ad631b8acfd4307a8508f07ae6e594580439d23ad77f2f8788117e7eff1d82e926ec794901d17c78024a50270940304540a733656f0d600080a43360009081527f07829b1d2c74b9cdb76c9e34241ac13a240ba0f36f2bdce278acabec3b2371d460208190526040909120547f07829b1d2c74b9cdb76c9e34241ac13a240ba0f36f2bdce278acabec3b2371d3901561036a575b33337fd259a6a26c9a89f98f5f243a97dfecb66c72090b18c64780a112825494c010c17f2f8788117e7eff1d82e926ec794901d17c78024a50270940304540a733656f0d600080a4005b8054680100000000000000008110156103de57600181018083558110156103af5781600052339060206000200155549033600052602052604060002055600138610320565b7f4e487b7100000000000000000000000000000000000000000000000000000000600052603260045260246000fd5b7f4e487b7100000000000000000000000000000000000000000000000000000000600052604160045260246000fd5b8054680100000000000000008110156103de57600181018083558110156103af578160005233906020600020015554903360005260205260406000205560013861027c565b8054680100000000000000008110156103de57600181018083558110156103af57816000523390602060002001555490336000526020526040600020556001386101d8565b8054680100000000000000008110156103de57600181018083558110156103af5781600052339060206000200155549033600052602052604060002055600138610134565b8054680100000000000000008110156103de57600181018083558110156103af57816000523390602060002001555490336000526020526040600020556001386100b0565b600080fdfea26469706673582212203dcc125d7061650fe8ffcc965c30172923c1984e2f49106741c8a52e2078831664736f6c634300081c0033",
  "linkReferences": {},
  "deployedLinkReferences": {}
}