{
  "_format": "hh-sol-artifact-1",
  "contractName": "AccessControlFacet",
  "sourceName": "contracts/diamond/facets/AccessControlFacet.sol",
  "abi": [
    {
      "inputs": [],
      "name": "EnumerableSet__IndexOutOfBounds",
      "type": "error"
    },
    {
      "inputs": [],
      "name": "UintUtils__InsufficientPadding",
      "type": "error"
    },
    {
      "anonymous": false,
      "inputs": [
        {
          "indexed": true,
          "internalType": "bytes32",
          "name": "role",
          "type": "bytes32"
        },
        {
          "indexed": true,
          "internalType": "bytes32",
          "name": "previousAdminRole",
          "type": "bytes32"
        },
        {
          "indexed": true,
          "internalType": "bytes32",
          "name": "newAdminRole",
          "type": "bytes32"
        }
      ],
      "name": "RoleAdminChanged",
      "type": "event"
    },
    {
      "anonymous": false,
      "inputs": [
        {
          "indexed": true,
          "internalType": "bytes32",
          "name": "role",
          "type": "bytes32"
        },
        {
          "indexed": true,
          "internalType": "address",
          "name": "account",
          "type": "address"
        },
        {
          "indexed": true,
          "internalType": "address",
          "name": "sender",
          "type": "address"
        }
      ],
      "name": "RoleGranted",
      "type": "event"
    },
    {
      "anonymous": false,
      "inputs": [
        {
          "indexed": true,
          "internalType": "bytes32",
          "name": "role",
          "type": "bytes32"
        },
        {
          "indexed": true,
          "internalType": "address",
          "name": "account",
          "type": "address"
        },
        {
          "indexed": true,
          "internalType": "address",
          "name": "sender",
          "type": "address"
        }
      ],
      "name": "RoleRevoked",
      "type": "event"
    },
    {
      "inputs": [],
      "name": "CHALLENGE_POOL_MANAGER",
      "outputs": [
        {
          "internalType": "bytes32",
          "name": "",
          "type": "bytes32"
        }
      ],
      "stateMutability": "view",
      "type": "function"
    },
    {
      "inputs": [],
      "name": "ORACLE_ROLE",
      "outputs": [
        {
          "internalType": "bytes32",
          "name": "",
          "type": "bytes32"
        }
      ],
      "stateMutability": "view",
      "type": "function"
    },
    {
      "inputs": [],
      "name": "SOCCERSM_COUNCIL",
      "outputs": [
        {
          "internalType": "bytes32",
          "name": "",
          "type": "bytes32"
        }
      ],
      "stateMutability": "view",
      "type": "function"
    },
    {
      "inputs": [],
      "name": "TOPIC_REGISTRAR",
      "outputs": [
        {
          "internalType": "bytes32",
          "name": "",
          "type": "bytes32"
        }
      ],
      "stateMutability": "view",
      "type": "function"
    },
    {
      "inputs": [
        {
          "internalType": "bytes32",
          "name": "role",
          "type": "bytes32"
        }
      ],
      "name": "getRoleAdmin",
      "outputs": [
        {
          "internalType": "bytes32",
          "name": "",
          "type": "bytes32"
        }
      ],
      "stateMutability": "view",
      "type": "function"
    },
    {
      "inputs": [
        {
          "internalType": "bytes32",
          "name": "role",
          "type": "bytes32"
        },
        {
          "internalType": "uint256",
          "name": "index",
          "type": "uint256"
        }
      ],
      "name": "getRoleMember",
      "outputs": [
        {
          "internalType": "address",
          "name": "",
          "type": "address"
        }
      ],
      "stateMutability": "view",
      "type": "function"
    },
    {
      "inputs": [
        {
          "internalType": "bytes32",
          "name": "role",
          "type": "bytes32"
        }
      ],
      "name": "getRoleMemberCount",
      "outputs": [
        {
          "internalType": "uint256",
          "name": "",
          "type": "uint256"
        }
      ],
      "stateMutability": "view",
      "type": "function"
    },
    {
      "inputs": [
        {
          "internalType": "bytes32",
          "name": "role",
          "type": "bytes32"
        },
        {
          "internalType": "address",
          "name": "account",
          "type": "address"
        }
      ],
      "name": "grantRole",
      "outputs": [],
      "stateMutability": "nonpayable",
      "type": "function"
    },
    {
      "inputs": [
        {
          "internalType": "bytes32",
          "name": "role",
          "type": "bytes32"
        },
        {
          "internalType": "address",
          "name": "account",
          "type": "address"
        }
      ],
      "name": "hasRole",
      "outputs": [
        {
          "internalType": "bool",
          "name": "",
          "type": "bool"
        }
      ],
      "stateMutability": "view",
      "type": "function"
    },
    {
      "inputs": [
        {
          "internalType": "bytes32",
          "name": "role",
          "type": "bytes32"
        }
      ],
      "name": "renounceRole",
      "outputs": [],
      "stateMutability": "nonpayable",
      "type": "function"
    },
    {
      "inputs": [
        {
          "internalType": "bytes32",
          "name": "role",
          "type": "bytes32"
        },
        {
          "internalType": "address",
          "name": "account",
          "type": "address"
        }
      ],
      "name": "revokeRole",
      "outputs": [],
      "stateMutability": "nonpayable",
      "type": "function"
    }
  ],
  "bytecode": "0x60808060405234601557610ce7908161001b8239f35b600080fdfe608080604052600436101561001357600080fd5b60003560e01c90816307e2cea5146105d057508063248a9ca31461055e5780632f2ff15d146103e05780638bb9c5bf146103a55780639010d07c146102df57806391d14854146102695780639a52834c14610210578063b95f382f146101b7578063ca15c8731461014e578063d547741f146100f65763f3b289891461009857600080fd5b346100f15760007ffffffffffffffffffffffffffffffffffffffffffffffffffffffffffffffffc3601126100f15760206040517f143759e3172306ff31f387ad631b8acfd4307a8508f07ae6e594580439d23ad78152f35b600080fd5b346100f15761014c61010736610627565b90610147610142826000527fd3889cc5458b268d0544e5534672df1296288ca3f93cbd39bd6f497a5c62281160205260026040600020015490565b610678565b610a15565b005b346100f15760207ffffffffffffffffffffffffffffffffffffffffffffffffffffffffffffffffc3601126100f1576004356000527fd3889cc5458b268d0544e5534672df1296288ca3f93cbd39bd6f497a5c6228116020526020604060002054604051908152f35b346100f15760007ffffffffffffffffffffffffffffffffffffffffffffffffffffffffffffffffc3601126100f15760206040517fd259a6a26c9a89f98f5f243a97dfecb66c72090b18c64780a112825494c010c18152f35b346100f15760007ffffffffffffffffffffffffffffffffffffffffffffffffffffffffffffffffc3601126100f15760206040517f257f7af571bef1aeea6fc91519e3aff624d394bb4c68c84751ea30774903cea08152f35b346100f15760206102d561027c36610627565b906000527fd3889cc5458b268d0544e5534672df1296288ca3f93cbd39bd6f497a5c622811835273ffffffffffffffffffffffffffffffffffffffff604060002091169060019160005201602052604060002054151590565b6040519015158152f35b346100f15760407ffffffffffffffffffffffffffffffffffffffffffffffffffffffffffffffffc3601126100f1576024356004356000527fd3889cc5458b268d0544e5534672df1296288ca3f93cbd39bd6f497a5c622811602052604060002090815481101561037b5761036b73ffffffffffffffffffffffffffffffffffffffff91602093610c99565b90549060031b1c16604051908152f35b7fe637bf3b0000000000000000000000000000000000000000000000000000000060005260046000fd5b346100f15760207ffffffffffffffffffffffffffffffffffffffffffffffffffffffffffffffffc3601126100f15761014c33600435610a15565b346100f1576103ee36610627565b610428610142836000527fd3889cc5458b268d0544e5534672df1296288ca3f93cbd39bd6f497a5c62281160205260026040600020015490565b816000527fd3889cc5458b268d0544e5534672df1296288ca3f93cbd39bd6f497a5c62281160205273ffffffffffffffffffffffffffffffffffffffff6040600020911690610487828260019160005201602052604060002054151590565b156104b7575b5033917f2f8788117e7eff1d82e926ec794901d17c78024a50270940304540a733656f0d600080a4005b80546801000000000000000081101561052f576105136104de826001869401855584610c99565b81939154907fffffffffffffffffffffffffffffffffffffffffffffffffffffffffffffffff9060031b92831b921b19161790565b905560018154918360005201602052604060002055600161048d565b7f4e487b7100000000000000000000000000000000000000000000000000000000600052604160045260246000fd5b346100f15760207ffffffffffffffffffffffffffffffffffffffffffffffffffffffffffffffffc3601126100f15760206105c86004356000527fd3889cc5458b268d0544e5534672df1296288ca3f93cbd39bd6f497a5c62281160205260026040600020015490565b604051908152f35b346100f15760007ffffffffffffffffffffffffffffffffffffffffffffffffffffffffffffffffc3601126100f157807f68e79a7bf1e0bc45d0a330c573bc367f9cf464fd326078812f301165fbda4ef160209252f35b7ffffffffffffffffffffffffffffffffffffffffffffffffffffffffffffffffc60409101126100f1576004359060243573ffffffffffffffffffffffffffffffffffffffff811681036100f15790565b806000527fd3889cc5458b268d0544e5534672df1296288ca3f93cbd39bd6f497a5c6228116020526106be33604060002060019160005201602052604060002054151590565b156106c65750565b3390602a9060006106d683610c1f565b936106e46040519586610bde565b8385526106f084610c1f565b937fffffffffffffffffffffffffffffffffffffffffffffffffffffffffffffffe0602087019501368637855115610981576030855385516001101561098157607860218701535b600281116109ae57506108c55750604290600061075483610c1f565b916107626040519384610bde565b83835261076e84610c1f565b937fffffffffffffffffffffffffffffffffffffffffffffffffffffffffffffffe0602085019501368637835115610981576030855383516001101561098157607860218501535b600281116108ed57506108c5576108bc604461086b7fffffffffffffffffffffffffffffffffffffffffffffffffffffffffffffffe0601f8961087a60118b60378c8c604051998a9461083660208701997f416363657373436f6e74726f6c3a206163636f756e74200000000000000000008b5251809287890190610bbb565b8501917f206973206d697373696e6720726f6c6520000000000000000000000000000000858401525180936048840190610bbb565b01010301848101865285610bde565b6040519586947f08c379a00000000000000000000000000000000000000000000000000000000086526020600487015251809281602488015287870190610bbb565b01168101030190fd5b807fab409fe20000000000000000000000000000000000000000000000000000000060049252fd5b7fffffffffffffffffffffffffffffffffffffffffffffffffffffffffffffffff0190600f81166010811015610954577f3031323334353637383961626364656600000000000000000000000000000000901a61094a8386610c59565b5360041c906107b6565b6024847f4e487b710000000000000000000000000000000000000000000000000000000081526032600452fd5b6024837f4e487b710000000000000000000000000000000000000000000000000000000081526032600452fd5b7fffffffffffffffffffffffffffffffffffffffffffffffffffffffffffffffff0190600f81166010811015610954577f3031323334353637383961626364656600000000000000000000000000000000901a610a0b8388610c59565b5360041c90610738565b90816000527fd3889cc5458b268d0544e5534672df1296288ca3f93cbd39bd6f497a5c62281160205273ffffffffffffffffffffffffffffffffffffffff60406000209116906001810190826000528160205260406000205480610aa0575b50505033917ff6391f5c32d9c69d2a47ea670b442974b53935d1edc7fd64eb21e047a839171b600080a4565b610acd7fffffffffffffffffffffffffffffffffffffffffffffffffffffffffffffffff83540183610c99565b90549060031b1c80610b046104de7fffffffffffffffffffffffffffffffffffffffffffffffffffffffffffffffff850186610c99565b90556000528260205260406000205580548015610b8c577fffffffffffffffffffffffffffffffffffffffffffffffffffffffffffffffff0190610b488282610c99565b7fffffffffffffffffffffffffffffffffffffffffffffffffffffffffffffffff82549160031b1b1916905555816000526020526000604081205560013880610a74565b7f4e487b7100000000000000000000000000000000000000000000000000000000600052603160045260246000fd5b60005b838110610bce5750506000910152565b8181015183820152602001610bbe565b90601f7fffffffffffffffffffffffffffffffffffffffffffffffffffffffffffffffe0910116810190811067ffffffffffffffff82111761052f57604052565b67ffffffffffffffff811161052f57601f017fffffffffffffffffffffffffffffffffffffffffffffffffffffffffffffffe01660200190565b908151811015610c6a570160200190565b7f4e487b7100000000000000000000000000000000000000000000000000000000600052603260045260246000fd5b8054821015610c6a576000526020600020019060009056fea2646970667358221220ea138eea28988fae99127dba1e0b22753ba413e824da952b0f5352089e20af9f64736f6c634300081c0033",
  "linkReferences": {},
  "deployedLinkReferences": {}
}