{
  "_format": "hh-sol-artifact-1",
  "contractName": "AccessControlFacet",
  "sourceName": "contracts/diamond/facets/AccessControlFacet.sol",
  "abi": [
    {
      "inputs": [],
      "name": "EnumerableSet__IndexOutOfBounds",
      "type": "error"
    },
    {
      "inputs": [],
      "name": "UintUtils__InsufficientPadding",
      "type": "error"
    },
    {
      "anonymous": false,
      "inputs": [
        {
          "indexed": true,
          "internalType": "bytes32",
          "name": "role",
          "type": "bytes32"
        },
        {
          "indexed": true,
          "internalType": "bytes32",
          "name": "previousAdminRole",
          "type": "bytes32"
        },
        {
          "indexed": true,
          "internalType": "bytes32",
          "name": "newAdminRole",
          "type": "bytes32"
        }
      ],
      "name": "RoleAdminChanged",
      "type": "event"
    },
    {
      "anonymous": false,
      "inputs": [
        {
          "indexed": true,
          "internalType": "bytes32",
          "name": "role",
          "type": "bytes32"
        },
        {
          "indexed": true,
          "internalType": "address",
          "name": "account",
          "type": "address"
        },
        {
          "indexed": true,
          "internalType": "address",
          "name": "sender",
          "type": "address"
        }
      ],
      "name": "RoleGranted",
      "type": "event"
    },
    {
      "anonymous": false,
      "inputs": [
        {
          "indexed": true,
          "internalType": "bytes32",
          "name": "role",
          "type": "bytes32"
        },
        {
          "indexed": true,
          "internalType": "address",
          "name": "account",
          "type": "address"
        },
        {
          "indexed": true,
          "internalType": "address",
          "name": "sender",
          "type": "address"
        }
      ],
      "name": "RoleRevoked",
      "type": "event"
    },
    {
      "inputs": [
        {
          "internalType": "bytes32",
          "name": "role",
          "type": "bytes32"
        }
      ],
      "name": "getRoleAdmin",
      "outputs": [
        {
          "internalType": "bytes32",
          "name": "",
          "type": "bytes32"
        }
      ],
      "stateMutability": "view",
      "type": "function"
    },
    {
      "inputs": [
        {
          "internalType": "bytes32",
          "name": "role",
          "type": "bytes32"
        },
        {
          "internalType": "uint256",
          "name": "index",
          "type": "uint256"
        }
      ],
      "name": "getRoleMember",
      "outputs": [
        {
          "internalType": "address",
          "name": "",
          "type": "address"
        }
      ],
      "stateMutability": "view",
      "type": "function"
    },
    {
      "inputs": [
        {
          "internalType": "bytes32",
          "name": "role",
          "type": "bytes32"
        }
      ],
      "name": "getRoleMemberCount",
      "outputs": [
        {
          "internalType": "uint256",
          "name": "",
          "type": "uint256"
        }
      ],
      "stateMutability": "view",
      "type": "function"
    },
    {
      "inputs": [
        {
          "internalType": "bytes32",
          "name": "role",
          "type": "bytes32"
        },
        {
          "internalType": "address",
          "name": "account",
          "type": "address"
        }
      ],
      "name": "grantRole",
      "outputs": [],
      "stateMutability": "nonpayable",
      "type": "function"
    },
    {
      "inputs": [
        {
          "internalType": "bytes32",
          "name": "role",
          "type": "bytes32"
        },
        {
          "internalType": "address",
          "name": "account",
          "type": "address"
        }
      ],
      "name": "hasRole",
      "outputs": [
        {
          "internalType": "bool",
          "name": "",
          "type": "bool"
        }
      ],
      "stateMutability": "view",
      "type": "function"
    },
    {
      "inputs": [
        {
          "internalType": "bytes32",
          "name": "role",
          "type": "bytes32"
        }
      ],
      "name": "renounceRole",
      "outputs": [],
      "stateMutability": "nonpayable",
      "type": "function"
    },
    {
      "inputs": [
        {
          "internalType": "bytes32",
          "name": "role",
          "type": "bytes32"
        },
        {
          "internalType": "address",
          "name": "account",
          "type": "address"
        }
      ],
      "name": "revokeRole",
      "outputs": [],
      "stateMutability": "nonpayable",
      "type": "function"
    }
  ],
  "bytecode": "0x60808060405234601557610b56908161001b8239f35b600080fdfe6080604052600436101561001257600080fd5b60003560e01c8063248a9ca3146104245780632f2ff15d146102a65780638bb9c5bf1461026b5780639010d07c146101a557806391d148541461012f578063ca15c873146100c65763d547741f1461006957600080fd5b346100c1576100bf61007a36610496565b906100ba6100b5826000527fd3889cc5458b268d0544e5534672df1296288ca3f93cbd39bd6f497a5c62281160205260026040600020015490565b6104e7565b610884565b005b600080fd5b346100c15760207ffffffffffffffffffffffffffffffffffffffffffffffffffffffffffffffffc3601126100c1576004356000527fd3889cc5458b268d0544e5534672df1296288ca3f93cbd39bd6f497a5c6228116020526020604060002054604051908152f35b346100c157602061019b61014236610496565b906000527fd3889cc5458b268d0544e5534672df1296288ca3f93cbd39bd6f497a5c622811835273ffffffffffffffffffffffffffffffffffffffff604060002091169060019160005201602052604060002054151590565b6040519015158152f35b346100c15760407ffffffffffffffffffffffffffffffffffffffffffffffffffffffffffffffffc3601126100c1576024356004356000527fd3889cc5458b268d0544e5534672df1296288ca3f93cbd39bd6f497a5c62281160205260406000209081548110156102415761023173ffffffffffffffffffffffffffffffffffffffff91602093610b08565b90549060031b1c16604051908152f35b7fe637bf3b0000000000000000000000000000000000000000000000000000000060005260046000fd5b346100c15760207ffffffffffffffffffffffffffffffffffffffffffffffffffffffffffffffffc3601126100c1576100bf33600435610884565b346100c1576102b436610496565b6102ee6100b5836000527fd3889cc5458b268d0544e5534672df1296288ca3f93cbd39bd6f497a5c62281160205260026040600020015490565b816000527fd3889cc5458b268d0544e5534672df1296288ca3f93cbd39bd6f497a5c62281160205273ffffffffffffffffffffffffffffffffffffffff604060002091169061034d828260019160005201602052604060002054151590565b1561037d575b5033917f2f8788117e7eff1d82e926ec794901d17c78024a50270940304540a733656f0d600080a4005b8054680100000000000000008110156103f5576103d96103a4826001869401855584610b08565b81939154907fffffffffffffffffffffffffffffffffffffffffffffffffffffffffffffffff9060031b92831b921b19161790565b9055600181549183600052016020526040600020556001610353565b7f4e487b7100000000000000000000000000000000000000000000000000000000600052604160045260246000fd5b346100c15760207ffffffffffffffffffffffffffffffffffffffffffffffffffffffffffffffffc3601126100c157602061048e6004356000527fd3889cc5458b268d0544e5534672df1296288ca3f93cbd39bd6f497a5c62281160205260026040600020015490565b604051908152f35b7ffffffffffffffffffffffffffffffffffffffffffffffffffffffffffffffffc60409101126100c1576004359060243573ffffffffffffffffffffffffffffffffffffffff811681036100c15790565b806000527fd3889cc5458b268d0544e5534672df1296288ca3f93cbd39bd6f497a5c62281160205261052d33604060002060019160005201602052604060002054151590565b156105355750565b3390602a90600061054583610a8e565b936105536040519586610a4d565b83855261055f84610a8e565b937fffffffffffffffffffffffffffffffffffffffffffffffffffffffffffffffe06020870195013686378551156107f057603085538551600110156107f057607860218701535b6002811161081d5750610734575060429060006105c383610a8e565b916105d16040519384610a4d565b8383526105dd84610a8e565b937fffffffffffffffffffffffffffffffffffffffffffffffffffffffffffffffe06020850195013686378351156107f057603085538351600110156107f057607860218501535b6002811161075c57506107345761072b60446106da7fffffffffffffffffffffffffffffffffffffffffffffffffffffffffffffffe0601f896106e960118b60378c8c604051998a946106a560208701997f416363657373436f6e74726f6c3a206163636f756e74200000000000000000008b5251809287890190610a2a565b8501917f206973206d697373696e6720726f6c6520000000000000000000000000000000858401525180936048840190610a2a565b01010301848101865285610a4d565b6040519586947f08c379a00000000000000000000000000000000000000000000000000000000086526020600487015251809281602488015287870190610a2a565b01168101030190fd5b807fab409fe20000000000000000000000000000000000000000000000000000000060049252fd5b7fffffffffffffffffffffffffffffffffffffffffffffffffffffffffffffffff0190600f811660108110156107c3577f3031323334353637383961626364656600000000000000000000000000000000901a6107b98386610ac8565b5360041c90610625565b6024847f4e487b710000000000000000000000000000000000000000000000000000000081526032600452fd5b6024837f4e487b710000000000000000000000000000000000000000000000000000000081526032600452fd5b7fffffffffffffffffffffffffffffffffffffffffffffffffffffffffffffffff0190600f811660108110156107c3577f3031323334353637383961626364656600000000000000000000000000000000901a61087a8388610ac8565b5360041c906105a7565b90816000527fd3889cc5458b268d0544e5534672df1296288ca3f93cbd39bd6f497a5c62281160205273ffffffffffffffffffffffffffffffffffffffff6040600020911690600181019082600052816020526040600020548061090f575b50505033917ff6391f5c32d9c69d2a47ea670b442974b53935d1edc7fd64eb21e047a839171b600080a4565b61093c7fffffffffffffffffffffffffffffffffffffffffffffffffffffffffffffffff83540183610b08565b90549060031b1c806109736103a47fffffffffffffffffffffffffffffffffffffffffffffffffffffffffffffffff850186610b08565b905560005282602052604060002055805480156109fb577fffffffffffffffffffffffffffffffffffffffffffffffffffffffffffffffff01906109b78282610b08565b7fffffffffffffffffffffffffffffffffffffffffffffffffffffffffffffffff82549160031b1b19169055558160005260205260006040812055600138806108e3565b7f4e487b7100000000000000000000000000000000000000000000000000000000600052603160045260246000fd5b60005b838110610a3d5750506000910152565b8181015183820152602001610a2d565b90601f7fffffffffffffffffffffffffffffffffffffffffffffffffffffffffffffffe0910116810190811067ffffffffffffffff8211176103f557604052565b67ffffffffffffffff81116103f557601f017fffffffffffffffffffffffffffffffffffffffffffffffffffffffffffffffe01660200190565b908151811015610ad9570160200190565b7f4e487b7100000000000000000000000000000000000000000000000000000000600052603260045260246000fd5b8054821015610ad9576000526020600020019060009056fea264697066735822122038bc1f3b976f82922e7adbbe316396c142ccf8f6b3cbda289b3b542ec4e42b0164736f6c634300081c0033",
  "linkReferences": {},
  "deployedLinkReferences": {}
}