{
  "_format": "hh-sol-artifact-1",
  "contractName": "AssetPriceDataProvider",
  "sourceName": "contracts/modules/data-providers/AssetPriceDataProvider.sol",
  "abi": [
    {
      "inputs": [],
      "name": "DataAlreadyProvided",
      "type": "error"
    },
    {
      "inputs": [],
      "name": "DataAlreadyRegistered",
      "type": "error"
    },
    {
      "inputs": [],
      "name": "DataNotProvided",
      "type": "error"
    },
    {
      "inputs": [],
      "name": "DataNotRegistered",
      "type": "error"
    },
    {
      "inputs": [],
      "name": "DataNotRequested",
      "type": "error"
    },
    {
      "inputs": [],
      "name": "EmptyBytes",
      "type": "error"
    },
    {
      "inputs": [],
      "name": "EmptyString",
      "type": "error"
    },
    {
      "inputs": [],
      "name": "InvalidResult",
      "type": "error"
    },
    {
      "inputs": [
        {
          "internalType": "uint256",
          "name": "_date",
          "type": "uint256"
        }
      ],
      "name": "InvalidSubmissionDate",
      "type": "error"
    },
    {
      "inputs": [],
      "name": "NotImplemented",
      "type": "error"
    },
    {
      "inputs": [],
      "name": "ZeroAddress",
      "type": "error"
    },
    {
      "inputs": [],
      "name": "ZeroNumber",
      "type": "error"
    },
    {
      "anonymous": false,
      "inputs": [
        {
          "indexed": false,
          "internalType": "address",
          "name": "caller",
          "type": "address"
        },
        {
          "indexed": false,
          "internalType": "string",
          "name": "namespace",
          "type": "string"
        },
        {
          "indexed": false,
          "internalType": "bytes",
          "name": "requestId",
          "type": "bytes"
        },
        {
          "indexed": false,
          "internalType": "bytes",
          "name": "params",
          "type": "bytes"
        }
      ],
      "name": "DataProvided",
      "type": "event"
    },
    {
      "anonymous": false,
      "inputs": [
        {
          "indexed": false,
          "internalType": "address",
          "name": "caller",
          "type": "address"
        },
        {
          "indexed": false,
          "internalType": "string",
          "name": "namespace",
          "type": "string"
        },
        {
          "indexed": false,
          "internalType": "bytes",
          "name": "requestId",
          "type": "bytes"
        },
        {
          "indexed": false,
          "internalType": "bytes",
          "name": "params",
          "type": "bytes"
        }
      ],
      "name": "DataRegistered",
      "type": "event"
    },
    {
      "anonymous": false,
      "inputs": [
        {
          "indexed": false,
          "internalType": "address",
          "name": "caller",
          "type": "address"
        },
        {
          "indexed": false,
          "internalType": "string",
          "name": "namespace",
          "type": "string"
        },
        {
          "indexed": false,
          "internalType": "bytes",
          "name": "requestId",
          "type": "bytes"
        },
        {
          "indexed": false,
          "internalType": "bytes",
          "name": "params",
          "type": "bytes"
        }
      ],
      "name": "DataRequested",
      "type": "event"
    },
    {
      "inputs": [
        {
          "internalType": "bytes",
          "name": "_params",
          "type": "bytes"
        }
      ],
      "name": "getData",
      "outputs": [
        {
          "internalType": "bytes",
          "name": "_data",
          "type": "bytes"
        }
      ],
      "stateMutability": "view",
      "type": "function"
    },
    {
      "inputs": [
        {
          "internalType": "bytes",
          "name": "_params",
          "type": "bytes"
        }
      ],
      "name": "hasData",
      "outputs": [
        {
          "internalType": "bool",
          "name": "",
          "type": "bool"
        }
      ],
      "stateMutability": "view",
      "type": "function"
    },
    {
      "inputs": [],
      "name": "namespace",
      "outputs": [
        {
          "internalType": "string",
          "name": "",
          "type": "string"
        }
      ],
      "stateMutability": "pure",
      "type": "function"
    },
    {
      "inputs": [
        {
          "internalType": "bytes",
          "name": "_params",
          "type": "bytes"
        }
      ],
      "name": "provideData",
      "outputs": [],
      "stateMutability": "nonpayable",
      "type": "function"
    },
    {
      "inputs": [
        {
          "internalType": "bytes",
          "name": "",
          "type": "bytes"
        }
      ],
      "name": "registerEvent",
      "outputs": [],
      "stateMutability": "nonpayable",
      "type": "function"
    },
    {
      "inputs": [
        {
          "internalType": "bytes",
          "name": "_params",
          "type": "bytes"
        }
      ],
      "name": "requestData",
      "outputs": [
        {
          "internalType": "bool",
          "name": "",
          "type": "bool"
        }
      ],
      "stateMutability": "nonpayable",
      "type": "function"
    },
    {
      "inputs": [
        {
          "internalType": "bytes",
          "name": "_params",
          "type": "bytes"
        }
      ],
      "name": "updateProvision",
      "outputs": [],
      "stateMutability": "nonpayable",
      "type": "function"
    },
    {
      "inputs": [
        {
          "internalType": "bytes",
          "name": "",
          "type": "bytes"
        },
        {
          "internalType": "bytes[]",
          "name": "_options",
          "type": "bytes[]"
        }
      ],
      "name": "validateOptions",
      "outputs": [
        {
          "internalType": "bool",
          "name": "",
          "type": "bool"
        }
      ],
      "stateMutability": "nonpayable",
      "type": "function"
    }
  ],
  "bytecode": "0x608080604052346015576113ca908161001b8239f35b600080fdfe6080604052600436101561001257600080fd5b60003560e01c80631431b23a1461099d57806344dc8e40146109435780637c015a89146108f157806387a7cfd814610613578063bc0fd6d71461059e578063c90d080a14610523578063dae79e2c146104835763eca82c1a1461007457600080fd5b3461047e5760207ffffffffffffffffffffffffffffffffffffffffffffffffffffffffffffffffc36011261047e5760043567ffffffffffffffff811161047e576100c3903690600401610a52565b600090820160608382031261047a57823567ffffffffffffffff811161047657906100ef9184016111e3565b60208301359081421061044a579061010691611234565b61010f816112c1565b156104225761011d816111a6565b8061041a575b6103f25760408051930135602084015260208352610142604084610c20565b6040519160018251936020818186019661015d81838a610a80565b81017fde1d81bc9860c075d76ad153e67ec9a4f01e6b3b42e3792f5f132c7f17340140815203019020019084519067ffffffffffffffff82116103c5576101a48354610b2b565b601f8111610380575b50602090601f83116001146102b85791806102a894927ff283980cf2fb422908da27e3d9fdf43acd75d0856dbaa2a68f680c76399137049861028c989795926102ad575b50507fffffffffffffffffffffffffffffffffffffffffffffffffffffffffffffffff8260011b9260031b1c19161790555b61029a6001610247602061023561116b565b96604051809381928851928391610a80565b81017fde1d81bc9860c075d76ad153e67ec9a4f01e6b3b42e3792f5f132c7f173401408152030190200191604051958695338752608060208801526080870190610aa3565b908582036040870152610aa3565b908382036060850152610b7e565b0390a1005b0151905038806101f1565b957fffffffffffffffffffffffffffffffffffffffffffffffffffffffffffffffe08316848852828820975b8181106103685750927ff283980cf2fb422908da27e3d9fdf43acd75d0856dbaa2a68f680c7639913704976102a895936001938361028c9a999710610331575b505050811b019055610223565b01517fffffffffffffffffffffffffffffffffffffffffffffffffffffffffffffffff60f88460031b161c19169055388080610324565b838301518955600190980197602093840193016102e4565b83825260208220601f840160051c810191602085106103bb575b601f0160051c01905b8181106103b057506101ad565b8281556001016103a3565b909150819061039a565b807f4e487b7100000000000000000000000000000000000000000000000000000000602492526041600452fd5b6004827f817ff87e000000000000000000000000000000000000000000000000000000008152fd5b506001610123565b6004827f04c80730000000000000000000000000000000000000000000000000000000008152fd5b602483837fd6b8b7c1000000000000000000000000000000000000000000000000000000008252600452fd5b8280fd5b5080fd5b600080fd5b3461047e5760407ffffffffffffffffffffffffffffffffffffffffffffffffffffffffffffffffc36011261047e5760043567ffffffffffffffff811161047e576104d2903690600401610a52565b505060243567ffffffffffffffff811161047e573660238201121561047e5780600401359067ffffffffffffffff821161047e57602436918360051b01011161047e57602090600160405191118152f35b3461047e5760207ffffffffffffffffffffffffffffffffffffffffffffffffffffffffffffffffc36011261047e5760043567ffffffffffffffff811161047e57610572903690600401610a52565b50507fd62347250000000000000000000000000000000000000000000000000000000060005260046000fd5b3461047e5760207ffffffffffffffffffffffffffffffffffffffffffffffffffffffffffffffffc36011261047e5760043567ffffffffffffffff811161047e576106096106046105fe6105f86020943690600401610a52565b90611201565b90611234565b6111a6565b6040519015158152f35b3461047e5760207ffffffffffffffffffffffffffffffffffffffffffffffffffffffffffffffffc36011261047e5760043567ffffffffffffffff811161047e57610662903690600401610a52565b600090820160608382031261047a57823567ffffffffffffffff8111610476579061068e9184016111e3565b60208301359081421061044a57906106a591611234565b6106ae816112c1565b15610422576106bc816111a6565b806108e9575b6103f257604080519301356020840152602083526106e1604084610c20565b604051916001825193602081818601966106fc81838a610a80565b81017fde1d81bc9860c075d76ad153e67ec9a4f01e6b3b42e3792f5f132c7f17340140815203019020019084519067ffffffffffffffff82116103c5576107438354610b2b565b601f81116108a4575b50602090601f83116001146107dd5791806102a894927ff283980cf2fb422908da27e3d9fdf43acd75d0856dbaa2a68f680c76399137049861028c989795926107d25750507fffffffffffffffffffffffffffffffffffffffffffffffffffffffffffffffff8260011b9260031b1c191617905561029a6001610247602061023561116b565b0151905088806101f1565b957fffffffffffffffffffffffffffffffffffffffffffffffffffffffffffffffe08316848852828820975b81811061088c5750927ff283980cf2fb422908da27e3d9fdf43acd75d0856dbaa2a68f680c7639913704976102a895936001938361028c9a99971061085557505050811b019055610223565b01517fffffffffffffffffffffffffffffffffffffffffffffffffffffffffffffffff60f88460031b161c19169055888080610324565b83830151895560019098019760209384019301610809565b83825260208220601f840160051c810191602085106108df575b601f0160051c01905b8181106108d4575061074c565b8281556001016108c7565b90915081906108be565b5060006106c2565b3461047e5760007ffffffffffffffffffffffffffffffffffffffffffffffffffffffffffffffffc36011261047e5761093f61092b61116b565b604051918291602083526020830190610aa3565b0390f35b3461047e5760207ffffffffffffffffffffffffffffffffffffffffffffffffffffffffffffffffc36011261047e5760043567ffffffffffffffff811161047e576106096109976020923690600401610a52565b90610cf5565b3461047e5760207ffffffffffffffffffffffffffffffffffffffffffffffffffffffffffffffffc36011261047e5760043567ffffffffffffffff811161047e576105fe6105f86109f2923690600401610a52565b6109fb816111a6565b15610a2857610a2161092b6001610a1461093f94610ae6565b0160405192838092610b7e565b0382610c20565b7f3c15fc3c0000000000000000000000000000000000000000000000000000000060005260046000fd5b9181601f8401121561047e5782359167ffffffffffffffff831161047e576020838186019501011161047e57565b60005b838110610a935750506000910152565b8181015183820152602001610a83565b907fffffffffffffffffffffffffffffffffffffffffffffffffffffffffffffffe0601f602093610adf81518092818752878088019101610a80565b0116010190565b6020610aff918160405193828580945193849201610a80565b81017fde1d81bc9860c075d76ad153e67ec9a4f01e6b3b42e3792f5f132c7f1734014081520301902090565b90600182811c92168015610b74575b6020831014610b4557565b7f4e487b7100000000000000000000000000000000000000000000000000000000600052602260045260246000fd5b91607f1691610b3a565b60009291815491610b8e83610b2b565b8083529260018116908115610be45750600114610baa57505050565b60009081526020812093945091925b838310610bca575060209250010190565b600181602092949394548385870101520191019190610bb9565b905060209495507fffffffffffffffffffffffffffffffffffffffffffffffffffffffffffffff0091509291921683830152151560051b010190565b90601f7fffffffffffffffffffffffffffffffffffffffffffffffffffffffffffffffe0910116810190811067ffffffffffffffff821117610c6157604052565b7f4e487b7100000000000000000000000000000000000000000000000000000000600052604160045260246000fd5b92919267ffffffffffffffff8211610c615760405191610cd8601f82017fffffffffffffffffffffffffffffffffffffffffffffffffffffffffffffffe01660200184610c20565b82948184528183011161047e578281602093846000960137010152565b610d026105fe8383611201565b90610d0c826112c1565b61116357602092604051610d208582610c20565b600081526040516060810181811067ffffffffffffffff821117610c6157604052610d4c368486610c90565b8152858101918252604081019160008352610d6686610ae6565b915180519067ffffffffffffffff8211610c61578190610d868554610b2b565b601f8111611112575b508990601f831160011461107357600092611068575b50507fffffffffffffffffffffffffffffffffffffffffffffffffffffffffffffffff8260011b9260031b1c19161782555b518051600183019167ffffffffffffffff8211610c6157610df88354610b2b565b601f8111611022575b508890601f8311600114610f30577fffffffffffffffffffffffffffffffffffffffffffffffffffffffffffffffe094601f9484610ef39b99957f8f98cf6cad37d272d2ef9755b9af214ca9dc0d507ee88fd6396e6c2c94e8532e9d9b9995600295600092610f25575b50507fffffffffffffffffffffffffffffffffffffffffffffffffffffffffffffffff8260011b9260031b1c19161790555b019051151560ff7fffffffffffffffffffffffffffffffffffffffffffffffffffffffffffffff00835416911617905580610f01610ed961116b565b96604051998a98338a5260808b8b015260808a0190610aa3565b9088820360408a0152610aa3565b948686036060880152818652878601376000868286010152011601030190a1600190565b015190503880610e6b565b907fffffffffffffffffffffffffffffffffffffffffffffffffffffffffffffffe0831691846000528a6000209260005b81811061100b5750946001857f8f98cf6cad37d272d2ef9755b9af214ca9dc0d507ee88fd6396e6c2c94e8532e9d9b99956002957fffffffffffffffffffffffffffffffffffffffffffffffffffffffffffffffe09a95610ef39f9d99601f9b10610fd4575b505050811b019055610e9d565b01517fffffffffffffffffffffffffffffffffffffffffffffffffffffffffffffffff60f88460031b161c19169055388080610fc7565b92938c600181928786015181550195019301610f61565b8360005289600020601f840160051c8101918b851061105e575b601f0160051c01905b8181106110525750610e01565b60008155600101611045565b909150819061103c565b015190503880610da5565b60008681528b8120937fffffffffffffffffffffffffffffffffffffffffffffffffffffffffffffffe016905b8c8282106110fc5750509084600195949392106110c5575b505050811b018255610dd7565b01517fffffffffffffffffffffffffffffffffffffffffffffffffffffffffffffffff60f88460031b161c191690553880806110b8565b60018596829396860151815501950193016110a0565b9091508460005289600020601f840160051c8101918b8510611159575b90601f859493920160051c01905b81811061114a5750610d8f565b6000815584935060010161113d565b909150819061112f565b505050600190565b6040519061117a604083610c20565b600b82527f61737365742d70726963650000000000000000000000000000000000000000006020830152565b60016111b46111df92610ae6565b01610a216111da604051926111ca602085610c20565b6000845260405192838092610b7e565b611371565b1590565b9080601f8301121561047e578160206111fe93359101610c90565b90565b9190820160408382031261047e57823567ffffffffffffffff811161047e5760209161122e9185016111e3565b92013590565b6111fe9061125f9261128f61124761116b565b92604051958694606060208701526080860190610aa3565b907fffffffffffffffffffffffffffffffffffffffffffffffffffffffffffffffe0858303016040860152610aa3565b906060830152037fffffffffffffffffffffffffffffffffffffffffffffffffffffffffffffffe08101835282610c20565b60ff600261133360206040516113218651918381818a01946112e4818388610a80565b81017fde1d81bc9860c075d76ad153e67ec9a4f01e6b3b42e3792f5f132c7f17340140815203019020610a216111da604051926111ca8785610c20565b95604051938492839251928391610a80565b81017fde1d81bc9860c075d76ad153e67ec9a4f01e6b3b42e3792f5f132c7f173401408152030190200154169015908161136b575090565b90501590565b80519082519182810361138b576020809201209201201490565b5050505060009056fea2646970667358221220a7b4552211a73f6614cdfa7ce7447cd28385e237c510aa5095b3af8b076d5bfc64736f6c634300081c0033",
  "linkReferences": {},
  "deployedLinkReferences": {}
}